{
  "_format": "hh-sol-artifact-1",
  "contractName": "BuyNFT",
  "sourceName": "contracts/BuyNFT.sol",
  "abi": [
    {
      "inputs": [
        {
          "internalType": "address",
          "name": "_WEB3DAONFT",
          "type": "address"
        },
        {
          "internalType": "address",
          "name": "_WETH",
          "type": "address"
        }
      ],
      "stateMutability": "nonpayable",
      "type": "constructor"
    },
    {
      "anonymous": false,
      "inputs": [
        {
          "indexed": false,
          "internalType": "address",
          "name": "to",
          "type": "address"
        }
      ],
      "name": "Buy",
      "type": "event"
    },
    {
      "anonymous": false,
      "inputs": [
        {
          "indexed": true,
          "internalType": "address",
          "name": "previousOwner",
          "type": "address"
        },
        {
          "indexed": true,
          "internalType": "address",
          "name": "newOwner",
          "type": "address"
        }
      ],
      "name": "OwnershipTransferred",
      "type": "event"
    },
    {
      "anonymous": false,
      "inputs": [
        {
          "indexed": false,
          "internalType": "uint256",
          "name": "_price",
          "type": "uint256"
        }
      ],
      "name": "SetPrice",
      "type": "event"
    },
    {
      "inputs": [],
      "name": "DaoVault",
      "outputs": [
        {
          "internalType": "address",
          "name": "",
          "type": "address"
        }
      ],
      "stateMutability": "view",
      "type": "function"
    },
    {
      "inputs": [],
      "name": "WEB3DAONFT",
      "outputs": [
        {
          "internalType": "address",
          "name": "",
          "type": "address"
        }
      ],
      "stateMutability": "view",
      "type": "function"
    },
    {
      "inputs": [],
      "name": "WETH",
      "outputs": [
        {
          "internalType": "address",
          "name": "",
          "type": "address"
        }
      ],
      "stateMutability": "view",
      "type": "function"
    },
    {
      "inputs": [
        {
          "internalType": "address",
          "name": "to",
          "type": "address"
        }
      ],
      "name": "buy",
      "outputs": [],
      "stateMutability": "nonpayable",
      "type": "function"
    },
    {
      "inputs": [],
      "name": "owner",
      "outputs": [
        {
          "internalType": "address",
          "name": "",
          "type": "address"
        }
      ],
      "stateMutability": "view",
      "type": "function"
    },
    {
      "inputs": [],
      "name": "price",
      "outputs": [
        {
          "internalType": "uint256",
          "name": "",
          "type": "uint256"
        }
      ],
      "stateMutability": "view",
      "type": "function"
    },
    {
      "inputs": [],
      "name": "renounceOwnership",
      "outputs": [],
      "stateMutability": "nonpayable",
      "type": "function"
    },
    {
      "inputs": [
        {
          "internalType": "uint256",
          "name": "_price",
          "type": "uint256"
        }
      ],
      "name": "setPrice",
      "outputs": [],
      "stateMutability": "nonpayable",
      "type": "function"
    },
    {
      "inputs": [
        {
          "internalType": "address",
          "name": "newOwner",
          "type": "address"
        }
      ],
      "name": "transferOwnership",
      "outputs": [],
      "stateMutability": "nonpayable",
      "type": "function"
    }
  ],
  "bytecode": "0x60c06040526658d15e1762800060025534801561001b57600080fd5b5060405161086338038061086383398101604081905261003a916100cd565b61004333610061565b6001600160601b0319606092831b8116608052911b1660a0526100ff565b600080546001600160a01b038381166001600160a01b0319831681178455604051919092169283917f8be0079c531659141344cd1fd0a4f28419497f9722a3daafe3b4186f6b6457e09190a35050565b80516001600160a01b03811681146100c857600080fd5b919050565b600080604083850312156100df578182fd5b6100e8836100b1565b91506100f6602084016100b1565b90509250929050565b60805160601c60a05160601c61072b6101386000396000818161010e015261027a01526000818161013501526102c0015261072b6000f3fe608060405234801561001057600080fd5b50600436106100935760003560e01c8063a035b1fe11610066578063a035b1fe146100f2578063ad5c464814610109578063b7627eee14610130578063f088d54714610157578063f2fde38b1461016a57600080fd5b8063715018a6146100985780638da5cb5b146100a257806391b7f5ed146100cc57806398b8c4e1146100df575b600080fd5b6100a061017d565b005b6000546001600160a01b03165b6040516001600160a01b0390911681526020015b60405180910390f35b6100a06100da366004610629565b6101bc565b6001546100af906001600160a01b031681565b6100fb60025481565b6040519081526020016100c3565b6100af7f000000000000000000000000000000000000000000000000000000000000000081565b6100af7f000000000000000000000000000000000000000000000000000000000000000081565b6100a0610165366004610602565b610222565b6100a0610178366004610602565b610356565b6000546001600160a01b031633146101b05760405162461bcd60e51b81526004016101a790610690565b60405180910390fd5b6101ba60006103f1565b565b6000546001600160a01b031633146101e65760405162461bcd60e51b81526004016101a790610690565b60028190556040518181527f4f5539c0409dfc4cb06f64cbd31237e1fbfe443f531584bf4dd77ec7fc5ba7b1906020015b60405180910390a150565b600154600254604080513360248201526001600160a01b0393841660448201526064808201939093528151808203909301835260840190526020810180516001600160e01b03166323b872dd60e01b1790526102a0917f00000000000000000000000000000000000000000000000000000000000000001690610441565b506040516335313c2160e11b81526001600160a01b0382811660048301527f00000000000000000000000000000000000000000000000000000000000000001690636a62784290602401600060405180830381600087803b15801561030457600080fd5b505af1158015610318573d6000803e3d6000fd5b50506040516001600160a01b03841681527f5c6c890314aa0d49059c35b35ff86ffb43efe8f543dc3691558f39dfa4a8201192506020019050610217565b6000546001600160a01b031633146103805760405162461bcd60e51b81526004016101a790610690565b6001600160a01b0381166103e55760405162461bcd60e51b815260206004820152602660248201527f4f776e61626c653a206e6577206f776e657220697320746865207a65726f206160448201526564647265737360d01b60648201526084016101a7565b6103ee816103f1565b50565b600080546001600160a01b038381166001600160a01b0319831681178455604051919092169283917f8be0079c531659141344cd1fd0a4f28419497f9722a3daafe3b4186f6b6457e09190a35050565b606061048383836040518060400160405280601e81526020017f416464726573733a206c6f772d6c6576656c2063616c6c206661696c6564000081525061048a565b9392505050565b606061049984846000856104a1565b949350505050565b6060824710156105025760405162461bcd60e51b815260206004820152602660248201527f416464726573733a20696e73756666696369656e742062616c616e636520666f6044820152651c8818d85b1b60d21b60648201526084016101a7565b843b6105505760405162461bcd60e51b815260206004820152601d60248201527f416464726573733a2063616c6c20746f206e6f6e2d636f6e747261637400000060448201526064016101a7565b600080866001600160a01b0316858760405161056c9190610641565b60006040518083038185875af1925050503d80600081146105a9576040519150601f19603f3d011682016040523d82523d6000602084013e6105ae565b606091505b50915091506105be8282866105c9565b979650505050505050565b606083156105d8575081610483565b8251156105e85782518084602001fd5b8160405162461bcd60e51b81526004016101a7919061065d565b600060208284031215610613578081fd5b81356001600160a01b0381168114610483578182fd5b60006020828403121561063a578081fd5b5035919050565b600082516106538184602087016106c5565b9190910192915050565b602081526000825180602084015261067c8160408501602087016106c5565b601f01601f19169190910160400192915050565b6020808252818101527f4f776e61626c653a2063616c6c6572206973206e6f7420746865206f776e6572604082015260600190565b60005b838110156106e05781810151838201526020016106c8565b838111156106ef576000848401525b5050505056fea2646970667358221220eada2b0367fcae299886c6845acf0ba57b297d47156c17c2be120955c66220cc64736f6c63430008040033",
  "linkReferences": {},
  "deployedLinkReferences": {}
}