{
  "_format": "hh-sol-artifact-1",
  "contractName": "BuyNFT",
  "sourceName": "contracts/BuyNFT.sol",
  "abi": [
    {
      "inputs": [
        {
          "internalType": "address",
          "name": "_WEB3DAONFT",
          "type": "address"
        },
        {
          "internalType": "address",
          "name": "_WETH",
          "type": "address"
        }
      ],
      "stateMutability": "nonpayable",
      "type": "constructor"
    },
    {
      "anonymous": false,
      "inputs": [
        {
          "indexed": false,
          "internalType": "address",
          "name": "to",
          "type": "address"
        }
      ],
      "name": "Buy",
      "type": "event"
    },
    {
      "anonymous": false,
      "inputs": [
        {
          "indexed": true,
          "internalType": "address",
          "name": "previousOwner",
          "type": "address"
        },
        {
          "indexed": true,
          "internalType": "address",
          "name": "newOwner",
          "type": "address"
        }
      ],
      "name": "OwnershipTransferred",
      "type": "event"
    },
    {
      "anonymous": false,
      "inputs": [
        {
          "indexed": false,
          "internalType": "address",
          "name": "_DaoVault",
          "type": "address"
        }
      ],
      "name": "SetDaoVault",
      "type": "event"
    },
    {
      "anonymous": false,
      "inputs": [
        {
          "indexed": false,
          "internalType": "uint256",
          "name": "_price",
          "type": "uint256"
        }
      ],
      "name": "SetPrice",
      "type": "event"
    },
    {
      "inputs": [],
      "name": "DaoVault",
      "outputs": [
        {
          "internalType": "address",
          "name": "",
          "type": "address"
        }
      ],
      "stateMutability": "view",
      "type": "function"
    },
    {
      "inputs": [],
      "name": "WEB3DAONFT",
      "outputs": [
        {
          "internalType": "address",
          "name": "",
          "type": "address"
        }
      ],
      "stateMutability": "view",
      "type": "function"
    },
    {
      "inputs": [],
      "name": "WETH",
      "outputs": [
        {
          "internalType": "address",
          "name": "",
          "type": "address"
        }
      ],
      "stateMutability": "view",
      "type": "function"
    },
    {
      "inputs": [
        {
          "internalType": "address",
          "name": "to",
          "type": "address"
        }
      ],
      "name": "buy",
      "outputs": [],
      "stateMutability": "nonpayable",
      "type": "function"
    },
    {
      "inputs": [],
      "name": "owner",
      "outputs": [
        {
          "internalType": "address",
          "name": "",
          "type": "address"
        }
      ],
      "stateMutability": "view",
      "type": "function"
    },
    {
      "inputs": [],
      "name": "price",
      "outputs": [
        {
          "internalType": "uint256",
          "name": "",
          "type": "uint256"
        }
      ],
      "stateMutability": "view",
      "type": "function"
    },
    {
      "inputs": [],
      "name": "renounceOwnership",
      "outputs": [],
      "stateMutability": "nonpayable",
      "type": "function"
    },
    {
      "inputs": [
        {
          "internalType": "address",
          "name": "_DaoVault",
          "type": "address"
        }
      ],
      "name": "setDaoVault",
      "outputs": [],
      "stateMutability": "nonpayable",
      "type": "function"
    },
    {
      "inputs": [
        {
          "internalType": "uint256",
          "name": "_price",
          "type": "uint256"
        }
      ],
      "name": "setPrice",
      "outputs": [],
      "stateMutability": "nonpayable",
      "type": "function"
    },
    {
      "inputs": [
        {
          "internalType": "address",
          "name": "newOwner",
          "type": "address"
        }
      ],
      "name": "transferOwnership",
      "outputs": [],
      "stateMutability": "nonpayable",
      "type": "function"
    }
  ],
  "bytecode": "0x60c06040526658d15e1762800060025534801561001b57600080fd5b5060405161096038038061096083398101604081905261003a916100cd565b61004333610061565b6001600160601b0319606092831b8116608052911b1660a0526100ff565b600080546001600160a01b038381166001600160a01b0319831681178455604051919092169283917f8be0079c531659141344cd1fd0a4f28419497f9722a3daafe3b4186f6b6457e09190a35050565b80516001600160a01b03811681146100c857600080fd5b919050565b600080604083850312156100df578182fd5b6100e8836100b1565b91506100f6602084016100b1565b90509250929050565b60805160601c60a05160601c6108286101386000396000818161012c015261031001526000818161015301526103bb01526108286000f3fe608060405234801561001057600080fd5b506004361061009e5760003560e01c8063a035b1fe11610066578063a035b1fe14610110578063ad5c464814610127578063b7627eee1461014e578063f088d54714610175578063f2fde38b1461018857600080fd5b80634b799db1146100a3578063715018a6146100b85780638da5cb5b146100c057806391b7f5ed146100ea57806398b8c4e1146100fd575b600080fd5b6100b66100b13660046106ff565b61019b565b005b6100b6610223565b6000546001600160a01b03165b6040516001600160a01b0390911681526020015b60405180910390f35b6100b66100f8366004610726565b610259565b6001546100cd906001600160a01b031681565b61011960025481565b6040519081526020016100e1565b6100cd7f000000000000000000000000000000000000000000000000000000000000000081565b6100cd7f000000000000000000000000000000000000000000000000000000000000000081565b6100b66101833660046106ff565b6102b8565b6100b66101963660046106ff565b610453565b6000546001600160a01b031633146101ce5760405162461bcd60e51b81526004016101c59061078d565b60405180910390fd5b600180546001600160a01b0319166001600160a01b0383169081179091556040519081527fb329e64befdec2a048fc9bc0ec49385e5f414f5047e9fe44d771240d47e307a5906020015b60405180910390a150565b6000546001600160a01b0316331461024d5760405162461bcd60e51b81526004016101c59061078d565b61025760006104ee565b565b6000546001600160a01b031633146102835760405162461bcd60e51b81526004016101c59061078d565b60028190556040518181527f4f5539c0409dfc4cb06f64cbd31237e1fbfe443f531584bf4dd77ec7fc5ba7b190602001610218565b600154600254604080513360248201526001600160a01b0393841660448201526064808201939093528151808203909301835260840190526020810180516001600160e01b03166323b872dd60e01b179052610336917f0000000000000000000000000000000000000000000000000000000000000000169061053e565b5060015460025460405163b6b55f2560e01b81526001600160a01b039092169163b6b55f259161036c9160040190815260200190565b600060405180830381600087803b15801561038657600080fd5b505af115801561039a573d6000803e3d6000fd5b50506040516335313c2160e11b81526001600160a01b0384811660048301527f0000000000000000000000000000000000000000000000000000000000000000169250636a6278429150602401600060405180830381600087803b15801561040157600080fd5b505af1158015610415573d6000803e3d6000fd5b50506040516001600160a01b03841681527f5c6c890314aa0d49059c35b35ff86ffb43efe8f543dc3691558f39dfa4a8201192506020019050610218565b6000546001600160a01b0316331461047d5760405162461bcd60e51b81526004016101c59061078d565b6001600160a01b0381166104e25760405162461bcd60e51b815260206004820152602660248201527f4f776e61626c653a206e6577206f776e657220697320746865207a65726f206160448201526564647265737360d01b60648201526084016101c5565b6104eb816104ee565b50565b600080546001600160a01b038381166001600160a01b0319831681178455604051919092169283917f8be0079c531659141344cd1fd0a4f28419497f9722a3daafe3b4186f6b6457e09190a35050565b606061058083836040518060400160405280601e81526020017f416464726573733a206c6f772d6c6576656c2063616c6c206661696c65640000815250610587565b9392505050565b6060610596848460008561059e565b949350505050565b6060824710156105ff5760405162461bcd60e51b815260206004820152602660248201527f416464726573733a20696e73756666696369656e742062616c616e636520666f6044820152651c8818d85b1b60d21b60648201526084016101c5565b843b61064d5760405162461bcd60e51b815260206004820152601d60248201527f416464726573733a2063616c6c20746f206e6f6e2d636f6e747261637400000060448201526064016101c5565b600080866001600160a01b03168587604051610669919061073e565b60006040518083038185875af1925050503d80600081146106a6576040519150601f19603f3d011682016040523d82523d6000602084013e6106ab565b606091505b50915091506106bb8282866106c6565b979650505050505050565b606083156106d5575081610580565b8251156106e55782518084602001fd5b8160405162461bcd60e51b81526004016101c5919061075a565b600060208284031215610710578081fd5b81356001600160a01b0381168114610580578182fd5b600060208284031215610737578081fd5b5035919050565b600082516107508184602087016107c2565b9190910192915050565b60208152600082518060208401526107798160408501602087016107c2565b601f01601f19169190910160400192915050565b6020808252818101527f4f776e61626c653a2063616c6c6572206973206e6f7420746865206f776e6572604082015260600190565b60005b838110156107dd5781810151838201526020016107c5565b838111156107ec576000848401525b5050505056fea2646970667358221220c186483fa8d11d954bfd5a10eaaa636af2e0bf4770f077e0feaa0b65c2d140b164736f6c63430008040033",
  "linkReferences": {},
  "deployedLinkReferences": {}
}