{
  "_format": "hh-sol-artifact-1",
  "contractName": "MultiSign",
  "sourceName": "contracts/MultiSign.sol",
  "abi": [
    {
      "inputs": [],
      "stateMutability": "nonpayable",
      "type": "constructor"
    },
    {
      "anonymous": false,
      "inputs": [
        {
          "indexed": true,
          "internalType": "address",
          "name": "commitee",
          "type": "address"
        }
      ],
      "name": "CommiteeAddition",
      "type": "event"
    },
    {
      "anonymous": false,
      "inputs": [
        {
          "indexed": true,
          "internalType": "address",
          "name": "commitee",
          "type": "address"
        }
      ],
      "name": "CommiteeRemoval",
      "type": "event"
    },
    {
      "anonymous": false,
      "inputs": [
        {
          "indexed": true,
          "internalType": "address",
          "name": "sender",
          "type": "address"
        },
        {
          "indexed": true,
          "internalType": "uint256",
          "name": "transactionId",
          "type": "uint256"
        }
      ],
      "name": "Confirmation",
      "type": "event"
    },
    {
      "anonymous": false,
      "inputs": [
        {
          "indexed": true,
          "internalType": "uint256",
          "name": "transactionId",
          "type": "uint256"
        }
      ],
      "name": "Execution",
      "type": "event"
    },
    {
      "anonymous": false,
      "inputs": [
        {
          "indexed": true,
          "internalType": "uint256",
          "name": "transactionId",
          "type": "uint256"
        }
      ],
      "name": "ExecutionFailure",
      "type": "event"
    },
    {
      "anonymous": false,
      "inputs": [
        {
          "indexed": true,
          "internalType": "uint256",
          "name": "transactionId",
          "type": "uint256"
        }
      ],
      "name": "ExecutionSuccess",
      "type": "event"
    },
    {
      "anonymous": false,
      "inputs": [
        {
          "indexed": false,
          "internalType": "uint256",
          "name": "required",
          "type": "uint256"
        }
      ],
      "name": "RequirementChange",
      "type": "event"
    },
    {
      "anonymous": false,
      "inputs": [
        {
          "indexed": true,
          "internalType": "address",
          "name": "sender",
          "type": "address"
        },
        {
          "indexed": true,
          "internalType": "uint256",
          "name": "transactionId",
          "type": "uint256"
        }
      ],
      "name": "Revocation",
      "type": "event"
    },
    {
      "anonymous": false,
      "inputs": [
        {
          "indexed": true,
          "internalType": "uint256",
          "name": "transactionId",
          "type": "uint256"
        }
      ],
      "name": "Submission",
      "type": "event"
    },
    {
      "inputs": [],
      "name": "MAX_COMMITEE_COUNT",
      "outputs": [
        {
          "internalType": "uint256",
          "name": "",
          "type": "uint256"
        }
      ],
      "stateMutability": "view",
      "type": "function"
    },
    {
      "inputs": [
        {
          "internalType": "address",
          "name": "commitee",
          "type": "address"
        }
      ],
      "name": "addCommitee",
      "outputs": [],
      "stateMutability": "nonpayable",
      "type": "function"
    },
    {
      "inputs": [
        {
          "internalType": "uint256",
          "name": "_required",
          "type": "uint256"
        }
      ],
      "name": "changeRequirement",
      "outputs": [],
      "stateMutability": "nonpayable",
      "type": "function"
    },
    {
      "inputs": [
        {
          "internalType": "uint256",
          "name": "",
          "type": "uint256"
        }
      ],
      "name": "commitees",
      "outputs": [
        {
          "internalType": "address",
          "name": "",
          "type": "address"
        }
      ],
      "stateMutability": "view",
      "type": "function"
    },
    {
      "inputs": [
        {
          "internalType": "uint256",
          "name": "transactionId",
          "type": "uint256"
        }
      ],
      "name": "confirmTransaction",
      "outputs": [],
      "stateMutability": "nonpayable",
      "type": "function"
    },
    {
      "inputs": [
        {
          "internalType": "uint256",
          "name": "",
          "type": "uint256"
        },
        {
          "internalType": "address",
          "name": "",
          "type": "address"
        }
      ],
      "name": "confirmations",
      "outputs": [
        {
          "internalType": "bool",
          "name": "",
          "type": "bool"
        }
      ],
      "stateMutability": "view",
      "type": "function"
    },
    {
      "inputs": [],
      "name": "getCommitees",
      "outputs": [
        {
          "internalType": "address[]",
          "name": "",
          "type": "address[]"
        }
      ],
      "stateMutability": "view",
      "type": "function"
    },
    {
      "inputs": [
        {
          "internalType": "uint256",
          "name": "transactionId",
          "type": "uint256"
        }
      ],
      "name": "getConfirmationCount",
      "outputs": [
        {
          "internalType": "uint256",
          "name": "count",
          "type": "uint256"
        }
      ],
      "stateMutability": "view",
      "type": "function"
    },
    {
      "inputs": [
        {
          "internalType": "uint256",
          "name": "transactionId",
          "type": "uint256"
        }
      ],
      "name": "getConfirmations",
      "outputs": [
        {
          "internalType": "address[]",
          "name": "_confirmations",
          "type": "address[]"
        }
      ],
      "stateMutability": "view",
      "type": "function"
    },
    {
      "inputs": [
        {
          "internalType": "address",
          "name": "",
          "type": "address"
        }
      ],
      "name": "isCommitee",
      "outputs": [
        {
          "internalType": "bool",
          "name": "",
          "type": "bool"
        }
      ],
      "stateMutability": "view",
      "type": "function"
    },
    {
      "inputs": [
        {
          "internalType": "uint256",
          "name": "transactionId",
          "type": "uint256"
        }
      ],
      "name": "isConfirmed",
      "outputs": [
        {
          "internalType": "bool",
          "name": "ret",
          "type": "bool"
        }
      ],
      "stateMutability": "view",
      "type": "function"
    },
    {
      "inputs": [
        {
          "internalType": "address",
          "name": "commitee",
          "type": "address"
        }
      ],
      "name": "removeCommitee",
      "outputs": [],
      "stateMutability": "nonpayable",
      "type": "function"
    },
    {
      "inputs": [],
      "name": "required",
      "outputs": [
        {
          "internalType": "uint256",
          "name": "",
          "type": "uint256"
        }
      ],
      "stateMutability": "view",
      "type": "function"
    },
    {
      "inputs": [
        {
          "internalType": "uint256",
          "name": "transactionId",
          "type": "uint256"
        }
      ],
      "name": "revokeConfirmation",
      "outputs": [],
      "stateMutability": "nonpayable",
      "type": "function"
    },
    {
      "inputs": [
        {
          "internalType": "address",
          "name": "destination",
          "type": "address"
        },
        {
          "internalType": "bytes",
          "name": "data",
          "type": "bytes"
        }
      ],
      "name": "submitTransaction",
      "outputs": [
        {
          "internalType": "uint256",
          "name": "transactionId",
          "type": "uint256"
        }
      ],
      "stateMutability": "nonpayable",
      "type": "function"
    },
    {
      "inputs": [],
      "name": "transactionCount",
      "outputs": [
        {
          "internalType": "uint256",
          "name": "",
          "type": "uint256"
        }
      ],
      "stateMutability": "view",
      "type": "function"
    },
    {
      "inputs": [
        {
          "internalType": "uint256",
          "name": "",
          "type": "uint256"
        }
      ],
      "name": "transactions",
      "outputs": [
        {
          "internalType": "address",
          "name": "destination",
          "type": "address"
        },
        {
          "internalType": "bytes",
          "name": "data",
          "type": "bytes"
        },
        {
          "internalType": "bool",
          "name": "executed",
          "type": "bool"
        }
      ],
      "stateMutability": "view",
      "type": "function"
    }
  ],
  "bytecode": "0x6080604052606560005534801561001557600080fd5b50336000818152600360205260408120805460ff1916600190811790915560048054808301825592527f8a35acfbc15ff81a39ae7d344fd709f28e8600b4aa8c65c6b64bfe7fe36bd19b90910180546001600160a01b031916909217909155600555611694806100866000396000f3fe608060405234801561001057600080fd5b506004361061010b5760003560e01c8063b5dc40c3116100a2578063c01a8c8411610071578063c01a8c8414610263578063c60abbf414610276578063d512072414610289578063dc8452cd1461029c578063f10f3776146102a557600080fd5b8063b5dc40c314610221578063b77bf60014610234578063ba51a6df1461023d578063bbf1b2f11461025057600080fd5b80637897590e116100de5780637897590e146101a657806382334992146101bb5780638b51d13f146101de5780639ace38c2146101ff57600080fd5b806320ea8d86146101105780633411c81c146101255780636f6cc70414610168578063784547a714610193575b600080fd5b61012361011e36600461135c565b6102ae565b005b610153610133366004611374565b600260209081526000928352604080842090915290825290205460ff1681565b60405190151581526020015b60405180910390f35b61017b61017636600461135c565b610406565b6040516001600160a01b03909116815260200161015f565b6101536101a136600461135c565b610430565b6101ae6104d4565b60405161015f91906114a5565b6101536101c936600461125e565b60036020526000908152604090205460ff1681565b6101f16101ec36600461135c565b610536565b60405190815260200161015f565b61021261020d36600461135c565b6105ca565b60405161015f9392919061143a565b6101ae61022f36600461135c565b610683565b6101f160065481565b61012361024b36600461135c565b6108bc565b6101f161025e36600461127f565b610961565b61012361027136600461135c565b6109af565b61012361028436600461125e565b610b19565b61012361029736600461125e565b610ce9565b6101f160055481565b6101f160005481565b3360008181526003602052604090205460ff166102e65760405162461bcd60e51b81526004016102dd9061157e565b60405180910390fd5b60008281526002602090815260408083203380855292529091205483919060ff166103535760405162461bcd60e51b815260206004820152601b60248201527f4d756c74695369676e20636f6e6669726d65642829204572726f72000000000060448201526064016102dd565b600084815260016020526040902060020154849060ff16156103b75760405162461bcd60e51b815260206004820152601d60248201527f4d756c74695369676e206e6f7445786563757465642829204572726f7200000060448201526064016102dd565b6000858152600260209081526040808320338085529252808320805460ff191690555187927ff6a317157440607f36269043eb55f1287a5a19ba2216afeab88cd46cbcfb88e991a35050505050565b6004818154811061041657600080fd5b6000918252602090912001546001600160a01b0316905081565b600080805b6004548110156104cd576000848152600260205260408120600480549192918490811061047257634e487b7160e01b600052603260045260246000fd5b60009182526020808320909101546001600160a01b0316835282019290925260400190205460ff16156104ad57816104a981611617565b9250505b60055482106104bb57600192505b806104c581611617565b915050610435565b5050919050565b6060600480548060200260200160405190810160405280929190818152602001828054801561052c57602002820191906000526020600020905b81546001600160a01b0316815260019091019060200180831161050e575b5050505050905090565b6000805b6004548110156105c4576000838152600260205260408120600480549192918490811061057757634e487b7160e01b600052603260045260246000fd5b60009182526020808320909101546001600160a01b0316835282019290925260400190205460ff16156105b257816105ae81611617565b9250505b806105bc81611617565b91505061053a565b50919050565b6001602081905260009182526040909120805491810180546001600160a01b03909316926105f7906115e2565b80601f0160208091040260200160405190810160405280929190818152602001828054610623906115e2565b80156106705780601f1061064557610100808354040283529160200191610670565b820191906000526020600020905b81548152906001019060200180831161065357829003601f168201915b5050506002909301549192505060ff1683565b60045460609060009067ffffffffffffffff8111156106b257634e487b7160e01b600052604160045260246000fd5b6040519080825280602002602001820160405280156106db578160200160208202803683370190505b5090506000805b6004548110156107e3576000858152600260205260408120600480549192918490811061071f57634e487b7160e01b600052603260045260246000fd5b60009182526020808320909101546001600160a01b0316835282019290925260400190205460ff16156107d1576004818154811061076d57634e487b7160e01b600052603260045260246000fd5b9060005260206000200160009054906101000a90046001600160a01b03168383815181106107ab57634e487b7160e01b600052603260045260246000fd5b6001600160a01b0390921660209283029190910190910152816107cd81611617565b9250505b806107db81611617565b9150506106e2565b508067ffffffffffffffff81111561080b57634e487b7160e01b600052604160045260246000fd5b604051908082528060200260200182016040528015610834578160200160208202803683370190505b50925060005b818110156108b45782818151811061086257634e487b7160e01b600052603260045260246000fd5b602002602001015184828151811061088a57634e487b7160e01b600052603260045260246000fd5b6001600160a01b0390921660209283029190910190910152806108ac81611617565b91505061083a565b505050919050565b3330146108db5760405162461bcd60e51b81526004016102dd90611534565b6004548181158015906108f057506000548211155b80156108fc5750600081115b80156109085750818111155b6109245760405162461bcd60e51b81526004016102dd906114f2565b60058390556040518381527fa3f1ee9126a074d9326c682f561767f710e927faa811f7a99829d49dc421797a9060200160405180910390a1505050565b3360008181526003602052604081205490919060ff166109935760405162461bcd60e51b81526004016102dd9061157e565b61099d8484610efe565b91506109a8826109af565b5092915050565b3360008181526003602052604090205460ff166109de5760405162461bcd60e51b81526004016102dd9061157e565b60008281526001602052604090205482906001600160a01b0316610a505760405162461bcd60e51b815260206004820152602360248201527f4d756c74695369676e207472616e73616374696f6e45786973747328292045726044820152623937b960e91b60648201526084016102dd565b60008381526002602090815260408083203380855292529091205484919060ff1615610abe5760405162461bcd60e51b815260206004820152601e60248201527f4d756c74695369676e206e6f74436f6e6669726d65642829204572726f72000060448201526064016102dd565b6000858152600260209081526040808320338085529252808320805460ff191660011790555187927f4a504a94899432a9846e1aa406dceb1bcfd538bb839071d49d1e5e23f5be30ef91a3610b128561101b565b5050505050565b6001600160a01b038116600090815260036020526040902054819060ff1615610b905760405162461bcd60e51b815260206004820152602360248201527f4d756c74695369676e20636f6d6d697465654e6f7445786973747328292045726044820152623937b960e91b60648201526084016102dd565b816001600160a01b038116610be35760405162461bcd60e51b815260206004820152601960248201527826bab63a34a9b4b3b7103737ba273ab63614149022b93937b960391b60448201526064016102dd565b600454610bf19060016115b3565b600554600082118015610c0657506000548211155b8015610c125750600081115b8015610c1e5750818111155b610c3a5760405162461bcd60e51b81526004016102dd906114f2565b333014610c595760405162461bcd60e51b81526004016102dd90611534565b6001600160a01b038516600081815260036020526040808220805460ff1916600190811790915560048054918201815583527f8a35acfbc15ff81a39ae7d344fd709f28e8600b4aa8c65c6b64bfe7fe36bd19b0180546001600160a01b03191684179055517f6aace347f016a777fa6258ea1f5a1cf7a83cba16e67ab7d4abedf50dbf4779e29190a25050505050565b333014610d085760405162461bcd60e51b81526004016102dd90611534565b6001600160a01b038116600090815260036020526040902054819060ff16610d425760405162461bcd60e51b81526004016102dd9061157e565b6001600160a01b0382166000908152600360205260408120805460ff191690555b600454610d72906001906115cb565b811015610e6c57826001600160a01b031660048281548110610da457634e487b7160e01b600052603260045260246000fd5b6000918252602090912001546001600160a01b03161415610e5a5760048054610dcf906001906115cb565b81548110610ded57634e487b7160e01b600052603260045260246000fd5b600091825260209091200154600480546001600160a01b039092169183908110610e2757634e487b7160e01b600052603260045260246000fd5b9060005260206000200160006101000a8154816001600160a01b0302191690836001600160a01b03160217905550610e6c565b80610e6481611617565b915050610d63565b506004805480610e8c57634e487b7160e01b600052603160045260246000fd5b600082815260209020810160001990810180546001600160a01b03191690550190556004546005541115610ec657600454610ec6906108bc565b6040516001600160a01b038316907fe4c71e97b098958c9a514b681c52608969cc549306e8c95ec3f25c189daee40a90600090a25050565b6000826001600160a01b038116610f535760405162461bcd60e51b815260206004820152601960248201527826bab63a34a9b4b3b7103737ba273ab63614149022b93937b960391b60448201526064016102dd565b600654604080516060810182526001600160a01b038781168252602080830188815260008486018190528681526001808452959020845181546001600160a01b031916941693909317835551805195975092949193610fb893908501929101906111a9565b50604091909101516002909101805460ff191691151591909117905560068054906000610fe483611617565b909155505060405182907fc0ba8fe4b176c1714197d43b9cc6bcf797a4a7461c5fe8d0ef6e184ae7601e5190600090a25092915050565b600081815260016020526040902060020154819060ff161561107f5760405162461bcd60e51b815260206004820152601d60248201527f4d756c74695369676e206e6f7445786563757465642829204572726f7200000060448201526064016102dd565b61108882610430565b156111a557600082815260016020819052604080832060028101805460ff1916841790558054915190939283926001600160a01b0316916110cb9186019061139f565b6000604051808303816000865af19150503d8060008114611108576040519150601f19603f3d011682016040523d82523d6000602084013e61110d565b606091505b5091509150818015611137575080511580611137575080806020019051810190611137919061133c565b1561116c5760405185907ff2788e0d1a8dffbdac057cef8914e5346afd7a09d39d19b60080caf3cc07c4f790600090a2610b12565b60405185907f526441bb6c1aba3c9a4a6ca1d6545da9c2333c8c48343ef398eb858d72b7923690600090a25050600201805460ff191690555b5050565b8280546111b5906115e2565b90600052602060002090601f0160209004810192826111d7576000855561121d565b82601f106111f057805160ff191683800117855561121d565b8280016001018555821561121d579182015b8281111561121d578251825591602001919060010190611202565b5061122992915061122d565b5090565b5b80821115611229576000815560010161122e565b80356001600160a01b038116811461125957600080fd5b919050565b60006020828403121561126f578081fd5b61127882611242565b9392505050565b60008060408385031215611291578081fd5b61129a83611242565b9150602083013567ffffffffffffffff808211156112b6578283fd5b818501915085601f8301126112c9578283fd5b8135818111156112db576112db611648565b604051601f8201601f19908116603f0116810190838211818310171561130357611303611648565b8160405282815288602084870101111561131b578586fd5b82602086016020830137856020848301015280955050505050509250929050565b60006020828403121561134d578081fd5b81518015158114611278578182fd5b60006020828403121561136d578081fd5b5035919050565b60008060408385031215611386578182fd5b8235915061139660208401611242565b90509250929050565b600080835482600182811c9150808316806113bb57607f831692505b60208084108214156113db57634e487b7160e01b87526022600452602487fd5b8180156113ef57600181146114005761142c565b60ff1986168952848901965061142c565b60008a815260209020885b868110156114245781548b82015290850190830161140b565b505084890196505b509498975050505050505050565b60018060a01b0384168152600060206060818401528451806060850152825b8181101561147557868101830151858201608001528201611459565b818111156114865783608083870101525b5093151560408401525050601f91909101601f19160160800192915050565b6020808252825182820181905260009190848201906040850190845b818110156114e65783516001600160a01b0316835292840192918401916001016114c1565b50909695505050505050565b60208082526022908201527f4d756c74695369676e2076616c6964526571756972656d656e7428292045727260408201526137b960f11b606082015260800190565b6020808252602a908201527f4d756c74695369676e206f6e6c7920616464726573732874686973292063616e6040820152692063616c6c207468697360b01b606082015260800190565b6020808252818101527f4d756c74695369676e20636f6d6d697465654578697374732829204572726f72604082015260600190565b600082198211156115c6576115c6611632565b500190565b6000828210156115dd576115dd611632565b500390565b600181811c908216806115f657607f821691505b602082108114156105c457634e487b7160e01b600052602260045260246000fd5b600060001982141561162b5761162b611632565b5060010190565b634e487b7160e01b600052601160045260246000fd5b634e487b7160e01b600052604160045260246000fdfea2646970667358221220b18a7d472a17fd87906a439e0f08e847189ff77b7b503ceb24a5230b566f743264736f6c63430008040033",
  "linkReferences": {},
  "deployedLinkReferences": {}
}