{
  "_format": "hh-sol-artifact-1",
  "contractName": "DaoSponsor",
  "sourceName": "contracts/DaoSponsor.sol",
  "abi": [
    {
      "inputs": [
        {
          "internalType": "address",
          "name": "_WEB3DAONFT",
          "type": "address"
        },
        {
          "internalType": "uint256",
          "name": "_SPONSOR_ATTR_ID",
          "type": "uint256"
        }
      ],
      "stateMutability": "nonpayable",
      "type": "constructor"
    },
    {
      "anonymous": false,
      "inputs": [
        {
          "indexed": false,
          "internalType": "uint256",
          "name": "tokenId",
          "type": "uint256"
        },
        {
          "indexed": false,
          "internalType": "uint256",
          "name": "gasAmount",
          "type": "uint256"
        },
        {
          "indexed": false,
          "internalType": "uint256",
          "name": "stakeAmount",
          "type": "uint256"
        }
      ],
      "name": "BorrowGas",
      "type": "event"
    },
    {
      "anonymous": false,
      "inputs": [
        {
          "indexed": true,
          "internalType": "address",
          "name": "previousOwner",
          "type": "address"
        },
        {
          "indexed": true,
          "internalType": "address",
          "name": "newOwner",
          "type": "address"
        }
      ],
      "name": "OwnershipTransferred",
      "type": "event"
    },
    {
      "anonymous": false,
      "inputs": [
        {
          "indexed": true,
          "internalType": "uint256",
          "name": "tokenId",
          "type": "uint256"
        },
        {
          "indexed": false,
          "internalType": "uint256",
          "name": "sponsorAmount",
          "type": "uint256"
        },
        {
          "indexed": false,
          "internalType": "uint256",
          "name": "quitAmount",
          "type": "uint256"
        }
      ],
      "name": "Quit",
      "type": "event"
    },
    {
      "anonymous": false,
      "inputs": [
        {
          "indexed": false,
          "internalType": "uint256",
          "name": "tokenId",
          "type": "uint256"
        },
        {
          "indexed": false,
          "internalType": "uint256",
          "name": "gasAmount",
          "type": "uint256"
        },
        {
          "indexed": false,
          "internalType": "uint256",
          "name": "unStakeAmount",
          "type": "uint256"
        }
      ],
      "name": "ReturnGas",
      "type": "event"
    },
    {
      "anonymous": false,
      "inputs": [
        {
          "indexed": false,
          "internalType": "address",
          "name": "_DaoTreasury",
          "type": "address"
        }
      ],
      "name": "SetDaoTreasury",
      "type": "event"
    },
    {
      "anonymous": false,
      "inputs": [
        {
          "indexed": false,
          "internalType": "address",
          "name": "_DaoVault",
          "type": "address"
        }
      ],
      "name": "SetDaoVault",
      "type": "event"
    },
    {
      "anonymous": false,
      "inputs": [
        {
          "indexed": false,
          "internalType": "uint256",
          "name": "_maxBorrow",
          "type": "uint256"
        }
      ],
      "name": "SetMaxBorrow",
      "type": "event"
    },
    {
      "anonymous": false,
      "inputs": [
        {
          "indexed": true,
          "internalType": "uint256",
          "name": "tokenId",
          "type": "uint256"
        },
        {
          "indexed": false,
          "internalType": "uint256",
          "name": "ethAmount",
          "type": "uint256"
        },
        {
          "indexed": false,
          "internalType": "uint256",
          "name": "sponsorAmount",
          "type": "uint256"
        }
      ],
      "name": "Sponsor",
      "type": "event"
    },
    {
      "inputs": [],
      "name": "DaoTreasury",
      "outputs": [
        {
          "internalType": "address",
          "name": "",
          "type": "address"
        }
      ],
      "stateMutability": "view",
      "type": "function"
    },
    {
      "inputs": [],
      "name": "DaoVault",
      "outputs": [
        {
          "internalType": "address",
          "name": "",
          "type": "address"
        }
      ],
      "stateMutability": "view",
      "type": "function"
    },
    {
      "inputs": [],
      "name": "SPONSOR_ATTR_ID",
      "outputs": [
        {
          "internalType": "uint256",
          "name": "",
          "type": "uint256"
        }
      ],
      "stateMutability": "view",
      "type": "function"
    },
    {
      "inputs": [],
      "name": "WEB3DAONFT",
      "outputs": [
        {
          "internalType": "address",
          "name": "",
          "type": "address"
        }
      ],
      "stateMutability": "view",
      "type": "function"
    },
    {
      "inputs": [
        {
          "internalType": "uint256",
          "name": "",
          "type": "uint256"
        }
      ],
      "name": "_lockVault",
      "outputs": [
        {
          "internalType": "uint256",
          "name": "sponsorAmount",
          "type": "uint256"
        },
        {
          "internalType": "uint256",
          "name": "stakeAmount",
          "type": "uint256"
        },
        {
          "internalType": "uint256",
          "name": "borrowGasAmount",
          "type": "uint256"
        },
        {
          "internalType": "uint256",
          "name": "time",
          "type": "uint256"
        }
      ],
      "stateMutability": "view",
      "type": "function"
    },
    {
      "inputs": [
        {
          "internalType": "uint256",
          "name": "tokenId",
          "type": "uint256"
        },
        {
          "internalType": "uint256",
          "name": "gasAmount",
          "type": "uint256"
        }
      ],
      "name": "borrowGas",
      "outputs": [
        {
          "internalType": "bool",
          "name": "",
          "type": "bool"
        }
      ],
      "stateMutability": "nonpayable",
      "type": "function"
    },
    {
      "inputs": [
        {
          "internalType": "uint256",
          "name": "tokenId",
          "type": "uint256"
        }
      ],
      "name": "lockVault",
      "outputs": [
        {
          "components": [
            {
              "internalType": "uint256",
              "name": "sponsorAmount",
              "type": "uint256"
            },
            {
              "internalType": "uint256",
              "name": "stakeAmount",
              "type": "uint256"
            },
            {
              "internalType": "uint256",
              "name": "borrowGasAmount",
              "type": "uint256"
            },
            {
              "internalType": "uint256",
              "name": "time",
              "type": "uint256"
            }
          ],
          "internalType": "struct IDaoSponsor.LockVault",
          "name": "",
          "type": "tuple"
        }
      ],
      "stateMutability": "view",
      "type": "function"
    },
    {
      "inputs": [],
      "name": "max",
      "outputs": [
        {
          "internalType": "uint256",
          "name": "",
          "type": "uint256"
        }
      ],
      "stateMutability": "view",
      "type": "function"
    },
    {
      "inputs": [],
      "name": "maxBorrow",
      "outputs": [
        {
          "internalType": "uint256",
          "name": "",
          "type": "uint256"
        }
      ],
      "stateMutability": "view",
      "type": "function"
    },
    {
      "inputs": [],
      "name": "owner",
      "outputs": [
        {
          "internalType": "address",
          "name": "",
          "type": "address"
        }
      ],
      "stateMutability": "view",
      "type": "function"
    },
    {
      "inputs": [
        {
          "internalType": "uint256",
          "name": "tokenId",
          "type": "uint256"
        },
        {
          "internalType": "uint256",
          "name": "sponsorAmount",
          "type": "uint256"
        }
      ],
      "name": "quit",
      "outputs": [
        {
          "internalType": "uint256",
          "name": "quitAmount",
          "type": "uint256"
        }
      ],
      "stateMutability": "nonpayable",
      "type": "function"
    },
    {
      "inputs": [],
      "name": "renounceOwnership",
      "outputs": [],
      "stateMutability": "nonpayable",
      "type": "function"
    },
    {
      "inputs": [
        {
          "internalType": "uint256",
          "name": "tokenId",
          "type": "uint256"
        },
        {
          "internalType": "uint256",
          "name": "gasAmount",
          "type": "uint256"
        }
      ],
      "name": "returnGas",
      "outputs": [
        {
          "internalType": "bool",
          "name": "",
          "type": "bool"
        }
      ],
      "stateMutability": "nonpayable",
      "type": "function"
    },
    {
      "inputs": [
        {
          "internalType": "address",
          "name": "_DaoTreasury",
          "type": "address"
        }
      ],
      "name": "setDaoTreasury",
      "outputs": [],
      "stateMutability": "nonpayable",
      "type": "function"
    },
    {
      "inputs": [
        {
          "internalType": "address",
          "name": "_DaoVault",
          "type": "address"
        }
      ],
      "name": "setDaoVault",
      "outputs": [],
      "stateMutability": "nonpayable",
      "type": "function"
    },
    {
      "inputs": [
        {
          "internalType": "uint256",
          "name": "_maxBorrow",
          "type": "uint256"
        }
      ],
      "name": "setMaxBorrow",
      "outputs": [],
      "stateMutability": "nonpayable",
      "type": "function"
    },
    {
      "inputs": [
        {
          "internalType": "uint256",
          "name": "tokenId",
          "type": "uint256"
        },
        {
          "internalType": "uint256",
          "name": "ethAmount",
          "type": "uint256"
        }
      ],
      "name": "sponsor",
      "outputs": [],
      "stateMutability": "nonpayable",
      "type": "function"
    },
    {
      "inputs": [
        {
          "internalType": "address",
          "name": "newOwner",
          "type": "address"
        }
      ],
      "name": "transferOwnership",
      "outputs": [],
      "stateMutability": "nonpayable",
      "type": "function"
    }
  ],
  "bytecode": "0x60c0604052611f4060035534801561001657600080fd5b50604051611379380380611379833981016040819052610035916100a9565b61003e33610059565b60609190911b6001600160601b03191660805260a0526100e1565b600080546001600160a01b038381166001600160a01b0319831681178455604051919092169283917f8be0079c531659141344cd1fd0a4f28419497f9722a3daafe3b4186f6b6457e09190a35050565b600080604083850312156100bb578182fd5b82516001600160a01b03811681146100d1578283fd5b6020939093015192949293505050565b60805160601c60a05161122a61014f600039600081816101b9015281816105c1015281816106b6015281816108f401528181610aa20152610c28015260008181610298015281816105f5015281816106e30152818161091d01528181610acf0152610c51015261122a6000f3fe608060405234801561001057600080fd5b50600436106101165760003560e01c80638da5cb5b116100a2578063ae3d804011610071578063ae3d804014610280578063b7627eee14610293578063e26e9eaf146102ba578063f2fde38b14610300578063ffb26b381461031357600080fd5b80638da5cb5b14610222578063947fdb8b1461024757806398b8c4e11461025a578063a124df5d1461026d57600080fd5b80634bb81553116100e95780634bb81553146101b45780636ac5db19146101db578063715018a6146101e4578063772338d1146101ec57806384c8a0ec146101ff57600080fd5b8063016fd21b1461011b5780630cc0bfa5146101755780631d54164b1461018c5780634b799db1146101a1575b600080fd5b6101506101293660046110ea565b60046020526000908152604090208054600182015460028301546003909301549192909184565b6040805194855260208501939093529183015260608201526080015b60405180910390f35b61017e60035481565b60405190815260200161016c565b61019f61019a3660046110ea565b610326565b005b61019f6101af3660046110bc565b610395565b61017e7f000000000000000000000000000000000000000000000000000000000000000081565b61017e61271081565b61019f61040d565b61017e6101fa36600461111a565b610443565b61021261020d36600461111a565b61078b565b604051901515815260200161016c565b6000546001600160a01b03165b6040516001600160a01b03909116815260200161016c565b61019f61025536600461111a565b6108bb565b60015461022f906001600160a01b031681565b61019f61027b3660046110bc565b610b76565b61021261028e36600461111a565b610bee565b61022f7f000000000000000000000000000000000000000000000000000000000000000081565b6102cd6102c83660046110ea565b610f61565b60405161016c91908151815260208083015190820152604080830151908201526060918201519181019190915260800190565b61019f61030e3660046110bc565b610fd1565b60025461022f906001600160a01b031681565b6000546001600160a01b031633146103595760405162461bcd60e51b81526004016103509061113b565b60405180910390fd5b60038190556040518181527feb502ce07e3ddd2560b82d3cb45e23e2ba36ab481575a583141058f8d61f07cf906020015b60405180910390a150565b6000546001600160a01b031633146103bf5760405162461bcd60e51b81526004016103509061113b565b600180546001600160a01b0319166001600160a01b0383169081179091556040519081527fb329e64befdec2a048fc9bc0ec49385e5f414f5047e9fe44d771240d47e307a59060200161038a565b6000546001600160a01b031633146104375760405162461bcd60e51b81526004016103509061113b565b610441600061106c565b565b600080546001600160a01b0316331461046e5760405162461bcd60e51b81526004016103509061113b565b600083815260046020526040902060038101544210156104c95760405162461bcd60e51b815260206004820152601660248201527544616f53706f6e736f723a206c6f636b2074696d652160501b6044820152606401610350565b6001810154815484916104db916111c7565b10156105355760405162461bcd60e51b8152602060048201526024808201527f44616f53706f6e736f723a206e6f20656e6f7567682073706f6e736f72416d6f604482015263756e742160e01b6064820152608401610350565b6001546040805163669949ef60e11b815290516000926001600160a01b03169163cd3293de916004808301926020929190829003018186803b15801561057a57600080fd5b505afa15801561058e573d6000803e3d6000fd5b505050506040513d601f19601f820116820180604052508101906105b29190611102565b60405163bd85b03960e01b81527f000000000000000000000000000000000000000000000000000000000000000060048201529091506000906001600160a01b037f0000000000000000000000000000000000000000000000000000000000000000169063bd85b0399060240160206040518083038186803b15801561063757600080fd5b505afa15801561064b573d6000803e3d6000fd5b505050506040513d601f19601f8201168201806040525081019061066f9190611102565b90508061067c83876111a8565b6106869190611188565b93508483600001600082825461069c91906111c7565b909155505060405162b4200560e31b8152600481018790527f00000000000000000000000000000000000000000000000000000000000000006024820152604481018690527f00000000000000000000000000000000000000000000000000000000000000006001600160a01b0316906305a1002890606401600060405180830381600087803b15801561072f57600080fd5b505af1158015610743573d6000803e3d6000fd5b505060408051888152602081018890528993507f7131faa9966bf3c65868d6b7254f166a0d5b8ceb081e8991bf655db0f2defbc892500160405180910390a250505092915050565b600080546001600160a01b031633146107b65760405162461bcd60e51b81526004016103509061113b565b600083815260046020526040902060028101548311156108185760405162461bcd60e51b815260206004820152601b60248201527f44616f53706f6e736f723a20676173416d6f756e74206572726f7200000000006044820152606401610350565b6000816002015484836001015461082f91906111a8565b6108399190611188565b90508082600101600082825461084f91906111c7565b925050819055508382600201600082825461086a91906111c7565b909155505060408051868152602081018690529081018290527fa0b4480066399e6faf68170475e2e5d91082b6b473cfe261decf41efe79698df9060600160405180910390a1506001949350505050565b6000546001600160a01b031633146108e55760405162461bcd60e51b81526004016103509061113b565b60405163bd85b03960e01b81527f000000000000000000000000000000000000000000000000000000000000000060048201526000907f00000000000000000000000000000000000000000000000000000000000000006001600160a01b03169063bd85b0399060240160206040518083038186803b15801561096757600080fd5b505afa15801561097b573d6000803e3d6000fd5b505050506040513d601f19601f8201168201806040525081019061099f9190611102565b90506000600160009054906101000a90046001600160a01b03166001600160a01b031663cd3293de6040518163ffffffff1660e01b815260040160206040518083038186803b1580156109f157600080fd5b505afa158015610a05573d6000803e3d6000fd5b505050506040513d601f19601f82011682018060405250810190610a299190611102565b9050600082610a39575082610a51565b81610a4484866111a8565b610a4e9190611188565b90505b6000858152600460205260408120805490918391839190610a73908490611170565b90915550610a879050426301e13380611170565b60038201556040516302acc94b60e01b8152600481018790527f00000000000000000000000000000000000000000000000000000000000000006024820152604481018390527f00000000000000000000000000000000000000000000000000000000000000006001600160a01b0316906302acc94b90606401600060405180830381600087803b158015610b1b57600080fd5b505af1158015610b2f573d6000803e3d6000fd5b505060408051888152602081018690528993507fcd7df06edc3abb33001e5ad80098c29fc9977b86a845f32517922b6d1c86c6f292500160405180910390a2505050505050565b6000546001600160a01b03163314610ba05760405162461bcd60e51b81526004016103509061113b565b600280546001600160a01b0319166001600160a01b0383169081179091556040519081527f062dd8d05f9b3c4d87835b7a811e7968d0255ee314629afb928ba31dd8ecbe019060200161038a565b600080546001600160a01b03163314610c195760405162461bcd60e51b81526004016103509061113b565b60405163bd85b03960e01b81527f000000000000000000000000000000000000000000000000000000000000000060048201526000907f00000000000000000000000000000000000000000000000000000000000000006001600160a01b03169063bd85b0399060240160206040518083038186803b158015610c9b57600080fd5b505afa158015610caf573d6000803e3d6000fd5b505050506040513d601f19601f82011682018060405250810190610cd39190611102565b90506000600160009054906101000a90046001600160a01b03166001600160a01b031663cd3293de6040518163ffffffff1660e01b815260040160206040518083038186803b158015610d2557600080fd5b505afa158015610d39573d6000803e3d6000fd5b505050506040513d601f19601f82011682018060405250810190610d5d9190611102565b90506000600260009054906101000a90046001600160a01b03166001600160a01b031663f5bc5dcb6040518163ffffffff1660e01b815260040160206040518083038186803b158015610daf57600080fd5b505afa158015610dc3573d6000803e3d6000fd5b505050506040513d601f19601f82011682018060405250810190610de79190611102565b60008781526004602052604081208054929350918590610e089086906111a8565b610e129190611188565b9050612710600354670de0b6b3a7640000610e2d91906111a8565b610e379190611188565b610e4184836111a8565b888460020154610e519190611170565b610e6390670de0b6b3a76400006111a8565b610e6d9190611188565b1115610ebb5760405162461bcd60e51b815260206004820152601f60248201527f44616f53706f6e736f723a6d6f7265207468616e206d617820626f72726f77006044820152606401610350565b6000610ec784866111a8565b610ed1878a6111a8565b610edb9190611188565b905080836001016000828254610ef19190611170565b9250508190555087836002016000828254610f0c9190611170565b9091555050604080518a8152602081018a90529081018290527f1a96c35000aa300895edd8016fab4fc0d4f90134ca055b8f01b8d893ff16c9359060600160405180910390a150600198975050505050505050565b610f8c6040518060800160405280600081526020016000815260200160008152602001600081525090565b50600090815260046020908152604091829020825160808101845281548152600182015492810192909252600281015492820192909252600390910154606082015290565b6000546001600160a01b03163314610ffb5760405162461bcd60e51b81526004016103509061113b565b6001600160a01b0381166110605760405162461bcd60e51b815260206004820152602660248201527f4f776e61626c653a206e6577206f776e657220697320746865207a65726f206160448201526564647265737360d01b6064820152608401610350565b6110698161106c565b50565b600080546001600160a01b038381166001600160a01b0319831681178455604051919092169283917f8be0079c531659141344cd1fd0a4f28419497f9722a3daafe3b4186f6b6457e09190a35050565b6000602082840312156110cd578081fd5b81356001600160a01b03811681146110e3578182fd5b9392505050565b6000602082840312156110fb578081fd5b5035919050565b600060208284031215611113578081fd5b5051919050565b6000806040838503121561112c578081fd5b50508035926020909101359150565b6020808252818101527f4f776e61626c653a2063616c6c6572206973206e6f7420746865206f776e6572604082015260600190565b60008219821115611183576111836111de565b500190565b6000826111a357634e487b7160e01b81526012600452602481fd5b500490565b60008160001904831182151516156111c2576111c26111de565b500290565b6000828210156111d9576111d96111de565b500390565b634e487b7160e01b600052601160045260246000fdfea264697066735822122006b48548d420d29369790f635637a6c143d1fde1eb31639ed3b1af1bd30033e864736f6c63430008040033",
  "linkReferences": {},
  "deployedLinkReferences": {}
}