{
  "_format": "hh-sol-artifact-1",
  "contractName": "DaoSponsor",
  "sourceName": "contracts/DaoSponsor.sol",
  "abi": [
    {
      "inputs": [
        {
          "internalType": "address",
          "name": "_WEB3DAONFT",
          "type": "address"
        },
        {
          "internalType": "address",
          "name": "_DaoVault",
          "type": "address"
        },
        {
          "internalType": "address",
          "name": "_DaoTreasury",
          "type": "address"
        },
        {
          "internalType": "uint256",
          "name": "_SPONSOR_ATTR_ID",
          "type": "uint256"
        }
      ],
      "stateMutability": "nonpayable",
      "type": "constructor"
    },
    {
      "anonymous": false,
      "inputs": [
        {
          "indexed": false,
          "internalType": "uint256",
          "name": "tokenId",
          "type": "uint256"
        },
        {
          "indexed": false,
          "internalType": "uint256",
          "name": "gasAmount",
          "type": "uint256"
        },
        {
          "indexed": false,
          "internalType": "uint256",
          "name": "stakeAmount",
          "type": "uint256"
        }
      ],
      "name": "BorrowGas",
      "type": "event"
    },
    {
      "anonymous": false,
      "inputs": [
        {
          "indexed": true,
          "internalType": "address",
          "name": "previousOwner",
          "type": "address"
        },
        {
          "indexed": true,
          "internalType": "address",
          "name": "newOwner",
          "type": "address"
        }
      ],
      "name": "OwnershipTransferred",
      "type": "event"
    },
    {
      "anonymous": false,
      "inputs": [
        {
          "indexed": true,
          "internalType": "uint256",
          "name": "tokenId",
          "type": "uint256"
        },
        {
          "indexed": false,
          "internalType": "uint256",
          "name": "sponsorAmount",
          "type": "uint256"
        },
        {
          "indexed": false,
          "internalType": "uint256",
          "name": "quitAmount",
          "type": "uint256"
        }
      ],
      "name": "Quit",
      "type": "event"
    },
    {
      "anonymous": false,
      "inputs": [
        {
          "indexed": false,
          "internalType": "uint256",
          "name": "tokenId",
          "type": "uint256"
        },
        {
          "indexed": false,
          "internalType": "uint256",
          "name": "gasAmount",
          "type": "uint256"
        },
        {
          "indexed": false,
          "internalType": "uint256",
          "name": "unStakeAmount",
          "type": "uint256"
        }
      ],
      "name": "ReturnGas",
      "type": "event"
    },
    {
      "anonymous": false,
      "inputs": [
        {
          "indexed": false,
          "internalType": "address",
          "name": "_DaoTreasury",
          "type": "address"
        }
      ],
      "name": "SetDaoTreasury",
      "type": "event"
    },
    {
      "anonymous": false,
      "inputs": [
        {
          "indexed": false,
          "internalType": "address",
          "name": "_DaoVault",
          "type": "address"
        }
      ],
      "name": "SetDaoVault",
      "type": "event"
    },
    {
      "anonymous": false,
      "inputs": [
        {
          "indexed": false,
          "internalType": "uint256",
          "name": "_maxBorrow",
          "type": "uint256"
        }
      ],
      "name": "SetMaxBorrow",
      "type": "event"
    },
    {
      "anonymous": false,
      "inputs": [
        {
          "indexed": true,
          "internalType": "uint256",
          "name": "tokenId",
          "type": "uint256"
        },
        {
          "indexed": false,
          "internalType": "uint256",
          "name": "ethAmount",
          "type": "uint256"
        },
        {
          "indexed": false,
          "internalType": "uint256",
          "name": "sponsorAmount",
          "type": "uint256"
        }
      ],
      "name": "Sponsor",
      "type": "event"
    },
    {
      "inputs": [],
      "name": "DaoTreasury",
      "outputs": [
        {
          "internalType": "address",
          "name": "",
          "type": "address"
        }
      ],
      "stateMutability": "view",
      "type": "function"
    },
    {
      "inputs": [],
      "name": "DaoVault",
      "outputs": [
        {
          "internalType": "address",
          "name": "",
          "type": "address"
        }
      ],
      "stateMutability": "view",
      "type": "function"
    },
    {
      "inputs": [],
      "name": "SPONSOR_ATTR_ID",
      "outputs": [
        {
          "internalType": "uint256",
          "name": "",
          "type": "uint256"
        }
      ],
      "stateMutability": "view",
      "type": "function"
    },
    {
      "inputs": [],
      "name": "WEB3DAONFT",
      "outputs": [
        {
          "internalType": "address",
          "name": "",
          "type": "address"
        }
      ],
      "stateMutability": "view",
      "type": "function"
    },
    {
      "inputs": [
        {
          "internalType": "uint256",
          "name": "",
          "type": "uint256"
        }
      ],
      "name": "_lockVault",
      "outputs": [
        {
          "internalType": "uint256",
          "name": "sponsorAmount",
          "type": "uint256"
        },
        {
          "internalType": "uint256",
          "name": "stakeAmount",
          "type": "uint256"
        },
        {
          "internalType": "uint256",
          "name": "borrowGasAmount",
          "type": "uint256"
        },
        {
          "internalType": "uint256",
          "name": "time",
          "type": "uint256"
        }
      ],
      "stateMutability": "view",
      "type": "function"
    },
    {
      "inputs": [
        {
          "internalType": "uint256",
          "name": "tokenId",
          "type": "uint256"
        },
        {
          "internalType": "uint256",
          "name": "gasAmount",
          "type": "uint256"
        }
      ],
      "name": "borrowGas",
      "outputs": [
        {
          "internalType": "bool",
          "name": "",
          "type": "bool"
        }
      ],
      "stateMutability": "nonpayable",
      "type": "function"
    },
    {
      "inputs": [
        {
          "internalType": "uint256",
          "name": "tokenId",
          "type": "uint256"
        }
      ],
      "name": "lockVault",
      "outputs": [
        {
          "components": [
            {
              "internalType": "uint256",
              "name": "sponsorAmount",
              "type": "uint256"
            },
            {
              "internalType": "uint256",
              "name": "stakeAmount",
              "type": "uint256"
            },
            {
              "internalType": "uint256",
              "name": "borrowGasAmount",
              "type": "uint256"
            },
            {
              "internalType": "uint256",
              "name": "time",
              "type": "uint256"
            }
          ],
          "internalType": "struct IDaoSponsor.LockVault",
          "name": "",
          "type": "tuple"
        }
      ],
      "stateMutability": "view",
      "type": "function"
    },
    {
      "inputs": [],
      "name": "max",
      "outputs": [
        {
          "internalType": "uint256",
          "name": "",
          "type": "uint256"
        }
      ],
      "stateMutability": "view",
      "type": "function"
    },
    {
      "inputs": [],
      "name": "maxBorrow",
      "outputs": [
        {
          "internalType": "uint256",
          "name": "",
          "type": "uint256"
        }
      ],
      "stateMutability": "view",
      "type": "function"
    },
    {
      "inputs": [],
      "name": "owner",
      "outputs": [
        {
          "internalType": "address",
          "name": "",
          "type": "address"
        }
      ],
      "stateMutability": "view",
      "type": "function"
    },
    {
      "inputs": [
        {
          "internalType": "uint256",
          "name": "tokenId",
          "type": "uint256"
        },
        {
          "internalType": "uint256",
          "name": "sponsorAmount",
          "type": "uint256"
        }
      ],
      "name": "quit",
      "outputs": [
        {
          "internalType": "uint256",
          "name": "quitAmount",
          "type": "uint256"
        }
      ],
      "stateMutability": "nonpayable",
      "type": "function"
    },
    {
      "inputs": [],
      "name": "renounceOwnership",
      "outputs": [],
      "stateMutability": "nonpayable",
      "type": "function"
    },
    {
      "inputs": [
        {
          "internalType": "uint256",
          "name": "tokenId",
          "type": "uint256"
        },
        {
          "internalType": "uint256",
          "name": "gasAmount",
          "type": "uint256"
        }
      ],
      "name": "returnGas",
      "outputs": [
        {
          "internalType": "bool",
          "name": "",
          "type": "bool"
        }
      ],
      "stateMutability": "nonpayable",
      "type": "function"
    },
    {
      "inputs": [
        {
          "internalType": "address",
          "name": "_DaoTreasury",
          "type": "address"
        }
      ],
      "name": "setDaoTreasury",
      "outputs": [],
      "stateMutability": "nonpayable",
      "type": "function"
    },
    {
      "inputs": [
        {
          "internalType": "address",
          "name": "_DaoVault",
          "type": "address"
        }
      ],
      "name": "setDaoVault",
      "outputs": [],
      "stateMutability": "nonpayable",
      "type": "function"
    },
    {
      "inputs": [
        {
          "internalType": "uint256",
          "name": "_maxBorrow",
          "type": "uint256"
        }
      ],
      "name": "setMaxBorrow",
      "outputs": [],
      "stateMutability": "nonpayable",
      "type": "function"
    },
    {
      "inputs": [
        {
          "internalType": "uint256",
          "name": "tokenId",
          "type": "uint256"
        },
        {
          "internalType": "uint256",
          "name": "ethAmount",
          "type": "uint256"
        }
      ],
      "name": "sponsor",
      "outputs": [],
      "stateMutability": "nonpayable",
      "type": "function"
    },
    {
      "inputs": [
        {
          "internalType": "uint256",
          "name": "",
          "type": "uint256"
        }
      ],
      "name": "sponsorIndex",
      "outputs": [
        {
          "internalType": "uint256",
          "name": "",
          "type": "uint256"
        }
      ],
      "stateMutability": "view",
      "type": "function"
    },
    {
      "inputs": [
        {
          "internalType": "uint256",
          "name": "",
          "type": "uint256"
        }
      ],
      "name": "sponsors",
      "outputs": [
        {
          "internalType": "uint256",
          "name": "",
          "type": "uint256"
        }
      ],
      "stateMutability": "view",
      "type": "function"
    },
    {
      "inputs": [
        {
          "internalType": "address",
          "name": "newOwner",
          "type": "address"
        }
      ],
      "name": "transferOwnership",
      "outputs": [],
      "stateMutability": "nonpayable",
      "type": "function"
    }
  ],
  "bytecode": "0x60c0604052611f406003553480156200001757600080fd5b50604051620014b8380380620014b88339810160408190526200003a91620000fb565b62000045336200008e565b60609390931b6001600160601b031916608052600180546001600160a01b03199081166001600160a01b0394851617909155600280549091169190921617905560a0526200014c565b600080546001600160a01b038381166001600160a01b0319831681178455604051919092169283917f8be0079c531659141344cd1fd0a4f28419497f9722a3daafe3b4186f6b6457e09190a35050565b80516001600160a01b0381168114620000f657600080fd5b919050565b6000806000806080858703121562000111578384fd5b6200011c85620000de565b93506200012c60208601620000de565b92506200013c60408601620000de565b6060959095015193969295505050565b60805160601c60a0516112fd620001bb600039600081816101cf0152818161060a015281816106ff0152818161095e01528181610b0c0152610cfb0152600081816102c10152818161063e0152818161072c0152818161098701528181610b390152610d2401526112fd6000f3fe608060405234801561001057600080fd5b506004361061012c5760003560e01c806393066b4c116100ad578063b7627eee11610071578063b7627eee146102bc578063dd54ac06146102e3578063e26e9eaf14610303578063f2fde38b14610349578063ffb26b381461035c57600080fd5b806393066b4c1461025d578063947fdb8b1461027057806398b8c4e114610283578063a124df5d14610296578063ae3d8040146102a957600080fd5b80636ac5db19116100f45780636ac5db19146101f1578063715018a6146101fa578063772338d11461020257806384c8a0ec146102155780638da5cb5b1461023857600080fd5b8063016fd21b146101315780630cc0bfa51461018b5780631d54164b146101a25780634b799db1146101b75780634bb81553146101ca575b600080fd5b61016661013f3660046111bd565b60046020526000908152604090208054600182015460028301546003909301549192909184565b6040805194855260208501939093529183015260608201526080015b60405180910390f35b61019460035481565b604051908152602001610182565b6101b56101b03660046111bd565b61036f565b005b6101b56101c536600461118f565b6103de565b6101947f000000000000000000000000000000000000000000000000000000000000000081565b61019461271081565b6101b5610456565b6101946102103660046111ed565b61048c565b6102286102233660046111ed565b6107d4565b6040519015158152602001610182565b6000546001600160a01b03165b6040516001600160a01b039091168152602001610182565b61019461026b3660046111bd565b610904565b6101b561027e3660046111ed565b610925565b600154610245906001600160a01b031681565b6101b56102a436600461118f565b610c49565b6102286102b73660046111ed565b610cc1565b6102457f000000000000000000000000000000000000000000000000000000000000000081565b6101946102f13660046111bd565b60066020526000908152604090205481565b6103166103113660046111bd565b611034565b60405161018291908151815260208083015190820152604080830151908201526060918201519181019190915260800190565b6101b561035736600461118f565b6110a4565b600254610245906001600160a01b031681565b6000546001600160a01b031633146103a25760405162461bcd60e51b81526004016103999061120e565b60405180910390fd5b60038190556040518181527feb502ce07e3ddd2560b82d3cb45e23e2ba36ab481575a583141058f8d61f07cf906020015b60405180910390a150565b6000546001600160a01b031633146104085760405162461bcd60e51b81526004016103999061120e565b600180546001600160a01b0319166001600160a01b0383169081179091556040519081527fb329e64befdec2a048fc9bc0ec49385e5f414f5047e9fe44d771240d47e307a5906020016103d3565b6000546001600160a01b031633146104805760405162461bcd60e51b81526004016103999061120e565b61048a600061113f565b565b600080546001600160a01b031633146104b75760405162461bcd60e51b81526004016103999061120e565b600083815260046020526040902060038101544210156105125760405162461bcd60e51b815260206004820152601660248201527544616f53706f6e736f723a206c6f636b2074696d652160501b6044820152606401610399565b6001810154815484916105249161129a565b101561057e5760405162461bcd60e51b8152602060048201526024808201527f44616f53706f6e736f723a206e6f20656e6f7567682073706f6e736f72416d6f604482015263756e742160e01b6064820152608401610399565b6001546040805163669949ef60e11b815290516000926001600160a01b03169163cd3293de916004808301926020929190829003018186803b1580156105c357600080fd5b505afa1580156105d7573d6000803e3d6000fd5b505050506040513d601f19601f820116820180604052508101906105fb91906111d5565b60405163bd85b03960e01b81527f000000000000000000000000000000000000000000000000000000000000000060048201529091506000906001600160a01b037f0000000000000000000000000000000000000000000000000000000000000000169063bd85b0399060240160206040518083038186803b15801561068057600080fd5b505afa158015610694573d6000803e3d6000fd5b505050506040513d601f19601f820116820180604052508101906106b891906111d5565b9050806106c5838761127b565b6106cf919061125b565b9350848360000160008282546106e5919061129a565b909155505060405162b4200560e31b8152600481018790527f00000000000000000000000000000000000000000000000000000000000000006024820152604481018690527f00000000000000000000000000000000000000000000000000000000000000006001600160a01b0316906305a1002890606401600060405180830381600087803b15801561077857600080fd5b505af115801561078c573d6000803e3d6000fd5b505060408051888152602081018890528993507f7131faa9966bf3c65868d6b7254f166a0d5b8ceb081e8991bf655db0f2defbc892500160405180910390a250505092915050565b600080546001600160a01b031633146107ff5760405162461bcd60e51b81526004016103999061120e565b600083815260046020526040902060028101548311156108615760405162461bcd60e51b815260206004820152601b60248201527f44616f53706f6e736f723a20676173416d6f756e74206572726f7200000000006044820152606401610399565b60008160020154848360010154610878919061127b565b610882919061125b565b905080826001016000828254610898919061129a565b92505081905550838260020160008282546108b3919061129a565b909155505060408051868152602081018690529081018290527fa0b4480066399e6faf68170475e2e5d91082b6b473cfe261decf41efe79698df9060600160405180910390a1506001949350505050565b6005818154811061091457600080fd5b600091825260209091200154905081565b6000546001600160a01b0316331461094f5760405162461bcd60e51b81526004016103999061120e565b60405163bd85b03960e01b81527f000000000000000000000000000000000000000000000000000000000000000060048201526000907f00000000000000000000000000000000000000000000000000000000000000006001600160a01b03169063bd85b0399060240160206040518083038186803b1580156109d157600080fd5b505afa1580156109e5573d6000803e3d6000fd5b505050506040513d601f19601f82011682018060405250810190610a0991906111d5565b90506000600160009054906101000a90046001600160a01b03166001600160a01b031663cd3293de6040518163ffffffff1660e01b815260040160206040518083038186803b158015610a5b57600080fd5b505afa158015610a6f573d6000803e3d6000fd5b505050506040513d601f19601f82011682018060405250810190610a9391906111d5565b9050600082610aa3575082610abb565b81610aae848661127b565b610ab8919061125b565b90505b6000858152600460205260408120805490918391839190610add908490611243565b90915550610af19050426301e13380611243565b60038201556040516302acc94b60e01b8152600481018790527f00000000000000000000000000000000000000000000000000000000000000006024820152604481018390527f00000000000000000000000000000000000000000000000000000000000000006001600160a01b0316906302acc94b90606401600060405180830381600087803b158015610b8557600080fd5b505af1158015610b99573d6000803e3d6000fd5b50505060008781526006602052604090205415159050610c0657600580546001818101835560008390527f036b6384b5eca791c62761152d0c79bb0604c104a5fb6f4eb0703f3154bb3db09091018890559054610bf6919061129a565b6000878152600660205260409020555b604080518681526020810184905287917fcd7df06edc3abb33001e5ad80098c29fc9977b86a845f32517922b6d1c86c6f2910160405180910390a2505050505050565b6000546001600160a01b03163314610c735760405162461bcd60e51b81526004016103999061120e565b600280546001600160a01b0319166001600160a01b0383169081179091556040519081527f062dd8d05f9b3c4d87835b7a811e7968d0255ee314629afb928ba31dd8ecbe01906020016103d3565b600080546001600160a01b03163314610cec5760405162461bcd60e51b81526004016103999061120e565b60405163bd85b03960e01b81527f000000000000000000000000000000000000000000000000000000000000000060048201526000907f00000000000000000000000000000000000000000000000000000000000000006001600160a01b03169063bd85b0399060240160206040518083038186803b158015610d6e57600080fd5b505afa158015610d82573d6000803e3d6000fd5b505050506040513d601f19601f82011682018060405250810190610da691906111d5565b90506000600160009054906101000a90046001600160a01b03166001600160a01b031663cd3293de6040518163ffffffff1660e01b815260040160206040518083038186803b158015610df857600080fd5b505afa158015610e0c573d6000803e3d6000fd5b505050506040513d601f19601f82011682018060405250810190610e3091906111d5565b90506000600260009054906101000a90046001600160a01b03166001600160a01b031663f5bc5dcb6040518163ffffffff1660e01b815260040160206040518083038186803b158015610e8257600080fd5b505afa158015610e96573d6000803e3d6000fd5b505050506040513d601f19601f82011682018060405250810190610eba91906111d5565b60008781526004602052604081208054929350918590610edb90869061127b565b610ee5919061125b565b9050612710600354670de0b6b3a7640000610f00919061127b565b610f0a919061125b565b610f14848361127b565b888460020154610f249190611243565b610f3690670de0b6b3a764000061127b565b610f40919061125b565b1115610f8e5760405162461bcd60e51b815260206004820152601f60248201527f44616f53706f6e736f723a6d6f7265207468616e206d617820626f72726f77006044820152606401610399565b6000610f9a848661127b565b610fa4878a61127b565b610fae919061125b565b905080836001016000828254610fc49190611243565b9250508190555087836002016000828254610fdf9190611243565b9091555050604080518a8152602081018a90529081018290527f1a96c35000aa300895edd8016fab4fc0d4f90134ca055b8f01b8d893ff16c9359060600160405180910390a150600198975050505050505050565b61105f6040518060800160405280600081526020016000815260200160008152602001600081525090565b50600090815260046020908152604091829020825160808101845281548152600182015492810192909252600281015492820192909252600390910154606082015290565b6000546001600160a01b031633146110ce5760405162461bcd60e51b81526004016103999061120e565b6001600160a01b0381166111335760405162461bcd60e51b815260206004820152602660248201527f4f776e61626c653a206e6577206f776e657220697320746865207a65726f206160448201526564647265737360d01b6064820152608401610399565b61113c8161113f565b50565b600080546001600160a01b038381166001600160a01b0319831681178455604051919092169283917f8be0079c531659141344cd1fd0a4f28419497f9722a3daafe3b4186f6b6457e09190a35050565b6000602082840312156111a0578081fd5b81356001600160a01b03811681146111b6578182fd5b9392505050565b6000602082840312156111ce578081fd5b5035919050565b6000602082840312156111e6578081fd5b5051919050565b600080604083850312156111ff578081fd5b50508035926020909101359150565b6020808252818101527f4f776e61626c653a2063616c6c6572206973206e6f7420746865206f776e6572604082015260600190565b60008219821115611256576112566112b1565b500190565b60008261127657634e487b7160e01b81526012600452602481fd5b500490565b6000816000190483118215151615611295576112956112b1565b500290565b6000828210156112ac576112ac6112b1565b500390565b634e487b7160e01b600052601160045260246000fdfea2646970667358221220f2d566108302c2103e997c17eec5f2aeef8309b45ed6ed2ae9342c224e0a933664736f6c63430008040033",
  "linkReferences": {},
  "deployedLinkReferences": {}
}