{
  "_format": "hh-sol-artifact-1",
  "contractName": "DaoSponsor",
  "sourceName": "contracts/DaoSponsor.sol",
  "abi": [
    {
      "inputs": [
        {
          "internalType": "address",
          "name": "_WEB3DAONFT",
          "type": "address"
        },
        {
          "internalType": "uint256",
          "name": "_SPONSOR_ATTR_ID",
          "type": "uint256"
        }
      ],
      "stateMutability": "nonpayable",
      "type": "constructor"
    },
    {
      "anonymous": false,
      "inputs": [
        {
          "indexed": false,
          "internalType": "uint256",
          "name": "tokenId",
          "type": "uint256"
        },
        {
          "indexed": false,
          "internalType": "uint256",
          "name": "gasAmount",
          "type": "uint256"
        },
        {
          "indexed": false,
          "internalType": "uint256",
          "name": "stakeAmount",
          "type": "uint256"
        }
      ],
      "name": "BorrowGas",
      "type": "event"
    },
    {
      "anonymous": false,
      "inputs": [
        {
          "indexed": true,
          "internalType": "address",
          "name": "previousOwner",
          "type": "address"
        },
        {
          "indexed": true,
          "internalType": "address",
          "name": "newOwner",
          "type": "address"
        }
      ],
      "name": "OwnershipTransferred",
      "type": "event"
    },
    {
      "anonymous": false,
      "inputs": [
        {
          "indexed": true,
          "internalType": "uint256",
          "name": "tokenId",
          "type": "uint256"
        },
        {
          "indexed": false,
          "internalType": "uint256",
          "name": "sponsorAmount",
          "type": "uint256"
        },
        {
          "indexed": false,
          "internalType": "uint256",
          "name": "quitAmount",
          "type": "uint256"
        }
      ],
      "name": "Quit",
      "type": "event"
    },
    {
      "anonymous": false,
      "inputs": [
        {
          "indexed": false,
          "internalType": "uint256",
          "name": "tokenId",
          "type": "uint256"
        },
        {
          "indexed": false,
          "internalType": "uint256",
          "name": "gasAmount",
          "type": "uint256"
        },
        {
          "indexed": false,
          "internalType": "uint256",
          "name": "unStakeAmount",
          "type": "uint256"
        }
      ],
      "name": "ReturnGas",
      "type": "event"
    },
    {
      "anonymous": false,
      "inputs": [
        {
          "indexed": false,
          "internalType": "address",
          "name": "_DaoTreasury",
          "type": "address"
        }
      ],
      "name": "SetDaoTreasury",
      "type": "event"
    },
    {
      "anonymous": false,
      "inputs": [
        {
          "indexed": false,
          "internalType": "address",
          "name": "_DaoVault",
          "type": "address"
        }
      ],
      "name": "SetDaoVault",
      "type": "event"
    },
    {
      "anonymous": false,
      "inputs": [
        {
          "indexed": false,
          "internalType": "uint256",
          "name": "_maxBorrow",
          "type": "uint256"
        }
      ],
      "name": "SetMaxBorrow",
      "type": "event"
    },
    {
      "anonymous": false,
      "inputs": [
        {
          "indexed": true,
          "internalType": "uint256",
          "name": "tokenId",
          "type": "uint256"
        },
        {
          "indexed": false,
          "internalType": "uint256",
          "name": "ethAmount",
          "type": "uint256"
        },
        {
          "indexed": false,
          "internalType": "uint256",
          "name": "sponsorAmount",
          "type": "uint256"
        }
      ],
      "name": "Sponsor",
      "type": "event"
    },
    {
      "inputs": [],
      "name": "DaoTreasury",
      "outputs": [
        {
          "internalType": "address",
          "name": "",
          "type": "address"
        }
      ],
      "stateMutability": "view",
      "type": "function"
    },
    {
      "inputs": [],
      "name": "DaoVault",
      "outputs": [
        {
          "internalType": "address",
          "name": "",
          "type": "address"
        }
      ],
      "stateMutability": "view",
      "type": "function"
    },
    {
      "inputs": [],
      "name": "SPONSOR_ATTR_ID",
      "outputs": [
        {
          "internalType": "uint256",
          "name": "",
          "type": "uint256"
        }
      ],
      "stateMutability": "view",
      "type": "function"
    },
    {
      "inputs": [],
      "name": "WEB3DAONFT",
      "outputs": [
        {
          "internalType": "address",
          "name": "",
          "type": "address"
        }
      ],
      "stateMutability": "view",
      "type": "function"
    },
    {
      "inputs": [
        {
          "internalType": "uint256",
          "name": "",
          "type": "uint256"
        }
      ],
      "name": "_lockVault",
      "outputs": [
        {
          "internalType": "uint256",
          "name": "sponsorAmount",
          "type": "uint256"
        },
        {
          "internalType": "uint256",
          "name": "stakeAmount",
          "type": "uint256"
        },
        {
          "internalType": "uint256",
          "name": "borrowGasAmount",
          "type": "uint256"
        },
        {
          "internalType": "uint256",
          "name": "time",
          "type": "uint256"
        }
      ],
      "stateMutability": "view",
      "type": "function"
    },
    {
      "inputs": [
        {
          "internalType": "uint256",
          "name": "tokenId",
          "type": "uint256"
        },
        {
          "internalType": "uint256",
          "name": "gasAmount",
          "type": "uint256"
        }
      ],
      "name": "borrowGas",
      "outputs": [
        {
          "internalType": "bool",
          "name": "",
          "type": "bool"
        }
      ],
      "stateMutability": "nonpayable",
      "type": "function"
    },
    {
      "inputs": [
        {
          "internalType": "uint256",
          "name": "tokenId",
          "type": "uint256"
        }
      ],
      "name": "lockVault",
      "outputs": [
        {
          "components": [
            {
              "internalType": "uint256",
              "name": "sponsorAmount",
              "type": "uint256"
            },
            {
              "internalType": "uint256",
              "name": "stakeAmount",
              "type": "uint256"
            },
            {
              "internalType": "uint256",
              "name": "borrowGasAmount",
              "type": "uint256"
            },
            {
              "internalType": "uint256",
              "name": "time",
              "type": "uint256"
            }
          ],
          "internalType": "struct IDaoSponsor.LockVault",
          "name": "",
          "type": "tuple"
        }
      ],
      "stateMutability": "view",
      "type": "function"
    },
    {
      "inputs": [],
      "name": "max",
      "outputs": [
        {
          "internalType": "uint256",
          "name": "",
          "type": "uint256"
        }
      ],
      "stateMutability": "view",
      "type": "function"
    },
    {
      "inputs": [],
      "name": "maxBorrow",
      "outputs": [
        {
          "internalType": "uint256",
          "name": "",
          "type": "uint256"
        }
      ],
      "stateMutability": "view",
      "type": "function"
    },
    {
      "inputs": [],
      "name": "owner",
      "outputs": [
        {
          "internalType": "address",
          "name": "",
          "type": "address"
        }
      ],
      "stateMutability": "view",
      "type": "function"
    },
    {
      "inputs": [
        {
          "internalType": "uint256",
          "name": "tokenId",
          "type": "uint256"
        },
        {
          "internalType": "uint256",
          "name": "sponsorAmount",
          "type": "uint256"
        }
      ],
      "name": "quit",
      "outputs": [
        {
          "internalType": "uint256",
          "name": "quitAmount",
          "type": "uint256"
        }
      ],
      "stateMutability": "nonpayable",
      "type": "function"
    },
    {
      "inputs": [],
      "name": "renounceOwnership",
      "outputs": [],
      "stateMutability": "nonpayable",
      "type": "function"
    },
    {
      "inputs": [
        {
          "internalType": "uint256",
          "name": "tokenId",
          "type": "uint256"
        },
        {
          "internalType": "uint256",
          "name": "gasAmount",
          "type": "uint256"
        }
      ],
      "name": "returnGas",
      "outputs": [
        {
          "internalType": "bool",
          "name": "",
          "type": "bool"
        }
      ],
      "stateMutability": "nonpayable",
      "type": "function"
    },
    {
      "inputs": [
        {
          "internalType": "address",
          "name": "_DaoTreasury",
          "type": "address"
        }
      ],
      "name": "setDaoTreasury",
      "outputs": [],
      "stateMutability": "nonpayable",
      "type": "function"
    },
    {
      "inputs": [
        {
          "internalType": "address",
          "name": "_DaoVault",
          "type": "address"
        }
      ],
      "name": "setDaoVault",
      "outputs": [],
      "stateMutability": "nonpayable",
      "type": "function"
    },
    {
      "inputs": [
        {
          "internalType": "uint256",
          "name": "_maxBorrow",
          "type": "uint256"
        }
      ],
      "name": "setMaxBorrow",
      "outputs": [],
      "stateMutability": "nonpayable",
      "type": "function"
    },
    {
      "inputs": [
        {
          "internalType": "uint256",
          "name": "tokenId",
          "type": "uint256"
        },
        {
          "internalType": "uint256",
          "name": "ethAmount",
          "type": "uint256"
        }
      ],
      "name": "sponsor",
      "outputs": [],
      "stateMutability": "nonpayable",
      "type": "function"
    },
    {
      "inputs": [
        {
          "internalType": "address",
          "name": "newOwner",
          "type": "address"
        }
      ],
      "name": "transferOwnership",
      "outputs": [],
      "stateMutability": "nonpayable",
      "type": "function"
    }
  ],
  "bytecode": "0x60c0604052611f4060035534801561001657600080fd5b50604051611498380380611498833981016040819052610035916100a9565b61003e33610059565b60609190911b6001600160601b03191660805260a0526100e1565b600080546001600160a01b038381166001600160a01b0319831681178455604051919092169283917f8be0079c531659141344cd1fd0a4f28419497f9722a3daafe3b4186f6b6457e09190a35050565b600080604083850312156100bb578182fd5b82516001600160a01b03811681146100d1578283fd5b6020939093015192949293505050565b60805160601c60a05161134961014f600039600081816101b9015281816105c1015281816106b60152818161097f01528181610bc00152610d47015260008181610298015281816105f5015281816106e3015281816109a801528181610bed0152610d7001526113496000f3fe608060405234801561001057600080fd5b50600436106101165760003560e01c80638da5cb5b116100a2578063ae3d804011610071578063ae3d804014610280578063b7627eee14610293578063e26e9eaf146102ba578063f2fde38b14610300578063ffb26b381461031357600080fd5b80638da5cb5b14610222578063947fdb8b1461024757806398b8c4e11461025a578063a124df5d1461026d57600080fd5b80634bb81553116100e95780634bb81553146101b45780636ac5db19146101db578063715018a6146101e4578063772338d1146101ec57806384c8a0ec146101ff57600080fd5b8063016fd21b1461011b5780630cc0bfa5146101755780631d54164b1461018c5780634b799db1146101a1575b600080fd5b610150610129366004611209565b60046020526000908152604090208054600182015460028301546003909301549192909184565b6040805194855260208501939093529183015260608201526080015b60405180910390f35b61017e60035481565b60405190815260200161016c565b61019f61019a366004611209565b610326565b005b61019f6101af3660046111db565b610395565b61017e7f000000000000000000000000000000000000000000000000000000000000000081565b61017e61271081565b61019f61040d565b61017e6101fa366004611239565b610443565b61021261020d366004611239565b61078b565b604051901515815260200161016c565b6000546001600160a01b03165b6040516001600160a01b03909116815260200161016c565b61019f610255366004611239565b610946565b60015461022f906001600160a01b031681565b61019f61027b3660046111db565b610c95565b61021261028e366004611239565b610d0d565b61022f7f000000000000000000000000000000000000000000000000000000000000000081565b6102cd6102c8366004611209565b611080565b60405161016c91908151815260208083015190820152604080830151908201526060918201519181019190915260800190565b61019f61030e3660046111db565b6110f0565b60025461022f906001600160a01b031681565b6000546001600160a01b031633146103595760405162461bcd60e51b81526004016103509061125a565b60405180910390fd5b60038190556040518181527feb502ce07e3ddd2560b82d3cb45e23e2ba36ab481575a583141058f8d61f07cf906020015b60405180910390a150565b6000546001600160a01b031633146103bf5760405162461bcd60e51b81526004016103509061125a565b600180546001600160a01b0319166001600160a01b0383169081179091556040519081527fb329e64befdec2a048fc9bc0ec49385e5f414f5047e9fe44d771240d47e307a59060200161038a565b6000546001600160a01b031633146104375760405162461bcd60e51b81526004016103509061125a565b610441600061118b565b565b600080546001600160a01b0316331461046e5760405162461bcd60e51b81526004016103509061125a565b600083815260046020526040902060038101544210156104c95760405162461bcd60e51b815260206004820152601660248201527544616f53706f6e736f723a206c6f636b2074696d652160501b6044820152606401610350565b6001810154815484916104db916112e6565b10156105355760405162461bcd60e51b8152602060048201526024808201527f44616f53706f6e736f723a206e6f20656e6f7567682073706f6e736f72416d6f604482015263756e742160e01b6064820152608401610350565b6001546040805163669949ef60e11b815290516000926001600160a01b03169163cd3293de916004808301926020929190829003018186803b15801561057a57600080fd5b505afa15801561058e573d6000803e3d6000fd5b505050506040513d601f19601f820116820180604052508101906105b29190611221565b60405163bd85b03960e01b81527f000000000000000000000000000000000000000000000000000000000000000060048201529091506000906001600160a01b037f0000000000000000000000000000000000000000000000000000000000000000169063bd85b0399060240160206040518083038186803b15801561063757600080fd5b505afa15801561064b573d6000803e3d6000fd5b505050506040513d601f19601f8201168201806040525081019061066f9190611221565b90508061067c83876112c7565b61068691906112a7565b93508483600001600082825461069c91906112e6565b909155505060405162b4200560e31b8152600481018790527f00000000000000000000000000000000000000000000000000000000000000006024820152604481018690527f00000000000000000000000000000000000000000000000000000000000000006001600160a01b0316906305a1002890606401600060405180830381600087803b15801561072f57600080fd5b505af1158015610743573d6000803e3d6000fd5b505060408051888152602081018890528993507f7131faa9966bf3c65868d6b7254f166a0d5b8ceb081e8991bf655db0f2defbc892500160405180910390a250505092915050565b600080546001600160a01b031633146107b65760405162461bcd60e51b81526004016103509061125a565b600083815260046020526040902060028101548311156108185760405162461bcd60e51b815260206004820152601b60248201527f44616f53706f6e736f723a20676173416d6f756e74206572726f7200000000006044820152606401610350565b6002546040805163f5bc5dcb60e01b815290516000926001600160a01b03169163f5bc5dcb916004808301926020929190829003018186803b15801561085d57600080fd5b505afa158015610871573d6000803e3d6000fd5b505050506040513d601f19601f820116820180604052508101906108959190611221565b90506000826002015482866108aa91906112a7565b84600101546108b991906112c7565b6108c391906112a7565b9050808360010160008282546108d991906112e6565b92505081905550848360020160008282546108f491906112e6565b909155505060408051878152602081018790529081018290527fa0b4480066399e6faf68170475e2e5d91082b6b473cfe261decf41efe79698df9060600160405180910390a150600195945050505050565b6000546001600160a01b031633146109705760405162461bcd60e51b81526004016103509061125a565b60405163bd85b03960e01b81527f000000000000000000000000000000000000000000000000000000000000000060048201526000907f00000000000000000000000000000000000000000000000000000000000000006001600160a01b03169063bd85b0399060240160206040518083038186803b1580156109f257600080fd5b505afa158015610a06573d6000803e3d6000fd5b505050506040513d601f19601f82011682018060405250810190610a2a9190611221565b90506000600160009054906101000a90046001600160a01b03166001600160a01b031663cd3293de6040518163ffffffff1660e01b815260040160206040518083038186803b158015610a7c57600080fd5b505afa158015610a90573d6000803e3d6000fd5b505050506040513d601f19601f82011682018060405250810190610ab49190611221565b90506000600260009054906101000a90046001600160a01b03166001600160a01b0316630dca59c16040518163ffffffff1660e01b815260040160206040518083038186803b158015610b0657600080fd5b505afa158015610b1a573d6000803e3d6000fd5b505050506040513d601f19601f82011682018060405250810190610b3e9190611221565b9050600083610b4e575083610b6f565b610b58828461128f565b610b6285876112c7565b610b6c91906112a7565b90505b6000868152600460205260408120805490918391839190610b9190849061128f565b90915550610ba59050426301e1338061128f565b60038201556040516302acc94b60e01b8152600481018890527f00000000000000000000000000000000000000000000000000000000000000006024820152604481018390527f00000000000000000000000000000000000000000000000000000000000000006001600160a01b0316906302acc94b90606401600060405180830381600087803b158015610c3957600080fd5b505af1158015610c4d573d6000803e3d6000fd5b505060408051898152602081018690528a93507fcd7df06edc3abb33001e5ad80098c29fc9977b86a845f32517922b6d1c86c6f292500160405180910390a250505050505050565b6000546001600160a01b03163314610cbf5760405162461bcd60e51b81526004016103509061125a565b600280546001600160a01b0319166001600160a01b0383169081179091556040519081527f062dd8d05f9b3c4d87835b7a811e7968d0255ee314629afb928ba31dd8ecbe019060200161038a565b600080546001600160a01b03163314610d385760405162461bcd60e51b81526004016103509061125a565b60405163bd85b03960e01b81527f000000000000000000000000000000000000000000000000000000000000000060048201526000907f00000000000000000000000000000000000000000000000000000000000000006001600160a01b03169063bd85b0399060240160206040518083038186803b158015610dba57600080fd5b505afa158015610dce573d6000803e3d6000fd5b505050506040513d601f19601f82011682018060405250810190610df29190611221565b90506000600160009054906101000a90046001600160a01b03166001600160a01b031663cd3293de6040518163ffffffff1660e01b815260040160206040518083038186803b158015610e4457600080fd5b505afa158015610e58573d6000803e3d6000fd5b505050506040513d601f19601f82011682018060405250810190610e7c9190611221565b90506000600260009054906101000a90046001600160a01b03166001600160a01b031663f5bc5dcb6040518163ffffffff1660e01b815260040160206040518083038186803b158015610ece57600080fd5b505afa158015610ee2573d6000803e3d6000fd5b505050506040513d601f19601f82011682018060405250810190610f069190611221565b60008781526004602052604081208054929350918590610f279086906112c7565b610f3191906112a7565b9050612710600354670de0b6b3a7640000610f4c91906112c7565b610f5691906112a7565b610f6084836112c7565b888460020154610f70919061128f565b610f8290670de0b6b3a76400006112c7565b610f8c91906112a7565b1115610fda5760405162461bcd60e51b815260206004820152601f60248201527f44616f53706f6e736f723a6d6f7265207468616e206d617820626f72726f77006044820152606401610350565b6000610fe684866112c7565b610ff0878a6112c7565b610ffa91906112a7565b905080836001016000828254611010919061128f565b925050819055508783600201600082825461102b919061128f565b9091555050604080518a8152602081018a90529081018290527f1a96c35000aa300895edd8016fab4fc0d4f90134ca055b8f01b8d893ff16c9359060600160405180910390a150600198975050505050505050565b6110ab6040518060800160405280600081526020016000815260200160008152602001600081525090565b50600090815260046020908152604091829020825160808101845281548152600182015492810192909252600281015492820192909252600390910154606082015290565b6000546001600160a01b0316331461111a5760405162461bcd60e51b81526004016103509061125a565b6001600160a01b03811661117f5760405162461bcd60e51b815260206004820152602660248201527f4f776e61626c653a206e6577206f776e657220697320746865207a65726f206160448201526564647265737360d01b6064820152608401610350565b6111888161118b565b50565b600080546001600160a01b038381166001600160a01b0319831681178455604051919092169283917f8be0079c531659141344cd1fd0a4f28419497f9722a3daafe3b4186f6b6457e09190a35050565b6000602082840312156111ec578081fd5b81356001600160a01b0381168114611202578182fd5b9392505050565b60006020828403121561121a578081fd5b5035919050565b600060208284031215611232578081fd5b5051919050565b6000806040838503121561124b578081fd5b50508035926020909101359150565b6020808252818101527f4f776e61626c653a2063616c6c6572206973206e6f7420746865206f776e6572604082015260600190565b600082198211156112a2576112a26112fd565b500190565b6000826112c257634e487b7160e01b81526012600452602481fd5b500490565b60008160001904831182151516156112e1576112e16112fd565b500290565b6000828210156112f8576112f86112fd565b500390565b634e487b7160e01b600052601160045260246000fdfea2646970667358221220b657f119dc99efb02ee135391b318247cf3df6e038d304e8e67fa5f24c56463564736f6c63430008040033",
  "linkReferences": {},
  "deployedLinkReferences": {}
}