{
  "_format": "hh-sol-artifact-1",
  "contractName": "Web3DAOCN",
  "sourceName": "contracts/Web3DAOCN.sol",
  "abi": [
    {
      "inputs": [
        {
          "internalType": "string",
          "name": "uri_",
          "type": "string"
        }
      ],
      "stateMutability": "nonpayable",
      "type": "constructor"
    },
    {
      "anonymous": false,
      "inputs": [
        {
          "indexed": true,
          "internalType": "address",
          "name": "owner",
          "type": "address"
        },
        {
          "indexed": true,
          "internalType": "address",
          "name": "approved",
          "type": "address"
        },
        {
          "indexed": true,
          "internalType": "uint256",
          "name": "tokenId",
          "type": "uint256"
        }
      ],
      "name": "Approval",
      "type": "event"
    },
    {
      "anonymous": false,
      "inputs": [
        {
          "indexed": true,
          "internalType": "address",
          "name": "owner",
          "type": "address"
        },
        {
          "indexed": true,
          "internalType": "address",
          "name": "operator",
          "type": "address"
        },
        {
          "indexed": false,
          "internalType": "bool",
          "name": "approved",
          "type": "bool"
        }
      ],
      "name": "ApprovalForAll",
      "type": "event"
    },
    {
      "anonymous": false,
      "inputs": [
        {
          "indexed": false,
          "internalType": "uint256",
          "name": "attrId",
          "type": "uint256"
        },
        {
          "indexed": false,
          "internalType": "bool",
          "name": "allow",
          "type": "bool"
        }
      ],
      "name": "AttrTransferAllow",
      "type": "event"
    },
    {
      "anonymous": false,
      "inputs": [
        {
          "indexed": true,
          "internalType": "address",
          "name": "operator",
          "type": "address"
        },
        {
          "indexed": false,
          "internalType": "uint256",
          "name": "from",
          "type": "uint256"
        },
        {
          "indexed": false,
          "internalType": "uint256",
          "name": "to",
          "type": "uint256"
        },
        {
          "indexed": false,
          "internalType": "uint256",
          "name": "attrId",
          "type": "uint256"
        },
        {
          "indexed": false,
          "internalType": "uint256",
          "name": "amount",
          "type": "uint256"
        }
      ],
      "name": "AttributeApproval",
      "type": "event"
    },
    {
      "anonymous": false,
      "inputs": [
        {
          "indexed": true,
          "internalType": "uint256",
          "name": "attrId",
          "type": "uint256"
        },
        {
          "indexed": false,
          "internalType": "string",
          "name": "name",
          "type": "string"
        },
        {
          "indexed": false,
          "internalType": "string",
          "name": "symbol",
          "type": "string"
        },
        {
          "indexed": false,
          "internalType": "uint8",
          "name": "_decimal",
          "type": "uint8"
        },
        {
          "indexed": false,
          "internalType": "string",
          "name": "uri",
          "type": "string"
        }
      ],
      "name": "AttributeCreated",
      "type": "event"
    },
    {
      "anonymous": false,
      "inputs": [
        {
          "indexed": true,
          "internalType": "bytes32",
          "name": "role",
          "type": "bytes32"
        },
        {
          "indexed": true,
          "internalType": "bytes32",
          "name": "previousAdminRole",
          "type": "bytes32"
        },
        {
          "indexed": true,
          "internalType": "bytes32",
          "name": "newAdminRole",
          "type": "bytes32"
        }
      ],
      "name": "RoleAdminChanged",
      "type": "event"
    },
    {
      "anonymous": false,
      "inputs": [
        {
          "indexed": true,
          "internalType": "bytes32",
          "name": "role",
          "type": "bytes32"
        },
        {
          "indexed": true,
          "internalType": "address",
          "name": "account",
          "type": "address"
        },
        {
          "indexed": true,
          "internalType": "address",
          "name": "sender",
          "type": "address"
        }
      ],
      "name": "RoleGranted",
      "type": "event"
    },
    {
      "anonymous": false,
      "inputs": [
        {
          "indexed": true,
          "internalType": "bytes32",
          "name": "role",
          "type": "bytes32"
        },
        {
          "indexed": true,
          "internalType": "address",
          "name": "account",
          "type": "address"
        },
        {
          "indexed": true,
          "internalType": "address",
          "name": "sender",
          "type": "address"
        }
      ],
      "name": "RoleRevoked",
      "type": "event"
    },
    {
      "anonymous": false,
      "inputs": [
        {
          "indexed": true,
          "internalType": "address",
          "name": "from",
          "type": "address"
        },
        {
          "indexed": true,
          "internalType": "address",
          "name": "to",
          "type": "address"
        },
        {
          "indexed": true,
          "internalType": "uint256",
          "name": "tokenId",
          "type": "uint256"
        }
      ],
      "name": "Transfer",
      "type": "event"
    },
    {
      "anonymous": false,
      "inputs": [
        {
          "indexed": true,
          "internalType": "address",
          "name": "operator",
          "type": "address"
        },
        {
          "indexed": true,
          "internalType": "uint256",
          "name": "from",
          "type": "uint256"
        },
        {
          "indexed": true,
          "internalType": "uint256",
          "name": "to",
          "type": "uint256"
        },
        {
          "indexed": false,
          "internalType": "uint256[]",
          "name": "attrIds",
          "type": "uint256[]"
        },
        {
          "indexed": false,
          "internalType": "uint256[]",
          "name": "values",
          "type": "uint256[]"
        }
      ],
      "name": "TransferBatch",
      "type": "event"
    },
    {
      "anonymous": false,
      "inputs": [
        {
          "indexed": true,
          "internalType": "address",
          "name": "operator",
          "type": "address"
        },
        {
          "indexed": true,
          "internalType": "uint256",
          "name": "from",
          "type": "uint256"
        },
        {
          "indexed": true,
          "internalType": "uint256",
          "name": "to",
          "type": "uint256"
        },
        {
          "indexed": false,
          "internalType": "uint256",
          "name": "attrId",
          "type": "uint256"
        },
        {
          "indexed": false,
          "internalType": "uint256",
          "name": "value",
          "type": "uint256"
        }
      ],
      "name": "TransferSingle",
      "type": "event"
    },
    {
      "inputs": [],
      "name": "DEFAULT_ADMIN_ROLE",
      "outputs": [
        {
          "internalType": "bytes32",
          "name": "",
          "type": "bytes32"
        }
      ],
      "stateMutability": "view",
      "type": "function"
    },
    {
      "inputs": [],
      "name": "MINTER_ROLE",
      "outputs": [
        {
          "internalType": "bytes32",
          "name": "",
          "type": "bytes32"
        }
      ],
      "stateMutability": "view",
      "type": "function"
    },
    {
      "inputs": [
        {
          "internalType": "address",
          "name": "operator",
          "type": "address"
        },
        {
          "internalType": "uint256",
          "name": "from",
          "type": "uint256"
        },
        {
          "internalType": "uint256",
          "name": "to",
          "type": "uint256"
        },
        {
          "internalType": "uint256",
          "name": "attrId",
          "type": "uint256"
        },
        {
          "internalType": "uint256",
          "name": "amount",
          "type": "uint256"
        }
      ],
      "name": "_transfer",
      "outputs": [],
      "stateMutability": "nonpayable",
      "type": "function"
    },
    {
      "inputs": [
        {
          "internalType": "uint256",
          "name": "from",
          "type": "uint256"
        },
        {
          "internalType": "uint256",
          "name": "to",
          "type": "uint256"
        },
        {
          "internalType": "uint256",
          "name": "attrId",
          "type": "uint256"
        }
      ],
      "name": "allowance",
      "outputs": [
        {
          "internalType": "uint256",
          "name": "",
          "type": "uint256"
        }
      ],
      "stateMutability": "view",
      "type": "function"
    },
    {
      "inputs": [
        {
          "internalType": "address",
          "name": "to",
          "type": "address"
        },
        {
          "internalType": "uint256",
          "name": "tokenId",
          "type": "uint256"
        }
      ],
      "name": "approve",
      "outputs": [],
      "stateMutability": "nonpayable",
      "type": "function"
    },
    {
      "inputs": [
        {
          "internalType": "uint256",
          "name": "from",
          "type": "uint256"
        },
        {
          "internalType": "uint256",
          "name": "to",
          "type": "uint256"
        },
        {
          "internalType": "uint256",
          "name": "attrId",
          "type": "uint256"
        },
        {
          "internalType": "uint256",
          "name": "amount",
          "type": "uint256"
        }
      ],
      "name": "approve",
      "outputs": [],
      "stateMutability": "nonpayable",
      "type": "function"
    },
    {
      "inputs": [
        {
          "internalType": "uint256",
          "name": "",
          "type": "uint256"
        }
      ],
      "name": "attrTransferAllow",
      "outputs": [
        {
          "internalType": "bool",
          "name": "",
          "type": "bool"
        }
      ],
      "stateMutability": "view",
      "type": "function"
    },
    {
      "inputs": [
        {
          "internalType": "uint256",
          "name": "attrId",
          "type": "uint256"
        }
      ],
      "name": "attrURI",
      "outputs": [
        {
          "internalType": "string",
          "name": "",
          "type": "string"
        }
      ],
      "stateMutability": "view",
      "type": "function"
    },
    {
      "inputs": [
        {
          "internalType": "address",
          "name": "owner",
          "type": "address"
        }
      ],
      "name": "balanceOf",
      "outputs": [
        {
          "internalType": "uint256",
          "name": "",
          "type": "uint256"
        }
      ],
      "stateMutability": "view",
      "type": "function"
    },
    {
      "inputs": [
        {
          "internalType": "uint256",
          "name": "tokenId",
          "type": "uint256"
        },
        {
          "internalType": "uint256",
          "name": "attrId",
          "type": "uint256"
        }
      ],
      "name": "balanceOf",
      "outputs": [
        {
          "internalType": "uint256",
          "name": "",
          "type": "uint256"
        }
      ],
      "stateMutability": "view",
      "type": "function"
    },
    {
      "inputs": [
        {
          "internalType": "uint256",
          "name": "tokenId",
          "type": "uint256"
        },
        {
          "internalType": "uint256[]",
          "name": "attrIds",
          "type": "uint256[]"
        }
      ],
      "name": "balanceOfBatch",
      "outputs": [
        {
          "internalType": "uint256[]",
          "name": "",
          "type": "uint256[]"
        }
      ],
      "stateMutability": "view",
      "type": "function"
    },
    {
      "inputs": [
        {
          "internalType": "uint256",
          "name": "tokenId",
          "type": "uint256"
        },
        {
          "internalType": "uint256",
          "name": "attrId",
          "type": "uint256"
        },
        {
          "internalType": "uint256",
          "name": "amount",
          "type": "uint256"
        }
      ],
      "name": "burn",
      "outputs": [],
      "stateMutability": "nonpayable",
      "type": "function"
    },
    {
      "inputs": [
        {
          "internalType": "uint256",
          "name": "tokenId",
          "type": "uint256"
        },
        {
          "internalType": "uint256[]",
          "name": "attrIds",
          "type": "uint256[]"
        },
        {
          "internalType": "uint256[]",
          "name": "amounts",
          "type": "uint256[]"
        }
      ],
      "name": "burnBatch",
      "outputs": [],
      "stateMutability": "nonpayable",
      "type": "function"
    },
    {
      "inputs": [
        {
          "internalType": "uint256",
          "name": "_attrId",
          "type": "uint256"
        },
        {
          "internalType": "string",
          "name": "_name",
          "type": "string"
        },
        {
          "internalType": "string",
          "name": "_symbol",
          "type": "string"
        },
        {
          "internalType": "uint8",
          "name": "_decimal",
          "type": "uint8"
        },
        {
          "internalType": "string",
          "name": "_uri",
          "type": "string"
        }
      ],
      "name": "create",
      "outputs": [],
      "stateMutability": "nonpayable",
      "type": "function"
    },
    {
      "inputs": [
        {
          "internalType": "uint256[]",
          "name": "attrIds",
          "type": "uint256[]"
        },
        {
          "internalType": "string[]",
          "name": "names",
          "type": "string[]"
        },
        {
          "internalType": "string[]",
          "name": "symbols",
          "type": "string[]"
        },
        {
          "internalType": "uint8[]",
          "name": "decimals",
          "type": "uint8[]"
        },
        {
          "internalType": "string[]",
          "name": "uris",
          "type": "string[]"
        }
      ],
      "name": "createBatch",
      "outputs": [],
      "stateMutability": "nonpayable",
      "type": "function"
    },
    {
      "inputs": [
        {
          "internalType": "uint256",
          "name": "attrId",
          "type": "uint256"
        }
      ],
      "name": "decimal",
      "outputs": [
        {
          "internalType": "uint8",
          "name": "",
          "type": "uint8"
        }
      ],
      "stateMutability": "view",
      "type": "function"
    },
    {
      "inputs": [
        {
          "internalType": "uint256",
          "name": "tokenId",
          "type": "uint256"
        }
      ],
      "name": "getApproved",
      "outputs": [
        {
          "internalType": "address",
          "name": "",
          "type": "address"
        }
      ],
      "stateMutability": "view",
      "type": "function"
    },
    {
      "inputs": [
        {
          "internalType": "bytes32",
          "name": "role",
          "type": "bytes32"
        }
      ],
      "name": "getRoleAdmin",
      "outputs": [
        {
          "internalType": "bytes32",
          "name": "",
          "type": "bytes32"
        }
      ],
      "stateMutability": "view",
      "type": "function"
    },
    {
      "inputs": [
        {
          "internalType": "bytes32",
          "name": "role",
          "type": "bytes32"
        },
        {
          "internalType": "uint256",
          "name": "index",
          "type": "uint256"
        }
      ],
      "name": "getRoleMember",
      "outputs": [
        {
          "internalType": "address",
          "name": "",
          "type": "address"
        }
      ],
      "stateMutability": "view",
      "type": "function"
    },
    {
      "inputs": [
        {
          "internalType": "bytes32",
          "name": "role",
          "type": "bytes32"
        }
      ],
      "name": "getRoleMemberCount",
      "outputs": [
        {
          "internalType": "uint256",
          "name": "",
          "type": "uint256"
        }
      ],
      "stateMutability": "view",
      "type": "function"
    },
    {
      "inputs": [
        {
          "internalType": "bytes32",
          "name": "role",
          "type": "bytes32"
        },
        {
          "internalType": "address",
          "name": "account",
          "type": "address"
        }
      ],
      "name": "grantRole",
      "outputs": [],
      "stateMutability": "nonpayable",
      "type": "function"
    },
    {
      "inputs": [
        {
          "internalType": "bytes32",
          "name": "role",
          "type": "bytes32"
        },
        {
          "internalType": "address",
          "name": "account",
          "type": "address"
        }
      ],
      "name": "hasRole",
      "outputs": [
        {
          "internalType": "bool",
          "name": "",
          "type": "bool"
        }
      ],
      "stateMutability": "view",
      "type": "function"
    },
    {
      "inputs": [
        {
          "internalType": "address",
          "name": "owner",
          "type": "address"
        },
        {
          "internalType": "address",
          "name": "operator",
          "type": "address"
        }
      ],
      "name": "isApprovedForAll",
      "outputs": [
        {
          "internalType": "bool",
          "name": "",
          "type": "bool"
        }
      ],
      "stateMutability": "view",
      "type": "function"
    },
    {
      "inputs": [
        {
          "internalType": "uint256",
          "name": "tokenId",
          "type": "uint256"
        },
        {
          "internalType": "uint256",
          "name": "attrId",
          "type": "uint256"
        },
        {
          "internalType": "uint256",
          "name": "amount",
          "type": "uint256"
        }
      ],
      "name": "mint",
      "outputs": [],
      "stateMutability": "nonpayable",
      "type": "function"
    },
    {
      "inputs": [
        {
          "internalType": "address",
          "name": "to",
          "type": "address"
        }
      ],
      "name": "mint",
      "outputs": [],
      "stateMutability": "nonpayable",
      "type": "function"
    },
    {
      "inputs": [
        {
          "internalType": "uint256",
          "name": "tokenId",
          "type": "uint256"
        },
        {
          "internalType": "uint256[]",
          "name": "attrIds",
          "type": "uint256[]"
        },
        {
          "internalType": "uint256[]",
          "name": "amounts",
          "type": "uint256[]"
        }
      ],
      "name": "mintBatch",
      "outputs": [],
      "stateMutability": "nonpayable",
      "type": "function"
    },
    {
      "inputs": [
        {
          "internalType": "uint256",
          "name": "attrId",
          "type": "uint256"
        }
      ],
      "name": "name",
      "outputs": [
        {
          "internalType": "string",
          "name": "",
          "type": "string"
        }
      ],
      "stateMutability": "view",
      "type": "function"
    },
    {
      "inputs": [],
      "name": "name",
      "outputs": [
        {
          "internalType": "string",
          "name": "",
          "type": "string"
        }
      ],
      "stateMutability": "view",
      "type": "function"
    },
    {
      "inputs": [
        {
          "internalType": "uint256",
          "name": "tokenId",
          "type": "uint256"
        }
      ],
      "name": "ownerOf",
      "outputs": [
        {
          "internalType": "address",
          "name": "",
          "type": "address"
        }
      ],
      "stateMutability": "view",
      "type": "function"
    },
    {
      "inputs": [
        {
          "internalType": "uint256",
          "name": "from",
          "type": "uint256"
        },
        {
          "internalType": "uint256",
          "name": "to",
          "type": "uint256"
        },
        {
          "internalType": "uint256",
          "name": "attrId",
          "type": "uint256"
        },
        {
          "internalType": "uint256",
          "name": "amount",
          "type": "uint256"
        },
        {
          "internalType": "bytes",
          "name": "signature",
          "type": "bytes"
        }
      ],
      "name": "permit",
      "outputs": [],
      "stateMutability": "nonpayable",
      "type": "function"
    },
    {
      "inputs": [
        {
          "internalType": "bytes32",
          "name": "role",
          "type": "bytes32"
        },
        {
          "internalType": "address",
          "name": "account",
          "type": "address"
        }
      ],
      "name": "renounceRole",
      "outputs": [],
      "stateMutability": "nonpayable",
      "type": "function"
    },
    {
      "inputs": [
        {
          "internalType": "bytes32",
          "name": "role",
          "type": "bytes32"
        },
        {
          "internalType": "address",
          "name": "account",
          "type": "address"
        }
      ],
      "name": "revokeRole",
      "outputs": [],
      "stateMutability": "nonpayable",
      "type": "function"
    },
    {
      "inputs": [
        {
          "internalType": "address",
          "name": "from",
          "type": "address"
        },
        {
          "internalType": "address",
          "name": "to",
          "type": "address"
        },
        {
          "internalType": "uint256",
          "name": "tokenId",
          "type": "uint256"
        }
      ],
      "name": "safeTransferFrom",
      "outputs": [],
      "stateMutability": "nonpayable",
      "type": "function"
    },
    {
      "inputs": [
        {
          "internalType": "address",
          "name": "from",
          "type": "address"
        },
        {
          "internalType": "address",
          "name": "to",
          "type": "address"
        },
        {
          "internalType": "uint256",
          "name": "tokenId",
          "type": "uint256"
        },
        {
          "internalType": "bytes",
          "name": "_data",
          "type": "bytes"
        }
      ],
      "name": "safeTransferFrom",
      "outputs": [],
      "stateMutability": "nonpayable",
      "type": "function"
    },
    {
      "inputs": [
        {
          "internalType": "address",
          "name": "operator",
          "type": "address"
        },
        {
          "internalType": "bool",
          "name": "approved",
          "type": "bool"
        }
      ],
      "name": "setApprovalForAll",
      "outputs": [],
      "stateMutability": "nonpayable",
      "type": "function"
    },
    {
      "inputs": [
        {
          "internalType": "uint256",
          "name": "attrId",
          "type": "uint256"
        },
        {
          "internalType": "bool",
          "name": "allow",
          "type": "bool"
        }
      ],
      "name": "setAttrTransferAllow",
      "outputs": [],
      "stateMutability": "nonpayable",
      "type": "function"
    },
    {
      "inputs": [
        {
          "internalType": "string",
          "name": "newuri",
          "type": "string"
        }
      ],
      "name": "setURI",
      "outputs": [],
      "stateMutability": "nonpayable",
      "type": "function"
    },
    {
      "inputs": [
        {
          "internalType": "bytes4",
          "name": "interfaceId",
          "type": "bytes4"
        }
      ],
      "name": "supportsInterface",
      "outputs": [
        {
          "internalType": "bool",
          "name": "",
          "type": "bool"
        }
      ],
      "stateMutability": "view",
      "type": "function"
    },
    {
      "inputs": [
        {
          "internalType": "uint256",
          "name": "attrId",
          "type": "uint256"
        }
      ],
      "name": "symbol",
      "outputs": [
        {
          "internalType": "string",
          "name": "",
          "type": "string"
        }
      ],
      "stateMutability": "view",
      "type": "function"
    },
    {
      "inputs": [],
      "name": "symbol",
      "outputs": [
        {
          "internalType": "string",
          "name": "",
          "type": "string"
        }
      ],
      "stateMutability": "view",
      "type": "function"
    },
    {
      "inputs": [
        {
          "internalType": "uint256",
          "name": "tokenId",
          "type": "uint256"
        }
      ],
      "name": "tokenURI",
      "outputs": [
        {
          "internalType": "string",
          "name": "",
          "type": "string"
        }
      ],
      "stateMutability": "view",
      "type": "function"
    },
    {
      "inputs": [],
      "name": "totalSupply",
      "outputs": [
        {
          "internalType": "uint256",
          "name": "",
          "type": "uint256"
        }
      ],
      "stateMutability": "view",
      "type": "function"
    },
    {
      "inputs": [
        {
          "internalType": "uint256",
          "name": "attrId",
          "type": "uint256"
        }
      ],
      "name": "totalSupply",
      "outputs": [
        {
          "internalType": "uint256",
          "name": "",
          "type": "uint256"
        }
      ],
      "stateMutability": "view",
      "type": "function"
    },
    {
      "inputs": [
        {
          "internalType": "uint256",
          "name": "from",
          "type": "uint256"
        },
        {
          "internalType": "uint256",
          "name": "to",
          "type": "uint256"
        },
        {
          "internalType": "uint256",
          "name": "attrId",
          "type": "uint256"
        },
        {
          "internalType": "uint256",
          "name": "amount",
          "type": "uint256"
        }
      ],
      "name": "transfer",
      "outputs": [],
      "stateMutability": "nonpayable",
      "type": "function"
    },
    {
      "inputs": [
        {
          "internalType": "address",
          "name": "from",
          "type": "address"
        },
        {
          "internalType": "address",
          "name": "to",
          "type": "address"
        },
        {
          "internalType": "uint256",
          "name": "tokenId",
          "type": "uint256"
        }
      ],
      "name": "transferFrom",
      "outputs": [],
      "stateMutability": "nonpayable",
      "type": "function"
    },
    {
      "inputs": [
        {
          "internalType": "uint256",
          "name": "from",
          "type": "uint256"
        },
        {
          "internalType": "uint256",
          "name": "to",
          "type": "uint256"
        },
        {
          "internalType": "uint256",
          "name": "attrId",
          "type": "uint256"
        },
        {
          "internalType": "uint256",
          "name": "amount",
          "type": "uint256"
        }
      ],
      "name": "transferFrom",
      "outputs": [],
      "stateMutability": "nonpayable",
      "type": "function"
    }
  ],
  "bytecode": "0x6101406040523480156200001257600080fd5b5060405162004ceb38038062004ceb8339810160408190526200003591620003f0565b6040518060400160405280600a8152602001692ba2a119a220a7a021a760b11b815250604051806040016040528060038152602001620312e360ec1b8152506040518060400160405280600f81526020016e15d9588cc8111053c810d388139195608a1b81525060405180604001604052806005815260200164574542c2b360d81b81525084620000cc81620001d260201b60201c565b508151620000e29060059060208501906200034a565b508051620000f89060069060208401906200034a565b5050825160208085019190912083518483012060e08290526101008190524660a0818152604080517f8b73c3c69bb8fe3d512ecc4cf759cc79239f7b179b0ffacaa9a75d522b39400f81880181905281830187905260608201869052608082019490945230818401528151808203909301835260c0019052805194019390932091935091906080523060601b60c05261012052506200019f925060009150339050620001eb565b620001cb7f9f2df0fed2c77648de5860a4cc508cd0818c85b8b8a1ab4ceeef8d981c8956a633620001eb565b5062000519565b8051620001e79060009060208401906200034a565b5050565b620001e782826200020882826200023460201b620019221760201c565b6000828152600c602090815260409091206200022f918390620019a8620002d8821b17901c565b505050565b6000828152600b602090815260408083206001600160a01b038516845290915290205460ff16620001e7576000828152600b602090815260408083206001600160a01b03851684529091529020805460ff19166001179055620002943390565b6001600160a01b0316816001600160a01b0316837f2f8788117e7eff1d82e926ec794901d17c78024a50270940304540a733656f0d60405160405180910390a45050565b6000620002ef836001600160a01b038416620002f8565b90505b92915050565b60008181526001830160205260408120546200034157508154600181810184556000848152602080822090930184905584548482528286019093526040902091909155620002f2565b506000620002f2565b8280546200035890620004c6565b90600052602060002090601f0160209004810192826200037c5760008555620003c7565b82601f106200039757805160ff1916838001178555620003c7565b82800160010185558215620003c7579182015b82811115620003c7578251825591602001919060010190620003aa565b50620003d5929150620003d9565b5090565b5b80821115620003d55760008155600101620003da565b6000602080838503121562000403578182fd5b82516001600160401b03808211156200041a578384fd5b818501915085601f8301126200042e578384fd5b81518181111562000443576200044362000503565b604051601f8201601f19908116603f011681019083821181831017156200046e576200046e62000503565b81604052828152888684870101111562000486578687fd5b8693505b82841015620004a957848401860151818501870152928501926200048a565b82841115620004ba57868684830101525b98975050505050505050565b600181811c90821680620004db57607f821691505b60208210811415620004fd57634e487b7160e01b600052602260045260246000fd5b50919050565b634e487b7160e01b600052604160045260246000fd5b60805160a05160c05160601c60e051610100516101205161477f6200056c60003960006130c601526000613115015260006130f001526000613049015260006130730152600061309d015261477f6000f3fe608060405234801561001057600080fd5b50600436106102895760003560e01c80637cba85981161015c578063bd85b039116100ce578063e15fe34f11610087578063e15fe34f146105e4578063e985e9c5146105f7578063ea69963314610633578063f030ba631461065d578063f037745714610670578063f371efa41461068357600080fd5b8063bd85b03914610563578063c87b56dd14610583578063ca15c87314610596578063cd2e2c24146105a9578063d5391393146105bc578063d547741f146105d157600080fd5b806391f7808e1161012057806391f7808e1461050757806395d89b411461051a5780639bc5ae5414610522578063a217fddf14610535578063a22cb4651461053d578063b88d4fde1461055057600080fd5b80637cba8598146104a85780638856f779146104bb5780639010d07c146104ce57806391a2c83c146104e157806391d14854146104f457600080fd5b80632f2ff15d116102005780635d126110116101b95780635d126110146104195780636352211e146104395780636a6278421461044c5780636c06296c1461045f57806370a082311461047257806378cc520d1461048557600080fd5b80632f2ff15d146103a75780632f94e4aa146103ba57806336568abe146103cd57806336cca0be146103e057806342842e0e146103f35780634e41a1fb1461040657600080fd5b806306fdde031161025257806306fdde0314610315578063081812fc1461031d578063095ea7b31461034857806318160ddd1461035b57806323b872dd14610371578063248a9ca31461038457600080fd5b8062ad800c1461028e57806301ffc9a7146102b757806302acc94b146102da57806302fe5305146102ef57806305a1002814610302575b600080fd5b6102a161029c366004613db0565b6106a8565b6040516102ae91906142d8565b60405180910390f35b6102ca6102c5366004613e0b565b6107c5565b60405190151581526020016102ae565b6102ed6102e8366004613fe7565b6107d6565b005b6102ed6102fd366004613e43565b61081a565b6102ed610310366004613fe7565b61085a565b6102a1610899565b61033061032b366004613db0565b61092b565b6040516001600160a01b0390911681526020016102ae565b6102ed610356366004613c62565b6109c0565b610363610ad1565b6040519081526020016102ae565b6102ed61037f366004613b99565b610ae1565b610363610392366004613db0565b6000908152600b602052604090206001015490565b6102ed6103b5366004613dc8565b610b12565b6102ed6103c8366004613c8b565b610b38565b6102ed6103db366004613dc8565b610cf3565b6102ed6103ee366004613f49565b610d71565b6102ed610401366004613b99565b610db9565b6102a1610414366004613db0565b610dd4565b61042c610427366004613e75565b610e6d565b6040516102ae91906142a0565b610330610447366004613db0565b610f59565b6102ed61045a366004613b4d565b610fd0565b6102ed61046d366004614012565b611024565b610363610480366004613b4d565b611061565b6102ca610493366004613db0565b600e6020526000908152604090205460ff1681565b6102ed6104b6366004614012565b6110e8565b6102ed6104c9366004614012565b611125565b6103306104dc366004613dea565b611254565b6102ed6104ef366004613ebe565b611273565b6102ca610502366004613dc8565b6112b2565b6102ed610515366004614043565b6112dd565b6102a16113da565b6102a1610530366004613db0565b6113e9565b610363600081565b6102ed61054b366004613c39565b611586565b6102ed61055e366004613bd4565b611591565b610363610571366004613db0565b60009081526004602052604090205490565b6102a1610591366004613db0565b6115c9565b6103636105a4366004613db0565b611689565b6102ed6105b7366004613ccc565b6116a0565b61036360008051602061472a83398151915281565b6102ed6105df366004613dc8565b61173c565b6103636105f2366004613fe7565b611762565b6102ca610605366004613b67565b6001600160a01b039182166000908152600a6020908152604080832093909416825291909152205460ff1690565b610363610641366004613dea565b6000908152600260209081526040808320938352929052205490565b6102ed61066b366004613ebe565b6117c3565b6102ed61067e366004613f27565b611802565b610696610691366004613db0565b61188f565b60405160ff90911681526020016102ae565b60008181526001602052604090206004015460609060ff166107275760405162461bcd60e51b815260206004820152602d60248201527f455243333636343a206e616d6520717565727920666f72206e6f6e657869737460448201526c656e742061747472696275746560981b60648201526084015b60405180910390fd5b600082815260016020526040902080546107409061466d565b80601f016020809104026020016040519081016040528092919081815260200182805461076c9061466d565b80156107b95780601f1061078e576101008083540402835291602001916107b9565b820191906000526020600020905b81548152906001019060200180831161079c57829003601f168201915b50505050509050919050565b60006107d0826119bd565b92915050565b6107ee60008051602061472a833981519152336112b2565b61080a5760405162461bcd60e51b815260040161071e906144b8565b6108158383836119e2565b505050565b61083260008051602061472a833981519152336112b2565b61084e5760405162461bcd60e51b815260040161071e906144b8565b61085781611b17565b50565b61087260008051602061472a833981519152336112b2565b61088e5760405162461bcd60e51b815260040161071e906144b8565b610815838383611b2a565b6060600580546108a89061466d565b80601f01602080910402602001604051908101604052809291908181526020018280546108d49061466d565b80156109215780601f106108f657610100808354040283529160200191610921565b820191906000526020600020905b81548152906001019060200180831161090457829003601f168201915b5050505050905090565b6000818152600760205260408120546001600160a01b03166109a45760405162461bcd60e51b815260206004820152602c60248201527f4552433732313a20617070726f76656420717565727920666f72206e6f6e657860448201526b34b9ba32b73a103a37b5b2b760a11b606482015260840161071e565b506000908152600960205260409020546001600160a01b031690565b60006109cb82610f59565b9050806001600160a01b0316836001600160a01b03161415610a395760405162461bcd60e51b815260206004820152602160248201527f4552433732313a20617070726f76616c20746f2063757272656e74206f776e656044820152603960f91b606482015260840161071e565b336001600160a01b0382161480610a555750610a558133610605565b610ac75760405162461bcd60e51b815260206004820152603860248201527f4552433732313a20617070726f76652063616c6c6572206973206e6f74206f7760448201527f6e6572206e6f7220617070726f76656420666f7220616c6c0000000000000000606482015260840161071e565b6108158383611c8e565b6000610adc600d5490565b905090565b610aeb3382611cfc565b610b075760405162461bcd60e51b815260040161071e90614467565b610815838383611df3565b6000828152600b6020526040902060010154610b2e8133611f9e565b6108158383612002565b83610b855760405162461bcd60e51b815260206004820181905260248201527f455243333636343a207472616e736665722066726f6d20746865207a65726f20604482015260640161071e565b82610bd25760405162461bcd60e51b815260206004820152601e60248201527f455243333636343a207472616e7366657220746f20746865207a65726f200000604482015260640161071e565b610bef858585858560405180602001604052806000815250612024565b600082815260026020908152604080832087845290915290205481811015610c6a5760405162461bcd60e51b815260206004820152602860248201527f455243333636343a207472616e7366657220616d6f756e7420657863656564736044820152672062616c616e636560c01b606482015260840161071e565b6000838152600260209081526040808320888452909152808220848403905585825281208054849290610c9e908490614553565b90915550506040805184815260208101849052859187916001600160a01b038a16917f73b5fbfbf0177b0de2ffe9fd0ae9887dd73d0d865db7ab5ff3c4a6b9bb8db1e3910160405180910390a4505050505050565b6001600160a01b0381163314610d635760405162461bcd60e51b815260206004820152602f60248201527f416363657373436f6e74726f6c3a2063616e206f6e6c792072656e6f756e636560448201526e103937b632b9903337b91039b2b63360891b606482015260840161071e565b610d6d82826120b4565b5050565b610d8960008051602061472a833981519152336112b2565b610da55760405162461bcd60e51b815260040161071e906144b8565b610db285858585856120d6565b5050505050565b61081583838360405180602001604052806000815250611591565b60008181526001602052604090206004015460609060ff16610e505760405162461bcd60e51b815260206004820152602f60248201527f455243333636343a2073796d626f6c20717565727920666f72206e6f6e65786960448201526e7374656e742061747472696275746560881b606482015260840161071e565b60008281526001602081905260409091200180546107409061466d565b60606000826001600160401b03811115610e9757634e487b7160e01b600052604160045260246000fd5b604051908082528060200260200182016040528015610ec0578160200160208202803683370190505b50905060005b83811015610f5057610f1586868684818110610ef257634e487b7160e01b600052603260045260246000fd5b905060200201356000908152600260209081526040808320938352929052205490565b828281518110610f3557634e487b7160e01b600052603260045260246000fd5b6020908102919091010152610f49816146a2565b9050610ec6565b50949350505050565b6000818152600760205260408120546001600160a01b0316806107d05760405162461bcd60e51b815260206004820152602960248201527f4552433732313a206f776e657220717565727920666f72206e6f6e657869737460448201526832b73a103a37b5b2b760b91b606482015260840161071e565b610fe860008051602061472a833981519152336112b2565b6110045760405162461bcd60e51b815260040161071e906144b8565b611012600d80546001019055565b6108578161101f600d5490565b612243565b833361102f82610f59565b6001600160a01b0316146110555760405162461bcd60e51b815260040161071e90614420565b610db28585858561225d565b60006001600160a01b0382166110cc5760405162461bcd60e51b815260206004820152602a60248201527f4552433732313a2062616c616e636520717565727920666f7220746865207a65604482015269726f206164647265737360b01b606482015260840161071e565b506001600160a01b031660009081526008602052604090205490565b83336110f382610f59565b6001600160a01b0316146111195760405162461bcd60e51b815260040161071e90614420565b610db285858585612269565b336111338186868686610b38565b6000600360008588604051602001611155929190918252602082015260400190565b6040516020818303038152906040528051906020012081526020019081526020016000206000868152602001908152602001600020549050828110156111f05760405162461bcd60e51b815260206004820152602a60248201527f455243333636343a207472616e7366657220616d6f756e74206578636565647360448201526920616c6c6f77616e636560b01b606482015260840161071e565b828103600360008689604051602001611213929190918252602082015260400190565b604051602081830303815290604052805190602001208152602001908152602001600020600087815260200190815260200160002081905550505050505050565b6000828152600c6020526040812061126c9083612277565b9392505050565b61128b60008051602061472a833981519152336112b2565b6112a75760405162461bcd60e51b815260040161071e906144b8565b610815838383612283565b6000918252600b602090815260408084206001600160a01b0393909316845291905290205460ff1690565b604080517f7b2480524df4991b0b62b0d7e3b8464b30ee5b56692c328502590389d75b37f76020820152908101869052606081018590526080810184905260a0810183905260009060c001604051602081830303815290604052805190602001209050600061134b82612500565b90506000611359828561254e565b9050806001600160a01b031661136e89610f59565b6001600160a01b0316146113c45760405162461bcd60e51b815260206004820152601960248201527f5065726d69743a20696e76616c6964207369676e617475726500000000000000604482015260640161071e565b6113d088888888612572565b5050505050505050565b6060600680546108a89061466d565b60008181526001602052604090206004015460609060ff166114625760405162461bcd60e51b815260206004820152602c60248201527f455243333636343a2055524920717565727920666f72206e6f6e65786973746560448201526b6e742061747472696275746560a01b606482015260840161071e565b6000828152600160205260408120600301805461147e9061466d565b80601f01602080910402602001604051908101604052809291908181526020018280546114aa9061466d565b80156114f75780601f106114cc576101008083540402835291602001916114f7565b820191906000526020600020905b8154815290600101906020018083116114da57829003601f168201915b5050505050905060008151111561153a5780611512846126ae565b604051602001611523929190614119565b604051602081830303815290604052915050919050565b60008080546115489061466d565b905011611564576040518060200160405280600081525061126c565b600061156f846126ae565b604051602001611523929190614148565b50919050565b610d6d3383836127c7565b61159b3383611cfc565b6115b75760405162461bcd60e51b815260040161071e90614467565b6115c384848484612896565b50505050565b6000818152600760205260409020546060906001600160a01b03166116485760405162461bcd60e51b815260206004820152602f60248201527f4552433732314d657461646174613a2055524920717565727920666f72206e6f60448201526e3732bc34b9ba32b73a103a37b5b2b760891b606482015260840161071e565b600061165f60408051602081019091526000815290565b9050600081511161167f576040518060200160405280600081525061126c565b80611512846126ae565b6000818152600c602052604081206107d0906128c9565b6116b860008051602061472a833981519152336112b2565b6116d45760405162461bcd60e51b815260040161071e906144b8565b61173189898080602002602001604051908101604052809392919081815260200183836020028082843760009201919091525061171792508a91508b90506145b5565b61172187896145b5565b8661172c86886145b5565b6128d3565b505050505050505050565b6000828152600b60205260409020600101546117588133611f9e565b61081583836120b4565b6000600360008386604051602001611784929190918252602082015260400190565b60405160208183030381529060405280519060200120815260200190815260200160002060008481526020019081526020016000205490509392505050565b6117db60008051602061472a833981519152336112b2565b6117f75760405162461bcd60e51b815260040161071e906144b8565b610815838383612aec565b61181a60008051602061472a833981519152336112b2565b6118365760405162461bcd60e51b815260040161071e906144b8565b6000828152600e6020908152604091829020805460ff19168415159081179091558251858152918201527ffd52edd8c6dd48138bc80a665216a16ba2beb45a076f16a0ecf317ef3cd0499e910160405180910390a15050565b60008181526001602052604081206004015460ff166119095760405162461bcd60e51b815260206004820152603060248201527f455243333636343a20646563696d616c20717565727920666f72206e6f6e657860448201526f697374656e742061747472696275746560801b606482015260840161071e565b5060009081526001602052604090206002015460ff1690565b61192c82826112b2565b610d6d576000828152600b602090815260408083206001600160a01b03851684529091529020805460ff191660011790556119643390565b6001600160a01b0316816001600160a01b0316837f2f8788117e7eff1d82e926ec794901d17c78024a50270940304540a733656f0d60405160405180910390a45050565b600061126c836001600160a01b038416612c92565b60006001600160e01b03198216635a05180f60e01b14806107d057506107d082612ce1565b60008281526001602052604090206004015460ff16611a535760405162461bcd60e51b815260206004820152602760248201527f455243333636343a206d696e7420666f72206e6f6e6578697374656e742061746044820152667472696275746560c81b606482015260840161071e565b6000339050611a7681600086868660405180602001604052806000815250612024565b60008381526004602052604081208054849290611a94908490614553565b9091555050600083815260026020908152604080832087845290915281208054849290611ac2908490614553565b9091555050604080518481526020810184905285916000916001600160a01b038516917f73b5fbfbf0177b0de2ffe9fd0ae9887dd73d0d865db7ab5ff3c4a6b9bb8db1e391015b60405180910390a450505050565b8051610d6d9060009060208401906138f8565b60008281526001602052604090206004015460ff16611b9b5760405162461bcd60e51b815260206004820152602760248201527f455243333636343a206275726e20666f72206e6f6e6578697374656e742061746044820152667472696275746560c81b606482015260840161071e565b6000339050611bbe81856000868660405180602001604052806000815250612024565b600083815260026020908152604080832087845290915290205482811015611bf85760405162461bcd60e51b815260040161071e90614338565b611c02838261459e565b6000858152600260209081526040808320898452825280832093909355868252600490529081208054859290611c3990849061459e565b9091555050604080518581526020810185905260009187916001600160a01b038616917f73b5fbfbf0177b0de2ffe9fd0ae9887dd73d0d865db7ab5ff3c4a6b9bb8db1e3910160405180910390a45050505050565b600081815260096020526040902080546001600160a01b0319166001600160a01b0384169081179091558190611cc382610f59565b6001600160a01b03167f8c5be1e5ebec7d5bd14f71427d1e84f3dd0314c0f7b2291e5b200ac8c7c3b92560405160405180910390a45050565b6000818152600760205260408120546001600160a01b0316611d755760405162461bcd60e51b815260206004820152602c60248201527f4552433732313a206f70657261746f7220717565727920666f72206e6f6e657860448201526b34b9ba32b73a103a37b5b2b760a11b606482015260840161071e565b6000611d8083610f59565b9050806001600160a01b0316846001600160a01b03161480611dbb5750836001600160a01b0316611db08461092b565b6001600160a01b0316145b80611deb57506001600160a01b038082166000908152600a602090815260408083209388168352929052205460ff165b949350505050565b826001600160a01b0316611e0682610f59565b6001600160a01b031614611e6e5760405162461bcd60e51b815260206004820152602960248201527f4552433732313a207472616e73666572206f6620746f6b656e2074686174206960448201526839903737ba1037bbb760b91b606482015260840161071e565b6001600160a01b038216611ed05760405162461bcd60e51b8152602060048201526024808201527f4552433732313a207472616e7366657220746f20746865207a65726f206164646044820152637265737360e01b606482015260840161071e565b611edb838383612d06565b611ee6600082611c8e565b6001600160a01b0383166000908152600860205260408120805460019290611f0f90849061459e565b90915550506001600160a01b0382166000908152600860205260408120805460019290611f3d908490614553565b909155505060008181526007602052604080822080546001600160a01b0319166001600160a01b0386811691821790925591518493918716917fddf252ad1be2c89b69c2b068fc378daa952ba7f163c4a11628f55a4df523b3ef91a4505050565b611fa882826112b2565b610d6d57611fc0816001600160a01b03166014612d74565b611fcb836020612d74565b604051602001611fdc9291906141ee565b60408051601f198184030181529082905262461bcd60e51b825261071e916004016142d8565b61200c8282611922565b6000828152600c6020526040902061081590826119a8565b61203c60008051602061472a833981519152876112b2565b8061205557506000838152600e602052604090205460ff165b6120ac5760405162461bcd60e51b815260206004820152602260248201527f5765623344414f434e3a2041747472207472616e73666572206e6f7420616c6c6044820152616f7760f01b606482015260840161071e565b505050505050565b6120be8282612f55565b6000828152600c602052604090206108159082612fbc565b60008581526001602052604090206004015460ff16156121425760405162461bcd60e51b815260206004820152602160248201527f455243333636343a2061747472696275746520616c72656164792065786973746044820152607360f81b606482015260840161071e565b6040805160a081018252858152602080820186905260ff85168284015260608201849052600160808301819052600089815290825292909220815180519293849361219092849201906138f8565b5060208281015180516121a992600185019201906138f8565b50604082015160028201805460ff191660ff909216919091179055606082015180516121df9160038401916020909101906138f8565b50608091909101516004909101805460ff191691151591909117905560405186907f98fe0a4bf3a5354178c124c36fe2ec9f103adaba8905e75f72cb6900c6f94986906122339088908890889088906142eb565b60405180910390a2505050505050565b610d6d828260405180602001604052806000815250612fd1565b6115c384848484612572565b33610db28186868686610b38565b600061126c8383613004565b80518251146122a45760405162461bcd60e51b815260040161071e90614382565b3360005b83518110156124c15761231d828660008785815181106122d857634e487b7160e01b600052603260045260246000fd5b602002602001015187868151811061230057634e487b7160e01b600052603260045260246000fd5b602002602001015160405180602001604052806000815250612024565b60006002600086848151811061234357634e487b7160e01b600052603260045260246000fd5b60200260200101518152602001908152602001600020600087815260200190815260200160002054905083828151811061238d57634e487b7160e01b600052603260045260246000fd5b60200260200101518110156123b45760405162461bcd60e51b815260040161071e90614338565b8382815181106123d457634e487b7160e01b600052603260045260246000fd5b6020026020010151816123e7919061459e565b6002600087858151811061240b57634e487b7160e01b600052603260045260246000fd5b6020026020010151815260200190815260200160002060008881526020019081526020016000208190555083828151811061245657634e487b7160e01b600052603260045260246000fd5b60200260200101516004600087858151811061248257634e487b7160e01b600052603260045260246000fd5b6020026020010151815260200190815260200160002060008282546124a7919061459e565b909155508291506124b99050816146a2565b9150506122a8565b50600084826001600160a01b03167fbfb4d8e5891aebe97980c97616b6b0af2006a58ccabe6e1b7e3da24d0906a8568686604051611b099291906142b3565b60006107d061250d61303c565b8360405161190160f01b6020820152602281018390526042810182905260009060620160405160208183030381529060405280519060200120905092915050565b600080600061255d8585613163565b9150915061256a816131d3565b509392505050565b836125bf5760405162461bcd60e51b815260206004820152601f60248201527f455243333636343a20617070726f76652066726f6d20746865207a65726f2000604482015260640161071e565b8261260c5760405162461bcd60e51b815260206004820152601d60248201527f455243333636343a20617070726f766520746f20746865207a65726f20000000604482015260640161071e565b8060036000848760405160200161262d929190918252602082015260400190565b60408051601f19818403018152918152815160209283012083528282019390935290820160009081208782528252829020929092558051868152918201859052818101849052606082018390525133917f4f3267cf1b4f4eda70a80ac65e00830cf370b07c616b8e687c172b69bb15a190919081900360800190a250505050565b6060816126d25750506040805180820190915260018152600360fc1b602082015290565b8160005b81156126fc57806126e6816146a2565b91506126f59050600a8361456b565b91506126d6565b6000816001600160401b0381111561272457634e487b7160e01b600052604160045260246000fd5b6040519080825280601f01601f19166020018201604052801561274e576020820181803683370190505b5090505b8415611deb5761276360018361459e565b9150612770600a866146bd565b61277b906030614553565b60f81b81838151811061279e57634e487b7160e01b600052603260045260246000fd5b60200101906001600160f81b031916908160001a9053506127c0600a8661456b565b9450612752565b816001600160a01b0316836001600160a01b031614156128295760405162461bcd60e51b815260206004820152601960248201527f4552433732313a20617070726f766520746f2063616c6c657200000000000000604482015260640161071e565b6001600160a01b038381166000818152600a6020908152604080832094871680845294825291829020805460ff191686151590811790915591519182527f17307eab39ab6107e8899845ad3d59bd9653f200f220920489ca2b5937696c31910160405180910390a3505050565b6128a1848484611df3565b6128ad848484846133d4565b6115c35760405162461bcd60e51b815260040161071e906143ce565b60006107d0825490565b83518551146129375760405162461bcd60e51b815260206004820152602a60248201527f455243333636343a206174747249647320616e64206e616d6573206c656e67746044820152690d040dad2e6dac2e8c6d60b31b606482015260840161071e565b825184511461299b5760405162461bcd60e51b815260206004820152602a60248201527f455243333636343a206e616d657320616e642073796d626f6c73206c656e67746044820152690d040dad2e6dac2e8c6d60b31b606482015260840161071e565b80518351146129fe5760405162461bcd60e51b815260206004820152602960248201527f455243333636343a2073796d626f6c7320616e642075726973206c656e677468604482015268040dad2e6dac2e8c6d60bb1b606482015260840161071e565b60005b85518110156120ac57612ada868281518110612a2d57634e487b7160e01b600052603260045260246000fd5b6020026020010151868381518110612a5557634e487b7160e01b600052603260045260246000fd5b6020026020010151868481518110612a7d57634e487b7160e01b600052603260045260246000fd5b6020026020010151868581518110612aa557634e487b7160e01b600052603260045260246000fd5b6020026020010151868681518110612acd57634e487b7160e01b600052603260045260246000fd5b60200260200101516120d6565b80612ae4816146a2565b915050612a01565b8051825114612b0d5760405162461bcd60e51b815260040161071e90614382565b3360005b8351811015612c5357612b41828660008785815181106122d857634e487b7160e01b600052603260045260246000fd5b828181518110612b6157634e487b7160e01b600052603260045260246000fd5b602002602001015160046000868481518110612b8d57634e487b7160e01b600052603260045260246000fd5b602002602001015181526020019081526020016000206000828254612bb29190614553565b92505081905550828181518110612bd957634e487b7160e01b600052603260045260246000fd5b602002602001015160026000868481518110612c0557634e487b7160e01b600052603260045260246000fd5b6020026020010151815260200190815260200160002060008781526020019081526020016000206000828254612c3b9190614553565b90915550819050612c4b816146a2565b915050612b11565b50836000826001600160a01b03167fbfb4d8e5891aebe97980c97616b6b0af2006a58ccabe6e1b7e3da24d0906a8568686604051611b099291906142b3565b6000818152600183016020526040812054612cd9575081546001818101845560008481526020808220909301849055845484825282860190935260409020919091556107d0565b5060006107d0565b60006001600160e01b03198216637965db0b60e01b14806107d057506107d0826134e1565b612d0f82611061565b156108155760405162461bcd60e51b815260206004820152602f60248201527f5765623344414f434e3a204561636820616464726573732063616e206f6e6c7960448201526e103430bb329037b732902a37b5b2b760891b606482015260840161071e565b60606000612d8383600261457f565b612d8e906002614553565b6001600160401b03811115612db357634e487b7160e01b600052604160045260246000fd5b6040519080825280601f01601f191660200182016040528015612ddd576020820181803683370190505b509050600360fc1b81600081518110612e0657634e487b7160e01b600052603260045260246000fd5b60200101906001600160f81b031916908160001a905350600f60fb1b81600181518110612e4357634e487b7160e01b600052603260045260246000fd5b60200101906001600160f81b031916908160001a9053506000612e6784600261457f565b612e72906001614553565b90505b6001811115612f06576f181899199a1a9b1b9c1cb0b131b232b360811b85600f1660108110612eb457634e487b7160e01b600052603260045260246000fd5b1a60f81b828281518110612ed857634e487b7160e01b600052603260045260246000fd5b60200101906001600160f81b031916908160001a90535060049490941c93612eff81614656565b9050612e75565b50831561126c5760405162461bcd60e51b815260206004820181905260248201527f537472696e67733a20686578206c656e67746820696e73756666696369656e74604482015260640161071e565b612f5f82826112b2565b15610d6d576000828152600b602090815260408083206001600160a01b0385168085529252808320805460ff1916905551339285917ff6391f5c32d9c69d2a47ea670b442974b53935d1edc7fd64eb21e047a839171b9190a45050565b600061126c836001600160a01b038416613521565b612fdb838361363e565b612fe860008484846133d4565b6108155760405162461bcd60e51b815260040161071e906143ce565b600082600001828154811061302957634e487b7160e01b600052603260045260246000fd5b9060005260206000200154905092915050565b6000306001600160a01b037f00000000000000000000000000000000000000000000000000000000000000001614801561309557507f000000000000000000000000000000000000000000000000000000000000000046145b156130bf57507f000000000000000000000000000000000000000000000000000000000000000090565b50604080517f00000000000000000000000000000000000000000000000000000000000000006020808301919091527f0000000000000000000000000000000000000000000000000000000000000000828401527f000000000000000000000000000000000000000000000000000000000000000060608301524660808301523060a0808401919091528351808403909101815260c0909201909252805191012090565b60008082516041141561319a5760208301516040840151606085015160001a61318e8782858561378c565b945094505050506131cc565b8251604014156131c457602083015160408401516131b9868383613879565b9350935050506131cc565b506000905060025b9250929050565b60008160048111156131f557634e487b7160e01b600052602160045260246000fd5b14156131fe5750565b600181600481111561322057634e487b7160e01b600052602160045260246000fd5b141561326e5760405162461bcd60e51b815260206004820152601860248201527f45434453413a20696e76616c6964207369676e61747572650000000000000000604482015260640161071e565b600281600481111561329057634e487b7160e01b600052602160045260246000fd5b14156132de5760405162461bcd60e51b815260206004820152601f60248201527f45434453413a20696e76616c6964207369676e6174757265206c656e67746800604482015260640161071e565b600381600481111561330057634e487b7160e01b600052602160045260246000fd5b14156133595760405162461bcd60e51b815260206004820152602260248201527f45434453413a20696e76616c6964207369676e6174757265202773272076616c604482015261756560f01b606482015260840161071e565b600481600481111561337b57634e487b7160e01b600052602160045260246000fd5b14156108575760405162461bcd60e51b815260206004820152602260248201527f45434453413a20696e76616c6964207369676e6174757265202776272076616c604482015261756560f01b606482015260840161071e565b60006001600160a01b0384163b156134d657604051630a85bd0160e11b81526001600160a01b0385169063150b7a0290613418903390899088908890600401614263565b602060405180830381600087803b15801561343257600080fd5b505af1925050508015613462575060408051601f3d908101601f1916820190925261345f91810190613e27565b60015b6134bc573d808015613490576040519150601f19603f3d011682016040523d82523d6000602084013e613495565b606091505b5080516134b45760405162461bcd60e51b815260040161071e906143ce565b805181602001fd5b6001600160e01b031916630a85bd0160e11b149050611deb565b506001949350505050565b60006001600160e01b031982166380ac58cd60e01b148061351257506001600160e01b03198216635b5e139f60e01b145b806107d057506107d0826138a8565b6000818152600183016020526040812054801561363457600061354560018361459e565b85549091506000906135599060019061459e565b90508181146135da57600086600001828154811061358757634e487b7160e01b600052603260045260246000fd5b90600052602060002001549050808760000184815481106135b857634e487b7160e01b600052603260045260246000fd5b6000918252602080832090910192909255918252600188019052604090208390555b85548690806135f957634e487b7160e01b600052603160045260246000fd5b6001900381819060005260206000200160009055905585600101600086815260200190815260200160002060009055600193505050506107d0565b60009150506107d0565b6001600160a01b0382166136945760405162461bcd60e51b815260206004820181905260248201527f4552433732313a206d696e7420746f20746865207a65726f2061646472657373604482015260640161071e565b6000818152600760205260409020546001600160a01b0316156136f95760405162461bcd60e51b815260206004820152601c60248201527f4552433732313a20746f6b656e20616c7265616479206d696e74656400000000604482015260640161071e565b61370560008383612d06565b6001600160a01b038216600090815260086020526040812080546001929061372e908490614553565b909155505060008181526007602052604080822080546001600160a01b0319166001600160a01b03861690811790915590518392907fddf252ad1be2c89b69c2b068fc378daa952ba7f163c4a11628f55a4df523b3ef908290a45050565b6000807f7fffffffffffffffffffffffffffffff5d576e7357a4501ddfe92f46681b20a08311156137c35750600090506003613870565b8460ff16601b141580156137db57508460ff16601c14155b156137ec5750600090506004613870565b6040805160008082526020820180845289905260ff881692820192909252606081018690526080810185905260019060a0016020604051602081039080840390855afa158015613840573d6000803e3d6000fd5b5050604051601f1901519150506001600160a01b03811661386957600060019250925050613870565b9150600090505b94509492505050565b6000806001600160ff1b03831660ff84901c601b0161389a8782888561378c565b935093505050935093915050565b60006001600160e01b03198216630e697ffb60e31b14806138d957506001600160e01b03198216632658600760e01b145b806107d057506301ffc9a760e01b6001600160e01b03198316146107d0565b8280546139049061466d565b90600052602060002090601f016020900481019282613926576000855561396c565b82601f1061393f57805160ff191683800117855561396c565b8280016001018555821561396c579182015b8281111561396c578251825591602001919060010190613951565b5061397892915061397c565b5090565b5b80821115613978576000815560010161397d565b80356001600160a01b03811681146139a857600080fd5b919050565b60008083601f8401126139be578182fd5b5081356001600160401b038111156139d4578182fd5b6020830191508360208260051b85010111156131cc57600080fd5b600082601f8301126139ff578081fd5b81356020613a14613a0f83614530565b614500565b80838252828201915082860187848660051b8901011115613a33578586fd5b855b85811015613a5157813584529284019290840190600101613a35565b5090979650505050505050565b600082601f830112613a6e578081fd5b81356020613a7e613a0f83614530565b80838252828201915082860187848660051b8901011115613a9d578586fd5b855b85811015613a5157613ab082613b3c565b84529284019290840190600101613a9f565b803580151581146139a857600080fd5b600082601f830112613ae2578081fd5b81356001600160401b03811115613afb57613afb6146fd565b613b0e601f8201601f1916602001614500565b818152846020838601011115613b22578283fd5b816020850160208301379081016020019190915292915050565b803560ff811681146139a857600080fd5b600060208284031215613b5e578081fd5b61126c82613991565b60008060408385031215613b79578081fd5b613b8283613991565b9150613b9060208401613991565b90509250929050565b600080600060608486031215613bad578081fd5b613bb684613991565b9250613bc460208501613991565b9150604084013590509250925092565b60008060008060808587031215613be9578081fd5b613bf285613991565b9350613c0060208601613991565b92506040850135915060608501356001600160401b03811115613c21578182fd5b613c2d87828801613ad2565b91505092959194509250565b60008060408385031215613c4b578182fd5b613c5483613991565b9150613b9060208401613ac2565b60008060408385031215613c74578182fd5b613c7d83613991565b946020939093013593505050565b600080600080600060a08688031215613ca2578283fd5b613cab86613991565b97602087013597506040870135966060810135965060800135945092505050565b600080600080600080600080600060a08a8c031215613ce9578687fd5b89356001600160401b0380821115613cff578889fd5b613d0b8d838e016139ad565b909b50995060208c0135915080821115613d23578889fd5b613d2f8d838e016139ad565b909950975060408c0135915080821115613d47578586fd5b613d538d838e016139ad565b909750955060608c0135915080821115613d6b578485fd5b613d778d838e01613a5e565b945060808c0135915080821115613d8c578384fd5b50613d998c828d016139ad565b915080935050809150509295985092959850929598565b600060208284031215613dc1578081fd5b5035919050565b60008060408385031215613dda578182fd5b82359150613b9060208401613991565b60008060408385031215613dfc578182fd5b50508035926020909101359150565b600060208284031215613e1c578081fd5b813561126c81614713565b600060208284031215613e38578081fd5b815161126c81614713565b600060208284031215613e54578081fd5b81356001600160401b03811115613e69578182fd5b611deb84828501613ad2565b600080600060408486031215613e89578081fd5b8335925060208401356001600160401b03811115613ea5578182fd5b613eb1868287016139ad565b9497909650939450505050565b600080600060608486031215613ed2578081fd5b8335925060208401356001600160401b0380821115613eef578283fd5b613efb878388016139ef565b93506040860135915080821115613f10578283fd5b50613f1d868287016139ef565b9150509250925092565b60008060408385031215613f39578182fd5b82359150613b9060208401613ac2565b600080600080600060a08688031215613f60578283fd5b8535945060208601356001600160401b0380821115613f7d578485fd5b613f8989838a01613ad2565b95506040880135915080821115613f9e578485fd5b613faa89838a01613ad2565b9450613fb860608901613b3c565b93506080880135915080821115613fcd578283fd5b50613fda88828901613ad2565b9150509295509295909350565b600080600060608486031215613ffb578081fd5b505081359360208301359350604090920135919050565b60008060008060808587031215614027578182fd5b5050823594602084013594506040840135936060013592509050565b600080600080600060a0868803121561405a578283fd5b8535945060208601359350604086013592506060860135915060808601356001600160401b0381111561408b578182fd5b613fda88828901613ad2565b6000815180845260208085019450808401835b838110156140c6578151875295820195908201906001016140aa565b509495945050505050565b600081518084526140e981602086016020860161462a565b601f01601f19169290920160200192915050565b6000815161410f81856020860161462a565b9290920192915050565b6000835161412b81846020880161462a565b83519083019061413f81836020880161462a565b01949350505050565b600080845482600182811c91508083168061416457607f831692505b602080841082141561418457634e487b7160e01b87526022600452602487fd5b81801561419857600181146141a9576141d5565b60ff198616895284890196506141d5565b60008b815260209020885b868110156141cd5781548b8201529085019083016141b4565b505084890196505b5050505050506141e581856140fd565b95945050505050565b7f416363657373436f6e74726f6c3a206163636f756e742000000000000000000081526000835161422681601785016020880161462a565b7001034b99036b4b9b9b4b733903937b6329607d1b601791840191820152835161425781602884016020880161462a565b01602801949350505050565b6001600160a01b0385811682528416602082015260408101839052608060608201819052600090614296908301846140d1565b9695505050505050565b60208152600061126c6020830184614097565b6040815260006142c66040830185614097565b82810360208401526141e58185614097565b60208152600061126c60208301846140d1565b6080815260006142fe60808301876140d1565b828103602084015261431081876140d1565b905060ff85166040840152828103606084015261432d81856140d1565b979650505050505050565b6020808252602a908201527f455243333636343a20696e73756666696369656e742062616c616e636520666f60408201526939103a3930b739b332b960b11b606082015260800190565b6020808252602c908201527f455243333636343a206174747249647320616e6420616d6f756e7473206c656e60408201526b0cee8d040dad2e6dac2e8c6d60a31b606082015260800190565b60208082526032908201527f4552433732313a207472616e7366657220746f206e6f6e20455243373231526560408201527131b2b4bb32b91034b6b83632b6b2b73a32b960711b606082015260800190565b60208082526027908201527f5765623344414f434e3a2063616c6c6572206973206e6f7420746865206e6674604082015266103437b63232b960c91b606082015260800190565b60208082526031908201527f4552433732313a207472616e736665722063616c6c6572206973206e6f74206f6040820152701ddb995c881b9bdc88185c1c1c9bdd9959607a1b606082015260800190565b60208082526028908201527f5765623344414f434e3a206d7573742068617665206d696e74657220726f6c65604082015267081d1bc81b5a5b9d60c21b606082015260800190565b604051601f8201601f191681016001600160401b0381118282101715614528576145286146fd565b604052919050565b60006001600160401b03821115614549576145496146fd565b5060051b60200190565b60008219821115614566576145666146d1565b500190565b60008261457a5761457a6146e7565b500490565b6000816000190483118215151615614599576145996146d1565b500290565b6000828210156145b0576145b06146d1565b500390565b60006145c3613a0f84614530565b808482526020808301925084368760051b870111156145e0578485fd5b845b8781101561461e5781356001600160401b038111156145ff578687fd5b61460b36828a01613ad2565b86525093820193908201906001016145e2565b50919695505050505050565b60005b8381101561464557818101518382015260200161462d565b838111156115c35750506000910152565b600081614665576146656146d1565b506000190190565b600181811c9082168061468157607f821691505b6020821081141561158057634e487b7160e01b600052602260045260246000fd5b60006000198214156146b6576146b66146d1565b5060010190565b6000826146cc576146cc6146e7565b500690565b634e487b7160e01b600052601160045260246000fd5b634e487b7160e01b600052601260045260246000fd5b634e487b7160e01b600052604160045260246000fd5b6001600160e01b03198116811461085757600080fdfe9f2df0fed2c77648de5860a4cc508cd0818c85b8b8a1ab4ceeef8d981c8956a6a2646970667358221220ce277fda31764b2dc6dc570d4ea78086e178b6c3661454e9634a387767e9964864736f6c63430008040033",
  "linkReferences": {},
  "deployedLinkReferences": {}
}