{
  "_format": "hh-sol-artifact-1",
  "contractName": "Web3DAOCN",
  "sourceName": "contracts/Web3DAOCN.sol",
  "abi": [
    {
      "inputs": [
        {
          "internalType": "string",
          "name": "uri_",
          "type": "string"
        }
      ],
      "stateMutability": "nonpayable",
      "type": "constructor"
    },
    {
      "anonymous": false,
      "inputs": [
        {
          "indexed": true,
          "internalType": "address",
          "name": "owner",
          "type": "address"
        },
        {
          "indexed": true,
          "internalType": "address",
          "name": "approved",
          "type": "address"
        },
        {
          "indexed": true,
          "internalType": "uint256",
          "name": "tokenId",
          "type": "uint256"
        }
      ],
      "name": "Approval",
      "type": "event"
    },
    {
      "anonymous": false,
      "inputs": [
        {
          "indexed": true,
          "internalType": "address",
          "name": "owner",
          "type": "address"
        },
        {
          "indexed": true,
          "internalType": "address",
          "name": "operator",
          "type": "address"
        },
        {
          "indexed": false,
          "internalType": "bool",
          "name": "approved",
          "type": "bool"
        }
      ],
      "name": "ApprovalForAll",
      "type": "event"
    },
    {
      "anonymous": false,
      "inputs": [
        {
          "indexed": false,
          "internalType": "uint256",
          "name": "attrId",
          "type": "uint256"
        },
        {
          "indexed": false,
          "internalType": "bool",
          "name": "allow",
          "type": "bool"
        }
      ],
      "name": "AttrTransferAllow",
      "type": "event"
    },
    {
      "anonymous": false,
      "inputs": [
        {
          "indexed": true,
          "internalType": "address",
          "name": "operator",
          "type": "address"
        },
        {
          "indexed": false,
          "internalType": "uint256",
          "name": "from",
          "type": "uint256"
        },
        {
          "indexed": false,
          "internalType": "uint256",
          "name": "to",
          "type": "uint256"
        },
        {
          "indexed": false,
          "internalType": "uint256",
          "name": "attrId",
          "type": "uint256"
        },
        {
          "indexed": false,
          "internalType": "uint256",
          "name": "amount",
          "type": "uint256"
        }
      ],
      "name": "AttributeApproval",
      "type": "event"
    },
    {
      "anonymous": false,
      "inputs": [
        {
          "indexed": true,
          "internalType": "uint256",
          "name": "attrId",
          "type": "uint256"
        },
        {
          "indexed": false,
          "internalType": "string",
          "name": "name",
          "type": "string"
        },
        {
          "indexed": false,
          "internalType": "string",
          "name": "symbol",
          "type": "string"
        },
        {
          "indexed": false,
          "internalType": "uint8",
          "name": "_decimal",
          "type": "uint8"
        },
        {
          "indexed": false,
          "internalType": "string",
          "name": "uri",
          "type": "string"
        }
      ],
      "name": "AttributeCreated",
      "type": "event"
    },
    {
      "anonymous": false,
      "inputs": [
        {
          "indexed": true,
          "internalType": "bytes32",
          "name": "role",
          "type": "bytes32"
        },
        {
          "indexed": true,
          "internalType": "bytes32",
          "name": "previousAdminRole",
          "type": "bytes32"
        },
        {
          "indexed": true,
          "internalType": "bytes32",
          "name": "newAdminRole",
          "type": "bytes32"
        }
      ],
      "name": "RoleAdminChanged",
      "type": "event"
    },
    {
      "anonymous": false,
      "inputs": [
        {
          "indexed": true,
          "internalType": "bytes32",
          "name": "role",
          "type": "bytes32"
        },
        {
          "indexed": true,
          "internalType": "address",
          "name": "account",
          "type": "address"
        },
        {
          "indexed": true,
          "internalType": "address",
          "name": "sender",
          "type": "address"
        }
      ],
      "name": "RoleGranted",
      "type": "event"
    },
    {
      "anonymous": false,
      "inputs": [
        {
          "indexed": true,
          "internalType": "bytes32",
          "name": "role",
          "type": "bytes32"
        },
        {
          "indexed": true,
          "internalType": "address",
          "name": "account",
          "type": "address"
        },
        {
          "indexed": true,
          "internalType": "address",
          "name": "sender",
          "type": "address"
        }
      ],
      "name": "RoleRevoked",
      "type": "event"
    },
    {
      "anonymous": false,
      "inputs": [
        {
          "indexed": true,
          "internalType": "address",
          "name": "from",
          "type": "address"
        },
        {
          "indexed": true,
          "internalType": "address",
          "name": "to",
          "type": "address"
        },
        {
          "indexed": true,
          "internalType": "uint256",
          "name": "tokenId",
          "type": "uint256"
        }
      ],
      "name": "Transfer",
      "type": "event"
    },
    {
      "anonymous": false,
      "inputs": [
        {
          "indexed": true,
          "internalType": "address",
          "name": "operator",
          "type": "address"
        },
        {
          "indexed": true,
          "internalType": "uint256",
          "name": "from",
          "type": "uint256"
        },
        {
          "indexed": true,
          "internalType": "uint256",
          "name": "to",
          "type": "uint256"
        },
        {
          "indexed": false,
          "internalType": "uint256[]",
          "name": "attrIds",
          "type": "uint256[]"
        },
        {
          "indexed": false,
          "internalType": "uint256[]",
          "name": "values",
          "type": "uint256[]"
        }
      ],
      "name": "TransferBatch",
      "type": "event"
    },
    {
      "anonymous": false,
      "inputs": [
        {
          "indexed": true,
          "internalType": "address",
          "name": "operator",
          "type": "address"
        },
        {
          "indexed": true,
          "internalType": "uint256",
          "name": "from",
          "type": "uint256"
        },
        {
          "indexed": true,
          "internalType": "uint256",
          "name": "to",
          "type": "uint256"
        },
        {
          "indexed": false,
          "internalType": "uint256",
          "name": "attrId",
          "type": "uint256"
        },
        {
          "indexed": false,
          "internalType": "uint256",
          "name": "value",
          "type": "uint256"
        }
      ],
      "name": "TransferSingle",
      "type": "event"
    },
    {
      "inputs": [],
      "name": "DEFAULT_ADMIN_ROLE",
      "outputs": [
        {
          "internalType": "bytes32",
          "name": "",
          "type": "bytes32"
        }
      ],
      "stateMutability": "view",
      "type": "function"
    },
    {
      "inputs": [],
      "name": "MINTER_ROLE",
      "outputs": [
        {
          "internalType": "bytes32",
          "name": "",
          "type": "bytes32"
        }
      ],
      "stateMutability": "view",
      "type": "function"
    },
    {
      "inputs": [
        {
          "internalType": "address",
          "name": "operator",
          "type": "address"
        },
        {
          "internalType": "uint256",
          "name": "from",
          "type": "uint256"
        },
        {
          "internalType": "uint256",
          "name": "to",
          "type": "uint256"
        },
        {
          "internalType": "uint256",
          "name": "attrId",
          "type": "uint256"
        },
        {
          "internalType": "uint256",
          "name": "amount",
          "type": "uint256"
        }
      ],
      "name": "_transfer",
      "outputs": [],
      "stateMutability": "nonpayable",
      "type": "function"
    },
    {
      "inputs": [
        {
          "internalType": "uint256",
          "name": "from",
          "type": "uint256"
        },
        {
          "internalType": "uint256",
          "name": "to",
          "type": "uint256"
        },
        {
          "internalType": "uint256",
          "name": "attrId",
          "type": "uint256"
        }
      ],
      "name": "allowance",
      "outputs": [
        {
          "internalType": "uint256",
          "name": "",
          "type": "uint256"
        }
      ],
      "stateMutability": "view",
      "type": "function"
    },
    {
      "inputs": [
        {
          "internalType": "address",
          "name": "to",
          "type": "address"
        },
        {
          "internalType": "uint256",
          "name": "tokenId",
          "type": "uint256"
        }
      ],
      "name": "approve",
      "outputs": [],
      "stateMutability": "nonpayable",
      "type": "function"
    },
    {
      "inputs": [
        {
          "internalType": "uint256",
          "name": "from",
          "type": "uint256"
        },
        {
          "internalType": "uint256",
          "name": "to",
          "type": "uint256"
        },
        {
          "internalType": "uint256",
          "name": "attrId",
          "type": "uint256"
        },
        {
          "internalType": "uint256",
          "name": "amount",
          "type": "uint256"
        }
      ],
      "name": "approve",
      "outputs": [],
      "stateMutability": "nonpayable",
      "type": "function"
    },
    {
      "inputs": [
        {
          "internalType": "uint256",
          "name": "",
          "type": "uint256"
        }
      ],
      "name": "attrTransferAllow",
      "outputs": [
        {
          "internalType": "bool",
          "name": "",
          "type": "bool"
        }
      ],
      "stateMutability": "view",
      "type": "function"
    },
    {
      "inputs": [
        {
          "internalType": "uint256",
          "name": "attrId",
          "type": "uint256"
        }
      ],
      "name": "attrURI",
      "outputs": [
        {
          "internalType": "string",
          "name": "",
          "type": "string"
        }
      ],
      "stateMutability": "view",
      "type": "function"
    },
    {
      "inputs": [
        {
          "internalType": "address",
          "name": "owner",
          "type": "address"
        }
      ],
      "name": "balanceOf",
      "outputs": [
        {
          "internalType": "uint256",
          "name": "",
          "type": "uint256"
        }
      ],
      "stateMutability": "view",
      "type": "function"
    },
    {
      "inputs": [
        {
          "internalType": "uint256",
          "name": "tokenId",
          "type": "uint256"
        },
        {
          "internalType": "uint256",
          "name": "attrId",
          "type": "uint256"
        }
      ],
      "name": "balanceOf",
      "outputs": [
        {
          "internalType": "uint256",
          "name": "",
          "type": "uint256"
        }
      ],
      "stateMutability": "view",
      "type": "function"
    },
    {
      "inputs": [
        {
          "internalType": "uint256",
          "name": "tokenId",
          "type": "uint256"
        },
        {
          "internalType": "uint256[]",
          "name": "attrIds",
          "type": "uint256[]"
        }
      ],
      "name": "balanceOfBatch",
      "outputs": [
        {
          "internalType": "uint256[]",
          "name": "",
          "type": "uint256[]"
        }
      ],
      "stateMutability": "view",
      "type": "function"
    },
    {
      "inputs": [
        {
          "internalType": "uint256",
          "name": "tokenId",
          "type": "uint256"
        },
        {
          "internalType": "uint256",
          "name": "attrId",
          "type": "uint256"
        },
        {
          "internalType": "uint256",
          "name": "amount",
          "type": "uint256"
        }
      ],
      "name": "burn",
      "outputs": [],
      "stateMutability": "nonpayable",
      "type": "function"
    },
    {
      "inputs": [
        {
          "internalType": "uint256",
          "name": "tokenId",
          "type": "uint256"
        },
        {
          "internalType": "uint256[]",
          "name": "attrIds",
          "type": "uint256[]"
        },
        {
          "internalType": "uint256[]",
          "name": "amounts",
          "type": "uint256[]"
        }
      ],
      "name": "burnBatch",
      "outputs": [],
      "stateMutability": "nonpayable",
      "type": "function"
    },
    {
      "inputs": [
        {
          "internalType": "uint256",
          "name": "_attrId",
          "type": "uint256"
        },
        {
          "internalType": "string",
          "name": "_name",
          "type": "string"
        },
        {
          "internalType": "string",
          "name": "_symbol",
          "type": "string"
        },
        {
          "internalType": "uint8",
          "name": "_decimal",
          "type": "uint8"
        },
        {
          "internalType": "string",
          "name": "_uri",
          "type": "string"
        }
      ],
      "name": "create",
      "outputs": [],
      "stateMutability": "nonpayable",
      "type": "function"
    },
    {
      "inputs": [
        {
          "internalType": "uint256[]",
          "name": "attrIds",
          "type": "uint256[]"
        },
        {
          "internalType": "string[]",
          "name": "names",
          "type": "string[]"
        },
        {
          "internalType": "string[]",
          "name": "symbols",
          "type": "string[]"
        },
        {
          "internalType": "uint8[]",
          "name": "decimals",
          "type": "uint8[]"
        },
        {
          "internalType": "string[]",
          "name": "uris",
          "type": "string[]"
        }
      ],
      "name": "createBatch",
      "outputs": [],
      "stateMutability": "nonpayable",
      "type": "function"
    },
    {
      "inputs": [
        {
          "internalType": "uint256",
          "name": "attrId",
          "type": "uint256"
        }
      ],
      "name": "decimal",
      "outputs": [
        {
          "internalType": "uint8",
          "name": "",
          "type": "uint8"
        }
      ],
      "stateMutability": "view",
      "type": "function"
    },
    {
      "inputs": [
        {
          "internalType": "uint256",
          "name": "tokenId",
          "type": "uint256"
        }
      ],
      "name": "getApproved",
      "outputs": [
        {
          "internalType": "address",
          "name": "",
          "type": "address"
        }
      ],
      "stateMutability": "view",
      "type": "function"
    },
    {
      "inputs": [
        {
          "internalType": "bytes32",
          "name": "role",
          "type": "bytes32"
        }
      ],
      "name": "getRoleAdmin",
      "outputs": [
        {
          "internalType": "bytes32",
          "name": "",
          "type": "bytes32"
        }
      ],
      "stateMutability": "view",
      "type": "function"
    },
    {
      "inputs": [
        {
          "internalType": "bytes32",
          "name": "role",
          "type": "bytes32"
        },
        {
          "internalType": "uint256",
          "name": "index",
          "type": "uint256"
        }
      ],
      "name": "getRoleMember",
      "outputs": [
        {
          "internalType": "address",
          "name": "",
          "type": "address"
        }
      ],
      "stateMutability": "view",
      "type": "function"
    },
    {
      "inputs": [
        {
          "internalType": "bytes32",
          "name": "role",
          "type": "bytes32"
        }
      ],
      "name": "getRoleMemberCount",
      "outputs": [
        {
          "internalType": "uint256",
          "name": "",
          "type": "uint256"
        }
      ],
      "stateMutability": "view",
      "type": "function"
    },
    {
      "inputs": [
        {
          "internalType": "bytes32",
          "name": "role",
          "type": "bytes32"
        },
        {
          "internalType": "address",
          "name": "account",
          "type": "address"
        }
      ],
      "name": "grantRole",
      "outputs": [],
      "stateMutability": "nonpayable",
      "type": "function"
    },
    {
      "inputs": [
        {
          "internalType": "bytes32",
          "name": "role",
          "type": "bytes32"
        },
        {
          "internalType": "address",
          "name": "account",
          "type": "address"
        }
      ],
      "name": "hasRole",
      "outputs": [
        {
          "internalType": "bool",
          "name": "",
          "type": "bool"
        }
      ],
      "stateMutability": "view",
      "type": "function"
    },
    {
      "inputs": [
        {
          "internalType": "address",
          "name": "owner",
          "type": "address"
        },
        {
          "internalType": "address",
          "name": "operator",
          "type": "address"
        }
      ],
      "name": "isApprovedForAll",
      "outputs": [
        {
          "internalType": "bool",
          "name": "",
          "type": "bool"
        }
      ],
      "stateMutability": "view",
      "type": "function"
    },
    {
      "inputs": [
        {
          "internalType": "uint256",
          "name": "tokenId",
          "type": "uint256"
        },
        {
          "internalType": "uint256",
          "name": "attrId",
          "type": "uint256"
        },
        {
          "internalType": "uint256",
          "name": "amount",
          "type": "uint256"
        }
      ],
      "name": "mint",
      "outputs": [],
      "stateMutability": "nonpayable",
      "type": "function"
    },
    {
      "inputs": [
        {
          "internalType": "address",
          "name": "to",
          "type": "address"
        }
      ],
      "name": "mint",
      "outputs": [],
      "stateMutability": "nonpayable",
      "type": "function"
    },
    {
      "inputs": [
        {
          "internalType": "uint256",
          "name": "tokenId",
          "type": "uint256"
        },
        {
          "internalType": "uint256[]",
          "name": "attrIds",
          "type": "uint256[]"
        },
        {
          "internalType": "uint256[]",
          "name": "amounts",
          "type": "uint256[]"
        }
      ],
      "name": "mintBatch",
      "outputs": [],
      "stateMutability": "nonpayable",
      "type": "function"
    },
    {
      "inputs": [
        {
          "internalType": "uint256",
          "name": "attrId",
          "type": "uint256"
        }
      ],
      "name": "name",
      "outputs": [
        {
          "internalType": "string",
          "name": "",
          "type": "string"
        }
      ],
      "stateMutability": "view",
      "type": "function"
    },
    {
      "inputs": [],
      "name": "name",
      "outputs": [
        {
          "internalType": "string",
          "name": "",
          "type": "string"
        }
      ],
      "stateMutability": "view",
      "type": "function"
    },
    {
      "inputs": [
        {
          "internalType": "uint256",
          "name": "tokenId",
          "type": "uint256"
        }
      ],
      "name": "ownerOf",
      "outputs": [
        {
          "internalType": "address",
          "name": "",
          "type": "address"
        }
      ],
      "stateMutability": "view",
      "type": "function"
    },
    {
      "inputs": [
        {
          "internalType": "uint256",
          "name": "from",
          "type": "uint256"
        },
        {
          "internalType": "uint256",
          "name": "to",
          "type": "uint256"
        },
        {
          "internalType": "uint256",
          "name": "attrId",
          "type": "uint256"
        },
        {
          "internalType": "uint256",
          "name": "amount",
          "type": "uint256"
        },
        {
          "internalType": "bytes",
          "name": "signature",
          "type": "bytes"
        }
      ],
      "name": "permit",
      "outputs": [],
      "stateMutability": "nonpayable",
      "type": "function"
    },
    {
      "inputs": [
        {
          "internalType": "bytes32",
          "name": "role",
          "type": "bytes32"
        },
        {
          "internalType": "address",
          "name": "account",
          "type": "address"
        }
      ],
      "name": "renounceRole",
      "outputs": [],
      "stateMutability": "nonpayable",
      "type": "function"
    },
    {
      "inputs": [
        {
          "internalType": "bytes32",
          "name": "role",
          "type": "bytes32"
        },
        {
          "internalType": "address",
          "name": "account",
          "type": "address"
        }
      ],
      "name": "revokeRole",
      "outputs": [],
      "stateMutability": "nonpayable",
      "type": "function"
    },
    {
      "inputs": [
        {
          "internalType": "address",
          "name": "from",
          "type": "address"
        },
        {
          "internalType": "address",
          "name": "to",
          "type": "address"
        },
        {
          "internalType": "uint256",
          "name": "tokenId",
          "type": "uint256"
        }
      ],
      "name": "safeTransferFrom",
      "outputs": [],
      "stateMutability": "nonpayable",
      "type": "function"
    },
    {
      "inputs": [
        {
          "internalType": "address",
          "name": "from",
          "type": "address"
        },
        {
          "internalType": "address",
          "name": "to",
          "type": "address"
        },
        {
          "internalType": "uint256",
          "name": "tokenId",
          "type": "uint256"
        },
        {
          "internalType": "bytes",
          "name": "_data",
          "type": "bytes"
        }
      ],
      "name": "safeTransferFrom",
      "outputs": [],
      "stateMutability": "nonpayable",
      "type": "function"
    },
    {
      "inputs": [
        {
          "internalType": "address",
          "name": "operator",
          "type": "address"
        },
        {
          "internalType": "bool",
          "name": "approved",
          "type": "bool"
        }
      ],
      "name": "setApprovalForAll",
      "outputs": [],
      "stateMutability": "nonpayable",
      "type": "function"
    },
    {
      "inputs": [
        {
          "internalType": "uint256",
          "name": "attrId",
          "type": "uint256"
        },
        {
          "internalType": "bool",
          "name": "allow",
          "type": "bool"
        }
      ],
      "name": "setAttrTransferAllow",
      "outputs": [],
      "stateMutability": "nonpayable",
      "type": "function"
    },
    {
      "inputs": [
        {
          "internalType": "string",
          "name": "newuri",
          "type": "string"
        }
      ],
      "name": "setURI",
      "outputs": [],
      "stateMutability": "nonpayable",
      "type": "function"
    },
    {
      "inputs": [
        {
          "internalType": "bytes4",
          "name": "interfaceId",
          "type": "bytes4"
        }
      ],
      "name": "supportsInterface",
      "outputs": [
        {
          "internalType": "bool",
          "name": "",
          "type": "bool"
        }
      ],
      "stateMutability": "view",
      "type": "function"
    },
    {
      "inputs": [
        {
          "internalType": "uint256",
          "name": "attrId",
          "type": "uint256"
        }
      ],
      "name": "symbol",
      "outputs": [
        {
          "internalType": "string",
          "name": "",
          "type": "string"
        }
      ],
      "stateMutability": "view",
      "type": "function"
    },
    {
      "inputs": [],
      "name": "symbol",
      "outputs": [
        {
          "internalType": "string",
          "name": "",
          "type": "string"
        }
      ],
      "stateMutability": "view",
      "type": "function"
    },
    {
      "inputs": [
        {
          "internalType": "uint256",
          "name": "tokenId",
          "type": "uint256"
        }
      ],
      "name": "tokenURI",
      "outputs": [
        {
          "internalType": "string",
          "name": "",
          "type": "string"
        }
      ],
      "stateMutability": "view",
      "type": "function"
    },
    {
      "inputs": [],
      "name": "totalSupply",
      "outputs": [
        {
          "internalType": "uint256",
          "name": "",
          "type": "uint256"
        }
      ],
      "stateMutability": "view",
      "type": "function"
    },
    {
      "inputs": [
        {
          "internalType": "uint256",
          "name": "attrId",
          "type": "uint256"
        }
      ],
      "name": "totalSupply",
      "outputs": [
        {
          "internalType": "uint256",
          "name": "",
          "type": "uint256"
        }
      ],
      "stateMutability": "view",
      "type": "function"
    },
    {
      "inputs": [
        {
          "internalType": "uint256",
          "name": "from",
          "type": "uint256"
        },
        {
          "internalType": "uint256",
          "name": "to",
          "type": "uint256"
        },
        {
          "internalType": "uint256",
          "name": "attrId",
          "type": "uint256"
        },
        {
          "internalType": "uint256",
          "name": "amount",
          "type": "uint256"
        }
      ],
      "name": "transfer",
      "outputs": [],
      "stateMutability": "nonpayable",
      "type": "function"
    },
    {
      "inputs": [
        {
          "internalType": "address",
          "name": "from",
          "type": "address"
        },
        {
          "internalType": "address",
          "name": "to",
          "type": "address"
        },
        {
          "internalType": "uint256",
          "name": "tokenId",
          "type": "uint256"
        }
      ],
      "name": "transferFrom",
      "outputs": [],
      "stateMutability": "nonpayable",
      "type": "function"
    },
    {
      "inputs": [
        {
          "internalType": "uint256",
          "name": "from",
          "type": "uint256"
        },
        {
          "internalType": "uint256",
          "name": "to",
          "type": "uint256"
        },
        {
          "internalType": "uint256",
          "name": "attrId",
          "type": "uint256"
        },
        {
          "internalType": "uint256",
          "name": "amount",
          "type": "uint256"
        }
      ],
      "name": "transferFrom",
      "outputs": [],
      "stateMutability": "nonpayable",
      "type": "function"
    }
  ],
  "bytecode": "0x6101406040523480156200001257600080fd5b5060405162004ca738038062004ca78339810160408190526200003591620003f0565b6040518060400160405280600a8152602001692ba2a119a220a7a021a760b11b815250604051806040016040528060038152602001620312e360ec1b8152506040518060400160405280600f81526020016e15d9588cc8111053c810d388139195608a1b81525060405180604001604052806005815260200164574542c2b360d81b81525084620000cc81620001d260201b60201c565b508151620000e29060059060208501906200034a565b508051620000f89060069060208401906200034a565b5050825160208085019190912083518483012060e08290526101008190524660a0818152604080517f8b73c3c69bb8fe3d512ecc4cf759cc79239f7b179b0ffacaa9a75d522b39400f81880181905281830187905260608201869052608082019490945230818401528151808203909301835260c0019052805194019390932091935091906080523060601b60c05261012052506200019f925060009150339050620001eb565b620001cb7f9f2df0fed2c77648de5860a4cc508cd0818c85b8b8a1ab4ceeef8d981c8956a633620001eb565b5062000519565b8051620001e79060009060208401906200034a565b5050565b620001e782826200020882826200023460201b620019331760201c565b6000828152600c602090815260409091206200022f918390620019b9620002d8821b17901c565b505050565b6000828152600b602090815260408083206001600160a01b038516845290915290205460ff16620001e7576000828152600b602090815260408083206001600160a01b03851684529091529020805460ff19166001179055620002943390565b6001600160a01b0316816001600160a01b0316837f2f8788117e7eff1d82e926ec794901d17c78024a50270940304540a733656f0d60405160405180910390a45050565b6000620002ef836001600160a01b038416620002f8565b90505b92915050565b60008181526001830160205260408120546200034157508154600181810184556000848152602080822090930184905584548482528286019093526040902091909155620002f2565b506000620002f2565b8280546200035890620004c6565b90600052602060002090601f0160209004810192826200037c5760008555620003c7565b82601f106200039757805160ff1916838001178555620003c7565b82800160010185558215620003c7579182015b82811115620003c7578251825591602001919060010190620003aa565b50620003d5929150620003d9565b5090565b5b80821115620003d55760008155600101620003da565b6000602080838503121562000403578182fd5b82516001600160401b03808211156200041a578384fd5b818501915085601f8301126200042e578384fd5b81518181111562000443576200044362000503565b604051601f8201601f19908116603f011681019083821181831017156200046e576200046e62000503565b81604052828152888684870101111562000486578687fd5b8693505b82841015620004a957848401860151818501870152928501926200048a565b82841115620004ba57868684830101525b98975050505050505050565b600181811c90821680620004db57607f821691505b60208210811415620004fd57634e487b7160e01b600052602260045260246000fd5b50919050565b634e487b7160e01b600052604160045260246000fd5b60805160a05160c05160601c60e051610100516101205161473b6200056c60003960006130c901526000613118015260006130f30152600061304c01526000613076015260006130a0015261473b6000f3fe608060405234801561001057600080fd5b50600436106102895760003560e01c80637cba85981161015c578063bd85b039116100ce578063e15fe34f11610087578063e15fe34f146105e4578063e985e9c5146105f7578063ea69963314610633578063f030ba631461065d578063f037745714610670578063f371efa41461068357600080fd5b8063bd85b03914610563578063c87b56dd14610583578063ca15c87314610596578063cd2e2c24146105a9578063d5391393146105bc578063d547741f146105d157600080fd5b806391f7808e1161012057806391f7808e1461050757806395d89b411461051a5780639bc5ae5414610522578063a217fddf14610535578063a22cb4651461053d578063b88d4fde1461055057600080fd5b80637cba8598146104a85780638856f779146104bb5780639010d07c146104ce57806391a2c83c146104e157806391d14854146104f457600080fd5b80632f2ff15d116102005780635d126110116101b95780635d126110146104195780636352211e146104395780636a6278421461044c5780636c06296c1461045f57806370a082311461047257806378cc520d1461048557600080fd5b80632f2ff15d146103a75780632f94e4aa146103ba57806336568abe146103cd57806336cca0be146103e057806342842e0e146103f35780634e41a1fb1461040657600080fd5b806306fdde031161025257806306fdde0314610315578063081812fc1461031d578063095ea7b31461034857806318160ddd1461035b57806323b872dd14610371578063248a9ca31461038457600080fd5b8062ad800c1461028e57806301ffc9a7146102b757806302acc94b146102da57806302fe5305146102ef57806305a1002814610302575b600080fd5b6102a161029c366004613db3565b6106a8565b6040516102ae91906142db565b60405180910390f35b6102ca6102c5366004613e0e565b6107c5565b60405190151581526020016102ae565b6102ed6102e8366004613fea565b6107d6565b005b6102ed6102fd366004613e46565b61081a565b6102ed610310366004613fea565b61085a565b6102a1610899565b61033061032b366004613db3565b61092b565b6040516001600160a01b0390911681526020016102ae565b6102ed610356366004613c65565b6109c0565b610363610ad1565b6040519081526020016102ae565b6102ed61037f366004613b9c565b610ae1565b610363610392366004613db3565b6000908152600b602052604090206001015490565b6102ed6103b5366004613dcb565b610b12565b6102ed6103c8366004613c8e565b610b38565b6102ed6103db366004613dcb565b610cf3565b6102ed6103ee366004613f4c565b610d71565b6102ed610401366004613b9c565b610db9565b6102a1610414366004613db3565b610dd4565b61042c610427366004613e78565b610e6d565b6040516102ae91906142a3565b610330610447366004613db3565b610f59565b6102ed61045a366004613b50565b610fd0565b6102ed61046d366004614015565b611024565b610363610480366004613b50565b6110a1565b6102ca610493366004613db3565b600e6020526000908152604090205460ff1681565b6102ed6104b6366004614015565b611128565b6102ed6104c9366004614015565b611136565b6103306104dc366004613ded565b611265565b6102ed6104ef366004613ec1565b611284565b6102ca610502366004613dcb565b6112c3565b6102ed610515366004614046565b6112ee565b6102a16113eb565b6102a1610530366004613db3565b6113fa565b610363600081565b6102ed61054b366004613c3c565b611597565b6102ed61055e366004613bd7565b6115a2565b610363610571366004613db3565b60009081526004602052604090205490565b6102a1610591366004613db3565b6115da565b6103636105a4366004613db3565b61169a565b6102ed6105b7366004613ccf565b6116b1565b6103636000805160206146e683398151915281565b6102ed6105df366004613dcb565b61174d565b6103636105f2366004613fea565b611773565b6102ca610605366004613b6a565b6001600160a01b039182166000908152600a6020908152604080832093909416825291909152205460ff1690565b610363610641366004613ded565b6000908152600260209081526040808320938352929052205490565b6102ed61066b366004613ec1565b6117d4565b6102ed61067e366004613f2a565b611813565b610696610691366004613db3565b6118a0565b60405160ff90911681526020016102ae565b60008181526001602052604090206004015460609060ff166107275760405162461bcd60e51b815260206004820152602d60248201527f455243333636343a206e616d6520717565727920666f72206e6f6e657869737460448201526c656e742061747472696275746560981b60648201526084015b60405180910390fd5b6000828152600160205260409020805461074090614629565b80601f016020809104026020016040519081016040528092919081815260200182805461076c90614629565b80156107b95780601f1061078e576101008083540402835291602001916107b9565b820191906000526020600020905b81548152906001019060200180831161079c57829003601f168201915b50505050509050919050565b60006107d0826119ce565b92915050565b6107ee6000805160206146e6833981519152336112c3565b61080a5760405162461bcd60e51b815260040161071e90614474565b6108158383836119f3565b505050565b6108326000805160206146e6833981519152336112c3565b61084e5760405162461bcd60e51b815260040161071e90614474565b61085781611b28565b50565b6108726000805160206146e6833981519152336112c3565b61088e5760405162461bcd60e51b815260040161071e90614474565b610815838383611b3b565b6060600580546108a890614629565b80601f01602080910402602001604051908101604052809291908181526020018280546108d490614629565b80156109215780601f106108f657610100808354040283529160200191610921565b820191906000526020600020905b81548152906001019060200180831161090457829003601f168201915b5050505050905090565b6000818152600760205260408120546001600160a01b03166109a45760405162461bcd60e51b815260206004820152602c60248201527f4552433732313a20617070726f76656420717565727920666f72206e6f6e657860448201526b34b9ba32b73a103a37b5b2b760a11b606482015260840161071e565b506000908152600960205260409020546001600160a01b031690565b60006109cb82610f59565b9050806001600160a01b0316836001600160a01b03161415610a395760405162461bcd60e51b815260206004820152602160248201527f4552433732313a20617070726f76616c20746f2063757272656e74206f776e656044820152603960f91b606482015260840161071e565b336001600160a01b0382161480610a555750610a558133610605565b610ac75760405162461bcd60e51b815260206004820152603860248201527f4552433732313a20617070726f76652063616c6c6572206973206e6f74206f7760448201527f6e6572206e6f7220617070726f76656420666f7220616c6c0000000000000000606482015260840161071e565b6108158383611c9f565b6000610adc600d5490565b905090565b610aeb3382611d0d565b610b075760405162461bcd60e51b815260040161071e90614423565b610815838383611e04565b6000828152600b6020526040902060010154610b2e8133611faf565b6108158383612013565b83610b855760405162461bcd60e51b815260206004820181905260248201527f455243333636343a207472616e736665722066726f6d20746865207a65726f20604482015260640161071e565b82610bd25760405162461bcd60e51b815260206004820152601e60248201527f455243333636343a207472616e7366657220746f20746865207a65726f200000604482015260640161071e565b610bef858585858560405180602001604052806000815250612035565b600082815260026020908152604080832087845290915290205481811015610c6a5760405162461bcd60e51b815260206004820152602860248201527f455243333636343a207472616e7366657220616d6f756e7420657863656564736044820152672062616c616e636560c01b606482015260840161071e565b6000838152600260209081526040808320888452909152808220848403905585825281208054849290610c9e90849061450f565b90915550506040805184815260208101849052859187916001600160a01b038a16917f73b5fbfbf0177b0de2ffe9fd0ae9887dd73d0d865db7ab5ff3c4a6b9bb8db1e3910160405180910390a4505050505050565b6001600160a01b0381163314610d635760405162461bcd60e51b815260206004820152602f60248201527f416363657373436f6e74726f6c3a2063616e206f6e6c792072656e6f756e636560448201526e103937b632b9903337b91039b2b63360891b606482015260840161071e565b610d6d82826120c5565b5050565b610d896000805160206146e6833981519152336112c3565b610da55760405162461bcd60e51b815260040161071e90614474565b610db285858585856120e7565b5050505050565b610815838383604051806020016040528060008152506115a2565b60008181526001602052604090206004015460609060ff16610e505760405162461bcd60e51b815260206004820152602f60248201527f455243333636343a2073796d626f6c20717565727920666f72206e6f6e65786960448201526e7374656e742061747472696275746560881b606482015260840161071e565b600082815260016020819052604090912001805461074090614629565b60606000826001600160401b03811115610e9757634e487b7160e01b600052604160045260246000fd5b604051908082528060200260200182016040528015610ec0578160200160208202803683370190505b50905060005b83811015610f5057610f1586868684818110610ef257634e487b7160e01b600052603260045260246000fd5b905060200201356000908152600260209081526040808320938352929052205490565b828281518110610f3557634e487b7160e01b600052603260045260246000fd5b6020908102919091010152610f498161465e565b9050610ec6565b50949350505050565b6000818152600760205260408120546001600160a01b0316806107d05760405162461bcd60e51b815260206004820152602960248201527f4552433732313a206f776e657220717565727920666f72206e6f6e657869737460448201526832b73a103a37b5b2b760b91b606482015260840161071e565b610fe86000805160206146e6833981519152336112c3565b6110045760405162461bcd60e51b815260040161071e90614474565b611012600d80546001019055565b6108578161101f600d5490565b612254565b833361102f82610f59565b6001600160a01b0316146110955760405162461bcd60e51b815260206004820152602760248201527f5765623344414f434e3a2063616c6c6572206973206e6f7420746865206e6674604482015266103437b63232b960c91b606482015260840161071e565b610db28585858561226e565b60006001600160a01b03821661110c5760405162461bcd60e51b815260206004820152602a60248201527f4552433732313a2062616c616e636520717565727920666f7220746865207a65604482015269726f206164647265737360b01b606482015260840161071e565b506001600160a01b031660009081526008602052604090205490565b33610db28186868686610b38565b336111448186868686610b38565b6000600360008588604051602001611166929190918252602082015260400190565b6040516020818303038152906040528051906020012081526020019081526020016000206000868152602001908152602001600020549050828110156112015760405162461bcd60e51b815260206004820152602a60248201527f455243333636343a207472616e7366657220616d6f756e74206578636565647360448201526920616c6c6f77616e636560b01b606482015260840161071e565b828103600360008689604051602001611224929190918252602082015260400190565b604051602081830303815290604052805190602001208152602001908152602001600020600087815260200190815260200160002081905550505050505050565b6000828152600c6020526040812061127d908361227a565b9392505050565b61129c6000805160206146e6833981519152336112c3565b6112b85760405162461bcd60e51b815260040161071e90614474565b610815838383612286565b6000918252600b602090815260408084206001600160a01b0393909316845291905290205460ff1690565b604080517f7b2480524df4991b0b62b0d7e3b8464b30ee5b56692c328502590389d75b37f76020820152908101869052606081018590526080810184905260a0810183905260009060c001604051602081830303815290604052805190602001209050600061135c82612503565b9050600061136a8285612551565b9050806001600160a01b031661137f89610f59565b6001600160a01b0316146113d55760405162461bcd60e51b815260206004820152601960248201527f5065726d69743a20696e76616c6964207369676e617475726500000000000000604482015260640161071e565b6113e188888888612575565b5050505050505050565b6060600680546108a890614629565b60008181526001602052604090206004015460609060ff166114735760405162461bcd60e51b815260206004820152602c60248201527f455243333636343a2055524920717565727920666f72206e6f6e65786973746560448201526b6e742061747472696275746560a01b606482015260840161071e565b6000828152600160205260408120600301805461148f90614629565b80601f01602080910402602001604051908101604052809291908181526020018280546114bb90614629565b80156115085780601f106114dd57610100808354040283529160200191611508565b820191906000526020600020905b8154815290600101906020018083116114eb57829003601f168201915b5050505050905060008151111561154b5780611523846126b1565b60405160200161153492919061411c565b604051602081830303815290604052915050919050565b600080805461155990614629565b905011611575576040518060200160405280600081525061127d565b6000611580846126b1565b60405160200161153492919061414b565b50919050565b610d6d3383836127ca565b6115ac3383611d0d565b6115c85760405162461bcd60e51b815260040161071e90614423565b6115d484848484612899565b50505050565b6000818152600760205260409020546060906001600160a01b03166116595760405162461bcd60e51b815260206004820152602f60248201527f4552433732314d657461646174613a2055524920717565727920666f72206e6f60448201526e3732bc34b9ba32b73a103a37b5b2b760891b606482015260840161071e565b600061167060408051602081019091526000815290565b90506000815111611690576040518060200160405280600081525061127d565b80611523846126b1565b6000818152600c602052604081206107d0906128cc565b6116c96000805160206146e6833981519152336112c3565b6116e55760405162461bcd60e51b815260040161071e90614474565b61174289898080602002602001604051908101604052809392919081815260200183836020028082843760009201919091525061172892508a91508b9050614571565b6117328789614571565b8661173d8688614571565b6128d6565b505050505050505050565b6000828152600b60205260409020600101546117698133611faf565b61081583836120c5565b6000600360008386604051602001611795929190918252602082015260400190565b60405160208183030381529060405280519060200120815260200190815260200160002060008481526020019081526020016000205490509392505050565b6117ec6000805160206146e6833981519152336112c3565b6118085760405162461bcd60e51b815260040161071e90614474565b610815838383612aef565b61182b6000805160206146e6833981519152336112c3565b6118475760405162461bcd60e51b815260040161071e90614474565b6000828152600e6020908152604091829020805460ff19168415159081179091558251858152918201527ffd52edd8c6dd48138bc80a665216a16ba2beb45a076f16a0ecf317ef3cd0499e910160405180910390a15050565b60008181526001602052604081206004015460ff1661191a5760405162461bcd60e51b815260206004820152603060248201527f455243333636343a20646563696d616c20717565727920666f72206e6f6e657860448201526f697374656e742061747472696275746560801b606482015260840161071e565b5060009081526001602052604090206002015460ff1690565b61193d82826112c3565b610d6d576000828152600b602090815260408083206001600160a01b03851684529091529020805460ff191660011790556119753390565b6001600160a01b0316816001600160a01b0316837f2f8788117e7eff1d82e926ec794901d17c78024a50270940304540a733656f0d60405160405180910390a45050565b600061127d836001600160a01b038416612c95565b60006001600160e01b03198216635a05180f60e01b14806107d057506107d082612ce4565b60008281526001602052604090206004015460ff16611a645760405162461bcd60e51b815260206004820152602760248201527f455243333636343a206d696e7420666f72206e6f6e6578697374656e742061746044820152667472696275746560c81b606482015260840161071e565b6000339050611a8781600086868660405180602001604052806000815250612035565b60008381526004602052604081208054849290611aa590849061450f565b9091555050600083815260026020908152604080832087845290915281208054849290611ad390849061450f565b9091555050604080518481526020810184905285916000916001600160a01b038516917f73b5fbfbf0177b0de2ffe9fd0ae9887dd73d0d865db7ab5ff3c4a6b9bb8db1e391015b60405180910390a450505050565b8051610d6d9060009060208401906138fb565b60008281526001602052604090206004015460ff16611bac5760405162461bcd60e51b815260206004820152602760248201527f455243333636343a206275726e20666f72206e6f6e6578697374656e742061746044820152667472696275746560c81b606482015260840161071e565b6000339050611bcf81856000868660405180602001604052806000815250612035565b600083815260026020908152604080832087845290915290205482811015611c095760405162461bcd60e51b815260040161071e9061433b565b611c13838261455a565b6000858152600260209081526040808320898452825280832093909355868252600490529081208054859290611c4a90849061455a565b9091555050604080518581526020810185905260009187916001600160a01b038616917f73b5fbfbf0177b0de2ffe9fd0ae9887dd73d0d865db7ab5ff3c4a6b9bb8db1e3910160405180910390a45050505050565b600081815260096020526040902080546001600160a01b0319166001600160a01b0384169081179091558190611cd482610f59565b6001600160a01b03167f8c5be1e5ebec7d5bd14f71427d1e84f3dd0314c0f7b2291e5b200ac8c7c3b92560405160405180910390a45050565b6000818152600760205260408120546001600160a01b0316611d865760405162461bcd60e51b815260206004820152602c60248201527f4552433732313a206f70657261746f7220717565727920666f72206e6f6e657860448201526b34b9ba32b73a103a37b5b2b760a11b606482015260840161071e565b6000611d9183610f59565b9050806001600160a01b0316846001600160a01b03161480611dcc5750836001600160a01b0316611dc18461092b565b6001600160a01b0316145b80611dfc57506001600160a01b038082166000908152600a602090815260408083209388168352929052205460ff165b949350505050565b826001600160a01b0316611e1782610f59565b6001600160a01b031614611e7f5760405162461bcd60e51b815260206004820152602960248201527f4552433732313a207472616e73666572206f6620746f6b656e2074686174206960448201526839903737ba1037bbb760b91b606482015260840161071e565b6001600160a01b038216611ee15760405162461bcd60e51b8152602060048201526024808201527f4552433732313a207472616e7366657220746f20746865207a65726f206164646044820152637265737360e01b606482015260840161071e565b611eec838383612d09565b611ef7600082611c9f565b6001600160a01b0383166000908152600860205260408120805460019290611f2090849061455a565b90915550506001600160a01b0382166000908152600860205260408120805460019290611f4e90849061450f565b909155505060008181526007602052604080822080546001600160a01b0319166001600160a01b0386811691821790925591518493918716917fddf252ad1be2c89b69c2b068fc378daa952ba7f163c4a11628f55a4df523b3ef91a4505050565b611fb982826112c3565b610d6d57611fd1816001600160a01b03166014612d77565b611fdc836020612d77565b604051602001611fed9291906141f1565b60408051601f198184030181529082905262461bcd60e51b825261071e916004016142db565b61201d8282611933565b6000828152600c6020526040902061081590826119b9565b61204d6000805160206146e6833981519152876112c3565b8061206657506000838152600e602052604090205460ff165b6120bd5760405162461bcd60e51b815260206004820152602260248201527f5765623344414f434e3a2041747472207472616e73666572206e6f7420616c6c6044820152616f7760f01b606482015260840161071e565b505050505050565b6120cf8282612f58565b6000828152600c602052604090206108159082612fbf565b60008581526001602052604090206004015460ff16156121535760405162461bcd60e51b815260206004820152602160248201527f455243333636343a2061747472696275746520616c72656164792065786973746044820152607360f81b606482015260840161071e565b6040805160a081018252858152602080820186905260ff8516828401526060820184905260016080830181905260008981529082529290922081518051929384936121a192849201906138fb565b5060208281015180516121ba92600185019201906138fb565b50604082015160028201805460ff191660ff909216919091179055606082015180516121f09160038401916020909101906138fb565b50608091909101516004909101805460ff191691151591909117905560405186907f98fe0a4bf3a5354178c124c36fe2ec9f103adaba8905e75f72cb6900c6f94986906122449088908890889088906142ee565b60405180910390a2505050505050565b610d6d828260405180602001604052806000815250612fd4565b6115d484848484612575565b600061127d8383613007565b80518251146122a75760405162461bcd60e51b815260040161071e90614385565b3360005b83518110156124c457612320828660008785815181106122db57634e487b7160e01b600052603260045260246000fd5b602002602001015187868151811061230357634e487b7160e01b600052603260045260246000fd5b602002602001015160405180602001604052806000815250612035565b60006002600086848151811061234657634e487b7160e01b600052603260045260246000fd5b60200260200101518152602001908152602001600020600087815260200190815260200160002054905083828151811061239057634e487b7160e01b600052603260045260246000fd5b60200260200101518110156123b75760405162461bcd60e51b815260040161071e9061433b565b8382815181106123d757634e487b7160e01b600052603260045260246000fd5b6020026020010151816123ea919061455a565b6002600087858151811061240e57634e487b7160e01b600052603260045260246000fd5b6020026020010151815260200190815260200160002060008881526020019081526020016000208190555083828151811061245957634e487b7160e01b600052603260045260246000fd5b60200260200101516004600087858151811061248557634e487b7160e01b600052603260045260246000fd5b6020026020010151815260200190815260200160002060008282546124aa919061455a565b909155508291506124bc90508161465e565b9150506122ab565b50600084826001600160a01b03167fbfb4d8e5891aebe97980c97616b6b0af2006a58ccabe6e1b7e3da24d0906a8568686604051611b1a9291906142b6565b60006107d061251061303f565b8360405161190160f01b6020820152602281018390526042810182905260009060620160405160208183030381529060405280519060200120905092915050565b60008060006125608585613166565b9150915061256d816131d6565b509392505050565b836125c25760405162461bcd60e51b815260206004820152601f60248201527f455243333636343a20617070726f76652066726f6d20746865207a65726f2000604482015260640161071e565b8261260f5760405162461bcd60e51b815260206004820152601d60248201527f455243333636343a20617070726f766520746f20746865207a65726f20000000604482015260640161071e565b80600360008487604051602001612630929190918252602082015260400190565b60408051601f19818403018152918152815160209283012083528282019390935290820160009081208782528252829020929092558051868152918201859052818101849052606082018390525133917f4f3267cf1b4f4eda70a80ac65e00830cf370b07c616b8e687c172b69bb15a190919081900360800190a250505050565b6060816126d55750506040805180820190915260018152600360fc1b602082015290565b8160005b81156126ff57806126e98161465e565b91506126f89050600a83614527565b91506126d9565b6000816001600160401b0381111561272757634e487b7160e01b600052604160045260246000fd5b6040519080825280601f01601f191660200182016040528015612751576020820181803683370190505b5090505b8415611dfc5761276660018361455a565b9150612773600a86614679565b61277e90603061450f565b60f81b8183815181106127a157634e487b7160e01b600052603260045260246000fd5b60200101906001600160f81b031916908160001a9053506127c3600a86614527565b9450612755565b816001600160a01b0316836001600160a01b0316141561282c5760405162461bcd60e51b815260206004820152601960248201527f4552433732313a20617070726f766520746f2063616c6c657200000000000000604482015260640161071e565b6001600160a01b038381166000818152600a6020908152604080832094871680845294825291829020805460ff191686151590811790915591519182527f17307eab39ab6107e8899845ad3d59bd9653f200f220920489ca2b5937696c31910160405180910390a3505050565b6128a4848484611e04565b6128b0848484846133d7565b6115d45760405162461bcd60e51b815260040161071e906143d1565b60006107d0825490565b835185511461293a5760405162461bcd60e51b815260206004820152602a60248201527f455243333636343a206174747249647320616e64206e616d6573206c656e67746044820152690d040dad2e6dac2e8c6d60b31b606482015260840161071e565b825184511461299e5760405162461bcd60e51b815260206004820152602a60248201527f455243333636343a206e616d657320616e642073796d626f6c73206c656e67746044820152690d040dad2e6dac2e8c6d60b31b606482015260840161071e565b8051835114612a015760405162461bcd60e51b815260206004820152602960248201527f455243333636343a2073796d626f6c7320616e642075726973206c656e677468604482015268040dad2e6dac2e8c6d60bb1b606482015260840161071e565b60005b85518110156120bd57612add868281518110612a3057634e487b7160e01b600052603260045260246000fd5b6020026020010151868381518110612a5857634e487b7160e01b600052603260045260246000fd5b6020026020010151868481518110612a8057634e487b7160e01b600052603260045260246000fd5b6020026020010151868581518110612aa857634e487b7160e01b600052603260045260246000fd5b6020026020010151868681518110612ad057634e487b7160e01b600052603260045260246000fd5b60200260200101516120e7565b80612ae78161465e565b915050612a04565b8051825114612b105760405162461bcd60e51b815260040161071e90614385565b3360005b8351811015612c5657612b44828660008785815181106122db57634e487b7160e01b600052603260045260246000fd5b828181518110612b6457634e487b7160e01b600052603260045260246000fd5b602002602001015160046000868481518110612b9057634e487b7160e01b600052603260045260246000fd5b602002602001015181526020019081526020016000206000828254612bb5919061450f565b92505081905550828181518110612bdc57634e487b7160e01b600052603260045260246000fd5b602002602001015160026000868481518110612c0857634e487b7160e01b600052603260045260246000fd5b6020026020010151815260200190815260200160002060008781526020019081526020016000206000828254612c3e919061450f565b90915550819050612c4e8161465e565b915050612b14565b50836000826001600160a01b03167fbfb4d8e5891aebe97980c97616b6b0af2006a58ccabe6e1b7e3da24d0906a8568686604051611b1a9291906142b6565b6000818152600183016020526040812054612cdc575081546001818101845560008481526020808220909301849055845484825282860190935260409020919091556107d0565b5060006107d0565b60006001600160e01b03198216637965db0b60e01b14806107d057506107d0826134e4565b612d12826110a1565b156108155760405162461bcd60e51b815260206004820152602f60248201527f5765623344414f434e3a204561636820616464726573732063616e206f6e6c7960448201526e103430bb329037b732902a37b5b2b760891b606482015260840161071e565b60606000612d8683600261453b565b612d9190600261450f565b6001600160401b03811115612db657634e487b7160e01b600052604160045260246000fd5b6040519080825280601f01601f191660200182016040528015612de0576020820181803683370190505b509050600360fc1b81600081518110612e0957634e487b7160e01b600052603260045260246000fd5b60200101906001600160f81b031916908160001a905350600f60fb1b81600181518110612e4657634e487b7160e01b600052603260045260246000fd5b60200101906001600160f81b031916908160001a9053506000612e6a84600261453b565b612e7590600161450f565b90505b6001811115612f09576f181899199a1a9b1b9c1cb0b131b232b360811b85600f1660108110612eb757634e487b7160e01b600052603260045260246000fd5b1a60f81b828281518110612edb57634e487b7160e01b600052603260045260246000fd5b60200101906001600160f81b031916908160001a90535060049490941c93612f0281614612565b9050612e78565b50831561127d5760405162461bcd60e51b815260206004820181905260248201527f537472696e67733a20686578206c656e67746820696e73756666696369656e74604482015260640161071e565b612f6282826112c3565b15610d6d576000828152600b602090815260408083206001600160a01b0385168085529252808320805460ff1916905551339285917ff6391f5c32d9c69d2a47ea670b442974b53935d1edc7fd64eb21e047a839171b9190a45050565b600061127d836001600160a01b038416613524565b612fde8383613641565b612feb60008484846133d7565b6108155760405162461bcd60e51b815260040161071e906143d1565b600082600001828154811061302c57634e487b7160e01b600052603260045260246000fd5b9060005260206000200154905092915050565b6000306001600160a01b037f00000000000000000000000000000000000000000000000000000000000000001614801561309857507f000000000000000000000000000000000000000000000000000000000000000046145b156130c257507f000000000000000000000000000000000000000000000000000000000000000090565b50604080517f00000000000000000000000000000000000000000000000000000000000000006020808301919091527f0000000000000000000000000000000000000000000000000000000000000000828401527f000000000000000000000000000000000000000000000000000000000000000060608301524660808301523060a0808401919091528351808403909101815260c0909201909252805191012090565b60008082516041141561319d5760208301516040840151606085015160001a6131918782858561378f565b945094505050506131cf565b8251604014156131c757602083015160408401516131bc86838361387c565b9350935050506131cf565b506000905060025b9250929050565b60008160048111156131f857634e487b7160e01b600052602160045260246000fd5b14156132015750565b600181600481111561322357634e487b7160e01b600052602160045260246000fd5b14156132715760405162461bcd60e51b815260206004820152601860248201527f45434453413a20696e76616c6964207369676e61747572650000000000000000604482015260640161071e565b600281600481111561329357634e487b7160e01b600052602160045260246000fd5b14156132e15760405162461bcd60e51b815260206004820152601f60248201527f45434453413a20696e76616c6964207369676e6174757265206c656e67746800604482015260640161071e565b600381600481111561330357634e487b7160e01b600052602160045260246000fd5b141561335c5760405162461bcd60e51b815260206004820152602260248201527f45434453413a20696e76616c6964207369676e6174757265202773272076616c604482015261756560f01b606482015260840161071e565b600481600481111561337e57634e487b7160e01b600052602160045260246000fd5b14156108575760405162461bcd60e51b815260206004820152602260248201527f45434453413a20696e76616c6964207369676e6174757265202776272076616c604482015261756560f01b606482015260840161071e565b60006001600160a01b0384163b156134d957604051630a85bd0160e11b81526001600160a01b0385169063150b7a029061341b903390899088908890600401614266565b602060405180830381600087803b15801561343557600080fd5b505af1925050508015613465575060408051601f3d908101601f1916820190925261346291810190613e2a565b60015b6134bf573d808015613493576040519150601f19603f3d011682016040523d82523d6000602084013e613498565b606091505b5080516134b75760405162461bcd60e51b815260040161071e906143d1565b805181602001fd5b6001600160e01b031916630a85bd0160e11b149050611dfc565b506001949350505050565b60006001600160e01b031982166380ac58cd60e01b148061351557506001600160e01b03198216635b5e139f60e01b145b806107d057506107d0826138ab565b6000818152600183016020526040812054801561363757600061354860018361455a565b855490915060009061355c9060019061455a565b90508181146135dd57600086600001828154811061358a57634e487b7160e01b600052603260045260246000fd5b90600052602060002001549050808760000184815481106135bb57634e487b7160e01b600052603260045260246000fd5b6000918252602080832090910192909255918252600188019052604090208390555b85548690806135fc57634e487b7160e01b600052603160045260246000fd5b6001900381819060005260206000200160009055905585600101600086815260200190815260200160002060009055600193505050506107d0565b60009150506107d0565b6001600160a01b0382166136975760405162461bcd60e51b815260206004820181905260248201527f4552433732313a206d696e7420746f20746865207a65726f2061646472657373604482015260640161071e565b6000818152600760205260409020546001600160a01b0316156136fc5760405162461bcd60e51b815260206004820152601c60248201527f4552433732313a20746f6b656e20616c7265616479206d696e74656400000000604482015260640161071e565b61370860008383612d09565b6001600160a01b038216600090815260086020526040812080546001929061373190849061450f565b909155505060008181526007602052604080822080546001600160a01b0319166001600160a01b03861690811790915590518392907fddf252ad1be2c89b69c2b068fc378daa952ba7f163c4a11628f55a4df523b3ef908290a45050565b6000807f7fffffffffffffffffffffffffffffff5d576e7357a4501ddfe92f46681b20a08311156137c65750600090506003613873565b8460ff16601b141580156137de57508460ff16601c14155b156137ef5750600090506004613873565b6040805160008082526020820180845289905260ff881692820192909252606081018690526080810185905260019060a0016020604051602081039080840390855afa158015613843573d6000803e3d6000fd5b5050604051601f1901519150506001600160a01b03811661386c57600060019250925050613873565b9150600090505b94509492505050565b6000806001600160ff1b03831660ff84901c601b0161389d8782888561378f565b935093505050935093915050565b60006001600160e01b03198216630e697ffb60e31b14806138dc57506001600160e01b03198216632658600760e01b145b806107d057506301ffc9a760e01b6001600160e01b03198316146107d0565b82805461390790614629565b90600052602060002090601f016020900481019282613929576000855561396f565b82601f1061394257805160ff191683800117855561396f565b8280016001018555821561396f579182015b8281111561396f578251825591602001919060010190613954565b5061397b92915061397f565b5090565b5b8082111561397b5760008155600101613980565b80356001600160a01b03811681146139ab57600080fd5b919050565b60008083601f8401126139c1578182fd5b5081356001600160401b038111156139d7578182fd5b6020830191508360208260051b85010111156131cf57600080fd5b600082601f830112613a02578081fd5b81356020613a17613a12836144ec565b6144bc565b80838252828201915082860187848660051b8901011115613a36578586fd5b855b85811015613a5457813584529284019290840190600101613a38565b5090979650505050505050565b600082601f830112613a71578081fd5b81356020613a81613a12836144ec565b80838252828201915082860187848660051b8901011115613aa0578586fd5b855b85811015613a5457613ab382613b3f565b84529284019290840190600101613aa2565b803580151581146139ab57600080fd5b600082601f830112613ae5578081fd5b81356001600160401b03811115613afe57613afe6146b9565b613b11601f8201601f19166020016144bc565b818152846020838601011115613b25578283fd5b816020850160208301379081016020019190915292915050565b803560ff811681146139ab57600080fd5b600060208284031215613b61578081fd5b61127d82613994565b60008060408385031215613b7c578081fd5b613b8583613994565b9150613b9360208401613994565b90509250929050565b600080600060608486031215613bb0578081fd5b613bb984613994565b9250613bc760208501613994565b9150604084013590509250925092565b60008060008060808587031215613bec578081fd5b613bf585613994565b9350613c0360208601613994565b92506040850135915060608501356001600160401b03811115613c24578182fd5b613c3087828801613ad5565b91505092959194509250565b60008060408385031215613c4e578182fd5b613c5783613994565b9150613b9360208401613ac5565b60008060408385031215613c77578182fd5b613c8083613994565b946020939093013593505050565b600080600080600060a08688031215613ca5578283fd5b613cae86613994565b97602087013597506040870135966060810135965060800135945092505050565b600080600080600080600080600060a08a8c031215613cec578687fd5b89356001600160401b0380821115613d02578889fd5b613d0e8d838e016139b0565b909b50995060208c0135915080821115613d26578889fd5b613d328d838e016139b0565b909950975060408c0135915080821115613d4a578586fd5b613d568d838e016139b0565b909750955060608c0135915080821115613d6e578485fd5b613d7a8d838e01613a61565b945060808c0135915080821115613d8f578384fd5b50613d9c8c828d016139b0565b915080935050809150509295985092959850929598565b600060208284031215613dc4578081fd5b5035919050565b60008060408385031215613ddd578182fd5b82359150613b9360208401613994565b60008060408385031215613dff578182fd5b50508035926020909101359150565b600060208284031215613e1f578081fd5b813561127d816146cf565b600060208284031215613e3b578081fd5b815161127d816146cf565b600060208284031215613e57578081fd5b81356001600160401b03811115613e6c578182fd5b611dfc84828501613ad5565b600080600060408486031215613e8c578081fd5b8335925060208401356001600160401b03811115613ea8578182fd5b613eb4868287016139b0565b9497909650939450505050565b600080600060608486031215613ed5578081fd5b8335925060208401356001600160401b0380821115613ef2578283fd5b613efe878388016139f2565b93506040860135915080821115613f13578283fd5b50613f20868287016139f2565b9150509250925092565b60008060408385031215613f3c578182fd5b82359150613b9360208401613ac5565b600080600080600060a08688031215613f63578283fd5b8535945060208601356001600160401b0380821115613f80578485fd5b613f8c89838a01613ad5565b95506040880135915080821115613fa1578485fd5b613fad89838a01613ad5565b9450613fbb60608901613b3f565b93506080880135915080821115613fd0578283fd5b50613fdd88828901613ad5565b9150509295509295909350565b600080600060608486031215613ffe578081fd5b505081359360208301359350604090920135919050565b6000806000806080858703121561402a578182fd5b5050823594602084013594506040840135936060013592509050565b600080600080600060a0868803121561405d578283fd5b8535945060208601359350604086013592506060860135915060808601356001600160401b0381111561408e578182fd5b613fdd88828901613ad5565b6000815180845260208085019450808401835b838110156140c9578151875295820195908201906001016140ad565b509495945050505050565b600081518084526140ec8160208601602086016145e6565b601f01601f19169290920160200192915050565b600081516141128185602086016145e6565b9290920192915050565b6000835161412e8184602088016145e6565b8351908301906141428183602088016145e6565b01949350505050565b600080845482600182811c91508083168061416757607f831692505b602080841082141561418757634e487b7160e01b87526022600452602487fd5b81801561419b57600181146141ac576141d8565b60ff198616895284890196506141d8565b60008b815260209020885b868110156141d05781548b8201529085019083016141b7565b505084890196505b5050505050506141e88185614100565b95945050505050565b7f416363657373436f6e74726f6c3a206163636f756e74200000000000000000008152600083516142298160178501602088016145e6565b7001034b99036b4b9b9b4b733903937b6329607d1b601791840191820152835161425a8160288401602088016145e6565b01602801949350505050565b6001600160a01b0385811682528416602082015260408101839052608060608201819052600090614299908301846140d4565b9695505050505050565b60208152600061127d602083018461409a565b6040815260006142c9604083018561409a565b82810360208401526141e8818561409a565b60208152600061127d60208301846140d4565b60808152600061430160808301876140d4565b828103602084015261431381876140d4565b905060ff85166040840152828103606084015261433081856140d4565b979650505050505050565b6020808252602a908201527f455243333636343a20696e73756666696369656e742062616c616e636520666f60408201526939103a3930b739b332b960b11b606082015260800190565b6020808252602c908201527f455243333636343a206174747249647320616e6420616d6f756e7473206c656e60408201526b0cee8d040dad2e6dac2e8c6d60a31b606082015260800190565b60208082526032908201527f4552433732313a207472616e7366657220746f206e6f6e20455243373231526560408201527131b2b4bb32b91034b6b83632b6b2b73a32b960711b606082015260800190565b60208082526031908201527f4552433732313a207472616e736665722063616c6c6572206973206e6f74206f6040820152701ddb995c881b9bdc88185c1c1c9bdd9959607a1b606082015260800190565b60208082526028908201527f5765623344414f434e3a206d7573742068617665206d696e74657220726f6c65604082015267081d1bc81b5a5b9d60c21b606082015260800190565b604051601f8201601f191681016001600160401b03811182821017156144e4576144e46146b9565b604052919050565b60006001600160401b03821115614505576145056146b9565b5060051b60200190565b600082198211156145225761452261468d565b500190565b600082614536576145366146a3565b500490565b60008160001904831182151516156145555761455561468d565b500290565b60008282101561456c5761456c61468d565b500390565b600061457f613a12846144ec565b808482526020808301925084368760051b8701111561459c578485fd5b845b878110156145da5781356001600160401b038111156145bb578687fd5b6145c736828a01613ad5565b865250938201939082019060010161459e565b50919695505050505050565b60005b838110156146015781810151838201526020016145e9565b838111156115d45750506000910152565b6000816146215761462161468d565b506000190190565b600181811c9082168061463d57607f821691505b6020821081141561159157634e487b7160e01b600052602260045260246000fd5b60006000198214156146725761467261468d565b5060010190565b600082614688576146886146a3565b500690565b634e487b7160e01b600052601160045260246000fd5b634e487b7160e01b600052601260045260246000fd5b634e487b7160e01b600052604160045260246000fd5b6001600160e01b03198116811461085757600080fdfe9f2df0fed2c77648de5860a4cc508cd0818c85b8b8a1ab4ceeef8d981c8956a6a264697066735822122069f262976d0f35c5495fb3ec6cff00f1cec0ad5c087507d4245a5edf0859425164736f6c63430008040033",
  "linkReferences": {},
  "deployedLinkReferences": {}
}