{
  "_format": "hh-sol-artifact-1",
  "contractName": "Web3DAOCN",
  "sourceName": "contracts/Web3DAOCN.sol",
  "abi": [
    {
      "inputs": [],
      "stateMutability": "nonpayable",
      "type": "constructor"
    },
    {
      "anonymous": false,
      "inputs": [
        {
          "indexed": true,
          "internalType": "address",
          "name": "owner",
          "type": "address"
        },
        {
          "indexed": true,
          "internalType": "address",
          "name": "approved",
          "type": "address"
        },
        {
          "indexed": true,
          "internalType": "uint256",
          "name": "tokenId",
          "type": "uint256"
        }
      ],
      "name": "Approval",
      "type": "event"
    },
    {
      "anonymous": false,
      "inputs": [
        {
          "indexed": true,
          "internalType": "address",
          "name": "owner",
          "type": "address"
        },
        {
          "indexed": true,
          "internalType": "address",
          "name": "operator",
          "type": "address"
        },
        {
          "indexed": false,
          "internalType": "bool",
          "name": "approved",
          "type": "bool"
        }
      ],
      "name": "ApprovalForAll",
      "type": "event"
    },
    {
      "anonymous": false,
      "inputs": [
        {
          "indexed": false,
          "internalType": "uint256",
          "name": "attrId",
          "type": "uint256"
        },
        {
          "indexed": false,
          "internalType": "bool",
          "name": "allow",
          "type": "bool"
        }
      ],
      "name": "AttrTransferAllow",
      "type": "event"
    },
    {
      "anonymous": false,
      "inputs": [
        {
          "indexed": true,
          "internalType": "address",
          "name": "operator",
          "type": "address"
        },
        {
          "indexed": false,
          "internalType": "uint256",
          "name": "from",
          "type": "uint256"
        },
        {
          "indexed": false,
          "internalType": "uint256",
          "name": "to",
          "type": "uint256"
        },
        {
          "indexed": false,
          "internalType": "uint256",
          "name": "attrId",
          "type": "uint256"
        },
        {
          "indexed": false,
          "internalType": "uint256",
          "name": "amount",
          "type": "uint256"
        }
      ],
      "name": "AttributeApproval",
      "type": "event"
    },
    {
      "anonymous": false,
      "inputs": [
        {
          "indexed": true,
          "internalType": "uint256",
          "name": "attrId",
          "type": "uint256"
        },
        {
          "indexed": false,
          "internalType": "string",
          "name": "name",
          "type": "string"
        },
        {
          "indexed": false,
          "internalType": "string",
          "name": "symbol",
          "type": "string"
        },
        {
          "indexed": false,
          "internalType": "uint8",
          "name": "_decimal",
          "type": "uint8"
        },
        {
          "indexed": false,
          "internalType": "string",
          "name": "uri",
          "type": "string"
        }
      ],
      "name": "AttributeCreated",
      "type": "event"
    },
    {
      "anonymous": false,
      "inputs": [
        {
          "indexed": true,
          "internalType": "bytes32",
          "name": "role",
          "type": "bytes32"
        },
        {
          "indexed": true,
          "internalType": "bytes32",
          "name": "previousAdminRole",
          "type": "bytes32"
        },
        {
          "indexed": true,
          "internalType": "bytes32",
          "name": "newAdminRole",
          "type": "bytes32"
        }
      ],
      "name": "RoleAdminChanged",
      "type": "event"
    },
    {
      "anonymous": false,
      "inputs": [
        {
          "indexed": true,
          "internalType": "bytes32",
          "name": "role",
          "type": "bytes32"
        },
        {
          "indexed": true,
          "internalType": "address",
          "name": "account",
          "type": "address"
        },
        {
          "indexed": true,
          "internalType": "address",
          "name": "sender",
          "type": "address"
        }
      ],
      "name": "RoleGranted",
      "type": "event"
    },
    {
      "anonymous": false,
      "inputs": [
        {
          "indexed": true,
          "internalType": "bytes32",
          "name": "role",
          "type": "bytes32"
        },
        {
          "indexed": true,
          "internalType": "address",
          "name": "account",
          "type": "address"
        },
        {
          "indexed": true,
          "internalType": "address",
          "name": "sender",
          "type": "address"
        }
      ],
      "name": "RoleRevoked",
      "type": "event"
    },
    {
      "anonymous": false,
      "inputs": [
        {
          "indexed": true,
          "internalType": "address",
          "name": "from",
          "type": "address"
        },
        {
          "indexed": true,
          "internalType": "address",
          "name": "to",
          "type": "address"
        },
        {
          "indexed": true,
          "internalType": "uint256",
          "name": "tokenId",
          "type": "uint256"
        }
      ],
      "name": "Transfer",
      "type": "event"
    },
    {
      "anonymous": false,
      "inputs": [
        {
          "indexed": true,
          "internalType": "address",
          "name": "operator",
          "type": "address"
        },
        {
          "indexed": true,
          "internalType": "uint256",
          "name": "from",
          "type": "uint256"
        },
        {
          "indexed": true,
          "internalType": "uint256",
          "name": "to",
          "type": "uint256"
        },
        {
          "indexed": false,
          "internalType": "uint256[]",
          "name": "attrIds",
          "type": "uint256[]"
        },
        {
          "indexed": false,
          "internalType": "uint256[]",
          "name": "values",
          "type": "uint256[]"
        }
      ],
      "name": "TransferBatch",
      "type": "event"
    },
    {
      "anonymous": false,
      "inputs": [
        {
          "indexed": true,
          "internalType": "address",
          "name": "operator",
          "type": "address"
        },
        {
          "indexed": true,
          "internalType": "uint256",
          "name": "from",
          "type": "uint256"
        },
        {
          "indexed": true,
          "internalType": "uint256",
          "name": "to",
          "type": "uint256"
        },
        {
          "indexed": false,
          "internalType": "uint256",
          "name": "attrId",
          "type": "uint256"
        },
        {
          "indexed": false,
          "internalType": "uint256",
          "name": "value",
          "type": "uint256"
        }
      ],
      "name": "TransferSingle",
      "type": "event"
    },
    {
      "inputs": [],
      "name": "DEFAULT_ADMIN_ROLE",
      "outputs": [
        {
          "internalType": "bytes32",
          "name": "",
          "type": "bytes32"
        }
      ],
      "stateMutability": "view",
      "type": "function"
    },
    {
      "inputs": [],
      "name": "MINTER_ROLE",
      "outputs": [
        {
          "internalType": "bytes32",
          "name": "",
          "type": "bytes32"
        }
      ],
      "stateMutability": "view",
      "type": "function"
    },
    {
      "inputs": [
        {
          "internalType": "address",
          "name": "operator",
          "type": "address"
        },
        {
          "internalType": "uint256",
          "name": "from",
          "type": "uint256"
        },
        {
          "internalType": "uint256",
          "name": "to",
          "type": "uint256"
        },
        {
          "internalType": "uint256",
          "name": "attrId",
          "type": "uint256"
        },
        {
          "internalType": "uint256",
          "name": "amount",
          "type": "uint256"
        }
      ],
      "name": "_transfer",
      "outputs": [],
      "stateMutability": "nonpayable",
      "type": "function"
    },
    {
      "inputs": [
        {
          "internalType": "uint256",
          "name": "from",
          "type": "uint256"
        },
        {
          "internalType": "uint256",
          "name": "to",
          "type": "uint256"
        },
        {
          "internalType": "uint256",
          "name": "attrId",
          "type": "uint256"
        }
      ],
      "name": "allowance",
      "outputs": [
        {
          "internalType": "uint256",
          "name": "",
          "type": "uint256"
        }
      ],
      "stateMutability": "view",
      "type": "function"
    },
    {
      "inputs": [
        {
          "internalType": "address",
          "name": "to",
          "type": "address"
        },
        {
          "internalType": "uint256",
          "name": "tokenId",
          "type": "uint256"
        }
      ],
      "name": "approve",
      "outputs": [],
      "stateMutability": "nonpayable",
      "type": "function"
    },
    {
      "inputs": [
        {
          "internalType": "uint256",
          "name": "from",
          "type": "uint256"
        },
        {
          "internalType": "uint256",
          "name": "to",
          "type": "uint256"
        },
        {
          "internalType": "uint256",
          "name": "attrId",
          "type": "uint256"
        },
        {
          "internalType": "uint256",
          "name": "amount",
          "type": "uint256"
        }
      ],
      "name": "approve",
      "outputs": [],
      "stateMutability": "nonpayable",
      "type": "function"
    },
    {
      "inputs": [
        {
          "internalType": "uint256",
          "name": "",
          "type": "uint256"
        }
      ],
      "name": "attrTransferAllow",
      "outputs": [
        {
          "internalType": "bool",
          "name": "",
          "type": "bool"
        }
      ],
      "stateMutability": "view",
      "type": "function"
    },
    {
      "inputs": [
        {
          "internalType": "uint256",
          "name": "attrId",
          "type": "uint256"
        }
      ],
      "name": "attrURI",
      "outputs": [
        {
          "internalType": "string",
          "name": "",
          "type": "string"
        }
      ],
      "stateMutability": "view",
      "type": "function"
    },
    {
      "inputs": [
        {
          "internalType": "address",
          "name": "owner",
          "type": "address"
        }
      ],
      "name": "balanceOf",
      "outputs": [
        {
          "internalType": "uint256",
          "name": "",
          "type": "uint256"
        }
      ],
      "stateMutability": "view",
      "type": "function"
    },
    {
      "inputs": [
        {
          "internalType": "uint256",
          "name": "tokenId",
          "type": "uint256"
        },
        {
          "internalType": "uint256",
          "name": "attrId",
          "type": "uint256"
        }
      ],
      "name": "balanceOf",
      "outputs": [
        {
          "internalType": "uint256",
          "name": "",
          "type": "uint256"
        }
      ],
      "stateMutability": "view",
      "type": "function"
    },
    {
      "inputs": [
        {
          "internalType": "uint256",
          "name": "tokenId",
          "type": "uint256"
        },
        {
          "internalType": "uint256[]",
          "name": "attrIds",
          "type": "uint256[]"
        }
      ],
      "name": "balanceOfBatch",
      "outputs": [
        {
          "internalType": "uint256[]",
          "name": "",
          "type": "uint256[]"
        }
      ],
      "stateMutability": "view",
      "type": "function"
    },
    {
      "inputs": [],
      "name": "baseURI",
      "outputs": [
        {
          "internalType": "string",
          "name": "",
          "type": "string"
        }
      ],
      "stateMutability": "view",
      "type": "function"
    },
    {
      "inputs": [
        {
          "internalType": "uint256",
          "name": "tokenId",
          "type": "uint256"
        },
        {
          "internalType": "uint256",
          "name": "attrId",
          "type": "uint256"
        },
        {
          "internalType": "uint256",
          "name": "amount",
          "type": "uint256"
        }
      ],
      "name": "burn",
      "outputs": [],
      "stateMutability": "nonpayable",
      "type": "function"
    },
    {
      "inputs": [
        {
          "internalType": "uint256",
          "name": "tokenId",
          "type": "uint256"
        },
        {
          "internalType": "uint256[]",
          "name": "attrIds",
          "type": "uint256[]"
        },
        {
          "internalType": "uint256[]",
          "name": "amounts",
          "type": "uint256[]"
        }
      ],
      "name": "burnBatch",
      "outputs": [],
      "stateMutability": "nonpayable",
      "type": "function"
    },
    {
      "inputs": [
        {
          "internalType": "uint256",
          "name": "_attrId",
          "type": "uint256"
        },
        {
          "internalType": "string",
          "name": "_name",
          "type": "string"
        },
        {
          "internalType": "string",
          "name": "_symbol",
          "type": "string"
        },
        {
          "internalType": "uint8",
          "name": "_decimal",
          "type": "uint8"
        },
        {
          "internalType": "string",
          "name": "_uri",
          "type": "string"
        }
      ],
      "name": "create",
      "outputs": [],
      "stateMutability": "nonpayable",
      "type": "function"
    },
    {
      "inputs": [
        {
          "internalType": "uint256[]",
          "name": "attrIds",
          "type": "uint256[]"
        },
        {
          "internalType": "string[]",
          "name": "names",
          "type": "string[]"
        },
        {
          "internalType": "string[]",
          "name": "symbols",
          "type": "string[]"
        },
        {
          "internalType": "uint8[]",
          "name": "decimals",
          "type": "uint8[]"
        },
        {
          "internalType": "string[]",
          "name": "uris",
          "type": "string[]"
        }
      ],
      "name": "createBatch",
      "outputs": [],
      "stateMutability": "nonpayable",
      "type": "function"
    },
    {
      "inputs": [
        {
          "internalType": "uint256",
          "name": "attrId",
          "type": "uint256"
        }
      ],
      "name": "decimal",
      "outputs": [
        {
          "internalType": "uint8",
          "name": "",
          "type": "uint8"
        }
      ],
      "stateMutability": "view",
      "type": "function"
    },
    {
      "inputs": [
        {
          "internalType": "uint256",
          "name": "tokenId",
          "type": "uint256"
        }
      ],
      "name": "getApproved",
      "outputs": [
        {
          "internalType": "address",
          "name": "",
          "type": "address"
        }
      ],
      "stateMutability": "view",
      "type": "function"
    },
    {
      "inputs": [
        {
          "internalType": "bytes32",
          "name": "role",
          "type": "bytes32"
        }
      ],
      "name": "getRoleAdmin",
      "outputs": [
        {
          "internalType": "bytes32",
          "name": "",
          "type": "bytes32"
        }
      ],
      "stateMutability": "view",
      "type": "function"
    },
    {
      "inputs": [
        {
          "internalType": "bytes32",
          "name": "role",
          "type": "bytes32"
        },
        {
          "internalType": "uint256",
          "name": "index",
          "type": "uint256"
        }
      ],
      "name": "getRoleMember",
      "outputs": [
        {
          "internalType": "address",
          "name": "",
          "type": "address"
        }
      ],
      "stateMutability": "view",
      "type": "function"
    },
    {
      "inputs": [
        {
          "internalType": "bytes32",
          "name": "role",
          "type": "bytes32"
        }
      ],
      "name": "getRoleMemberCount",
      "outputs": [
        {
          "internalType": "uint256",
          "name": "",
          "type": "uint256"
        }
      ],
      "stateMutability": "view",
      "type": "function"
    },
    {
      "inputs": [
        {
          "internalType": "bytes32",
          "name": "role",
          "type": "bytes32"
        },
        {
          "internalType": "address",
          "name": "account",
          "type": "address"
        }
      ],
      "name": "grantRole",
      "outputs": [],
      "stateMutability": "nonpayable",
      "type": "function"
    },
    {
      "inputs": [
        {
          "internalType": "bytes32",
          "name": "role",
          "type": "bytes32"
        },
        {
          "internalType": "address",
          "name": "account",
          "type": "address"
        }
      ],
      "name": "hasRole",
      "outputs": [
        {
          "internalType": "bool",
          "name": "",
          "type": "bool"
        }
      ],
      "stateMutability": "view",
      "type": "function"
    },
    {
      "inputs": [
        {
          "internalType": "address",
          "name": "owner",
          "type": "address"
        },
        {
          "internalType": "address",
          "name": "operator",
          "type": "address"
        }
      ],
      "name": "isApprovedForAll",
      "outputs": [
        {
          "internalType": "bool",
          "name": "",
          "type": "bool"
        }
      ],
      "stateMutability": "view",
      "type": "function"
    },
    {
      "inputs": [
        {
          "internalType": "uint256",
          "name": "tokenId",
          "type": "uint256"
        },
        {
          "internalType": "uint256",
          "name": "attrId",
          "type": "uint256"
        },
        {
          "internalType": "uint256",
          "name": "amount",
          "type": "uint256"
        }
      ],
      "name": "mint",
      "outputs": [],
      "stateMutability": "nonpayable",
      "type": "function"
    },
    {
      "inputs": [
        {
          "internalType": "address",
          "name": "to",
          "type": "address"
        }
      ],
      "name": "mint",
      "outputs": [],
      "stateMutability": "nonpayable",
      "type": "function"
    },
    {
      "inputs": [
        {
          "internalType": "uint256",
          "name": "tokenId",
          "type": "uint256"
        },
        {
          "internalType": "uint256[]",
          "name": "attrIds",
          "type": "uint256[]"
        },
        {
          "internalType": "uint256[]",
          "name": "amounts",
          "type": "uint256[]"
        }
      ],
      "name": "mintBatch",
      "outputs": [],
      "stateMutability": "nonpayable",
      "type": "function"
    },
    {
      "inputs": [
        {
          "internalType": "uint256",
          "name": "attrId",
          "type": "uint256"
        }
      ],
      "name": "name",
      "outputs": [
        {
          "internalType": "string",
          "name": "",
          "type": "string"
        }
      ],
      "stateMutability": "view",
      "type": "function"
    },
    {
      "inputs": [],
      "name": "name",
      "outputs": [
        {
          "internalType": "string",
          "name": "",
          "type": "string"
        }
      ],
      "stateMutability": "view",
      "type": "function"
    },
    {
      "inputs": [
        {
          "internalType": "uint256",
          "name": "",
          "type": "uint256"
        },
        {
          "internalType": "uint256",
          "name": "",
          "type": "uint256"
        }
      ],
      "name": "nonces",
      "outputs": [
        {
          "internalType": "uint256",
          "name": "",
          "type": "uint256"
        }
      ],
      "stateMutability": "view",
      "type": "function"
    },
    {
      "inputs": [
        {
          "internalType": "uint256",
          "name": "tokenId",
          "type": "uint256"
        }
      ],
      "name": "ownerOf",
      "outputs": [
        {
          "internalType": "address",
          "name": "",
          "type": "address"
        }
      ],
      "stateMutability": "view",
      "type": "function"
    },
    {
      "inputs": [
        {
          "internalType": "uint256",
          "name": "from",
          "type": "uint256"
        },
        {
          "internalType": "uint256",
          "name": "to",
          "type": "uint256"
        },
        {
          "internalType": "uint256",
          "name": "attrId",
          "type": "uint256"
        },
        {
          "internalType": "uint256",
          "name": "amount",
          "type": "uint256"
        },
        {
          "internalType": "uint256",
          "name": "deadline",
          "type": "uint256"
        },
        {
          "internalType": "bytes",
          "name": "signature",
          "type": "bytes"
        }
      ],
      "name": "permit",
      "outputs": [],
      "stateMutability": "nonpayable",
      "type": "function"
    },
    {
      "inputs": [
        {
          "internalType": "bytes32",
          "name": "role",
          "type": "bytes32"
        },
        {
          "internalType": "address",
          "name": "account",
          "type": "address"
        }
      ],
      "name": "renounceRole",
      "outputs": [],
      "stateMutability": "nonpayable",
      "type": "function"
    },
    {
      "inputs": [
        {
          "internalType": "bytes32",
          "name": "role",
          "type": "bytes32"
        },
        {
          "internalType": "address",
          "name": "account",
          "type": "address"
        }
      ],
      "name": "revokeRole",
      "outputs": [],
      "stateMutability": "nonpayable",
      "type": "function"
    },
    {
      "inputs": [
        {
          "internalType": "address",
          "name": "from",
          "type": "address"
        },
        {
          "internalType": "address",
          "name": "to",
          "type": "address"
        },
        {
          "internalType": "uint256",
          "name": "tokenId",
          "type": "uint256"
        }
      ],
      "name": "safeTransferFrom",
      "outputs": [],
      "stateMutability": "nonpayable",
      "type": "function"
    },
    {
      "inputs": [
        {
          "internalType": "address",
          "name": "from",
          "type": "address"
        },
        {
          "internalType": "address",
          "name": "to",
          "type": "address"
        },
        {
          "internalType": "uint256",
          "name": "tokenId",
          "type": "uint256"
        },
        {
          "internalType": "bytes",
          "name": "_data",
          "type": "bytes"
        }
      ],
      "name": "safeTransferFrom",
      "outputs": [],
      "stateMutability": "nonpayable",
      "type": "function"
    },
    {
      "inputs": [
        {
          "internalType": "address",
          "name": "operator",
          "type": "address"
        },
        {
          "internalType": "bool",
          "name": "approved",
          "type": "bool"
        }
      ],
      "name": "setApprovalForAll",
      "outputs": [],
      "stateMutability": "nonpayable",
      "type": "function"
    },
    {
      "inputs": [
        {
          "internalType": "uint256",
          "name": "attrId",
          "type": "uint256"
        },
        {
          "internalType": "bool",
          "name": "allow",
          "type": "bool"
        }
      ],
      "name": "setAttrTransferAllow",
      "outputs": [],
      "stateMutability": "nonpayable",
      "type": "function"
    },
    {
      "inputs": [
        {
          "internalType": "string",
          "name": "newuri",
          "type": "string"
        }
      ],
      "name": "setBaseURI",
      "outputs": [],
      "stateMutability": "nonpayable",
      "type": "function"
    },
    {
      "inputs": [
        {
          "internalType": "string",
          "name": "newuri",
          "type": "string"
        }
      ],
      "name": "setURI",
      "outputs": [],
      "stateMutability": "nonpayable",
      "type": "function"
    },
    {
      "inputs": [
        {
          "internalType": "bytes4",
          "name": "interfaceId",
          "type": "bytes4"
        }
      ],
      "name": "supportsInterface",
      "outputs": [
        {
          "internalType": "bool",
          "name": "",
          "type": "bool"
        }
      ],
      "stateMutability": "view",
      "type": "function"
    },
    {
      "inputs": [
        {
          "internalType": "uint256",
          "name": "attrId",
          "type": "uint256"
        }
      ],
      "name": "symbol",
      "outputs": [
        {
          "internalType": "string",
          "name": "",
          "type": "string"
        }
      ],
      "stateMutability": "view",
      "type": "function"
    },
    {
      "inputs": [],
      "name": "symbol",
      "outputs": [
        {
          "internalType": "string",
          "name": "",
          "type": "string"
        }
      ],
      "stateMutability": "view",
      "type": "function"
    },
    {
      "inputs": [
        {
          "internalType": "uint256",
          "name": "tokenId",
          "type": "uint256"
        }
      ],
      "name": "tokenURI",
      "outputs": [
        {
          "internalType": "string",
          "name": "",
          "type": "string"
        }
      ],
      "stateMutability": "view",
      "type": "function"
    },
    {
      "inputs": [],
      "name": "totalSupply",
      "outputs": [
        {
          "internalType": "uint256",
          "name": "",
          "type": "uint256"
        }
      ],
      "stateMutability": "view",
      "type": "function"
    },
    {
      "inputs": [
        {
          "internalType": "uint256",
          "name": "attrId",
          "type": "uint256"
        }
      ],
      "name": "totalSupply",
      "outputs": [
        {
          "internalType": "uint256",
          "name": "",
          "type": "uint256"
        }
      ],
      "stateMutability": "view",
      "type": "function"
    },
    {
      "inputs": [
        {
          "internalType": "uint256",
          "name": "from",
          "type": "uint256"
        },
        {
          "internalType": "uint256",
          "name": "to",
          "type": "uint256"
        },
        {
          "internalType": "uint256",
          "name": "attrId",
          "type": "uint256"
        },
        {
          "internalType": "uint256",
          "name": "amount",
          "type": "uint256"
        }
      ],
      "name": "transfer",
      "outputs": [],
      "stateMutability": "nonpayable",
      "type": "function"
    },
    {
      "inputs": [
        {
          "internalType": "address",
          "name": "from",
          "type": "address"
        },
        {
          "internalType": "address",
          "name": "to",
          "type": "address"
        },
        {
          "internalType": "uint256",
          "name": "tokenId",
          "type": "uint256"
        }
      ],
      "name": "transferFrom",
      "outputs": [],
      "stateMutability": "nonpayable",
      "type": "function"
    },
    {
      "inputs": [
        {
          "internalType": "uint256",
          "name": "from",
          "type": "uint256"
        },
        {
          "internalType": "uint256",
          "name": "to",
          "type": "uint256"
        },
        {
          "internalType": "uint256",
          "name": "attrId",
          "type": "uint256"
        },
        {
          "internalType": "uint256",
          "name": "amount",
          "type": "uint256"
        }
      ],
      "name": "transferFrom",
      "outputs": [],
      "stateMutability": "nonpayable",
      "type": "function"
    }
  ],
  "bytecode": "0x6101406040523480156200001257600080fd5b506040518060400160405280600a8152602001692ba2a119a220a7a021a760b11b815250604051806040016040528060038152602001620312e360ec1b8152506040518060400160405280600f81526020016e15d9588cc8111053c810d388139195608a1b81525060405180604001604052806005815260200164574542c2b360d81b8152508160059080519060200190620000b092919062000308565b508051620000c690600690602084019062000308565b5050825160208085019190912083518483012060e08290526101008190524660a0818152604080517f8b73c3c69bb8fe3d512ecc4cf759cc79239f7b179b0ffacaa9a75d522b39400f81880181905281830187905260608201869052608082019490945230818401528151808203909301835260c0019052805194019390932091935091906080523060601b60c05261012052506200016d9250600091503390506200019f565b620001997f9f2df0fed2c77648de5860a4cc508cd0818c85b8b8a1ab4ceeef8d981c8956a6336200019f565b620003eb565b620001ab8282620001af565b5050565b620001c68282620001f260201b62001ad91760201c565b6000828152600c60209081526040909120620001ed91839062001b5f62000296821b17901c565b505050565b6000828152600b602090815260408083206001600160a01b038516845290915290205460ff16620001ab576000828152600b602090815260408083206001600160a01b03851684529091529020805460ff19166001179055620002523390565b6001600160a01b0316816001600160a01b0316837f2f8788117e7eff1d82e926ec794901d17c78024a50270940304540a733656f0d60405160405180910390a45050565b6000620002ad836001600160a01b038416620002b6565b90505b92915050565b6000818152600183016020526040812054620002ff57508154600181810184556000848152602080822090930184905584548482528286019093526040902091909155620002b0565b506000620002b0565b8280546200031690620003ae565b90600052602060002090601f0160209004810192826200033a576000855562000385565b82601f106200035557805160ff191683800117855562000385565b8280016001018555821562000385579182015b828111156200038557825182559160200191906001019062000368565b506200039392915062000397565b5090565b5b8082111562000393576000815560010162000398565b600181811c90821680620003c357607f821691505b60208210811415620003e557634e487b7160e01b600052602260045260246000fd5b50919050565b60805160a05160c05160601c60e051610100516101205161495a6200043e6000396000613399015260006133e8015260006133c30152600061331c0152600061334601526000613370015261495a6000f3fe608060405234801561001057600080fd5b50600436106102ba5760003560e01c806378cc520d11610182578063bd85b039116100e9578063e15fe34f116100a2578063eb3b65771161007c578063eb3b6577146106c1578063f030ba63146106d4578063f0377457146106e7578063f371efa4146106fa57600080fd5b8063e15fe34f14610648578063e985e9c51461065b578063ea6996331461069757600080fd5b8063bd85b039146105c7578063c87b56dd146105e7578063ca15c873146105fa578063cd2e2c241461060d578063d539139314610620578063d547741f1461063557600080fd5b806391d148541161013b57806391d148541461056b57806395d89b411461057e5780639bc5ae5414610586578063a217fddf14610599578063a22cb465146105a1578063b88d4fde146105b457600080fd5b806378cc520d146104d15780637cba8598146104f45780637dfea69c146105075780638856f779146105325780639010d07c1461054557806391a2c83c1461055857600080fd5b80632f94e4aa116102265780635d126110116101df5780635d1261101461045d5780636352211e1461047d5780636a627842146104905780636c0360eb146104a35780636c06296c146104ab57806370a08231146104be57600080fd5b80632f94e4aa146103eb57806336568abe146103fe57806336cca0be1461041157806342842e0e146104245780634e41a1fb1461043757806355f804b31461044a57600080fd5b8063081812fc11610278578063081812fc1461034e578063095ea7b31461037957806318160ddd1461038c57806323b872dd146103a2578063248a9ca3146103b55780632f2ff15d146103d857600080fd5b8062ad800c146102bf57806301ffc9a7146102e857806302acc94b1461030b57806302fe53051461032057806305a100281461033357806306fdde0314610346575b600080fd5b6102d26102cd366004613f76565b61071f565b6040516102df91906144b3565b60405180910390f35b6102fb6102f6366004613fd1565b61083c565b60405190151581526020016102df565b61031e6103193660046141ad565b61084d565b005b61031e61032e366004614009565b610891565b61031e6103413660046141ad565b6108d1565b6102d2610910565b61036161035c366004613f76565b6109a2565b6040516001600160a01b0390911681526020016102df565b61031e610387366004613e28565b610a37565b610394610b48565b6040519081526020016102df565b61031e6103b0366004613d5f565b610b58565b6103946103c3366004613f76565b6000908152600b602052604090206001015490565b61031e6103e6366004613f8e565b610b89565b61031e6103f9366004613e51565b610baf565b61031e61040c366004613f8e565b610d6a565b61031e61041f36600461410f565b610de8565b61031e610432366004613d5f565b610e30565b6102d2610445366004613f76565b610e4b565b61031e610458366004614009565b610ee4565b61047061046b36600461403b565b610f2b565b6040516102df919061447b565b61036161048b366004613f76565b611017565b61031e61049e366004613d13565b61108e565b6102d26110e2565b61031e6104b93660046141d8565b611170565b6103946104cc366004613d13565b6111ad565b6102fb6104df366004613f76565b60106020526000908152604090205460ff1681565b61031e6105023660046141d8565b611234565b610394610515366004613fb0565b600f60209081526000928352604080842090915290825290205481565b61031e6105403660046141d8565b611271565b610361610553366004613fb0565b6113a0565b61031e610566366004614084565b6113bf565b6102fb610579366004613f8e565b6113fe565b6102d2611429565b6102d2610594366004613f76565b611438565b610394600081565b61031e6105af366004613dff565b6115d5565b61031e6105c2366004613d9a565b6115e0565b6103946105d5366004613f76565b60009081526004602052604090205490565b6102d26105f5366004613f76565b611618565b610394610608366004613f76565b6116cb565b61031e61061b366004613e92565b6116e2565b61039460008051602061490583398151915281565b61031e610643366004613f8e565b61177e565b6103946106563660046141ad565b6117a4565b6102fb610669366004613d2d565b6001600160a01b039182166000908152600a6020908152604080832093909416825291909152205460ff1690565b6103946106a5366004613fb0565b6000908152600260209081526040808320938352929052205490565b61031e6106cf366004614209565b611805565b61031e6106e2366004614084565b61197a565b61031e6106f53660046140ed565b6119b9565b61070d610708366004613f76565b611a46565b60405160ff90911681526020016102df565b60008181526001602052604090206004015460609060ff1661079e5760405162461bcd60e51b815260206004820152602d60248201527f455243333636343a206e616d6520717565727920666f72206e6f6e657869737460448201526c656e742061747472696275746560981b60648201526084015b60405180910390fd5b600082815260016020526040902080546107b790614848565b80601f01602080910402602001604051908101604052809291908181526020018280546107e390614848565b80156108305780601f1061080557610100808354040283529160200191610830565b820191906000526020600020905b81548152906001019060200180831161081357829003601f168201915b50505050509050919050565b600061084782611b74565b92915050565b610865600080516020614905833981519152336113fe565b6108815760405162461bcd60e51b815260040161079590614693565b61088c838383611b99565b505050565b6108a9600080516020614905833981519152336113fe565b6108c55760405162461bcd60e51b815260040161079590614693565b6108ce81611cce565b50565b6108e9600080516020614905833981519152336113fe565b6109055760405162461bcd60e51b815260040161079590614693565b61088c838383611ce1565b60606005805461091f90614848565b80601f016020809104026020016040519081016040528092919081815260200182805461094b90614848565b80156109985780601f1061096d57610100808354040283529160200191610998565b820191906000526020600020905b81548152906001019060200180831161097b57829003601f168201915b5050505050905090565b6000818152600760205260408120546001600160a01b0316610a1b5760405162461bcd60e51b815260206004820152602c60248201527f4552433732313a20617070726f76656420717565727920666f72206e6f6e657860448201526b34b9ba32b73a103a37b5b2b760a11b6064820152608401610795565b506000908152600960205260409020546001600160a01b031690565b6000610a4282611017565b9050806001600160a01b0316836001600160a01b03161415610ab05760405162461bcd60e51b815260206004820152602160248201527f4552433732313a20617070726f76616c20746f2063757272656e74206f776e656044820152603960f91b6064820152608401610795565b336001600160a01b0382161480610acc5750610acc8133610669565b610b3e5760405162461bcd60e51b815260206004820152603860248201527f4552433732313a20617070726f76652063616c6c6572206973206e6f74206f7760448201527f6e6572206e6f7220617070726f76656420666f7220616c6c00000000000000006064820152608401610795565b61088c8383611e45565b6000610b53600e5490565b905090565b610b623382611eb3565b610b7e5760405162461bcd60e51b815260040161079590614642565b61088c838383611faa565b6000828152600b6020526040902060010154610ba58133612155565b61088c83836121b9565b83610bfc5760405162461bcd60e51b815260206004820181905260248201527f455243333636343a207472616e736665722066726f6d20746865207a65726f206044820152606401610795565b82610c495760405162461bcd60e51b815260206004820152601e60248201527f455243333636343a207472616e7366657220746f20746865207a65726f2000006044820152606401610795565b610c668585858585604051806020016040528060008152506121db565b600082815260026020908152604080832087845290915290205481811015610ce15760405162461bcd60e51b815260206004820152602860248201527f455243333636343a207472616e7366657220616d6f756e7420657863656564736044820152672062616c616e636560c01b6064820152608401610795565b6000838152600260209081526040808320888452909152808220848403905585825281208054849290610d1590849061472e565b90915550506040805184815260208101849052859187916001600160a01b038a16917f73b5fbfbf0177b0de2ffe9fd0ae9887dd73d0d865db7ab5ff3c4a6b9bb8db1e3910160405180910390a4505050505050565b6001600160a01b0381163314610dda5760405162461bcd60e51b815260206004820152602f60248201527f416363657373436f6e74726f6c3a2063616e206f6e6c792072656e6f756e636560448201526e103937b632b9903337b91039b2b63360891b6064820152608401610795565b610de4828261226b565b5050565b610e00600080516020614905833981519152336113fe565b610e1c5760405162461bcd60e51b815260040161079590614693565b610e29858585858561228d565b5050505050565b61088c838383604051806020016040528060008152506115e0565b60008181526001602052604090206004015460609060ff16610ec75760405162461bcd60e51b815260206004820152602f60248201527f455243333636343a2073796d626f6c20717565727920666f72206e6f6e65786960448201526e7374656e742061747472696275746560881b6064820152608401610795565b60008281526001602081905260409091200180546107b790614848565b610efc600080516020614905833981519152336113fe565b610f185760405162461bcd60e51b815260040161079590614693565b8051610de490600d906020840190613abe565b60606000826001600160401b03811115610f5557634e487b7160e01b600052604160045260246000fd5b604051908082528060200260200182016040528015610f7e578160200160208202803683370190505b50905060005b8381101561100e57610fd386868684818110610fb057634e487b7160e01b600052603260045260246000fd5b905060200201356000908152600260209081526040808320938352929052205490565b828281518110610ff357634e487b7160e01b600052603260045260246000fd5b60209081029190910101526110078161487d565b9050610f84565b50949350505050565b6000818152600760205260408120546001600160a01b0316806108475760405162461bcd60e51b815260206004820152602960248201527f4552433732313a206f776e657220717565727920666f72206e6f6e657869737460448201526832b73a103a37b5b2b760b91b6064820152608401610795565b6110a6600080516020614905833981519152336113fe565b6110c25760405162461bcd60e51b815260040161079590614693565b6110d0600e80546001019055565b6108ce816110dd600e5490565b6123fa565b600d80546110ef90614848565b80601f016020809104026020016040519081016040528092919081815260200182805461111b90614848565b80156111685780601f1061113d57610100808354040283529160200191611168565b820191906000526020600020905b81548152906001019060200180831161114b57829003601f168201915b505050505081565b833361117b82611017565b6001600160a01b0316146111a15760405162461bcd60e51b8152600401610795906145fb565b610e2985858585612414565b60006001600160a01b0382166112185760405162461bcd60e51b815260206004820152602a60248201527f4552433732313a2062616c616e636520717565727920666f7220746865207a65604482015269726f206164647265737360b01b6064820152608401610795565b506001600160a01b031660009081526008602052604090205490565b833361123f82611017565b6001600160a01b0316146112655760405162461bcd60e51b8152600401610795906145fb565b610e2985858585612420565b3361127f8186868686610baf565b60006003600085886040516020016112a1929190918252602082015260400190565b60405160208183030381529060405280519060200120815260200190815260200160002060008681526020019081526020016000205490508281101561133c5760405162461bcd60e51b815260206004820152602a60248201527f455243333636343a207472616e7366657220616d6f756e74206578636565647360448201526920616c6c6f77616e636560b01b6064820152608401610795565b82810360036000868960405160200161135f929190918252602082015260400190565b604051602081830303815290604052805190602001208152602001908152602001600020600087815260200190815260200160002081905550505050505050565b6000828152600c602052604081206113b8908361242e565b9392505050565b6113d7600080516020614905833981519152336113fe565b6113f35760405162461bcd60e51b815260040161079590614693565b61088c83838361243a565b6000918252600b602090815260408084206001600160a01b0393909316845291905290205460ff1690565b60606006805461091f90614848565b60008181526001602052604090206004015460609060ff166114b15760405162461bcd60e51b815260206004820152602c60248201527f455243333636343a2055524920717565727920666f72206e6f6e65786973746560448201526b6e742061747472696275746560a01b6064820152608401610795565b600082815260016020526040812060030180546114cd90614848565b80601f01602080910402602001604051908101604052809291908181526020018280546114f990614848565b80156115465780601f1061151b57610100808354040283529160200191611546565b820191906000526020600020905b81548152906001019060200180831161152957829003601f168201915b505050505090506000815111156115895780611561846126b7565b6040516020016115729291906142f4565b604051602081830303815290604052915050919050565b600080805461159790614848565b9050116115b357604051806020016040528060008152506113b8565b60006115be846126b7565b604051602001611572929190614323565b50919050565b610de43383836127d0565b6115ea3383611eb3565b6116065760405162461bcd60e51b815260040161079590614642565b6116128484848461289f565b50505050565b6000818152600760205260409020546060906001600160a01b03166116975760405162461bcd60e51b815260206004820152602f60248201527f4552433732314d657461646174613a2055524920717565727920666f72206e6f60448201526e3732bc34b9ba32b73a103a37b5b2b760891b6064820152608401610795565b60006116a16128d2565b905060008151116116c157604051806020016040528060008152506113b8565b80611561846126b7565b6000818152600c60205260408120610847906128e1565b6116fa600080516020614905833981519152336113fe565b6117165760405162461bcd60e51b815260040161079590614693565b61177389898080602002602001604051908101604052809392919081815260200183836020028082843760009201919091525061175992508a91508b9050614790565b6117638789614790565b8661176e8688614790565b6128eb565b505050505050505050565b6000828152600b602052604090206001015461179a8133612155565b61088c838361226b565b60006003600083866040516020016117c6929190918252602082015260400190565b60405160208183030381529060405280519060200120815260200190815260200160002060008481526020019081526020016000205490509392505050565b428210156118475760405162461bcd60e51b815260206004820152600f60248201526e14195c9b5a5d0e8811561412549151608a1b6044820152606401610795565b6000868152600f60209081526040808320878452909152812080547fedb881509fc5465195dc9bfc1d6221846dfc170c7020e3fa27e82a60a8f7bfd1918991899189918991899190886118998361487d565b909155506040805160208101989098528701959095526060860193909352608085019190915260a084015260c083015260e08201526101000160405160208183030381529060405280519060200120905060006118f582612b04565b905060006119038285612b52565b9050806001600160a01b03166119188a611017565b6001600160a01b03161461196e5760405162461bcd60e51b815260206004820152601960248201527f5065726d69743a20696e76616c6964207369676e6174757265000000000000006044820152606401610795565b61177389898989612b76565b611992600080516020614905833981519152336113fe565b6119ae5760405162461bcd60e51b815260040161079590614693565b61088c838383612cb2565b6119d1600080516020614905833981519152336113fe565b6119ed5760405162461bcd60e51b815260040161079590614693565b600082815260106020908152604091829020805460ff19168415159081179091558251858152918201527ffd52edd8c6dd48138bc80a665216a16ba2beb45a076f16a0ecf317ef3cd0499e910160405180910390a15050565b60008181526001602052604081206004015460ff16611ac05760405162461bcd60e51b815260206004820152603060248201527f455243333636343a20646563696d616c20717565727920666f72206e6f6e657860448201526f697374656e742061747472696275746560801b6064820152608401610795565b5060009081526001602052604090206002015460ff1690565b611ae382826113fe565b610de4576000828152600b602090815260408083206001600160a01b03851684529091529020805460ff19166001179055611b1b3390565b6001600160a01b0316816001600160a01b0316837f2f8788117e7eff1d82e926ec794901d17c78024a50270940304540a733656f0d60405160405180910390a45050565b60006113b8836001600160a01b038416612e58565b60006001600160e01b03198216635a05180f60e01b1480610847575061084782612ea7565b60008281526001602052604090206004015460ff16611c0a5760405162461bcd60e51b815260206004820152602760248201527f455243333636343a206d696e7420666f72206e6f6e6578697374656e742061746044820152667472696275746560c81b6064820152608401610795565b6000339050611c2d816000868686604051806020016040528060008152506121db565b60008381526004602052604081208054849290611c4b90849061472e565b9091555050600083815260026020908152604080832087845290915281208054849290611c7990849061472e565b9091555050604080518481526020810184905285916000916001600160a01b038516917f73b5fbfbf0177b0de2ffe9fd0ae9887dd73d0d865db7ab5ff3c4a6b9bb8db1e391015b60405180910390a450505050565b8051610de4906000906020840190613abe565b60008281526001602052604090206004015460ff16611d525760405162461bcd60e51b815260206004820152602760248201527f455243333636343a206275726e20666f72206e6f6e6578697374656e742061746044820152667472696275746560c81b6064820152608401610795565b6000339050611d75818560008686604051806020016040528060008152506121db565b600083815260026020908152604080832087845290915290205482811015611daf5760405162461bcd60e51b815260040161079590614513565b611db98382614779565b6000858152600260209081526040808320898452825280832093909355868252600490529081208054859290611df0908490614779565b9091555050604080518581526020810185905260009187916001600160a01b038616917f73b5fbfbf0177b0de2ffe9fd0ae9887dd73d0d865db7ab5ff3c4a6b9bb8db1e3910160405180910390a45050505050565b600081815260096020526040902080546001600160a01b0319166001600160a01b0384169081179091558190611e7a82611017565b6001600160a01b03167f8c5be1e5ebec7d5bd14f71427d1e84f3dd0314c0f7b2291e5b200ac8c7c3b92560405160405180910390a45050565b6000818152600760205260408120546001600160a01b0316611f2c5760405162461bcd60e51b815260206004820152602c60248201527f4552433732313a206f70657261746f7220717565727920666f72206e6f6e657860448201526b34b9ba32b73a103a37b5b2b760a11b6064820152608401610795565b6000611f3783611017565b9050806001600160a01b0316846001600160a01b03161480611f725750836001600160a01b0316611f67846109a2565b6001600160a01b0316145b80611fa257506001600160a01b038082166000908152600a602090815260408083209388168352929052205460ff165b949350505050565b826001600160a01b0316611fbd82611017565b6001600160a01b0316146120255760405162461bcd60e51b815260206004820152602960248201527f4552433732313a207472616e73666572206f6620746f6b656e2074686174206960448201526839903737ba1037bbb760b91b6064820152608401610795565b6001600160a01b0382166120875760405162461bcd60e51b8152602060048201526024808201527f4552433732313a207472616e7366657220746f20746865207a65726f206164646044820152637265737360e01b6064820152608401610795565b612092838383612ecc565b61209d600082611e45565b6001600160a01b03831660009081526008602052604081208054600192906120c6908490614779565b90915550506001600160a01b03821660009081526008602052604081208054600192906120f490849061472e565b909155505060008181526007602052604080822080546001600160a01b0319166001600160a01b0386811691821790925591518493918716917fddf252ad1be2c89b69c2b068fc378daa952ba7f163c4a11628f55a4df523b3ef91a4505050565b61215f82826113fe565b610de457612177816001600160a01b03166014612f3a565b612182836020612f3a565b6040516020016121939291906143c9565b60408051601f198184030181529082905262461bcd60e51b8252610795916004016144b3565b6121c38282611ad9565b6000828152600c6020526040902061088c9082611b5f565b6121f3600080516020614905833981519152876113fe565b8061220c575060008381526010602052604090205460ff165b6122635760405162461bcd60e51b815260206004820152602260248201527f5765623344414f434e3a2041747472207472616e73666572206e6f7420616c6c6044820152616f7760f01b6064820152608401610795565b505050505050565b612275828261311b565b6000828152600c6020526040902061088c9082613182565b60008581526001602052604090206004015460ff16156122f95760405162461bcd60e51b815260206004820152602160248201527f455243333636343a2061747472696275746520616c72656164792065786973746044820152607360f81b6064820152608401610795565b6040805160a081018252858152602080820186905260ff8516828401526060820184905260016080830181905260008981529082529290922081518051929384936123479284920190613abe565b5060208281015180516123609260018501920190613abe565b50604082015160028201805460ff191660ff90921691909117905560608201518051612396916003840191602090910190613abe565b50608091909101516004909101805460ff191691151591909117905560405186907f98fe0a4bf3a5354178c124c36fe2ec9f103adaba8905e75f72cb6900c6f94986906123ea9088908890889088906144c6565b60405180910390a2505050505050565b610de4828260405180602001604052806000815250613197565b61161284848484612b76565b33610e298186868686610baf565b60006113b883836131ca565b805182511461245b5760405162461bcd60e51b81526004016107959061455d565b3360005b8351811015612678576124d48286600087858151811061248f57634e487b7160e01b600052603260045260246000fd5b60200260200101518786815181106124b757634e487b7160e01b600052603260045260246000fd5b6020026020010151604051806020016040528060008152506121db565b6000600260008684815181106124fa57634e487b7160e01b600052603260045260246000fd5b60200260200101518152602001908152602001600020600087815260200190815260200160002054905083828151811061254457634e487b7160e01b600052603260045260246000fd5b602002602001015181101561256b5760405162461bcd60e51b815260040161079590614513565b83828151811061258b57634e487b7160e01b600052603260045260246000fd5b60200260200101518161259e9190614779565b600260008785815181106125c257634e487b7160e01b600052603260045260246000fd5b6020026020010151815260200190815260200160002060008881526020019081526020016000208190555083828151811061260d57634e487b7160e01b600052603260045260246000fd5b60200260200101516004600087858151811061263957634e487b7160e01b600052603260045260246000fd5b60200260200101518152602001908152602001600020600082825461265e9190614779565b9091555082915061267090508161487d565b91505061245f565b50600084826001600160a01b03167fbfb4d8e5891aebe97980c97616b6b0af2006a58ccabe6e1b7e3da24d0906a8568686604051611cc092919061448e565b6060816126db5750506040805180820190915260018152600360fc1b602082015290565b8160005b811561270557806126ef8161487d565b91506126fe9050600a83614746565b91506126df565b6000816001600160401b0381111561272d57634e487b7160e01b600052604160045260246000fd5b6040519080825280601f01601f191660200182016040528015612757576020820181803683370190505b5090505b8415611fa25761276c600183614779565b9150612779600a86614898565b61278490603061472e565b60f81b8183815181106127a757634e487b7160e01b600052603260045260246000fd5b60200101906001600160f81b031916908160001a9053506127c9600a86614746565b945061275b565b816001600160a01b0316836001600160a01b031614156128325760405162461bcd60e51b815260206004820152601960248201527f4552433732313a20617070726f766520746f2063616c6c6572000000000000006044820152606401610795565b6001600160a01b038381166000818152600a6020908152604080832094871680845294825291829020805460ff191686151590811790915591519182527f17307eab39ab6107e8899845ad3d59bd9653f200f220920489ca2b5937696c31910160405180910390a3505050565b6128aa848484611faa565b6128b684848484613202565b6116125760405162461bcd60e51b8152600401610795906145a9565b6060600d805461091f90614848565b6000610847825490565b835185511461294f5760405162461bcd60e51b815260206004820152602a60248201527f455243333636343a206174747249647320616e64206e616d6573206c656e67746044820152690d040dad2e6dac2e8c6d60b31b6064820152608401610795565b82518451146129b35760405162461bcd60e51b815260206004820152602a60248201527f455243333636343a206e616d657320616e642073796d626f6c73206c656e67746044820152690d040dad2e6dac2e8c6d60b31b6064820152608401610795565b8051835114612a165760405162461bcd60e51b815260206004820152602960248201527f455243333636343a2073796d626f6c7320616e642075726973206c656e677468604482015268040dad2e6dac2e8c6d60bb1b6064820152608401610795565b60005b855181101561226357612af2868281518110612a4557634e487b7160e01b600052603260045260246000fd5b6020026020010151868381518110612a6d57634e487b7160e01b600052603260045260246000fd5b6020026020010151868481518110612a9557634e487b7160e01b600052603260045260246000fd5b6020026020010151868581518110612abd57634e487b7160e01b600052603260045260246000fd5b6020026020010151868681518110612ae557634e487b7160e01b600052603260045260246000fd5b602002602001015161228d565b80612afc8161487d565b915050612a19565b6000610847612b1161330f565b8360405161190160f01b6020820152602281018390526042810182905260009060620160405160208183030381529060405280519060200120905092915050565b6000806000612b618585613436565b91509150612b6e816134a6565b509392505050565b83612bc35760405162461bcd60e51b815260206004820152601f60248201527f455243333636343a20617070726f76652066726f6d20746865207a65726f20006044820152606401610795565b82612c105760405162461bcd60e51b815260206004820152601d60248201527f455243333636343a20617070726f766520746f20746865207a65726f200000006044820152606401610795565b80600360008487604051602001612c31929190918252602082015260400190565b60408051601f19818403018152918152815160209283012083528282019390935290820160009081208782528252829020929092558051868152918201859052818101849052606082018390525133917f4f3267cf1b4f4eda70a80ac65e00830cf370b07c616b8e687c172b69bb15a190919081900360800190a250505050565b8051825114612cd35760405162461bcd60e51b81526004016107959061455d565b3360005b8351811015612e1957612d078286600087858151811061248f57634e487b7160e01b600052603260045260246000fd5b828181518110612d2757634e487b7160e01b600052603260045260246000fd5b602002602001015160046000868481518110612d5357634e487b7160e01b600052603260045260246000fd5b602002602001015181526020019081526020016000206000828254612d78919061472e565b92505081905550828181518110612d9f57634e487b7160e01b600052603260045260246000fd5b602002602001015160026000868481518110612dcb57634e487b7160e01b600052603260045260246000fd5b6020026020010151815260200190815260200160002060008781526020019081526020016000206000828254612e01919061472e565b90915550819050612e118161487d565b915050612cd7565b50836000826001600160a01b03167fbfb4d8e5891aebe97980c97616b6b0af2006a58ccabe6e1b7e3da24d0906a8568686604051611cc092919061448e565b6000818152600183016020526040812054612e9f57508154600181810184556000848152602080822090930184905584548482528286019093526040902091909155610847565b506000610847565b60006001600160e01b03198216637965db0b60e01b14806108475750610847826136a7565b612ed5826111ad565b1561088c5760405162461bcd60e51b815260206004820152602f60248201527f5765623344414f434e3a204561636820616464726573732063616e206f6e6c7960448201526e103430bb329037b732902a37b5b2b760891b6064820152608401610795565b60606000612f4983600261475a565b612f5490600261472e565b6001600160401b03811115612f7957634e487b7160e01b600052604160045260246000fd5b6040519080825280601f01601f191660200182016040528015612fa3576020820181803683370190505b509050600360fc1b81600081518110612fcc57634e487b7160e01b600052603260045260246000fd5b60200101906001600160f81b031916908160001a905350600f60fb1b8160018151811061300957634e487b7160e01b600052603260045260246000fd5b60200101906001600160f81b031916908160001a905350600061302d84600261475a565b61303890600161472e565b90505b60018111156130cc576f181899199a1a9b1b9c1cb0b131b232b360811b85600f166010811061307a57634e487b7160e01b600052603260045260246000fd5b1a60f81b82828151811061309e57634e487b7160e01b600052603260045260246000fd5b60200101906001600160f81b031916908160001a90535060049490941c936130c581614831565b905061303b565b5083156113b85760405162461bcd60e51b815260206004820181905260248201527f537472696e67733a20686578206c656e67746820696e73756666696369656e746044820152606401610795565b61312582826113fe565b15610de4576000828152600b602090815260408083206001600160a01b0385168085529252808320805460ff1916905551339285917ff6391f5c32d9c69d2a47ea670b442974b53935d1edc7fd64eb21e047a839171b9190a45050565b60006113b8836001600160a01b0384166136e7565b6131a18383613804565b6131ae6000848484613202565b61088c5760405162461bcd60e51b8152600401610795906145a9565b60008260000182815481106131ef57634e487b7160e01b600052603260045260246000fd5b9060005260206000200154905092915050565b60006001600160a01b0384163b1561330457604051630a85bd0160e11b81526001600160a01b0385169063150b7a029061324690339089908890889060040161443e565b602060405180830381600087803b15801561326057600080fd5b505af1925050508015613290575060408051601f3d908101601f1916820190925261328d91810190613fed565b60015b6132ea573d8080156132be576040519150601f19603f3d011682016040523d82523d6000602084013e6132c3565b606091505b5080516132e25760405162461bcd60e51b8152600401610795906145a9565b805181602001fd5b6001600160e01b031916630a85bd0160e11b149050611fa2565b506001949350505050565b6000306001600160a01b037f00000000000000000000000000000000000000000000000000000000000000001614801561336857507f000000000000000000000000000000000000000000000000000000000000000046145b1561339257507f000000000000000000000000000000000000000000000000000000000000000090565b50604080517f00000000000000000000000000000000000000000000000000000000000000006020808301919091527f0000000000000000000000000000000000000000000000000000000000000000828401527f000000000000000000000000000000000000000000000000000000000000000060608301524660808301523060a0808401919091528351808403909101815260c0909201909252805191012090565b60008082516041141561346d5760208301516040840151606085015160001a61346187828585613952565b9450945050505061349f565b825160401415613497576020830151604084015161348c868383613a3f565b93509350505061349f565b506000905060025b9250929050565b60008160048111156134c857634e487b7160e01b600052602160045260246000fd5b14156134d15750565b60018160048111156134f357634e487b7160e01b600052602160045260246000fd5b14156135415760405162461bcd60e51b815260206004820152601860248201527f45434453413a20696e76616c6964207369676e617475726500000000000000006044820152606401610795565b600281600481111561356357634e487b7160e01b600052602160045260246000fd5b14156135b15760405162461bcd60e51b815260206004820152601f60248201527f45434453413a20696e76616c6964207369676e6174757265206c656e677468006044820152606401610795565b60038160048111156135d357634e487b7160e01b600052602160045260246000fd5b141561362c5760405162461bcd60e51b815260206004820152602260248201527f45434453413a20696e76616c6964207369676e6174757265202773272076616c604482015261756560f01b6064820152608401610795565b600481600481111561364e57634e487b7160e01b600052602160045260246000fd5b14156108ce5760405162461bcd60e51b815260206004820152602260248201527f45434453413a20696e76616c6964207369676e6174757265202776272076616c604482015261756560f01b6064820152608401610795565b60006001600160e01b031982166380ac58cd60e01b14806136d857506001600160e01b03198216635b5e139f60e01b145b80610847575061084782613a6e565b600081815260018301602052604081205480156137fa57600061370b600183614779565b855490915060009061371f90600190614779565b90508181146137a057600086600001828154811061374d57634e487b7160e01b600052603260045260246000fd5b906000526020600020015490508087600001848154811061377e57634e487b7160e01b600052603260045260246000fd5b6000918252602080832090910192909255918252600188019052604090208390555b85548690806137bf57634e487b7160e01b600052603160045260246000fd5b600190038181906000526020600020016000905590558560010160008681526020019081526020016000206000905560019350505050610847565b6000915050610847565b6001600160a01b03821661385a5760405162461bcd60e51b815260206004820181905260248201527f4552433732313a206d696e7420746f20746865207a65726f20616464726573736044820152606401610795565b6000818152600760205260409020546001600160a01b0316156138bf5760405162461bcd60e51b815260206004820152601c60248201527f4552433732313a20746f6b656e20616c7265616479206d696e746564000000006044820152606401610795565b6138cb60008383612ecc565b6001600160a01b03821660009081526008602052604081208054600192906138f490849061472e565b909155505060008181526007602052604080822080546001600160a01b0319166001600160a01b03861690811790915590518392907fddf252ad1be2c89b69c2b068fc378daa952ba7f163c4a11628f55a4df523b3ef908290a45050565b6000807f7fffffffffffffffffffffffffffffff5d576e7357a4501ddfe92f46681b20a08311156139895750600090506003613a36565b8460ff16601b141580156139a157508460ff16601c14155b156139b25750600090506004613a36565b6040805160008082526020820180845289905260ff881692820192909252606081018690526080810185905260019060a0016020604051602081039080840390855afa158015613a06573d6000803e3d6000fd5b5050604051601f1901519150506001600160a01b038116613a2f57600060019250925050613a36565b9150600090505b94509492505050565b6000806001600160ff1b03831660ff84901c601b01613a6087828885613952565b935093505050935093915050565b60006001600160e01b03198216630e697ffb60e31b1480613a9f57506001600160e01b03198216632658600760e01b145b8061084757506301ffc9a760e01b6001600160e01b0319831614610847565b828054613aca90614848565b90600052602060002090601f016020900481019282613aec5760008555613b32565b82601f10613b0557805160ff1916838001178555613b32565b82800160010185558215613b32579182015b82811115613b32578251825591602001919060010190613b17565b50613b3e929150613b42565b5090565b5b80821115613b3e5760008155600101613b43565b80356001600160a01b0381168114613b6e57600080fd5b919050565b60008083601f840112613b84578182fd5b5081356001600160401b03811115613b9a578182fd5b6020830191508360208260051b850101111561349f57600080fd5b600082601f830112613bc5578081fd5b81356020613bda613bd58361470b565b6146db565b80838252828201915082860187848660051b8901011115613bf9578586fd5b855b85811015613c1757813584529284019290840190600101613bfb565b5090979650505050505050565b600082601f830112613c34578081fd5b81356020613c44613bd58361470b565b80838252828201915082860187848660051b8901011115613c63578586fd5b855b85811015613c1757613c7682613d02565b84529284019290840190600101613c65565b80358015158114613b6e57600080fd5b600082601f830112613ca8578081fd5b81356001600160401b03811115613cc157613cc16148d8565b613cd4601f8201601f19166020016146db565b818152846020838601011115613ce8578283fd5b816020850160208301379081016020019190915292915050565b803560ff81168114613b6e57600080fd5b600060208284031215613d24578081fd5b6113b882613b57565b60008060408385031215613d3f578081fd5b613d4883613b57565b9150613d5660208401613b57565b90509250929050565b600080600060608486031215613d73578081fd5b613d7c84613b57565b9250613d8a60208501613b57565b9150604084013590509250925092565b60008060008060808587031215613daf578081fd5b613db885613b57565b9350613dc660208601613b57565b92506040850135915060608501356001600160401b03811115613de7578182fd5b613df387828801613c98565b91505092959194509250565b60008060408385031215613e11578182fd5b613e1a83613b57565b9150613d5660208401613c88565b60008060408385031215613e3a578182fd5b613e4383613b57565b946020939093013593505050565b600080600080600060a08688031215613e68578283fd5b613e7186613b57565b97602087013597506040870135966060810135965060800135945092505050565b600080600080600080600080600060a08a8c031215613eaf578687fd5b89356001600160401b0380821115613ec5578889fd5b613ed18d838e01613b73565b909b50995060208c0135915080821115613ee9578889fd5b613ef58d838e01613b73565b909950975060408c0135915080821115613f0d578586fd5b613f198d838e01613b73565b909750955060608c0135915080821115613f31578485fd5b613f3d8d838e01613c24565b945060808c0135915080821115613f52578384fd5b50613f5f8c828d01613b73565b915080935050809150509295985092959850929598565b600060208284031215613f87578081fd5b5035919050565b60008060408385031215613fa0578182fd5b82359150613d5660208401613b57565b60008060408385031215613fc2578182fd5b50508035926020909101359150565b600060208284031215613fe2578081fd5b81356113b8816148ee565b600060208284031215613ffe578081fd5b81516113b8816148ee565b60006020828403121561401a578081fd5b81356001600160401b0381111561402f578182fd5b611fa284828501613c98565b60008060006040848603121561404f578081fd5b8335925060208401356001600160401b0381111561406b578182fd5b61407786828701613b73565b9497909650939450505050565b600080600060608486031215614098578081fd5b8335925060208401356001600160401b03808211156140b5578283fd5b6140c187838801613bb5565b935060408601359150808211156140d6578283fd5b506140e386828701613bb5565b9150509250925092565b600080604083850312156140ff578182fd5b82359150613d5660208401613c88565b600080600080600060a08688031215614126578283fd5b8535945060208601356001600160401b0380821115614143578485fd5b61414f89838a01613c98565b95506040880135915080821115614164578485fd5b61417089838a01613c98565b945061417e60608901613d02565b93506080880135915080821115614193578283fd5b506141a088828901613c98565b9150509295509295909350565b6000806000606084860312156141c1578081fd5b505081359360208301359350604090920135919050565b600080600080608085870312156141ed578182fd5b5050823594602084013594506040840135936060013592509050565b60008060008060008060c08789031215614221578384fd5b863595506020870135945060408701359350606087013592506080870135915060a08701356001600160401b03811115614259578182fd5b61426589828a01613c98565b9150509295509295509295565b6000815180845260208085019450808401835b838110156142a157815187529582019590820190600101614285565b509495945050505050565b600081518084526142c4816020860160208601614805565b601f01601f19169290920160200192915050565b600081516142ea818560208601614805565b9290920192915050565b60008351614306818460208801614805565b83519083019061431a818360208801614805565b01949350505050565b600080845482600182811c91508083168061433f57607f831692505b602080841082141561435f57634e487b7160e01b87526022600452602487fd5b8180156143735760018114614384576143b0565b60ff198616895284890196506143b0565b60008b815260209020885b868110156143a85781548b82015290850190830161438f565b505084890196505b5050505050506143c081856142d8565b95945050505050565b7f416363657373436f6e74726f6c3a206163636f756e7420000000000000000000815260008351614401816017850160208801614805565b7001034b99036b4b9b9b4b733903937b6329607d1b6017918401918201528351614432816028840160208801614805565b01602801949350505050565b6001600160a01b0385811682528416602082015260408101839052608060608201819052600090614471908301846142ac565b9695505050505050565b6020815260006113b86020830184614272565b6040815260006144a16040830185614272565b82810360208401526143c08185614272565b6020815260006113b860208301846142ac565b6080815260006144d960808301876142ac565b82810360208401526144eb81876142ac565b905060ff85166040840152828103606084015261450881856142ac565b979650505050505050565b6020808252602a908201527f455243333636343a20696e73756666696369656e742062616c616e636520666f60408201526939103a3930b739b332b960b11b606082015260800190565b6020808252602c908201527f455243333636343a206174747249647320616e6420616d6f756e7473206c656e60408201526b0cee8d040dad2e6dac2e8c6d60a31b606082015260800190565b60208082526032908201527f4552433732313a207472616e7366657220746f206e6f6e20455243373231526560408201527131b2b4bb32b91034b6b83632b6b2b73a32b960711b606082015260800190565b60208082526027908201527f5765623344414f434e3a2063616c6c6572206973206e6f7420746865206e6674604082015266103437b63232b960c91b606082015260800190565b60208082526031908201527f4552433732313a207472616e736665722063616c6c6572206973206e6f74206f6040820152701ddb995c881b9bdc88185c1c1c9bdd9959607a1b606082015260800190565b60208082526028908201527f5765623344414f434e3a206d7573742068617665206d696e74657220726f6c65604082015267081d1bc81b5a5b9d60c21b606082015260800190565b604051601f8201601f191681016001600160401b0381118282101715614703576147036148d8565b604052919050565b60006001600160401b03821115614724576147246148d8565b5060051b60200190565b60008219821115614741576147416148ac565b500190565b600082614755576147556148c2565b500490565b6000816000190483118215151615614774576147746148ac565b500290565b60008282101561478b5761478b6148ac565b500390565b600061479e613bd58461470b565b808482526020808301925084368760051b870111156147bb578485fd5b845b878110156147f95781356001600160401b038111156147da578687fd5b6147e636828a01613c98565b86525093820193908201906001016147bd565b50919695505050505050565b60005b83811015614820578181015183820152602001614808565b838111156116125750506000910152565b600081614840576148406148ac565b506000190190565b600181811c9082168061485c57607f821691505b602082108114156115cf57634e487b7160e01b600052602260045260246000fd5b6000600019821415614891576148916148ac565b5060010190565b6000826148a7576148a76148c2565b500690565b634e487b7160e01b600052601160045260246000fd5b634e487b7160e01b600052601260045260246000fd5b634e487b7160e01b600052604160045260246000fd5b6001600160e01b0319811681146108ce57600080fdfe9f2df0fed2c77648de5860a4cc508cd0818c85b8b8a1ab4ceeef8d981c8956a6a26469706673582212207318da42aba10bd3ab8aa7387a42e520b9aca5b62bf09e8e683ccba0d743307064736f6c63430008040033",
  "linkReferences": {},
  "deployedLinkReferences": {}
}