{
  "_format": "hh-sol-artifact-1",
  "contractName": "Web3DAOCN",
  "sourceName": "contracts/Web3DAOCN.sol",
  "abi": [
    {
      "inputs": [],
      "stateMutability": "nonpayable",
      "type": "constructor"
    },
    {
      "anonymous": false,
      "inputs": [
        {
          "indexed": true,
          "internalType": "address",
          "name": "owner",
          "type": "address"
        },
        {
          "indexed": true,
          "internalType": "address",
          "name": "approved",
          "type": "address"
        },
        {
          "indexed": true,
          "internalType": "uint256",
          "name": "tokenId",
          "type": "uint256"
        }
      ],
      "name": "Approval",
      "type": "event"
    },
    {
      "anonymous": false,
      "inputs": [
        {
          "indexed": true,
          "internalType": "address",
          "name": "owner",
          "type": "address"
        },
        {
          "indexed": true,
          "internalType": "address",
          "name": "operator",
          "type": "address"
        },
        {
          "indexed": false,
          "internalType": "bool",
          "name": "approved",
          "type": "bool"
        }
      ],
      "name": "ApprovalForAll",
      "type": "event"
    },
    {
      "anonymous": false,
      "inputs": [
        {
          "indexed": false,
          "internalType": "uint256",
          "name": "attrId",
          "type": "uint256"
        },
        {
          "indexed": false,
          "internalType": "bool",
          "name": "allow",
          "type": "bool"
        }
      ],
      "name": "AttrTransferAllow",
      "type": "event"
    },
    {
      "anonymous": false,
      "inputs": [
        {
          "indexed": true,
          "internalType": "address",
          "name": "operator",
          "type": "address"
        },
        {
          "indexed": false,
          "internalType": "uint256",
          "name": "from",
          "type": "uint256"
        },
        {
          "indexed": false,
          "internalType": "uint256",
          "name": "to",
          "type": "uint256"
        },
        {
          "indexed": false,
          "internalType": "uint256",
          "name": "attrId",
          "type": "uint256"
        },
        {
          "indexed": false,
          "internalType": "uint256",
          "name": "amount",
          "type": "uint256"
        }
      ],
      "name": "AttributeApproval",
      "type": "event"
    },
    {
      "anonymous": false,
      "inputs": [
        {
          "indexed": true,
          "internalType": "uint256",
          "name": "attrId",
          "type": "uint256"
        },
        {
          "indexed": false,
          "internalType": "string",
          "name": "name",
          "type": "string"
        },
        {
          "indexed": false,
          "internalType": "string",
          "name": "symbol",
          "type": "string"
        },
        {
          "indexed": false,
          "internalType": "uint8",
          "name": "_decimal",
          "type": "uint8"
        },
        {
          "indexed": false,
          "internalType": "string",
          "name": "uri",
          "type": "string"
        }
      ],
      "name": "AttributeCreated",
      "type": "event"
    },
    {
      "anonymous": false,
      "inputs": [
        {
          "indexed": true,
          "internalType": "bytes32",
          "name": "role",
          "type": "bytes32"
        },
        {
          "indexed": true,
          "internalType": "bytes32",
          "name": "previousAdminRole",
          "type": "bytes32"
        },
        {
          "indexed": true,
          "internalType": "bytes32",
          "name": "newAdminRole",
          "type": "bytes32"
        }
      ],
      "name": "RoleAdminChanged",
      "type": "event"
    },
    {
      "anonymous": false,
      "inputs": [
        {
          "indexed": true,
          "internalType": "bytes32",
          "name": "role",
          "type": "bytes32"
        },
        {
          "indexed": true,
          "internalType": "address",
          "name": "account",
          "type": "address"
        },
        {
          "indexed": true,
          "internalType": "address",
          "name": "sender",
          "type": "address"
        }
      ],
      "name": "RoleGranted",
      "type": "event"
    },
    {
      "anonymous": false,
      "inputs": [
        {
          "indexed": true,
          "internalType": "bytes32",
          "name": "role",
          "type": "bytes32"
        },
        {
          "indexed": true,
          "internalType": "address",
          "name": "account",
          "type": "address"
        },
        {
          "indexed": true,
          "internalType": "address",
          "name": "sender",
          "type": "address"
        }
      ],
      "name": "RoleRevoked",
      "type": "event"
    },
    {
      "anonymous": false,
      "inputs": [
        {
          "indexed": true,
          "internalType": "address",
          "name": "from",
          "type": "address"
        },
        {
          "indexed": true,
          "internalType": "address",
          "name": "to",
          "type": "address"
        },
        {
          "indexed": true,
          "internalType": "uint256",
          "name": "tokenId",
          "type": "uint256"
        }
      ],
      "name": "Transfer",
      "type": "event"
    },
    {
      "anonymous": false,
      "inputs": [
        {
          "indexed": true,
          "internalType": "address",
          "name": "operator",
          "type": "address"
        },
        {
          "indexed": true,
          "internalType": "uint256",
          "name": "from",
          "type": "uint256"
        },
        {
          "indexed": true,
          "internalType": "uint256",
          "name": "to",
          "type": "uint256"
        },
        {
          "indexed": false,
          "internalType": "uint256[]",
          "name": "attrIds",
          "type": "uint256[]"
        },
        {
          "indexed": false,
          "internalType": "uint256[]",
          "name": "values",
          "type": "uint256[]"
        }
      ],
      "name": "TransferBatch",
      "type": "event"
    },
    {
      "anonymous": false,
      "inputs": [
        {
          "indexed": true,
          "internalType": "address",
          "name": "operator",
          "type": "address"
        },
        {
          "indexed": true,
          "internalType": "uint256",
          "name": "from",
          "type": "uint256"
        },
        {
          "indexed": true,
          "internalType": "uint256",
          "name": "to",
          "type": "uint256"
        },
        {
          "indexed": false,
          "internalType": "uint256",
          "name": "attrId",
          "type": "uint256"
        },
        {
          "indexed": false,
          "internalType": "uint256",
          "name": "value",
          "type": "uint256"
        }
      ],
      "name": "TransferSingle",
      "type": "event"
    },
    {
      "inputs": [],
      "name": "DEFAULT_ADMIN_ROLE",
      "outputs": [
        {
          "internalType": "bytes32",
          "name": "",
          "type": "bytes32"
        }
      ],
      "stateMutability": "view",
      "type": "function"
    },
    {
      "inputs": [],
      "name": "MINTER_ROLE",
      "outputs": [
        {
          "internalType": "bytes32",
          "name": "",
          "type": "bytes32"
        }
      ],
      "stateMutability": "view",
      "type": "function"
    },
    {
      "inputs": [
        {
          "internalType": "address",
          "name": "operator",
          "type": "address"
        },
        {
          "internalType": "uint256",
          "name": "from",
          "type": "uint256"
        },
        {
          "internalType": "uint256",
          "name": "to",
          "type": "uint256"
        },
        {
          "internalType": "uint256",
          "name": "attrId",
          "type": "uint256"
        },
        {
          "internalType": "uint256",
          "name": "amount",
          "type": "uint256"
        }
      ],
      "name": "_transfer",
      "outputs": [],
      "stateMutability": "nonpayable",
      "type": "function"
    },
    {
      "inputs": [
        {
          "internalType": "uint256",
          "name": "from",
          "type": "uint256"
        },
        {
          "internalType": "uint256",
          "name": "to",
          "type": "uint256"
        },
        {
          "internalType": "uint256",
          "name": "attrId",
          "type": "uint256"
        }
      ],
      "name": "allowance",
      "outputs": [
        {
          "internalType": "uint256",
          "name": "",
          "type": "uint256"
        }
      ],
      "stateMutability": "view",
      "type": "function"
    },
    {
      "inputs": [
        {
          "internalType": "address",
          "name": "to",
          "type": "address"
        },
        {
          "internalType": "uint256",
          "name": "tokenId",
          "type": "uint256"
        }
      ],
      "name": "approve",
      "outputs": [],
      "stateMutability": "nonpayable",
      "type": "function"
    },
    {
      "inputs": [
        {
          "internalType": "uint256",
          "name": "from",
          "type": "uint256"
        },
        {
          "internalType": "uint256",
          "name": "to",
          "type": "uint256"
        },
        {
          "internalType": "uint256",
          "name": "attrId",
          "type": "uint256"
        },
        {
          "internalType": "uint256",
          "name": "amount",
          "type": "uint256"
        }
      ],
      "name": "approve",
      "outputs": [],
      "stateMutability": "nonpayable",
      "type": "function"
    },
    {
      "inputs": [
        {
          "internalType": "uint256",
          "name": "",
          "type": "uint256"
        }
      ],
      "name": "attrTransferAllow",
      "outputs": [
        {
          "internalType": "bool",
          "name": "",
          "type": "bool"
        }
      ],
      "stateMutability": "view",
      "type": "function"
    },
    {
      "inputs": [
        {
          "internalType": "uint256",
          "name": "attrId",
          "type": "uint256"
        }
      ],
      "name": "attrURI",
      "outputs": [
        {
          "internalType": "string",
          "name": "",
          "type": "string"
        }
      ],
      "stateMutability": "view",
      "type": "function"
    },
    {
      "inputs": [
        {
          "internalType": "address",
          "name": "owner",
          "type": "address"
        }
      ],
      "name": "balanceOf",
      "outputs": [
        {
          "internalType": "uint256",
          "name": "",
          "type": "uint256"
        }
      ],
      "stateMutability": "view",
      "type": "function"
    },
    {
      "inputs": [
        {
          "internalType": "uint256",
          "name": "tokenId",
          "type": "uint256"
        },
        {
          "internalType": "uint256",
          "name": "attrId",
          "type": "uint256"
        }
      ],
      "name": "balanceOf",
      "outputs": [
        {
          "internalType": "uint256",
          "name": "",
          "type": "uint256"
        }
      ],
      "stateMutability": "view",
      "type": "function"
    },
    {
      "inputs": [
        {
          "internalType": "uint256",
          "name": "tokenId",
          "type": "uint256"
        },
        {
          "internalType": "uint256[]",
          "name": "attrIds",
          "type": "uint256[]"
        }
      ],
      "name": "balanceOfBatch",
      "outputs": [
        {
          "internalType": "uint256[]",
          "name": "",
          "type": "uint256[]"
        }
      ],
      "stateMutability": "view",
      "type": "function"
    },
    {
      "inputs": [],
      "name": "baseURI",
      "outputs": [
        {
          "internalType": "string",
          "name": "",
          "type": "string"
        }
      ],
      "stateMutability": "view",
      "type": "function"
    },
    {
      "inputs": [
        {
          "internalType": "uint256",
          "name": "tokenId",
          "type": "uint256"
        },
        {
          "internalType": "uint256",
          "name": "attrId",
          "type": "uint256"
        },
        {
          "internalType": "uint256",
          "name": "amount",
          "type": "uint256"
        }
      ],
      "name": "burn",
      "outputs": [],
      "stateMutability": "nonpayable",
      "type": "function"
    },
    {
      "inputs": [
        {
          "internalType": "uint256",
          "name": "tokenId",
          "type": "uint256"
        },
        {
          "internalType": "uint256[]",
          "name": "attrIds",
          "type": "uint256[]"
        },
        {
          "internalType": "uint256[]",
          "name": "amounts",
          "type": "uint256[]"
        }
      ],
      "name": "burnBatch",
      "outputs": [],
      "stateMutability": "nonpayable",
      "type": "function"
    },
    {
      "inputs": [
        {
          "internalType": "uint256",
          "name": "_attrId",
          "type": "uint256"
        },
        {
          "internalType": "string",
          "name": "_name",
          "type": "string"
        },
        {
          "internalType": "string",
          "name": "_symbol",
          "type": "string"
        },
        {
          "internalType": "uint8",
          "name": "_decimal",
          "type": "uint8"
        },
        {
          "internalType": "string",
          "name": "_uri",
          "type": "string"
        }
      ],
      "name": "create",
      "outputs": [],
      "stateMutability": "nonpayable",
      "type": "function"
    },
    {
      "inputs": [
        {
          "internalType": "uint256[]",
          "name": "attrIds",
          "type": "uint256[]"
        },
        {
          "internalType": "string[]",
          "name": "names",
          "type": "string[]"
        },
        {
          "internalType": "string[]",
          "name": "symbols",
          "type": "string[]"
        },
        {
          "internalType": "uint8[]",
          "name": "decimals",
          "type": "uint8[]"
        },
        {
          "internalType": "string[]",
          "name": "uris",
          "type": "string[]"
        }
      ],
      "name": "createBatch",
      "outputs": [],
      "stateMutability": "nonpayable",
      "type": "function"
    },
    {
      "inputs": [
        {
          "internalType": "uint256",
          "name": "attrId",
          "type": "uint256"
        }
      ],
      "name": "decimal",
      "outputs": [
        {
          "internalType": "uint8",
          "name": "",
          "type": "uint8"
        }
      ],
      "stateMutability": "view",
      "type": "function"
    },
    {
      "inputs": [
        {
          "internalType": "uint256",
          "name": "tokenId",
          "type": "uint256"
        }
      ],
      "name": "getApproved",
      "outputs": [
        {
          "internalType": "address",
          "name": "",
          "type": "address"
        }
      ],
      "stateMutability": "view",
      "type": "function"
    },
    {
      "inputs": [
        {
          "internalType": "bytes32",
          "name": "role",
          "type": "bytes32"
        }
      ],
      "name": "getRoleAdmin",
      "outputs": [
        {
          "internalType": "bytes32",
          "name": "",
          "type": "bytes32"
        }
      ],
      "stateMutability": "view",
      "type": "function"
    },
    {
      "inputs": [
        {
          "internalType": "bytes32",
          "name": "role",
          "type": "bytes32"
        },
        {
          "internalType": "uint256",
          "name": "index",
          "type": "uint256"
        }
      ],
      "name": "getRoleMember",
      "outputs": [
        {
          "internalType": "address",
          "name": "",
          "type": "address"
        }
      ],
      "stateMutability": "view",
      "type": "function"
    },
    {
      "inputs": [
        {
          "internalType": "bytes32",
          "name": "role",
          "type": "bytes32"
        }
      ],
      "name": "getRoleMemberCount",
      "outputs": [
        {
          "internalType": "uint256",
          "name": "",
          "type": "uint256"
        }
      ],
      "stateMutability": "view",
      "type": "function"
    },
    {
      "inputs": [
        {
          "internalType": "bytes32",
          "name": "role",
          "type": "bytes32"
        },
        {
          "internalType": "address",
          "name": "account",
          "type": "address"
        }
      ],
      "name": "grantRole",
      "outputs": [],
      "stateMutability": "nonpayable",
      "type": "function"
    },
    {
      "inputs": [
        {
          "internalType": "bytes32",
          "name": "role",
          "type": "bytes32"
        },
        {
          "internalType": "address",
          "name": "account",
          "type": "address"
        }
      ],
      "name": "hasRole",
      "outputs": [
        {
          "internalType": "bool",
          "name": "",
          "type": "bool"
        }
      ],
      "stateMutability": "view",
      "type": "function"
    },
    {
      "inputs": [
        {
          "internalType": "address",
          "name": "owner",
          "type": "address"
        },
        {
          "internalType": "address",
          "name": "operator",
          "type": "address"
        }
      ],
      "name": "isApprovedForAll",
      "outputs": [
        {
          "internalType": "bool",
          "name": "",
          "type": "bool"
        }
      ],
      "stateMutability": "view",
      "type": "function"
    },
    {
      "inputs": [
        {
          "internalType": "uint256",
          "name": "tokenId",
          "type": "uint256"
        },
        {
          "internalType": "uint256",
          "name": "attrId",
          "type": "uint256"
        },
        {
          "internalType": "uint256",
          "name": "amount",
          "type": "uint256"
        }
      ],
      "name": "mint",
      "outputs": [],
      "stateMutability": "nonpayable",
      "type": "function"
    },
    {
      "inputs": [
        {
          "internalType": "address",
          "name": "to",
          "type": "address"
        }
      ],
      "name": "mint",
      "outputs": [],
      "stateMutability": "nonpayable",
      "type": "function"
    },
    {
      "inputs": [
        {
          "internalType": "uint256",
          "name": "tokenId",
          "type": "uint256"
        },
        {
          "internalType": "uint256[]",
          "name": "attrIds",
          "type": "uint256[]"
        },
        {
          "internalType": "uint256[]",
          "name": "amounts",
          "type": "uint256[]"
        }
      ],
      "name": "mintBatch",
      "outputs": [],
      "stateMutability": "nonpayable",
      "type": "function"
    },
    {
      "inputs": [
        {
          "internalType": "uint256",
          "name": "attrId",
          "type": "uint256"
        }
      ],
      "name": "name",
      "outputs": [
        {
          "internalType": "string",
          "name": "",
          "type": "string"
        }
      ],
      "stateMutability": "view",
      "type": "function"
    },
    {
      "inputs": [],
      "name": "name",
      "outputs": [
        {
          "internalType": "string",
          "name": "",
          "type": "string"
        }
      ],
      "stateMutability": "view",
      "type": "function"
    },
    {
      "inputs": [
        {
          "internalType": "uint256",
          "name": "tokenId",
          "type": "uint256"
        }
      ],
      "name": "ownerOf",
      "outputs": [
        {
          "internalType": "address",
          "name": "",
          "type": "address"
        }
      ],
      "stateMutability": "view",
      "type": "function"
    },
    {
      "inputs": [
        {
          "internalType": "uint256",
          "name": "from",
          "type": "uint256"
        },
        {
          "internalType": "uint256",
          "name": "to",
          "type": "uint256"
        },
        {
          "internalType": "uint256",
          "name": "attrId",
          "type": "uint256"
        },
        {
          "internalType": "uint256",
          "name": "amount",
          "type": "uint256"
        },
        {
          "internalType": "bytes",
          "name": "signature",
          "type": "bytes"
        }
      ],
      "name": "permit",
      "outputs": [],
      "stateMutability": "nonpayable",
      "type": "function"
    },
    {
      "inputs": [
        {
          "internalType": "bytes32",
          "name": "role",
          "type": "bytes32"
        },
        {
          "internalType": "address",
          "name": "account",
          "type": "address"
        }
      ],
      "name": "renounceRole",
      "outputs": [],
      "stateMutability": "nonpayable",
      "type": "function"
    },
    {
      "inputs": [
        {
          "internalType": "bytes32",
          "name": "role",
          "type": "bytes32"
        },
        {
          "internalType": "address",
          "name": "account",
          "type": "address"
        }
      ],
      "name": "revokeRole",
      "outputs": [],
      "stateMutability": "nonpayable",
      "type": "function"
    },
    {
      "inputs": [
        {
          "internalType": "address",
          "name": "from",
          "type": "address"
        },
        {
          "internalType": "address",
          "name": "to",
          "type": "address"
        },
        {
          "internalType": "uint256",
          "name": "tokenId",
          "type": "uint256"
        }
      ],
      "name": "safeTransferFrom",
      "outputs": [],
      "stateMutability": "nonpayable",
      "type": "function"
    },
    {
      "inputs": [
        {
          "internalType": "address",
          "name": "from",
          "type": "address"
        },
        {
          "internalType": "address",
          "name": "to",
          "type": "address"
        },
        {
          "internalType": "uint256",
          "name": "tokenId",
          "type": "uint256"
        },
        {
          "internalType": "bytes",
          "name": "_data",
          "type": "bytes"
        }
      ],
      "name": "safeTransferFrom",
      "outputs": [],
      "stateMutability": "nonpayable",
      "type": "function"
    },
    {
      "inputs": [
        {
          "internalType": "address",
          "name": "operator",
          "type": "address"
        },
        {
          "internalType": "bool",
          "name": "approved",
          "type": "bool"
        }
      ],
      "name": "setApprovalForAll",
      "outputs": [],
      "stateMutability": "nonpayable",
      "type": "function"
    },
    {
      "inputs": [
        {
          "internalType": "uint256",
          "name": "attrId",
          "type": "uint256"
        },
        {
          "internalType": "bool",
          "name": "allow",
          "type": "bool"
        }
      ],
      "name": "setAttrTransferAllow",
      "outputs": [],
      "stateMutability": "nonpayable",
      "type": "function"
    },
    {
      "inputs": [
        {
          "internalType": "string",
          "name": "newuri",
          "type": "string"
        }
      ],
      "name": "setBaseURI",
      "outputs": [],
      "stateMutability": "nonpayable",
      "type": "function"
    },
    {
      "inputs": [
        {
          "internalType": "string",
          "name": "newuri",
          "type": "string"
        }
      ],
      "name": "setURI",
      "outputs": [],
      "stateMutability": "nonpayable",
      "type": "function"
    },
    {
      "inputs": [
        {
          "internalType": "bytes4",
          "name": "interfaceId",
          "type": "bytes4"
        }
      ],
      "name": "supportsInterface",
      "outputs": [
        {
          "internalType": "bool",
          "name": "",
          "type": "bool"
        }
      ],
      "stateMutability": "view",
      "type": "function"
    },
    {
      "inputs": [
        {
          "internalType": "uint256",
          "name": "attrId",
          "type": "uint256"
        }
      ],
      "name": "symbol",
      "outputs": [
        {
          "internalType": "string",
          "name": "",
          "type": "string"
        }
      ],
      "stateMutability": "view",
      "type": "function"
    },
    {
      "inputs": [],
      "name": "symbol",
      "outputs": [
        {
          "internalType": "string",
          "name": "",
          "type": "string"
        }
      ],
      "stateMutability": "view",
      "type": "function"
    },
    {
      "inputs": [
        {
          "internalType": "uint256",
          "name": "tokenId",
          "type": "uint256"
        }
      ],
      "name": "tokenURI",
      "outputs": [
        {
          "internalType": "string",
          "name": "",
          "type": "string"
        }
      ],
      "stateMutability": "view",
      "type": "function"
    },
    {
      "inputs": [],
      "name": "totalSupply",
      "outputs": [
        {
          "internalType": "uint256",
          "name": "",
          "type": "uint256"
        }
      ],
      "stateMutability": "view",
      "type": "function"
    },
    {
      "inputs": [
        {
          "internalType": "uint256",
          "name": "attrId",
          "type": "uint256"
        }
      ],
      "name": "totalSupply",
      "outputs": [
        {
          "internalType": "uint256",
          "name": "",
          "type": "uint256"
        }
      ],
      "stateMutability": "view",
      "type": "function"
    },
    {
      "inputs": [
        {
          "internalType": "uint256",
          "name": "from",
          "type": "uint256"
        },
        {
          "internalType": "uint256",
          "name": "to",
          "type": "uint256"
        },
        {
          "internalType": "uint256",
          "name": "attrId",
          "type": "uint256"
        },
        {
          "internalType": "uint256",
          "name": "amount",
          "type": "uint256"
        }
      ],
      "name": "transfer",
      "outputs": [],
      "stateMutability": "nonpayable",
      "type": "function"
    },
    {
      "inputs": [
        {
          "internalType": "address",
          "name": "from",
          "type": "address"
        },
        {
          "internalType": "address",
          "name": "to",
          "type": "address"
        },
        {
          "internalType": "uint256",
          "name": "tokenId",
          "type": "uint256"
        }
      ],
      "name": "transferFrom",
      "outputs": [],
      "stateMutability": "nonpayable",
      "type": "function"
    },
    {
      "inputs": [
        {
          "internalType": "uint256",
          "name": "from",
          "type": "uint256"
        },
        {
          "internalType": "uint256",
          "name": "to",
          "type": "uint256"
        },
        {
          "internalType": "uint256",
          "name": "attrId",
          "type": "uint256"
        },
        {
          "internalType": "uint256",
          "name": "amount",
          "type": "uint256"
        }
      ],
      "name": "transferFrom",
      "outputs": [],
      "stateMutability": "nonpayable",
      "type": "function"
    }
  ],
  "bytecode": "0x6101406040523480156200001257600080fd5b506040518060400160405280600a8152602001692ba2a119a220a7a021a760b11b815250604051806040016040528060038152602001620312e360ec1b8152506040518060400160405280600f81526020016e15d9588cc8111053c810d388139195608a1b81525060405180604001604052806005815260200164574542c2b360d81b8152508160059080519060200190620000b092919062000308565b508051620000c690600690602084019062000308565b5050825160208085019190912083518483012060e08290526101008190524660a0818152604080517f8b73c3c69bb8fe3d512ecc4cf759cc79239f7b179b0ffacaa9a75d522b39400f81880181905281830187905260608201869052608082019490945230818401528151808203909301835260c0019052805194019390932091935091906080523060601b60c05261012052506200016d9250600091503390506200019f565b620001997f9f2df0fed2c77648de5860a4cc508cd0818c85b8b8a1ab4ceeef8d981c8956a6336200019f565b620003eb565b620001ab8282620001af565b5050565b620001c68282620001f260201b62001a1b1760201c565b6000828152600c60209081526040909120620001ed91839062001aa162000296821b17901c565b505050565b6000828152600b602090815260408083206001600160a01b038516845290915290205460ff16620001ab576000828152600b602090815260408083206001600160a01b03851684529091529020805460ff19166001179055620002523390565b6001600160a01b0316816001600160a01b0316837f2f8788117e7eff1d82e926ec794901d17c78024a50270940304540a733656f0d60405160405180910390a45050565b6000620002ad836001600160a01b038416620002b6565b90505b92915050565b6000818152600183016020526040812054620002ff57508154600181810184556000848152602080822090930184905584548482528286019093526040902091909155620002b0565b506000620002b0565b8280546200031690620003ae565b90600052602060002090601f0160209004810192826200033a576000855562000385565b82601f106200035557805160ff191683800117855562000385565b8280016001018555821562000385579182015b828111156200038557825182559160200191906001019062000368565b506200039392915062000397565b5090565b5b8082111562000393576000815560010162000398565b600181811c90821680620003c357607f821691505b60208210811415620003e557634e487b7160e01b600052602260045260246000fd5b50919050565b60805160a05160c05160601c60e05161010051610120516148876200043e60003960006131ce0152600061321d015260006131f8015260006131510152600061317b015260006131a501526148876000f3fe608060405234801561001057600080fd5b506004361061029f5760003560e01c806378cc520d11610167578063bd85b039116100ce578063e15fe34f11610087578063e15fe34f14610615578063e985e9c514610628578063ea69963314610664578063f030ba631461068e578063f0377457146106a1578063f371efa4146106b457600080fd5b8063bd85b03914610594578063c87b56dd146105b4578063ca15c873146105c7578063cd2e2c24146105da578063d5391393146105ed578063d547741f1461060257600080fd5b806391f7808e1161012057806391f7808e1461053857806395d89b411461054b5780639bc5ae5414610553578063a217fddf14610566578063a22cb4651461056e578063b88d4fde1461058157600080fd5b806378cc520d146104b65780637cba8598146104d95780638856f779146104ec5780639010d07c146104ff57806391a2c83c1461051257806391d148541461052557600080fd5b80632f94e4aa1161020b5780635d126110116101c45780635d126110146104425780636352211e146104625780636a627842146104755780636c0360eb146104885780636c06296c1461049057806370a08231146104a357600080fd5b80632f94e4aa146103d057806336568abe146103e357806336cca0be146103f657806342842e0e146104095780634e41a1fb1461041c57806355f804b31461042f57600080fd5b8063081812fc1161025d578063081812fc14610333578063095ea7b31461035e57806318160ddd1461037157806323b872dd14610387578063248a9ca31461039a5780632f2ff15d146103bd57600080fd5b8062ad800c146102a457806301ffc9a7146102cd57806302acc94b146102f057806302fe53051461030557806305a100281461031857806306fdde031461032b575b600080fd5b6102b76102b2366004613eb8565b6106d9565b6040516102c491906143e0565b60405180910390f35b6102e06102db366004613f13565b6107f6565b60405190151581526020016102c4565b6103036102fe3660046140ef565b610807565b005b610303610313366004613f4b565b61084b565b6103036103263660046140ef565b61088b565b6102b76108ca565b610346610341366004613eb8565b61095c565b6040516001600160a01b0390911681526020016102c4565b61030361036c366004613d6a565b6109f1565b610379610b02565b6040519081526020016102c4565b610303610395366004613ca1565b610b12565b6103796103a8366004613eb8565b6000908152600b602052604090206001015490565b6103036103cb366004613ed0565b610b43565b6103036103de366004613d93565b610b69565b6103036103f1366004613ed0565b610d24565b610303610404366004614051565b610da2565b610303610417366004613ca1565b610dea565b6102b761042a366004613eb8565b610e05565b61030361043d366004613f4b565b610e9e565b610455610450366004613f7d565b610ee5565b6040516102c491906143a8565b610346610470366004613eb8565b610fd1565b610303610483366004613c55565b611048565b6102b761109c565b61030361049e36600461411a565b61112a565b6103796104b1366004613c55565b611167565b6102e06104c4366004613eb8565b600f6020526000908152604090205460ff1681565b6103036104e736600461411a565b6111ee565b6103036104fa36600461411a565b61122b565b61034661050d366004613ef2565b61135a565b610303610520366004613fc6565b611379565b6102e0610533366004613ed0565b6113b8565b61030361054636600461414b565b6113e3565b6102b76114e0565b6102b7610561366004613eb8565b6114ef565b610379600081565b61030361057c366004613d41565b61168c565b61030361058f366004613cdc565b611697565b6103796105a2366004613eb8565b60009081526004602052604090205490565b6102b76105c2366004613eb8565b6116cf565b6103796105d5366004613eb8565b611782565b6103036105e8366004613dd4565b611799565b61037960008051602061483283398151915281565b610303610610366004613ed0565b611835565b6103796106233660046140ef565b61185b565b6102e0610636366004613c6f565b6001600160a01b039182166000908152600a6020908152604080832093909416825291909152205460ff1690565b610379610672366004613ef2565b6000908152600260209081526040808320938352929052205490565b61030361069c366004613fc6565b6118bc565b6103036106af36600461402f565b6118fb565b6106c76106c2366004613eb8565b611988565b60405160ff90911681526020016102c4565b60008181526001602052604090206004015460609060ff166107585760405162461bcd60e51b815260206004820152602d60248201527f455243333636343a206e616d6520717565727920666f72206e6f6e657869737460448201526c656e742061747472696275746560981b60648201526084015b60405180910390fd5b6000828152600160205260409020805461077190614775565b80601f016020809104026020016040519081016040528092919081815260200182805461079d90614775565b80156107ea5780601f106107bf576101008083540402835291602001916107ea565b820191906000526020600020905b8154815290600101906020018083116107cd57829003601f168201915b50505050509050919050565b600061080182611ab6565b92915050565b61081f600080516020614832833981519152336113b8565b61083b5760405162461bcd60e51b815260040161074f906145c0565b610846838383611adb565b505050565b610863600080516020614832833981519152336113b8565b61087f5760405162461bcd60e51b815260040161074f906145c0565b61088881611c10565b50565b6108a3600080516020614832833981519152336113b8565b6108bf5760405162461bcd60e51b815260040161074f906145c0565b610846838383611c23565b6060600580546108d990614775565b80601f016020809104026020016040519081016040528092919081815260200182805461090590614775565b80156109525780601f1061092757610100808354040283529160200191610952565b820191906000526020600020905b81548152906001019060200180831161093557829003601f168201915b5050505050905090565b6000818152600760205260408120546001600160a01b03166109d55760405162461bcd60e51b815260206004820152602c60248201527f4552433732313a20617070726f76656420717565727920666f72206e6f6e657860448201526b34b9ba32b73a103a37b5b2b760a11b606482015260840161074f565b506000908152600960205260409020546001600160a01b031690565b60006109fc82610fd1565b9050806001600160a01b0316836001600160a01b03161415610a6a5760405162461bcd60e51b815260206004820152602160248201527f4552433732313a20617070726f76616c20746f2063757272656e74206f776e656044820152603960f91b606482015260840161074f565b336001600160a01b0382161480610a865750610a868133610636565b610af85760405162461bcd60e51b815260206004820152603860248201527f4552433732313a20617070726f76652063616c6c6572206973206e6f74206f7760448201527f6e6572206e6f7220617070726f76656420666f7220616c6c0000000000000000606482015260840161074f565b6108468383611d87565b6000610b0d600e5490565b905090565b610b1c3382611df5565b610b385760405162461bcd60e51b815260040161074f9061456f565b610846838383611eec565b6000828152600b6020526040902060010154610b5f8133612097565b61084683836120fb565b83610bb65760405162461bcd60e51b815260206004820181905260248201527f455243333636343a207472616e736665722066726f6d20746865207a65726f20604482015260640161074f565b82610c035760405162461bcd60e51b815260206004820152601e60248201527f455243333636343a207472616e7366657220746f20746865207a65726f200000604482015260640161074f565b610c2085858585856040518060200160405280600081525061211d565b600082815260026020908152604080832087845290915290205481811015610c9b5760405162461bcd60e51b815260206004820152602860248201527f455243333636343a207472616e7366657220616d6f756e7420657863656564736044820152672062616c616e636560c01b606482015260840161074f565b6000838152600260209081526040808320888452909152808220848403905585825281208054849290610ccf90849061465b565b90915550506040805184815260208101849052859187916001600160a01b038a16917f73b5fbfbf0177b0de2ffe9fd0ae9887dd73d0d865db7ab5ff3c4a6b9bb8db1e3910160405180910390a4505050505050565b6001600160a01b0381163314610d945760405162461bcd60e51b815260206004820152602f60248201527f416363657373436f6e74726f6c3a2063616e206f6e6c792072656e6f756e636560448201526e103937b632b9903337b91039b2b63360891b606482015260840161074f565b610d9e82826121ad565b5050565b610dba600080516020614832833981519152336113b8565b610dd65760405162461bcd60e51b815260040161074f906145c0565b610de385858585856121cf565b5050505050565b61084683838360405180602001604052806000815250611697565b60008181526001602052604090206004015460609060ff16610e815760405162461bcd60e51b815260206004820152602f60248201527f455243333636343a2073796d626f6c20717565727920666f72206e6f6e65786960448201526e7374656e742061747472696275746560881b606482015260840161074f565b600082815260016020819052604090912001805461077190614775565b610eb6600080516020614832833981519152336113b8565b610ed25760405162461bcd60e51b815260040161074f906145c0565b8051610d9e90600d906020840190613a00565b60606000826001600160401b03811115610f0f57634e487b7160e01b600052604160045260246000fd5b604051908082528060200260200182016040528015610f38578160200160208202803683370190505b50905060005b83811015610fc857610f8d86868684818110610f6a57634e487b7160e01b600052603260045260246000fd5b905060200201356000908152600260209081526040808320938352929052205490565b828281518110610fad57634e487b7160e01b600052603260045260246000fd5b6020908102919091010152610fc1816147aa565b9050610f3e565b50949350505050565b6000818152600760205260408120546001600160a01b0316806108015760405162461bcd60e51b815260206004820152602960248201527f4552433732313a206f776e657220717565727920666f72206e6f6e657869737460448201526832b73a103a37b5b2b760b91b606482015260840161074f565b611060600080516020614832833981519152336113b8565b61107c5760405162461bcd60e51b815260040161074f906145c0565b61108a600e80546001019055565b61088881611097600e5490565b61233c565b600d80546110a990614775565b80601f01602080910402602001604051908101604052809291908181526020018280546110d590614775565b80156111225780601f106110f757610100808354040283529160200191611122565b820191906000526020600020905b81548152906001019060200180831161110557829003601f168201915b505050505081565b833361113582610fd1565b6001600160a01b03161461115b5760405162461bcd60e51b815260040161074f90614528565b610de385858585612356565b60006001600160a01b0382166111d25760405162461bcd60e51b815260206004820152602a60248201527f4552433732313a2062616c616e636520717565727920666f7220746865207a65604482015269726f206164647265737360b01b606482015260840161074f565b506001600160a01b031660009081526008602052604090205490565b83336111f982610fd1565b6001600160a01b03161461121f5760405162461bcd60e51b815260040161074f90614528565b610de385858585612362565b336112398186868686610b69565b600060036000858860405160200161125b929190918252602082015260400190565b6040516020818303038152906040528051906020012081526020019081526020016000206000868152602001908152602001600020549050828110156112f65760405162461bcd60e51b815260206004820152602a60248201527f455243333636343a207472616e7366657220616d6f756e74206578636565647360448201526920616c6c6f77616e636560b01b606482015260840161074f565b828103600360008689604051602001611319929190918252602082015260400190565b604051602081830303815290604052805190602001208152602001908152602001600020600087815260200190815260200160002081905550505050505050565b6000828152600c602052604081206113729083612370565b9392505050565b611391600080516020614832833981519152336113b8565b6113ad5760405162461bcd60e51b815260040161074f906145c0565b61084683838361237c565b6000918252600b602090815260408084206001600160a01b0393909316845291905290205460ff1690565b604080517f7b2480524df4991b0b62b0d7e3b8464b30ee5b56692c328502590389d75b37f76020820152908101869052606081018590526080810184905260a0810183905260009060c0016040516020818303038152906040528051906020012090506000611451826125f9565b9050600061145f8285612647565b9050806001600160a01b031661147489610fd1565b6001600160a01b0316146114ca5760405162461bcd60e51b815260206004820152601960248201527f5065726d69743a20696e76616c6964207369676e617475726500000000000000604482015260640161074f565b6114d68888888861266b565b5050505050505050565b6060600680546108d990614775565b60008181526001602052604090206004015460609060ff166115685760405162461bcd60e51b815260206004820152602c60248201527f455243333636343a2055524920717565727920666f72206e6f6e65786973746560448201526b6e742061747472696275746560a01b606482015260840161074f565b6000828152600160205260408120600301805461158490614775565b80601f01602080910402602001604051908101604052809291908181526020018280546115b090614775565b80156115fd5780601f106115d2576101008083540402835291602001916115fd565b820191906000526020600020905b8154815290600101906020018083116115e057829003601f168201915b505050505090506000815111156116405780611618846127a7565b604051602001611629929190614221565b604051602081830303815290604052915050919050565b600080805461164e90614775565b90501161166a5760405180602001604052806000815250611372565b6000611675846127a7565b604051602001611629929190614250565b50919050565b610d9e3383836128c0565b6116a13383611df5565b6116bd5760405162461bcd60e51b815260040161074f9061456f565b6116c98484848461298f565b50505050565b6000818152600760205260409020546060906001600160a01b031661174e5760405162461bcd60e51b815260206004820152602f60248201527f4552433732314d657461646174613a2055524920717565727920666f72206e6f60448201526e3732bc34b9ba32b73a103a37b5b2b760891b606482015260840161074f565b60006117586129c2565b905060008151116117785760405180602001604052806000815250611372565b80611618846127a7565b6000818152600c60205260408120610801906129d1565b6117b1600080516020614832833981519152336113b8565b6117cd5760405162461bcd60e51b815260040161074f906145c0565b61182a89898080602002602001604051908101604052809392919081815260200183836020028082843760009201919091525061181092508a91508b90506146bd565b61181a87896146bd565b8661182586886146bd565b6129db565b505050505050505050565b6000828152600b60205260409020600101546118518133612097565b61084683836121ad565b600060036000838660405160200161187d929190918252602082015260400190565b60405160208183030381529060405280519060200120815260200190815260200160002060008481526020019081526020016000205490509392505050565b6118d4600080516020614832833981519152336113b8565b6118f05760405162461bcd60e51b815260040161074f906145c0565b610846838383612bf4565b611913600080516020614832833981519152336113b8565b61192f5760405162461bcd60e51b815260040161074f906145c0565b6000828152600f6020908152604091829020805460ff19168415159081179091558251858152918201527ffd52edd8c6dd48138bc80a665216a16ba2beb45a076f16a0ecf317ef3cd0499e910160405180910390a15050565b60008181526001602052604081206004015460ff16611a025760405162461bcd60e51b815260206004820152603060248201527f455243333636343a20646563696d616c20717565727920666f72206e6f6e657860448201526f697374656e742061747472696275746560801b606482015260840161074f565b5060009081526001602052604090206002015460ff1690565b611a2582826113b8565b610d9e576000828152600b602090815260408083206001600160a01b03851684529091529020805460ff19166001179055611a5d3390565b6001600160a01b0316816001600160a01b0316837f2f8788117e7eff1d82e926ec794901d17c78024a50270940304540a733656f0d60405160405180910390a45050565b6000611372836001600160a01b038416612d9a565b60006001600160e01b03198216635a05180f60e01b1480610801575061080182612de9565b60008281526001602052604090206004015460ff16611b4c5760405162461bcd60e51b815260206004820152602760248201527f455243333636343a206d696e7420666f72206e6f6e6578697374656e742061746044820152667472696275746560c81b606482015260840161074f565b6000339050611b6f8160008686866040518060200160405280600081525061211d565b60008381526004602052604081208054849290611b8d90849061465b565b9091555050600083815260026020908152604080832087845290915281208054849290611bbb90849061465b565b9091555050604080518481526020810184905285916000916001600160a01b038516917f73b5fbfbf0177b0de2ffe9fd0ae9887dd73d0d865db7ab5ff3c4a6b9bb8db1e391015b60405180910390a450505050565b8051610d9e906000906020840190613a00565b60008281526001602052604090206004015460ff16611c945760405162461bcd60e51b815260206004820152602760248201527f455243333636343a206275726e20666f72206e6f6e6578697374656e742061746044820152667472696275746560c81b606482015260840161074f565b6000339050611cb78185600086866040518060200160405280600081525061211d565b600083815260026020908152604080832087845290915290205482811015611cf15760405162461bcd60e51b815260040161074f90614440565b611cfb83826146a6565b6000858152600260209081526040808320898452825280832093909355868252600490529081208054859290611d329084906146a6565b9091555050604080518581526020810185905260009187916001600160a01b038616917f73b5fbfbf0177b0de2ffe9fd0ae9887dd73d0d865db7ab5ff3c4a6b9bb8db1e3910160405180910390a45050505050565b600081815260096020526040902080546001600160a01b0319166001600160a01b0384169081179091558190611dbc82610fd1565b6001600160a01b03167f8c5be1e5ebec7d5bd14f71427d1e84f3dd0314c0f7b2291e5b200ac8c7c3b92560405160405180910390a45050565b6000818152600760205260408120546001600160a01b0316611e6e5760405162461bcd60e51b815260206004820152602c60248201527f4552433732313a206f70657261746f7220717565727920666f72206e6f6e657860448201526b34b9ba32b73a103a37b5b2b760a11b606482015260840161074f565b6000611e7983610fd1565b9050806001600160a01b0316846001600160a01b03161480611eb45750836001600160a01b0316611ea98461095c565b6001600160a01b0316145b80611ee457506001600160a01b038082166000908152600a602090815260408083209388168352929052205460ff165b949350505050565b826001600160a01b0316611eff82610fd1565b6001600160a01b031614611f675760405162461bcd60e51b815260206004820152602960248201527f4552433732313a207472616e73666572206f6620746f6b656e2074686174206960448201526839903737ba1037bbb760b91b606482015260840161074f565b6001600160a01b038216611fc95760405162461bcd60e51b8152602060048201526024808201527f4552433732313a207472616e7366657220746f20746865207a65726f206164646044820152637265737360e01b606482015260840161074f565b611fd4838383612e0e565b611fdf600082611d87565b6001600160a01b03831660009081526008602052604081208054600192906120089084906146a6565b90915550506001600160a01b038216600090815260086020526040812080546001929061203690849061465b565b909155505060008181526007602052604080822080546001600160a01b0319166001600160a01b0386811691821790925591518493918716917fddf252ad1be2c89b69c2b068fc378daa952ba7f163c4a11628f55a4df523b3ef91a4505050565b6120a182826113b8565b610d9e576120b9816001600160a01b03166014612e7c565b6120c4836020612e7c565b6040516020016120d59291906142f6565b60408051601f198184030181529082905262461bcd60e51b825261074f916004016143e0565b6121058282611a1b565b6000828152600c602052604090206108469082611aa1565b612135600080516020614832833981519152876113b8565b8061214e57506000838152600f602052604090205460ff165b6121a55760405162461bcd60e51b815260206004820152602260248201527f5765623344414f434e3a2041747472207472616e73666572206e6f7420616c6c6044820152616f7760f01b606482015260840161074f565b505050505050565b6121b7828261305d565b6000828152600c6020526040902061084690826130c4565b60008581526001602052604090206004015460ff161561223b5760405162461bcd60e51b815260206004820152602160248201527f455243333636343a2061747472696275746520616c72656164792065786973746044820152607360f81b606482015260840161074f565b6040805160a081018252858152602080820186905260ff8516828401526060820184905260016080830181905260008981529082529290922081518051929384936122899284920190613a00565b5060208281015180516122a29260018501920190613a00565b50604082015160028201805460ff191660ff909216919091179055606082015180516122d8916003840191602090910190613a00565b50608091909101516004909101805460ff191691151591909117905560405186907f98fe0a4bf3a5354178c124c36fe2ec9f103adaba8905e75f72cb6900c6f949869061232c9088908890889088906143f3565b60405180910390a2505050505050565b610d9e8282604051806020016040528060008152506130d9565b6116c98484848461266b565b33610de38186868686610b69565b6000611372838361310c565b805182511461239d5760405162461bcd60e51b815260040161074f9061448a565b3360005b83518110156125ba57612416828660008785815181106123d157634e487b7160e01b600052603260045260246000fd5b60200260200101518786815181106123f957634e487b7160e01b600052603260045260246000fd5b60200260200101516040518060200160405280600081525061211d565b60006002600086848151811061243c57634e487b7160e01b600052603260045260246000fd5b60200260200101518152602001908152602001600020600087815260200190815260200160002054905083828151811061248657634e487b7160e01b600052603260045260246000fd5b60200260200101518110156124ad5760405162461bcd60e51b815260040161074f90614440565b8382815181106124cd57634e487b7160e01b600052603260045260246000fd5b6020026020010151816124e091906146a6565b6002600087858151811061250457634e487b7160e01b600052603260045260246000fd5b6020026020010151815260200190815260200160002060008881526020019081526020016000208190555083828151811061254f57634e487b7160e01b600052603260045260246000fd5b60200260200101516004600087858151811061257b57634e487b7160e01b600052603260045260246000fd5b6020026020010151815260200190815260200160002060008282546125a091906146a6565b909155508291506125b29050816147aa565b9150506123a1565b50600084826001600160a01b03167fbfb4d8e5891aebe97980c97616b6b0af2006a58ccabe6e1b7e3da24d0906a8568686604051611c029291906143bb565b6000610801612606613144565b8360405161190160f01b6020820152602281018390526042810182905260009060620160405160208183030381529060405280519060200120905092915050565b6000806000612656858561326b565b91509150612663816132db565b509392505050565b836126b85760405162461bcd60e51b815260206004820152601f60248201527f455243333636343a20617070726f76652066726f6d20746865207a65726f2000604482015260640161074f565b826127055760405162461bcd60e51b815260206004820152601d60248201527f455243333636343a20617070726f766520746f20746865207a65726f20000000604482015260640161074f565b80600360008487604051602001612726929190918252602082015260400190565b60408051601f19818403018152918152815160209283012083528282019390935290820160009081208782528252829020929092558051868152918201859052818101849052606082018390525133917f4f3267cf1b4f4eda70a80ac65e00830cf370b07c616b8e687c172b69bb15a190919081900360800190a250505050565b6060816127cb5750506040805180820190915260018152600360fc1b602082015290565b8160005b81156127f557806127df816147aa565b91506127ee9050600a83614673565b91506127cf565b6000816001600160401b0381111561281d57634e487b7160e01b600052604160045260246000fd5b6040519080825280601f01601f191660200182016040528015612847576020820181803683370190505b5090505b8415611ee45761285c6001836146a6565b9150612869600a866147c5565b61287490603061465b565b60f81b81838151811061289757634e487b7160e01b600052603260045260246000fd5b60200101906001600160f81b031916908160001a9053506128b9600a86614673565b945061284b565b816001600160a01b0316836001600160a01b031614156129225760405162461bcd60e51b815260206004820152601960248201527f4552433732313a20617070726f766520746f2063616c6c657200000000000000604482015260640161074f565b6001600160a01b038381166000818152600a6020908152604080832094871680845294825291829020805460ff191686151590811790915591519182527f17307eab39ab6107e8899845ad3d59bd9653f200f220920489ca2b5937696c31910160405180910390a3505050565b61299a848484611eec565b6129a6848484846134dc565b6116c95760405162461bcd60e51b815260040161074f906144d6565b6060600d80546108d990614775565b6000610801825490565b8351855114612a3f5760405162461bcd60e51b815260206004820152602a60248201527f455243333636343a206174747249647320616e64206e616d6573206c656e67746044820152690d040dad2e6dac2e8c6d60b31b606482015260840161074f565b8251845114612aa35760405162461bcd60e51b815260206004820152602a60248201527f455243333636343a206e616d657320616e642073796d626f6c73206c656e67746044820152690d040dad2e6dac2e8c6d60b31b606482015260840161074f565b8051835114612b065760405162461bcd60e51b815260206004820152602960248201527f455243333636343a2073796d626f6c7320616e642075726973206c656e677468604482015268040dad2e6dac2e8c6d60bb1b606482015260840161074f565b60005b85518110156121a557612be2868281518110612b3557634e487b7160e01b600052603260045260246000fd5b6020026020010151868381518110612b5d57634e487b7160e01b600052603260045260246000fd5b6020026020010151868481518110612b8557634e487b7160e01b600052603260045260246000fd5b6020026020010151868581518110612bad57634e487b7160e01b600052603260045260246000fd5b6020026020010151868681518110612bd557634e487b7160e01b600052603260045260246000fd5b60200260200101516121cf565b80612bec816147aa565b915050612b09565b8051825114612c155760405162461bcd60e51b815260040161074f9061448a565b3360005b8351811015612d5b57612c49828660008785815181106123d157634e487b7160e01b600052603260045260246000fd5b828181518110612c6957634e487b7160e01b600052603260045260246000fd5b602002602001015160046000868481518110612c9557634e487b7160e01b600052603260045260246000fd5b602002602001015181526020019081526020016000206000828254612cba919061465b565b92505081905550828181518110612ce157634e487b7160e01b600052603260045260246000fd5b602002602001015160026000868481518110612d0d57634e487b7160e01b600052603260045260246000fd5b6020026020010151815260200190815260200160002060008781526020019081526020016000206000828254612d43919061465b565b90915550819050612d53816147aa565b915050612c19565b50836000826001600160a01b03167fbfb4d8e5891aebe97980c97616b6b0af2006a58ccabe6e1b7e3da24d0906a8568686604051611c029291906143bb565b6000818152600183016020526040812054612de157508154600181810184556000848152602080822090930184905584548482528286019093526040902091909155610801565b506000610801565b60006001600160e01b03198216637965db0b60e01b14806108015750610801826135e9565b612e1782611167565b156108465760405162461bcd60e51b815260206004820152602f60248201527f5765623344414f434e3a204561636820616464726573732063616e206f6e6c7960448201526e103430bb329037b732902a37b5b2b760891b606482015260840161074f565b60606000612e8b836002614687565b612e9690600261465b565b6001600160401b03811115612ebb57634e487b7160e01b600052604160045260246000fd5b6040519080825280601f01601f191660200182016040528015612ee5576020820181803683370190505b509050600360fc1b81600081518110612f0e57634e487b7160e01b600052603260045260246000fd5b60200101906001600160f81b031916908160001a905350600f60fb1b81600181518110612f4b57634e487b7160e01b600052603260045260246000fd5b60200101906001600160f81b031916908160001a9053506000612f6f846002614687565b612f7a90600161465b565b90505b600181111561300e576f181899199a1a9b1b9c1cb0b131b232b360811b85600f1660108110612fbc57634e487b7160e01b600052603260045260246000fd5b1a60f81b828281518110612fe057634e487b7160e01b600052603260045260246000fd5b60200101906001600160f81b031916908160001a90535060049490941c936130078161475e565b9050612f7d565b5083156113725760405162461bcd60e51b815260206004820181905260248201527f537472696e67733a20686578206c656e67746820696e73756666696369656e74604482015260640161074f565b61306782826113b8565b15610d9e576000828152600b602090815260408083206001600160a01b0385168085529252808320805460ff1916905551339285917ff6391f5c32d9c69d2a47ea670b442974b53935d1edc7fd64eb21e047a839171b9190a45050565b6000611372836001600160a01b038416613629565b6130e38383613746565b6130f060008484846134dc565b6108465760405162461bcd60e51b815260040161074f906144d6565b600082600001828154811061313157634e487b7160e01b600052603260045260246000fd5b9060005260206000200154905092915050565b6000306001600160a01b037f00000000000000000000000000000000000000000000000000000000000000001614801561319d57507f000000000000000000000000000000000000000000000000000000000000000046145b156131c757507f000000000000000000000000000000000000000000000000000000000000000090565b50604080517f00000000000000000000000000000000000000000000000000000000000000006020808301919091527f0000000000000000000000000000000000000000000000000000000000000000828401527f000000000000000000000000000000000000000000000000000000000000000060608301524660808301523060a0808401919091528351808403909101815260c0909201909252805191012090565b6000808251604114156132a25760208301516040840151606085015160001a61329687828585613894565b945094505050506132d4565b8251604014156132cc57602083015160408401516132c1868383613981565b9350935050506132d4565b506000905060025b9250929050565b60008160048111156132fd57634e487b7160e01b600052602160045260246000fd5b14156133065750565b600181600481111561332857634e487b7160e01b600052602160045260246000fd5b14156133765760405162461bcd60e51b815260206004820152601860248201527f45434453413a20696e76616c6964207369676e61747572650000000000000000604482015260640161074f565b600281600481111561339857634e487b7160e01b600052602160045260246000fd5b14156133e65760405162461bcd60e51b815260206004820152601f60248201527f45434453413a20696e76616c6964207369676e6174757265206c656e67746800604482015260640161074f565b600381600481111561340857634e487b7160e01b600052602160045260246000fd5b14156134615760405162461bcd60e51b815260206004820152602260248201527f45434453413a20696e76616c6964207369676e6174757265202773272076616c604482015261756560f01b606482015260840161074f565b600481600481111561348357634e487b7160e01b600052602160045260246000fd5b14156108885760405162461bcd60e51b815260206004820152602260248201527f45434453413a20696e76616c6964207369676e6174757265202776272076616c604482015261756560f01b606482015260840161074f565b60006001600160a01b0384163b156135de57604051630a85bd0160e11b81526001600160a01b0385169063150b7a029061352090339089908890889060040161436b565b602060405180830381600087803b15801561353a57600080fd5b505af192505050801561356a575060408051601f3d908101601f1916820190925261356791810190613f2f565b60015b6135c4573d808015613598576040519150601f19603f3d011682016040523d82523d6000602084013e61359d565b606091505b5080516135bc5760405162461bcd60e51b815260040161074f906144d6565b805181602001fd5b6001600160e01b031916630a85bd0160e11b149050611ee4565b506001949350505050565b60006001600160e01b031982166380ac58cd60e01b148061361a57506001600160e01b03198216635b5e139f60e01b145b806108015750610801826139b0565b6000818152600183016020526040812054801561373c57600061364d6001836146a6565b8554909150600090613661906001906146a6565b90508181146136e257600086600001828154811061368f57634e487b7160e01b600052603260045260246000fd5b90600052602060002001549050808760000184815481106136c057634e487b7160e01b600052603260045260246000fd5b6000918252602080832090910192909255918252600188019052604090208390555b855486908061370157634e487b7160e01b600052603160045260246000fd5b600190038181906000526020600020016000905590558560010160008681526020019081526020016000206000905560019350505050610801565b6000915050610801565b6001600160a01b03821661379c5760405162461bcd60e51b815260206004820181905260248201527f4552433732313a206d696e7420746f20746865207a65726f2061646472657373604482015260640161074f565b6000818152600760205260409020546001600160a01b0316156138015760405162461bcd60e51b815260206004820152601c60248201527f4552433732313a20746f6b656e20616c7265616479206d696e74656400000000604482015260640161074f565b61380d60008383612e0e565b6001600160a01b038216600090815260086020526040812080546001929061383690849061465b565b909155505060008181526007602052604080822080546001600160a01b0319166001600160a01b03861690811790915590518392907fddf252ad1be2c89b69c2b068fc378daa952ba7f163c4a11628f55a4df523b3ef908290a45050565b6000807f7fffffffffffffffffffffffffffffff5d576e7357a4501ddfe92f46681b20a08311156138cb5750600090506003613978565b8460ff16601b141580156138e357508460ff16601c14155b156138f45750600090506004613978565b6040805160008082526020820180845289905260ff881692820192909252606081018690526080810185905260019060a0016020604051602081039080840390855afa158015613948573d6000803e3d6000fd5b5050604051601f1901519150506001600160a01b03811661397157600060019250925050613978565b9150600090505b94509492505050565b6000806001600160ff1b03831660ff84901c601b016139a287828885613894565b935093505050935093915050565b60006001600160e01b03198216630e697ffb60e31b14806139e157506001600160e01b03198216632658600760e01b145b8061080157506301ffc9a760e01b6001600160e01b0319831614610801565b828054613a0c90614775565b90600052602060002090601f016020900481019282613a2e5760008555613a74565b82601f10613a4757805160ff1916838001178555613a74565b82800160010185558215613a74579182015b82811115613a74578251825591602001919060010190613a59565b50613a80929150613a84565b5090565b5b80821115613a805760008155600101613a85565b80356001600160a01b0381168114613ab057600080fd5b919050565b60008083601f840112613ac6578182fd5b5081356001600160401b03811115613adc578182fd5b6020830191508360208260051b85010111156132d457600080fd5b600082601f830112613b07578081fd5b81356020613b1c613b1783614638565b614608565b80838252828201915082860187848660051b8901011115613b3b578586fd5b855b85811015613b5957813584529284019290840190600101613b3d565b5090979650505050505050565b600082601f830112613b76578081fd5b81356020613b86613b1783614638565b80838252828201915082860187848660051b8901011115613ba5578586fd5b855b85811015613b5957613bb882613c44565b84529284019290840190600101613ba7565b80358015158114613ab057600080fd5b600082601f830112613bea578081fd5b81356001600160401b03811115613c0357613c03614805565b613c16601f8201601f1916602001614608565b818152846020838601011115613c2a578283fd5b816020850160208301379081016020019190915292915050565b803560ff81168114613ab057600080fd5b600060208284031215613c66578081fd5b61137282613a99565b60008060408385031215613c81578081fd5b613c8a83613a99565b9150613c9860208401613a99565b90509250929050565b600080600060608486031215613cb5578081fd5b613cbe84613a99565b9250613ccc60208501613a99565b9150604084013590509250925092565b60008060008060808587031215613cf1578081fd5b613cfa85613a99565b9350613d0860208601613a99565b92506040850135915060608501356001600160401b03811115613d29578182fd5b613d3587828801613bda565b91505092959194509250565b60008060408385031215613d53578182fd5b613d5c83613a99565b9150613c9860208401613bca565b60008060408385031215613d7c578182fd5b613d8583613a99565b946020939093013593505050565b600080600080600060a08688031215613daa578283fd5b613db386613a99565b97602087013597506040870135966060810135965060800135945092505050565b600080600080600080600080600060a08a8c031215613df1578687fd5b89356001600160401b0380821115613e07578889fd5b613e138d838e01613ab5565b909b50995060208c0135915080821115613e2b578889fd5b613e378d838e01613ab5565b909950975060408c0135915080821115613e4f578586fd5b613e5b8d838e01613ab5565b909750955060608c0135915080821115613e73578485fd5b613e7f8d838e01613b66565b945060808c0135915080821115613e94578384fd5b50613ea18c828d01613ab5565b915080935050809150509295985092959850929598565b600060208284031215613ec9578081fd5b5035919050565b60008060408385031215613ee2578182fd5b82359150613c9860208401613a99565b60008060408385031215613f04578182fd5b50508035926020909101359150565b600060208284031215613f24578081fd5b81356113728161481b565b600060208284031215613f40578081fd5b81516113728161481b565b600060208284031215613f5c578081fd5b81356001600160401b03811115613f71578182fd5b611ee484828501613bda565b600080600060408486031215613f91578081fd5b8335925060208401356001600160401b03811115613fad578182fd5b613fb986828701613ab5565b9497909650939450505050565b600080600060608486031215613fda578081fd5b8335925060208401356001600160401b0380821115613ff7578283fd5b61400387838801613af7565b93506040860135915080821115614018578283fd5b5061402586828701613af7565b9150509250925092565b60008060408385031215614041578182fd5b82359150613c9860208401613bca565b600080600080600060a08688031215614068578283fd5b8535945060208601356001600160401b0380821115614085578485fd5b61409189838a01613bda565b955060408801359150808211156140a6578485fd5b6140b289838a01613bda565b94506140c060608901613c44565b935060808801359150808211156140d5578283fd5b506140e288828901613bda565b9150509295509295909350565b600080600060608486031215614103578081fd5b505081359360208301359350604090920135919050565b6000806000806080858703121561412f578182fd5b5050823594602084013594506040840135936060013592509050565b600080600080600060a08688031215614162578283fd5b8535945060208601359350604086013592506060860135915060808601356001600160401b03811115614193578182fd5b6140e288828901613bda565b6000815180845260208085019450808401835b838110156141ce578151875295820195908201906001016141b2565b509495945050505050565b600081518084526141f1816020860160208601614732565b601f01601f19169290920160200192915050565b60008151614217818560208601614732565b9290920192915050565b60008351614233818460208801614732565b835190830190614247818360208801614732565b01949350505050565b600080845482600182811c91508083168061426c57607f831692505b602080841082141561428c57634e487b7160e01b87526022600452602487fd5b8180156142a057600181146142b1576142dd565b60ff198616895284890196506142dd565b60008b815260209020885b868110156142d55781548b8201529085019083016142bc565b505084890196505b5050505050506142ed8185614205565b95945050505050565b7f416363657373436f6e74726f6c3a206163636f756e742000000000000000000081526000835161432e816017850160208801614732565b7001034b99036b4b9b9b4b733903937b6329607d1b601791840191820152835161435f816028840160208801614732565b01602801949350505050565b6001600160a01b038581168252841660208201526040810183905260806060820181905260009061439e908301846141d9565b9695505050505050565b602081526000611372602083018461419f565b6040815260006143ce604083018561419f565b82810360208401526142ed818561419f565b60208152600061137260208301846141d9565b60808152600061440660808301876141d9565b828103602084015261441881876141d9565b905060ff85166040840152828103606084015261443581856141d9565b979650505050505050565b6020808252602a908201527f455243333636343a20696e73756666696369656e742062616c616e636520666f60408201526939103a3930b739b332b960b11b606082015260800190565b6020808252602c908201527f455243333636343a206174747249647320616e6420616d6f756e7473206c656e60408201526b0cee8d040dad2e6dac2e8c6d60a31b606082015260800190565b60208082526032908201527f4552433732313a207472616e7366657220746f206e6f6e20455243373231526560408201527131b2b4bb32b91034b6b83632b6b2b73a32b960711b606082015260800190565b60208082526027908201527f5765623344414f434e3a2063616c6c6572206973206e6f7420746865206e6674604082015266103437b63232b960c91b606082015260800190565b60208082526031908201527f4552433732313a207472616e736665722063616c6c6572206973206e6f74206f6040820152701ddb995c881b9bdc88185c1c1c9bdd9959607a1b606082015260800190565b60208082526028908201527f5765623344414f434e3a206d7573742068617665206d696e74657220726f6c65604082015267081d1bc81b5a5b9d60c21b606082015260800190565b604051601f8201601f191681016001600160401b038111828210171561463057614630614805565b604052919050565b60006001600160401b0382111561465157614651614805565b5060051b60200190565b6000821982111561466e5761466e6147d9565b500190565b600082614682576146826147ef565b500490565b60008160001904831182151516156146a1576146a16147d9565b500290565b6000828210156146b8576146b86147d9565b500390565b60006146cb613b1784614638565b808482526020808301925084368760051b870111156146e8578485fd5b845b878110156147265781356001600160401b03811115614707578687fd5b61471336828a01613bda565b86525093820193908201906001016146ea565b50919695505050505050565b60005b8381101561474d578181015183820152602001614735565b838111156116c95750506000910152565b60008161476d5761476d6147d9565b506000190190565b600181811c9082168061478957607f821691505b6020821081141561168657634e487b7160e01b600052602260045260246000fd5b60006000198214156147be576147be6147d9565b5060010190565b6000826147d4576147d46147ef565b500690565b634e487b7160e01b600052601160045260246000fd5b634e487b7160e01b600052601260045260246000fd5b634e487b7160e01b600052604160045260246000fd5b6001600160e01b03198116811461088857600080fdfe9f2df0fed2c77648de5860a4cc508cd0818c85b8b8a1ab4ceeef8d981c8956a6a2646970667358221220d9faf597ba80b1df9b9d70a009e0ea7e4ebd1146670539db43e14dbf1cc398ac64736f6c63430008040033",
  "linkReferences": {},
  "deployedLinkReferences": {}
}