{
  "_format": "hh-sol-artifact-1",
  "contractName": "Web3DAOCN",
  "sourceName": "contracts/Web3Dao.sol",
  "abi": [
    {
      "inputs": [
        {
          "internalType": "string",
          "name": "uri_",
          "type": "string"
        }
      ],
      "stateMutability": "nonpayable",
      "type": "constructor"
    },
    {
      "anonymous": false,
      "inputs": [
        {
          "indexed": true,
          "internalType": "address",
          "name": "owner",
          "type": "address"
        },
        {
          "indexed": true,
          "internalType": "address",
          "name": "approved",
          "type": "address"
        },
        {
          "indexed": true,
          "internalType": "uint256",
          "name": "tokenId",
          "type": "uint256"
        }
      ],
      "name": "Approval",
      "type": "event"
    },
    {
      "anonymous": false,
      "inputs": [
        {
          "indexed": true,
          "internalType": "address",
          "name": "owner",
          "type": "address"
        },
        {
          "indexed": true,
          "internalType": "address",
          "name": "operator",
          "type": "address"
        },
        {
          "indexed": false,
          "internalType": "bool",
          "name": "approved",
          "type": "bool"
        }
      ],
      "name": "ApprovalForAll",
      "type": "event"
    },
    {
      "anonymous": false,
      "inputs": [
        {
          "indexed": false,
          "internalType": "uint256",
          "name": "attrId",
          "type": "uint256"
        },
        {
          "indexed": false,
          "internalType": "bool",
          "name": "allow",
          "type": "bool"
        }
      ],
      "name": "AttrTransferAllow",
      "type": "event"
    },
    {
      "anonymous": false,
      "inputs": [
        {
          "indexed": true,
          "internalType": "address",
          "name": "operator",
          "type": "address"
        },
        {
          "indexed": false,
          "internalType": "uint256",
          "name": "from",
          "type": "uint256"
        },
        {
          "indexed": false,
          "internalType": "uint256",
          "name": "to",
          "type": "uint256"
        },
        {
          "indexed": false,
          "internalType": "uint256",
          "name": "attrId",
          "type": "uint256"
        },
        {
          "indexed": false,
          "internalType": "uint256",
          "name": "amount",
          "type": "uint256"
        }
      ],
      "name": "AttributeApproval",
      "type": "event"
    },
    {
      "anonymous": false,
      "inputs": [
        {
          "indexed": true,
          "internalType": "uint256",
          "name": "attrId",
          "type": "uint256"
        },
        {
          "indexed": false,
          "internalType": "string",
          "name": "name",
          "type": "string"
        },
        {
          "indexed": false,
          "internalType": "string",
          "name": "symbol",
          "type": "string"
        },
        {
          "indexed": false,
          "internalType": "uint8",
          "name": "_decimal",
          "type": "uint8"
        },
        {
          "indexed": false,
          "internalType": "string",
          "name": "uri",
          "type": "string"
        }
      ],
      "name": "AttributeCreated",
      "type": "event"
    },
    {
      "anonymous": false,
      "inputs": [
        {
          "indexed": true,
          "internalType": "bytes32",
          "name": "role",
          "type": "bytes32"
        },
        {
          "indexed": true,
          "internalType": "bytes32",
          "name": "previousAdminRole",
          "type": "bytes32"
        },
        {
          "indexed": true,
          "internalType": "bytes32",
          "name": "newAdminRole",
          "type": "bytes32"
        }
      ],
      "name": "RoleAdminChanged",
      "type": "event"
    },
    {
      "anonymous": false,
      "inputs": [
        {
          "indexed": true,
          "internalType": "bytes32",
          "name": "role",
          "type": "bytes32"
        },
        {
          "indexed": true,
          "internalType": "address",
          "name": "account",
          "type": "address"
        },
        {
          "indexed": true,
          "internalType": "address",
          "name": "sender",
          "type": "address"
        }
      ],
      "name": "RoleGranted",
      "type": "event"
    },
    {
      "anonymous": false,
      "inputs": [
        {
          "indexed": true,
          "internalType": "bytes32",
          "name": "role",
          "type": "bytes32"
        },
        {
          "indexed": true,
          "internalType": "address",
          "name": "account",
          "type": "address"
        },
        {
          "indexed": true,
          "internalType": "address",
          "name": "sender",
          "type": "address"
        }
      ],
      "name": "RoleRevoked",
      "type": "event"
    },
    {
      "anonymous": false,
      "inputs": [
        {
          "indexed": true,
          "internalType": "address",
          "name": "from",
          "type": "address"
        },
        {
          "indexed": true,
          "internalType": "address",
          "name": "to",
          "type": "address"
        },
        {
          "indexed": true,
          "internalType": "uint256",
          "name": "tokenId",
          "type": "uint256"
        }
      ],
      "name": "Transfer",
      "type": "event"
    },
    {
      "anonymous": false,
      "inputs": [
        {
          "indexed": true,
          "internalType": "address",
          "name": "operator",
          "type": "address"
        },
        {
          "indexed": true,
          "internalType": "uint256",
          "name": "from",
          "type": "uint256"
        },
        {
          "indexed": true,
          "internalType": "uint256",
          "name": "to",
          "type": "uint256"
        },
        {
          "indexed": false,
          "internalType": "uint256[]",
          "name": "attrIds",
          "type": "uint256[]"
        },
        {
          "indexed": false,
          "internalType": "uint256[]",
          "name": "values",
          "type": "uint256[]"
        }
      ],
      "name": "TransferBatch",
      "type": "event"
    },
    {
      "anonymous": false,
      "inputs": [
        {
          "indexed": true,
          "internalType": "address",
          "name": "operator",
          "type": "address"
        },
        {
          "indexed": true,
          "internalType": "uint256",
          "name": "from",
          "type": "uint256"
        },
        {
          "indexed": true,
          "internalType": "uint256",
          "name": "to",
          "type": "uint256"
        },
        {
          "indexed": false,
          "internalType": "uint256",
          "name": "attrId",
          "type": "uint256"
        },
        {
          "indexed": false,
          "internalType": "uint256",
          "name": "value",
          "type": "uint256"
        }
      ],
      "name": "TransferSingle",
      "type": "event"
    },
    {
      "inputs": [],
      "name": "DEFAULT_ADMIN_ROLE",
      "outputs": [
        {
          "internalType": "bytes32",
          "name": "",
          "type": "bytes32"
        }
      ],
      "stateMutability": "view",
      "type": "function"
    },
    {
      "inputs": [],
      "name": "MINTER_ROLE",
      "outputs": [
        {
          "internalType": "bytes32",
          "name": "",
          "type": "bytes32"
        }
      ],
      "stateMutability": "view",
      "type": "function"
    },
    {
      "inputs": [
        {
          "internalType": "uint256",
          "name": "",
          "type": "uint256"
        }
      ],
      "name": "_totalSupply",
      "outputs": [
        {
          "internalType": "uint256",
          "name": "",
          "type": "uint256"
        }
      ],
      "stateMutability": "view",
      "type": "function"
    },
    {
      "inputs": [
        {
          "internalType": "address",
          "name": "operator",
          "type": "address"
        },
        {
          "internalType": "uint256",
          "name": "from",
          "type": "uint256"
        },
        {
          "internalType": "uint256",
          "name": "to",
          "type": "uint256"
        },
        {
          "internalType": "uint256",
          "name": "attrId",
          "type": "uint256"
        },
        {
          "internalType": "uint256",
          "name": "amount",
          "type": "uint256"
        }
      ],
      "name": "_transfer",
      "outputs": [],
      "stateMutability": "nonpayable",
      "type": "function"
    },
    {
      "inputs": [
        {
          "internalType": "uint256",
          "name": "from",
          "type": "uint256"
        },
        {
          "internalType": "uint256",
          "name": "to",
          "type": "uint256"
        },
        {
          "internalType": "uint256",
          "name": "attrId",
          "type": "uint256"
        }
      ],
      "name": "allowance",
      "outputs": [
        {
          "internalType": "uint256",
          "name": "",
          "type": "uint256"
        }
      ],
      "stateMutability": "view",
      "type": "function"
    },
    {
      "inputs": [
        {
          "internalType": "address",
          "name": "to",
          "type": "address"
        },
        {
          "internalType": "uint256",
          "name": "tokenId",
          "type": "uint256"
        }
      ],
      "name": "approve",
      "outputs": [],
      "stateMutability": "nonpayable",
      "type": "function"
    },
    {
      "inputs": [
        {
          "internalType": "uint256",
          "name": "from",
          "type": "uint256"
        },
        {
          "internalType": "uint256",
          "name": "to",
          "type": "uint256"
        },
        {
          "internalType": "uint256",
          "name": "attrId",
          "type": "uint256"
        },
        {
          "internalType": "uint256",
          "name": "amount",
          "type": "uint256"
        }
      ],
      "name": "approve",
      "outputs": [],
      "stateMutability": "nonpayable",
      "type": "function"
    },
    {
      "inputs": [
        {
          "internalType": "uint256",
          "name": "",
          "type": "uint256"
        },
        {
          "internalType": "uint256",
          "name": "",
          "type": "uint256"
        }
      ],
      "name": "attrBalances",
      "outputs": [
        {
          "internalType": "uint256",
          "name": "",
          "type": "uint256"
        }
      ],
      "stateMutability": "view",
      "type": "function"
    },
    {
      "inputs": [
        {
          "internalType": "uint256",
          "name": "",
          "type": "uint256"
        }
      ],
      "name": "attrTransferAllow",
      "outputs": [
        {
          "internalType": "bool",
          "name": "",
          "type": "bool"
        }
      ],
      "stateMutability": "view",
      "type": "function"
    },
    {
      "inputs": [
        {
          "internalType": "uint256",
          "name": "attrId",
          "type": "uint256"
        }
      ],
      "name": "attrURI",
      "outputs": [
        {
          "internalType": "string",
          "name": "",
          "type": "string"
        }
      ],
      "stateMutability": "view",
      "type": "function"
    },
    {
      "inputs": [
        {
          "internalType": "address",
          "name": "owner",
          "type": "address"
        }
      ],
      "name": "balanceOf",
      "outputs": [
        {
          "internalType": "uint256",
          "name": "",
          "type": "uint256"
        }
      ],
      "stateMutability": "view",
      "type": "function"
    },
    {
      "inputs": [
        {
          "internalType": "uint256",
          "name": "tokenId",
          "type": "uint256"
        },
        {
          "internalType": "uint256",
          "name": "attrId",
          "type": "uint256"
        }
      ],
      "name": "balanceOf",
      "outputs": [
        {
          "internalType": "uint256",
          "name": "",
          "type": "uint256"
        }
      ],
      "stateMutability": "view",
      "type": "function"
    },
    {
      "inputs": [
        {
          "internalType": "uint256",
          "name": "tokenId",
          "type": "uint256"
        },
        {
          "internalType": "uint256[]",
          "name": "attrIds",
          "type": "uint256[]"
        }
      ],
      "name": "balanceOfBatch",
      "outputs": [
        {
          "internalType": "uint256[]",
          "name": "",
          "type": "uint256[]"
        }
      ],
      "stateMutability": "view",
      "type": "function"
    },
    {
      "inputs": [
        {
          "internalType": "uint256",
          "name": "tokenId",
          "type": "uint256"
        },
        {
          "internalType": "uint256",
          "name": "attrId",
          "type": "uint256"
        },
        {
          "internalType": "uint256",
          "name": "amount",
          "type": "uint256"
        }
      ],
      "name": "burn",
      "outputs": [],
      "stateMutability": "nonpayable",
      "type": "function"
    },
    {
      "inputs": [
        {
          "internalType": "uint256",
          "name": "tokenId",
          "type": "uint256"
        },
        {
          "internalType": "uint256[]",
          "name": "attrIds",
          "type": "uint256[]"
        },
        {
          "internalType": "uint256[]",
          "name": "amounts",
          "type": "uint256[]"
        }
      ],
      "name": "burnBatch",
      "outputs": [],
      "stateMutability": "nonpayable",
      "type": "function"
    },
    {
      "inputs": [
        {
          "internalType": "uint256",
          "name": "_attrId",
          "type": "uint256"
        },
        {
          "internalType": "string",
          "name": "_name",
          "type": "string"
        },
        {
          "internalType": "string",
          "name": "_symbol",
          "type": "string"
        },
        {
          "internalType": "uint8",
          "name": "_decimal",
          "type": "uint8"
        },
        {
          "internalType": "string",
          "name": "_uri",
          "type": "string"
        }
      ],
      "name": "create",
      "outputs": [],
      "stateMutability": "nonpayable",
      "type": "function"
    },
    {
      "inputs": [
        {
          "internalType": "uint256[]",
          "name": "attrIds",
          "type": "uint256[]"
        },
        {
          "internalType": "string[]",
          "name": "names",
          "type": "string[]"
        },
        {
          "internalType": "string[]",
          "name": "symbols",
          "type": "string[]"
        },
        {
          "internalType": "uint8[]",
          "name": "decimals",
          "type": "uint8[]"
        },
        {
          "internalType": "string[]",
          "name": "uris",
          "type": "string[]"
        }
      ],
      "name": "createBatch",
      "outputs": [],
      "stateMutability": "nonpayable",
      "type": "function"
    },
    {
      "inputs": [
        {
          "internalType": "uint256",
          "name": "attrId",
          "type": "uint256"
        }
      ],
      "name": "decimal",
      "outputs": [
        {
          "internalType": "uint8",
          "name": "",
          "type": "uint8"
        }
      ],
      "stateMutability": "view",
      "type": "function"
    },
    {
      "inputs": [
        {
          "internalType": "uint256",
          "name": "tokenId",
          "type": "uint256"
        }
      ],
      "name": "getApproved",
      "outputs": [
        {
          "internalType": "address",
          "name": "",
          "type": "address"
        }
      ],
      "stateMutability": "view",
      "type": "function"
    },
    {
      "inputs": [
        {
          "internalType": "bytes32",
          "name": "role",
          "type": "bytes32"
        }
      ],
      "name": "getRoleAdmin",
      "outputs": [
        {
          "internalType": "bytes32",
          "name": "",
          "type": "bytes32"
        }
      ],
      "stateMutability": "view",
      "type": "function"
    },
    {
      "inputs": [
        {
          "internalType": "bytes32",
          "name": "role",
          "type": "bytes32"
        },
        {
          "internalType": "uint256",
          "name": "index",
          "type": "uint256"
        }
      ],
      "name": "getRoleMember",
      "outputs": [
        {
          "internalType": "address",
          "name": "",
          "type": "address"
        }
      ],
      "stateMutability": "view",
      "type": "function"
    },
    {
      "inputs": [
        {
          "internalType": "bytes32",
          "name": "role",
          "type": "bytes32"
        }
      ],
      "name": "getRoleMemberCount",
      "outputs": [
        {
          "internalType": "uint256",
          "name": "",
          "type": "uint256"
        }
      ],
      "stateMutability": "view",
      "type": "function"
    },
    {
      "inputs": [
        {
          "internalType": "bytes32",
          "name": "role",
          "type": "bytes32"
        },
        {
          "internalType": "address",
          "name": "account",
          "type": "address"
        }
      ],
      "name": "grantRole",
      "outputs": [],
      "stateMutability": "nonpayable",
      "type": "function"
    },
    {
      "inputs": [
        {
          "internalType": "bytes32",
          "name": "role",
          "type": "bytes32"
        },
        {
          "internalType": "address",
          "name": "account",
          "type": "address"
        }
      ],
      "name": "hasRole",
      "outputs": [
        {
          "internalType": "bool",
          "name": "",
          "type": "bool"
        }
      ],
      "stateMutability": "view",
      "type": "function"
    },
    {
      "inputs": [
        {
          "internalType": "address",
          "name": "owner",
          "type": "address"
        },
        {
          "internalType": "address",
          "name": "operator",
          "type": "address"
        }
      ],
      "name": "isApprovedForAll",
      "outputs": [
        {
          "internalType": "bool",
          "name": "",
          "type": "bool"
        }
      ],
      "stateMutability": "view",
      "type": "function"
    },
    {
      "inputs": [
        {
          "internalType": "uint256",
          "name": "tokenId",
          "type": "uint256"
        },
        {
          "internalType": "uint256",
          "name": "attrId",
          "type": "uint256"
        },
        {
          "internalType": "uint256",
          "name": "amount",
          "type": "uint256"
        }
      ],
      "name": "mint",
      "outputs": [],
      "stateMutability": "nonpayable",
      "type": "function"
    },
    {
      "inputs": [
        {
          "internalType": "address",
          "name": "to",
          "type": "address"
        }
      ],
      "name": "mint",
      "outputs": [],
      "stateMutability": "nonpayable",
      "type": "function"
    },
    {
      "inputs": [
        {
          "internalType": "uint256",
          "name": "tokenId",
          "type": "uint256"
        },
        {
          "internalType": "uint256[]",
          "name": "attrIds",
          "type": "uint256[]"
        },
        {
          "internalType": "uint256[]",
          "name": "amounts",
          "type": "uint256[]"
        }
      ],
      "name": "mintBatch",
      "outputs": [],
      "stateMutability": "nonpayable",
      "type": "function"
    },
    {
      "inputs": [
        {
          "internalType": "uint256",
          "name": "attrId",
          "type": "uint256"
        }
      ],
      "name": "name",
      "outputs": [
        {
          "internalType": "string",
          "name": "",
          "type": "string"
        }
      ],
      "stateMutability": "view",
      "type": "function"
    },
    {
      "inputs": [],
      "name": "name",
      "outputs": [
        {
          "internalType": "string",
          "name": "",
          "type": "string"
        }
      ],
      "stateMutability": "view",
      "type": "function"
    },
    {
      "inputs": [
        {
          "internalType": "uint256",
          "name": "tokenId",
          "type": "uint256"
        }
      ],
      "name": "ownerOf",
      "outputs": [
        {
          "internalType": "address",
          "name": "",
          "type": "address"
        }
      ],
      "stateMutability": "view",
      "type": "function"
    },
    {
      "inputs": [
        {
          "internalType": "uint256",
          "name": "from",
          "type": "uint256"
        },
        {
          "internalType": "uint256",
          "name": "to",
          "type": "uint256"
        },
        {
          "internalType": "uint256",
          "name": "attrId",
          "type": "uint256"
        },
        {
          "internalType": "uint256",
          "name": "amount",
          "type": "uint256"
        },
        {
          "internalType": "bytes",
          "name": "signature",
          "type": "bytes"
        }
      ],
      "name": "permit",
      "outputs": [],
      "stateMutability": "nonpayable",
      "type": "function"
    },
    {
      "inputs": [
        {
          "internalType": "bytes32",
          "name": "role",
          "type": "bytes32"
        },
        {
          "internalType": "address",
          "name": "account",
          "type": "address"
        }
      ],
      "name": "renounceRole",
      "outputs": [],
      "stateMutability": "nonpayable",
      "type": "function"
    },
    {
      "inputs": [
        {
          "internalType": "bytes32",
          "name": "role",
          "type": "bytes32"
        },
        {
          "internalType": "address",
          "name": "account",
          "type": "address"
        }
      ],
      "name": "revokeRole",
      "outputs": [],
      "stateMutability": "nonpayable",
      "type": "function"
    },
    {
      "inputs": [
        {
          "internalType": "address",
          "name": "from",
          "type": "address"
        },
        {
          "internalType": "address",
          "name": "to",
          "type": "address"
        },
        {
          "internalType": "uint256",
          "name": "tokenId",
          "type": "uint256"
        }
      ],
      "name": "safeTransferFrom",
      "outputs": [],
      "stateMutability": "nonpayable",
      "type": "function"
    },
    {
      "inputs": [
        {
          "internalType": "address",
          "name": "from",
          "type": "address"
        },
        {
          "internalType": "address",
          "name": "to",
          "type": "address"
        },
        {
          "internalType": "uint256",
          "name": "tokenId",
          "type": "uint256"
        },
        {
          "internalType": "bytes",
          "name": "_data",
          "type": "bytes"
        }
      ],
      "name": "safeTransferFrom",
      "outputs": [],
      "stateMutability": "nonpayable",
      "type": "function"
    },
    {
      "inputs": [
        {
          "internalType": "address",
          "name": "operator",
          "type": "address"
        },
        {
          "internalType": "bool",
          "name": "approved",
          "type": "bool"
        }
      ],
      "name": "setApprovalForAll",
      "outputs": [],
      "stateMutability": "nonpayable",
      "type": "function"
    },
    {
      "inputs": [
        {
          "internalType": "uint256",
          "name": "attrId",
          "type": "uint256"
        },
        {
          "internalType": "bool",
          "name": "allow",
          "type": "bool"
        }
      ],
      "name": "setAttrTransferAllow",
      "outputs": [],
      "stateMutability": "nonpayable",
      "type": "function"
    },
    {
      "inputs": [
        {
          "internalType": "string",
          "name": "newuri",
          "type": "string"
        }
      ],
      "name": "setURI",
      "outputs": [],
      "stateMutability": "nonpayable",
      "type": "function"
    },
    {
      "inputs": [
        {
          "internalType": "bytes4",
          "name": "interfaceId",
          "type": "bytes4"
        }
      ],
      "name": "supportsInterface",
      "outputs": [
        {
          "internalType": "bool",
          "name": "",
          "type": "bool"
        }
      ],
      "stateMutability": "view",
      "type": "function"
    },
    {
      "inputs": [
        {
          "internalType": "uint256",
          "name": "attrId",
          "type": "uint256"
        }
      ],
      "name": "symbol",
      "outputs": [
        {
          "internalType": "string",
          "name": "",
          "type": "string"
        }
      ],
      "stateMutability": "view",
      "type": "function"
    },
    {
      "inputs": [],
      "name": "symbol",
      "outputs": [
        {
          "internalType": "string",
          "name": "",
          "type": "string"
        }
      ],
      "stateMutability": "view",
      "type": "function"
    },
    {
      "inputs": [
        {
          "internalType": "uint256",
          "name": "index",
          "type": "uint256"
        }
      ],
      "name": "tokenByIndex",
      "outputs": [
        {
          "internalType": "uint256",
          "name": "",
          "type": "uint256"
        }
      ],
      "stateMutability": "view",
      "type": "function"
    },
    {
      "inputs": [
        {
          "internalType": "address",
          "name": "owner",
          "type": "address"
        },
        {
          "internalType": "uint256",
          "name": "index",
          "type": "uint256"
        }
      ],
      "name": "tokenOfOwnerByIndex",
      "outputs": [
        {
          "internalType": "uint256",
          "name": "",
          "type": "uint256"
        }
      ],
      "stateMutability": "view",
      "type": "function"
    },
    {
      "inputs": [
        {
          "internalType": "uint256",
          "name": "tokenId",
          "type": "uint256"
        }
      ],
      "name": "tokenURI",
      "outputs": [
        {
          "internalType": "string",
          "name": "",
          "type": "string"
        }
      ],
      "stateMutability": "view",
      "type": "function"
    },
    {
      "inputs": [],
      "name": "totalSupply",
      "outputs": [
        {
          "internalType": "uint256",
          "name": "",
          "type": "uint256"
        }
      ],
      "stateMutability": "view",
      "type": "function"
    },
    {
      "inputs": [
        {
          "internalType": "uint256",
          "name": "attrId",
          "type": "uint256"
        }
      ],
      "name": "totalSupply",
      "outputs": [
        {
          "internalType": "uint256",
          "name": "",
          "type": "uint256"
        }
      ],
      "stateMutability": "view",
      "type": "function"
    },
    {
      "inputs": [
        {
          "internalType": "uint256",
          "name": "from",
          "type": "uint256"
        },
        {
          "internalType": "uint256",
          "name": "to",
          "type": "uint256"
        },
        {
          "internalType": "uint256",
          "name": "attrId",
          "type": "uint256"
        },
        {
          "internalType": "uint256",
          "name": "amount",
          "type": "uint256"
        }
      ],
      "name": "transfer",
      "outputs": [],
      "stateMutability": "nonpayable",
      "type": "function"
    },
    {
      "inputs": [
        {
          "internalType": "address",
          "name": "from",
          "type": "address"
        },
        {
          "internalType": "address",
          "name": "to",
          "type": "address"
        },
        {
          "internalType": "uint256",
          "name": "tokenId",
          "type": "uint256"
        }
      ],
      "name": "transferFrom",
      "outputs": [],
      "stateMutability": "nonpayable",
      "type": "function"
    },
    {
      "inputs": [
        {
          "internalType": "uint256",
          "name": "from",
          "type": "uint256"
        },
        {
          "internalType": "uint256",
          "name": "to",
          "type": "uint256"
        },
        {
          "internalType": "uint256",
          "name": "attrId",
          "type": "uint256"
        },
        {
          "internalType": "uint256",
          "name": "amount",
          "type": "uint256"
        }
      ],
      "name": "transferFrom",
      "outputs": [],
      "stateMutability": "nonpayable",
      "type": "function"
    }
  ],
  "bytecode": "0x6101406040523480156200001257600080fd5b506040516200516b3803806200516b8339810160408190526200003591620003f0565b6040518060400160405280600a8152602001692ba2a119a220a7a021a760b11b815250604051806040016040528060038152602001620312e360ec1b8152506040518060400160405280600f81526020016e15d9588cc8111053c810d388139195608a1b81525060405180604001604052806005815260200164574542c2b360d81b81525084620000cc81620001d260201b60201c565b508151620000e29060059060208501906200034a565b508051620000f89060069060208401906200034a565b5050825160208085019190912083518483012060e08290526101008190524660a0818152604080517f8b73c3c69bb8fe3d512ecc4cf759cc79239f7b179b0ffacaa9a75d522b39400f81880181905281830187905260608201869052608082019490945230818401528151808203909301835260c0019052805194019390932091935091906080523060601b60c05261012052506200019f925060009150339050620001eb565b620001cb7f9f2df0fed2c77648de5860a4cc508cd0818c85b8b8a1ab4ceeef8d981c8956a633620001eb565b5062000519565b8051620001e79060009060208401906200034a565b5050565b620001e782826200020882826200023460201b62001b021760201c565b60008281526010602090815260409091206200022f91839062001b88620002d8821b17901c565b505050565b6000828152600f602090815260408083206001600160a01b038516845290915290205460ff16620001e7576000828152600f602090815260408083206001600160a01b03851684529091529020805460ff19166001179055620002943390565b6001600160a01b0316816001600160a01b0316837f2f8788117e7eff1d82e926ec794901d17c78024a50270940304540a733656f0d60405160405180910390a45050565b6000620002ef836001600160a01b038416620002f8565b90505b92915050565b60008181526001830160205260408120546200034157508154600181810184556000848152602080822090930184905584548482528286019093526040902091909155620002f2565b506000620002f2565b8280546200035890620004c6565b90600052602060002090601f0160209004810192826200037c5760008555620003c7565b82601f106200039757805160ff1916838001178555620003c7565b82800160010185558215620003c7579182015b82811115620003c7578251825591602001919060010190620003aa565b50620003d5929150620003d9565b5090565b5b80821115620003d55760008155600101620003da565b6000602080838503121562000403578182fd5b82516001600160401b03808211156200041a578384fd5b818501915085601f8301126200042e578384fd5b81518181111562000443576200044362000503565b604051601f8201601f19908116603f011681019083821181831017156200046e576200046e62000503565b81604052828152888684870101111562000486578687fd5b8693505b82841015620004a957848401860151818501870152928501926200048a565b82841115620004ba57868684830101525b98975050505050505050565b600181811c90821680620004db57607f821691505b60208210811415620004fd57634e487b7160e01b600052602260045260246000fd5b50919050565b634e487b7160e01b600052604160045260246000fd5b60805160a05160c05160601c60e0516101005161012051614bff6200056c600039600061336c015260006133bb01526000613396015260006132ef01526000613319015260006133430152614bff6000f3fe608060405234801561001057600080fd5b50600436106102d55760003560e01c806378cc520d11610182578063bd85b039116100e9578063e15fe34f116100a2578063ea6996331161007c578063ea699633146106ec578063f030ba6314610716578063f037745714610729578063f371efa41461073c57600080fd5b8063e15fe34f14610672578063e829ffa114610685578063e985e9c5146106b057600080fd5b8063bd85b039146105f1578063c87b56dd14610611578063ca15c87314610624578063cd2e2c2414610637578063d53913931461064a578063d547741f1461065f57600080fd5b806391f7808e1161013b57806391f7808e1461059557806395d89b41146105a85780639bc5ae54146105b0578063a217fddf146105c3578063a22cb465146105cb578063b88d4fde146105de57600080fd5b806378cc520d146105135780637cba8598146105365780638856f779146105495780639010d07c1461055c57806391a2c83c1461056f57806391d148541461058257600080fd5b80632f745c59116102415780634f6ccce7116101fa5780636352211e116101d45780636352211e146104c75780636a627842146104da5780636c06296c146104ed57806370a082311461050057600080fd5b80634f6ccce7146104745780635977e82a146104875780635d126110146104a757600080fd5b80632f745c59146104025780632f94e4aa1461041557806336568abe1461042857806336cca0be1461043b57806342842e0e1461044e5780634e41a1fb1461046157600080fd5b8063081812fc11610293578063081812fc14610369578063095ea7b31461039457806318160ddd146103a757806323b872dd146103b9578063248a9ca3146103cc5780632f2ff15d146103ef57600080fd5b8062ad800c146102da57806301ffc9a71461030357806302acc94b1461032657806302fe53051461033b57806305a100281461034e57806306fdde0314610361575b600080fd5b6102ed6102e8366004614230565b610761565b6040516102fa9190614758565b60405180910390f35b61031661031136600461428b565b61087e565b60405190151581526020016102fa565b610339610334366004614467565b61088f565b005b6103396103493660046142c3565b6108d3565b61033961035c366004614467565b610913565b6102ed610952565b61037c610377366004614230565b6109e4565b6040516001600160a01b0390911681526020016102fa565b6103396103a23660046140e2565b610a79565b600d545b6040519081526020016102fa565b6103396103c7366004614019565b610b8a565b6103ab6103da366004614230565b6000908152600f602052604090206001015490565b6103396103fd366004614248565b610bbb565b6103ab6104103660046140e2565b610be1565b61033961042336600461410b565b610c77565b610339610436366004614248565b610e32565b6103396104493660046143c9565b610eb0565b61033961045c366004614019565b610ef8565b6102ed61046f366004614230565b610f13565b6103ab610482366004614230565b610fac565b6103ab610495366004614230565b60046020526000908152604090205481565b6104ba6104b53660046142f5565b61104d565b6040516102fa9190614720565b61037c6104d5366004614230565b611139565b6103396104e8366004613fcd565b6111b0565b6103396104fb366004614492565b611204565b6103ab61050e366004613fcd565b611241565b610316610521366004614230565b60126020526000908152604090205460ff1681565b610339610544366004614492565b6112c8565b610339610557366004614492565b611305565b61037c61056a36600461426a565b611434565b61033961057d36600461433e565b611453565b610316610590366004614248565b611492565b6103396105a33660046144c3565b6114bd565b6102ed6115ba565b6102ed6105be366004614230565b6115c9565b6103ab600081565b6103396105d93660046140b9565b611766565b6103396105ec366004614054565b611771565b6103ab6105ff366004614230565b60009081526004602052604090205490565b6102ed61061f366004614230565b6117a9565b6103ab610632366004614230565b611869565b61033961064536600461414c565b611880565b6103ab600080516020614baa83398151915281565b61033961066d366004614248565b61191c565b6103ab610680366004614467565b611942565b6103ab61069336600461426a565b600260209081526000928352604080842090915290825290205481565b6103166106be366004613fe7565b6001600160a01b039182166000908152600a6020908152604080832093909416825291909152205460ff1690565b6103ab6106fa36600461426a565b6000908152600260209081526040808320938352929052205490565b61033961072436600461433e565b6119a3565b6103396107373660046143a7565b6119e2565b61074f61074a366004614230565b611a6f565b60405160ff90911681526020016102fa565b60008181526001602052604090206004015460609060ff166107e05760405162461bcd60e51b815260206004820152602d60248201527f455243333636343a206e616d6520717565727920666f72206e6f6e657869737460448201526c656e742061747472696275746560981b60648201526084015b60405180910390fd5b600082815260016020526040902080546107f990614aed565b80601f016020809104026020016040519081016040528092919081815260200182805461082590614aed565b80156108725780601f1061084757610100808354040283529160200191610872565b820191906000526020600020905b81548152906001019060200180831161085557829003601f168201915b50505050509050919050565b600061088982611b9d565b92915050565b6108a7600080516020614baa83398151915233611492565b6108c35760405162461bcd60e51b81526004016107d790614938565b6108ce838383611bc2565b505050565b6108eb600080516020614baa83398151915233611492565b6109075760405162461bcd60e51b81526004016107d790614938565b61091081611cf7565b50565b61092b600080516020614baa83398151915233611492565b6109475760405162461bcd60e51b81526004016107d790614938565b6108ce838383611d0a565b60606005805461096190614aed565b80601f016020809104026020016040519081016040528092919081815260200182805461098d90614aed565b80156109da5780601f106109af576101008083540402835291602001916109da565b820191906000526020600020905b8154815290600101906020018083116109bd57829003601f168201915b5050505050905090565b6000818152600760205260408120546001600160a01b0316610a5d5760405162461bcd60e51b815260206004820152602c60248201527f4552433732313a20617070726f76656420717565727920666f72206e6f6e657860448201526b34b9ba32b73a103a37b5b2b760a11b60648201526084016107d7565b506000908152600960205260409020546001600160a01b031690565b6000610a8482611139565b9050806001600160a01b0316836001600160a01b03161415610af25760405162461bcd60e51b815260206004820152602160248201527f4552433732313a20617070726f76616c20746f2063757272656e74206f776e656044820152603960f91b60648201526084016107d7565b336001600160a01b0382161480610b0e5750610b0e81336106be565b610b805760405162461bcd60e51b815260206004820152603860248201527f4552433732313a20617070726f76652063616c6c6572206973206e6f74206f7760448201527f6e6572206e6f7220617070726f76656420666f7220616c6c000000000000000060648201526084016107d7565b6108ce8383611eea565b610b943382611f58565b610bb05760405162461bcd60e51b81526004016107d7906148e7565b6108ce83838361204f565b6000828152600f6020526040902060010154610bd781336121fa565b6108ce838361225e565b6000610bec83611241565b8210610c4e5760405162461bcd60e51b815260206004820152602b60248201527f455243373231456e756d657261626c653a206f776e657220696e646578206f7560448201526a74206f6620626f756e647360a81b60648201526084016107d7565b506001600160a01b03919091166000908152600b60209081526040808320938352929052205490565b83610cc45760405162461bcd60e51b815260206004820181905260248201527f455243333636343a207472616e736665722066726f6d20746865207a65726f2060448201526064016107d7565b82610d115760405162461bcd60e51b815260206004820152601e60248201527f455243333636343a207472616e7366657220746f20746865207a65726f20000060448201526064016107d7565b610d2e858585858560405180602001604052806000815250612280565b600082815260026020908152604080832087845290915290205481811015610da95760405162461bcd60e51b815260206004820152602860248201527f455243333636343a207472616e7366657220616d6f756e7420657863656564736044820152672062616c616e636560c01b60648201526084016107d7565b6000838152600260209081526040808320888452909152808220848403905585825281208054849290610ddd9084906149d3565b90915550506040805184815260208101849052859187916001600160a01b038a16917f73b5fbfbf0177b0de2ffe9fd0ae9887dd73d0d865db7ab5ff3c4a6b9bb8db1e3910160405180910390a4505050505050565b6001600160a01b0381163314610ea25760405162461bcd60e51b815260206004820152602f60248201527f416363657373436f6e74726f6c3a2063616e206f6e6c792072656e6f756e636560448201526e103937b632b9903337b91039b2b63360891b60648201526084016107d7565b610eac8282612310565b5050565b610ec8600080516020614baa83398151915233611492565b610ee45760405162461bcd60e51b81526004016107d790614938565b610ef18585858585612332565b5050505050565b6108ce83838360405180602001604052806000815250611771565b60008181526001602052604090206004015460609060ff16610f8f5760405162461bcd60e51b815260206004820152602f60248201527f455243333636343a2073796d626f6c20717565727920666f72206e6f6e65786960448201526e7374656e742061747472696275746560881b60648201526084016107d7565b60008281526001602081905260409091200180546107f990614aed565b6000610fb7600d5490565b821061101a5760405162461bcd60e51b815260206004820152602c60248201527f455243373231456e756d657261626c653a20676c6f62616c20696e646578206f60448201526b7574206f6620626f756e647360a01b60648201526084016107d7565b600d828154811061103b57634e487b7160e01b600052603260045260246000fd5b90600052602060002001549050919050565b60606000826001600160401b0381111561107757634e487b7160e01b600052604160045260246000fd5b6040519080825280602002602001820160405280156110a0578160200160208202803683370190505b50905060005b83811015611130576110f5868686848181106110d257634e487b7160e01b600052603260045260246000fd5b905060200201356000908152600260209081526040808320938352929052205490565b82828151811061111557634e487b7160e01b600052603260045260246000fd5b602090810291909101015261112981614b22565b90506110a6565b50949350505050565b6000818152600760205260408120546001600160a01b0316806108895760405162461bcd60e51b815260206004820152602960248201527f4552433732313a206f776e657220717565727920666f72206e6f6e657869737460448201526832b73a103a37b5b2b760b91b60648201526084016107d7565b6111c8600080516020614baa83398151915233611492565b6111e45760405162461bcd60e51b81526004016107d790614938565b6111f2601180546001019055565b610910816111ff60115490565b61249f565b833361120f82611139565b6001600160a01b0316146112355760405162461bcd60e51b81526004016107d7906148a0565b610ef1858585856124b9565b60006001600160a01b0382166112ac5760405162461bcd60e51b815260206004820152602a60248201527f4552433732313a2062616c616e636520717565727920666f7220746865207a65604482015269726f206164647265737360b01b60648201526084016107d7565b506001600160a01b031660009081526008602052604090205490565b83336112d382611139565b6001600160a01b0316146112f95760405162461bcd60e51b81526004016107d7906148a0565b610ef1858585856124c5565b336113138186868686610c77565b6000600360008588604051602001611335929190918252602082015260400190565b6040516020818303038152906040528051906020012081526020019081526020016000206000868152602001908152602001600020549050828110156113d05760405162461bcd60e51b815260206004820152602a60248201527f455243333636343a207472616e7366657220616d6f756e74206578636565647360448201526920616c6c6f77616e636560b01b60648201526084016107d7565b8281036003600086896040516020016113f3929190918252602082015260400190565b604051602081830303815290604052805190602001208152602001908152602001600020600087815260200190815260200160002081905550505050505050565b600082815260106020526040812061144c90836124d3565b9392505050565b61146b600080516020614baa83398151915233611492565b6114875760405162461bcd60e51b81526004016107d790614938565b6108ce8383836124df565b6000918252600f602090815260408084206001600160a01b0393909316845291905290205460ff1690565b604080517f7b2480524df4991b0b62b0d7e3b8464b30ee5b56692c328502590389d75b37f76020820152908101869052606081018590526080810184905260a0810183905260009060c001604051602081830303815290604052805190602001209050600061152b8261275c565b9050600061153982856127aa565b9050806001600160a01b031661154e89611139565b6001600160a01b0316146115a45760405162461bcd60e51b815260206004820152601960248201527f5065726d69743a20696e76616c6964207369676e61747572650000000000000060448201526064016107d7565b6115b0888888886127ce565b5050505050505050565b60606006805461096190614aed565b60008181526001602052604090206004015460609060ff166116425760405162461bcd60e51b815260206004820152602c60248201527f455243333636343a2055524920717565727920666f72206e6f6e65786973746560448201526b6e742061747472696275746560a01b60648201526084016107d7565b6000828152600160205260408120600301805461165e90614aed565b80601f016020809104026020016040519081016040528092919081815260200182805461168a90614aed565b80156116d75780601f106116ac576101008083540402835291602001916116d7565b820191906000526020600020905b8154815290600101906020018083116116ba57829003601f168201915b5050505050905060008151111561171a57806116f28461290a565b604051602001611703929190614599565b604051602081830303815290604052915050919050565b600080805461172890614aed565b905011611744576040518060200160405280600081525061144c565b600061174f8461290a565b6040516020016117039291906145c8565b50919050565b610eac338383612a23565b61177b3383611f58565b6117975760405162461bcd60e51b81526004016107d7906148e7565b6117a384848484612af2565b50505050565b6000818152600760205260409020546060906001600160a01b03166118285760405162461bcd60e51b815260206004820152602f60248201527f4552433732314d657461646174613a2055524920717565727920666f72206e6f60448201526e3732bc34b9ba32b73a103a37b5b2b760891b60648201526084016107d7565b600061183f60408051602081019091526000815290565b9050600081511161185f576040518060200160405280600081525061144c565b806116f28461290a565b600081815260106020526040812061088990612b25565b611898600080516020614baa83398151915233611492565b6118b45760405162461bcd60e51b81526004016107d790614938565b6119118989808060200260200160405190810160405280939291908181526020018383602002808284376000920191909152506118f792508a91508b9050614a35565b6119018789614a35565b8661190c8688614a35565b612b2f565b505050505050505050565b6000828152600f602052604090206001015461193881336121fa565b6108ce8383612310565b6000600360008386604051602001611964929190918252602082015260400190565b60405160208183030381529060405280519060200120815260200190815260200160002060008481526020019081526020016000205490509392505050565b6119bb600080516020614baa83398151915233611492565b6119d75760405162461bcd60e51b81526004016107d790614938565b6108ce838383612d48565b6119fa600080516020614baa83398151915233611492565b611a165760405162461bcd60e51b81526004016107d790614938565b600082815260126020908152604091829020805460ff19168415159081179091558251858152918201527ffd52edd8c6dd48138bc80a665216a16ba2beb45a076f16a0ecf317ef3cd0499e910160405180910390a15050565b60008181526001602052604081206004015460ff16611ae95760405162461bcd60e51b815260206004820152603060248201527f455243333636343a20646563696d616c20717565727920666f72206e6f6e657860448201526f697374656e742061747472696275746560801b60648201526084016107d7565b5060009081526001602052604090206002015460ff1690565b611b0c8282611492565b610eac576000828152600f602090815260408083206001600160a01b03851684529091529020805460ff19166001179055611b443390565b6001600160a01b0316816001600160a01b0316837f2f8788117e7eff1d82e926ec794901d17c78024a50270940304540a733656f0d60405160405180910390a45050565b600061144c836001600160a01b038416612eee565b60006001600160e01b03198216635a05180f60e01b1480610889575061088982612f3d565b60008281526001602052604090206004015460ff16611c335760405162461bcd60e51b815260206004820152602760248201527f455243333636343a206d696e7420666f72206e6f6e6578697374656e742061746044820152667472696275746560c81b60648201526084016107d7565b6000339050611c5681600086868660405180602001604052806000815250612280565b60008381526004602052604081208054849290611c749084906149d3565b9091555050600083815260026020908152604080832087845290915281208054849290611ca29084906149d3565b9091555050604080518481526020810184905285916000916001600160a01b038516917f73b5fbfbf0177b0de2ffe9fd0ae9887dd73d0d865db7ab5ff3c4a6b9bb8db1e391015b60405180910390a450505050565b8051610eac906000906020840190613d78565b60008281526001602052604090206004015460ff16611d7b5760405162461bcd60e51b815260206004820152602760248201527f455243333636343a206275726e20666f72206e6f6e6578697374656e742061746044820152667472696275746560c81b60648201526084016107d7565b6000828152600260209081526040808320868452909152902054611df75760405162461bcd60e51b815260206004820152602d60248201527f455243333636343a20746f6b656e20686173206e6f742061747461636865642060448201526c7468652061747472696275746560981b60648201526084016107d7565b6000339050611e1a81856000868660405180602001604052806000815250612280565b600083815260026020908152604080832087845290915290205482811015611e545760405162461bcd60e51b81526004016107d7906147b8565b611e5e8382614a1e565b6000858152600260209081526040808320898452825280832093909355868252600490529081208054859290611e95908490614a1e565b9091555050604080518581526020810185905260009187916001600160a01b038616917f73b5fbfbf0177b0de2ffe9fd0ae9887dd73d0d865db7ab5ff3c4a6b9bb8db1e3910160405180910390a45050505050565b600081815260096020526040902080546001600160a01b0319166001600160a01b0384169081179091558190611f1f82611139565b6001600160a01b03167f8c5be1e5ebec7d5bd14f71427d1e84f3dd0314c0f7b2291e5b200ac8c7c3b92560405160405180910390a45050565b6000818152600760205260408120546001600160a01b0316611fd15760405162461bcd60e51b815260206004820152602c60248201527f4552433732313a206f70657261746f7220717565727920666f72206e6f6e657860448201526b34b9ba32b73a103a37b5b2b760a11b60648201526084016107d7565b6000611fdc83611139565b9050806001600160a01b0316846001600160a01b031614806120175750836001600160a01b031661200c846109e4565b6001600160a01b0316145b8061204757506001600160a01b038082166000908152600a602090815260408083209388168352929052205460ff165b949350505050565b826001600160a01b031661206282611139565b6001600160a01b0316146120ca5760405162461bcd60e51b815260206004820152602960248201527f4552433732313a207472616e73666572206f6620746f6b656e2074686174206960448201526839903737ba1037bbb760b91b60648201526084016107d7565b6001600160a01b03821661212c5760405162461bcd60e51b8152602060048201526024808201527f4552433732313a207472616e7366657220746f20746865207a65726f206164646044820152637265737360e01b60648201526084016107d7565b612137838383612f62565b612142600082611eea565b6001600160a01b038316600090815260086020526040812080546001929061216b908490614a1e565b90915550506001600160a01b03821660009081526008602052604081208054600192906121999084906149d3565b909155505060008181526007602052604080822080546001600160a01b0319166001600160a01b0386811691821790925591518493918716917fddf252ad1be2c89b69c2b068fc378daa952ba7f163c4a11628f55a4df523b3ef91a4505050565b6122048282611492565b610eac5761221c816001600160a01b0316601461301a565b61222783602061301a565b60405160200161223892919061466e565b60408051601f198184030181529082905262461bcd60e51b82526107d791600401614758565b6122688282611b02565b60008281526010602052604090206108ce9082611b88565b612298600080516020614baa83398151915287611492565b806122b1575060008381526012602052604090205460ff165b6123085760405162461bcd60e51b815260206004820152602260248201527f5765623344414f434e3a2041747472207472616e73666572206e6f7420616c6c6044820152616f7760f01b60648201526084016107d7565b505050505050565b61231a82826131fb565b60008281526010602052604090206108ce9082613262565b60008581526001602052604090206004015460ff161561239e5760405162461bcd60e51b815260206004820152602160248201527f455243333636343a2061747472696275746520616c72656164792065786973746044820152607360f81b60648201526084016107d7565b6040805160a081018252858152602080820186905260ff8516828401526060820184905260016080830181905260008981529082529290922081518051929384936123ec9284920190613d78565b5060208281015180516124059260018501920190613d78565b50604082015160028201805460ff191660ff9092169190911790556060820151805161243b916003840191602090910190613d78565b50608091909101516004909101805460ff191691151591909117905560405186907f98fe0a4bf3a5354178c124c36fe2ec9f103adaba8905e75f72cb6900c6f949869061248f90889088908890889061476b565b60405180910390a2505050505050565b610eac828260405180602001604052806000815250613277565b6117a3848484846127ce565b33610ef18186868686610c77565b600061144c83836132aa565b80518251146125005760405162461bcd60e51b81526004016107d790614802565b3360005b835181101561271d576125798286600087858151811061253457634e487b7160e01b600052603260045260246000fd5b602002602001015187868151811061255c57634e487b7160e01b600052603260045260246000fd5b602002602001015160405180602001604052806000815250612280565b60006002600086848151811061259f57634e487b7160e01b600052603260045260246000fd5b6020026020010151815260200190815260200160002060008781526020019081526020016000205490508382815181106125e957634e487b7160e01b600052603260045260246000fd5b60200260200101518110156126105760405162461bcd60e51b81526004016107d7906147b8565b83828151811061263057634e487b7160e01b600052603260045260246000fd5b6020026020010151816126439190614a1e565b6002600087858151811061266757634e487b7160e01b600052603260045260246000fd5b602002602001015181526020019081526020016000206000888152602001908152602001600020819055508382815181106126b257634e487b7160e01b600052603260045260246000fd5b6020026020010151600460008785815181106126de57634e487b7160e01b600052603260045260246000fd5b6020026020010151815260200190815260200160002060008282546127039190614a1e565b90915550829150612715905081614b22565b915050612504565b50600084826001600160a01b03167fbfb4d8e5891aebe97980c97616b6b0af2006a58ccabe6e1b7e3da24d0906a8568686604051611ce9929190614733565b60006108896127696132e2565b8360405161190160f01b6020820152602281018390526042810182905260009060620160405160208183030381529060405280519060200120905092915050565b60008060006127b98585613409565b915091506127c681613479565b509392505050565b8361281b5760405162461bcd60e51b815260206004820152601f60248201527f455243333636343a20617070726f76652066726f6d20746865207a65726f200060448201526064016107d7565b826128685760405162461bcd60e51b815260206004820152601d60248201527f455243333636343a20617070726f766520746f20746865207a65726f2000000060448201526064016107d7565b80600360008487604051602001612889929190918252602082015260400190565b60408051601f19818403018152918152815160209283012083528282019390935290820160009081208782528252829020929092558051868152918201859052818101849052606082018390525133917f4f3267cf1b4f4eda70a80ac65e00830cf370b07c616b8e687c172b69bb15a190919081900360800190a250505050565b60608161292e5750506040805180820190915260018152600360fc1b602082015290565b8160005b8115612958578061294281614b22565b91506129519050600a836149eb565b9150612932565b6000816001600160401b0381111561298057634e487b7160e01b600052604160045260246000fd5b6040519080825280601f01601f1916602001820160405280156129aa576020820181803683370190505b5090505b8415612047576129bf600183614a1e565b91506129cc600a86614b3d565b6129d79060306149d3565b60f81b8183815181106129fa57634e487b7160e01b600052603260045260246000fd5b60200101906001600160f81b031916908160001a905350612a1c600a866149eb565b94506129ae565b816001600160a01b0316836001600160a01b03161415612a855760405162461bcd60e51b815260206004820152601960248201527f4552433732313a20617070726f766520746f2063616c6c65720000000000000060448201526064016107d7565b6001600160a01b038381166000818152600a6020908152604080832094871680845294825291829020805460ff191686151590811790915591519182527f17307eab39ab6107e8899845ad3d59bd9653f200f220920489ca2b5937696c31910160405180910390a3505050565b612afd84848461204f565b612b098484848461367a565b6117a35760405162461bcd60e51b81526004016107d79061484e565b6000610889825490565b8351855114612b935760405162461bcd60e51b815260206004820152602a60248201527f455243333636343a206174747249647320616e64206e616d6573206c656e67746044820152690d040dad2e6dac2e8c6d60b31b60648201526084016107d7565b8251845114612bf75760405162461bcd60e51b815260206004820152602a60248201527f455243333636343a206e616d657320616e642073796d626f6c73206c656e67746044820152690d040dad2e6dac2e8c6d60b31b60648201526084016107d7565b8051835114612c5a5760405162461bcd60e51b815260206004820152602960248201527f455243333636343a2073796d626f6c7320616e642075726973206c656e677468604482015268040dad2e6dac2e8c6d60bb1b60648201526084016107d7565b60005b855181101561230857612d36868281518110612c8957634e487b7160e01b600052603260045260246000fd5b6020026020010151868381518110612cb157634e487b7160e01b600052603260045260246000fd5b6020026020010151868481518110612cd957634e487b7160e01b600052603260045260246000fd5b6020026020010151868581518110612d0157634e487b7160e01b600052603260045260246000fd5b6020026020010151868681518110612d2957634e487b7160e01b600052603260045260246000fd5b6020026020010151612332565b80612d4081614b22565b915050612c5d565b8051825114612d695760405162461bcd60e51b81526004016107d790614802565b3360005b8351811015612eaf57612d9d8286600087858151811061253457634e487b7160e01b600052603260045260246000fd5b828181518110612dbd57634e487b7160e01b600052603260045260246000fd5b602002602001015160046000868481518110612de957634e487b7160e01b600052603260045260246000fd5b602002602001015181526020019081526020016000206000828254612e0e91906149d3565b92505081905550828181518110612e3557634e487b7160e01b600052603260045260246000fd5b602002602001015160026000868481518110612e6157634e487b7160e01b600052603260045260246000fd5b6020026020010151815260200190815260200160002060008781526020019081526020016000206000828254612e9791906149d3565b90915550819050612ea781614b22565b915050612d6d565b50836000826001600160a01b03167fbfb4d8e5891aebe97980c97616b6b0af2006a58ccabe6e1b7e3da24d0906a8568686604051611ce9929190614733565b6000818152600183016020526040812054612f3557508154600181810184556000848152602080822090930184905584548482528286019093526040902091909155610889565b506000610889565b60006001600160e01b03198216637965db0b60e01b1480610889575061088982613787565b6001600160a01b038316612fbd57612fb881600d80546000838152600e60205260408120829055600182018355919091527fd7b6990105719101dabeb77144f2a3385c8033acd3af97e9423a695e81ad1eb50155565b612fe0565b816001600160a01b0316836001600160a01b031614612fe057612fe083826137ac565b6001600160a01b038216612ff7576108ce81613849565b826001600160a01b0316826001600160a01b0316146108ce576108ce8282613922565b606060006130298360026149ff565b6130349060026149d3565b6001600160401b0381111561305957634e487b7160e01b600052604160045260246000fd5b6040519080825280601f01601f191660200182016040528015613083576020820181803683370190505b509050600360fc1b816000815181106130ac57634e487b7160e01b600052603260045260246000fd5b60200101906001600160f81b031916908160001a905350600f60fb1b816001815181106130e957634e487b7160e01b600052603260045260246000fd5b60200101906001600160f81b031916908160001a905350600061310d8460026149ff565b6131189060016149d3565b90505b60018111156131ac576f181899199a1a9b1b9c1cb0b131b232b360811b85600f166010811061315a57634e487b7160e01b600052603260045260246000fd5b1a60f81b82828151811061317e57634e487b7160e01b600052603260045260246000fd5b60200101906001600160f81b031916908160001a90535060049490941c936131a581614ad6565b905061311b565b50831561144c5760405162461bcd60e51b815260206004820181905260248201527f537472696e67733a20686578206c656e67746820696e73756666696369656e7460448201526064016107d7565b6132058282611492565b15610eac576000828152600f602090815260408083206001600160a01b0385168085529252808320805460ff1916905551339285917ff6391f5c32d9c69d2a47ea670b442974b53935d1edc7fd64eb21e047a839171b9190a45050565b600061144c836001600160a01b038416613966565b6132818383613a83565b61328e600084848461367a565b6108ce5760405162461bcd60e51b81526004016107d79061484e565b60008260000182815481106132cf57634e487b7160e01b600052603260045260246000fd5b9060005260206000200154905092915050565b6000306001600160a01b037f00000000000000000000000000000000000000000000000000000000000000001614801561333b57507f000000000000000000000000000000000000000000000000000000000000000046145b1561336557507f000000000000000000000000000000000000000000000000000000000000000090565b50604080517f00000000000000000000000000000000000000000000000000000000000000006020808301919091527f0000000000000000000000000000000000000000000000000000000000000000828401527f000000000000000000000000000000000000000000000000000000000000000060608301524660808301523060a0808401919091528351808403909101815260c0909201909252805191012090565b6000808251604114156134405760208301516040840151606085015160001a61343487828585613bd1565b94509450505050613472565b82516040141561346a576020830151604084015161345f868383613cbe565b935093505050613472565b506000905060025b9250929050565b600081600481111561349b57634e487b7160e01b600052602160045260246000fd5b14156134a45750565b60018160048111156134c657634e487b7160e01b600052602160045260246000fd5b14156135145760405162461bcd60e51b815260206004820152601860248201527f45434453413a20696e76616c6964207369676e6174757265000000000000000060448201526064016107d7565b600281600481111561353657634e487b7160e01b600052602160045260246000fd5b14156135845760405162461bcd60e51b815260206004820152601f60248201527f45434453413a20696e76616c6964207369676e6174757265206c656e6774680060448201526064016107d7565b60038160048111156135a657634e487b7160e01b600052602160045260246000fd5b14156135ff5760405162461bcd60e51b815260206004820152602260248201527f45434453413a20696e76616c6964207369676e6174757265202773272076616c604482015261756560f01b60648201526084016107d7565b600481600481111561362157634e487b7160e01b600052602160045260246000fd5b14156109105760405162461bcd60e51b815260206004820152602260248201527f45434453413a20696e76616c6964207369676e6174757265202776272076616c604482015261756560f01b60648201526084016107d7565b60006001600160a01b0384163b1561377c57604051630a85bd0160e11b81526001600160a01b0385169063150b7a02906136be9033908990889088906004016146e3565b602060405180830381600087803b1580156136d857600080fd5b505af1925050508015613708575060408051601f3d908101601f19168201909252613705918101906142a7565b60015b613762573d808015613736576040519150601f19603f3d011682016040523d82523d6000602084013e61373b565b606091505b50805161375a5760405162461bcd60e51b81526004016107d79061484e565b805181602001fd5b6001600160e01b031916630a85bd0160e11b149050612047565b506001949350505050565b60006001600160e01b0319821663780e9d6360e01b1480610889575061088982613ced565b600060016137b984611241565b6137c39190614a1e565b6000838152600c6020526040902054909150808214613816576001600160a01b0384166000908152600b602090815260408083208584528252808320548484528184208190558352600c90915290208190555b506000918252600c602090815260408084208490556001600160a01b039094168352600b81528383209183525290812055565b600d5460009061385b90600190614a1e565b6000838152600e6020526040812054600d805493945090928490811061389157634e487b7160e01b600052603260045260246000fd5b9060005260206000200154905080600d83815481106138c057634e487b7160e01b600052603260045260246000fd5b6000918252602080832090910192909255828152600e9091526040808220849055858252812055600d80548061390657634e487b7160e01b600052603160045260246000fd5b6001900381819060005260206000200160009055905550505050565b600061392d83611241565b6001600160a01b039093166000908152600b602090815260408083208684528252808320859055938252600c9052919091209190915550565b60008181526001830160205260408120548015613a7957600061398a600183614a1e565b855490915060009061399e90600190614a1e565b9050818114613a1f5760008660000182815481106139cc57634e487b7160e01b600052603260045260246000fd5b90600052602060002001549050808760000184815481106139fd57634e487b7160e01b600052603260045260246000fd5b6000918252602080832090910192909255918252600188019052604090208390555b8554869080613a3e57634e487b7160e01b600052603160045260246000fd5b600190038181906000526020600020016000905590558560010160008681526020019081526020016000206000905560019350505050610889565b6000915050610889565b6001600160a01b038216613ad95760405162461bcd60e51b815260206004820181905260248201527f4552433732313a206d696e7420746f20746865207a65726f206164647265737360448201526064016107d7565b6000818152600760205260409020546001600160a01b031615613b3e5760405162461bcd60e51b815260206004820152601c60248201527f4552433732313a20746f6b656e20616c7265616479206d696e7465640000000060448201526064016107d7565b613b4a60008383612f62565b6001600160a01b0382166000908152600860205260408120805460019290613b739084906149d3565b909155505060008181526007602052604080822080546001600160a01b0319166001600160a01b03861690811790915590518392907fddf252ad1be2c89b69c2b068fc378daa952ba7f163c4a11628f55a4df523b3ef908290a45050565b6000807f7fffffffffffffffffffffffffffffff5d576e7357a4501ddfe92f46681b20a0831115613c085750600090506003613cb5565b8460ff16601b14158015613c2057508460ff16601c14155b15613c315750600090506004613cb5565b6040805160008082526020820180845289905260ff881692820192909252606081018690526080810185905260019060a0016020604051602081039080840390855afa158015613c85573d6000803e3d6000fd5b5050604051601f1901519150506001600160a01b038116613cae57600060019250925050613cb5565b9150600090505b94509492505050565b6000806001600160ff1b03831660ff84901c601b01613cdf87828885613bd1565b935093505050935093915050565b60006001600160e01b031982166380ac58cd60e01b1480613d1e57506001600160e01b03198216635b5e139f60e01b145b8061088957506108898260006001600160e01b03198216630e697ffb60e31b1480613d5957506001600160e01b03198216632658600760e01b145b8061088957506301ffc9a760e01b6001600160e01b0319831614610889565b828054613d8490614aed565b90600052602060002090601f016020900481019282613da65760008555613dec565b82601f10613dbf57805160ff1916838001178555613dec565b82800160010185558215613dec579182015b82811115613dec578251825591602001919060010190613dd1565b50613df8929150613dfc565b5090565b5b80821115613df85760008155600101613dfd565b80356001600160a01b0381168114613e2857600080fd5b919050565b60008083601f840112613e3e578182fd5b5081356001600160401b03811115613e54578182fd5b6020830191508360208260051b850101111561347257600080fd5b600082601f830112613e7f578081fd5b81356020613e94613e8f836149b0565b614980565b80838252828201915082860187848660051b8901011115613eb3578586fd5b855b85811015613ed157813584529284019290840190600101613eb5565b5090979650505050505050565b600082601f830112613eee578081fd5b81356020613efe613e8f836149b0565b80838252828201915082860187848660051b8901011115613f1d578586fd5b855b85811015613ed157613f3082613fbc565b84529284019290840190600101613f1f565b80358015158114613e2857600080fd5b600082601f830112613f62578081fd5b81356001600160401b03811115613f7b57613f7b614b7d565b613f8e601f8201601f1916602001614980565b818152846020838601011115613fa2578283fd5b816020850160208301379081016020019190915292915050565b803560ff81168114613e2857600080fd5b600060208284031215613fde578081fd5b61144c82613e11565b60008060408385031215613ff9578081fd5b61400283613e11565b915061401060208401613e11565b90509250929050565b60008060006060848603121561402d578081fd5b61403684613e11565b925061404460208501613e11565b9150604084013590509250925092565b60008060008060808587031215614069578081fd5b61407285613e11565b935061408060208601613e11565b92506040850135915060608501356001600160401b038111156140a1578182fd5b6140ad87828801613f52565b91505092959194509250565b600080604083850312156140cb578182fd5b6140d483613e11565b915061401060208401613f42565b600080604083850312156140f4578182fd5b6140fd83613e11565b946020939093013593505050565b600080600080600060a08688031215614122578283fd5b61412b86613e11565b97602087013597506040870135966060810135965060800135945092505050565b600080600080600080600080600060a08a8c031215614169578687fd5b89356001600160401b038082111561417f578889fd5b61418b8d838e01613e2d565b909b50995060208c01359150808211156141a3578889fd5b6141af8d838e01613e2d565b909950975060408c01359150808211156141c7578586fd5b6141d38d838e01613e2d565b909750955060608c01359150808211156141eb578485fd5b6141f78d838e01613ede565b945060808c013591508082111561420c578384fd5b506142198c828d01613e2d565b915080935050809150509295985092959850929598565b600060208284031215614241578081fd5b5035919050565b6000806040838503121561425a578182fd5b8235915061401060208401613e11565b6000806040838503121561427c578182fd5b50508035926020909101359150565b60006020828403121561429c578081fd5b813561144c81614b93565b6000602082840312156142b8578081fd5b815161144c81614b93565b6000602082840312156142d4578081fd5b81356001600160401b038111156142e9578182fd5b61204784828501613f52565b600080600060408486031215614309578081fd5b8335925060208401356001600160401b03811115614325578182fd5b61433186828701613e2d565b9497909650939450505050565b600080600060608486031215614352578081fd5b8335925060208401356001600160401b038082111561436f578283fd5b61437b87838801613e6f565b93506040860135915080821115614390578283fd5b5061439d86828701613e6f565b9150509250925092565b600080604083850312156143b9578182fd5b8235915061401060208401613f42565b600080600080600060a086880312156143e0578283fd5b8535945060208601356001600160401b03808211156143fd578485fd5b61440989838a01613f52565b9550604088013591508082111561441e578485fd5b61442a89838a01613f52565b945061443860608901613fbc565b9350608088013591508082111561444d578283fd5b5061445a88828901613f52565b9150509295509295909350565b60008060006060848603121561447b578081fd5b505081359360208301359350604090920135919050565b600080600080608085870312156144a7578182fd5b5050823594602084013594506040840135936060013592509050565b600080600080600060a086880312156144da578283fd5b8535945060208601359350604086013592506060860135915060808601356001600160401b0381111561450b578182fd5b61445a88828901613f52565b6000815180845260208085019450808401835b838110156145465781518752958201959082019060010161452a565b509495945050505050565b60008151808452614569816020860160208601614aaa565b601f01601f19169290920160200192915050565b6000815161458f818560208601614aaa565b9290920192915050565b600083516145ab818460208801614aaa565b8351908301906145bf818360208801614aaa565b01949350505050565b600080845482600182811c9150808316806145e457607f831692505b602080841082141561460457634e487b7160e01b87526022600452602487fd5b818015614618576001811461462957614655565b60ff19861689528489019650614655565b60008b815260209020885b8681101561464d5781548b820152908501908301614634565b505084890196505b505050505050614665818561457d565b95945050505050565b7f416363657373436f6e74726f6c3a206163636f756e74200000000000000000008152600083516146a6816017850160208801614aaa565b7001034b99036b4b9b9b4b733903937b6329607d1b60179184019182015283516146d7816028840160208801614aaa565b01602801949350505050565b6001600160a01b038581168252841660208201526040810183905260806060820181905260009061471690830184614551565b9695505050505050565b60208152600061144c6020830184614517565b6040815260006147466040830185614517565b82810360208401526146658185614517565b60208152600061144c6020830184614551565b60808152600061477e6080830187614551565b82810360208401526147908187614551565b905060ff8516604084015282810360608401526147ad8185614551565b979650505050505050565b6020808252602a908201527f455243333636343a20696e73756666696369656e742062616c616e636520666f60408201526939103a3930b739b332b960b11b606082015260800190565b6020808252602c908201527f455243333636343a206174747249647320616e6420616d6f756e7473206c656e60408201526b0cee8d040dad2e6dac2e8c6d60a31b606082015260800190565b60208082526032908201527f4552433732313a207472616e7366657220746f206e6f6e20455243373231526560408201527131b2b4bb32b91034b6b83632b6b2b73a32b960711b606082015260800190565b60208082526027908201527f5765623344414f434e3a2063616c6c6572206973206e6f7420746865206e6674604082015266103437b63232b960c91b606082015260800190565b60208082526031908201527f4552433732313a207472616e736665722063616c6c6572206973206e6f74206f6040820152701ddb995c881b9bdc88185c1c1c9bdd9959607a1b606082015260800190565b60208082526028908201527f5765623344414f434e3a206d7573742068617665206d696e74657220726f6c65604082015267081d1bc81b5a5b9d60c21b606082015260800190565b604051601f8201601f191681016001600160401b03811182821017156149a8576149a8614b7d565b604052919050565b60006001600160401b038211156149c9576149c9614b7d565b5060051b60200190565b600082198211156149e6576149e6614b51565b500190565b6000826149fa576149fa614b67565b500490565b6000816000190483118215151615614a1957614a19614b51565b500290565b600082821015614a3057614a30614b51565b500390565b6000614a43613e8f846149b0565b808482526020808301925084368760051b87011115614a60578485fd5b845b87811015614a9e5781356001600160401b03811115614a7f578687fd5b614a8b36828a01613f52565b8652509382019390820190600101614a62565b50919695505050505050565b60005b83811015614ac5578181015183820152602001614aad565b838111156117a35750506000910152565b600081614ae557614ae5614b51565b506000190190565b600181811c90821680614b0157607f821691505b6020821081141561176057634e487b7160e01b600052602260045260246000fd5b6000600019821415614b3657614b36614b51565b5060010190565b600082614b4c57614b4c614b67565b500690565b634e487b7160e01b600052601160045260246000fd5b634e487b7160e01b600052601260045260246000fd5b634e487b7160e01b600052604160045260246000fd5b6001600160e01b03198116811461091057600080fdfe9f2df0fed2c77648de5860a4cc508cd0818c85b8b8a1ab4ceeef8d981c8956a6a26469706673582212204089887c5bb995c189ef59dfbfa087617ea8ba9c561f6de7f3af13ed5da08c5064736f6c63430008040033",
  "linkReferences": {},
  "deployedLinkReferences": {}
}