{
  "_format": "hh-sol-artifact-1",
  "contractName": "Web3DAOCN",
  "sourceName": "contracts/Web3Dao.sol",
  "abi": [
    {
      "inputs": [
        {
          "internalType": "string",
          "name": "uri_",
          "type": "string"
        }
      ],
      "stateMutability": "nonpayable",
      "type": "constructor"
    },
    {
      "anonymous": false,
      "inputs": [
        {
          "indexed": true,
          "internalType": "address",
          "name": "owner",
          "type": "address"
        },
        {
          "indexed": true,
          "internalType": "address",
          "name": "approved",
          "type": "address"
        },
        {
          "indexed": true,
          "internalType": "uint256",
          "name": "tokenId",
          "type": "uint256"
        }
      ],
      "name": "Approval",
      "type": "event"
    },
    {
      "anonymous": false,
      "inputs": [
        {
          "indexed": true,
          "internalType": "address",
          "name": "owner",
          "type": "address"
        },
        {
          "indexed": true,
          "internalType": "address",
          "name": "operator",
          "type": "address"
        },
        {
          "indexed": false,
          "internalType": "bool",
          "name": "approved",
          "type": "bool"
        }
      ],
      "name": "ApprovalForAll",
      "type": "event"
    },
    {
      "anonymous": false,
      "inputs": [
        {
          "indexed": false,
          "internalType": "uint256",
          "name": "attrId",
          "type": "uint256"
        },
        {
          "indexed": false,
          "internalType": "bool",
          "name": "allow",
          "type": "bool"
        }
      ],
      "name": "AttrTransferAllow",
      "type": "event"
    },
    {
      "anonymous": false,
      "inputs": [
        {
          "indexed": true,
          "internalType": "address",
          "name": "operator",
          "type": "address"
        },
        {
          "indexed": false,
          "internalType": "uint256",
          "name": "from",
          "type": "uint256"
        },
        {
          "indexed": false,
          "internalType": "uint256",
          "name": "to",
          "type": "uint256"
        },
        {
          "indexed": false,
          "internalType": "uint256",
          "name": "attrId",
          "type": "uint256"
        },
        {
          "indexed": false,
          "internalType": "uint256",
          "name": "amount",
          "type": "uint256"
        }
      ],
      "name": "AttributeApproval",
      "type": "event"
    },
    {
      "anonymous": false,
      "inputs": [
        {
          "indexed": true,
          "internalType": "uint256",
          "name": "attrId",
          "type": "uint256"
        },
        {
          "indexed": false,
          "internalType": "string",
          "name": "name",
          "type": "string"
        },
        {
          "indexed": false,
          "internalType": "string",
          "name": "symbol",
          "type": "string"
        },
        {
          "indexed": false,
          "internalType": "uint8",
          "name": "_decimal",
          "type": "uint8"
        },
        {
          "indexed": false,
          "internalType": "string",
          "name": "uri",
          "type": "string"
        }
      ],
      "name": "AttributeCreated",
      "type": "event"
    },
    {
      "anonymous": false,
      "inputs": [
        {
          "indexed": true,
          "internalType": "bytes32",
          "name": "role",
          "type": "bytes32"
        },
        {
          "indexed": true,
          "internalType": "bytes32",
          "name": "previousAdminRole",
          "type": "bytes32"
        },
        {
          "indexed": true,
          "internalType": "bytes32",
          "name": "newAdminRole",
          "type": "bytes32"
        }
      ],
      "name": "RoleAdminChanged",
      "type": "event"
    },
    {
      "anonymous": false,
      "inputs": [
        {
          "indexed": true,
          "internalType": "bytes32",
          "name": "role",
          "type": "bytes32"
        },
        {
          "indexed": true,
          "internalType": "address",
          "name": "account",
          "type": "address"
        },
        {
          "indexed": true,
          "internalType": "address",
          "name": "sender",
          "type": "address"
        }
      ],
      "name": "RoleGranted",
      "type": "event"
    },
    {
      "anonymous": false,
      "inputs": [
        {
          "indexed": true,
          "internalType": "bytes32",
          "name": "role",
          "type": "bytes32"
        },
        {
          "indexed": true,
          "internalType": "address",
          "name": "account",
          "type": "address"
        },
        {
          "indexed": true,
          "internalType": "address",
          "name": "sender",
          "type": "address"
        }
      ],
      "name": "RoleRevoked",
      "type": "event"
    },
    {
      "anonymous": false,
      "inputs": [
        {
          "indexed": true,
          "internalType": "address",
          "name": "from",
          "type": "address"
        },
        {
          "indexed": true,
          "internalType": "address",
          "name": "to",
          "type": "address"
        },
        {
          "indexed": true,
          "internalType": "uint256",
          "name": "tokenId",
          "type": "uint256"
        }
      ],
      "name": "Transfer",
      "type": "event"
    },
    {
      "anonymous": false,
      "inputs": [
        {
          "indexed": true,
          "internalType": "address",
          "name": "operator",
          "type": "address"
        },
        {
          "indexed": true,
          "internalType": "uint256",
          "name": "from",
          "type": "uint256"
        },
        {
          "indexed": true,
          "internalType": "uint256",
          "name": "to",
          "type": "uint256"
        },
        {
          "indexed": false,
          "internalType": "uint256[]",
          "name": "attrIds",
          "type": "uint256[]"
        },
        {
          "indexed": false,
          "internalType": "uint256[]",
          "name": "values",
          "type": "uint256[]"
        }
      ],
      "name": "TransferBatch",
      "type": "event"
    },
    {
      "anonymous": false,
      "inputs": [
        {
          "indexed": true,
          "internalType": "address",
          "name": "operator",
          "type": "address"
        },
        {
          "indexed": true,
          "internalType": "uint256",
          "name": "from",
          "type": "uint256"
        },
        {
          "indexed": true,
          "internalType": "uint256",
          "name": "to",
          "type": "uint256"
        },
        {
          "indexed": false,
          "internalType": "uint256",
          "name": "attrId",
          "type": "uint256"
        },
        {
          "indexed": false,
          "internalType": "uint256",
          "name": "value",
          "type": "uint256"
        }
      ],
      "name": "TransferSingle",
      "type": "event"
    },
    {
      "inputs": [],
      "name": "DEFAULT_ADMIN_ROLE",
      "outputs": [
        {
          "internalType": "bytes32",
          "name": "",
          "type": "bytes32"
        }
      ],
      "stateMutability": "view",
      "type": "function"
    },
    {
      "inputs": [],
      "name": "MINTER_ROLE",
      "outputs": [
        {
          "internalType": "bytes32",
          "name": "",
          "type": "bytes32"
        }
      ],
      "stateMutability": "view",
      "type": "function"
    },
    {
      "inputs": [
        {
          "internalType": "address",
          "name": "operator",
          "type": "address"
        },
        {
          "internalType": "uint256",
          "name": "from",
          "type": "uint256"
        },
        {
          "internalType": "uint256",
          "name": "to",
          "type": "uint256"
        },
        {
          "internalType": "uint256",
          "name": "attrId",
          "type": "uint256"
        },
        {
          "internalType": "uint256",
          "name": "amount",
          "type": "uint256"
        }
      ],
      "name": "_transfer",
      "outputs": [],
      "stateMutability": "nonpayable",
      "type": "function"
    },
    {
      "inputs": [
        {
          "internalType": "uint256",
          "name": "from",
          "type": "uint256"
        },
        {
          "internalType": "uint256",
          "name": "to",
          "type": "uint256"
        },
        {
          "internalType": "uint256",
          "name": "attrId",
          "type": "uint256"
        }
      ],
      "name": "allowance",
      "outputs": [
        {
          "internalType": "uint256",
          "name": "",
          "type": "uint256"
        }
      ],
      "stateMutability": "view",
      "type": "function"
    },
    {
      "inputs": [
        {
          "internalType": "address",
          "name": "to",
          "type": "address"
        },
        {
          "internalType": "uint256",
          "name": "tokenId",
          "type": "uint256"
        }
      ],
      "name": "approve",
      "outputs": [],
      "stateMutability": "nonpayable",
      "type": "function"
    },
    {
      "inputs": [
        {
          "internalType": "uint256",
          "name": "from",
          "type": "uint256"
        },
        {
          "internalType": "uint256",
          "name": "to",
          "type": "uint256"
        },
        {
          "internalType": "uint256",
          "name": "attrId",
          "type": "uint256"
        },
        {
          "internalType": "uint256",
          "name": "amount",
          "type": "uint256"
        }
      ],
      "name": "approve",
      "outputs": [],
      "stateMutability": "nonpayable",
      "type": "function"
    },
    {
      "inputs": [
        {
          "internalType": "uint256",
          "name": "",
          "type": "uint256"
        },
        {
          "internalType": "uint256",
          "name": "",
          "type": "uint256"
        }
      ],
      "name": "attrBalances",
      "outputs": [
        {
          "internalType": "uint256",
          "name": "",
          "type": "uint256"
        }
      ],
      "stateMutability": "view",
      "type": "function"
    },
    {
      "inputs": [
        {
          "internalType": "uint256",
          "name": "",
          "type": "uint256"
        }
      ],
      "name": "attrTransferAllow",
      "outputs": [
        {
          "internalType": "bool",
          "name": "",
          "type": "bool"
        }
      ],
      "stateMutability": "view",
      "type": "function"
    },
    {
      "inputs": [
        {
          "internalType": "uint256",
          "name": "attrId",
          "type": "uint256"
        }
      ],
      "name": "attrURI",
      "outputs": [
        {
          "internalType": "string",
          "name": "",
          "type": "string"
        }
      ],
      "stateMutability": "view",
      "type": "function"
    },
    {
      "inputs": [
        {
          "internalType": "address",
          "name": "owner",
          "type": "address"
        }
      ],
      "name": "balanceOf",
      "outputs": [
        {
          "internalType": "uint256",
          "name": "",
          "type": "uint256"
        }
      ],
      "stateMutability": "view",
      "type": "function"
    },
    {
      "inputs": [
        {
          "internalType": "uint256",
          "name": "tokenId",
          "type": "uint256"
        },
        {
          "internalType": "uint256",
          "name": "attrId",
          "type": "uint256"
        }
      ],
      "name": "balanceOf",
      "outputs": [
        {
          "internalType": "uint256",
          "name": "",
          "type": "uint256"
        }
      ],
      "stateMutability": "view",
      "type": "function"
    },
    {
      "inputs": [
        {
          "internalType": "uint256",
          "name": "tokenId",
          "type": "uint256"
        },
        {
          "internalType": "uint256[]",
          "name": "attrIds",
          "type": "uint256[]"
        }
      ],
      "name": "balanceOfBatch",
      "outputs": [
        {
          "internalType": "uint256[]",
          "name": "",
          "type": "uint256[]"
        }
      ],
      "stateMutability": "view",
      "type": "function"
    },
    {
      "inputs": [
        {
          "internalType": "uint256",
          "name": "tokenId",
          "type": "uint256"
        },
        {
          "internalType": "uint256",
          "name": "attrId",
          "type": "uint256"
        },
        {
          "internalType": "uint256",
          "name": "amount",
          "type": "uint256"
        }
      ],
      "name": "burn",
      "outputs": [],
      "stateMutability": "nonpayable",
      "type": "function"
    },
    {
      "inputs": [
        {
          "internalType": "uint256",
          "name": "tokenId",
          "type": "uint256"
        },
        {
          "internalType": "uint256[]",
          "name": "attrIds",
          "type": "uint256[]"
        },
        {
          "internalType": "uint256[]",
          "name": "amounts",
          "type": "uint256[]"
        }
      ],
      "name": "burnBatch",
      "outputs": [],
      "stateMutability": "nonpayable",
      "type": "function"
    },
    {
      "inputs": [
        {
          "internalType": "uint256",
          "name": "_attrId",
          "type": "uint256"
        },
        {
          "internalType": "string",
          "name": "_name",
          "type": "string"
        },
        {
          "internalType": "string",
          "name": "_symbol",
          "type": "string"
        },
        {
          "internalType": "uint8",
          "name": "_decimal",
          "type": "uint8"
        },
        {
          "internalType": "string",
          "name": "_uri",
          "type": "string"
        }
      ],
      "name": "create",
      "outputs": [],
      "stateMutability": "nonpayable",
      "type": "function"
    },
    {
      "inputs": [
        {
          "internalType": "uint256[]",
          "name": "attrIds",
          "type": "uint256[]"
        },
        {
          "internalType": "string[]",
          "name": "names",
          "type": "string[]"
        },
        {
          "internalType": "string[]",
          "name": "symbols",
          "type": "string[]"
        },
        {
          "internalType": "uint8[]",
          "name": "decimals",
          "type": "uint8[]"
        },
        {
          "internalType": "string[]",
          "name": "uris",
          "type": "string[]"
        }
      ],
      "name": "createBatch",
      "outputs": [],
      "stateMutability": "nonpayable",
      "type": "function"
    },
    {
      "inputs": [
        {
          "internalType": "uint256",
          "name": "attrId",
          "type": "uint256"
        }
      ],
      "name": "decimal",
      "outputs": [
        {
          "internalType": "uint8",
          "name": "",
          "type": "uint8"
        }
      ],
      "stateMutability": "view",
      "type": "function"
    },
    {
      "inputs": [
        {
          "internalType": "uint256",
          "name": "tokenId",
          "type": "uint256"
        }
      ],
      "name": "getApproved",
      "outputs": [
        {
          "internalType": "address",
          "name": "",
          "type": "address"
        }
      ],
      "stateMutability": "view",
      "type": "function"
    },
    {
      "inputs": [
        {
          "internalType": "bytes32",
          "name": "role",
          "type": "bytes32"
        }
      ],
      "name": "getRoleAdmin",
      "outputs": [
        {
          "internalType": "bytes32",
          "name": "",
          "type": "bytes32"
        }
      ],
      "stateMutability": "view",
      "type": "function"
    },
    {
      "inputs": [
        {
          "internalType": "bytes32",
          "name": "role",
          "type": "bytes32"
        },
        {
          "internalType": "uint256",
          "name": "index",
          "type": "uint256"
        }
      ],
      "name": "getRoleMember",
      "outputs": [
        {
          "internalType": "address",
          "name": "",
          "type": "address"
        }
      ],
      "stateMutability": "view",
      "type": "function"
    },
    {
      "inputs": [
        {
          "internalType": "bytes32",
          "name": "role",
          "type": "bytes32"
        }
      ],
      "name": "getRoleMemberCount",
      "outputs": [
        {
          "internalType": "uint256",
          "name": "",
          "type": "uint256"
        }
      ],
      "stateMutability": "view",
      "type": "function"
    },
    {
      "inputs": [
        {
          "internalType": "bytes32",
          "name": "role",
          "type": "bytes32"
        },
        {
          "internalType": "address",
          "name": "account",
          "type": "address"
        }
      ],
      "name": "grantRole",
      "outputs": [],
      "stateMutability": "nonpayable",
      "type": "function"
    },
    {
      "inputs": [
        {
          "internalType": "bytes32",
          "name": "role",
          "type": "bytes32"
        },
        {
          "internalType": "address",
          "name": "account",
          "type": "address"
        }
      ],
      "name": "hasRole",
      "outputs": [
        {
          "internalType": "bool",
          "name": "",
          "type": "bool"
        }
      ],
      "stateMutability": "view",
      "type": "function"
    },
    {
      "inputs": [
        {
          "internalType": "address",
          "name": "owner",
          "type": "address"
        },
        {
          "internalType": "address",
          "name": "operator",
          "type": "address"
        }
      ],
      "name": "isApprovedForAll",
      "outputs": [
        {
          "internalType": "bool",
          "name": "",
          "type": "bool"
        }
      ],
      "stateMutability": "view",
      "type": "function"
    },
    {
      "inputs": [
        {
          "internalType": "uint256",
          "name": "tokenId",
          "type": "uint256"
        },
        {
          "internalType": "uint256",
          "name": "attrId",
          "type": "uint256"
        },
        {
          "internalType": "uint256",
          "name": "amount",
          "type": "uint256"
        }
      ],
      "name": "mint",
      "outputs": [],
      "stateMutability": "nonpayable",
      "type": "function"
    },
    {
      "inputs": [
        {
          "internalType": "address",
          "name": "to",
          "type": "address"
        }
      ],
      "name": "mint",
      "outputs": [],
      "stateMutability": "nonpayable",
      "type": "function"
    },
    {
      "inputs": [
        {
          "internalType": "uint256",
          "name": "tokenId",
          "type": "uint256"
        },
        {
          "internalType": "uint256[]",
          "name": "attrIds",
          "type": "uint256[]"
        },
        {
          "internalType": "uint256[]",
          "name": "amounts",
          "type": "uint256[]"
        }
      ],
      "name": "mintBatch",
      "outputs": [],
      "stateMutability": "nonpayable",
      "type": "function"
    },
    {
      "inputs": [
        {
          "internalType": "uint256",
          "name": "attrId",
          "type": "uint256"
        }
      ],
      "name": "name",
      "outputs": [
        {
          "internalType": "string",
          "name": "",
          "type": "string"
        }
      ],
      "stateMutability": "view",
      "type": "function"
    },
    {
      "inputs": [],
      "name": "name",
      "outputs": [
        {
          "internalType": "string",
          "name": "",
          "type": "string"
        }
      ],
      "stateMutability": "view",
      "type": "function"
    },
    {
      "inputs": [
        {
          "internalType": "uint256",
          "name": "tokenId",
          "type": "uint256"
        }
      ],
      "name": "ownerOf",
      "outputs": [
        {
          "internalType": "address",
          "name": "",
          "type": "address"
        }
      ],
      "stateMutability": "view",
      "type": "function"
    },
    {
      "inputs": [
        {
          "internalType": "uint256",
          "name": "from",
          "type": "uint256"
        },
        {
          "internalType": "uint256",
          "name": "to",
          "type": "uint256"
        },
        {
          "internalType": "uint256",
          "name": "attrId",
          "type": "uint256"
        },
        {
          "internalType": "uint256",
          "name": "amount",
          "type": "uint256"
        },
        {
          "internalType": "bytes",
          "name": "signature",
          "type": "bytes"
        }
      ],
      "name": "permit",
      "outputs": [],
      "stateMutability": "nonpayable",
      "type": "function"
    },
    {
      "inputs": [
        {
          "internalType": "bytes32",
          "name": "role",
          "type": "bytes32"
        },
        {
          "internalType": "address",
          "name": "account",
          "type": "address"
        }
      ],
      "name": "renounceRole",
      "outputs": [],
      "stateMutability": "nonpayable",
      "type": "function"
    },
    {
      "inputs": [
        {
          "internalType": "bytes32",
          "name": "role",
          "type": "bytes32"
        },
        {
          "internalType": "address",
          "name": "account",
          "type": "address"
        }
      ],
      "name": "revokeRole",
      "outputs": [],
      "stateMutability": "nonpayable",
      "type": "function"
    },
    {
      "inputs": [
        {
          "internalType": "address",
          "name": "from",
          "type": "address"
        },
        {
          "internalType": "address",
          "name": "to",
          "type": "address"
        },
        {
          "internalType": "uint256",
          "name": "tokenId",
          "type": "uint256"
        }
      ],
      "name": "safeTransferFrom",
      "outputs": [],
      "stateMutability": "nonpayable",
      "type": "function"
    },
    {
      "inputs": [
        {
          "internalType": "address",
          "name": "from",
          "type": "address"
        },
        {
          "internalType": "address",
          "name": "to",
          "type": "address"
        },
        {
          "internalType": "uint256",
          "name": "tokenId",
          "type": "uint256"
        },
        {
          "internalType": "bytes",
          "name": "_data",
          "type": "bytes"
        }
      ],
      "name": "safeTransferFrom",
      "outputs": [],
      "stateMutability": "nonpayable",
      "type": "function"
    },
    {
      "inputs": [
        {
          "internalType": "address",
          "name": "operator",
          "type": "address"
        },
        {
          "internalType": "bool",
          "name": "approved",
          "type": "bool"
        }
      ],
      "name": "setApprovalForAll",
      "outputs": [],
      "stateMutability": "nonpayable",
      "type": "function"
    },
    {
      "inputs": [
        {
          "internalType": "uint256",
          "name": "attrId",
          "type": "uint256"
        },
        {
          "internalType": "bool",
          "name": "allow",
          "type": "bool"
        }
      ],
      "name": "setAttrTransferAllow",
      "outputs": [],
      "stateMutability": "nonpayable",
      "type": "function"
    },
    {
      "inputs": [
        {
          "internalType": "string",
          "name": "newuri",
          "type": "string"
        }
      ],
      "name": "setURI",
      "outputs": [],
      "stateMutability": "nonpayable",
      "type": "function"
    },
    {
      "inputs": [
        {
          "internalType": "bytes4",
          "name": "interfaceId",
          "type": "bytes4"
        }
      ],
      "name": "supportsInterface",
      "outputs": [
        {
          "internalType": "bool",
          "name": "",
          "type": "bool"
        }
      ],
      "stateMutability": "view",
      "type": "function"
    },
    {
      "inputs": [
        {
          "internalType": "uint256",
          "name": "attrId",
          "type": "uint256"
        }
      ],
      "name": "symbol",
      "outputs": [
        {
          "internalType": "string",
          "name": "",
          "type": "string"
        }
      ],
      "stateMutability": "view",
      "type": "function"
    },
    {
      "inputs": [],
      "name": "symbol",
      "outputs": [
        {
          "internalType": "string",
          "name": "",
          "type": "string"
        }
      ],
      "stateMutability": "view",
      "type": "function"
    },
    {
      "inputs": [
        {
          "internalType": "uint256",
          "name": "index",
          "type": "uint256"
        }
      ],
      "name": "tokenByIndex",
      "outputs": [
        {
          "internalType": "uint256",
          "name": "",
          "type": "uint256"
        }
      ],
      "stateMutability": "view",
      "type": "function"
    },
    {
      "inputs": [
        {
          "internalType": "address",
          "name": "owner",
          "type": "address"
        },
        {
          "internalType": "uint256",
          "name": "index",
          "type": "uint256"
        }
      ],
      "name": "tokenOfOwnerByIndex",
      "outputs": [
        {
          "internalType": "uint256",
          "name": "",
          "type": "uint256"
        }
      ],
      "stateMutability": "view",
      "type": "function"
    },
    {
      "inputs": [
        {
          "internalType": "uint256",
          "name": "tokenId",
          "type": "uint256"
        }
      ],
      "name": "tokenURI",
      "outputs": [
        {
          "internalType": "string",
          "name": "",
          "type": "string"
        }
      ],
      "stateMutability": "view",
      "type": "function"
    },
    {
      "inputs": [],
      "name": "totalSupply",
      "outputs": [
        {
          "internalType": "uint256",
          "name": "",
          "type": "uint256"
        }
      ],
      "stateMutability": "view",
      "type": "function"
    },
    {
      "inputs": [
        {
          "internalType": "uint256",
          "name": "attrId",
          "type": "uint256"
        }
      ],
      "name": "totalSupply",
      "outputs": [
        {
          "internalType": "uint256",
          "name": "",
          "type": "uint256"
        }
      ],
      "stateMutability": "view",
      "type": "function"
    },
    {
      "inputs": [
        {
          "internalType": "uint256",
          "name": "from",
          "type": "uint256"
        },
        {
          "internalType": "uint256",
          "name": "to",
          "type": "uint256"
        },
        {
          "internalType": "uint256",
          "name": "attrId",
          "type": "uint256"
        },
        {
          "internalType": "uint256",
          "name": "amount",
          "type": "uint256"
        }
      ],
      "name": "transfer",
      "outputs": [],
      "stateMutability": "nonpayable",
      "type": "function"
    },
    {
      "inputs": [
        {
          "internalType": "address",
          "name": "from",
          "type": "address"
        },
        {
          "internalType": "address",
          "name": "to",
          "type": "address"
        },
        {
          "internalType": "uint256",
          "name": "tokenId",
          "type": "uint256"
        }
      ],
      "name": "transferFrom",
      "outputs": [],
      "stateMutability": "nonpayable",
      "type": "function"
    },
    {
      "inputs": [
        {
          "internalType": "uint256",
          "name": "from",
          "type": "uint256"
        },
        {
          "internalType": "uint256",
          "name": "to",
          "type": "uint256"
        },
        {
          "internalType": "uint256",
          "name": "attrId",
          "type": "uint256"
        },
        {
          "internalType": "uint256",
          "name": "amount",
          "type": "uint256"
        }
      ],
      "name": "transferFrom",
      "outputs": [],
      "stateMutability": "nonpayable",
      "type": "function"
    }
  ],
  "bytecode": "0x6101406040523480156200001257600080fd5b50604051620050b4380380620050b48339810160408190526200003591620003f0565b6040518060400160405280600a8152602001692ba2a119a220a7a021a760b11b815250604051806040016040528060038152602001620312e360ec1b8152506040518060400160405280600f81526020016e15d9588cc8111053c810d388139195608a1b81525060405180604001604052806005815260200164574542c2b360d81b81525084620000cc81620001d260201b60201c565b508151620000e29060059060208501906200034a565b508051620000f89060069060208401906200034a565b5050825160208085019190912083518483012060e08290526101008190524660a0818152604080517f8b73c3c69bb8fe3d512ecc4cf759cc79239f7b179b0ffacaa9a75d522b39400f81880181905281830187905260608201869052608082019490945230818401528151808203909301835260c0019052805194019390932091935091906080523060601b60c05261012052506200019f925060009150339050620001eb565b620001cb7f9f2df0fed2c77648de5860a4cc508cd0818c85b8b8a1ab4ceeef8d981c8956a633620001eb565b5062000519565b8051620001e79060009060208401906200034a565b5050565b620001e782826200020882826200023460201b62001ac71760201c565b60008281526010602090815260409091206200022f91839062001b4d620002d8821b17901c565b505050565b6000828152600f602090815260408083206001600160a01b038516845290915290205460ff16620001e7576000828152600f602090815260408083206001600160a01b03851684529091529020805460ff19166001179055620002943390565b6001600160a01b0316816001600160a01b0316837f2f8788117e7eff1d82e926ec794901d17c78024a50270940304540a733656f0d60405160405180910390a45050565b6000620002ef836001600160a01b038416620002f8565b90505b92915050565b60008181526001830160205260408120546200034157508154600181810184556000848152602080822090930184905584548482528286019093526040902091909155620002f2565b506000620002f2565b8280546200035890620004c6565b90600052602060002090601f0160209004810192826200037c5760008555620003c7565b82601f106200039757805160ff1916838001178555620003c7565b82800160010185558215620003c7579182015b82811115620003c7578251825591602001919060010190620003aa565b50620003d5929150620003d9565b5090565b5b80821115620003d55760008155600101620003da565b6000602080838503121562000403578182fd5b82516001600160401b03808211156200041a578384fd5b818501915085601f8301126200042e578384fd5b81518181111562000443576200044362000503565b604051601f8201601f19908116603f011681019083821181831017156200046e576200046e62000503565b81604052828152888684870101111562000486578687fd5b8693505b82841015620004a957848401860151818501870152928501926200048a565b82841115620004ba57868684830101525b98975050505050505050565b600181811c90821680620004db57607f821691505b60208210811415620004fd57634e487b7160e01b600052602260045260246000fd5b50919050565b634e487b7160e01b600052604160045260246000fd5b60805160a05160c05160601c60e0516101005161012051614b486200056c60003960006132b501526000613304015260006132df01526000613238015260006132620152600061328c0152614b486000f3fe608060405234801561001057600080fd5b50600436106102ba5760003560e01c806378cc520d11610182578063bd85b039116100e9578063e15fe34f116100a2578063ea6996331161007c578063ea699633146106b1578063f030ba63146106db578063f0377457146106ee578063f371efa41461070157600080fd5b8063e15fe34f14610637578063e829ffa11461064a578063e985e9c51461067557600080fd5b8063bd85b039146105b6578063c87b56dd146105d6578063ca15c873146105e9578063cd2e2c24146105fc578063d53913931461060f578063d547741f1461062457600080fd5b806391f7808e1161013b57806391f7808e1461055a57806395d89b411461056d5780639bc5ae5414610575578063a217fddf14610588578063a22cb46514610590578063b88d4fde146105a357600080fd5b806378cc520d146104d85780637cba8598146104fb5780638856f7791461050e5780639010d07c1461052157806391a2c83c1461053457806391d148541461054757600080fd5b80632f745c59116102265780634f6ccce7116101df5780634f6ccce7146104595780635d1261101461046c5780636352211e1461048c5780636a6278421461049f5780636c06296c146104b257806370a08231146104c557600080fd5b80632f745c59146103e75780632f94e4aa146103fa57806336568abe1461040d57806336cca0be1461042057806342842e0e146104335780634e41a1fb1461044657600080fd5b8063081812fc11610278578063081812fc1461034e578063095ea7b31461037957806318160ddd1461038c57806323b872dd1461039e578063248a9ca3146103b15780632f2ff15d146103d457600080fd5b8062ad800c146102bf57806301ffc9a7146102e857806302acc94b1461030b57806302fe53051461032057806305a100281461033357806306fdde0314610346575b600080fd5b6102d26102cd366004614179565b610726565b6040516102df91906146a1565b60405180910390f35b6102fb6102f63660046141d4565b610843565b60405190151581526020016102df565b61031e6103193660046143b0565b610854565b005b61031e61032e36600461420c565b610898565b61031e6103413660046143b0565b6108d8565b6102d2610917565b61036161035c366004614179565b6109a9565b6040516001600160a01b0390911681526020016102df565b61031e61038736600461402b565b610a3e565b600d545b6040519081526020016102df565b61031e6103ac366004613f62565b610b4f565b6103906103bf366004614179565b6000908152600f602052604090206001015490565b61031e6103e2366004614191565b610b80565b6103906103f536600461402b565b610ba6565b61031e610408366004614054565b610c3c565b61031e61041b366004614191565b610df7565b61031e61042e366004614312565b610e75565b61031e610441366004613f62565b610ebd565b6102d2610454366004614179565b610ed8565b610390610467366004614179565b610f71565b61047f61047a36600461423e565b611012565b6040516102df9190614669565b61036161049a366004614179565b6110fe565b61031e6104ad366004613f16565b611175565b61031e6104c03660046143db565b6111c9565b6103906104d3366004613f16565b611206565b6102fb6104e6366004614179565b60126020526000908152604090205460ff1681565b61031e6105093660046143db565b61128d565b61031e61051c3660046143db565b6112ca565b61036161052f3660046141b3565b6113f9565b61031e610542366004614287565b611418565b6102fb610555366004614191565b611457565b61031e61056836600461440c565b611482565b6102d261157f565b6102d2610583366004614179565b61158e565b610390600081565b61031e61059e366004614002565b61172b565b61031e6105b1366004613f9d565b611736565b6103906105c4366004614179565b60009081526004602052604090205490565b6102d26105e4366004614179565b61176e565b6103906105f7366004614179565b61182e565b61031e61060a366004614095565b611845565b610390600080516020614af383398151915281565b61031e610632366004614191565b6118e1565b6103906106453660046143b0565b611907565b6103906106583660046141b3565b600260209081526000928352604080842090915290825290205481565b6102fb610683366004613f30565b6001600160a01b039182166000908152600a6020908152604080832093909416825291909152205460ff1690565b6103906106bf3660046141b3565b6000908152600260209081526040808320938352929052205490565b61031e6106e9366004614287565b611968565b61031e6106fc3660046142f0565b6119a7565b61071461070f366004614179565b611a34565b60405160ff90911681526020016102df565b60008181526001602052604090206004015460609060ff166107a55760405162461bcd60e51b815260206004820152602d60248201527f455243333636343a206e616d6520717565727920666f72206e6f6e657869737460448201526c656e742061747472696275746560981b60648201526084015b60405180910390fd5b600082815260016020526040902080546107be90614a36565b80601f01602080910402602001604051908101604052809291908181526020018280546107ea90614a36565b80156108375780601f1061080c57610100808354040283529160200191610837565b820191906000526020600020905b81548152906001019060200180831161081a57829003601f168201915b50505050509050919050565b600061084e82611b62565b92915050565b61086c600080516020614af383398151915233611457565b6108885760405162461bcd60e51b815260040161079c90614881565b610893838383611b87565b505050565b6108b0600080516020614af383398151915233611457565b6108cc5760405162461bcd60e51b815260040161079c90614881565b6108d581611cbc565b50565b6108f0600080516020614af383398151915233611457565b61090c5760405162461bcd60e51b815260040161079c90614881565b610893838383611ccf565b60606005805461092690614a36565b80601f016020809104026020016040519081016040528092919081815260200182805461095290614a36565b801561099f5780601f106109745761010080835404028352916020019161099f565b820191906000526020600020905b81548152906001019060200180831161098257829003601f168201915b5050505050905090565b6000818152600760205260408120546001600160a01b0316610a225760405162461bcd60e51b815260206004820152602c60248201527f4552433732313a20617070726f76656420717565727920666f72206e6f6e657860448201526b34b9ba32b73a103a37b5b2b760a11b606482015260840161079c565b506000908152600960205260409020546001600160a01b031690565b6000610a49826110fe565b9050806001600160a01b0316836001600160a01b03161415610ab75760405162461bcd60e51b815260206004820152602160248201527f4552433732313a20617070726f76616c20746f2063757272656e74206f776e656044820152603960f91b606482015260840161079c565b336001600160a01b0382161480610ad35750610ad38133610683565b610b455760405162461bcd60e51b815260206004820152603860248201527f4552433732313a20617070726f76652063616c6c6572206973206e6f74206f7760448201527f6e6572206e6f7220617070726f76656420666f7220616c6c0000000000000000606482015260840161079c565b6108938383611e33565b610b593382611ea1565b610b755760405162461bcd60e51b815260040161079c90614830565b610893838383611f98565b6000828152600f6020526040902060010154610b9c8133612143565b61089383836121a7565b6000610bb183611206565b8210610c135760405162461bcd60e51b815260206004820152602b60248201527f455243373231456e756d657261626c653a206f776e657220696e646578206f7560448201526a74206f6620626f756e647360a81b606482015260840161079c565b506001600160a01b03919091166000908152600b60209081526040808320938352929052205490565b83610c895760405162461bcd60e51b815260206004820181905260248201527f455243333636343a207472616e736665722066726f6d20746865207a65726f20604482015260640161079c565b82610cd65760405162461bcd60e51b815260206004820152601e60248201527f455243333636343a207472616e7366657220746f20746865207a65726f200000604482015260640161079c565b610cf38585858585604051806020016040528060008152506121c9565b600082815260026020908152604080832087845290915290205481811015610d6e5760405162461bcd60e51b815260206004820152602860248201527f455243333636343a207472616e7366657220616d6f756e7420657863656564736044820152672062616c616e636560c01b606482015260840161079c565b6000838152600260209081526040808320888452909152808220848403905585825281208054849290610da290849061491c565b90915550506040805184815260208101849052859187916001600160a01b038a16917f73b5fbfbf0177b0de2ffe9fd0ae9887dd73d0d865db7ab5ff3c4a6b9bb8db1e3910160405180910390a4505050505050565b6001600160a01b0381163314610e675760405162461bcd60e51b815260206004820152602f60248201527f416363657373436f6e74726f6c3a2063616e206f6e6c792072656e6f756e636560448201526e103937b632b9903337b91039b2b63360891b606482015260840161079c565b610e718282612259565b5050565b610e8d600080516020614af383398151915233611457565b610ea95760405162461bcd60e51b815260040161079c90614881565b610eb6858585858561227b565b5050505050565b61089383838360405180602001604052806000815250611736565b60008181526001602052604090206004015460609060ff16610f545760405162461bcd60e51b815260206004820152602f60248201527f455243333636343a2073796d626f6c20717565727920666f72206e6f6e65786960448201526e7374656e742061747472696275746560881b606482015260840161079c565b60008281526001602081905260409091200180546107be90614a36565b6000610f7c600d5490565b8210610fdf5760405162461bcd60e51b815260206004820152602c60248201527f455243373231456e756d657261626c653a20676c6f62616c20696e646578206f60448201526b7574206f6620626f756e647360a01b606482015260840161079c565b600d828154811061100057634e487b7160e01b600052603260045260246000fd5b90600052602060002001549050919050565b60606000826001600160401b0381111561103c57634e487b7160e01b600052604160045260246000fd5b604051908082528060200260200182016040528015611065578160200160208202803683370190505b50905060005b838110156110f5576110ba8686868481811061109757634e487b7160e01b600052603260045260246000fd5b905060200201356000908152600260209081526040808320938352929052205490565b8282815181106110da57634e487b7160e01b600052603260045260246000fd5b60209081029190910101526110ee81614a6b565b905061106b565b50949350505050565b6000818152600760205260408120546001600160a01b03168061084e5760405162461bcd60e51b815260206004820152602960248201527f4552433732313a206f776e657220717565727920666f72206e6f6e657869737460448201526832b73a103a37b5b2b760b91b606482015260840161079c565b61118d600080516020614af383398151915233611457565b6111a95760405162461bcd60e51b815260040161079c90614881565b6111b7601180546001019055565b6108d5816111c460115490565b6123e8565b83336111d4826110fe565b6001600160a01b0316146111fa5760405162461bcd60e51b815260040161079c906147e9565b610eb685858585612402565b60006001600160a01b0382166112715760405162461bcd60e51b815260206004820152602a60248201527f4552433732313a2062616c616e636520717565727920666f7220746865207a65604482015269726f206164647265737360b01b606482015260840161079c565b506001600160a01b031660009081526008602052604090205490565b8333611298826110fe565b6001600160a01b0316146112be5760405162461bcd60e51b815260040161079c906147e9565b610eb68585858561240e565b336112d88186868686610c3c565b60006003600085886040516020016112fa929190918252602082015260400190565b6040516020818303038152906040528051906020012081526020019081526020016000206000868152602001908152602001600020549050828110156113955760405162461bcd60e51b815260206004820152602a60248201527f455243333636343a207472616e7366657220616d6f756e74206578636565647360448201526920616c6c6f77616e636560b01b606482015260840161079c565b8281036003600086896040516020016113b8929190918252602082015260400190565b604051602081830303815290604052805190602001208152602001908152602001600020600087815260200190815260200160002081905550505050505050565b6000828152601060205260408120611411908361241c565b9392505050565b611430600080516020614af383398151915233611457565b61144c5760405162461bcd60e51b815260040161079c90614881565b610893838383612428565b6000918252600f602090815260408084206001600160a01b0393909316845291905290205460ff1690565b604080517f7b2480524df4991b0b62b0d7e3b8464b30ee5b56692c328502590389d75b37f76020820152908101869052606081018590526080810184905260a0810183905260009060c00160405160208183030381529060405280519060200120905060006114f0826126a5565b905060006114fe82856126f3565b9050806001600160a01b0316611513896110fe565b6001600160a01b0316146115695760405162461bcd60e51b815260206004820152601960248201527f5065726d69743a20696e76616c6964207369676e617475726500000000000000604482015260640161079c565b61157588888888612717565b5050505050505050565b60606006805461092690614a36565b60008181526001602052604090206004015460609060ff166116075760405162461bcd60e51b815260206004820152602c60248201527f455243333636343a2055524920717565727920666f72206e6f6e65786973746560448201526b6e742061747472696275746560a01b606482015260840161079c565b6000828152600160205260408120600301805461162390614a36565b80601f016020809104026020016040519081016040528092919081815260200182805461164f90614a36565b801561169c5780601f106116715761010080835404028352916020019161169c565b820191906000526020600020905b81548152906001019060200180831161167f57829003601f168201915b505050505090506000815111156116df57806116b784612853565b6040516020016116c89291906144e2565b604051602081830303815290604052915050919050565b60008080546116ed90614a36565b9050116117095760405180602001604052806000815250611411565b600061171484612853565b6040516020016116c8929190614511565b50919050565b610e7133838361296c565b6117403383611ea1565b61175c5760405162461bcd60e51b815260040161079c90614830565b61176884848484612a3b565b50505050565b6000818152600760205260409020546060906001600160a01b03166117ed5760405162461bcd60e51b815260206004820152602f60248201527f4552433732314d657461646174613a2055524920717565727920666f72206e6f60448201526e3732bc34b9ba32b73a103a37b5b2b760891b606482015260840161079c565b600061180460408051602081019091526000815290565b905060008151116118245760405180602001604052806000815250611411565b806116b784612853565b600081815260106020526040812061084e90612a6e565b61185d600080516020614af383398151915233611457565b6118795760405162461bcd60e51b815260040161079c90614881565b6118d68989808060200260200160405190810160405280939291908181526020018383602002808284376000920191909152506118bc92508a91508b905061497e565b6118c6878961497e565b866118d1868861497e565b612a78565b505050505050505050565b6000828152600f60205260409020600101546118fd8133612143565b6108938383612259565b6000600360008386604051602001611929929190918252602082015260400190565b60405160208183030381529060405280519060200120815260200190815260200160002060008481526020019081526020016000205490509392505050565b611980600080516020614af383398151915233611457565b61199c5760405162461bcd60e51b815260040161079c90614881565b610893838383612c91565b6119bf600080516020614af383398151915233611457565b6119db5760405162461bcd60e51b815260040161079c90614881565b600082815260126020908152604091829020805460ff19168415159081179091558251858152918201527ffd52edd8c6dd48138bc80a665216a16ba2beb45a076f16a0ecf317ef3cd0499e910160405180910390a15050565b60008181526001602052604081206004015460ff16611aae5760405162461bcd60e51b815260206004820152603060248201527f455243333636343a20646563696d616c20717565727920666f72206e6f6e657860448201526f697374656e742061747472696275746560801b606482015260840161079c565b5060009081526001602052604090206002015460ff1690565b611ad18282611457565b610e71576000828152600f602090815260408083206001600160a01b03851684529091529020805460ff19166001179055611b093390565b6001600160a01b0316816001600160a01b0316837f2f8788117e7eff1d82e926ec794901d17c78024a50270940304540a733656f0d60405160405180910390a45050565b6000611411836001600160a01b038416612e37565b60006001600160e01b03198216635a05180f60e01b148061084e575061084e82612e86565b60008281526001602052604090206004015460ff16611bf85760405162461bcd60e51b815260206004820152602760248201527f455243333636343a206d696e7420666f72206e6f6e6578697374656e742061746044820152667472696275746560c81b606482015260840161079c565b6000339050611c1b816000868686604051806020016040528060008152506121c9565b60008381526004602052604081208054849290611c3990849061491c565b9091555050600083815260026020908152604080832087845290915281208054849290611c6790849061491c565b9091555050604080518481526020810184905285916000916001600160a01b038516917f73b5fbfbf0177b0de2ffe9fd0ae9887dd73d0d865db7ab5ff3c4a6b9bb8db1e391015b60405180910390a450505050565b8051610e71906000906020840190613cc1565b60008281526001602052604090206004015460ff16611d405760405162461bcd60e51b815260206004820152602760248201527f455243333636343a206275726e20666f72206e6f6e6578697374656e742061746044820152667472696275746560c81b606482015260840161079c565b6000339050611d63818560008686604051806020016040528060008152506121c9565b600083815260026020908152604080832087845290915290205482811015611d9d5760405162461bcd60e51b815260040161079c90614701565b611da78382614967565b6000858152600260209081526040808320898452825280832093909355868252600490529081208054859290611dde908490614967565b9091555050604080518581526020810185905260009187916001600160a01b038616917f73b5fbfbf0177b0de2ffe9fd0ae9887dd73d0d865db7ab5ff3c4a6b9bb8db1e3910160405180910390a45050505050565b600081815260096020526040902080546001600160a01b0319166001600160a01b0384169081179091558190611e68826110fe565b6001600160a01b03167f8c5be1e5ebec7d5bd14f71427d1e84f3dd0314c0f7b2291e5b200ac8c7c3b92560405160405180910390a45050565b6000818152600760205260408120546001600160a01b0316611f1a5760405162461bcd60e51b815260206004820152602c60248201527f4552433732313a206f70657261746f7220717565727920666f72206e6f6e657860448201526b34b9ba32b73a103a37b5b2b760a11b606482015260840161079c565b6000611f25836110fe565b9050806001600160a01b0316846001600160a01b03161480611f605750836001600160a01b0316611f55846109a9565b6001600160a01b0316145b80611f9057506001600160a01b038082166000908152600a602090815260408083209388168352929052205460ff165b949350505050565b826001600160a01b0316611fab826110fe565b6001600160a01b0316146120135760405162461bcd60e51b815260206004820152602960248201527f4552433732313a207472616e73666572206f6620746f6b656e2074686174206960448201526839903737ba1037bbb760b91b606482015260840161079c565b6001600160a01b0382166120755760405162461bcd60e51b8152602060048201526024808201527f4552433732313a207472616e7366657220746f20746865207a65726f206164646044820152637265737360e01b606482015260840161079c565b612080838383612eab565b61208b600082611e33565b6001600160a01b03831660009081526008602052604081208054600192906120b4908490614967565b90915550506001600160a01b03821660009081526008602052604081208054600192906120e290849061491c565b909155505060008181526007602052604080822080546001600160a01b0319166001600160a01b0386811691821790925591518493918716917fddf252ad1be2c89b69c2b068fc378daa952ba7f163c4a11628f55a4df523b3ef91a4505050565b61214d8282611457565b610e7157612165816001600160a01b03166014612f63565b612170836020612f63565b6040516020016121819291906145b7565b60408051601f198184030181529082905262461bcd60e51b825261079c916004016146a1565b6121b18282611ac7565b60008281526010602052604090206108939082611b4d565b6121e1600080516020614af383398151915287611457565b806121fa575060008381526012602052604090205460ff165b6122515760405162461bcd60e51b815260206004820152602260248201527f5765623344414f434e3a2041747472207472616e73666572206e6f7420616c6c6044820152616f7760f01b606482015260840161079c565b505050505050565b6122638282613144565b600082815260106020526040902061089390826131ab565b60008581526001602052604090206004015460ff16156122e75760405162461bcd60e51b815260206004820152602160248201527f455243333636343a2061747472696275746520616c72656164792065786973746044820152607360f81b606482015260840161079c565b6040805160a081018252858152602080820186905260ff8516828401526060820184905260016080830181905260008981529082529290922081518051929384936123359284920190613cc1565b50602082810151805161234e9260018501920190613cc1565b50604082015160028201805460ff191660ff90921691909117905560608201518051612384916003840191602090910190613cc1565b50608091909101516004909101805460ff191691151591909117905560405186907f98fe0a4bf3a5354178c124c36fe2ec9f103adaba8905e75f72cb6900c6f94986906123d89088908890889088906146b4565b60405180910390a2505050505050565b610e718282604051806020016040528060008152506131c0565b61176884848484612717565b33610eb68186868686610c3c565b600061141183836131f3565b80518251146124495760405162461bcd60e51b815260040161079c9061474b565b3360005b8351811015612666576124c28286600087858151811061247d57634e487b7160e01b600052603260045260246000fd5b60200260200101518786815181106124a557634e487b7160e01b600052603260045260246000fd5b6020026020010151604051806020016040528060008152506121c9565b6000600260008684815181106124e857634e487b7160e01b600052603260045260246000fd5b60200260200101518152602001908152602001600020600087815260200190815260200160002054905083828151811061253257634e487b7160e01b600052603260045260246000fd5b60200260200101518110156125595760405162461bcd60e51b815260040161079c90614701565b83828151811061257957634e487b7160e01b600052603260045260246000fd5b60200260200101518161258c9190614967565b600260008785815181106125b057634e487b7160e01b600052603260045260246000fd5b602002602001015181526020019081526020016000206000888152602001908152602001600020819055508382815181106125fb57634e487b7160e01b600052603260045260246000fd5b60200260200101516004600087858151811061262757634e487b7160e01b600052603260045260246000fd5b60200260200101518152602001908152602001600020600082825461264c9190614967565b9091555082915061265e905081614a6b565b91505061244d565b50600084826001600160a01b03167fbfb4d8e5891aebe97980c97616b6b0af2006a58ccabe6e1b7e3da24d0906a8568686604051611cae92919061467c565b600061084e6126b261322b565b8360405161190160f01b6020820152602281018390526042810182905260009060620160405160208183030381529060405280519060200120905092915050565b60008060006127028585613352565b9150915061270f816133c2565b509392505050565b836127645760405162461bcd60e51b815260206004820152601f60248201527f455243333636343a20617070726f76652066726f6d20746865207a65726f2000604482015260640161079c565b826127b15760405162461bcd60e51b815260206004820152601d60248201527f455243333636343a20617070726f766520746f20746865207a65726f20000000604482015260640161079c565b806003600084876040516020016127d2929190918252602082015260400190565b60408051601f19818403018152918152815160209283012083528282019390935290820160009081208782528252829020929092558051868152918201859052818101849052606082018390525133917f4f3267cf1b4f4eda70a80ac65e00830cf370b07c616b8e687c172b69bb15a190919081900360800190a250505050565b6060816128775750506040805180820190915260018152600360fc1b602082015290565b8160005b81156128a1578061288b81614a6b565b915061289a9050600a83614934565b915061287b565b6000816001600160401b038111156128c957634e487b7160e01b600052604160045260246000fd5b6040519080825280601f01601f1916602001820160405280156128f3576020820181803683370190505b5090505b8415611f9057612908600183614967565b9150612915600a86614a86565b61292090603061491c565b60f81b81838151811061294357634e487b7160e01b600052603260045260246000fd5b60200101906001600160f81b031916908160001a905350612965600a86614934565b94506128f7565b816001600160a01b0316836001600160a01b031614156129ce5760405162461bcd60e51b815260206004820152601960248201527f4552433732313a20617070726f766520746f2063616c6c657200000000000000604482015260640161079c565b6001600160a01b038381166000818152600a6020908152604080832094871680845294825291829020805460ff191686151590811790915591519182527f17307eab39ab6107e8899845ad3d59bd9653f200f220920489ca2b5937696c31910160405180910390a3505050565b612a46848484611f98565b612a52848484846135c3565b6117685760405162461bcd60e51b815260040161079c90614797565b600061084e825490565b8351855114612adc5760405162461bcd60e51b815260206004820152602a60248201527f455243333636343a206174747249647320616e64206e616d6573206c656e67746044820152690d040dad2e6dac2e8c6d60b31b606482015260840161079c565b8251845114612b405760405162461bcd60e51b815260206004820152602a60248201527f455243333636343a206e616d657320616e642073796d626f6c73206c656e67746044820152690d040dad2e6dac2e8c6d60b31b606482015260840161079c565b8051835114612ba35760405162461bcd60e51b815260206004820152602960248201527f455243333636343a2073796d626f6c7320616e642075726973206c656e677468604482015268040dad2e6dac2e8c6d60bb1b606482015260840161079c565b60005b855181101561225157612c7f868281518110612bd257634e487b7160e01b600052603260045260246000fd5b6020026020010151868381518110612bfa57634e487b7160e01b600052603260045260246000fd5b6020026020010151868481518110612c2257634e487b7160e01b600052603260045260246000fd5b6020026020010151868581518110612c4a57634e487b7160e01b600052603260045260246000fd5b6020026020010151868681518110612c7257634e487b7160e01b600052603260045260246000fd5b602002602001015161227b565b80612c8981614a6b565b915050612ba6565b8051825114612cb25760405162461bcd60e51b815260040161079c9061474b565b3360005b8351811015612df857612ce68286600087858151811061247d57634e487b7160e01b600052603260045260246000fd5b828181518110612d0657634e487b7160e01b600052603260045260246000fd5b602002602001015160046000868481518110612d3257634e487b7160e01b600052603260045260246000fd5b602002602001015181526020019081526020016000206000828254612d57919061491c565b92505081905550828181518110612d7e57634e487b7160e01b600052603260045260246000fd5b602002602001015160026000868481518110612daa57634e487b7160e01b600052603260045260246000fd5b6020026020010151815260200190815260200160002060008781526020019081526020016000206000828254612de0919061491c565b90915550819050612df081614a6b565b915050612cb6565b50836000826001600160a01b03167fbfb4d8e5891aebe97980c97616b6b0af2006a58ccabe6e1b7e3da24d0906a8568686604051611cae92919061467c565b6000818152600183016020526040812054612e7e5750815460018181018455600084815260208082209093018490558454848252828601909352604090209190915561084e565b50600061084e565b60006001600160e01b03198216637965db0b60e01b148061084e575061084e826136d0565b6001600160a01b038316612f0657612f0181600d80546000838152600e60205260408120829055600182018355919091527fd7b6990105719101dabeb77144f2a3385c8033acd3af97e9423a695e81ad1eb50155565b612f29565b816001600160a01b0316836001600160a01b031614612f2957612f2983826136f5565b6001600160a01b038216612f405761089381613792565b826001600160a01b0316826001600160a01b03161461089357610893828261386b565b60606000612f72836002614948565b612f7d90600261491c565b6001600160401b03811115612fa257634e487b7160e01b600052604160045260246000fd5b6040519080825280601f01601f191660200182016040528015612fcc576020820181803683370190505b509050600360fc1b81600081518110612ff557634e487b7160e01b600052603260045260246000fd5b60200101906001600160f81b031916908160001a905350600f60fb1b8160018151811061303257634e487b7160e01b600052603260045260246000fd5b60200101906001600160f81b031916908160001a9053506000613056846002614948565b61306190600161491c565b90505b60018111156130f5576f181899199a1a9b1b9c1cb0b131b232b360811b85600f16601081106130a357634e487b7160e01b600052603260045260246000fd5b1a60f81b8282815181106130c757634e487b7160e01b600052603260045260246000fd5b60200101906001600160f81b031916908160001a90535060049490941c936130ee81614a1f565b9050613064565b5083156114115760405162461bcd60e51b815260206004820181905260248201527f537472696e67733a20686578206c656e67746820696e73756666696369656e74604482015260640161079c565b61314e8282611457565b15610e71576000828152600f602090815260408083206001600160a01b0385168085529252808320805460ff1916905551339285917ff6391f5c32d9c69d2a47ea670b442974b53935d1edc7fd64eb21e047a839171b9190a45050565b6000611411836001600160a01b0384166138af565b6131ca83836139cc565b6131d760008484846135c3565b6108935760405162461bcd60e51b815260040161079c90614797565b600082600001828154811061321857634e487b7160e01b600052603260045260246000fd5b9060005260206000200154905092915050565b6000306001600160a01b037f00000000000000000000000000000000000000000000000000000000000000001614801561328457507f000000000000000000000000000000000000000000000000000000000000000046145b156132ae57507f000000000000000000000000000000000000000000000000000000000000000090565b50604080517f00000000000000000000000000000000000000000000000000000000000000006020808301919091527f0000000000000000000000000000000000000000000000000000000000000000828401527f000000000000000000000000000000000000000000000000000000000000000060608301524660808301523060a0808401919091528351808403909101815260c0909201909252805191012090565b6000808251604114156133895760208301516040840151606085015160001a61337d87828585613b1a565b945094505050506133bb565b8251604014156133b357602083015160408401516133a8868383613c07565b9350935050506133bb565b506000905060025b9250929050565b60008160048111156133e457634e487b7160e01b600052602160045260246000fd5b14156133ed5750565b600181600481111561340f57634e487b7160e01b600052602160045260246000fd5b141561345d5760405162461bcd60e51b815260206004820152601860248201527f45434453413a20696e76616c6964207369676e61747572650000000000000000604482015260640161079c565b600281600481111561347f57634e487b7160e01b600052602160045260246000fd5b14156134cd5760405162461bcd60e51b815260206004820152601f60248201527f45434453413a20696e76616c6964207369676e6174757265206c656e67746800604482015260640161079c565b60038160048111156134ef57634e487b7160e01b600052602160045260246000fd5b14156135485760405162461bcd60e51b815260206004820152602260248201527f45434453413a20696e76616c6964207369676e6174757265202773272076616c604482015261756560f01b606482015260840161079c565b600481600481111561356a57634e487b7160e01b600052602160045260246000fd5b14156108d55760405162461bcd60e51b815260206004820152602260248201527f45434453413a20696e76616c6964207369676e6174757265202776272076616c604482015261756560f01b606482015260840161079c565b60006001600160a01b0384163b156136c557604051630a85bd0160e11b81526001600160a01b0385169063150b7a029061360790339089908890889060040161462c565b602060405180830381600087803b15801561362157600080fd5b505af1925050508015613651575060408051601f3d908101601f1916820190925261364e918101906141f0565b60015b6136ab573d80801561367f576040519150601f19603f3d011682016040523d82523d6000602084013e613684565b606091505b5080516136a35760405162461bcd60e51b815260040161079c90614797565b805181602001fd5b6001600160e01b031916630a85bd0160e11b149050611f90565b506001949350505050565b60006001600160e01b0319821663780e9d6360e01b148061084e575061084e82613c36565b6000600161370284611206565b61370c9190614967565b6000838152600c602052604090205490915080821461375f576001600160a01b0384166000908152600b602090815260408083208584528252808320548484528184208190558352600c90915290208190555b506000918252600c602090815260408084208490556001600160a01b039094168352600b81528383209183525290812055565b600d546000906137a490600190614967565b6000838152600e6020526040812054600d80549394509092849081106137da57634e487b7160e01b600052603260045260246000fd5b9060005260206000200154905080600d838154811061380957634e487b7160e01b600052603260045260246000fd5b6000918252602080832090910192909255828152600e9091526040808220849055858252812055600d80548061384f57634e487b7160e01b600052603160045260246000fd5b6001900381819060005260206000200160009055905550505050565b600061387683611206565b6001600160a01b039093166000908152600b602090815260408083208684528252808320859055938252600c9052919091209190915550565b600081815260018301602052604081205480156139c25760006138d3600183614967565b85549091506000906138e790600190614967565b905081811461396857600086600001828154811061391557634e487b7160e01b600052603260045260246000fd5b906000526020600020015490508087600001848154811061394657634e487b7160e01b600052603260045260246000fd5b6000918252602080832090910192909255918252600188019052604090208390555b855486908061398757634e487b7160e01b600052603160045260246000fd5b60019003818190600052602060002001600090559055856001016000868152602001908152602001600020600090556001935050505061084e565b600091505061084e565b6001600160a01b038216613a225760405162461bcd60e51b815260206004820181905260248201527f4552433732313a206d696e7420746f20746865207a65726f2061646472657373604482015260640161079c565b6000818152600760205260409020546001600160a01b031615613a875760405162461bcd60e51b815260206004820152601c60248201527f4552433732313a20746f6b656e20616c7265616479206d696e74656400000000604482015260640161079c565b613a9360008383612eab565b6001600160a01b0382166000908152600860205260408120805460019290613abc90849061491c565b909155505060008181526007602052604080822080546001600160a01b0319166001600160a01b03861690811790915590518392907fddf252ad1be2c89b69c2b068fc378daa952ba7f163c4a11628f55a4df523b3ef908290a45050565b6000807f7fffffffffffffffffffffffffffffff5d576e7357a4501ddfe92f46681b20a0831115613b515750600090506003613bfe565b8460ff16601b14158015613b6957508460ff16601c14155b15613b7a5750600090506004613bfe565b6040805160008082526020820180845289905260ff881692820192909252606081018690526080810185905260019060a0016020604051602081039080840390855afa158015613bce573d6000803e3d6000fd5b5050604051601f1901519150506001600160a01b038116613bf757600060019250925050613bfe565b9150600090505b94509492505050565b6000806001600160ff1b03831660ff84901c601b01613c2887828885613b1a565b935093505050935093915050565b60006001600160e01b031982166380ac58cd60e01b1480613c6757506001600160e01b03198216635b5e139f60e01b145b8061084e575061084e8260006001600160e01b03198216630e697ffb60e31b1480613ca257506001600160e01b03198216632658600760e01b145b8061084e57506301ffc9a760e01b6001600160e01b031983161461084e565b828054613ccd90614a36565b90600052602060002090601f016020900481019282613cef5760008555613d35565b82601f10613d0857805160ff1916838001178555613d35565b82800160010185558215613d35579182015b82811115613d35578251825591602001919060010190613d1a565b50613d41929150613d45565b5090565b5b80821115613d415760008155600101613d46565b80356001600160a01b0381168114613d7157600080fd5b919050565b60008083601f840112613d87578182fd5b5081356001600160401b03811115613d9d578182fd5b6020830191508360208260051b85010111156133bb57600080fd5b600082601f830112613dc8578081fd5b81356020613ddd613dd8836148f9565b6148c9565b80838252828201915082860187848660051b8901011115613dfc578586fd5b855b85811015613e1a57813584529284019290840190600101613dfe565b5090979650505050505050565b600082601f830112613e37578081fd5b81356020613e47613dd8836148f9565b80838252828201915082860187848660051b8901011115613e66578586fd5b855b85811015613e1a57613e7982613f05565b84529284019290840190600101613e68565b80358015158114613d7157600080fd5b600082601f830112613eab578081fd5b81356001600160401b03811115613ec457613ec4614ac6565b613ed7601f8201601f19166020016148c9565b818152846020838601011115613eeb578283fd5b816020850160208301379081016020019190915292915050565b803560ff81168114613d7157600080fd5b600060208284031215613f27578081fd5b61141182613d5a565b60008060408385031215613f42578081fd5b613f4b83613d5a565b9150613f5960208401613d5a565b90509250929050565b600080600060608486031215613f76578081fd5b613f7f84613d5a565b9250613f8d60208501613d5a565b9150604084013590509250925092565b60008060008060808587031215613fb2578081fd5b613fbb85613d5a565b9350613fc960208601613d5a565b92506040850135915060608501356001600160401b03811115613fea578182fd5b613ff687828801613e9b565b91505092959194509250565b60008060408385031215614014578182fd5b61401d83613d5a565b9150613f5960208401613e8b565b6000806040838503121561403d578182fd5b61404683613d5a565b946020939093013593505050565b600080600080600060a0868803121561406b578283fd5b61407486613d5a565b97602087013597506040870135966060810135965060800135945092505050565b600080600080600080600080600060a08a8c0312156140b2578687fd5b89356001600160401b03808211156140c8578889fd5b6140d48d838e01613d76565b909b50995060208c01359150808211156140ec578889fd5b6140f88d838e01613d76565b909950975060408c0135915080821115614110578586fd5b61411c8d838e01613d76565b909750955060608c0135915080821115614134578485fd5b6141408d838e01613e27565b945060808c0135915080821115614155578384fd5b506141628c828d01613d76565b915080935050809150509295985092959850929598565b60006020828403121561418a578081fd5b5035919050565b600080604083850312156141a3578182fd5b82359150613f5960208401613d5a565b600080604083850312156141c5578182fd5b50508035926020909101359150565b6000602082840312156141e5578081fd5b813561141181614adc565b600060208284031215614201578081fd5b815161141181614adc565b60006020828403121561421d578081fd5b81356001600160401b03811115614232578182fd5b611f9084828501613e9b565b600080600060408486031215614252578081fd5b8335925060208401356001600160401b0381111561426e578182fd5b61427a86828701613d76565b9497909650939450505050565b60008060006060848603121561429b578081fd5b8335925060208401356001600160401b03808211156142b8578283fd5b6142c487838801613db8565b935060408601359150808211156142d9578283fd5b506142e686828701613db8565b9150509250925092565b60008060408385031215614302578182fd5b82359150613f5960208401613e8b565b600080600080600060a08688031215614329578283fd5b8535945060208601356001600160401b0380821115614346578485fd5b61435289838a01613e9b565b95506040880135915080821115614367578485fd5b61437389838a01613e9b565b945061438160608901613f05565b93506080880135915080821115614396578283fd5b506143a388828901613e9b565b9150509295509295909350565b6000806000606084860312156143c4578081fd5b505081359360208301359350604090920135919050565b600080600080608085870312156143f0578182fd5b5050823594602084013594506040840135936060013592509050565b600080600080600060a08688031215614423578283fd5b8535945060208601359350604086013592506060860135915060808601356001600160401b03811115614454578182fd5b6143a388828901613e9b565b6000815180845260208085019450808401835b8381101561448f57815187529582019590820190600101614473565b509495945050505050565b600081518084526144b28160208601602086016149f3565b601f01601f19169290920160200192915050565b600081516144d88185602086016149f3565b9290920192915050565b600083516144f48184602088016149f3565b8351908301906145088183602088016149f3565b01949350505050565b600080845482600182811c91508083168061452d57607f831692505b602080841082141561454d57634e487b7160e01b87526022600452602487fd5b81801561456157600181146145725761459e565b60ff1986168952848901965061459e565b60008b815260209020885b868110156145965781548b82015290850190830161457d565b505084890196505b5050505050506145ae81856144c6565b95945050505050565b7f416363657373436f6e74726f6c3a206163636f756e74200000000000000000008152600083516145ef8160178501602088016149f3565b7001034b99036b4b9b9b4b733903937b6329607d1b60179184019182015283516146208160288401602088016149f3565b01602801949350505050565b6001600160a01b038581168252841660208201526040810183905260806060820181905260009061465f9083018461449a565b9695505050505050565b6020815260006114116020830184614460565b60408152600061468f6040830185614460565b82810360208401526145ae8185614460565b602081526000611411602083018461449a565b6080815260006146c7608083018761449a565b82810360208401526146d9818761449a565b905060ff8516604084015282810360608401526146f6818561449a565b979650505050505050565b6020808252602a908201527f455243333636343a20696e73756666696369656e742062616c616e636520666f60408201526939103a3930b739b332b960b11b606082015260800190565b6020808252602c908201527f455243333636343a206174747249647320616e6420616d6f756e7473206c656e60408201526b0cee8d040dad2e6dac2e8c6d60a31b606082015260800190565b60208082526032908201527f4552433732313a207472616e7366657220746f206e6f6e20455243373231526560408201527131b2b4bb32b91034b6b83632b6b2b73a32b960711b606082015260800190565b60208082526027908201527f5765623344414f434e3a2063616c6c6572206973206e6f7420746865206e6674604082015266103437b63232b960c91b606082015260800190565b60208082526031908201527f4552433732313a207472616e736665722063616c6c6572206973206e6f74206f6040820152701ddb995c881b9bdc88185c1c1c9bdd9959607a1b606082015260800190565b60208082526028908201527f5765623344414f434e3a206d7573742068617665206d696e74657220726f6c65604082015267081d1bc81b5a5b9d60c21b606082015260800190565b604051601f8201601f191681016001600160401b03811182821017156148f1576148f1614ac6565b604052919050565b60006001600160401b0382111561491257614912614ac6565b5060051b60200190565b6000821982111561492f5761492f614a9a565b500190565b60008261494357614943614ab0565b500490565b600081600019048311821515161561496257614962614a9a565b500290565b60008282101561497957614979614a9a565b500390565b600061498c613dd8846148f9565b808482526020808301925084368760051b870111156149a9578485fd5b845b878110156149e75781356001600160401b038111156149c8578687fd5b6149d436828a01613e9b565b86525093820193908201906001016149ab565b50919695505050505050565b60005b83811015614a0e5781810151838201526020016149f6565b838111156117685750506000910152565b600081614a2e57614a2e614a9a565b506000190190565b600181811c90821680614a4a57607f821691505b6020821081141561172557634e487b7160e01b600052602260045260246000fd5b6000600019821415614a7f57614a7f614a9a565b5060010190565b600082614a9557614a95614ab0565b500690565b634e487b7160e01b600052601160045260246000fd5b634e487b7160e01b600052601260045260246000fd5b634e487b7160e01b600052604160045260246000fd5b6001600160e01b0319811681146108d557600080fdfe9f2df0fed2c77648de5860a4cc508cd0818c85b8b8a1ab4ceeef8d981c8956a6a2646970667358221220cd1811582a4bbd6e6a48b47bc47c653c4e4b67305e19a26007741df94556c45764736f6c63430008040033",
  "linkReferences": {},
  "deployedLinkReferences": {}
}