{
  "_format": "hh-sol-artifact-1",
  "contractName": "Web3DAOCN",
  "sourceName": "contracts/Web3Dao.sol",
  "abi": [
    {
      "inputs": [
        {
          "internalType": "string",
          "name": "uri_",
          "type": "string"
        }
      ],
      "stateMutability": "nonpayable",
      "type": "constructor"
    },
    {
      "anonymous": false,
      "inputs": [
        {
          "indexed": true,
          "internalType": "address",
          "name": "owner",
          "type": "address"
        },
        {
          "indexed": true,
          "internalType": "address",
          "name": "approved",
          "type": "address"
        },
        {
          "indexed": true,
          "internalType": "uint256",
          "name": "tokenId",
          "type": "uint256"
        }
      ],
      "name": "Approval",
      "type": "event"
    },
    {
      "anonymous": false,
      "inputs": [
        {
          "indexed": true,
          "internalType": "address",
          "name": "owner",
          "type": "address"
        },
        {
          "indexed": true,
          "internalType": "address",
          "name": "operator",
          "type": "address"
        },
        {
          "indexed": false,
          "internalType": "bool",
          "name": "approved",
          "type": "bool"
        }
      ],
      "name": "ApprovalForAll",
      "type": "event"
    },
    {
      "anonymous": false,
      "inputs": [
        {
          "indexed": true,
          "internalType": "address",
          "name": "operator",
          "type": "address"
        },
        {
          "indexed": false,
          "internalType": "uint256",
          "name": "from",
          "type": "uint256"
        },
        {
          "indexed": false,
          "internalType": "uint256",
          "name": "to",
          "type": "uint256"
        },
        {
          "indexed": false,
          "internalType": "uint256",
          "name": "attrId",
          "type": "uint256"
        }
      ],
      "name": "AttributeApproval",
      "type": "event"
    },
    {
      "anonymous": false,
      "inputs": [
        {
          "indexed": true,
          "internalType": "uint256",
          "name": "attrId",
          "type": "uint256"
        },
        {
          "indexed": false,
          "internalType": "string",
          "name": "name",
          "type": "string"
        },
        {
          "indexed": false,
          "internalType": "string",
          "name": "symbol",
          "type": "string"
        },
        {
          "indexed": false,
          "internalType": "string",
          "name": "uri",
          "type": "string"
        }
      ],
      "name": "AttributeCreated",
      "type": "event"
    },
    {
      "anonymous": false,
      "inputs": [
        {
          "indexed": true,
          "internalType": "bytes32",
          "name": "role",
          "type": "bytes32"
        },
        {
          "indexed": true,
          "internalType": "bytes32",
          "name": "previousAdminRole",
          "type": "bytes32"
        },
        {
          "indexed": true,
          "internalType": "bytes32",
          "name": "newAdminRole",
          "type": "bytes32"
        }
      ],
      "name": "RoleAdminChanged",
      "type": "event"
    },
    {
      "anonymous": false,
      "inputs": [
        {
          "indexed": true,
          "internalType": "bytes32",
          "name": "role",
          "type": "bytes32"
        },
        {
          "indexed": true,
          "internalType": "address",
          "name": "account",
          "type": "address"
        },
        {
          "indexed": true,
          "internalType": "address",
          "name": "sender",
          "type": "address"
        }
      ],
      "name": "RoleGranted",
      "type": "event"
    },
    {
      "anonymous": false,
      "inputs": [
        {
          "indexed": true,
          "internalType": "bytes32",
          "name": "role",
          "type": "bytes32"
        },
        {
          "indexed": true,
          "internalType": "address",
          "name": "account",
          "type": "address"
        },
        {
          "indexed": true,
          "internalType": "address",
          "name": "sender",
          "type": "address"
        }
      ],
      "name": "RoleRevoked",
      "type": "event"
    },
    {
      "anonymous": false,
      "inputs": [
        {
          "indexed": true,
          "internalType": "address",
          "name": "from",
          "type": "address"
        },
        {
          "indexed": true,
          "internalType": "address",
          "name": "to",
          "type": "address"
        },
        {
          "indexed": true,
          "internalType": "uint256",
          "name": "tokenId",
          "type": "uint256"
        }
      ],
      "name": "Transfer",
      "type": "event"
    },
    {
      "anonymous": false,
      "inputs": [
        {
          "indexed": true,
          "internalType": "address",
          "name": "operator",
          "type": "address"
        },
        {
          "indexed": false,
          "internalType": "uint256",
          "name": "from",
          "type": "uint256"
        },
        {
          "indexed": false,
          "internalType": "uint256",
          "name": "to",
          "type": "uint256"
        },
        {
          "indexed": true,
          "internalType": "uint256[]",
          "name": "attrIds",
          "type": "uint256[]"
        },
        {
          "indexed": false,
          "internalType": "uint256[]",
          "name": "values",
          "type": "uint256[]"
        }
      ],
      "name": "TransferBatch",
      "type": "event"
    },
    {
      "anonymous": false,
      "inputs": [
        {
          "indexed": true,
          "internalType": "address",
          "name": "operator",
          "type": "address"
        },
        {
          "indexed": false,
          "internalType": "uint256",
          "name": "from",
          "type": "uint256"
        },
        {
          "indexed": false,
          "internalType": "uint256",
          "name": "to",
          "type": "uint256"
        },
        {
          "indexed": true,
          "internalType": "uint256",
          "name": "attrId",
          "type": "uint256"
        },
        {
          "indexed": false,
          "internalType": "uint256",
          "name": "value",
          "type": "uint256"
        }
      ],
      "name": "TransferSingle",
      "type": "event"
    },
    {
      "inputs": [],
      "name": "DEFAULT_ADMIN_ROLE",
      "outputs": [
        {
          "internalType": "bytes32",
          "name": "",
          "type": "bytes32"
        }
      ],
      "stateMutability": "view",
      "type": "function"
    },
    {
      "inputs": [],
      "name": "MINTER_ROLE",
      "outputs": [
        {
          "internalType": "bytes32",
          "name": "",
          "type": "bytes32"
        }
      ],
      "stateMutability": "view",
      "type": "function"
    },
    {
      "inputs": [
        {
          "internalType": "address",
          "name": "to",
          "type": "address"
        },
        {
          "internalType": "uint256",
          "name": "tokenId",
          "type": "uint256"
        }
      ],
      "name": "approve",
      "outputs": [],
      "stateMutability": "nonpayable",
      "type": "function"
    },
    {
      "inputs": [
        {
          "internalType": "uint256",
          "name": "from",
          "type": "uint256"
        },
        {
          "internalType": "uint256",
          "name": "to",
          "type": "uint256"
        },
        {
          "internalType": "uint256",
          "name": "attrId",
          "type": "uint256"
        }
      ],
      "name": "approve",
      "outputs": [],
      "stateMutability": "nonpayable",
      "type": "function"
    },
    {
      "inputs": [
        {
          "internalType": "uint256",
          "name": "",
          "type": "uint256"
        },
        {
          "internalType": "uint256",
          "name": "",
          "type": "uint256"
        }
      ],
      "name": "attrBalances",
      "outputs": [
        {
          "internalType": "uint256",
          "name": "",
          "type": "uint256"
        }
      ],
      "stateMutability": "view",
      "type": "function"
    },
    {
      "inputs": [
        {
          "internalType": "uint256",
          "name": "",
          "type": "uint256"
        }
      ],
      "name": "attrTransferAllow",
      "outputs": [
        {
          "internalType": "bool",
          "name": "",
          "type": "bool"
        }
      ],
      "stateMutability": "view",
      "type": "function"
    },
    {
      "inputs": [
        {
          "internalType": "uint256",
          "name": "attrId",
          "type": "uint256"
        }
      ],
      "name": "attrURI",
      "outputs": [
        {
          "internalType": "string",
          "name": "",
          "type": "string"
        }
      ],
      "stateMutability": "view",
      "type": "function"
    },
    {
      "inputs": [
        {
          "internalType": "address",
          "name": "owner",
          "type": "address"
        }
      ],
      "name": "balanceOf",
      "outputs": [
        {
          "internalType": "uint256",
          "name": "",
          "type": "uint256"
        }
      ],
      "stateMutability": "view",
      "type": "function"
    },
    {
      "inputs": [
        {
          "internalType": "uint256",
          "name": "tokenId",
          "type": "uint256"
        },
        {
          "internalType": "uint256",
          "name": "attrId",
          "type": "uint256"
        }
      ],
      "name": "balanceOf",
      "outputs": [
        {
          "internalType": "uint256",
          "name": "",
          "type": "uint256"
        }
      ],
      "stateMutability": "view",
      "type": "function"
    },
    {
      "inputs": [
        {
          "internalType": "uint256",
          "name": "tokenId",
          "type": "uint256"
        },
        {
          "internalType": "uint256[]",
          "name": "attrIds",
          "type": "uint256[]"
        }
      ],
      "name": "balanceOfBatch",
      "outputs": [
        {
          "internalType": "uint256[]",
          "name": "",
          "type": "uint256[]"
        }
      ],
      "stateMutability": "view",
      "type": "function"
    },
    {
      "inputs": [
        {
          "internalType": "uint256",
          "name": "tokenId",
          "type": "uint256"
        },
        {
          "internalType": "uint256",
          "name": "attrId",
          "type": "uint256"
        },
        {
          "internalType": "uint256",
          "name": "amount",
          "type": "uint256"
        }
      ],
      "name": "burn",
      "outputs": [],
      "stateMutability": "nonpayable",
      "type": "function"
    },
    {
      "inputs": [
        {
          "internalType": "uint256",
          "name": "tokenId",
          "type": "uint256"
        },
        {
          "internalType": "uint256[]",
          "name": "attrIds",
          "type": "uint256[]"
        },
        {
          "internalType": "uint256[]",
          "name": "amounts",
          "type": "uint256[]"
        }
      ],
      "name": "burnBatch",
      "outputs": [],
      "stateMutability": "nonpayable",
      "type": "function"
    },
    {
      "inputs": [
        {
          "internalType": "uint256",
          "name": "_attrId",
          "type": "uint256"
        },
        {
          "internalType": "string",
          "name": "_name",
          "type": "string"
        },
        {
          "internalType": "string",
          "name": "_symbol",
          "type": "string"
        },
        {
          "internalType": "uint8",
          "name": "_decimal",
          "type": "uint8"
        },
        {
          "internalType": "string",
          "name": "_uri",
          "type": "string"
        }
      ],
      "name": "create",
      "outputs": [],
      "stateMutability": "nonpayable",
      "type": "function"
    },
    {
      "inputs": [
        {
          "internalType": "uint256[]",
          "name": "attrIds",
          "type": "uint256[]"
        },
        {
          "internalType": "string[]",
          "name": "names",
          "type": "string[]"
        },
        {
          "internalType": "string[]",
          "name": "symbols",
          "type": "string[]"
        },
        {
          "internalType": "uint8[]",
          "name": "decimals",
          "type": "uint8[]"
        },
        {
          "internalType": "string[]",
          "name": "uris",
          "type": "string[]"
        }
      ],
      "name": "createBatch",
      "outputs": [],
      "stateMutability": "nonpayable",
      "type": "function"
    },
    {
      "inputs": [
        {
          "internalType": "uint256",
          "name": "attrId",
          "type": "uint256"
        }
      ],
      "name": "decimal",
      "outputs": [
        {
          "internalType": "uint8",
          "name": "",
          "type": "uint8"
        }
      ],
      "stateMutability": "view",
      "type": "function"
    },
    {
      "inputs": [
        {
          "internalType": "uint256",
          "name": "tokenId",
          "type": "uint256"
        }
      ],
      "name": "getApproved",
      "outputs": [
        {
          "internalType": "address",
          "name": "",
          "type": "address"
        }
      ],
      "stateMutability": "view",
      "type": "function"
    },
    {
      "inputs": [
        {
          "internalType": "bytes32",
          "name": "role",
          "type": "bytes32"
        }
      ],
      "name": "getRoleAdmin",
      "outputs": [
        {
          "internalType": "bytes32",
          "name": "",
          "type": "bytes32"
        }
      ],
      "stateMutability": "view",
      "type": "function"
    },
    {
      "inputs": [
        {
          "internalType": "bytes32",
          "name": "role",
          "type": "bytes32"
        },
        {
          "internalType": "uint256",
          "name": "index",
          "type": "uint256"
        }
      ],
      "name": "getRoleMember",
      "outputs": [
        {
          "internalType": "address",
          "name": "",
          "type": "address"
        }
      ],
      "stateMutability": "view",
      "type": "function"
    },
    {
      "inputs": [
        {
          "internalType": "bytes32",
          "name": "role",
          "type": "bytes32"
        }
      ],
      "name": "getRoleMemberCount",
      "outputs": [
        {
          "internalType": "uint256",
          "name": "",
          "type": "uint256"
        }
      ],
      "stateMutability": "view",
      "type": "function"
    },
    {
      "inputs": [
        {
          "internalType": "bytes32",
          "name": "role",
          "type": "bytes32"
        },
        {
          "internalType": "address",
          "name": "account",
          "type": "address"
        }
      ],
      "name": "grantRole",
      "outputs": [],
      "stateMutability": "nonpayable",
      "type": "function"
    },
    {
      "inputs": [
        {
          "internalType": "bytes32",
          "name": "role",
          "type": "bytes32"
        },
        {
          "internalType": "address",
          "name": "account",
          "type": "address"
        }
      ],
      "name": "hasRole",
      "outputs": [
        {
          "internalType": "bool",
          "name": "",
          "type": "bool"
        }
      ],
      "stateMutability": "view",
      "type": "function"
    },
    {
      "inputs": [
        {
          "internalType": "uint256",
          "name": "from",
          "type": "uint256"
        },
        {
          "internalType": "uint256",
          "name": "to",
          "type": "uint256"
        },
        {
          "internalType": "uint256",
          "name": "attrId",
          "type": "uint256"
        }
      ],
      "name": "isApproved",
      "outputs": [
        {
          "internalType": "bool",
          "name": "",
          "type": "bool"
        }
      ],
      "stateMutability": "view",
      "type": "function"
    },
    {
      "inputs": [
        {
          "internalType": "address",
          "name": "owner",
          "type": "address"
        },
        {
          "internalType": "address",
          "name": "operator",
          "type": "address"
        }
      ],
      "name": "isApprovedForAll",
      "outputs": [
        {
          "internalType": "bool",
          "name": "",
          "type": "bool"
        }
      ],
      "stateMutability": "view",
      "type": "function"
    },
    {
      "inputs": [
        {
          "internalType": "uint256",
          "name": "tokenId",
          "type": "uint256"
        },
        {
          "internalType": "uint256",
          "name": "attrId",
          "type": "uint256"
        },
        {
          "internalType": "uint256",
          "name": "amount",
          "type": "uint256"
        }
      ],
      "name": "mint",
      "outputs": [],
      "stateMutability": "nonpayable",
      "type": "function"
    },
    {
      "inputs": [
        {
          "internalType": "address",
          "name": "to",
          "type": "address"
        }
      ],
      "name": "mint",
      "outputs": [],
      "stateMutability": "nonpayable",
      "type": "function"
    },
    {
      "inputs": [
        {
          "internalType": "uint256",
          "name": "tokenId",
          "type": "uint256"
        },
        {
          "internalType": "uint256[]",
          "name": "attrIds",
          "type": "uint256[]"
        },
        {
          "internalType": "uint256[]",
          "name": "amounts",
          "type": "uint256[]"
        }
      ],
      "name": "mintBatch",
      "outputs": [],
      "stateMutability": "nonpayable",
      "type": "function"
    },
    {
      "inputs": [
        {
          "internalType": "uint256",
          "name": "attrId",
          "type": "uint256"
        }
      ],
      "name": "name",
      "outputs": [
        {
          "internalType": "string",
          "name": "",
          "type": "string"
        }
      ],
      "stateMutability": "view",
      "type": "function"
    },
    {
      "inputs": [],
      "name": "name",
      "outputs": [
        {
          "internalType": "string",
          "name": "",
          "type": "string"
        }
      ],
      "stateMutability": "view",
      "type": "function"
    },
    {
      "inputs": [
        {
          "internalType": "uint256",
          "name": "tokenId",
          "type": "uint256"
        }
      ],
      "name": "ownerOf",
      "outputs": [
        {
          "internalType": "address",
          "name": "",
          "type": "address"
        }
      ],
      "stateMutability": "view",
      "type": "function"
    },
    {
      "inputs": [
        {
          "internalType": "uint256",
          "name": "tokenId",
          "type": "uint256"
        }
      ],
      "name": "primaryAttributeOf",
      "outputs": [
        {
          "internalType": "uint256",
          "name": "",
          "type": "uint256"
        }
      ],
      "stateMutability": "view",
      "type": "function"
    },
    {
      "inputs": [
        {
          "internalType": "bytes32",
          "name": "role",
          "type": "bytes32"
        },
        {
          "internalType": "address",
          "name": "account",
          "type": "address"
        }
      ],
      "name": "renounceRole",
      "outputs": [],
      "stateMutability": "nonpayable",
      "type": "function"
    },
    {
      "inputs": [
        {
          "internalType": "bytes32",
          "name": "role",
          "type": "bytes32"
        },
        {
          "internalType": "address",
          "name": "account",
          "type": "address"
        }
      ],
      "name": "revokeRole",
      "outputs": [],
      "stateMutability": "nonpayable",
      "type": "function"
    },
    {
      "inputs": [
        {
          "internalType": "address",
          "name": "from",
          "type": "address"
        },
        {
          "internalType": "address",
          "name": "to",
          "type": "address"
        },
        {
          "internalType": "uint256",
          "name": "tokenId",
          "type": "uint256"
        }
      ],
      "name": "safeTransferFrom",
      "outputs": [],
      "stateMutability": "nonpayable",
      "type": "function"
    },
    {
      "inputs": [
        {
          "internalType": "address",
          "name": "from",
          "type": "address"
        },
        {
          "internalType": "address",
          "name": "to",
          "type": "address"
        },
        {
          "internalType": "uint256",
          "name": "tokenId",
          "type": "uint256"
        },
        {
          "internalType": "bytes",
          "name": "_data",
          "type": "bytes"
        }
      ],
      "name": "safeTransferFrom",
      "outputs": [],
      "stateMutability": "nonpayable",
      "type": "function"
    },
    {
      "inputs": [
        {
          "internalType": "address",
          "name": "operator",
          "type": "address"
        },
        {
          "internalType": "bool",
          "name": "approved",
          "type": "bool"
        }
      ],
      "name": "setApprovalForAll",
      "outputs": [],
      "stateMutability": "nonpayable",
      "type": "function"
    },
    {
      "inputs": [
        {
          "internalType": "uint256",
          "name": "attrId",
          "type": "uint256"
        },
        {
          "internalType": "bool",
          "name": "allow",
          "type": "bool"
        }
      ],
      "name": "setAttrTransferAllow",
      "outputs": [],
      "stateMutability": "nonpayable",
      "type": "function"
    },
    {
      "inputs": [
        {
          "internalType": "uint256",
          "name": "tokenId",
          "type": "uint256"
        },
        {
          "internalType": "uint256",
          "name": "attrId",
          "type": "uint256"
        }
      ],
      "name": "setPrimaryAttribute",
      "outputs": [],
      "stateMutability": "nonpayable",
      "type": "function"
    },
    {
      "inputs": [
        {
          "internalType": "bytes4",
          "name": "interfaceId",
          "type": "bytes4"
        }
      ],
      "name": "supportsInterface",
      "outputs": [
        {
          "internalType": "bool",
          "name": "",
          "type": "bool"
        }
      ],
      "stateMutability": "view",
      "type": "function"
    },
    {
      "inputs": [
        {
          "internalType": "uint256",
          "name": "attrId",
          "type": "uint256"
        }
      ],
      "name": "symbol",
      "outputs": [
        {
          "internalType": "string",
          "name": "",
          "type": "string"
        }
      ],
      "stateMutability": "view",
      "type": "function"
    },
    {
      "inputs": [],
      "name": "symbol",
      "outputs": [
        {
          "internalType": "string",
          "name": "",
          "type": "string"
        }
      ],
      "stateMutability": "view",
      "type": "function"
    },
    {
      "inputs": [
        {
          "internalType": "uint256",
          "name": "index",
          "type": "uint256"
        }
      ],
      "name": "tokenByIndex",
      "outputs": [
        {
          "internalType": "uint256",
          "name": "",
          "type": "uint256"
        }
      ],
      "stateMutability": "view",
      "type": "function"
    },
    {
      "inputs": [
        {
          "internalType": "address",
          "name": "owner",
          "type": "address"
        },
        {
          "internalType": "uint256",
          "name": "index",
          "type": "uint256"
        }
      ],
      "name": "tokenOfOwnerByIndex",
      "outputs": [
        {
          "internalType": "uint256",
          "name": "",
          "type": "uint256"
        }
      ],
      "stateMutability": "view",
      "type": "function"
    },
    {
      "inputs": [
        {
          "internalType": "uint256",
          "name": "tokenId",
          "type": "uint256"
        }
      ],
      "name": "tokenURI",
      "outputs": [
        {
          "internalType": "string",
          "name": "",
          "type": "string"
        }
      ],
      "stateMutability": "view",
      "type": "function"
    },
    {
      "inputs": [],
      "name": "totalSupply",
      "outputs": [
        {
          "internalType": "uint256",
          "name": "",
          "type": "uint256"
        }
      ],
      "stateMutability": "view",
      "type": "function"
    },
    {
      "inputs": [
        {
          "internalType": "address",
          "name": "from",
          "type": "address"
        },
        {
          "internalType": "address",
          "name": "to",
          "type": "address"
        },
        {
          "internalType": "uint256",
          "name": "tokenId",
          "type": "uint256"
        }
      ],
      "name": "transferFrom",
      "outputs": [],
      "stateMutability": "nonpayable",
      "type": "function"
    },
    {
      "inputs": [
        {
          "internalType": "uint256",
          "name": "from",
          "type": "uint256"
        },
        {
          "internalType": "uint256",
          "name": "to",
          "type": "uint256"
        },
        {
          "internalType": "uint256",
          "name": "attrId",
          "type": "uint256"
        }
      ],
      "name": "transferFrom",
      "outputs": [],
      "stateMutability": "nonpayable",
      "type": "function"
    }
  ],
  "bytecode": "0x60806040523480156200001157600080fd5b50604051620046293803806200462983398101604081905262000034916200031b565b6040518060400160405280600f81526020016e15d9588cc8111053c810d388139195608a1b81525060405180604001604052806005815260200164574542c2b360d81b815250826200008c81620000fd60201b60201c565b508151620000a290600590602085019062000275565b508051620000b890600690602084019062000275565b50620000ca9150600090503362000116565b620000f67f9f2df0fed2c77648de5860a4cc508cd0818c85b8b8a1ab4ceeef8d981c8956a63362000116565b5062000444565b80516200011290600090602084019062000275565b5050565b6200011282826200013382826200015f60201b620017d81760201c565b60008281526010602090815260409091206200015a9183906200185e62000203821b17901c565b505050565b6000828152600f602090815260408083206001600160a01b038516845290915290205460ff1662000112576000828152600f602090815260408083206001600160a01b03851684529091529020805460ff19166001179055620001bf3390565b6001600160a01b0316816001600160a01b0316837f2f8788117e7eff1d82e926ec794901d17c78024a50270940304540a733656f0d60405160405180910390a45050565b60006200021a836001600160a01b03841662000223565b90505b92915050565b60008181526001830160205260408120546200026c575081546001818101845560008481526020808220909301849055845484825282860190935260409020919091556200021d565b5060006200021d565b8280546200028390620003f1565b90600052602060002090601f016020900481019282620002a75760008555620002f2565b82601f10620002c257805160ff1916838001178555620002f2565b82800160010185558215620002f2579182015b82811115620002f2578251825591602001919060010190620002d5565b506200030092915062000304565b5090565b5b8082111562000300576000815560010162000305565b600060208083850312156200032e578182fd5b82516001600160401b038082111562000345578384fd5b818501915085601f83011262000359578384fd5b8151818111156200036e576200036e6200042e565b604051601f8201601f19908116603f011681019083821181831017156200039957620003996200042e565b816040528281528886848701011115620003b1578687fd5b8693505b82841015620003d45784840186015181850187015292850192620003b5565b82841115620003e557868684830101525b98975050505050505050565b600181811c908216806200040657607f821691505b602082108114156200042857634e487b7160e01b600052602260045260246000fd5b50919050565b634e487b7160e01b600052604160045260246000fd5b6141d580620004546000396000f3fe608060405234801561001057600080fd5b50600436106102895760003560e01c806370a082311161015c578063b88d4fde116100ce578063e829ffa111610087578063e829ffa1146105fb578063e985e9c514610626578063ea69963314610662578063f030ba631461068c578063f03774571461069f578063f371efa4146106b257600080fd5b8063b88d4fde14610587578063c87b56dd1461059a578063ca15c873146105ad578063cd2e2c24146105c0578063d5391393146105d3578063d547741f146105e857600080fd5b806391d148541161012057806391d148541461052b57806395d89b411461053e5780639bc5ae5414610546578063a217fddf14610559578063a22cb46514610561578063b866c8a41461057457600080fd5b806370a08231146104af57806378cc520d146104c257806387e21d42146104e55780639010d07c1461050557806391a2c83c1461051857600080fd5b8063248a9ca31161020057806342842e0e116101b957806342842e0e146104305780634e41a1fb146104435780634f6ccce7146104565780635d126110146104695780636352211e146104895780636a6278421461049c57600080fd5b8063248a9ca3146103ae5780632f2ff15d146103d15780632f745c59146103e4578063310ed7f0146103f757806336568abe1461040a57806336cca0be1461041d57600080fd5b8063081812fc11610252578063081812fc1461030a578063095ea7b3146103355780631070717b1461034857806318160ddd1461035b578063237306e81461036d57806323b872dd1461039b57600080fd5b8062ad800c1461028e57806301ffc9a7146102b757806302acc94b146102da57806305a10028146102ef57806306fdde0314610302575b600080fd5b6102a161029c36600461389b565b6106d7565b6040516102ae9190613d3c565b60405180910390f35b6102ca6102c53660046138f6565b6107f4565b60405190151581526020016102ae565b6102ed6102e8366004613aa0565b610805565b005b6102ed6102fd366004613aa0565b610849565b6102a1610888565b61031d61031836600461389b565b61091a565b6040516001600160a01b0390911681526020016102ae565b6102ed61034336600461378e565b6109af565b6102ed6103563660046138d5565b610ac0565b600d545b6040519081526020016102ae565b6102ca61037b366004613aa0565b600090815260046020908152604080832094835293905291909120541490565b6102ed6103a93660046136b2565b610b08565b61035f6103bc36600461389b565b6000908152600f602052604090206001015490565b6102ed6103df3660046138b3565b610b39565b61035f6103f236600461378e565b610b5f565b6102ed610405366004613aa0565b610bf5565b6102ed6104183660046138b3565b610dc9565b6102ed61042b366004613a02565b610e47565b6102ed61043e3660046136b2565b610e8f565b6102a161045136600461389b565b610eaa565b61035f61046436600461389b565b610f43565b61047c61047736600461392e565b610fe4565b6040516102ae9190613d0a565b61031d61049736600461389b565b6110d0565b6102ed6104aa366004613666565b611147565b61035f6104bd366004613666565b61119e565b6102ca6104d036600461389b565b60126020526000908152604090205460ff1681565b61035f6104f336600461389b565b60009081526003602052604090205490565b61031d6105133660046138d5565b611225565b6102ed610526366004613977565b611244565b6102ca6105393660046138b3565b611283565b6102a16112ae565b6102a161055436600461389b565b6112bd565b61035f600081565b6102ed61056f366004613765565b61145a565b6102ed610582366004613aa0565b611465565b6102ed6105953660046136ed565b6114e7565b6102a16105a836600461389b565b611519565b61035f6105bb36600461389b565b6115d9565b6102ed6105ce3660046137b7565b6115f0565b61035f60008051602061418083398151915281565b6102ed6105f63660046138b3565b61168c565b61035f6106093660046138d5565b600260209081526000928352604080842090915290825290205481565b6102ca610634366004613680565b6001600160a01b039182166000908152600a6020908152604080832093909416825291909152205460ff1690565b61035f6106703660046138d5565b6000908152600260209081526040808320938352929052205490565b6102ed61069a366004613977565b6116b2565b6102ed6106ad3660046139e0565b6116f1565b6106c56106c036600461389b565b611745565b60405160ff90911681526020016102ae565b60008181526001602052604090206004015460609060ff166107565760405162461bcd60e51b815260206004820152602d60248201527f455243333636343a206e616d6520717565727920666f72206e6f6e657869737460448201526c656e742061747472696275746560981b60648201526084015b60405180910390fd5b6000828152600160205260409020805461076f906140c3565b80601f016020809104026020016040519081016040528092919081815260200182805461079b906140c3565b80156107e85780601f106107bd576101008083540402835291602001916107e8565b820191906000526020600020905b8154815290600101906020018083116107cb57829003601f168201915b50505050509050919050565b60006107ff82611873565b92915050565b61081d60008051602061418083398151915233611283565b6108395760405162461bcd60e51b815260040161074d90613f0e565b610844838383611898565b505050565b61086160008051602061418083398151915233611283565b61087d5760405162461bcd60e51b815260040161074d90613f0e565b6108448383836119e6565b606060058054610897906140c3565b80601f01602080910402602001604051908101604052809291908181526020018280546108c3906140c3565b80156109105780601f106108e557610100808354040283529160200191610910565b820191906000526020600020905b8154815290600101906020018083116108f357829003601f168201915b5050505050905090565b6000818152600760205260408120546001600160a01b03166109935760405162461bcd60e51b815260206004820152602c60248201527f4552433732313a20617070726f76656420717565727920666f72206e6f6e657860448201526b34b9ba32b73a103a37b5b2b760a11b606482015260840161074d565b506000908152600960205260409020546001600160a01b031690565b60006109ba826110d0565b9050806001600160a01b0316836001600160a01b03161415610a285760405162461bcd60e51b815260206004820152602160248201527f4552433732313a20617070726f76616c20746f2063757272656e74206f776e656044820152603960f91b606482015260840161074d565b336001600160a01b0382161480610a445750610a448133610634565b610ab65760405162461bcd60e51b815260206004820152603860248201527f4552433732313a20617070726f76652063616c6c6572206973206e6f74206f7760448201527f6e6572206e6f7220617070726f76656420666f7220616c6c0000000000000000606482015260840161074d565b6108448383611b5a565b6000818152600260209081526040808320858452909152902054610af65760405162461bcd60e51b815260040161074d90613e70565b60009182526003602052604090912055565b610b123382611bc8565b610b2e5760405162461bcd60e51b815260040161074d90613ebd565b610844838383611cbf565b6000828152600f6020526040902060010154610b558133611e6a565b6108448383611ece565b6000610b6a8361119e565b8210610bcc5760405162461bcd60e51b815260206004820152602b60248201527f455243373231456e756d657261626c653a206f776e657220696e646578206f7560448201526a74206f6620626f756e647360a81b606482015260840161074d565b506001600160a01b03919091166000908152600b60209081526040808320938352929052205490565b60008181526004602090815260408083208684529091529020548214610c835760405162461bcd60e51b815260206004820152603a60248201527f455243333636343a206e667420686f6c646572206e6f7420617070726f76652060448201527f7468652061747472696275746520746f20726563697069656e74000000000000606482015260840161074d565b600081815260026020908152604080832085845290915290205415610d005760405162461bcd60e51b815260206004820152602d60248201527f455243333636343a20726563697069656e74206861732061747461636865642060448201526c7468652061747472696275746560981b606482015260840161074d565b60008181526002602090815260408083208684528252808320548151928301909152918152339190610d3b9083908790879087908690611ef0565b6000838152600260209081526040808320878452825280832084905587835280832083905585835260048252808320888452825280832092909255815187815290810186905290810182905283906001600160a01b038416907f73b5fbfbf0177b0de2ffe9fd0ae9887dd73d0d865db7ab5ff3c4a6b9bb8db1e3906060015b60405180910390a35050505050565b6001600160a01b0381163314610e395760405162461bcd60e51b815260206004820152602f60248201527f416363657373436f6e74726f6c3a2063616e206f6e6c792072656e6f756e636560448201526e103937b632b9903337b91039b2b63360891b606482015260840161074d565b610e438282611f80565b5050565b610e5f60008051602061418083398151915233611283565b610e7b5760405162461bcd60e51b815260040161074d90613f0e565b610e888585858585611fa2565b5050505050565b610844838383604051806020016040528060008152506114e7565b60008181526001602052604090206004015460609060ff16610f265760405162461bcd60e51b815260206004820152602f60248201527f455243333636343a2073796d626f6c20717565727920666f72206e6f6e65786960448201526e7374656e742061747472696275746560881b606482015260840161074d565b600082815260016020819052604090912001805461076f906140c3565b6000610f4e600d5490565b8210610fb15760405162461bcd60e51b815260206004820152602c60248201527f455243373231456e756d657261626c653a20676c6f62616c20696e646578206f60448201526b7574206f6620626f756e647360a01b606482015260840161074d565b600d8281548110610fd257634e487b7160e01b600052603260045260246000fd5b90600052602060002001549050919050565b60606000826001600160401b0381111561100e57634e487b7160e01b600052604160045260246000fd5b604051908082528060200260200182016040528015611037578160200160208202803683370190505b50905060005b838110156110c75761108c8686868481811061106957634e487b7160e01b600052603260045260246000fd5b905060200201356000908152600260209081526040808320938352929052205490565b8282815181106110ac57634e487b7160e01b600052603260045260246000fd5b60209081029190910101526110c0816140f8565b905061103d565b50949350505050565b6000818152600760205260408120546001600160a01b0316806107ff5760405162461bcd60e51b815260206004820152602960248201527f4552433732313a206f776e657220717565727920666f72206e6f6e657869737460448201526832b73a103a37b5b2b760b91b606482015260840161074d565b61115f60008051602061418083398151915233611283565b61117b5760405162461bcd60e51b815260040161074d90613f0e565b611189601180546001019055565b61119b8161119660115490565b61210d565b50565b60006001600160a01b0382166112095760405162461bcd60e51b815260206004820152602a60248201527f4552433732313a2062616c616e636520717565727920666f7220746865207a65604482015269726f206164647265737360b01b606482015260840161074d565b506001600160a01b031660009081526008602052604090205490565b600082815260106020526040812061123d908361225b565b9392505050565b61125c60008051602061418083398151915233611283565b6112785760405162461bcd60e51b815260040161074d90613f0e565b610844838383612267565b6000918252600f602090815260408084206001600160a01b0393909316845291905290205460ff1690565b606060068054610897906140c3565b60008181526001602052604090206004015460609060ff166113365760405162461bcd60e51b815260206004820152602c60248201527f455243333636343a2055524920717565727920666f72206e6f6e65786973746560448201526b6e742061747472696275746560a01b606482015260840161074d565b60008281526001602052604081206003018054611352906140c3565b80601f016020809104026020016040519081016040528092919081815260200182805461137e906140c3565b80156113cb5780601f106113a0576101008083540402835291602001916113cb565b820191906000526020600020905b8154815290600101906020018083116113ae57829003601f168201915b5050505050905060008151111561140e57806113e684612483565b6040516020016113f7929190613b83565b604051602081830303815290604052915050919050565b600080805461141c906140c3565b905011611438576040518060200160405280600081525061123d565b600061144384612483565b6040516020016113f7929190613bb2565b50919050565b610e4333838361259c565b8233611470826110d0565b6001600160a01b0316146114d65760405162461bcd60e51b815260206004820152602760248201527f5765623344414f434e3a2063616c6c6572206973206e6f7420746865206e6674604482015266103437b63232b960c91b606482015260840161074d565b6114e184848461266b565b50505050565b6114f13383611bc8565b61150d5760405162461bcd60e51b815260040161074d90613ebd565b6114e18484848461280f565b6000818152600760205260409020546060906001600160a01b03166115985760405162461bcd60e51b815260206004820152602f60248201527f4552433732314d657461646174613a2055524920717565727920666f72206e6f60448201526e3732bc34b9ba32b73a103a37b5b2b760891b606482015260840161074d565b60006115af60408051602081019091526000815290565b905060008151116115cf576040518060200160405280600081525061123d565b806113e684612483565b60008181526010602052604081206107ff90612842565b61160860008051602061418083398151915233611283565b6116245760405162461bcd60e51b815260040161074d90613f0e565b61168189898080602002602001604051908101604052809392919081815260200183836020028082843760009201919091525061166792508a91508b905061400b565b611671878961400b565b8661167c868861400b565b61284c565b505050505050505050565b6000828152600f60205260409020600101546116a88133611e6a565b6108448383611f80565b6116ca60008051602061418083398151915233611283565b6116e65760405162461bcd60e51b815260040161074d90613f0e565b610844838383612a65565b61170960008051602061418083398151915233611283565b6117255760405162461bcd60e51b815260040161074d90613f0e565b600091825260126020526040909120805460ff1916911515919091179055565b60008181526001602052604081206004015460ff166117bf5760405162461bcd60e51b815260206004820152603060248201527f455243333636343a20646563696d616c20717565727920666f72206e6f6e657860448201526f697374656e742061747472696275746560801b606482015260840161074d565b5060009081526001602052604090206002015460ff1690565b6117e28282611283565b610e43576000828152600f602090815260408083206001600160a01b03851684529091529020805460ff1916600117905561181a3390565b6001600160a01b0316816001600160a01b0316837f2f8788117e7eff1d82e926ec794901d17c78024a50270940304540a733656f0d60405160405180910390a45050565b600061123d836001600160a01b038416612ba9565b60006001600160e01b03198216635a05180f60e01b14806107ff57506107ff82612bf8565b60008281526001602052604090206004015460ff166119095760405162461bcd60e51b815260206004820152602760248201527f455243333636343a206d696e7420666f72206e6f6e6578697374656e742061746044820152667472696275746560c81b606482015260840161074d565b600082815260026020908152604080832086845290915290205461193f5760405162461bcd60e51b815260040161074d90613e70565b600033905061196281600086868660405180602001604052806000815250611ef0565b60008381526002602090815260408083208784529091528120805484929061198b908490613fa9565b909155505060408051600081526020810186905290810183905283906001600160a01b038316907f73b5fbfbf0177b0de2ffe9fd0ae9887dd73d0d865db7ab5ff3c4a6b9bb8db1e3906060015b60405180910390a350505050565b60008281526001602052604090206004015460ff16611a575760405162461bcd60e51b815260206004820152602760248201527f455243333636343a206275726e20666f72206e6f6e6578697374656e742061746044820152667472696275746560c81b606482015260840161074d565b6000828152600260209081526040808320868452909152902054611a8d5760405162461bcd60e51b815260040161074d90613e70565b6000339050611ab081856000868660405180602001604052806000815250611ef0565b600083815260026020908152604080832087845290915290205482811015611aea5760405162461bcd60e51b815260040161074d90613d88565b611af48382613ff4565b600085815260026020908152604080832089845282528083209390935582518881529081019190915290810184905284906001600160a01b038416907f73b5fbfbf0177b0de2ffe9fd0ae9887dd73d0d865db7ab5ff3c4a6b9bb8db1e390606001610dba565b600081815260096020526040902080546001600160a01b0319166001600160a01b0384169081179091558190611b8f826110d0565b6001600160a01b03167f8c5be1e5ebec7d5bd14f71427d1e84f3dd0314c0f7b2291e5b200ac8c7c3b92560405160405180910390a45050565b6000818152600760205260408120546001600160a01b0316611c415760405162461bcd60e51b815260206004820152602c60248201527f4552433732313a206f70657261746f7220717565727920666f72206e6f6e657860448201526b34b9ba32b73a103a37b5b2b760a11b606482015260840161074d565b6000611c4c836110d0565b9050806001600160a01b0316846001600160a01b03161480611c875750836001600160a01b0316611c7c8461091a565b6001600160a01b0316145b80611cb757506001600160a01b038082166000908152600a602090815260408083209388168352929052205460ff165b949350505050565b826001600160a01b0316611cd2826110d0565b6001600160a01b031614611d3a5760405162461bcd60e51b815260206004820152602960248201527f4552433732313a207472616e73666572206f6620746f6b656e2074686174206960448201526839903737ba1037bbb760b91b606482015260840161074d565b6001600160a01b038216611d9c5760405162461bcd60e51b8152602060048201526024808201527f4552433732313a207472616e7366657220746f20746865207a65726f206164646044820152637265737360e01b606482015260840161074d565b611da7838383612c1d565b611db2600082611b5a565b6001600160a01b0383166000908152600860205260408120805460019290611ddb908490613ff4565b90915550506001600160a01b0382166000908152600860205260408120805460019290611e09908490613fa9565b909155505060008181526007602052604080822080546001600160a01b0319166001600160a01b0386811691821790925591518493918716917fddf252ad1be2c89b69c2b068fc378daa952ba7f163c4a11628f55a4df523b3ef91a4505050565b611e748282611283565b610e4357611e8c816001600160a01b03166014612cd5565b611e97836020612cd5565b604051602001611ea8929190613c58565b60408051601f198184030181529082905262461bcd60e51b825261074d91600401613d3c565b611ed882826117d8565b6000828152601060205260409020610844908261185e565b611f0860008051602061418083398151915287611283565b80611f21575060008381526012602052604090205460ff165b611f785760405162461bcd60e51b815260206004820152602260248201527f5765623344414f434e3a2041747472207472616e73666572206e6f7420616c6c6044820152616f7760f01b606482015260840161074d565b505050505050565b611f8a8282612eb6565b60008281526010602052604090206108449082612f1d565b60008581526001602052604090206004015460ff161561200e5760405162461bcd60e51b815260206004820152602160248201527f455243333636343a2061747472696275746520616c72656164792065786973746044820152607360f81b606482015260840161074d565b6040805160a081018252858152602080820186905260ff85168284015260608201849052600160808301819052600089815290825292909220815180519293849361205c92849201906133fe565b50602082810151805161207592600185019201906133fe565b50604082015160028201805460ff191660ff909216919091179055606082015180516120ab9160038401916020909101906133fe565b50608091909101516004909101805460ff191691151591909117905560405186907fe3c3c9bbda1d6ccb059320eed92d395bd49272efb8a675a188a9d1b4e4da4ce2906120fd90889088908790613d4f565b60405180910390a2505050505050565b6001600160a01b0382166121635760405162461bcd60e51b815260206004820181905260248201527f4552433732313a206d696e7420746f20746865207a65726f2061646472657373604482015260640161074d565b6000818152600760205260409020546001600160a01b0316156121c85760405162461bcd60e51b815260206004820152601c60248201527f4552433732313a20746f6b656e20616c7265616479206d696e74656400000000604482015260640161074d565b6121d460008383612c1d565b6001600160a01b03821660009081526008602052604081208054600192906121fd908490613fa9565b909155505060008181526007602052604080822080546001600160a01b0319166001600160a01b03861690811790915590518392907fddf252ad1be2c89b69c2b068fc378daa952ba7f163c4a11628f55a4df523b3ef908290a45050565b600061123d8383612f32565b80518251146122885760405162461bcd60e51b815260040161074d90613dd2565b3360005b835181101561242e57612301828660008785815181106122bc57634e487b7160e01b600052603260045260246000fd5b60200260200101518786815181106122e457634e487b7160e01b600052603260045260246000fd5b602002602001015160405180602001604052806000815250611ef0565b60006002600086848151811061232757634e487b7160e01b600052603260045260246000fd5b60200260200101518152602001908152602001600020600087815260200190815260200160002054905083828151811061237157634e487b7160e01b600052603260045260246000fd5b60200260200101518110156123985760405162461bcd60e51b815260040161074d90613d88565b8382815181106123b857634e487b7160e01b600052603260045260246000fd5b6020026020010151816123cb9190613ff4565b600260008785815181106123ef57634e487b7160e01b600052603260045260246000fd5b60200260200101518152602001908152602001600020600088815260200190815260200160002081905550508080612426906140f8565b91505061228c565b508260405161243d9190613b4d565b6040518091039020816001600160a01b03167fbfb4d8e5891aebe97980c97616b6b0af2006a58ccabe6e1b7e3da24d0906a856866000866040516119d893929190613d1d565b6060816124a75750506040805180820190915260018152600360fc1b602082015290565b8160005b81156124d157806124bb816140f8565b91506124ca9050600a83613fc1565b91506124ab565b6000816001600160401b038111156124f957634e487b7160e01b600052604160045260246000fd5b6040519080825280601f01601f191660200182016040528015612523576020820181803683370190505b5090505b8415611cb757612538600183613ff4565b9150612545600a86614113565b612550906030613fa9565b60f81b81838151811061257357634e487b7160e01b600052603260045260246000fd5b60200101906001600160f81b031916908160001a905350612595600a86613fc1565b9450612527565b816001600160a01b0316836001600160a01b031614156125fe5760405162461bcd60e51b815260206004820152601960248201527f4552433732313a20617070726f766520746f2063616c6c657200000000000000604482015260640161074d565b6001600160a01b038381166000818152600a6020908152604080832094871680845294825291829020805460ff191686151590811790915591519182527f17307eab39ab6107e8899845ad3d59bd9653f200f220920489ca2b5937696c31910160405180910390a3505050565b826126c75760405162461bcd60e51b815260206004820152602660248201527f455243333636343a20617070726f76652066726f6d20746865207a65726f206160448201526564647265737360d01b606482015260840161074d565b816127205760405162461bcd60e51b8152602060048201526024808201527f455243333636343a20617070726f766520746f20746865207a65726f206164646044820152637265737360e01b606482015260840161074d565b6000818152600260209081526040808320858452909152902054156127ad5760405162461bcd60e51b815260206004820152603b60248201527f455243333636343a20726563697069656e7420746f6b656e2068617320616c7260448201527f6561647920617474616368656420746865206174747269627574650000000000606482015260840161074d565b60008181526004602090815260408083208684528252918290208490558151858152908101849052808201839052905133917f6565b688f546de180373d4414390a2d7d1ff98f4a22d6a48534e178d3b2d072e919081900360600190a2505050565b61281a848484611cbf565b61282684848484612f6a565b6114e15760405162461bcd60e51b815260040161074d90613e1e565b60006107ff825490565b83518551146128b05760405162461bcd60e51b815260206004820152602a60248201527f455243333636343a206174747249647320616e64206e616d6573206c656e67746044820152690d040dad2e6dac2e8c6d60b31b606482015260840161074d565b82518451146129145760405162461bcd60e51b815260206004820152602a60248201527f455243333636343a206e616d657320616e642073796d626f6c73206c656e67746044820152690d040dad2e6dac2e8c6d60b31b606482015260840161074d565b80518351146129775760405162461bcd60e51b815260206004820152602960248201527f455243333636343a2073796d626f6c7320616e642075726973206c656e677468604482015268040dad2e6dac2e8c6d60bb1b606482015260840161074d565b60005b8551811015611f7857612a538682815181106129a657634e487b7160e01b600052603260045260246000fd5b60200260200101518683815181106129ce57634e487b7160e01b600052603260045260246000fd5b60200260200101518684815181106129f657634e487b7160e01b600052603260045260246000fd5b6020026020010151868581518110612a1e57634e487b7160e01b600052603260045260246000fd5b6020026020010151868681518110612a4657634e487b7160e01b600052603260045260246000fd5b6020026020010151611fa2565b80612a5d816140f8565b91505061297a565b8051825114612a865760405162461bcd60e51b815260040161074d90613dd2565b3360005b8351811015612b5457612aba828660008785815181106122bc57634e487b7160e01b600052603260045260246000fd5b828181518110612ada57634e487b7160e01b600052603260045260246000fd5b602002602001015160026000868481518110612b0657634e487b7160e01b600052603260045260246000fd5b6020026020010151815260200190815260200160002060008781526020019081526020016000206000828254612b3c9190613fa9565b90915550819050612b4c816140f8565b915050612a8a565b5082604051612b639190613b4d565b6040518091039020816001600160a01b03167fbfb4d8e5891aebe97980c97616b6b0af2006a58ccabe6e1b7e3da24d0906a856600087866040516119d893929190613d1d565b6000818152600183016020526040812054612bf0575081546001818101845560008481526020808220909301849055845484825282860190935260409020919091556107ff565b5060006107ff565b60006001600160e01b03198216637965db0b60e01b14806107ff57506107ff82613077565b6001600160a01b038316612c7857612c7381600d80546000838152600e60205260408120829055600182018355919091527fd7b6990105719101dabeb77144f2a3385c8033acd3af97e9423a695e81ad1eb50155565b612c9b565b816001600160a01b0316836001600160a01b031614612c9b57612c9b838261309c565b6001600160a01b038216612cb25761084481613139565b826001600160a01b0316826001600160a01b031614610844576108448282613212565b60606000612ce4836002613fd5565b612cef906002613fa9565b6001600160401b03811115612d1457634e487b7160e01b600052604160045260246000fd5b6040519080825280601f01601f191660200182016040528015612d3e576020820181803683370190505b509050600360fc1b81600081518110612d6757634e487b7160e01b600052603260045260246000fd5b60200101906001600160f81b031916908160001a905350600f60fb1b81600181518110612da457634e487b7160e01b600052603260045260246000fd5b60200101906001600160f81b031916908160001a9053506000612dc8846002613fd5565b612dd3906001613fa9565b90505b6001811115612e67576f181899199a1a9b1b9c1cb0b131b232b360811b85600f1660108110612e1557634e487b7160e01b600052603260045260246000fd5b1a60f81b828281518110612e3957634e487b7160e01b600052603260045260246000fd5b60200101906001600160f81b031916908160001a90535060049490941c93612e60816140ac565b9050612dd6565b50831561123d5760405162461bcd60e51b815260206004820181905260248201527f537472696e67733a20686578206c656e67746820696e73756666696369656e74604482015260640161074d565b612ec08282611283565b15610e43576000828152600f602090815260408083206001600160a01b0385168085529252808320805460ff1916905551339285917ff6391f5c32d9c69d2a47ea670b442974b53935d1edc7fd64eb21e047a839171b9190a45050565b600061123d836001600160a01b038416613256565b6000826000018281548110612f5757634e487b7160e01b600052603260045260246000fd5b9060005260206000200154905092915050565b60006001600160a01b0384163b1561306c57604051630a85bd0160e11b81526001600160a01b0385169063150b7a0290612fae903390899088908890600401613ccd565b602060405180830381600087803b158015612fc857600080fd5b505af1925050508015612ff8575060408051601f3d908101601f19168201909252612ff591810190613912565b60015b613052573d808015613026576040519150601f19603f3d011682016040523d82523d6000602084013e61302b565b606091505b50805161304a5760405162461bcd60e51b815260040161074d90613e1e565b805181602001fd5b6001600160e01b031916630a85bd0160e11b149050611cb7565b506001949350505050565b60006001600160e01b0319821663780e9d6360e01b14806107ff57506107ff82613373565b600060016130a98461119e565b6130b39190613ff4565b6000838152600c6020526040902054909150808214613106576001600160a01b0384166000908152600b602090815260408083208584528252808320548484528184208190558352600c90915290208190555b506000918252600c602090815260408084208490556001600160a01b039094168352600b81528383209183525290812055565b600d5460009061314b90600190613ff4565b6000838152600e6020526040812054600d805493945090928490811061318157634e487b7160e01b600052603260045260246000fd5b9060005260206000200154905080600d83815481106131b057634e487b7160e01b600052603260045260246000fd5b6000918252602080832090910192909255828152600e9091526040808220849055858252812055600d8054806131f657634e487b7160e01b600052603160045260246000fd5b6001900381819060005260206000200160009055905550505050565b600061321d8361119e565b6001600160a01b039093166000908152600b602090815260408083208684528252808320859055938252600c9052919091209190915550565b6000818152600183016020526040812054801561336957600061327a600183613ff4565b855490915060009061328e90600190613ff4565b905081811461330f5760008660000182815481106132bc57634e487b7160e01b600052603260045260246000fd5b90600052602060002001549050808760000184815481106132ed57634e487b7160e01b600052603260045260246000fd5b6000918252602080832090910192909255918252600188019052604090208390555b855486908061332e57634e487b7160e01b600052603160045260246000fd5b6001900381819060005260206000200160009055905585600101600086815260200190815260200160002060009055600193505050506107ff565b60009150506107ff565b60006001600160e01b031982166380ac58cd60e01b14806133a457506001600160e01b03198216635b5e139f60e01b145b806107ff57506107ff8260006001600160e01b03198216634579415360e11b14806133df57506001600160e01b03198216632658600760e01b145b806107ff57506301ffc9a760e01b6001600160e01b03198316146107ff565b82805461340a906140c3565b90600052602060002090601f01602090048101928261342c5760008555613472565b82601f1061344557805160ff1916838001178555613472565b82800160010185558215613472579182015b82811115613472578251825591602001919060010190613457565b5061347e929150613482565b5090565b5b8082111561347e5760008155600101613483565b60006001600160401b038311156134b0576134b0614153565b6134c3601f8401601f1916602001613f56565b90508281528383830111156134d757600080fd5b828260208301376000602084830101529392505050565b80356001600160a01b038116811461350557600080fd5b919050565b60008083601f84011261351b578182fd5b5081356001600160401b03811115613531578182fd5b6020830191508360208260051b850101111561354c57600080fd5b9250929050565b600082601f830112613563578081fd5b8135602061357861357383613f86565b613f56565b80838252828201915082860187848660051b8901011115613597578586fd5b855b858110156135b557813584529284019290840190600101613599565b5090979650505050505050565b600082601f8301126135d2578081fd5b813560206135e261357383613f86565b80838252828201915082860187848660051b8901011115613601578586fd5b855b858110156135b55761361482613655565b84529284019290840190600101613603565b8035801515811461350557600080fd5b600082601f830112613646578081fd5b61123d83833560208501613497565b803560ff8116811461350557600080fd5b600060208284031215613677578081fd5b61123d826134ee565b60008060408385031215613692578081fd5b61369b836134ee565b91506136a9602084016134ee565b90509250929050565b6000806000606084860312156136c6578081fd5b6136cf846134ee565b92506136dd602085016134ee565b9150604084013590509250925092565b60008060008060808587031215613702578081fd5b61370b856134ee565b9350613719602086016134ee565b92506040850135915060608501356001600160401b0381111561373a578182fd5b8501601f8101871361374a578182fd5b61375987823560208401613497565b91505092959194509250565b60008060408385031215613777578182fd5b613780836134ee565b91506136a960208401613626565b600080604083850312156137a0578182fd5b6137a9836134ee565b946020939093013593505050565b600080600080600080600080600060a08a8c0312156137d4578687fd5b89356001600160401b03808211156137ea578889fd5b6137f68d838e0161350a565b909b50995060208c013591508082111561380e578889fd5b61381a8d838e0161350a565b909950975060408c0135915080821115613832578687fd5b61383e8d838e0161350a565b909750955060608c0135915080821115613856578485fd5b6138628d838e016135c2565b945060808c0135915080821115613877578384fd5b506138848c828d0161350a565b915080935050809150509295985092959850929598565b6000602082840312156138ac578081fd5b5035919050565b600080604083850312156138c5578182fd5b823591506136a9602084016134ee565b600080604083850312156138e7578182fd5b50508035926020909101359150565b600060208284031215613907578081fd5b813561123d81614169565b600060208284031215613923578081fd5b815161123d81614169565b600080600060408486031215613942578081fd5b8335925060208401356001600160401b0381111561395e578182fd5b61396a8682870161350a565b9497909650939450505050565b60008060006060848603121561398b578081fd5b8335925060208401356001600160401b03808211156139a8578283fd5b6139b487838801613553565b935060408601359150808211156139c9578283fd5b506139d686828701613553565b9150509250925092565b600080604083850312156139f2578182fd5b823591506136a960208401613626565b600080600080600060a08688031215613a19578283fd5b8535945060208601356001600160401b0380821115613a36578485fd5b613a4289838a01613636565b95506040880135915080821115613a57578485fd5b613a6389838a01613636565b9450613a7160608901613655565b93506080880135915080821115613a86578283fd5b50613a9388828901613636565b9150509295509295909350565b600080600060608486031215613ab4578081fd5b505081359360208301359350604090920135919050565b6000815180845260208085019450808401835b83811015613afa57815187529582019590820190600101613ade565b509495945050505050565b60008151808452613b1d816020860160208601614080565b601f01601f19169290920160200192915050565b60008151613b43818560208601614080565b9290920192915050565b815160009082906020808601845b83811015613b7757815185529382019390820190600101613b5b565b50929695505050505050565b60008351613b95818460208801614080565b835190830190613ba9818360208801614080565b01949350505050565b600080845482600182811c915080831680613bce57607f831692505b6020808410821415613bee57634e487b7160e01b87526022600452602487fd5b818015613c025760018114613c1357613c3f565b60ff19861689528489019650613c3f565b60008b815260209020885b86811015613c375781548b820152908501908301613c1e565b505084890196505b505050505050613c4f8185613b31565b95945050505050565b7f416363657373436f6e74726f6c3a206163636f756e7420000000000000000000815260008351613c90816017850160208801614080565b7001034b99036b4b9b9b4b733903937b6329607d1b6017918401918201528351613cc1816028840160208801614080565b01602801949350505050565b6001600160a01b0385811682528416602082015260408101839052608060608201819052600090613d0090830184613b05565b9695505050505050565b60208152600061123d6020830184613acb565b838152826020820152606060408201526000613c4f6060830184613acb565b60208152600061123d6020830184613b05565b606081526000613d626060830186613b05565b8281036020840152613d748186613b05565b90508281036040840152613d008185613b05565b6020808252602a908201527f455243333636343a20696e73756666696369656e742062616c616e636520666f60408201526939103a3930b739b332b960b11b606082015260800190565b6020808252602c908201527f455243333636343a206174747249647320616e6420616d6f756e7473206c656e60408201526b0cee8d040dad2e6dac2e8c6d60a31b606082015260800190565b60208082526032908201527f4552433732313a207472616e7366657220746f206e6f6e20455243373231526560408201527131b2b4bb32b91034b6b83632b6b2b73a32b960711b606082015260800190565b6020808252602d908201527f455243333636343a20746f6b656e20686173206e6f742061747461636865642060408201526c7468652061747472696275746560981b606082015260800190565b60208082526031908201527f4552433732313a207472616e736665722063616c6c6572206973206e6f74206f6040820152701ddb995c881b9bdc88185c1c1c9bdd9959607a1b606082015260800190565b60208082526028908201527f5765623344414f434e3a206d7573742068617665206d696e74657220726f6c65604082015267081d1bc81b5a5b9d60c21b606082015260800190565b604051601f8201601f191681016001600160401b0381118282101715613f7e57613f7e614153565b604052919050565b60006001600160401b03821115613f9f57613f9f614153565b5060051b60200190565b60008219821115613fbc57613fbc614127565b500190565b600082613fd057613fd061413d565b500490565b6000816000190483118215151615613fef57613fef614127565b500290565b60008282101561400657614006614127565b500390565b600061401961357384613f86565b808482526020808301925084368760051b87011115614036578485fd5b845b878110156140745781356001600160401b03811115614055578687fd5b61406136828a01613636565b8652509382019390820190600101614038565b50919695505050505050565b60005b8381101561409b578181015183820152602001614083565b838111156114e15750506000910152565b6000816140bb576140bb614127565b506000190190565b600181811c908216806140d757607f821691505b6020821081141561145457634e487b7160e01b600052602260045260246000fd5b600060001982141561410c5761410c614127565b5060010190565b6000826141225761412261413d565b500690565b634e487b7160e01b600052601160045260246000fd5b634e487b7160e01b600052601260045260246000fd5b634e487b7160e01b600052604160045260246000fd5b6001600160e01b03198116811461119b57600080fdfe9f2df0fed2c77648de5860a4cc508cd0818c85b8b8a1ab4ceeef8d981c8956a6a26469706673582212208cd071e4f8ca1ebf03e13bd79387dd78913fcff50f34964b5564f78424caee4764736f6c63430008040033",
  "linkReferences": {},
  "deployedLinkReferences": {}
}