{
  "_format": "hh-sol-artifact-1",
  "contractName": "Web3DAOCN",
  "sourceName": "contracts/Web3Dao.sol",
  "abi": [
    {
      "inputs": [
        {
          "internalType": "string",
          "name": "uri_",
          "type": "string"
        }
      ],
      "stateMutability": "nonpayable",
      "type": "constructor"
    },
    {
      "anonymous": false,
      "inputs": [
        {
          "indexed": true,
          "internalType": "address",
          "name": "owner",
          "type": "address"
        },
        {
          "indexed": true,
          "internalType": "address",
          "name": "approved",
          "type": "address"
        },
        {
          "indexed": true,
          "internalType": "uint256",
          "name": "tokenId",
          "type": "uint256"
        }
      ],
      "name": "Approval",
      "type": "event"
    },
    {
      "anonymous": false,
      "inputs": [
        {
          "indexed": true,
          "internalType": "address",
          "name": "owner",
          "type": "address"
        },
        {
          "indexed": true,
          "internalType": "address",
          "name": "operator",
          "type": "address"
        },
        {
          "indexed": false,
          "internalType": "bool",
          "name": "approved",
          "type": "bool"
        }
      ],
      "name": "ApprovalForAll",
      "type": "event"
    },
    {
      "anonymous": false,
      "inputs": [
        {
          "indexed": true,
          "internalType": "uint256",
          "name": "attrId",
          "type": "uint256"
        },
        {
          "indexed": false,
          "internalType": "string",
          "name": "name",
          "type": "string"
        },
        {
          "indexed": false,
          "internalType": "string",
          "name": "symbol",
          "type": "string"
        },
        {
          "indexed": false,
          "internalType": "string",
          "name": "uri",
          "type": "string"
        }
      ],
      "name": "AttributeCreated",
      "type": "event"
    },
    {
      "anonymous": false,
      "inputs": [
        {
          "indexed": true,
          "internalType": "bytes32",
          "name": "role",
          "type": "bytes32"
        },
        {
          "indexed": true,
          "internalType": "bytes32",
          "name": "previousAdminRole",
          "type": "bytes32"
        },
        {
          "indexed": true,
          "internalType": "bytes32",
          "name": "newAdminRole",
          "type": "bytes32"
        }
      ],
      "name": "RoleAdminChanged",
      "type": "event"
    },
    {
      "anonymous": false,
      "inputs": [
        {
          "indexed": true,
          "internalType": "bytes32",
          "name": "role",
          "type": "bytes32"
        },
        {
          "indexed": true,
          "internalType": "address",
          "name": "account",
          "type": "address"
        },
        {
          "indexed": true,
          "internalType": "address",
          "name": "sender",
          "type": "address"
        }
      ],
      "name": "RoleGranted",
      "type": "event"
    },
    {
      "anonymous": false,
      "inputs": [
        {
          "indexed": true,
          "internalType": "bytes32",
          "name": "role",
          "type": "bytes32"
        },
        {
          "indexed": true,
          "internalType": "address",
          "name": "account",
          "type": "address"
        },
        {
          "indexed": true,
          "internalType": "address",
          "name": "sender",
          "type": "address"
        }
      ],
      "name": "RoleRevoked",
      "type": "event"
    },
    {
      "anonymous": false,
      "inputs": [
        {
          "indexed": true,
          "internalType": "address",
          "name": "from",
          "type": "address"
        },
        {
          "indexed": true,
          "internalType": "address",
          "name": "to",
          "type": "address"
        },
        {
          "indexed": true,
          "internalType": "uint256",
          "name": "tokenId",
          "type": "uint256"
        }
      ],
      "name": "Transfer",
      "type": "event"
    },
    {
      "anonymous": false,
      "inputs": [
        {
          "indexed": true,
          "internalType": "address",
          "name": "operator",
          "type": "address"
        },
        {
          "indexed": false,
          "internalType": "uint256",
          "name": "from",
          "type": "uint256"
        },
        {
          "indexed": false,
          "internalType": "uint256",
          "name": "to",
          "type": "uint256"
        },
        {
          "indexed": true,
          "internalType": "uint256[]",
          "name": "attrIds",
          "type": "uint256[]"
        },
        {
          "indexed": false,
          "internalType": "uint256[]",
          "name": "values",
          "type": "uint256[]"
        }
      ],
      "name": "TransferBatch",
      "type": "event"
    },
    {
      "anonymous": false,
      "inputs": [
        {
          "indexed": true,
          "internalType": "address",
          "name": "operator",
          "type": "address"
        },
        {
          "indexed": false,
          "internalType": "uint256",
          "name": "from",
          "type": "uint256"
        },
        {
          "indexed": false,
          "internalType": "uint256",
          "name": "to",
          "type": "uint256"
        },
        {
          "indexed": true,
          "internalType": "uint256",
          "name": "attrId",
          "type": "uint256"
        },
        {
          "indexed": false,
          "internalType": "uint256",
          "name": "value",
          "type": "uint256"
        }
      ],
      "name": "TransferSingle",
      "type": "event"
    },
    {
      "inputs": [],
      "name": "DEFAULT_ADMIN_ROLE",
      "outputs": [
        {
          "internalType": "bytes32",
          "name": "",
          "type": "bytes32"
        }
      ],
      "stateMutability": "view",
      "type": "function"
    },
    {
      "inputs": [],
      "name": "MINTER_ROLE",
      "outputs": [
        {
          "internalType": "bytes32",
          "name": "",
          "type": "bytes32"
        }
      ],
      "stateMutability": "view",
      "type": "function"
    },
    {
      "inputs": [
        {
          "internalType": "address",
          "name": "to",
          "type": "address"
        },
        {
          "internalType": "uint256",
          "name": "tokenId",
          "type": "uint256"
        }
      ],
      "name": "approve",
      "outputs": [],
      "stateMutability": "nonpayable",
      "type": "function"
    },
    {
      "inputs": [
        {
          "internalType": "uint256",
          "name": "",
          "type": "uint256"
        },
        {
          "internalType": "uint256",
          "name": "",
          "type": "uint256"
        }
      ],
      "name": "attrBalances",
      "outputs": [
        {
          "internalType": "uint256",
          "name": "",
          "type": "uint256"
        }
      ],
      "stateMutability": "view",
      "type": "function"
    },
    {
      "inputs": [
        {
          "internalType": "uint256",
          "name": "",
          "type": "uint256"
        }
      ],
      "name": "attrTransferAllow",
      "outputs": [
        {
          "internalType": "bool",
          "name": "",
          "type": "bool"
        }
      ],
      "stateMutability": "view",
      "type": "function"
    },
    {
      "inputs": [
        {
          "internalType": "uint256",
          "name": "attrId",
          "type": "uint256"
        }
      ],
      "name": "attrURI",
      "outputs": [
        {
          "internalType": "string",
          "name": "",
          "type": "string"
        }
      ],
      "stateMutability": "view",
      "type": "function"
    },
    {
      "inputs": [
        {
          "internalType": "address",
          "name": "owner",
          "type": "address"
        }
      ],
      "name": "balanceOf",
      "outputs": [
        {
          "internalType": "uint256",
          "name": "",
          "type": "uint256"
        }
      ],
      "stateMutability": "view",
      "type": "function"
    },
    {
      "inputs": [
        {
          "internalType": "uint256",
          "name": "tokenId",
          "type": "uint256"
        },
        {
          "internalType": "uint256",
          "name": "attrId",
          "type": "uint256"
        }
      ],
      "name": "balanceOf",
      "outputs": [
        {
          "internalType": "uint256",
          "name": "",
          "type": "uint256"
        }
      ],
      "stateMutability": "view",
      "type": "function"
    },
    {
      "inputs": [
        {
          "internalType": "uint256",
          "name": "tokenId",
          "type": "uint256"
        },
        {
          "internalType": "uint256[]",
          "name": "attrIds",
          "type": "uint256[]"
        }
      ],
      "name": "balanceOfBatch",
      "outputs": [
        {
          "internalType": "uint256[]",
          "name": "",
          "type": "uint256[]"
        }
      ],
      "stateMutability": "view",
      "type": "function"
    },
    {
      "inputs": [
        {
          "internalType": "uint256",
          "name": "tokenId",
          "type": "uint256"
        },
        {
          "internalType": "uint256",
          "name": "attrId",
          "type": "uint256"
        },
        {
          "internalType": "uint256",
          "name": "amount",
          "type": "uint256"
        }
      ],
      "name": "burn",
      "outputs": [],
      "stateMutability": "nonpayable",
      "type": "function"
    },
    {
      "inputs": [
        {
          "internalType": "uint256",
          "name": "tokenId",
          "type": "uint256"
        },
        {
          "internalType": "uint256[]",
          "name": "attrIds",
          "type": "uint256[]"
        },
        {
          "internalType": "uint256[]",
          "name": "amounts",
          "type": "uint256[]"
        }
      ],
      "name": "burnBatch",
      "outputs": [],
      "stateMutability": "nonpayable",
      "type": "function"
    },
    {
      "inputs": [
        {
          "internalType": "uint256",
          "name": "_attrId",
          "type": "uint256"
        },
        {
          "internalType": "string",
          "name": "_name",
          "type": "string"
        },
        {
          "internalType": "string",
          "name": "_symbol",
          "type": "string"
        },
        {
          "internalType": "uint8",
          "name": "_decimal",
          "type": "uint8"
        },
        {
          "internalType": "string",
          "name": "_uri",
          "type": "string"
        }
      ],
      "name": "create",
      "outputs": [],
      "stateMutability": "nonpayable",
      "type": "function"
    },
    {
      "inputs": [
        {
          "internalType": "uint256[]",
          "name": "attrIds",
          "type": "uint256[]"
        },
        {
          "internalType": "string[]",
          "name": "names",
          "type": "string[]"
        },
        {
          "internalType": "string[]",
          "name": "symbols",
          "type": "string[]"
        },
        {
          "internalType": "uint8[]",
          "name": "decimals",
          "type": "uint8[]"
        },
        {
          "internalType": "string[]",
          "name": "uris",
          "type": "string[]"
        }
      ],
      "name": "createBatch",
      "outputs": [],
      "stateMutability": "nonpayable",
      "type": "function"
    },
    {
      "inputs": [
        {
          "internalType": "uint256",
          "name": "attrId",
          "type": "uint256"
        }
      ],
      "name": "decimal",
      "outputs": [
        {
          "internalType": "uint8",
          "name": "",
          "type": "uint8"
        }
      ],
      "stateMutability": "view",
      "type": "function"
    },
    {
      "inputs": [
        {
          "internalType": "uint256",
          "name": "tokenId",
          "type": "uint256"
        }
      ],
      "name": "getApproved",
      "outputs": [
        {
          "internalType": "address",
          "name": "",
          "type": "address"
        }
      ],
      "stateMutability": "view",
      "type": "function"
    },
    {
      "inputs": [
        {
          "internalType": "bytes32",
          "name": "role",
          "type": "bytes32"
        }
      ],
      "name": "getRoleAdmin",
      "outputs": [
        {
          "internalType": "bytes32",
          "name": "",
          "type": "bytes32"
        }
      ],
      "stateMutability": "view",
      "type": "function"
    },
    {
      "inputs": [
        {
          "internalType": "bytes32",
          "name": "role",
          "type": "bytes32"
        },
        {
          "internalType": "uint256",
          "name": "index",
          "type": "uint256"
        }
      ],
      "name": "getRoleMember",
      "outputs": [
        {
          "internalType": "address",
          "name": "",
          "type": "address"
        }
      ],
      "stateMutability": "view",
      "type": "function"
    },
    {
      "inputs": [
        {
          "internalType": "bytes32",
          "name": "role",
          "type": "bytes32"
        }
      ],
      "name": "getRoleMemberCount",
      "outputs": [
        {
          "internalType": "uint256",
          "name": "",
          "type": "uint256"
        }
      ],
      "stateMutability": "view",
      "type": "function"
    },
    {
      "inputs": [
        {
          "internalType": "bytes32",
          "name": "role",
          "type": "bytes32"
        },
        {
          "internalType": "address",
          "name": "account",
          "type": "address"
        }
      ],
      "name": "grantRole",
      "outputs": [],
      "stateMutability": "nonpayable",
      "type": "function"
    },
    {
      "inputs": [
        {
          "internalType": "bytes32",
          "name": "role",
          "type": "bytes32"
        },
        {
          "internalType": "address",
          "name": "account",
          "type": "address"
        }
      ],
      "name": "hasRole",
      "outputs": [
        {
          "internalType": "bool",
          "name": "",
          "type": "bool"
        }
      ],
      "stateMutability": "view",
      "type": "function"
    },
    {
      "inputs": [
        {
          "internalType": "address",
          "name": "owner",
          "type": "address"
        },
        {
          "internalType": "address",
          "name": "operator",
          "type": "address"
        }
      ],
      "name": "isApprovedForAll",
      "outputs": [
        {
          "internalType": "bool",
          "name": "",
          "type": "bool"
        }
      ],
      "stateMutability": "view",
      "type": "function"
    },
    {
      "inputs": [
        {
          "internalType": "uint256",
          "name": "tokenId",
          "type": "uint256"
        },
        {
          "internalType": "uint256",
          "name": "attrId",
          "type": "uint256"
        },
        {
          "internalType": "uint256",
          "name": "amount",
          "type": "uint256"
        }
      ],
      "name": "mint",
      "outputs": [],
      "stateMutability": "nonpayable",
      "type": "function"
    },
    {
      "inputs": [
        {
          "internalType": "address",
          "name": "to",
          "type": "address"
        }
      ],
      "name": "mint",
      "outputs": [],
      "stateMutability": "nonpayable",
      "type": "function"
    },
    {
      "inputs": [
        {
          "internalType": "uint256",
          "name": "tokenId",
          "type": "uint256"
        },
        {
          "internalType": "uint256[]",
          "name": "attrIds",
          "type": "uint256[]"
        },
        {
          "internalType": "uint256[]",
          "name": "amounts",
          "type": "uint256[]"
        }
      ],
      "name": "mintBatch",
      "outputs": [],
      "stateMutability": "nonpayable",
      "type": "function"
    },
    {
      "inputs": [
        {
          "internalType": "uint256",
          "name": "attrId",
          "type": "uint256"
        }
      ],
      "name": "name",
      "outputs": [
        {
          "internalType": "string",
          "name": "",
          "type": "string"
        }
      ],
      "stateMutability": "view",
      "type": "function"
    },
    {
      "inputs": [],
      "name": "name",
      "outputs": [
        {
          "internalType": "string",
          "name": "",
          "type": "string"
        }
      ],
      "stateMutability": "view",
      "type": "function"
    },
    {
      "inputs": [
        {
          "internalType": "uint256",
          "name": "tokenId",
          "type": "uint256"
        }
      ],
      "name": "ownerOf",
      "outputs": [
        {
          "internalType": "address",
          "name": "",
          "type": "address"
        }
      ],
      "stateMutability": "view",
      "type": "function"
    },
    {
      "inputs": [
        {
          "internalType": "uint256",
          "name": "tokenId",
          "type": "uint256"
        }
      ],
      "name": "primaryAttributeOf",
      "outputs": [
        {
          "internalType": "uint256",
          "name": "",
          "type": "uint256"
        }
      ],
      "stateMutability": "view",
      "type": "function"
    },
    {
      "inputs": [
        {
          "internalType": "bytes32",
          "name": "role",
          "type": "bytes32"
        },
        {
          "internalType": "address",
          "name": "account",
          "type": "address"
        }
      ],
      "name": "renounceRole",
      "outputs": [],
      "stateMutability": "nonpayable",
      "type": "function"
    },
    {
      "inputs": [
        {
          "internalType": "bytes32",
          "name": "role",
          "type": "bytes32"
        },
        {
          "internalType": "address",
          "name": "account",
          "type": "address"
        }
      ],
      "name": "revokeRole",
      "outputs": [],
      "stateMutability": "nonpayable",
      "type": "function"
    },
    {
      "inputs": [
        {
          "internalType": "address",
          "name": "from",
          "type": "address"
        },
        {
          "internalType": "address",
          "name": "to",
          "type": "address"
        },
        {
          "internalType": "uint256",
          "name": "tokenId",
          "type": "uint256"
        }
      ],
      "name": "safeTransferFrom",
      "outputs": [],
      "stateMutability": "nonpayable",
      "type": "function"
    },
    {
      "inputs": [
        {
          "internalType": "address",
          "name": "from",
          "type": "address"
        },
        {
          "internalType": "address",
          "name": "to",
          "type": "address"
        },
        {
          "internalType": "uint256",
          "name": "tokenId",
          "type": "uint256"
        },
        {
          "internalType": "bytes",
          "name": "_data",
          "type": "bytes"
        }
      ],
      "name": "safeTransferFrom",
      "outputs": [],
      "stateMutability": "nonpayable",
      "type": "function"
    },
    {
      "inputs": [
        {
          "internalType": "address",
          "name": "operator",
          "type": "address"
        },
        {
          "internalType": "bool",
          "name": "approved",
          "type": "bool"
        }
      ],
      "name": "setApprovalForAll",
      "outputs": [],
      "stateMutability": "nonpayable",
      "type": "function"
    },
    {
      "inputs": [
        {
          "internalType": "uint256",
          "name": "attrId",
          "type": "uint256"
        },
        {
          "internalType": "bool",
          "name": "allow",
          "type": "bool"
        }
      ],
      "name": "setAttrTransferAllow",
      "outputs": [],
      "stateMutability": "nonpayable",
      "type": "function"
    },
    {
      "inputs": [
        {
          "internalType": "uint256",
          "name": "tokenId",
          "type": "uint256"
        },
        {
          "internalType": "uint256",
          "name": "attrId",
          "type": "uint256"
        }
      ],
      "name": "setPrimaryAttribute",
      "outputs": [],
      "stateMutability": "nonpayable",
      "type": "function"
    },
    {
      "inputs": [
        {
          "internalType": "bytes4",
          "name": "interfaceId",
          "type": "bytes4"
        }
      ],
      "name": "supportsInterface",
      "outputs": [
        {
          "internalType": "bool",
          "name": "",
          "type": "bool"
        }
      ],
      "stateMutability": "view",
      "type": "function"
    },
    {
      "inputs": [
        {
          "internalType": "uint256",
          "name": "attrId",
          "type": "uint256"
        }
      ],
      "name": "symbol",
      "outputs": [
        {
          "internalType": "string",
          "name": "",
          "type": "string"
        }
      ],
      "stateMutability": "view",
      "type": "function"
    },
    {
      "inputs": [],
      "name": "symbol",
      "outputs": [
        {
          "internalType": "string",
          "name": "",
          "type": "string"
        }
      ],
      "stateMutability": "view",
      "type": "function"
    },
    {
      "inputs": [
        {
          "internalType": "uint256",
          "name": "index",
          "type": "uint256"
        }
      ],
      "name": "tokenByIndex",
      "outputs": [
        {
          "internalType": "uint256",
          "name": "",
          "type": "uint256"
        }
      ],
      "stateMutability": "view",
      "type": "function"
    },
    {
      "inputs": [
        {
          "internalType": "address",
          "name": "owner",
          "type": "address"
        },
        {
          "internalType": "uint256",
          "name": "index",
          "type": "uint256"
        }
      ],
      "name": "tokenOfOwnerByIndex",
      "outputs": [
        {
          "internalType": "uint256",
          "name": "",
          "type": "uint256"
        }
      ],
      "stateMutability": "view",
      "type": "function"
    },
    {
      "inputs": [
        {
          "internalType": "uint256",
          "name": "tokenId",
          "type": "uint256"
        }
      ],
      "name": "tokenURI",
      "outputs": [
        {
          "internalType": "string",
          "name": "",
          "type": "string"
        }
      ],
      "stateMutability": "view",
      "type": "function"
    },
    {
      "inputs": [],
      "name": "totalSupply",
      "outputs": [
        {
          "internalType": "uint256",
          "name": "",
          "type": "uint256"
        }
      ],
      "stateMutability": "view",
      "type": "function"
    },
    {
      "inputs": [
        {
          "internalType": "address",
          "name": "from",
          "type": "address"
        },
        {
          "internalType": "address",
          "name": "to",
          "type": "address"
        },
        {
          "internalType": "uint256",
          "name": "tokenId",
          "type": "uint256"
        }
      ],
      "name": "transferFrom",
      "outputs": [],
      "stateMutability": "nonpayable",
      "type": "function"
    }
  ],
  "bytecode": "0x60806040523480156200001157600080fd5b50604051620041d2380380620041d283398101604081905262000034916200031e565b6040518060400160405280600f81526020016e15d9588cc8111053c810d388139195608a1b81525060405180604001604052806005815260200164574542c2b360d81b815250826200008c816200010060201b60201c565b508151620000a290600490602085019062000278565b508051620000b890600590602084019062000278565b50506001600e5550620000cd60003362000119565b620000f97f9f2df0fed2c77648de5860a4cc508cd0818c85b8b8a1ab4ceeef8d981c8956a63362000119565b5062000447565b80516200011590600090602084019062000278565b5050565b6200011582826200013682826200016260201b620015131760201c565b60008281526010602090815260409091206200015d9183906200159962000206821b17901c565b505050565b6000828152600f602090815260408083206001600160a01b038516845290915290205460ff1662000115576000828152600f602090815260408083206001600160a01b03851684529091529020805460ff19166001179055620001c23390565b6001600160a01b0316816001600160a01b0316837f2f8788117e7eff1d82e926ec794901d17c78024a50270940304540a733656f0d60405160405180910390a45050565b60006200021d836001600160a01b03841662000226565b90505b92915050565b60008181526001830160205260408120546200026f5750815460018181018455600084815260208082209093018490558454848252828601909352604090209190915562000220565b50600062000220565b8280546200028690620003f4565b90600052602060002090601f016020900481019282620002aa5760008555620002f5565b82601f10620002c557805160ff1916838001178555620002f5565b82800160010185558215620002f5579182015b82811115620002f5578251825591602001919060010190620002d8565b506200030392915062000307565b5090565b5b8082111562000303576000815560010162000308565b6000602080838503121562000331578182fd5b82516001600160401b038082111562000348578384fd5b818501915085601f8301126200035c578384fd5b81518181111562000371576200037162000431565b604051601f8201601f19908116603f011681019083821181831017156200039c576200039c62000431565b816040528281528886848701011115620003b4578687fd5b8693505b82841015620003d75784840186015181850187015292850192620003b8565b82841115620003e857868684830101525b98975050505050505050565b600181811c908216806200040957607f821691505b602082108114156200042b57634e487b7160e01b600052602260045260246000fd5b50919050565b634e487b7160e01b600052604160045260246000fd5b613d7b80620004576000396000f3fe608060405234801561001057600080fd5b50600436106102685760003560e01c806370a0823111610151578063c87b56dd116100c3578063e829ffa111610087578063e829ffa114610586578063e985e9c5146105b1578063ea699633146105ed578063f030ba6314610617578063f03774571461062a578063f371efa41461063d57600080fd5b8063c87b56dd14610525578063ca15c87314610538578063cd2e2c241461054b578063d53913931461055e578063d547741f1461057357600080fd5b806391d148541161011557806391d14854146104c957806395d89b41146104dc5780639bc5ae54146104e4578063a217fddf146104f7578063a22cb465146104ff578063b88d4fde1461051257600080fd5b806370a082311461044d57806378cc520d1461046057806387e21d42146104835780639010d07c146104a357806391a2c83c146104b657600080fd5b8063248a9ca3116101ea57806342842e0e116101ae57806342842e0e146103ce5780634e41a1fb146103e15780634f6ccce7146103f45780635d126110146104075780636352211e146104275780636a6278421461043a57600080fd5b8063248a9ca31461035f5780632f2ff15d146103825780632f745c591461039557806336568abe146103a857806336cca0be146103bb57600080fd5b8063081812fc11610231578063081812fc146102e9578063095ea7b3146103145780631070717b1461032757806318160ddd1461033a57806323b872dd1461034c57600080fd5b8062ad800c1461026d57806301ffc9a71461029657806302acc94b146102b957806305a10028146102ce57806306fdde03146102e1575b600080fd5b61028061027b366004613441565b610662565b60405161028d91906138e2565b60405180910390f35b6102a96102a436600461349c565b61077f565b604051901515815260200161028d565b6102cc6102c7366004613646565b610790565b005b6102cc6102dc366004613646565b6107d4565b610280610813565b6102fc6102f7366004613441565b6108a5565b6040516001600160a01b03909116815260200161028d565b6102cc610322366004613334565b61093a565b6102cc61033536600461347b565b610a4b565b600c545b60405190815260200161028d565b6102cc61035a366004613258565b610a93565b61033e61036d366004613441565b6000908152600f602052604090206001015490565b6102cc610390366004613459565b610ac4565b61033e6103a3366004613334565b610aea565b6102cc6103b6366004613459565b610b80565b6102cc6103c93660046135a8565b610bfe565b6102cc6103dc366004613258565b610c46565b6102806103ef366004613441565b610c61565b61033e610402366004613441565b610cfa565b61041a6104153660046134d4565b610d9b565b60405161028d91906138b0565b6102fc610435366004613441565b610e87565b6102cc61044836600461320c565b610efe565b61033e61045b36600461320c565b610f55565b6102a961046e366004613441565b60126020526000908152604090205460ff1681565b61033e610491366004613441565b60009081526003602052604090205490565b6102fc6104b136600461347b565b610fdc565b6102cc6104c436600461351d565b610ffb565b6102a96104d7366004613459565b61103a565b610280611065565b6102806104f2366004613441565b611074565b61033e600081565b6102cc61050d36600461330b565b611211565b6102cc610520366004613293565b61121c565b610280610533366004613441565b611254565b61033e610546366004613441565b611314565b6102cc61055936600461335d565b61132b565b61033e600080516020613d2683398151915281565b6102cc610581366004613459565b6113c7565b61033e61059436600461347b565b600260209081526000928352604080842090915290825290205481565b6102a96105bf366004613226565b6001600160a01b03918216600090815260096020908152604080832093909416825291909152205460ff1690565b61033e6105fb36600461347b565b6000908152600260209081526040808320938352929052205490565b6102cc61062536600461351d565b6113ed565b6102cc610638366004613586565b61142c565b61065061064b366004613441565b611480565b60405160ff909116815260200161028d565b60008181526001602052604090206004015460609060ff166106e15760405162461bcd60e51b815260206004820152602d60248201527f455243333636343a206e616d6520717565727920666f72206e6f6e657869737460448201526c656e742061747472696275746560981b60648201526084015b60405180910390fd5b600082815260016020526040902080546106fa90613c69565b80601f016020809104026020016040519081016040528092919081815260200182805461072690613c69565b80156107735780601f1061074857610100808354040283529160200191610773565b820191906000526020600020905b81548152906001019060200180831161075657829003601f168201915b50505050509050919050565b600061078a826115ae565b92915050565b6107a8600080516020613d268339815191523361103a565b6107c45760405162461bcd60e51b81526004016106d890613ab4565b6107cf8383836115d3565b505050565b6107ec600080516020613d268339815191523361103a565b6108085760405162461bcd60e51b81526004016106d890613ab4565b6107cf838383611721565b60606004805461082290613c69565b80601f016020809104026020016040519081016040528092919081815260200182805461084e90613c69565b801561089b5780601f106108705761010080835404028352916020019161089b565b820191906000526020600020905b81548152906001019060200180831161087e57829003601f168201915b5050505050905090565b6000818152600660205260408120546001600160a01b031661091e5760405162461bcd60e51b815260206004820152602c60248201527f4552433732313a20617070726f76656420717565727920666f72206e6f6e657860448201526b34b9ba32b73a103a37b5b2b760a11b60648201526084016106d8565b506000908152600860205260409020546001600160a01b031690565b600061094582610e87565b9050806001600160a01b0316836001600160a01b031614156109b35760405162461bcd60e51b815260206004820152602160248201527f4552433732313a20617070726f76616c20746f2063757272656e74206f776e656044820152603960f91b60648201526084016106d8565b336001600160a01b03821614806109cf57506109cf81336105bf565b610a415760405162461bcd60e51b815260206004820152603860248201527f4552433732313a20617070726f76652063616c6c6572206973206e6f74206f7760448201527f6e6572206e6f7220617070726f76656420666f7220616c6c000000000000000060648201526084016106d8565b6107cf838361189f565b6000818152600260209081526040808320858452909152902054610a815760405162461bcd60e51b81526004016106d890613a16565b60009182526003602052604090912055565b610a9d338261190d565b610ab95760405162461bcd60e51b81526004016106d890613a63565b6107cf838383611a04565b6000828152600f6020526040902060010154610ae08133611baf565b6107cf8383611c13565b6000610af583610f55565b8210610b575760405162461bcd60e51b815260206004820152602b60248201527f455243373231456e756d657261626c653a206f776e657220696e646578206f7560448201526a74206f6620626f756e647360a81b60648201526084016106d8565b506001600160a01b03919091166000908152600a60209081526040808320938352929052205490565b6001600160a01b0381163314610bf05760405162461bcd60e51b815260206004820152602f60248201527f416363657373436f6e74726f6c3a2063616e206f6e6c792072656e6f756e636560448201526e103937b632b9903337b91039b2b63360891b60648201526084016106d8565b610bfa8282611c35565b5050565b610c16600080516020613d268339815191523361103a565b610c325760405162461bcd60e51b81526004016106d890613ab4565b610c3f8585858585611c57565b5050505050565b6107cf8383836040518060200160405280600081525061121c565b60008181526001602052604090206004015460609060ff16610cdd5760405162461bcd60e51b815260206004820152602f60248201527f455243333636343a2073796d626f6c20717565727920666f72206e6f6e65786960448201526e7374656e742061747472696275746560881b60648201526084016106d8565b60008281526001602081905260409091200180546106fa90613c69565b6000610d05600c5490565b8210610d685760405162461bcd60e51b815260206004820152602c60248201527f455243373231456e756d657261626c653a20676c6f62616c20696e646578206f60448201526b7574206f6620626f756e647360a01b60648201526084016106d8565b600c8281548110610d8957634e487b7160e01b600052603260045260246000fd5b90600052602060002001549050919050565b60606000826001600160401b03811115610dc557634e487b7160e01b600052604160045260246000fd5b604051908082528060200260200182016040528015610dee578160200160208202803683370190505b50905060005b83811015610e7e57610e4386868684818110610e2057634e487b7160e01b600052603260045260246000fd5b905060200201356000908152600260209081526040808320938352929052205490565b828281518110610e6357634e487b7160e01b600052603260045260246000fd5b6020908102919091010152610e7781613c9e565b9050610df4565b50949350505050565b6000818152600660205260408120546001600160a01b03168061078a5760405162461bcd60e51b815260206004820152602960248201527f4552433732313a206f776e657220717565727920666f72206e6f6e657869737460448201526832b73a103a37b5b2b760b91b60648201526084016106d8565b610f16600080516020613d268339815191523361103a565b610f325760405162461bcd60e51b81526004016106d890613ab4565b610f40601180546001019055565b610f5281610f4d60115490565b611dc2565b50565b60006001600160a01b038216610fc05760405162461bcd60e51b815260206004820152602a60248201527f4552433732313a2062616c616e636520717565727920666f7220746865207a65604482015269726f206164647265737360b01b60648201526084016106d8565b506001600160a01b031660009081526007602052604090205490565b6000828152601060205260408120610ff49083611f10565b9392505050565b611013600080516020613d268339815191523361103a565b61102f5760405162461bcd60e51b81526004016106d890613ab4565b6107cf838383611f1c565b6000918252600f602090815260408084206001600160a01b0393909316845291905290205460ff1690565b60606005805461082290613c69565b60008181526001602052604090206004015460609060ff166110ed5760405162461bcd60e51b815260206004820152602c60248201527f455243333636343a2055524920717565727920666f72206e6f6e65786973746560448201526b6e742061747472696275746560a01b60648201526084016106d8565b6000828152600160205260408120600301805461110990613c69565b80601f016020809104026020016040519081016040528092919081815260200182805461113590613c69565b80156111825780601f1061115757610100808354040283529160200191611182565b820191906000526020600020905b81548152906001019060200180831161116557829003601f168201915b505050505090506000815111156111c5578061119d84612138565b6040516020016111ae929190613729565b604051602081830303815290604052915050919050565b60008080546111d390613c69565b9050116111ef5760405180602001604052806000815250610ff4565b60006111fa84612138565b6040516020016111ae929190613758565b50919050565b610bfa338383612251565b611226338361190d565b6112425760405162461bcd60e51b81526004016106d890613a63565b61124e84848484612320565b50505050565b6000818152600660205260409020546060906001600160a01b03166112d35760405162461bcd60e51b815260206004820152602f60248201527f4552433732314d657461646174613a2055524920717565727920666f72206e6f60448201526e3732bc34b9ba32b73a103a37b5b2b760891b60648201526084016106d8565b60006112ea60408051602081019091526000815290565b9050600081511161130a5760405180602001604052806000815250610ff4565b8061119d84612138565b600081815260106020526040812061078a90612353565b611343600080516020613d268339815191523361103a565b61135f5760405162461bcd60e51b81526004016106d890613ab4565b6113bc8989808060200260200160405190810160405280939291908181526020018383602002808284376000920191909152506113a292508a91508b9050613bb1565b6113ac8789613bb1565b866113b78688613bb1565b61235d565b505050505050505050565b6000828152600f60205260409020600101546113e38133611baf565b6107cf8383611c35565b611405600080516020613d268339815191523361103a565b6114215760405162461bcd60e51b81526004016106d890613ab4565b6107cf83838361257e565b611444600080516020613d268339815191523361103a565b6114605760405162461bcd60e51b81526004016106d890613ab4565b600091825260126020526040909120805460ff1916911515919091179055565b60008181526001602052604081206004015460ff166114fa5760405162461bcd60e51b815260206004820152603060248201527f455243333636343a20646563696d616c20717565727920666f72206e6f6e657860448201526f697374656e742061747472696275746560801b60648201526084016106d8565b5060009081526001602052604090206002015460ff1690565b61151d828261103a565b610bfa576000828152600f602090815260408083206001600160a01b03851684529091529020805460ff191660011790556115553390565b6001600160a01b0316816001600160a01b0316837f2f8788117e7eff1d82e926ec794901d17c78024a50270940304540a733656f0d60405160405180910390a45050565b6000610ff4836001600160a01b0384166126c2565b60006001600160e01b03198216635a05180f60e01b148061078a575061078a82612711565b60008281526001602052604090206004015460ff166116445760405162461bcd60e51b815260206004820152602760248201527f455243333636343a206d696e7420666f72206e6f6e6578697374656e742061746044820152667472696275746560c81b60648201526084016106d8565b600082815260026020908152604080832086845290915290205461167a5760405162461bcd60e51b81526004016106d890613a16565b600033905061169d81600086868660405180602001604052806000815250612736565b6000838152600260209081526040808320878452909152812080548492906116c6908490613b4f565b909155505060408051600081526020810186905290810183905283906001600160a01b038316907f73b5fbfbf0177b0de2ffe9fd0ae9887dd73d0d865db7ab5ff3c4a6b9bb8db1e3906060015b60405180910390a350505050565b60008281526001602052604090206004015460ff166117925760405162461bcd60e51b815260206004820152602760248201527f455243333636343a206275726e20666f72206e6f6e6578697374656e742061746044820152667472696275746560c81b60648201526084016106d8565b60008281526002602090815260408083208684529091529020546117c85760405162461bcd60e51b81526004016106d890613a16565b60003390506117eb81856000868660405180602001604052806000815250612736565b6000838152600260209081526040808320878452909152902054828110156118255760405162461bcd60e51b81526004016106d89061392e565b61182f8382613b9a565b600085815260026020908152604080832089845282528083209390935582518881529081019190915290810184905284906001600160a01b038416907f73b5fbfbf0177b0de2ffe9fd0ae9887dd73d0d865db7ab5ff3c4a6b9bb8db1e39060600160405180910390a35050505050565b600081815260086020526040902080546001600160a01b0319166001600160a01b03841690811790915581906118d482610e87565b6001600160a01b03167f8c5be1e5ebec7d5bd14f71427d1e84f3dd0314c0f7b2291e5b200ac8c7c3b92560405160405180910390a45050565b6000818152600660205260408120546001600160a01b03166119865760405162461bcd60e51b815260206004820152602c60248201527f4552433732313a206f70657261746f7220717565727920666f72206e6f6e657860448201526b34b9ba32b73a103a37b5b2b760a11b60648201526084016106d8565b600061199183610e87565b9050806001600160a01b0316846001600160a01b031614806119cc5750836001600160a01b03166119c1846108a5565b6001600160a01b0316145b806119fc57506001600160a01b0380821660009081526009602090815260408083209388168352929052205460ff165b949350505050565b826001600160a01b0316611a1782610e87565b6001600160a01b031614611a7f5760405162461bcd60e51b815260206004820152602960248201527f4552433732313a207472616e73666572206f6620746f6b656e2074686174206960448201526839903737ba1037bbb760b91b60648201526084016106d8565b6001600160a01b038216611ae15760405162461bcd60e51b8152602060048201526024808201527f4552433732313a207472616e7366657220746f20746865207a65726f206164646044820152637265737360e01b60648201526084016106d8565b611aec8383836127c3565b611af760008261189f565b6001600160a01b0383166000908152600760205260408120805460019290611b20908490613b9a565b90915550506001600160a01b0382166000908152600760205260408120805460019290611b4e908490613b4f565b909155505060008181526006602052604080822080546001600160a01b0319166001600160a01b0386811691821790925591518493918716917fddf252ad1be2c89b69c2b068fc378daa952ba7f163c4a11628f55a4df523b3ef91a4505050565b611bb9828261103a565b610bfa57611bd1816001600160a01b0316601461287b565b611bdc83602061287b565b604051602001611bed9291906137fe565b60408051601f198184030181529082905262461bcd60e51b82526106d8916004016138e2565b611c1d8282611513565b60008281526010602052604090206107cf9082611599565b611c3f8282612a5c565b60008281526010602052604090206107cf9082612ac3565b60008581526001602052604090206004015460ff1615611cc35760405162461bcd60e51b815260206004820152602160248201527f455243333636343a2061747472696275746520616c72656164792065786973746044820152607360f81b60648201526084016106d8565b6040805160a081018252858152602080820186905260ff851682840152606082018490526001608083018190526000898152908252929092208151805192938493611d119284920190612fa4565b506020828101518051611d2a9260018501920190612fa4565b50604082015160028201805460ff191660ff90921691909117905560608201518051611d60916003840191602090910190612fa4565b50608091909101516004909101805460ff191691151591909117905560405186907fe3c3c9bbda1d6ccb059320eed92d395bd49272efb8a675a188a9d1b4e4da4ce290611db2908890889087906138f5565b60405180910390a2505050505050565b6001600160a01b038216611e185760405162461bcd60e51b815260206004820181905260248201527f4552433732313a206d696e7420746f20746865207a65726f206164647265737360448201526064016106d8565b6000818152600660205260409020546001600160a01b031615611e7d5760405162461bcd60e51b815260206004820152601c60248201527f4552433732313a20746f6b656e20616c7265616479206d696e7465640000000060448201526064016106d8565b611e89600083836127c3565b6001600160a01b0382166000908152600760205260408120805460019290611eb2908490613b4f565b909155505060008181526006602052604080822080546001600160a01b0319166001600160a01b03861690811790915590518392907fddf252ad1be2c89b69c2b068fc378daa952ba7f163c4a11628f55a4df523b3ef908290a45050565b6000610ff48383612ad8565b8051825114611f3d5760405162461bcd60e51b81526004016106d890613978565b3360005b83518110156120e357611fb682866000878581518110611f7157634e487b7160e01b600052603260045260246000fd5b6020026020010151878681518110611f9957634e487b7160e01b600052603260045260246000fd5b602002602001015160405180602001604052806000815250612736565b600060026000868481518110611fdc57634e487b7160e01b600052603260045260246000fd5b60200260200101518152602001908152602001600020600087815260200190815260200160002054905083828151811061202657634e487b7160e01b600052603260045260246000fd5b602002602001015181101561204d5760405162461bcd60e51b81526004016106d89061392e565b83828151811061206d57634e487b7160e01b600052603260045260246000fd5b6020026020010151816120809190613b9a565b600260008785815181106120a457634e487b7160e01b600052603260045260246000fd5b602002602001015181526020019081526020016000206000888152602001908152602001600020819055505080806120db90613c9e565b915050611f41565b50826040516120f291906136f3565b6040518091039020816001600160a01b03167fbfb4d8e5891aebe97980c97616b6b0af2006a58ccabe6e1b7e3da24d0906a85686600086604051611713939291906138c3565b60608161215c5750506040805180820190915260018152600360fc1b602082015290565b8160005b8115612186578061217081613c9e565b915061217f9050600a83613b67565b9150612160565b6000816001600160401b038111156121ae57634e487b7160e01b600052604160045260246000fd5b6040519080825280601f01601f1916602001820160405280156121d8576020820181803683370190505b5090505b84156119fc576121ed600183613b9a565b91506121fa600a86613cb9565b612205906030613b4f565b60f81b81838151811061222857634e487b7160e01b600052603260045260246000fd5b60200101906001600160f81b031916908160001a90535061224a600a86613b67565b94506121dc565b816001600160a01b0316836001600160a01b031614156122b35760405162461bcd60e51b815260206004820152601960248201527f4552433732313a20617070726f766520746f2063616c6c65720000000000000060448201526064016106d8565b6001600160a01b03838116600081815260096020908152604080832094871680845294825291829020805460ff191686151590811790915591519182527f17307eab39ab6107e8899845ad3d59bd9653f200f220920489ca2b5937696c31910160405180910390a3505050565b61232b848484611a04565b61233784848484612b10565b61124e5760405162461bcd60e51b81526004016106d8906139c4565b600061078a825490565b83518551146123c15760405162461bcd60e51b815260206004820152602a60248201527f455243333636343a206174747249647320616e64206e616d6573206c656e67746044820152690d040dad2e6dac2e8c6d60b31b60648201526084016106d8565b82518451146124255760405162461bcd60e51b815260206004820152602a60248201527f455243333636343a206e616d657320616e642073796d626f6c73206c656e67746044820152690d040dad2e6dac2e8c6d60b31b60648201526084016106d8565b80518351146124885760405162461bcd60e51b815260206004820152602960248201527f455243333636343a2073796d626f6c7320616e642075726973206c656e677468604482015268040dad2e6dac2e8c6d60bb1b60648201526084016106d8565b60005b8551811015612576576125648682815181106124b757634e487b7160e01b600052603260045260246000fd5b60200260200101518683815181106124df57634e487b7160e01b600052603260045260246000fd5b602002602001015186848151811061250757634e487b7160e01b600052603260045260246000fd5b602002602001015186858151811061252f57634e487b7160e01b600052603260045260246000fd5b602002602001015186868151811061255757634e487b7160e01b600052603260045260246000fd5b6020026020010151611c57565b8061256e81613c9e565b91505061248b565b505050505050565b805182511461259f5760405162461bcd60e51b81526004016106d890613978565b3360005b835181101561266d576125d382866000878581518110611f7157634e487b7160e01b600052603260045260246000fd5b8281815181106125f357634e487b7160e01b600052603260045260246000fd5b60200260200101516002600086848151811061261f57634e487b7160e01b600052603260045260246000fd5b60200260200101518152602001908152602001600020600087815260200190815260200160002060008282546126559190613b4f565b9091555081905061266581613c9e565b9150506125a3565b508260405161267c91906136f3565b6040518091039020816001600160a01b03167fbfb4d8e5891aebe97980c97616b6b0af2006a58ccabe6e1b7e3da24d0906a85660008786604051611713939291906138c3565b60008181526001830160205260408120546127095750815460018181018455600084815260208082209093018490558454848252828601909352604090209190915561078a565b50600061078a565b60006001600160e01b03198216637965db0b60e01b148061078a575061078a82612c1d565b61274e600080516020613d268339815191528761103a565b80612767575060008381526012602052604090205460ff165b6127be5760405162461bcd60e51b815260206004820152602260248201527f5765623344414f434e3a2041747472207472616e73666572206e6f7420616c6c6044820152616f7760f01b60648201526084016106d8565b612576565b6001600160a01b03831661281e5761281981600c80546000838152600d60205260408120829055600182018355919091527fdf6966c971051c3d54ec59162606531493a51404a002842f56009d7e5cf4a8c70155565b612841565b816001600160a01b0316836001600160a01b031614612841576128418382612c42565b6001600160a01b038216612858576107cf81612cdf565b826001600160a01b0316826001600160a01b0316146107cf576107cf8282612db8565b6060600061288a836002613b7b565b612895906002613b4f565b6001600160401b038111156128ba57634e487b7160e01b600052604160045260246000fd5b6040519080825280601f01601f1916602001820160405280156128e4576020820181803683370190505b509050600360fc1b8160008151811061290d57634e487b7160e01b600052603260045260246000fd5b60200101906001600160f81b031916908160001a905350600f60fb1b8160018151811061294a57634e487b7160e01b600052603260045260246000fd5b60200101906001600160f81b031916908160001a905350600061296e846002613b7b565b612979906001613b4f565b90505b6001811115612a0d576f181899199a1a9b1b9c1cb0b131b232b360811b85600f16601081106129bb57634e487b7160e01b600052603260045260246000fd5b1a60f81b8282815181106129df57634e487b7160e01b600052603260045260246000fd5b60200101906001600160f81b031916908160001a90535060049490941c93612a0681613c52565b905061297c565b508315610ff45760405162461bcd60e51b815260206004820181905260248201527f537472696e67733a20686578206c656e67746820696e73756666696369656e7460448201526064016106d8565b612a66828261103a565b15610bfa576000828152600f602090815260408083206001600160a01b0385168085529252808320805460ff1916905551339285917ff6391f5c32d9c69d2a47ea670b442974b53935d1edc7fd64eb21e047a839171b9190a45050565b6000610ff4836001600160a01b038416612dfc565b6000826000018281548110612afd57634e487b7160e01b600052603260045260246000fd5b9060005260206000200154905092915050565b60006001600160a01b0384163b15612c1257604051630a85bd0160e11b81526001600160a01b0385169063150b7a0290612b54903390899088908890600401613873565b602060405180830381600087803b158015612b6e57600080fd5b505af1925050508015612b9e575060408051601f3d908101601f19168201909252612b9b918101906134b8565b60015b612bf8573d808015612bcc576040519150601f19603f3d011682016040523d82523d6000602084013e612bd1565b606091505b508051612bf05760405162461bcd60e51b81526004016106d8906139c4565b805181602001fd5b6001600160e01b031916630a85bd0160e11b1490506119fc565b506001949350505050565b60006001600160e01b0319821663780e9d6360e01b148061078a575061078a82612f19565b60006001612c4f84610f55565b612c599190613b9a565b6000838152600b6020526040902054909150808214612cac576001600160a01b0384166000908152600a602090815260408083208584528252808320548484528184208190558352600b90915290208190555b506000918252600b602090815260408084208490556001600160a01b039094168352600a81528383209183525290812055565b600c54600090612cf190600190613b9a565b6000838152600d6020526040812054600c8054939450909284908110612d2757634e487b7160e01b600052603260045260246000fd5b9060005260206000200154905080600c8381548110612d5657634e487b7160e01b600052603260045260246000fd5b6000918252602080832090910192909255828152600d9091526040808220849055858252812055600c805480612d9c57634e487b7160e01b600052603160045260246000fd5b6001900381819060005260206000200160009055905550505050565b6000612dc383610f55565b6001600160a01b039093166000908152600a602090815260408083208684528252808320859055938252600b9052919091209190915550565b60008181526001830160205260408120548015612f0f576000612e20600183613b9a565b8554909150600090612e3490600190613b9a565b9050818114612eb5576000866000018281548110612e6257634e487b7160e01b600052603260045260246000fd5b9060005260206000200154905080876000018481548110612e9357634e487b7160e01b600052603260045260246000fd5b6000918252602080832090910192909255918252600188019052604090208390555b8554869080612ed457634e487b7160e01b600052603160045260246000fd5b60019003818190600052602060002001600090559055856001016000868152602001908152602001600020600090556001935050505061078a565b600091505061078a565b60006001600160e01b031982166380ac58cd60e01b1480612f4a57506001600160e01b03198216635b5e139f60e01b145b8061078a575061078a8260006001600160e01b03198216631074cd8d60e11b1480612f8557506001600160e01b03198216632658600760e01b145b8061078a57506301ffc9a760e01b6001600160e01b031983161461078a565b828054612fb090613c69565b90600052602060002090601f016020900481019282612fd25760008555613018565b82601f10612feb57805160ff1916838001178555613018565b82800160010185558215613018579182015b82811115613018578251825591602001919060010190612ffd565b50613024929150613028565b5090565b5b808211156130245760008155600101613029565b60006001600160401b0383111561305657613056613cf9565b613069601f8401601f1916602001613afc565b905082815283838301111561307d57600080fd5b828260208301376000602084830101529392505050565b80356001600160a01b03811681146130ab57600080fd5b919050565b60008083601f8401126130c1578182fd5b5081356001600160401b038111156130d7578182fd5b6020830191508360208260051b85010111156130f257600080fd5b9250929050565b600082601f830112613109578081fd5b8135602061311e61311983613b2c565b613afc565b80838252828201915082860187848660051b890101111561313d578586fd5b855b8581101561315b5781358452928401929084019060010161313f565b5090979650505050505050565b600082601f830112613178578081fd5b8135602061318861311983613b2c565b80838252828201915082860187848660051b89010111156131a7578586fd5b855b8581101561315b576131ba826131fb565b845292840192908401906001016131a9565b803580151581146130ab57600080fd5b600082601f8301126131ec578081fd5b610ff48383356020850161303d565b803560ff811681146130ab57600080fd5b60006020828403121561321d578081fd5b610ff482613094565b60008060408385031215613238578081fd5b61324183613094565b915061324f60208401613094565b90509250929050565b60008060006060848603121561326c578081fd5b61327584613094565b925061328360208501613094565b9150604084013590509250925092565b600080600080608085870312156132a8578081fd5b6132b185613094565b93506132bf60208601613094565b92506040850135915060608501356001600160401b038111156132e0578182fd5b8501601f810187136132f0578182fd5b6132ff8782356020840161303d565b91505092959194509250565b6000806040838503121561331d578182fd5b61332683613094565b915061324f602084016131cc565b60008060408385031215613346578182fd5b61334f83613094565b946020939093013593505050565b600080600080600080600080600060a08a8c03121561337a578687fd5b89356001600160401b0380821115613390578889fd5b61339c8d838e016130b0565b909b50995060208c01359150808211156133b4578889fd5b6133c08d838e016130b0565b909950975060408c01359150808211156133d8578687fd5b6133e48d838e016130b0565b909750955060608c01359150808211156133fc578485fd5b6134088d838e01613168565b945060808c013591508082111561341d578384fd5b5061342a8c828d016130b0565b915080935050809150509295985092959850929598565b600060208284031215613452578081fd5b5035919050565b6000806040838503121561346b578182fd5b8235915061324f60208401613094565b6000806040838503121561348d578182fd5b50508035926020909101359150565b6000602082840312156134ad578081fd5b8135610ff481613d0f565b6000602082840312156134c9578081fd5b8151610ff481613d0f565b6000806000604084860312156134e8578081fd5b8335925060208401356001600160401b03811115613504578182fd5b613510868287016130b0565b9497909650939450505050565b600080600060608486031215613531578081fd5b8335925060208401356001600160401b038082111561354e578283fd5b61355a878388016130f9565b9350604086013591508082111561356f578283fd5b5061357c868287016130f9565b9150509250925092565b60008060408385031215613598578182fd5b8235915061324f602084016131cc565b600080600080600060a086880312156135bf578283fd5b8535945060208601356001600160401b03808211156135dc578485fd5b6135e889838a016131dc565b955060408801359150808211156135fd578485fd5b61360989838a016131dc565b9450613617606089016131fb565b9350608088013591508082111561362c578283fd5b50613639888289016131dc565b9150509295509295909350565b60008060006060848603121561365a578081fd5b505081359360208301359350604090920135919050565b6000815180845260208085019450808401835b838110156136a057815187529582019590820190600101613684565b509495945050505050565b600081518084526136c3816020860160208601613c26565b601f01601f19169290920160200192915050565b600081516136e9818560208601613c26565b9290920192915050565b815160009082906020808601845b8381101561371d57815185529382019390820190600101613701565b50929695505050505050565b6000835161373b818460208801613c26565b83519083019061374f818360208801613c26565b01949350505050565b600080845482600182811c91508083168061377457607f831692505b602080841082141561379457634e487b7160e01b87526022600452602487fd5b8180156137a857600181146137b9576137e5565b60ff198616895284890196506137e5565b60008b815260209020885b868110156137dd5781548b8201529085019083016137c4565b505084890196505b5050505050506137f581856136d7565b95945050505050565b7f416363657373436f6e74726f6c3a206163636f756e7420000000000000000000815260008351613836816017850160208801613c26565b7001034b99036b4b9b9b4b733903937b6329607d1b6017918401918201528351613867816028840160208801613c26565b01602801949350505050565b6001600160a01b03858116825284166020820152604081018390526080606082018190526000906138a6908301846136ab565b9695505050505050565b602081526000610ff46020830184613671565b8381528260208201526060604082015260006137f56060830184613671565b602081526000610ff460208301846136ab565b60608152600061390860608301866136ab565b828103602084015261391a81866136ab565b905082810360408401526138a681856136ab565b6020808252602a908201527f455243333636343a20696e73756666696369656e742062616c616e636520666f60408201526939103a3930b739b332b960b11b606082015260800190565b6020808252602c908201527f455243333636343a206174747249647320616e6420616d6f756e7473206c656e60408201526b0cee8d040dad2e6dac2e8c6d60a31b606082015260800190565b60208082526032908201527f4552433732313a207472616e7366657220746f206e6f6e20455243373231526560408201527131b2b4bb32b91034b6b83632b6b2b73a32b960711b606082015260800190565b6020808252602d908201527f455243333636343a20746f6b656e20686173206e6f742061747461636865642060408201526c7468652061747472696275746560981b606082015260800190565b60208082526031908201527f4552433732313a207472616e736665722063616c6c6572206973206e6f74206f6040820152701ddb995c881b9bdc88185c1c1c9bdd9959607a1b606082015260800190565b60208082526028908201527f5765623344414f434e3a206d7573742068617665206d696e74657220726f6c65604082015267081d1bc81b5a5b9d60c21b606082015260800190565b604051601f8201601f191681016001600160401b0381118282101715613b2457613b24613cf9565b604052919050565b60006001600160401b03821115613b4557613b45613cf9565b5060051b60200190565b60008219821115613b6257613b62613ccd565b500190565b600082613b7657613b76613ce3565b500490565b6000816000190483118215151615613b9557613b95613ccd565b500290565b600082821015613bac57613bac613ccd565b500390565b6000613bbf61311984613b2c565b808482526020808301925084368760051b87011115613bdc578485fd5b845b87811015613c1a5781356001600160401b03811115613bfb578687fd5b613c0736828a016131dc565b8652509382019390820190600101613bde565b50919695505050505050565b60005b83811015613c41578181015183820152602001613c29565b8381111561124e5750506000910152565b600081613c6157613c61613ccd565b506000190190565b600181811c90821680613c7d57607f821691505b6020821081141561120b57634e487b7160e01b600052602260045260246000fd5b6000600019821415613cb257613cb2613ccd565b5060010190565b600082613cc857613cc8613ce3565b500690565b634e487b7160e01b600052601160045260246000fd5b634e487b7160e01b600052601260045260246000fd5b634e487b7160e01b600052604160045260246000fd5b6001600160e01b031981168114610f5257600080fdfe9f2df0fed2c77648de5860a4cc508cd0818c85b8b8a1ab4ceeef8d981c8956a6a26469706673582212201a3fe974deb0fddef770a11ec9e33c4199d79ec03da434e9c81f3ca37e4502d464736f6c63430008040033",
  "linkReferences": {},
  "deployedLinkReferences": {}
}