{
  "_format": "hh-sol-artifact-1",
  "contractName": "Web3DAOCN",
  "sourceName": "contracts/Web3Dao.sol",
  "abi": [
    {
      "inputs": [
        {
          "internalType": "string",
          "name": "uri_",
          "type": "string"
        }
      ],
      "stateMutability": "nonpayable",
      "type": "constructor"
    },
    {
      "anonymous": false,
      "inputs": [
        {
          "indexed": true,
          "internalType": "address",
          "name": "owner",
          "type": "address"
        },
        {
          "indexed": true,
          "internalType": "address",
          "name": "approved",
          "type": "address"
        },
        {
          "indexed": true,
          "internalType": "uint256",
          "name": "tokenId",
          "type": "uint256"
        }
      ],
      "name": "Approval",
      "type": "event"
    },
    {
      "anonymous": false,
      "inputs": [
        {
          "indexed": true,
          "internalType": "address",
          "name": "owner",
          "type": "address"
        },
        {
          "indexed": true,
          "internalType": "address",
          "name": "operator",
          "type": "address"
        },
        {
          "indexed": false,
          "internalType": "bool",
          "name": "approved",
          "type": "bool"
        }
      ],
      "name": "ApprovalForAll",
      "type": "event"
    },
    {
      "anonymous": false,
      "inputs": [
        {
          "indexed": true,
          "internalType": "address",
          "name": "operator",
          "type": "address"
        },
        {
          "indexed": false,
          "internalType": "uint256",
          "name": "from",
          "type": "uint256"
        },
        {
          "indexed": false,
          "internalType": "uint256",
          "name": "to",
          "type": "uint256"
        },
        {
          "indexed": false,
          "internalType": "uint256",
          "name": "attrId",
          "type": "uint256"
        },
        {
          "indexed": false,
          "internalType": "uint256",
          "name": "amount",
          "type": "uint256"
        }
      ],
      "name": "AttributeApproval",
      "type": "event"
    },
    {
      "anonymous": false,
      "inputs": [
        {
          "indexed": true,
          "internalType": "uint256",
          "name": "attrId",
          "type": "uint256"
        },
        {
          "indexed": false,
          "internalType": "string",
          "name": "name",
          "type": "string"
        },
        {
          "indexed": false,
          "internalType": "string",
          "name": "symbol",
          "type": "string"
        },
        {
          "indexed": false,
          "internalType": "string",
          "name": "uri",
          "type": "string"
        }
      ],
      "name": "AttributeCreated",
      "type": "event"
    },
    {
      "anonymous": false,
      "inputs": [
        {
          "indexed": true,
          "internalType": "bytes32",
          "name": "role",
          "type": "bytes32"
        },
        {
          "indexed": true,
          "internalType": "bytes32",
          "name": "previousAdminRole",
          "type": "bytes32"
        },
        {
          "indexed": true,
          "internalType": "bytes32",
          "name": "newAdminRole",
          "type": "bytes32"
        }
      ],
      "name": "RoleAdminChanged",
      "type": "event"
    },
    {
      "anonymous": false,
      "inputs": [
        {
          "indexed": true,
          "internalType": "bytes32",
          "name": "role",
          "type": "bytes32"
        },
        {
          "indexed": true,
          "internalType": "address",
          "name": "account",
          "type": "address"
        },
        {
          "indexed": true,
          "internalType": "address",
          "name": "sender",
          "type": "address"
        }
      ],
      "name": "RoleGranted",
      "type": "event"
    },
    {
      "anonymous": false,
      "inputs": [
        {
          "indexed": true,
          "internalType": "bytes32",
          "name": "role",
          "type": "bytes32"
        },
        {
          "indexed": true,
          "internalType": "address",
          "name": "account",
          "type": "address"
        },
        {
          "indexed": true,
          "internalType": "address",
          "name": "sender",
          "type": "address"
        }
      ],
      "name": "RoleRevoked",
      "type": "event"
    },
    {
      "anonymous": false,
      "inputs": [
        {
          "indexed": true,
          "internalType": "address",
          "name": "from",
          "type": "address"
        },
        {
          "indexed": true,
          "internalType": "address",
          "name": "to",
          "type": "address"
        },
        {
          "indexed": true,
          "internalType": "uint256",
          "name": "tokenId",
          "type": "uint256"
        }
      ],
      "name": "Transfer",
      "type": "event"
    },
    {
      "anonymous": false,
      "inputs": [
        {
          "indexed": true,
          "internalType": "address",
          "name": "operator",
          "type": "address"
        },
        {
          "indexed": false,
          "internalType": "uint256",
          "name": "from",
          "type": "uint256"
        },
        {
          "indexed": false,
          "internalType": "uint256",
          "name": "to",
          "type": "uint256"
        },
        {
          "indexed": true,
          "internalType": "uint256[]",
          "name": "attrIds",
          "type": "uint256[]"
        },
        {
          "indexed": false,
          "internalType": "uint256[]",
          "name": "values",
          "type": "uint256[]"
        }
      ],
      "name": "TransferBatch",
      "type": "event"
    },
    {
      "anonymous": false,
      "inputs": [
        {
          "indexed": true,
          "internalType": "address",
          "name": "operator",
          "type": "address"
        },
        {
          "indexed": false,
          "internalType": "uint256",
          "name": "from",
          "type": "uint256"
        },
        {
          "indexed": false,
          "internalType": "uint256",
          "name": "to",
          "type": "uint256"
        },
        {
          "indexed": true,
          "internalType": "uint256",
          "name": "attrId",
          "type": "uint256"
        },
        {
          "indexed": false,
          "internalType": "uint256",
          "name": "value",
          "type": "uint256"
        }
      ],
      "name": "TransferSingle",
      "type": "event"
    },
    {
      "inputs": [],
      "name": "DEFAULT_ADMIN_ROLE",
      "outputs": [
        {
          "internalType": "bytes32",
          "name": "",
          "type": "bytes32"
        }
      ],
      "stateMutability": "view",
      "type": "function"
    },
    {
      "inputs": [],
      "name": "MINTER_ROLE",
      "outputs": [
        {
          "internalType": "bytes32",
          "name": "",
          "type": "bytes32"
        }
      ],
      "stateMutability": "view",
      "type": "function"
    },
    {
      "inputs": [
        {
          "internalType": "uint256",
          "name": "",
          "type": "uint256"
        }
      ],
      "name": "_totalSupply",
      "outputs": [
        {
          "internalType": "uint256",
          "name": "",
          "type": "uint256"
        }
      ],
      "stateMutability": "view",
      "type": "function"
    },
    {
      "inputs": [
        {
          "internalType": "address",
          "name": "operator",
          "type": "address"
        },
        {
          "internalType": "uint256",
          "name": "from",
          "type": "uint256"
        },
        {
          "internalType": "uint256",
          "name": "to",
          "type": "uint256"
        },
        {
          "internalType": "uint256",
          "name": "attrId",
          "type": "uint256"
        },
        {
          "internalType": "uint256",
          "name": "amount",
          "type": "uint256"
        }
      ],
      "name": "_transfer",
      "outputs": [],
      "stateMutability": "nonpayable",
      "type": "function"
    },
    {
      "inputs": [
        {
          "internalType": "uint256",
          "name": "from",
          "type": "uint256"
        },
        {
          "internalType": "uint256",
          "name": "to",
          "type": "uint256"
        },
        {
          "internalType": "uint256",
          "name": "attrId",
          "type": "uint256"
        }
      ],
      "name": "allowance",
      "outputs": [
        {
          "internalType": "uint256",
          "name": "",
          "type": "uint256"
        }
      ],
      "stateMutability": "view",
      "type": "function"
    },
    {
      "inputs": [
        {
          "internalType": "address",
          "name": "to",
          "type": "address"
        },
        {
          "internalType": "uint256",
          "name": "tokenId",
          "type": "uint256"
        }
      ],
      "name": "approve",
      "outputs": [],
      "stateMutability": "nonpayable",
      "type": "function"
    },
    {
      "inputs": [
        {
          "internalType": "uint256",
          "name": "from",
          "type": "uint256"
        },
        {
          "internalType": "uint256",
          "name": "to",
          "type": "uint256"
        },
        {
          "internalType": "uint256",
          "name": "attrId",
          "type": "uint256"
        },
        {
          "internalType": "uint256",
          "name": "amount",
          "type": "uint256"
        }
      ],
      "name": "approve",
      "outputs": [],
      "stateMutability": "nonpayable",
      "type": "function"
    },
    {
      "inputs": [
        {
          "internalType": "uint256",
          "name": "",
          "type": "uint256"
        },
        {
          "internalType": "uint256",
          "name": "",
          "type": "uint256"
        }
      ],
      "name": "attrBalances",
      "outputs": [
        {
          "internalType": "uint256",
          "name": "",
          "type": "uint256"
        }
      ],
      "stateMutability": "view",
      "type": "function"
    },
    {
      "inputs": [
        {
          "internalType": "uint256",
          "name": "",
          "type": "uint256"
        }
      ],
      "name": "attrTransferAllow",
      "outputs": [
        {
          "internalType": "bool",
          "name": "",
          "type": "bool"
        }
      ],
      "stateMutability": "view",
      "type": "function"
    },
    {
      "inputs": [
        {
          "internalType": "uint256",
          "name": "attrId",
          "type": "uint256"
        }
      ],
      "name": "attrURI",
      "outputs": [
        {
          "internalType": "string",
          "name": "",
          "type": "string"
        }
      ],
      "stateMutability": "view",
      "type": "function"
    },
    {
      "inputs": [
        {
          "internalType": "address",
          "name": "owner",
          "type": "address"
        }
      ],
      "name": "balanceOf",
      "outputs": [
        {
          "internalType": "uint256",
          "name": "",
          "type": "uint256"
        }
      ],
      "stateMutability": "view",
      "type": "function"
    },
    {
      "inputs": [
        {
          "internalType": "uint256",
          "name": "tokenId",
          "type": "uint256"
        },
        {
          "internalType": "uint256",
          "name": "attrId",
          "type": "uint256"
        }
      ],
      "name": "balanceOf",
      "outputs": [
        {
          "internalType": "uint256",
          "name": "",
          "type": "uint256"
        }
      ],
      "stateMutability": "view",
      "type": "function"
    },
    {
      "inputs": [
        {
          "internalType": "uint256",
          "name": "tokenId",
          "type": "uint256"
        },
        {
          "internalType": "uint256[]",
          "name": "attrIds",
          "type": "uint256[]"
        }
      ],
      "name": "balanceOfBatch",
      "outputs": [
        {
          "internalType": "uint256[]",
          "name": "",
          "type": "uint256[]"
        }
      ],
      "stateMutability": "view",
      "type": "function"
    },
    {
      "inputs": [
        {
          "internalType": "uint256",
          "name": "tokenId",
          "type": "uint256"
        },
        {
          "internalType": "uint256",
          "name": "attrId",
          "type": "uint256"
        },
        {
          "internalType": "uint256",
          "name": "amount",
          "type": "uint256"
        }
      ],
      "name": "burn",
      "outputs": [],
      "stateMutability": "nonpayable",
      "type": "function"
    },
    {
      "inputs": [
        {
          "internalType": "uint256",
          "name": "tokenId",
          "type": "uint256"
        },
        {
          "internalType": "uint256[]",
          "name": "attrIds",
          "type": "uint256[]"
        },
        {
          "internalType": "uint256[]",
          "name": "amounts",
          "type": "uint256[]"
        }
      ],
      "name": "burnBatch",
      "outputs": [],
      "stateMutability": "nonpayable",
      "type": "function"
    },
    {
      "inputs": [
        {
          "internalType": "uint256",
          "name": "_attrId",
          "type": "uint256"
        },
        {
          "internalType": "string",
          "name": "_name",
          "type": "string"
        },
        {
          "internalType": "string",
          "name": "_symbol",
          "type": "string"
        },
        {
          "internalType": "uint8",
          "name": "_decimal",
          "type": "uint8"
        },
        {
          "internalType": "string",
          "name": "_uri",
          "type": "string"
        }
      ],
      "name": "create",
      "outputs": [],
      "stateMutability": "nonpayable",
      "type": "function"
    },
    {
      "inputs": [
        {
          "internalType": "uint256[]",
          "name": "attrIds",
          "type": "uint256[]"
        },
        {
          "internalType": "string[]",
          "name": "names",
          "type": "string[]"
        },
        {
          "internalType": "string[]",
          "name": "symbols",
          "type": "string[]"
        },
        {
          "internalType": "uint8[]",
          "name": "decimals",
          "type": "uint8[]"
        },
        {
          "internalType": "string[]",
          "name": "uris",
          "type": "string[]"
        }
      ],
      "name": "createBatch",
      "outputs": [],
      "stateMutability": "nonpayable",
      "type": "function"
    },
    {
      "inputs": [
        {
          "internalType": "uint256",
          "name": "attrId",
          "type": "uint256"
        }
      ],
      "name": "decimal",
      "outputs": [
        {
          "internalType": "uint8",
          "name": "",
          "type": "uint8"
        }
      ],
      "stateMutability": "view",
      "type": "function"
    },
    {
      "inputs": [
        {
          "internalType": "uint256",
          "name": "tokenId",
          "type": "uint256"
        }
      ],
      "name": "getApproved",
      "outputs": [
        {
          "internalType": "address",
          "name": "",
          "type": "address"
        }
      ],
      "stateMutability": "view",
      "type": "function"
    },
    {
      "inputs": [
        {
          "internalType": "bytes32",
          "name": "role",
          "type": "bytes32"
        }
      ],
      "name": "getRoleAdmin",
      "outputs": [
        {
          "internalType": "bytes32",
          "name": "",
          "type": "bytes32"
        }
      ],
      "stateMutability": "view",
      "type": "function"
    },
    {
      "inputs": [
        {
          "internalType": "bytes32",
          "name": "role",
          "type": "bytes32"
        },
        {
          "internalType": "uint256",
          "name": "index",
          "type": "uint256"
        }
      ],
      "name": "getRoleMember",
      "outputs": [
        {
          "internalType": "address",
          "name": "",
          "type": "address"
        }
      ],
      "stateMutability": "view",
      "type": "function"
    },
    {
      "inputs": [
        {
          "internalType": "bytes32",
          "name": "role",
          "type": "bytes32"
        }
      ],
      "name": "getRoleMemberCount",
      "outputs": [
        {
          "internalType": "uint256",
          "name": "",
          "type": "uint256"
        }
      ],
      "stateMutability": "view",
      "type": "function"
    },
    {
      "inputs": [
        {
          "internalType": "bytes32",
          "name": "role",
          "type": "bytes32"
        },
        {
          "internalType": "address",
          "name": "account",
          "type": "address"
        }
      ],
      "name": "grantRole",
      "outputs": [],
      "stateMutability": "nonpayable",
      "type": "function"
    },
    {
      "inputs": [
        {
          "internalType": "bytes32",
          "name": "role",
          "type": "bytes32"
        },
        {
          "internalType": "address",
          "name": "account",
          "type": "address"
        }
      ],
      "name": "hasRole",
      "outputs": [
        {
          "internalType": "bool",
          "name": "",
          "type": "bool"
        }
      ],
      "stateMutability": "view",
      "type": "function"
    },
    {
      "inputs": [
        {
          "internalType": "address",
          "name": "owner",
          "type": "address"
        },
        {
          "internalType": "address",
          "name": "operator",
          "type": "address"
        }
      ],
      "name": "isApprovedForAll",
      "outputs": [
        {
          "internalType": "bool",
          "name": "",
          "type": "bool"
        }
      ],
      "stateMutability": "view",
      "type": "function"
    },
    {
      "inputs": [
        {
          "internalType": "uint256",
          "name": "tokenId",
          "type": "uint256"
        },
        {
          "internalType": "uint256",
          "name": "attrId",
          "type": "uint256"
        },
        {
          "internalType": "uint256",
          "name": "amount",
          "type": "uint256"
        }
      ],
      "name": "mint",
      "outputs": [],
      "stateMutability": "nonpayable",
      "type": "function"
    },
    {
      "inputs": [
        {
          "internalType": "address",
          "name": "to",
          "type": "address"
        }
      ],
      "name": "mint",
      "outputs": [],
      "stateMutability": "nonpayable",
      "type": "function"
    },
    {
      "inputs": [
        {
          "internalType": "uint256",
          "name": "tokenId",
          "type": "uint256"
        },
        {
          "internalType": "uint256[]",
          "name": "attrIds",
          "type": "uint256[]"
        },
        {
          "internalType": "uint256[]",
          "name": "amounts",
          "type": "uint256[]"
        }
      ],
      "name": "mintBatch",
      "outputs": [],
      "stateMutability": "nonpayable",
      "type": "function"
    },
    {
      "inputs": [
        {
          "internalType": "uint256",
          "name": "attrId",
          "type": "uint256"
        }
      ],
      "name": "name",
      "outputs": [
        {
          "internalType": "string",
          "name": "",
          "type": "string"
        }
      ],
      "stateMutability": "view",
      "type": "function"
    },
    {
      "inputs": [],
      "name": "name",
      "outputs": [
        {
          "internalType": "string",
          "name": "",
          "type": "string"
        }
      ],
      "stateMutability": "view",
      "type": "function"
    },
    {
      "inputs": [
        {
          "internalType": "uint256",
          "name": "tokenId",
          "type": "uint256"
        }
      ],
      "name": "ownerOf",
      "outputs": [
        {
          "internalType": "address",
          "name": "",
          "type": "address"
        }
      ],
      "stateMutability": "view",
      "type": "function"
    },
    {
      "inputs": [
        {
          "internalType": "uint256",
          "name": "tokenId",
          "type": "uint256"
        }
      ],
      "name": "primaryAttributeOf",
      "outputs": [
        {
          "internalType": "uint256",
          "name": "",
          "type": "uint256"
        }
      ],
      "stateMutability": "view",
      "type": "function"
    },
    {
      "inputs": [
        {
          "internalType": "bytes32",
          "name": "role",
          "type": "bytes32"
        },
        {
          "internalType": "address",
          "name": "account",
          "type": "address"
        }
      ],
      "name": "renounceRole",
      "outputs": [],
      "stateMutability": "nonpayable",
      "type": "function"
    },
    {
      "inputs": [
        {
          "internalType": "bytes32",
          "name": "role",
          "type": "bytes32"
        },
        {
          "internalType": "address",
          "name": "account",
          "type": "address"
        }
      ],
      "name": "revokeRole",
      "outputs": [],
      "stateMutability": "nonpayable",
      "type": "function"
    },
    {
      "inputs": [
        {
          "internalType": "address",
          "name": "from",
          "type": "address"
        },
        {
          "internalType": "address",
          "name": "to",
          "type": "address"
        },
        {
          "internalType": "uint256",
          "name": "tokenId",
          "type": "uint256"
        }
      ],
      "name": "safeTransferFrom",
      "outputs": [],
      "stateMutability": "nonpayable",
      "type": "function"
    },
    {
      "inputs": [
        {
          "internalType": "address",
          "name": "from",
          "type": "address"
        },
        {
          "internalType": "address",
          "name": "to",
          "type": "address"
        },
        {
          "internalType": "uint256",
          "name": "tokenId",
          "type": "uint256"
        },
        {
          "internalType": "bytes",
          "name": "_data",
          "type": "bytes"
        }
      ],
      "name": "safeTransferFrom",
      "outputs": [],
      "stateMutability": "nonpayable",
      "type": "function"
    },
    {
      "inputs": [
        {
          "internalType": "address",
          "name": "operator",
          "type": "address"
        },
        {
          "internalType": "bool",
          "name": "approved",
          "type": "bool"
        }
      ],
      "name": "setApprovalForAll",
      "outputs": [],
      "stateMutability": "nonpayable",
      "type": "function"
    },
    {
      "inputs": [
        {
          "internalType": "uint256",
          "name": "attrId",
          "type": "uint256"
        },
        {
          "internalType": "bool",
          "name": "allow",
          "type": "bool"
        }
      ],
      "name": "setAttrTransferAllow",
      "outputs": [],
      "stateMutability": "nonpayable",
      "type": "function"
    },
    {
      "inputs": [
        {
          "internalType": "uint256",
          "name": "tokenId",
          "type": "uint256"
        },
        {
          "internalType": "uint256",
          "name": "attrId",
          "type": "uint256"
        }
      ],
      "name": "setPrimaryAttribute",
      "outputs": [],
      "stateMutability": "nonpayable",
      "type": "function"
    },
    {
      "inputs": [
        {
          "internalType": "bytes4",
          "name": "interfaceId",
          "type": "bytes4"
        }
      ],
      "name": "supportsInterface",
      "outputs": [
        {
          "internalType": "bool",
          "name": "",
          "type": "bool"
        }
      ],
      "stateMutability": "view",
      "type": "function"
    },
    {
      "inputs": [
        {
          "internalType": "uint256",
          "name": "attrId",
          "type": "uint256"
        }
      ],
      "name": "symbol",
      "outputs": [
        {
          "internalType": "string",
          "name": "",
          "type": "string"
        }
      ],
      "stateMutability": "view",
      "type": "function"
    },
    {
      "inputs": [],
      "name": "symbol",
      "outputs": [
        {
          "internalType": "string",
          "name": "",
          "type": "string"
        }
      ],
      "stateMutability": "view",
      "type": "function"
    },
    {
      "inputs": [
        {
          "internalType": "uint256",
          "name": "index",
          "type": "uint256"
        }
      ],
      "name": "tokenByIndex",
      "outputs": [
        {
          "internalType": "uint256",
          "name": "",
          "type": "uint256"
        }
      ],
      "stateMutability": "view",
      "type": "function"
    },
    {
      "inputs": [
        {
          "internalType": "address",
          "name": "owner",
          "type": "address"
        },
        {
          "internalType": "uint256",
          "name": "index",
          "type": "uint256"
        }
      ],
      "name": "tokenOfOwnerByIndex",
      "outputs": [
        {
          "internalType": "uint256",
          "name": "",
          "type": "uint256"
        }
      ],
      "stateMutability": "view",
      "type": "function"
    },
    {
      "inputs": [
        {
          "internalType": "uint256",
          "name": "tokenId",
          "type": "uint256"
        }
      ],
      "name": "tokenURI",
      "outputs": [
        {
          "internalType": "string",
          "name": "",
          "type": "string"
        }
      ],
      "stateMutability": "view",
      "type": "function"
    },
    {
      "inputs": [],
      "name": "totalSupply",
      "outputs": [
        {
          "internalType": "uint256",
          "name": "",
          "type": "uint256"
        }
      ],
      "stateMutability": "view",
      "type": "function"
    },
    {
      "inputs": [
        {
          "internalType": "uint256",
          "name": "attrId",
          "type": "uint256"
        }
      ],
      "name": "totalSupply",
      "outputs": [
        {
          "internalType": "uint256",
          "name": "",
          "type": "uint256"
        }
      ],
      "stateMutability": "view",
      "type": "function"
    },
    {
      "inputs": [
        {
          "internalType": "uint256",
          "name": "from",
          "type": "uint256"
        },
        {
          "internalType": "uint256",
          "name": "to",
          "type": "uint256"
        },
        {
          "internalType": "uint256",
          "name": "attrId",
          "type": "uint256"
        },
        {
          "internalType": "uint256",
          "name": "amount",
          "type": "uint256"
        }
      ],
      "name": "transfer",
      "outputs": [],
      "stateMutability": "nonpayable",
      "type": "function"
    },
    {
      "inputs": [
        {
          "internalType": "address",
          "name": "from",
          "type": "address"
        },
        {
          "internalType": "address",
          "name": "to",
          "type": "address"
        },
        {
          "internalType": "uint256",
          "name": "tokenId",
          "type": "uint256"
        }
      ],
      "name": "transferFrom",
      "outputs": [],
      "stateMutability": "nonpayable",
      "type": "function"
    },
    {
      "inputs": [
        {
          "internalType": "uint256",
          "name": "from",
          "type": "uint256"
        },
        {
          "internalType": "uint256",
          "name": "to",
          "type": "uint256"
        },
        {
          "internalType": "uint256",
          "name": "attrId",
          "type": "uint256"
        },
        {
          "internalType": "uint256",
          "name": "amount",
          "type": "uint256"
        }
      ],
      "name": "transferFrom",
      "outputs": [],
      "stateMutability": "nonpayable",
      "type": "function"
    }
  ],
  "bytecode": "0x60806040523480156200001157600080fd5b50604051620049a1380380620049a183398101604081905262000034916200031b565b6040518060400160405280600f81526020016e15d9588cc8111053c810d388139195608a1b81525060405180604001604052806005815260200164574542c2b360d81b815250826200008c81620000fd60201b60201c565b508151620000a290600690602085019062000275565b508051620000b890600790602084019062000275565b50620000ca9150600090503362000116565b620000f67f9f2df0fed2c77648de5860a4cc508cd0818c85b8b8a1ab4ceeef8d981c8956a63362000116565b5062000444565b80516200011290600090602084019062000275565b5050565b6200011282826200013382826200015f60201b620019ea1760201c565b60008281526011602090815260409091206200015a91839062001a7062000203821b17901c565b505050565b60008281526010602090815260408083206001600160a01b038516845290915290205460ff16620001125760008281526010602090815260408083206001600160a01b03851684529091529020805460ff19166001179055620001bf3390565b6001600160a01b0316816001600160a01b0316837f2f8788117e7eff1d82e926ec794901d17c78024a50270940304540a733656f0d60405160405180910390a45050565b60006200021a836001600160a01b03841662000223565b90505b92915050565b60008181526001830160205260408120546200026c575081546001818101845560008481526020808220909301849055845484825282860190935260409020919091556200021d565b5060006200021d565b8280546200028390620003f1565b90600052602060002090601f016020900481019282620002a75760008555620002f2565b82601f10620002c257805160ff1916838001178555620002f2565b82800160010185558215620002f2579182015b82811115620002f2578251825591602001919060010190620002d5565b506200030092915062000304565b5090565b5b8082111562000300576000815560010162000305565b600060208083850312156200032e578182fd5b82516001600160401b038082111562000345578384fd5b818501915085601f83011262000359578384fd5b8151818111156200036e576200036e6200042e565b604051601f8201601f19908116603f011681019083821181831017156200039957620003996200042e565b816040528281528886848701011115620003b1578687fd5b8693505b82841015620003d45784840186015181850187015292850192620003b5565b82841115620003e557868684830101525b98975050505050505050565b600181811c908216806200040657607f821691505b602082108114156200042857634e487b7160e01b600052602260045260246000fd5b50919050565b634e487b7160e01b600052604160045260246000fd5b61454d80620004546000396000f3fe608060405234801561001057600080fd5b50600436106102d55760003560e01c806378cc520d11610182578063bd85b039116100e9578063e15fe34f116100a2578063ea6996331161007c578063ea699633146106f9578063f030ba6314610723578063f037745714610736578063f371efa41461074957600080fd5b8063e15fe34f1461067f578063e829ffa114610692578063e985e9c5146106bd57600080fd5b8063bd85b039146105fe578063c87b56dd1461061e578063ca15c87314610631578063cd2e2c2414610644578063d539139314610657578063d547741f1461066c57600080fd5b806391d148541161013b57806391d14854146105a257806395d89b41146105b55780639bc5ae54146105bd578063a217fddf146105d0578063a22cb465146105d8578063b88d4fde146105eb57600080fd5b806378cc520d146105135780637cba85981461053657806387e21d42146105495780638856f779146105695780639010d07c1461057c57806391a2c83c1461058f57600080fd5b80632f745c59116102415780634f6ccce7116101fa5780636352211e116101d45780636352211e146104c75780636a627842146104da5780636c06296c146104ed57806370a082311461050057600080fd5b80634f6ccce7146104745780635977e82a146104875780635d126110146104a757600080fd5b80632f745c59146104025780632f94e4aa1461041557806336568abe1461042857806336cca0be1461043b57806342842e0e1461044e5780634e41a1fb1461046157600080fd5b8063095ea7b311610293578063095ea7b3146103815780631070717b1461039457806318160ddd146103a757806323b872dd146103b9578063248a9ca3146103cc5780632f2ff15d146103ef57600080fd5b8062ad800c146102da57806301ffc9a71461030357806302acc94b1461032657806305a100281461033b57806306fdde031461034e578063081812fc14610356575b600080fd5b6102ed6102e8366004613b9b565b61076e565b6040516102fa919061406d565b60405180910390f35b610316610311366004613bf6565b61088b565b60405190151581526020016102fa565b610339610334366004613da0565b61089c565b005b610339610349366004613da0565b6108e0565b6102ed61091f565b610369610364366004613b9b565b6109b1565b6040516001600160a01b0390911681526020016102fa565b61033961038f366004613a4d565b610a46565b6103396103a2366004613bd5565b610b57565b600e545b6040519081526020016102fa565b6103396103c7366004613971565b610b9f565b6103ab6103da366004613b9b565b60009081526010602052604090206001015490565b6103396103fd366004613bb3565b610bd0565b6103ab610410366004613a4d565b610bf6565b610339610423366004613a76565b610c8c565b610339610436366004613bb3565b610e4d565b610339610449366004613d02565b610ecb565b61033961045c366004613971565b610f13565b6102ed61046f366004613b9b565b610f2e565b6103ab610482366004613b9b565b610fc7565b6103ab610495366004613b9b565b60056020526000908152604090205481565b6104ba6104b5366004613c2e565b611068565b6040516102fa919061403b565b6103696104d5366004613b9b565b611154565b6103396104e8366004613925565b6111cb565b6103396104fb366004613dcb565b611222565b6103ab61050e366004613925565b61125f565b610316610521366004613b9b565b60136020526000908152604090205460ff1681565b610339610544366004613dcb565b6112e6565b6103ab610557366004613b9b565b60009081526003602052604090205490565b610339610577366004613dcb565b611323565b61036961058a366004613bd5565b611452565b61033961059d366004613c77565b611471565b6103166105b0366004613bb3565b6114b0565b6102ed6114db565b6102ed6105cb366004613b9b565b6114ea565b6103ab600081565b6103396105e6366004613a24565b611687565b6103396105f93660046139ac565b611692565b6103ab61060c366004613b9b565b60009081526005602052604090205490565b6102ed61062c366004613b9b565b6116ca565b6103ab61063f366004613b9b565b61178a565b610339610652366004613ab7565b6117a1565b6103ab6000805160206144f883398151915281565b61033961067a366004613bb3565b61183d565b6103ab61068d366004613da0565b611863565b6103ab6106a0366004613bd5565b600260209081526000928352604080842090915290825290205481565b6103166106cb36600461393f565b6001600160a01b039182166000908152600b6020908152604080832093909416825291909152205460ff1690565b6103ab610707366004613bd5565b6000908152600260209081526040808320938352929052205490565b610339610731366004613c77565b6118c4565b610339610744366004613ce0565b611903565b61075c610757366004613b9b565b611957565b60405160ff90911681526020016102fa565b60008181526001602052604090206004015460609060ff166107ed5760405162461bcd60e51b815260206004820152602d60248201527f455243333636343a206e616d6520717565727920666f72206e6f6e657869737460448201526c656e742061747472696275746560981b60648201526084015b60405180910390fd5b600082815260016020526040902080546108069061443b565b80601f01602080910402602001604051908101604052809291908181526020018280546108329061443b565b801561087f5780601f106108545761010080835404028352916020019161087f565b820191906000526020600020905b81548152906001019060200180831161086257829003601f168201915b50505050509050919050565b600061089682611a85565b92915050565b6108b46000805160206144f8833981519152336114b0565b6108d05760405162461bcd60e51b81526004016107e490614286565b6108db838383611aaa565b505050565b6108f86000805160206144f8833981519152336114b0565b6109145760405162461bcd60e51b81526004016107e490614286565b6108db838383611be5565b60606006805461092e9061443b565b80601f016020809104026020016040519081016040528092919081815260200182805461095a9061443b565b80156109a75780601f1061097c576101008083540402835291602001916109a7565b820191906000526020600020905b81548152906001019060200180831161098a57829003601f168201915b5050505050905090565b6000818152600860205260408120546001600160a01b0316610a2a5760405162461bcd60e51b815260206004820152602c60248201527f4552433732313a20617070726f76656420717565727920666f72206e6f6e657860448201526b34b9ba32b73a103a37b5b2b760a11b60648201526084016107e4565b506000908152600a60205260409020546001600160a01b031690565b6000610a5182611154565b9050806001600160a01b0316836001600160a01b03161415610abf5760405162461bcd60e51b815260206004820152602160248201527f4552433732313a20617070726f76616c20746f2063757272656e74206f776e656044820152603960f91b60648201526084016107e4565b336001600160a01b0382161480610adb5750610adb81336106cb565b610b4d5760405162461bcd60e51b815260206004820152603860248201527f4552433732313a20617070726f76652063616c6c6572206973206e6f74206f7760448201527f6e6572206e6f7220617070726f76656420666f7220616c6c000000000000000060648201526084016107e4565b6108db8383611d84565b6000818152600260209081526040808320858452909152902054610b8d5760405162461bcd60e51b81526004016107e4906141e8565b60009182526003602052604090912055565b610ba93382611df2565b610bc55760405162461bcd60e51b81526004016107e490614235565b6108db838383611ee9565b600082815260106020526040902060010154610bec8133612094565b6108db83836120f8565b6000610c018361125f565b8210610c635760405162461bcd60e51b815260206004820152602b60248201527f455243373231456e756d657261626c653a206f776e657220696e646578206f7560448201526a74206f6620626f756e647360a81b60648201526084016107e4565b506001600160a01b03919091166000908152600c60209081526040808320938352929052205490565b83610cd95760405162461bcd60e51b815260206004820181905260248201527f455243333636343a207472616e736665722066726f6d20746865207a65726f2060448201526064016107e4565b82610d265760405162461bcd60e51b815260206004820152601e60248201527f455243333636343a207472616e7366657220746f20746865207a65726f20000060448201526064016107e4565b610d4385858585856040518060200160405280600081525061211a565b600082815260026020908152604080832087845290915290205481811015610dbe5760405162461bcd60e51b815260206004820152602860248201527f455243333636343a207472616e7366657220616d6f756e7420657863656564736044820152672062616c616e636560c01b60648201526084016107e4565b6000838152600260209081526040808320888452909152808220848403905585825281208054849290610df2908490614321565b9091555050604080518681526020810186905290810183905283906001600160a01b038816907f73b5fbfbf0177b0de2ffe9fd0ae9887dd73d0d865db7ab5ff3c4a6b9bb8db1e39060600160405180910390a3505050505050565b6001600160a01b0381163314610ebd5760405162461bcd60e51b815260206004820152602f60248201527f416363657373436f6e74726f6c3a2063616e206f6e6c792072656e6f756e636560448201526e103937b632b9903337b91039b2b63360891b60648201526084016107e4565b610ec782826121aa565b5050565b610ee36000805160206144f8833981519152336114b0565b610eff5760405162461bcd60e51b81526004016107e490614286565b610f0c85858585856121cc565b5050505050565b6108db83838360405180602001604052806000815250611692565b60008181526001602052604090206004015460609060ff16610faa5760405162461bcd60e51b815260206004820152602f60248201527f455243333636343a2073796d626f6c20717565727920666f72206e6f6e65786960448201526e7374656e742061747472696275746560881b60648201526084016107e4565b60008281526001602081905260409091200180546108069061443b565b6000610fd2600e5490565b82106110355760405162461bcd60e51b815260206004820152602c60248201527f455243373231456e756d657261626c653a20676c6f62616c20696e646578206f60448201526b7574206f6620626f756e647360a01b60648201526084016107e4565b600e828154811061105657634e487b7160e01b600052603260045260246000fd5b90600052602060002001549050919050565b60606000826001600160401b0381111561109257634e487b7160e01b600052604160045260246000fd5b6040519080825280602002602001820160405280156110bb578160200160208202803683370190505b50905060005b8381101561114b57611110868686848181106110ed57634e487b7160e01b600052603260045260246000fd5b905060200201356000908152600260209081526040808320938352929052205490565b82828151811061113057634e487b7160e01b600052603260045260246000fd5b602090810291909101015261114481614470565b90506110c1565b50949350505050565b6000818152600860205260408120546001600160a01b0316806108965760405162461bcd60e51b815260206004820152602960248201527f4552433732313a206f776e657220717565727920666f72206e6f6e657869737460448201526832b73a103a37b5b2b760b91b60648201526084016107e4565b6111e36000805160206144f8833981519152336114b0565b6111ff5760405162461bcd60e51b81526004016107e490614286565b61120d601280546001019055565b61121f8161121a60125490565b612337565b50565b833361122d82611154565b6001600160a01b0316146112535760405162461bcd60e51b81526004016107e4906141a1565b610f0c85858585612485565b60006001600160a01b0382166112ca5760405162461bcd60e51b815260206004820152602a60248201527f4552433732313a2062616c616e636520717565727920666f7220746865207a65604482015269726f206164647265737360b01b60648201526084016107e4565b506001600160a01b031660009081526009602052604090205490565b83336112f182611154565b6001600160a01b0316146113175760405162461bcd60e51b81526004016107e4906141a1565b610f0c858585856125c1565b336113318186868686610c8c565b6000600460008588604051602001611353929190918252602082015260400190565b6040516020818303038152906040528051906020012081526020019081526020016000206000868152602001908152602001600020549050828110156113ee5760405162461bcd60e51b815260206004820152602a60248201527f455243333636343a207472616e7366657220616d6f756e74206578636565647360448201526920616c6c6f77616e636560b01b60648201526084016107e4565b828103600460008689604051602001611411929190918252602082015260400190565b604051602081830303815290604052805190602001208152602001908152602001600020600087815260200190815260200160002081905550505050505050565b600082815260116020526040812061146a90836125cf565b9392505050565b6114896000805160206144f8833981519152336114b0565b6114a55760405162461bcd60e51b81526004016107e490614286565b6108db8383836125db565b60009182526010602090815260408084206001600160a01b0393909316845291905290205460ff1690565b60606007805461092e9061443b565b60008181526001602052604090206004015460609060ff166115635760405162461bcd60e51b815260206004820152602c60248201527f455243333636343a2055524920717565727920666f72206e6f6e65786973746560448201526b6e742061747472696275746560a01b60648201526084016107e4565b6000828152600160205260408120600301805461157f9061443b565b80601f01602080910402602001604051908101604052809291908181526020018280546115ab9061443b565b80156115f85780601f106115cd576101008083540402835291602001916115f8565b820191906000526020600020905b8154815290600101906020018083116115db57829003601f168201915b5050505050905060008151111561163b57806116138461286e565b604051602001611624929190613eb4565b604051602081830303815290604052915050919050565b60008080546116499061443b565b905011611665576040518060200160405280600081525061146a565b60006116708461286e565b604051602001611624929190613ee3565b50919050565b610ec7338383612987565b61169c3383611df2565b6116b85760405162461bcd60e51b81526004016107e490614235565b6116c484848484612a56565b50505050565b6000818152600860205260409020546060906001600160a01b03166117495760405162461bcd60e51b815260206004820152602f60248201527f4552433732314d657461646174613a2055524920717565727920666f72206e6f60448201526e3732bc34b9ba32b73a103a37b5b2b760891b60648201526084016107e4565b600061176060408051602081019091526000815290565b90506000815111611780576040518060200160405280600081525061146a565b806116138461286e565b600081815260116020526040812061089690612a89565b6117b96000805160206144f8833981519152336114b0565b6117d55760405162461bcd60e51b81526004016107e490614286565b61183289898080602002602001604051908101604052809392919081815260200183836020028082843760009201919091525061181892508a91508b9050614383565b6118228789614383565b8661182d8688614383565b612a93565b505050505050505050565b6000828152601060205260409020600101546118598133612094565b6108db83836121aa565b6000600460008386604051602001611885929190918252602082015260400190565b60405160208183030381529060405280519060200120815260200190815260200160002060008481526020019081526020016000205490509392505050565b6118dc6000805160206144f8833981519152336114b0565b6118f85760405162461bcd60e51b81526004016107e490614286565b6108db838383612cac565b61191b6000805160206144f8833981519152336114b0565b6119375760405162461bcd60e51b81526004016107e490614286565b600091825260136020526040909120805460ff1916911515919091179055565b60008181526001602052604081206004015460ff166119d15760405162461bcd60e51b815260206004820152603060248201527f455243333636343a20646563696d616c20717565727920666f72206e6f6e657860448201526f697374656e742061747472696275746560801b60648201526084016107e4565b5060009081526001602052604090206002015460ff1690565b6119f482826114b0565b610ec75760008281526010602090815260408083206001600160a01b03851684529091529020805460ff19166001179055611a2c3390565b6001600160a01b0316816001600160a01b0316837f2f8788117e7eff1d82e926ec794901d17c78024a50270940304540a733656f0d60405160405180910390a45050565b600061146a836001600160a01b038416612e68565b60006001600160e01b03198216635a05180f60e01b1480610896575061089682612eb7565b60008281526001602052604090206004015460ff16611b1b5760405162461bcd60e51b815260206004820152602760248201527f455243333636343a206d696e7420666f72206e6f6e6578697374656e742061746044820152667472696275746560c81b60648201526084016107e4565b6000339050611b3e8160008686866040518060200160405280600081525061211a565b60008381526005602052604081208054849290611b5c908490614321565b9091555050600083815260026020908152604080832087845290915281208054849290611b8a908490614321565b909155505060408051600081526020810186905290810183905283906001600160a01b038316907f73b5fbfbf0177b0de2ffe9fd0ae9887dd73d0d865db7ab5ff3c4a6b9bb8db1e3906060015b60405180910390a350505050565b60008281526001602052604090206004015460ff16611c565760405162461bcd60e51b815260206004820152602760248201527f455243333636343a206275726e20666f72206e6f6e6578697374656e742061746044820152667472696275746560c81b60648201526084016107e4565b6000828152600260209081526040808320868452909152902054611c8c5760405162461bcd60e51b81526004016107e4906141e8565b6000339050611caf8185600086866040518060200160405280600081525061211a565b600083815260026020908152604080832087845290915290205482811015611ce95760405162461bcd60e51b81526004016107e4906140b9565b611cf3838261436c565b6000858152600260209081526040808320898452825280832093909355868252600590529081208054859290611d2a90849061436c565b9091555050604080518681526000602082015290810184905284906001600160a01b038416907f73b5fbfbf0177b0de2ffe9fd0ae9887dd73d0d865db7ab5ff3c4a6b9bb8db1e39060600160405180910390a35050505050565b6000818152600a6020526040902080546001600160a01b0319166001600160a01b0384169081179091558190611db982611154565b6001600160a01b03167f8c5be1e5ebec7d5bd14f71427d1e84f3dd0314c0f7b2291e5b200ac8c7c3b92560405160405180910390a45050565b6000818152600860205260408120546001600160a01b0316611e6b5760405162461bcd60e51b815260206004820152602c60248201527f4552433732313a206f70657261746f7220717565727920666f72206e6f6e657860448201526b34b9ba32b73a103a37b5b2b760a11b60648201526084016107e4565b6000611e7683611154565b9050806001600160a01b0316846001600160a01b03161480611eb15750836001600160a01b0316611ea6846109b1565b6001600160a01b0316145b80611ee157506001600160a01b038082166000908152600b602090815260408083209388168352929052205460ff165b949350505050565b826001600160a01b0316611efc82611154565b6001600160a01b031614611f645760405162461bcd60e51b815260206004820152602960248201527f4552433732313a207472616e73666572206f6620746f6b656e2074686174206960448201526839903737ba1037bbb760b91b60648201526084016107e4565b6001600160a01b038216611fc65760405162461bcd60e51b8152602060048201526024808201527f4552433732313a207472616e7366657220746f20746865207a65726f206164646044820152637265737360e01b60648201526084016107e4565b611fd1838383612edc565b611fdc600082611d84565b6001600160a01b038316600090815260096020526040812080546001929061200590849061436c565b90915550506001600160a01b0382166000908152600960205260408120805460019290612033908490614321565b909155505060008181526008602052604080822080546001600160a01b0319166001600160a01b0386811691821790925591518493918716917fddf252ad1be2c89b69c2b068fc378daa952ba7f163c4a11628f55a4df523b3ef91a4505050565b61209e82826114b0565b610ec7576120b6816001600160a01b03166014612f94565b6120c1836020612f94565b6040516020016120d2929190613f89565b60408051601f198184030181529082905262461bcd60e51b82526107e49160040161406d565b61210282826119ea565b60008281526011602052604090206108db9082611a70565b6121326000805160206144f8833981519152876114b0565b8061214b575060008381526013602052604090205460ff165b6121a25760405162461bcd60e51b815260206004820152602260248201527f5765623344414f434e3a2041747472207472616e73666572206e6f7420616c6c6044820152616f7760f01b60648201526084016107e4565b505050505050565b6121b48282613175565b60008281526011602052604090206108db90826131dc565b60008581526001602052604090206004015460ff16156122385760405162461bcd60e51b815260206004820152602160248201527f455243333636343a2061747472696275746520616c72656164792065786973746044820152607360f81b60648201526084016107e4565b6040805160a081018252858152602080820186905260ff85168284015260608201849052600160808301819052600089815290825292909220815180519293849361228692849201906136bd565b50602082810151805161229f92600185019201906136bd565b50604082015160028201805460ff191660ff909216919091179055606082015180516122d59160038401916020909101906136bd565b50608091909101516004909101805460ff191691151591909117905560405186907fe3c3c9bbda1d6ccb059320eed92d395bd49272efb8a675a188a9d1b4e4da4ce29061232790889088908790614080565b60405180910390a2505050505050565b6001600160a01b03821661238d5760405162461bcd60e51b815260206004820181905260248201527f4552433732313a206d696e7420746f20746865207a65726f206164647265737360448201526064016107e4565b6000818152600860205260409020546001600160a01b0316156123f25760405162461bcd60e51b815260206004820152601c60248201527f4552433732313a20746f6b656e20616c7265616479206d696e7465640000000060448201526064016107e4565b6123fe60008383612edc565b6001600160a01b0382166000908152600960205260408120805460019290612427908490614321565b909155505060008181526008602052604080822080546001600160a01b0319166001600160a01b03861690811790915590518392907fddf252ad1be2c89b69c2b068fc378daa952ba7f163c4a11628f55a4df523b3ef908290a45050565b836124d25760405162461bcd60e51b815260206004820152601f60248201527f455243333636343a20617070726f76652066726f6d20746865207a65726f200060448201526064016107e4565b8261251f5760405162461bcd60e51b815260206004820152601d60248201527f455243333636343a20617070726f766520746f20746865207a65726f2000000060448201526064016107e4565b80600460008487604051602001612540929190918252602082015260400190565b60408051601f19818403018152918152815160209283012083528282019390935290820160009081208782528252829020929092558051868152918201859052818101849052606082018390525133917f4f3267cf1b4f4eda70a80ac65e00830cf370b07c616b8e687c172b69bb15a190919081900360800190a250505050565b33610f0c8186868686610c8c565b600061146a83836131f1565b80518251146125fc5760405162461bcd60e51b81526004016107e490614103565b3360005b8351811015612819576126758286600087858151811061263057634e487b7160e01b600052603260045260246000fd5b602002602001015187868151811061265857634e487b7160e01b600052603260045260246000fd5b60200260200101516040518060200160405280600081525061211a565b60006002600086848151811061269b57634e487b7160e01b600052603260045260246000fd5b6020026020010151815260200190815260200160002060008781526020019081526020016000205490508382815181106126e557634e487b7160e01b600052603260045260246000fd5b602002602001015181101561270c5760405162461bcd60e51b81526004016107e4906140b9565b83828151811061272c57634e487b7160e01b600052603260045260246000fd5b60200260200101518161273f919061436c565b6002600087858151811061276357634e487b7160e01b600052603260045260246000fd5b602002602001015181526020019081526020016000206000888152602001908152602001600020819055508382815181106127ae57634e487b7160e01b600052603260045260246000fd5b6020026020010151600560008785815181106127da57634e487b7160e01b600052603260045260246000fd5b6020026020010151815260200190815260200160002060008282546127ff919061436c565b90915550829150612811905081614470565b915050612600565b50826040516128289190613e7e565b6040518091039020816001600160a01b03167fbfb4d8e5891aebe97980c97616b6b0af2006a58ccabe6e1b7e3da24d0906a85686600086604051611bd79392919061404e565b6060816128925750506040805180820190915260018152600360fc1b602082015290565b8160005b81156128bc57806128a681614470565b91506128b59050600a83614339565b9150612896565b6000816001600160401b038111156128e457634e487b7160e01b600052604160045260246000fd5b6040519080825280601f01601f19166020018201604052801561290e576020820181803683370190505b5090505b8415611ee15761292360018361436c565b9150612930600a8661448b565b61293b906030614321565b60f81b81838151811061295e57634e487b7160e01b600052603260045260246000fd5b60200101906001600160f81b031916908160001a905350612980600a86614339565b9450612912565b816001600160a01b0316836001600160a01b031614156129e95760405162461bcd60e51b815260206004820152601960248201527f4552433732313a20617070726f766520746f2063616c6c65720000000000000060448201526064016107e4565b6001600160a01b038381166000818152600b6020908152604080832094871680845294825291829020805460ff191686151590811790915591519182527f17307eab39ab6107e8899845ad3d59bd9653f200f220920489ca2b5937696c31910160405180910390a3505050565b612a61848484611ee9565b612a6d84848484613229565b6116c45760405162461bcd60e51b81526004016107e49061414f565b6000610896825490565b8351855114612af75760405162461bcd60e51b815260206004820152602a60248201527f455243333636343a206174747249647320616e64206e616d6573206c656e67746044820152690d040dad2e6dac2e8c6d60b31b60648201526084016107e4565b8251845114612b5b5760405162461bcd60e51b815260206004820152602a60248201527f455243333636343a206e616d657320616e642073796d626f6c73206c656e67746044820152690d040dad2e6dac2e8c6d60b31b60648201526084016107e4565b8051835114612bbe5760405162461bcd60e51b815260206004820152602960248201527f455243333636343a2073796d626f6c7320616e642075726973206c656e677468604482015268040dad2e6dac2e8c6d60bb1b60648201526084016107e4565b60005b85518110156121a257612c9a868281518110612bed57634e487b7160e01b600052603260045260246000fd5b6020026020010151868381518110612c1557634e487b7160e01b600052603260045260246000fd5b6020026020010151868481518110612c3d57634e487b7160e01b600052603260045260246000fd5b6020026020010151868581518110612c6557634e487b7160e01b600052603260045260246000fd5b6020026020010151868681518110612c8d57634e487b7160e01b600052603260045260246000fd5b60200260200101516121cc565b80612ca481614470565b915050612bc1565b8051825114612ccd5760405162461bcd60e51b81526004016107e490614103565b3360005b8351811015612e1357612d018286600087858151811061263057634e487b7160e01b600052603260045260246000fd5b828181518110612d2157634e487b7160e01b600052603260045260246000fd5b602002602001015160056000868481518110612d4d57634e487b7160e01b600052603260045260246000fd5b602002602001015181526020019081526020016000206000828254612d729190614321565b92505081905550828181518110612d9957634e487b7160e01b600052603260045260246000fd5b602002602001015160026000868481518110612dc557634e487b7160e01b600052603260045260246000fd5b6020026020010151815260200190815260200160002060008781526020019081526020016000206000828254612dfb9190614321565b90915550819050612e0b81614470565b915050612cd1565b5082604051612e229190613e7e565b6040518091039020816001600160a01b03167fbfb4d8e5891aebe97980c97616b6b0af2006a58ccabe6e1b7e3da24d0906a85660008786604051611bd79392919061404e565b6000818152600183016020526040812054612eaf57508154600181810184556000848152602080822090930184905584548482528286019093526040902091909155610896565b506000610896565b60006001600160e01b03198216637965db0b60e01b1480610896575061089682613336565b6001600160a01b038316612f3757612f3281600e80546000838152600f60205260408120829055600182018355919091527fbb7b4a454dc3493923482f07822329ed19e8244eff582cc204f8554c3620c3fd0155565b612f5a565b816001600160a01b0316836001600160a01b031614612f5a57612f5a838261335b565b6001600160a01b038216612f71576108db816133f8565b826001600160a01b0316826001600160a01b0316146108db576108db82826134d1565b60606000612fa383600261434d565b612fae906002614321565b6001600160401b03811115612fd357634e487b7160e01b600052604160045260246000fd5b6040519080825280601f01601f191660200182016040528015612ffd576020820181803683370190505b509050600360fc1b8160008151811061302657634e487b7160e01b600052603260045260246000fd5b60200101906001600160f81b031916908160001a905350600f60fb1b8160018151811061306357634e487b7160e01b600052603260045260246000fd5b60200101906001600160f81b031916908160001a905350600061308784600261434d565b613092906001614321565b90505b6001811115613126576f181899199a1a9b1b9c1cb0b131b232b360811b85600f16601081106130d457634e487b7160e01b600052603260045260246000fd5b1a60f81b8282815181106130f857634e487b7160e01b600052603260045260246000fd5b60200101906001600160f81b031916908160001a90535060049490941c9361311f81614424565b9050613095565b50831561146a5760405162461bcd60e51b815260206004820181905260248201527f537472696e67733a20686578206c656e67746820696e73756666696369656e7460448201526064016107e4565b61317f82826114b0565b15610ec75760008281526010602090815260408083206001600160a01b0385168085529252808320805460ff1916905551339285917ff6391f5c32d9c69d2a47ea670b442974b53935d1edc7fd64eb21e047a839171b9190a45050565b600061146a836001600160a01b038416613515565b600082600001828154811061321657634e487b7160e01b600052603260045260246000fd5b9060005260206000200154905092915050565b60006001600160a01b0384163b1561332b57604051630a85bd0160e11b81526001600160a01b0385169063150b7a029061326d903390899088908890600401613ffe565b602060405180830381600087803b15801561328757600080fd5b505af19250505080156132b7575060408051601f3d908101601f191682019092526132b491810190613c12565b60015b613311573d8080156132e5576040519150601f19603f3d011682016040523d82523d6000602084013e6132ea565b606091505b5080516133095760405162461bcd60e51b81526004016107e49061414f565b805181602001fd5b6001600160e01b031916630a85bd0160e11b149050611ee1565b506001949350505050565b60006001600160e01b0319821663780e9d6360e01b1480610896575061089682613632565b600060016133688461125f565b613372919061436c565b6000838152600d60205260409020549091508082146133c5576001600160a01b0384166000908152600c602090815260408083208584528252808320548484528184208190558352600d90915290208190555b506000918252600d602090815260408084208490556001600160a01b039094168352600c81528383209183525290812055565b600e5460009061340a9060019061436c565b6000838152600f6020526040812054600e805493945090928490811061344057634e487b7160e01b600052603260045260246000fd5b9060005260206000200154905080600e838154811061346f57634e487b7160e01b600052603260045260246000fd5b6000918252602080832090910192909255828152600f9091526040808220849055858252812055600e8054806134b557634e487b7160e01b600052603160045260246000fd5b6001900381819060005260206000200160009055905550505050565b60006134dc8361125f565b6001600160a01b039093166000908152600c602090815260408083208684528252808320859055938252600d9052919091209190915550565b6000818152600183016020526040812054801561362857600061353960018361436c565b855490915060009061354d9060019061436c565b90508181146135ce57600086600001828154811061357b57634e487b7160e01b600052603260045260246000fd5b90600052602060002001549050808760000184815481106135ac57634e487b7160e01b600052603260045260246000fd5b6000918252602080832090910192909255918252600188019052604090208390555b85548690806135ed57634e487b7160e01b600052603160045260246000fd5b600190038181906000526020600020016000905590558560010160008681526020019081526020016000206000905560019350505050610896565b6000915050610896565b60006001600160e01b031982166380ac58cd60e01b148061366357506001600160e01b03198216635b5e139f60e01b145b8061089657506108968260006001600160e01b0319821663e4d993e160e01b148061369e57506001600160e01b03198216632658600760e01b145b8061089657506301ffc9a760e01b6001600160e01b0319831614610896565b8280546136c99061443b565b90600052602060002090601f0160209004810192826136eb5760008555613731565b82601f1061370457805160ff1916838001178555613731565b82800160010185558215613731579182015b82811115613731578251825591602001919060010190613716565b5061373d929150613741565b5090565b5b8082111561373d5760008155600101613742565b60006001600160401b0383111561376f5761376f6144cb565b613782601f8401601f19166020016142ce565b905082815283838301111561379657600080fd5b828260208301376000602084830101529392505050565b80356001600160a01b03811681146137c457600080fd5b919050565b60008083601f8401126137da578182fd5b5081356001600160401b038111156137f0578182fd5b6020830191508360208260051b850101111561380b57600080fd5b9250929050565b600082601f830112613822578081fd5b81356020613837613832836142fe565b6142ce565b80838252828201915082860187848660051b8901011115613856578586fd5b855b8581101561387457813584529284019290840190600101613858565b5090979650505050505050565b600082601f830112613891578081fd5b813560206138a1613832836142fe565b80838252828201915082860187848660051b89010111156138c0578586fd5b855b85811015613874576138d382613914565b845292840192908401906001016138c2565b803580151581146137c457600080fd5b600082601f830112613905578081fd5b61146a83833560208501613756565b803560ff811681146137c457600080fd5b600060208284031215613936578081fd5b61146a826137ad565b60008060408385031215613951578081fd5b61395a836137ad565b9150613968602084016137ad565b90509250929050565b600080600060608486031215613985578081fd5b61398e846137ad565b925061399c602085016137ad565b9150604084013590509250925092565b600080600080608085870312156139c1578081fd5b6139ca856137ad565b93506139d8602086016137ad565b92506040850135915060608501356001600160401b038111156139f9578182fd5b8501601f81018713613a09578182fd5b613a1887823560208401613756565b91505092959194509250565b60008060408385031215613a36578182fd5b613a3f836137ad565b9150613968602084016138e5565b60008060408385031215613a5f578182fd5b613a68836137ad565b946020939093013593505050565b600080600080600060a08688031215613a8d578283fd5b613a96866137ad565b97602087013597506040870135966060810135965060800135945092505050565b600080600080600080600080600060a08a8c031215613ad4578687fd5b89356001600160401b0380821115613aea578889fd5b613af68d838e016137c9565b909b50995060208c0135915080821115613b0e578889fd5b613b1a8d838e016137c9565b909950975060408c0135915080821115613b32578586fd5b613b3e8d838e016137c9565b909750955060608c0135915080821115613b56578485fd5b613b628d838e01613881565b945060808c0135915080821115613b77578384fd5b50613b848c828d016137c9565b915080935050809150509295985092959850929598565b600060208284031215613bac578081fd5b5035919050565b60008060408385031215613bc5578182fd5b82359150613968602084016137ad565b60008060408385031215613be7578182fd5b50508035926020909101359150565b600060208284031215613c07578081fd5b813561146a816144e1565b600060208284031215613c23578081fd5b815161146a816144e1565b600080600060408486031215613c42578081fd5b8335925060208401356001600160401b03811115613c5e578182fd5b613c6a868287016137c9565b9497909650939450505050565b600080600060608486031215613c8b578081fd5b8335925060208401356001600160401b0380821115613ca8578283fd5b613cb487838801613812565b93506040860135915080821115613cc9578283fd5b50613cd686828701613812565b9150509250925092565b60008060408385031215613cf2578182fd5b82359150613968602084016138e5565b600080600080600060a08688031215613d19578283fd5b8535945060208601356001600160401b0380821115613d36578485fd5b613d4289838a016138f5565b95506040880135915080821115613d57578485fd5b613d6389838a016138f5565b9450613d7160608901613914565b93506080880135915080821115613d86578283fd5b50613d93888289016138f5565b9150509295509295909350565b600080600060608486031215613db4578081fd5b505081359360208301359350604090920135919050565b60008060008060808587031215613de0578182fd5b5050823594602084013594506040840135936060013592509050565b6000815180845260208085019450808401835b83811015613e2b57815187529582019590820190600101613e0f565b509495945050505050565b60008151808452613e4e8160208601602086016143f8565b601f01601f19169290920160200192915050565b60008151613e748185602086016143f8565b9290920192915050565b815160009082906020808601845b83811015613ea857815185529382019390820190600101613e8c565b50929695505050505050565b60008351613ec68184602088016143f8565b835190830190613eda8183602088016143f8565b01949350505050565b600080845482600182811c915080831680613eff57607f831692505b6020808410821415613f1f57634e487b7160e01b87526022600452602487fd5b818015613f335760018114613f4457613f70565b60ff19861689528489019650613f70565b60008b815260209020885b86811015613f685781548b820152908501908301613f4f565b505084890196505b505050505050613f808185613e62565b95945050505050565b7f416363657373436f6e74726f6c3a206163636f756e7420000000000000000000815260008351613fc18160178501602088016143f8565b7001034b99036b4b9b9b4b733903937b6329607d1b6017918401918201528351613ff28160288401602088016143f8565b01602801949350505050565b6001600160a01b038581168252841660208201526040810183905260806060820181905260009061403190830184613e36565b9695505050505050565b60208152600061146a6020830184613dfc565b838152826020820152606060408201526000613f806060830184613dfc565b60208152600061146a6020830184613e36565b6060815260006140936060830186613e36565b82810360208401526140a58186613e36565b905082810360408401526140318185613e36565b6020808252602a908201527f455243333636343a20696e73756666696369656e742062616c616e636520666f60408201526939103a3930b739b332b960b11b606082015260800190565b6020808252602c908201527f455243333636343a206174747249647320616e6420616d6f756e7473206c656e60408201526b0cee8d040dad2e6dac2e8c6d60a31b606082015260800190565b60208082526032908201527f4552433732313a207472616e7366657220746f206e6f6e20455243373231526560408201527131b2b4bb32b91034b6b83632b6b2b73a32b960711b606082015260800190565b60208082526027908201527f5765623344414f434e3a2063616c6c6572206973206e6f7420746865206e6674604082015266103437b63232b960c91b606082015260800190565b6020808252602d908201527f455243333636343a20746f6b656e20686173206e6f742061747461636865642060408201526c7468652061747472696275746560981b606082015260800190565b60208082526031908201527f4552433732313a207472616e736665722063616c6c6572206973206e6f74206f6040820152701ddb995c881b9bdc88185c1c1c9bdd9959607a1b606082015260800190565b60208082526028908201527f5765623344414f434e3a206d7573742068617665206d696e74657220726f6c65604082015267081d1bc81b5a5b9d60c21b606082015260800190565b604051601f8201601f191681016001600160401b03811182821017156142f6576142f66144cb565b604052919050565b60006001600160401b03821115614317576143176144cb565b5060051b60200190565b600082198211156143345761433461449f565b500190565b600082614348576143486144b5565b500490565b60008160001904831182151516156143675761436761449f565b500290565b60008282101561437e5761437e61449f565b500390565b6000614391613832846142fe565b808482526020808301925084368760051b870111156143ae578485fd5b845b878110156143ec5781356001600160401b038111156143cd578687fd5b6143d936828a016138f5565b86525093820193908201906001016143b0565b50919695505050505050565b60005b838110156144135781810151838201526020016143fb565b838111156116c45750506000910152565b6000816144335761443361449f565b506000190190565b600181811c9082168061444f57607f821691505b6020821081141561168157634e487b7160e01b600052602260045260246000fd5b60006000198214156144845761448461449f565b5060010190565b60008261449a5761449a6144b5565b500690565b634e487b7160e01b600052601160045260246000fd5b634e487b7160e01b600052601260045260246000fd5b634e487b7160e01b600052604160045260246000fd5b6001600160e01b03198116811461121f57600080fdfe9f2df0fed2c77648de5860a4cc508cd0818c85b8b8a1ab4ceeef8d981c8956a6a26469706673582212204c627d89d185fdf6a2406ada53ac9921040cf9615eea193d8bd0c77c7ba820f564736f6c63430008040033",
  "linkReferences": {},
  "deployedLinkReferences": {}
}