{
  "_format": "hh-sol-artifact-1",
  "contractName": "DaoVault",
  "sourceName": "contracts/DaoVault.sol",
  "abi": [
    {
      "inputs": [
        {
          "internalType": "address",
          "name": "_WETH",
          "type": "address"
        }
      ],
      "stateMutability": "nonpayable",
      "type": "constructor"
    },
    {
      "anonymous": false,
      "inputs": [
        {
          "indexed": false,
          "internalType": "uint256",
          "name": "amount",
          "type": "uint256"
        }
      ],
      "name": "Deposit",
      "type": "event"
    },
    {
      "anonymous": false,
      "inputs": [
        {
          "indexed": true,
          "internalType": "address",
          "name": "previousOwner",
          "type": "address"
        },
        {
          "indexed": true,
          "internalType": "address",
          "name": "newOwner",
          "type": "address"
        }
      ],
      "name": "OwnershipTransferred",
      "type": "event"
    },
    {
      "anonymous": false,
      "inputs": [
        {
          "indexed": false,
          "internalType": "uint256",
          "name": "reserve",
          "type": "uint256"
        }
      ],
      "name": "UpdateReserve",
      "type": "event"
    },
    {
      "anonymous": false,
      "inputs": [
        {
          "indexed": false,
          "internalType": "uint256",
          "name": "amount",
          "type": "uint256"
        }
      ],
      "name": "Withdraw",
      "type": "event"
    },
    {
      "inputs": [],
      "name": "WETH",
      "outputs": [
        {
          "internalType": "address",
          "name": "",
          "type": "address"
        }
      ],
      "stateMutability": "view",
      "type": "function"
    },
    {
      "inputs": [
        {
          "internalType": "uint256",
          "name": "amount",
          "type": "uint256"
        }
      ],
      "name": "deposit",
      "outputs": [],
      "stateMutability": "nonpayable",
      "type": "function"
    },
    {
      "inputs": [],
      "name": "owner",
      "outputs": [
        {
          "internalType": "address",
          "name": "",
          "type": "address"
        }
      ],
      "stateMutability": "view",
      "type": "function"
    },
    {
      "inputs": [],
      "name": "renounceOwnership",
      "outputs": [],
      "stateMutability": "nonpayable",
      "type": "function"
    },
    {
      "inputs": [],
      "name": "reserve",
      "outputs": [
        {
          "internalType": "uint256",
          "name": "",
          "type": "uint256"
        }
      ],
      "stateMutability": "view",
      "type": "function"
    },
    {
      "inputs": [
        {
          "internalType": "address",
          "name": "newOwner",
          "type": "address"
        }
      ],
      "name": "transferOwnership",
      "outputs": [],
      "stateMutability": "nonpayable",
      "type": "function"
    },
    {
      "inputs": [],
      "name": "updateReserve",
      "outputs": [],
      "stateMutability": "nonpayable",
      "type": "function"
    },
    {
      "inputs": [
        {
          "internalType": "uint256",
          "name": "amount",
          "type": "uint256"
        },
        {
          "internalType": "address",
          "name": "to",
          "type": "address"
        }
      ],
      "name": "withdraw",
      "outputs": [],
      "stateMutability": "nonpayable",
      "type": "function"
    }
  ],
  "bytecode": "0x60a060405234801561001057600080fd5b50604051610afd380380610afd83398101604081905261002f9161009d565b6100383361004d565b60601b6001600160601b0319166080526100cb565b600080546001600160a01b038381166001600160a01b0319831681178455604051919092169283917f8be0079c531659141344cd1fd0a4f28419497f9722a3daafe3b4186f6b6457e09190a35050565b6000602082840312156100ae578081fd5b81516001600160a01b03811681146100c4578182fd5b9392505050565b60805160601c6109f96101046000396000818160d801528181610189015281816102a70152818161037501526104d101526109f96000f3fe608060405234801561001057600080fd5b50600436106100875760003560e01c8063b6b55f251161005b578063b6b55f25146100fa578063bac051ad1461010d578063cd3293de14610115578063f2fde38b1461012c57600080fd5b8062f714ce1461008c578063715018a6146100a15780638da5cb5b146100a9578063ad5c4648146100d3575b600080fd5b61009f61009a36600461089f565b61013f565b005b61009f61031c565b6000546001600160a01b03165b6040516001600160a01b0390911681526020015b60405180910390f35b6100b67f000000000000000000000000000000000000000000000000000000000000000081565b61009f61010836600461086f565b610352565b61009f610492565b61011e60015481565b6040519081526020016100ca565b61009f61013a366004610855565b61058d565b6000546001600160a01b031633146101725760405162461bcd60e51b815260040161016990610919565b60405180910390fd5b6040516370a0823160e01b815230600482015282907f00000000000000000000000000000000000000000000000000000000000000006001600160a01b0316906370a082319060240160206040518083038186803b1580156101d357600080fd5b505afa1580156101e7573d6000803e3d6000fd5b505050506040513d601f19601f8201168201806040525081019061020b9190610887565b10156102595760405162461bcd60e51b815260206004820152601a60248201527f44616f5661756c743a6e6f20656e6f7567682062616c616e63650000000000006044820152606401610169565b604080516001600160a01b03838116602483015260448083018690528351808403909101815260649092019092526020810180516001600160e01b031663a9059cbb60e01b1790526102cd917f00000000000000000000000000000000000000000000000000000000000000001690610628565b5081600160008282546102e09190610966565b90915550506040518281527f5b6b431d4476a211bb7d41c20d1aab9ae2321deee0d20be3d9fc9b1093fa6e3d9060200160405180910390a15050565b6000546001600160a01b031633146103465760405162461bcd60e51b815260040161016990610919565b6103506000610671565b565b80600154610360919061094e565b6040516370a0823160e01b81523060048201527f00000000000000000000000000000000000000000000000000000000000000006001600160a01b0316906370a082319060240160206040518083038186803b1580156103bf57600080fd5b505afa1580156103d3573d6000803e3d6000fd5b505050506040513d601f19601f820116820180604052508101906103f79190610887565b10156104455760405162461bcd60e51b815260206004820152601960248201527f44616f5661756c743a6e6f20656e6f75676820616d6f756e74000000000000006044820152606401610169565b8060016000828254610457919061094e565b90915550506040518181527f4d6ce1e535dbade1c23defba91e23b8f791ce5edc0cc320257a2b364e4e384269060200160405180910390a150565b6000546001600160a01b031633146104bc5760405162461bcd60e51b815260040161016990610919565b6040516370a0823160e01b81523060048201527f00000000000000000000000000000000000000000000000000000000000000006001600160a01b0316906370a082319060240160206040518083038186803b15801561051b57600080fd5b505afa15801561052f573d6000803e3d6000fd5b505050506040513d601f19601f820116820180604052508101906105539190610887565b60018190556040519081527fb2209630cc27a5f36fad66f0e873c886ed480b2fb7613885f5914d723acd74729060200160405180910390a1565b6000546001600160a01b031633146105b75760405162461bcd60e51b815260040161016990610919565b6001600160a01b03811661061c5760405162461bcd60e51b815260206004820152602660248201527f4f776e61626c653a206e6577206f776e657220697320746865207a65726f206160448201526564647265737360d01b6064820152608401610169565b61062581610671565b50565b606061066a83836040518060400160405280601e81526020017f416464726573733a206c6f772d6c6576656c2063616c6c206661696c656400008152506106c1565b9392505050565b600080546001600160a01b038381166001600160a01b0319831681178455604051919092169283917f8be0079c531659141344cd1fd0a4f28419497f9722a3daafe3b4186f6b6457e09190a35050565b60606106d084846000856106d8565b949350505050565b6060824710156107395760405162461bcd60e51b815260206004820152602660248201527f416464726573733a20696e73756666696369656e742062616c616e636520666f6044820152651c8818d85b1b60d21b6064820152608401610169565b843b6107875760405162461bcd60e51b815260206004820152601d60248201527f416464726573733a2063616c6c20746f206e6f6e2d636f6e74726163740000006044820152606401610169565b600080866001600160a01b031685876040516107a391906108ca565b60006040518083038185875af1925050503d80600081146107e0576040519150601f19603f3d011682016040523d82523d6000602084013e6107e5565b606091505b50915091506107f5828286610800565b979650505050505050565b6060831561080f57508161066a565b82511561081f5782518084602001fd5b8160405162461bcd60e51b815260040161016991906108e6565b80356001600160a01b038116811461085057600080fd5b919050565b600060208284031215610866578081fd5b61066a82610839565b600060208284031215610880578081fd5b5035919050565b600060208284031215610898578081fd5b5051919050565b600080604083850312156108b1578081fd5b823591506108c160208401610839565b90509250929050565b600082516108dc81846020870161097d565b9190910192915050565b602081526000825180602084015261090581604085016020870161097d565b601f01601f19169190910160400192915050565b6020808252818101527f4f776e61626c653a2063616c6c6572206973206e6f7420746865206f776e6572604082015260600190565b60008219821115610961576109616109ad565b500190565b600082821015610978576109786109ad565b500390565b60005b83811015610998578181015183820152602001610980565b838111156109a7576000848401525b50505050565b634e487b7160e01b600052601160045260246000fdfea2646970667358221220078e6eaf8d3c66420fd50fb4a18abbb71c13d5c6fc23a5fd6278dcf4f22d560364736f6c63430008040033",
  "linkReferences": {},
  "deployedLinkReferences": {}
}