{
  "_format": "hh-sol-artifact-1",
  "contractName": "DaoTreasury",
  "sourceName": "contracts/DaoTreasury.sol",
  "abi": [
    {
      "inputs": [
        {
          "internalType": "address",
          "name": "_WEB3DAONFT",
          "type": "address"
        },
        {
          "internalType": "address",
          "name": "_WETH",
          "type": "address"
        },
        {
          "internalType": "uint256",
          "name": "_GAS_ATTR_ID",
          "type": "uint256"
        }
      ],
      "stateMutability": "nonpayable",
      "type": "constructor"
    },
    {
      "anonymous": false,
      "inputs": [
        {
          "indexed": false,
          "internalType": "uint256",
          "name": "gasAmount",
          "type": "uint256"
        }
      ],
      "name": "BurnGas",
      "type": "event"
    },
    {
      "anonymous": false,
      "inputs": [
        {
          "indexed": false,
          "internalType": "uint256",
          "name": "gasAmount",
          "type": "uint256"
        }
      ],
      "name": "BuyGas",
      "type": "event"
    },
    {
      "anonymous": false,
      "inputs": [
        {
          "indexed": true,
          "internalType": "address",
          "name": "commitee",
          "type": "address"
        }
      ],
      "name": "CommiteeAddition",
      "type": "event"
    },
    {
      "anonymous": false,
      "inputs": [
        {
          "indexed": true,
          "internalType": "address",
          "name": "commitee",
          "type": "address"
        }
      ],
      "name": "CommiteeRemoval",
      "type": "event"
    },
    {
      "anonymous": false,
      "inputs": [
        {
          "indexed": true,
          "internalType": "address",
          "name": "sender",
          "type": "address"
        },
        {
          "indexed": true,
          "internalType": "uint256",
          "name": "transactionId",
          "type": "uint256"
        }
      ],
      "name": "Confirmation",
      "type": "event"
    },
    {
      "anonymous": false,
      "inputs": [
        {
          "indexed": true,
          "internalType": "uint256",
          "name": "transactionId",
          "type": "uint256"
        }
      ],
      "name": "Execution",
      "type": "event"
    },
    {
      "anonymous": false,
      "inputs": [
        {
          "indexed": true,
          "internalType": "uint256",
          "name": "transactionId",
          "type": "uint256"
        }
      ],
      "name": "ExecutionFailure",
      "type": "event"
    },
    {
      "anonymous": false,
      "inputs": [
        {
          "indexed": true,
          "internalType": "uint256",
          "name": "transactionId",
          "type": "uint256"
        }
      ],
      "name": "ExecutionSuccess",
      "type": "event"
    },
    {
      "anonymous": false,
      "inputs": [
        {
          "indexed": false,
          "internalType": "uint256",
          "name": "gasAmount",
          "type": "uint256"
        }
      ],
      "name": "MintGas",
      "type": "event"
    },
    {
      "anonymous": false,
      "inputs": [
        {
          "indexed": false,
          "internalType": "uint256",
          "name": "required",
          "type": "uint256"
        }
      ],
      "name": "RequirementChange",
      "type": "event"
    },
    {
      "anonymous": false,
      "inputs": [
        {
          "indexed": true,
          "internalType": "address",
          "name": "sender",
          "type": "address"
        },
        {
          "indexed": true,
          "internalType": "uint256",
          "name": "transactionId",
          "type": "uint256"
        }
      ],
      "name": "Revocation",
      "type": "event"
    },
    {
      "anonymous": false,
      "inputs": [
        {
          "indexed": false,
          "internalType": "uint256",
          "name": "gasAmount",
          "type": "uint256"
        }
      ],
      "name": "SellGas",
      "type": "event"
    },
    {
      "anonymous": false,
      "inputs": [
        {
          "indexed": false,
          "internalType": "address",
          "name": "_DaoSponsor",
          "type": "address"
        }
      ],
      "name": "SetDaoSponsor",
      "type": "event"
    },
    {
      "anonymous": false,
      "inputs": [
        {
          "indexed": false,
          "internalType": "address",
          "name": "_DaoVault",
          "type": "address"
        }
      ],
      "name": "SetDaoVault",
      "type": "event"
    },
    {
      "anonymous": false,
      "inputs": [
        {
          "indexed": false,
          "internalType": "uint256",
          "name": "_gasAttrPrice",
          "type": "uint256"
        }
      ],
      "name": "SetGasAttrPrice",
      "type": "event"
    },
    {
      "anonymous": false,
      "inputs": [
        {
          "indexed": false,
          "internalType": "uint256",
          "name": "_gasTax",
          "type": "uint256"
        }
      ],
      "name": "SetGasTax",
      "type": "event"
    },
    {
      "anonymous": false,
      "inputs": [
        {
          "indexed": false,
          "internalType": "uint256",
          "name": "_holdNFTId",
          "type": "uint256"
        }
      ],
      "name": "SetHoldNFTId",
      "type": "event"
    },
    {
      "anonymous": false,
      "inputs": [
        {
          "indexed": false,
          "internalType": "uint256",
          "name": "_maxDebt",
          "type": "uint256"
        }
      ],
      "name": "SetMaxDebt",
      "type": "event"
    },
    {
      "anonymous": false,
      "inputs": [
        {
          "indexed": true,
          "internalType": "uint256",
          "name": "transactionId",
          "type": "uint256"
        }
      ],
      "name": "Submission",
      "type": "event"
    },
    {
      "inputs": [],
      "name": "DaoSponsor",
      "outputs": [
        {
          "internalType": "address",
          "name": "",
          "type": "address"
        }
      ],
      "stateMutability": "view",
      "type": "function"
    },
    {
      "inputs": [],
      "name": "DaoVault",
      "outputs": [
        {
          "internalType": "address",
          "name": "",
          "type": "address"
        }
      ],
      "stateMutability": "view",
      "type": "function"
    },
    {
      "inputs": [],
      "name": "GAS_ATTR_ID",
      "outputs": [
        {
          "internalType": "uint256",
          "name": "",
          "type": "uint256"
        }
      ],
      "stateMutability": "view",
      "type": "function"
    },
    {
      "inputs": [],
      "name": "MAX_COMMITEE_COUNT",
      "outputs": [
        {
          "internalType": "uint256",
          "name": "",
          "type": "uint256"
        }
      ],
      "stateMutability": "view",
      "type": "function"
    },
    {
      "inputs": [],
      "name": "WEB3DAONFT",
      "outputs": [
        {
          "internalType": "address",
          "name": "",
          "type": "address"
        }
      ],
      "stateMutability": "view",
      "type": "function"
    },
    {
      "inputs": [],
      "name": "WETH",
      "outputs": [
        {
          "internalType": "address",
          "name": "",
          "type": "address"
        }
      ],
      "stateMutability": "view",
      "type": "function"
    },
    {
      "inputs": [
        {
          "internalType": "address",
          "name": "commitee",
          "type": "address"
        }
      ],
      "name": "addCommitee",
      "outputs": [],
      "stateMutability": "nonpayable",
      "type": "function"
    },
    {
      "inputs": [
        {
          "internalType": "uint256",
          "name": "tokenId",
          "type": "uint256"
        },
        {
          "internalType": "uint256",
          "name": "gasAmount",
          "type": "uint256"
        }
      ],
      "name": "borrowGas",
      "outputs": [],
      "stateMutability": "nonpayable",
      "type": "function"
    },
    {
      "inputs": [
        {
          "internalType": "uint256",
          "name": "gasAmount",
          "type": "uint256"
        }
      ],
      "name": "burnGas",
      "outputs": [],
      "stateMutability": "nonpayable",
      "type": "function"
    },
    {
      "inputs": [
        {
          "internalType": "uint256",
          "name": "tokenId",
          "type": "uint256"
        },
        {
          "internalType": "uint256",
          "name": "ethAmount",
          "type": "uint256"
        }
      ],
      "name": "buyGas",
      "outputs": [],
      "stateMutability": "nonpayable",
      "type": "function"
    },
    {
      "inputs": [
        {
          "internalType": "uint256",
          "name": "_required",
          "type": "uint256"
        }
      ],
      "name": "changeRequirement",
      "outputs": [],
      "stateMutability": "nonpayable",
      "type": "function"
    },
    {
      "inputs": [
        {
          "internalType": "uint256",
          "name": "",
          "type": "uint256"
        }
      ],
      "name": "commitees",
      "outputs": [
        {
          "internalType": "address",
          "name": "",
          "type": "address"
        }
      ],
      "stateMutability": "view",
      "type": "function"
    },
    {
      "inputs": [
        {
          "internalType": "uint256",
          "name": "transactionId",
          "type": "uint256"
        }
      ],
      "name": "confirmTransaction",
      "outputs": [],
      "stateMutability": "nonpayable",
      "type": "function"
    },
    {
      "inputs": [
        {
          "internalType": "uint256",
          "name": "",
          "type": "uint256"
        },
        {
          "internalType": "address",
          "name": "",
          "type": "address"
        }
      ],
      "name": "confirmations",
      "outputs": [
        {
          "internalType": "bool",
          "name": "",
          "type": "bool"
        }
      ],
      "stateMutability": "view",
      "type": "function"
    },
    {
      "inputs": [],
      "name": "debt",
      "outputs": [
        {
          "internalType": "uint256",
          "name": "",
          "type": "uint256"
        }
      ],
      "stateMutability": "view",
      "type": "function"
    },
    {
      "inputs": [],
      "name": "gasAttrPrice",
      "outputs": [
        {
          "internalType": "uint256",
          "name": "",
          "type": "uint256"
        }
      ],
      "stateMutability": "view",
      "type": "function"
    },
    {
      "inputs": [],
      "name": "gasTax",
      "outputs": [
        {
          "internalType": "uint256",
          "name": "",
          "type": "uint256"
        }
      ],
      "stateMutability": "view",
      "type": "function"
    },
    {
      "inputs": [],
      "name": "getCommitees",
      "outputs": [
        {
          "internalType": "address[]",
          "name": "",
          "type": "address[]"
        }
      ],
      "stateMutability": "view",
      "type": "function"
    },
    {
      "inputs": [
        {
          "internalType": "uint256",
          "name": "transactionId",
          "type": "uint256"
        }
      ],
      "name": "getConfirmationCount",
      "outputs": [
        {
          "internalType": "uint256",
          "name": "count",
          "type": "uint256"
        }
      ],
      "stateMutability": "view",
      "type": "function"
    },
    {
      "inputs": [
        {
          "internalType": "uint256",
          "name": "transactionId",
          "type": "uint256"
        }
      ],
      "name": "getConfirmations",
      "outputs": [
        {
          "internalType": "address[]",
          "name": "_confirmations",
          "type": "address[]"
        }
      ],
      "stateMutability": "view",
      "type": "function"
    },
    {
      "inputs": [],
      "name": "holdNFTId",
      "outputs": [
        {
          "internalType": "uint256",
          "name": "",
          "type": "uint256"
        }
      ],
      "stateMutability": "view",
      "type": "function"
    },
    {
      "inputs": [
        {
          "internalType": "address",
          "name": "",
          "type": "address"
        }
      ],
      "name": "isCommitee",
      "outputs": [
        {
          "internalType": "bool",
          "name": "",
          "type": "bool"
        }
      ],
      "stateMutability": "view",
      "type": "function"
    },
    {
      "inputs": [
        {
          "internalType": "uint256",
          "name": "transactionId",
          "type": "uint256"
        }
      ],
      "name": "isConfirmed",
      "outputs": [
        {
          "internalType": "bool",
          "name": "ret",
          "type": "bool"
        }
      ],
      "stateMutability": "view",
      "type": "function"
    },
    {
      "inputs": [],
      "name": "max",
      "outputs": [
        {
          "internalType": "uint256",
          "name": "",
          "type": "uint256"
        }
      ],
      "stateMutability": "view",
      "type": "function"
    },
    {
      "inputs": [],
      "name": "maxDebt",
      "outputs": [
        {
          "internalType": "uint256",
          "name": "",
          "type": "uint256"
        }
      ],
      "stateMutability": "view",
      "type": "function"
    },
    {
      "inputs": [
        {
          "internalType": "uint256",
          "name": "gasAmount",
          "type": "uint256"
        }
      ],
      "name": "mintGas",
      "outputs": [],
      "stateMutability": "nonpayable",
      "type": "function"
    },
    {
      "inputs": [
        {
          "internalType": "address",
          "name": "operator",
          "type": "address"
        },
        {
          "internalType": "address",
          "name": "from",
          "type": "address"
        },
        {
          "internalType": "uint256",
          "name": "tokenId",
          "type": "uint256"
        },
        {
          "internalType": "bytes",
          "name": "data",
          "type": "bytes"
        }
      ],
      "name": "onERC721Received",
      "outputs": [
        {
          "internalType": "bytes4",
          "name": "",
          "type": "bytes4"
        }
      ],
      "stateMutability": "pure",
      "type": "function"
    },
    {
      "inputs": [
        {
          "internalType": "uint256",
          "name": "tokenId",
          "type": "uint256"
        },
        {
          "internalType": "uint256",
          "name": "sponsorAmount",
          "type": "uint256"
        }
      ],
      "name": "quit",
      "outputs": [],
      "stateMutability": "nonpayable",
      "type": "function"
    },
    {
      "inputs": [
        {
          "internalType": "address",
          "name": "commitee",
          "type": "address"
        }
      ],
      "name": "removeCommitee",
      "outputs": [],
      "stateMutability": "nonpayable",
      "type": "function"
    },
    {
      "inputs": [
        {
          "internalType": "address",
          "name": "commitee",
          "type": "address"
        },
        {
          "internalType": "address",
          "name": "newCommitee",
          "type": "address"
        }
      ],
      "name": "replaceCommitee",
      "outputs": [],
      "stateMutability": "nonpayable",
      "type": "function"
    },
    {
      "inputs": [],
      "name": "required",
      "outputs": [
        {
          "internalType": "uint256",
          "name": "",
          "type": "uint256"
        }
      ],
      "stateMutability": "view",
      "type": "function"
    },
    {
      "inputs": [
        {
          "internalType": "uint256",
          "name": "tokenId",
          "type": "uint256"
        },
        {
          "internalType": "uint256",
          "name": "gasAmount",
          "type": "uint256"
        }
      ],
      "name": "returnGas",
      "outputs": [],
      "stateMutability": "nonpayable",
      "type": "function"
    },
    {
      "inputs": [
        {
          "internalType": "uint256",
          "name": "transactionId",
          "type": "uint256"
        }
      ],
      "name": "revokeConfirmation",
      "outputs": [],
      "stateMutability": "nonpayable",
      "type": "function"
    },
    {
      "inputs": [
        {
          "internalType": "uint256",
          "name": "tokenId",
          "type": "uint256"
        },
        {
          "internalType": "uint256",
          "name": "gasAmount",
          "type": "uint256"
        }
      ],
      "name": "sellGas",
      "outputs": [],
      "stateMutability": "nonpayable",
      "type": "function"
    },
    {
      "inputs": [
        {
          "internalType": "address",
          "name": "_DaoSponsor",
          "type": "address"
        }
      ],
      "name": "setDaoSponsor",
      "outputs": [],
      "stateMutability": "nonpayable",
      "type": "function"
    },
    {
      "inputs": [
        {
          "internalType": "address",
          "name": "_DaoVault",
          "type": "address"
        }
      ],
      "name": "setDaoVault",
      "outputs": [],
      "stateMutability": "nonpayable",
      "type": "function"
    },
    {
      "inputs": [
        {
          "internalType": "uint256",
          "name": "_gasAttrPrice",
          "type": "uint256"
        }
      ],
      "name": "setGasAttrPrice",
      "outputs": [],
      "stateMutability": "nonpayable",
      "type": "function"
    },
    {
      "inputs": [
        {
          "internalType": "uint256",
          "name": "_gasTax",
          "type": "uint256"
        }
      ],
      "name": "setGasTax",
      "outputs": [],
      "stateMutability": "nonpayable",
      "type": "function"
    },
    {
      "inputs": [
        {
          "internalType": "uint256",
          "name": "_holdNFTId",
          "type": "uint256"
        }
      ],
      "name": "setHoldNFTId",
      "outputs": [],
      "stateMutability": "nonpayable",
      "type": "function"
    },
    {
      "inputs": [
        {
          "internalType": "uint256",
          "name": "_maxDebt",
          "type": "uint256"
        }
      ],
      "name": "setMaxDebt",
      "outputs": [],
      "stateMutability": "nonpayable",
      "type": "function"
    },
    {
      "inputs": [
        {
          "internalType": "uint256",
          "name": "tokenId",
          "type": "uint256"
        },
        {
          "internalType": "uint256",
          "name": "ethAmount",
          "type": "uint256"
        }
      ],
      "name": "sponsor",
      "outputs": [],
      "stateMutability": "nonpayable",
      "type": "function"
    },
    {
      "inputs": [
        {
          "internalType": "address",
          "name": "destination",
          "type": "address"
        },
        {
          "internalType": "bytes",
          "name": "data",
          "type": "bytes"
        }
      ],
      "name": "submitTransaction",
      "outputs": [
        {
          "internalType": "uint256",
          "name": "transactionId",
          "type": "uint256"
        }
      ],
      "stateMutability": "nonpayable",
      "type": "function"
    },
    {
      "inputs": [],
      "name": "transactionCount",
      "outputs": [
        {
          "internalType": "uint256",
          "name": "",
          "type": "uint256"
        }
      ],
      "stateMutability": "view",
      "type": "function"
    },
    {
      "inputs": [
        {
          "internalType": "uint256",
          "name": "",
          "type": "uint256"
        }
      ],
      "name": "transactions",
      "outputs": [
        {
          "internalType": "address",
          "name": "destination",
          "type": "address"
        },
        {
          "internalType": "bytes",
          "name": "data",
          "type": "bytes"
        },
        {
          "internalType": "bool",
          "name": "executed",
          "type": "bool"
        }
      ],
      "stateMutability": "view",
      "type": "function"
    },
    {
      "inputs": [
        {
          "internalType": "address",
          "name": "token",
          "type": "address"
        },
        {
          "internalType": "address",
          "name": "to",
          "type": "address"
        },
        {
          "internalType": "uint256",
          "name": "tokenId",
          "type": "uint256"
        }
      ],
      "name": "transferNFT",
      "outputs": [],
      "stateMutability": "nonpayable",
      "type": "function"
    }
  ],
  "bytecode": "0x60e06040526065600055612710600955611388600b556064600c553480156200002757600080fd5b506040516200343d3803806200343d8339810160408190526200004a91620000ec565b336000818152600360205260408120805460ff1916600190811790915560048054808301825592527f8a35acfbc15ff81a39ae7d344fd709f28e8600b4aa8c65c6b64bfe7fe36bd19b90910180546001600160a01b0319169092179091556005556001600160601b0319606093841b81166080529190921b1660a05260c0526200012c565b80516001600160a01b0381168114620000e757600080fd5b919050565b60008060006060848603121562000101578283fd5b6200010c84620000cf565b92506200011c60208501620000cf565b9150604084015190509250925092565b60805160601c60a05160601c60c05161325d620001e060003960008181610626015281816109a701528181610b94015281816112450152818161146701528181611a7d0152611c0f0152600081816104ed01526113ad01526000818161054d015281816109d401528181610ab801528181610bc101528181610dfc015281816110b30152818161127201528181611434015281816118eb01528181611aaa01528181611b030152611bdc015261325d6000f3fe608060405234801561001057600080fd5b506004361061027f5760003560e01c8063947fdb8b1161015c578063bbf1b2f1116100ce578063f10f377611610087578063f10f3776146105e9578063f4a37d69146105f2578063f5bc5dcb14610605578063f7faafa01461060e578063f848231314610621578063ffd06e051461064857600080fd5b8063bbf1b2f11461058b578063c01a8c841461059e578063c60abbf4146105b1578063d0064c00146105c4578063d5120724146105cd578063dc8452cd146105e057600080fd5b8063ae3d804011610120578063ae3d80401461050f578063b09e7bf114610522578063b5dc40c314610535578063b7627eee14610548578063b77bf6001461056f578063ba51a6df1461057857600080fd5b8063947fdb8b1461048d57806398b8c4e1146104a05780639ace38c2146104b3578063a123678f146104d5578063ad5c4648146104e857600080fd5b806369e9cae1116101f55780637897590e116101b95780637897590e14610409578063823349921461041e57806384c8a0ec146104415780638b51d13f146104545780638b60d7ef14610467578063901b8cb31461047a57600080fd5b806369e9cae11461039c5780636ac5db19146103af5780636f6cc704146103b8578063772338d1146103e3578063784547a7146103f657600080fd5b80634248fe23116102475780634248fe231461033e5780634ad5d16f146103515780634b799db1146103645780634d317f1a1461037757806363dbc756146103805780636526941b1461038957600080fd5b806302183adc146102845780630dca59c114610299578063150b7a02146102b557806320ea8d86146102ed5780633411c81c14610300575b600080fd5b610297610292366004612dba565b61065b565b005b6102a2600a5481565b6040519081526020015b60405180910390f35b6102d46102c3366004612c41565b630a85bd0160e11b95945050505050565b6040516001600160e01b031990911681526020016102ac565b6102976102fb366004612dba565b6106bf565b61032e61030e366004612dea565b600260209081526000928352604080842090915290825290205460ff1681565b60405190151581526020016102ac565b61029761034c366004612dba565b61080e565b61029761035f366004612dba565b610a76565b610297610372366004612b91565b610c62565b6102a2600d5481565b6102a2600c5481565b610297610397366004612dba565b610ccf565b6102976103aa366004612c01565b610d23565b6102a261271081565b6103cb6103c6366004612dba565b610db0565b6040516001600160a01b0390911681526020016102ac565b6102976103f1366004612e0e565b610dda565b61032e610404366004612dba565b610f8b565b61041161102f565b6040516102ac9190612f48565b61032e61042c366004612b91565b60036020526000908152604090205460ff1681565b61029761044f366004612e0e565b611091565b6102a2610462366004612dba565b6112a9565b6008546103cb906001600160a01b031681565b610297610488366004612e0e565b61133d565b61029761049b366004612e0e565b611528565b6007546103cb906001600160a01b031681565b6104c66104c1366004612dba565b611628565b6040516102ac93929190612f12565b6102976104e3366004612bc9565b6116e1565b6103cb7f000000000000000000000000000000000000000000000000000000000000000081565b61029761051d366004612e0e565b6118c9565b610297610530366004612e0e565b611ae1565b610411610543366004612dba565b611d40565b6103cb7f000000000000000000000000000000000000000000000000000000000000000081565b6102a260065481565b610297610586366004612dba565b611f79565b6102a2610599366004612cdb565b612016565b6102976105ac366004612dba565b612064565b6102976105bf366004612b91565b6121ce565b6102a2600b5481565b6102976105db366004612b91565b612362565b6102a260055481565b6102a260005481565b610297610600366004612dba565b612577565b6102a260095481565b61029761061c366004612b91565b6125cb565b6102a27f000000000000000000000000000000000000000000000000000000000000000081565b610297610656366004612dba565b612638565b3330146106835760405162461bcd60e51b815260040161067a90613076565b60405180910390fd5b600d8190556040518181527f55a5e1d249e83893696c844d494d73176f25b5c5bd89ba7fe9e959bdc58a5b50906020015b60405180910390a150565b3360008181526003602052604090205460ff166106ee5760405162461bcd60e51b815260040161067a906130c0565b60008281526002602090815260408083203380855292529091205483919060ff1661075b5760405162461bcd60e51b815260206004820152601b60248201527f4d756c74695369676e20636f6e6669726d65642829204572726f720000000000604482015260640161067a565b600084815260016020526040902060020154849060ff16156107bf5760405162461bcd60e51b815260206004820152601d60248201527f4d756c74695369676e206e6f7445786563757465642829204572726f72000000604482015260640161067a565b6000858152600260209081526040808320338085529252808320805460ff191690555187927ff6a317157440607f36269043eb55f1287a5a19ba2216afeab88cd46cbcfb88e991a35050505050565b60095460009061082683670de0b6b3a764000061312d565b610830919061310d565b90506000600760009054906101000a90046001600160a01b03166001600160a01b031663cd3293de6040518163ffffffff1660e01b815260040160206040518083038186803b15801561088257600080fd5b505afa158015610896573d6000803e3d6000fd5b505050506040513d601f19601f820116820180604052508101906108ba9190612dd2565b9050612710600b54670de0b6b3a76400006108d5919061312d565b6108df919061310d565b8183600a54670de0b6b3a76400006108f7919061312d565b61090191906130f5565b61090b919061310d565b11156109655760405162461bcd60e51b8152602060048201526024808201527f44616f54726561737572793a2064656274206d6f7265207468616e206d6178206044820152631919589d60e21b606482015260840161067a565b610977670de0b6b3a76400008361310d565b600a600082825461098891906130f5565b9091555050600d546040516302acc94b60e01b815260048101919091527f00000000000000000000000000000000000000000000000000000000000000006024820152604481018490527f00000000000000000000000000000000000000000000000000000000000000006001600160a01b0316906302acc94b90606401600060405180830381600087803b158015610a2057600080fd5b505af1158015610a34573d6000803e3d6000fd5b505050507fda87e68ba91e11c70943f7ee6cbf049266c95d1ccb820f7199c17e428036574283604051610a6991815260200190565b60405180910390a1505050565b333014610a955760405162461bcd60e51b815260040161067a90613076565b600d546040516331a9108f60e11b81526004810182905233906001600160a01b037f00000000000000000000000000000000000000000000000000000000000000001690636352211e9060240160206040518083038186803b158015610afa57600080fd5b505afa158015610b0e573d6000803e3d6000fd5b505050506040513d601f19601f82011682018060405250810190610b329190612bad565b6001600160a01b031614610b585760405162461bcd60e51b815260040161067a90612fea565b600954610b65908361310d565b600a6000828254610b76919061314c565b9091555050600d5460405162b4200560e31b815260048101919091527f00000000000000000000000000000000000000000000000000000000000000006024820152604481018390527f00000000000000000000000000000000000000000000000000000000000000006001600160a01b0316906305a1002890606401600060405180830381600087803b158015610c0d57600080fd5b505af1158015610c21573d6000803e3d6000fd5b505050507fa99e7fbb5a98c85d065fb69e692eef0f6fbe85ebdb8e60f3ea7daa2fa6fd95dd82604051610c5691815260200190565b60405180910390a15050565b333014610c815760405162461bcd60e51b815260040161067a90613076565b600780546001600160a01b0319166001600160a01b0383169081179091556040519081527fb329e64befdec2a048fc9bc0ec49385e5f414f5047e9fe44d771240d47e307a5906020016106b4565b333014610cee5760405162461bcd60e51b815260040161067a90613076565b600b8190556040518181527fa5cc43387a519ed6a0bb29d38730946ca689b0589940b0e48b5ce229a3e6e925906020016106b4565b333014610d425760405162461bcd60e51b815260040161067a90613076565b6040516323b872dd60e01b81523060048201526001600160a01b038381166024830152604482018390528416906323b872dd906064015b600060405180830381600087803b158015610d9357600080fd5b505af1158015610da7573d6000803e3d6000fd5b50505050505050565b60048181548110610dc057600080fd5b6000918252602090912001546001600160a01b0316905081565b6040516331a9108f60e11b815260048101839052829033906001600160a01b037f00000000000000000000000000000000000000000000000000000000000000001690636352211e9060240160206040518083038186803b158015610e3e57600080fd5b505afa158015610e52573d6000803e3d6000fd5b505050506040513d601f19601f82011682018060405250810190610e769190612bad565b6001600160a01b031614610e9c5760405162461bcd60e51b815260040161067a90612fea565b60085460405163772338d160e01b815260048101859052602481018490526000916001600160a01b03169063772338d190604401602060405180830381600087803b158015610eea57600080fd5b505af1158015610efe573d6000803e3d6000fd5b505050506040513d601f19601f82011682018060405250810190610f229190612dd2565b600754604051627b8a6760e11b8152600481018390523360248201529192506001600160a01b03169062f714ce90604401600060405180830381600087803b158015610f6d57600080fd5b505af1158015610f81573d6000803e3d6000fd5b5050505050505050565b600080805b6004548110156110285760008481526002602052604081206004805491929184908110610fcd57634e487b7160e01b600052603260045260246000fd5b60009182526020808320909101546001600160a01b0316835282019290925260400190205460ff16156110085781611004816131c8565b9250505b600554821061101657600192505b80611020816131c8565b915050610f90565b5050919050565b6060600480548060200260200160405190810160405280929190818152602001828054801561108757602002820191906000526020600020905b81546001600160a01b03168152600190910190602001808311611069575b5050505050905090565b6040516331a9108f60e11b815260048101839052829033906001600160a01b037f00000000000000000000000000000000000000000000000000000000000000001690636352211e9060240160206040518083038186803b1580156110f557600080fd5b505afa158015611109573d6000803e3d6000fd5b505050506040513d601f19601f8201168201806040525081019061112d9190612bad565b6001600160a01b0316146111535760405162461bcd60e51b815260040161067a90612fea565b600854604051632132283b60e21b815260048101859052602481018490526001600160a01b03909116906384c8a0ec90604401602060405180830381600087803b1580156111a057600080fd5b505af11580156111b4573d6000803e3d6000fd5b505050506040513d601f19601f820116820180604052508101906111d89190612d9a565b6112245760405162461bcd60e51b815260206004820152601c60248201527f44616f54726561737572793a2072657475726e476173206572726f7200000000604482015260640161067a565b600d54604051638856f77960e01b81526004810185905260248101919091527f00000000000000000000000000000000000000000000000000000000000000006044820152606481018390527f00000000000000000000000000000000000000000000000000000000000000006001600160a01b031690638856f77990608401610d79565b6000805b60045481101561133757600083815260026020526040812060048054919291849081106112ea57634e487b7160e01b600052603260045260246000fd5b60009182526020808320909101546001600160a01b0316835282019290925260400190205460ff16156113255781611321816131c8565b9250505b8061132f816131c8565b9150506112ad565b50919050565b6007546040513360248201526001600160a01b039091166044820152606481018290526113d3906323b872dd60e01b906084015b60408051601f198184030181529190526020810180516001600160e01b03166001600160e01b0319909316929092179091526001600160a01b037f0000000000000000000000000000000000000000000000000000000000000000169061268c565b5060075460405163b6b55f2560e01b8152600481018390526001600160a01b039091169063b6b55f2590602401600060405180830381600087803b15801561141a57600080fd5b505af115801561142e573d6000803e3d6000fd5b505050507f00000000000000000000000000000000000000000000000000000000000000006001600160a01b0316638856f779600d54847f000000000000000000000000000000000000000000000000000000000000000060095486611494919061312d565b6040516001600160e01b031960e087901b1681526004810194909452602484019290925260448301526064820152608401600060405180830381600087803b1580156114df57600080fd5b505af11580156114f3573d6000803e3d6000fd5b505050507ff9a46179fddc33079e6516266a051a01cf929ed81b74dec875fb1bb5380d222f81604051610c5691815260200190565b60085460405163947fdb8b60e01b815260048101849052602481018390526001600160a01b039091169063947fdb8b90604401600060405180830381600087803b15801561157557600080fd5b505af1158015611589573d6000803e3d6000fd5b50506007546040513360248201526001600160a01b039091166044820152606481018490526115c592506323b872dd60e01b9150608401611371565b5060075460405163b6b55f2560e01b8152600481018390526001600160a01b039091169063b6b55f2590602401600060405180830381600087803b15801561160c57600080fd5b505af1158015611620573d6000803e3d6000fd5b505050505050565b6001602081905260009182526040909120805491810180546001600160a01b039093169261165590613193565b80601f016020809104026020016040519081016040528092919081815260200182805461168190613193565b80156116ce5780601f106116a3576101008083540402835291602001916116ce565b820191906000526020600020905b8154815290600101906020018083116116b157829003601f168201915b5050506002909301549192505060ff1683565b3330146117005760405162461bcd60e51b815260040161067a90613076565b6001600160a01b038216600090815260036020526040902054829060ff1661173a5760405162461bcd60e51b815260040161067a906130c0565b6001600160a01b038216600090815260036020526040902054829060ff16156117755760405162461bcd60e51b815260040161067a90613033565b60005b60045481101561182f57846001600160a01b0316600482815481106117ad57634e487b7160e01b600052603260045260246000fd5b6000918252602090912001546001600160a01b0316141561181d5783600482815481106117ea57634e487b7160e01b600052603260045260246000fd5b9060005260206000200160006101000a8154816001600160a01b0302191690836001600160a01b0316021790555061182f565b80611827816131c8565b915050611778565b506001600160a01b03808516600081815260036020526040808220805460ff1990811690915593871682528082208054909416600117909355915190917fe4c71e97b098958c9a514b681c52608969cc549306e8c95ec3f25c189daee40a91a26040516001600160a01b038416907f6aace347f016a777fa6258ea1f5a1cf7a83cba16e67ab7d4abedf50dbf4779e290600090a250505050565b6040516331a9108f60e11b815260048101839052829033906001600160a01b037f00000000000000000000000000000000000000000000000000000000000000001690636352211e9060240160206040518083038186803b15801561192d57600080fd5b505afa158015611941573d6000803e3d6000fd5b505050506040513d601f19601f820116820180604052508101906119659190612bad565b6001600160a01b03161461198b5760405162461bcd60e51b815260040161067a90612fea565b6008546040516302b8f60160e61b815260048101859052602481018490526001600160a01b039091169063ae3d804090604401602060405180830381600087803b1580156119d857600080fd5b505af11580156119ec573d6000803e3d6000fd5b505050506040513d601f19601f82011682018060405250810190611a109190612d9a565b611a5c5760405162461bcd60e51b815260206004820152601c60248201527f44616f54726561737572793a20626f72726f77476173206572726f7200000000604482015260640161067a565b600d54604051630f9750b360e31b81526004810191909152602481018490527f00000000000000000000000000000000000000000000000000000000000000006044820152606481018390527f00000000000000000000000000000000000000000000000000000000000000006001600160a01b031690637cba859890608401610d79565b6040516331a9108f60e11b815260048101839052829033906001600160a01b037f00000000000000000000000000000000000000000000000000000000000000001690636352211e9060240160206040518083038186803b158015611b4557600080fd5b505afa158015611b59573d6000803e3d6000fd5b505050506040513d601f19601f82011682018060405250810190611b7d9190612bad565b6001600160a01b031614611ba35760405162461bcd60e51b815260040161067a90612fea565b6000600954612710611bb5919061312d565b600c54611bc49061271061314c565b611bce908561312d565b611bd8919061310d565b90507f00000000000000000000000000000000000000000000000000000000000000006001600160a01b0316638856f77985600d547f000000000000000000000000000000000000000000000000000000000000000060095486611c3c919061312d565b6040516001600160e01b031960e087901b1681526004810194909452602484019290925260448301526064820152608401600060405180830381600087803b158015611c8757600080fd5b505af1158015611c9b573d6000803e3d6000fd5b5050600754604051627b8a6760e11b8152600481018590523360248201526001600160a01b03909116925062f714ce9150604401600060405180830381600087803b158015611ce957600080fd5b505af1158015611cfd573d6000803e3d6000fd5b505050507fab65c4c42e9429105c77d9c8e6c1cbcf427a9d90cc3f86c0bcfca0c867716b1c83604051611d3291815260200190565b60405180910390a150505050565b60045460609060009067ffffffffffffffff811115611d6f57634e487b7160e01b600052604160045260246000fd5b604051908082528060200260200182016040528015611d98578160200160208202803683370190505b5090506000805b600454811015611ea05760008581526002602052604081206004805491929184908110611ddc57634e487b7160e01b600052603260045260246000fd5b60009182526020808320909101546001600160a01b0316835282019290925260400190205460ff1615611e8e5760048181548110611e2a57634e487b7160e01b600052603260045260246000fd5b9060005260206000200160009054906101000a90046001600160a01b0316838381518110611e6857634e487b7160e01b600052603260045260246000fd5b6001600160a01b039092166020928302919091019091015281611e8a816131c8565b9250505b80611e98816131c8565b915050611d9f565b508067ffffffffffffffff811115611ec857634e487b7160e01b600052604160045260246000fd5b604051908082528060200260200182016040528015611ef1578160200160208202803683370190505b50925060005b81811015611f7157828181518110611f1f57634e487b7160e01b600052603260045260246000fd5b6020026020010151848281518110611f4757634e487b7160e01b600052603260045260246000fd5b6001600160a01b039092166020928302919091019091015280611f69816131c8565b915050611ef7565b505050919050565b333014611f985760405162461bcd60e51b815260040161067a90613076565b600454818115801590611fad57506000548211155b8015611fb95750600081115b8015611fc55750818111155b611fe15760405162461bcd60e51b815260040161067a90612fa8565b60058390556040518381527fa3f1ee9126a074d9326c682f561767f710e927faa811f7a99829d49dc421797a90602001610a69565b3360008181526003602052604081205490919060ff166120485760405162461bcd60e51b815260040161067a906130c0565b61205284846126d5565b915061205d82612064565b5092915050565b3360008181526003602052604090205460ff166120935760405162461bcd60e51b815260040161067a906130c0565b60008281526001602052604090205482906001600160a01b03166121055760405162461bcd60e51b815260206004820152602360248201527f4d756c74695369676e207472616e73616374696f6e45786973747328292045726044820152623937b960e91b606482015260840161067a565b60008381526002602090815260408083203380855292529091205484919060ff16156121735760405162461bcd60e51b815260206004820152601e60248201527f4d756c74695369676e206e6f74436f6e6669726d65642829204572726f720000604482015260640161067a565b6000858152600260209081526040808320338085529252808320805460ff191660011790555187927f4a504a94899432a9846e1aa406dceb1bcfd538bb839071d49d1e5e23f5be30ef91a36121c7856127f2565b5050505050565b6001600160a01b038116600090815260036020526040902054819060ff16156122095760405162461bcd60e51b815260040161067a90613033565b816001600160a01b03811661225c5760405162461bcd60e51b815260206004820152601960248201527826bab63a34a9b4b3b7103737ba273ab63614149022b93937b960391b604482015260640161067a565b60045461226a9060016130f5565b60055460008211801561227f57506000548211155b801561228b5750600081115b80156122975750818111155b6122b35760405162461bcd60e51b815260040161067a90612fa8565b3330146122d25760405162461bcd60e51b815260040161067a90613076565b6001600160a01b038516600081815260036020526040808220805460ff1916600190811790915560048054918201815583527f8a35acfbc15ff81a39ae7d344fd709f28e8600b4aa8c65c6b64bfe7fe36bd19b0180546001600160a01b03191684179055517f6aace347f016a777fa6258ea1f5a1cf7a83cba16e67ab7d4abedf50dbf4779e29190a25050505050565b3330146123815760405162461bcd60e51b815260040161067a90613076565b6001600160a01b038116600090815260036020526040902054819060ff166123bb5760405162461bcd60e51b815260040161067a906130c0565b6001600160a01b0382166000908152600360205260408120805460ff191690555b6004546123eb9060019061314c565b8110156124e557826001600160a01b03166004828154811061241d57634e487b7160e01b600052603260045260246000fd5b6000918252602090912001546001600160a01b031614156124d357600480546124489060019061314c565b8154811061246657634e487b7160e01b600052603260045260246000fd5b600091825260209091200154600480546001600160a01b0390921691839081106124a057634e487b7160e01b600052603260045260246000fd5b9060005260206000200160006101000a8154816001600160a01b0302191690836001600160a01b031602179055506124e5565b806124dd816131c8565b9150506123dc565b50600480548061250557634e487b7160e01b600052603160045260246000fd5b600082815260209020810160001990810180546001600160a01b0319169055019055600454600554111561253f5760045461253f90611f79565b6040516001600160a01b038316907fe4c71e97b098958c9a514b681c52608969cc549306e8c95ec3f25c189daee40a90600090a25050565b3330146125965760405162461bcd60e51b815260040161067a90613076565b60098190556040518181527f2cdf928bf44b43ec9abf0303365ba96ca923285832406706c660071b793417a4906020016106b4565b3330146125ea5760405162461bcd60e51b815260040161067a90613076565b600880546001600160a01b0319166001600160a01b0383169081179091556040519081527f4377333e180eb2790ab8a4441055642568c7fffb86f2f0888c57cde35321cbe0906020016106b4565b3330146126575760405162461bcd60e51b815260040161067a90613076565b600c8190556040518181527f0c7945060807e7a3d25debccd2ec8f646c0b1ba7426edf67aa22b335dd5bfdd1906020016106b4565b60606126ce83836040518060400160405280601e81526020017f416464726573733a206c6f772d6c6576656c2063616c6c206661696c65640000815250612980565b9392505050565b6000826001600160a01b03811661272a5760405162461bcd60e51b815260206004820152601960248201527826bab63a34a9b4b3b7103737ba273ab63614149022b93937b960391b604482015260640161067a565b600654604080516060810182526001600160a01b038781168252602080830188815260008486018190528681526001808452959020845181546001600160a01b03191694169390931783555180519597509294919361278f9390850192910190612af8565b50604091909101516002909101805460ff1916911515919091179055600680549060006127bb836131c8565b909155505060405182907fc0ba8fe4b176c1714197d43b9cc6bcf797a4a7461c5fe8d0ef6e184ae7601e5190600090a25092915050565b600081815260016020526040902060020154819060ff16156128565760405162461bcd60e51b815260206004820152601d60248201527f4d756c74695369676e206e6f7445786563757465642829204572726f72000000604482015260640161067a565b61285f82610f8b565b1561297c57600082815260016020819052604080832060028101805460ff1916841790558054915190939283926001600160a01b0316916128a291860190612e77565b6000604051808303816000865af19150503d80600081146128df576040519150601f19603f3d011682016040523d82523d6000602084013e6128e4565b606091505b509150915081801561290e57508051158061290e57508080602001905181019061290e9190612d9a565b156129435760405185907ff2788e0d1a8dffbdac057cef8914e5346afd7a09d39d19b60080caf3cc07c4f790600090a26121c7565b60405185907f526441bb6c1aba3c9a4a6ca1d6545da9c2333c8c48343ef398eb858d72b7923690600090a25050600201805460ff191690555b5050565b606061298f8484600085612997565b949350505050565b6060824710156129f85760405162461bcd60e51b815260206004820152602660248201527f416464726573733a20696e73756666696369656e742062616c616e636520666f6044820152651c8818d85b1b60d21b606482015260840161067a565b843b612a465760405162461bcd60e51b815260206004820152601d60248201527f416464726573733a2063616c6c20746f206e6f6e2d636f6e7472616374000000604482015260640161067a565b600080866001600160a01b03168587604051612a629190612e5b565b60006040518083038185875af1925050503d8060008114612a9f576040519150601f19603f3d011682016040523d82523d6000602084013e612aa4565b606091505b5091509150612ab4828286612abf565b979650505050505050565b60608315612ace5750816126ce565b825115612ade5782518084602001fd5b8160405162461bcd60e51b815260040161067a9190612f95565b828054612b0490613193565b90600052602060002090601f016020900481019282612b265760008555612b6c565b82601f10612b3f57805160ff1916838001178555612b6c565b82800160010185558215612b6c579182015b82811115612b6c578251825591602001919060010190612b51565b50612b78929150612b7c565b5090565b5b80821115612b785760008155600101612b7d565b600060208284031215612ba2578081fd5b81356126ce8161320f565b600060208284031215612bbe578081fd5b81516126ce8161320f565b60008060408385031215612bdb578081fd5b8235612be68161320f565b91506020830135612bf68161320f565b809150509250929050565b600080600060608486031215612c15578081fd5b8335612c208161320f565b92506020840135612c308161320f565b929592945050506040919091013590565b600080600080600060808688031215612c58578081fd5b8535612c638161320f565b94506020860135612c738161320f565b935060408601359250606086013567ffffffffffffffff80821115612c96578283fd5b818801915088601f830112612ca9578283fd5b813581811115612cb7578384fd5b896020828501011115612cc8578384fd5b9699959850939650602001949392505050565b60008060408385031215612ced578182fd5b8235612cf88161320f565b9150602083013567ffffffffffffffff80821115612d14578283fd5b818501915085601f830112612d27578283fd5b813581811115612d3957612d396131f9565b604051601f8201601f19908116603f01168101908382118183101715612d6157612d616131f9565b81604052828152886020848701011115612d79578586fd5b82602086016020830137856020848301015280955050505050509250929050565b600060208284031215612dab578081fd5b815180151581146126ce578182fd5b600060208284031215612dcb578081fd5b5035919050565b600060208284031215612de3578081fd5b5051919050565b60008060408385031215612dfc578182fd5b823591506020830135612bf68161320f565b60008060408385031215612e20578182fd5b50508035926020909101359150565b60008151808452612e47816020860160208601613163565b601f01601f19169290920160200192915050565b60008251612e6d818460208701613163565b9190910192915050565b600080835482600182811c915080831680612e9357607f831692505b6020808410821415612eb357634e487b7160e01b87526022600452602487fd5b818015612ec75760018114612ed857612f04565b60ff19861689528489019650612f04565b60008a815260209020885b86811015612efc5781548b820152908501908301612ee3565b505084890196505b509498975050505050505050565b6001600160a01b0384168152606060208201819052600090612f3690830185612e2f565b90508215156040830152949350505050565b6020808252825182820181905260009190848201906040850190845b81811015612f895783516001600160a01b031683529284019291840191600101612f64565b50909695505050505050565b6020815260006126ce6020830184612e2f565b60208082526022908201527f4d756c74695369676e2076616c6964526571756972656d656e7428292045727260408201526137b960f11b606082015260800190565b60208082526029908201527f44616f54726561737572793a2063616c6c6572206973206e6f7420746865206e604082015268333a103437b63232b960b91b606082015260800190565b60208082526023908201527f4d756c74695369676e20636f6d6d697465654e6f7445786973747328292045726040820152623937b960e91b606082015260800190565b6020808252602a908201527f4d756c74695369676e206f6e6c7920616464726573732874686973292063616e6040820152692063616c6c207468697360b01b606082015260800190565b6020808252818101527f4d756c74695369676e20636f6d6d697465654578697374732829204572726f72604082015260600190565b60008219821115613108576131086131e3565b500190565b60008261312857634e487b7160e01b81526012600452602481fd5b500490565b6000816000190483118215151615613147576131476131e3565b500290565b60008282101561315e5761315e6131e3565b500390565b60005b8381101561317e578181015183820152602001613166565b8381111561318d576000848401525b50505050565b600181811c908216806131a757607f821691505b6020821081141561133757634e487b7160e01b600052602260045260246000fd5b60006000198214156131dc576131dc6131e3565b5060010190565b634e487b7160e01b600052601160045260246000fd5b634e487b7160e01b600052604160045260246000fd5b6001600160a01b038116811461322457600080fd5b5056fea2646970667358221220c815a8defba1a35870e4ac2a02f23f1eb42853f35ee2d17cace15f89e35efde064736f6c63430008040033",
  "linkReferences": {},
  "deployedLinkReferences": {}
}