{
  "_format": "hh-sol-artifact-1",
  "contractName": "DaoTreasury",
  "sourceName": "contracts/DaoTreasury.sol",
  "abi": [
    {
      "inputs": [
        {
          "internalType": "address",
          "name": "_WEB3DAONFT",
          "type": "address"
        },
        {
          "internalType": "address",
          "name": "_WETH",
          "type": "address"
        },
        {
          "internalType": "uint256",
          "name": "_SPONSOR_ATTR_ID",
          "type": "uint256"
        },
        {
          "internalType": "uint256",
          "name": "_GAS_ATTR_ID",
          "type": "uint256"
        }
      ],
      "stateMutability": "nonpayable",
      "type": "constructor"
    },
    {
      "anonymous": false,
      "inputs": [
        {
          "indexed": false,
          "internalType": "uint256",
          "name": "gasAmount",
          "type": "uint256"
        }
      ],
      "name": "BurnGas",
      "type": "event"
    },
    {
      "anonymous": false,
      "inputs": [
        {
          "indexed": false,
          "internalType": "uint256",
          "name": "gasAmount",
          "type": "uint256"
        }
      ],
      "name": "BuyGas",
      "type": "event"
    },
    {
      "anonymous": false,
      "inputs": [
        {
          "indexed": true,
          "internalType": "address",
          "name": "commitee",
          "type": "address"
        }
      ],
      "name": "CommiteeAddition",
      "type": "event"
    },
    {
      "anonymous": false,
      "inputs": [
        {
          "indexed": true,
          "internalType": "address",
          "name": "commitee",
          "type": "address"
        }
      ],
      "name": "CommiteeRemoval",
      "type": "event"
    },
    {
      "anonymous": false,
      "inputs": [
        {
          "indexed": true,
          "internalType": "address",
          "name": "sender",
          "type": "address"
        },
        {
          "indexed": true,
          "internalType": "uint256",
          "name": "transactionId",
          "type": "uint256"
        }
      ],
      "name": "Confirmation",
      "type": "event"
    },
    {
      "anonymous": false,
      "inputs": [
        {
          "indexed": true,
          "internalType": "uint256",
          "name": "transactionId",
          "type": "uint256"
        }
      ],
      "name": "Execution",
      "type": "event"
    },
    {
      "anonymous": false,
      "inputs": [
        {
          "indexed": true,
          "internalType": "uint256",
          "name": "transactionId",
          "type": "uint256"
        }
      ],
      "name": "ExecutionFailure",
      "type": "event"
    },
    {
      "anonymous": false,
      "inputs": [
        {
          "indexed": true,
          "internalType": "uint256",
          "name": "transactionId",
          "type": "uint256"
        }
      ],
      "name": "ExecutionSuccess",
      "type": "event"
    },
    {
      "anonymous": false,
      "inputs": [
        {
          "indexed": false,
          "internalType": "uint256",
          "name": "gasAmount",
          "type": "uint256"
        }
      ],
      "name": "MintGas",
      "type": "event"
    },
    {
      "anonymous": false,
      "inputs": [
        {
          "indexed": false,
          "internalType": "uint256",
          "name": "required",
          "type": "uint256"
        }
      ],
      "name": "RequirementChange",
      "type": "event"
    },
    {
      "anonymous": false,
      "inputs": [
        {
          "indexed": true,
          "internalType": "address",
          "name": "sender",
          "type": "address"
        },
        {
          "indexed": true,
          "internalType": "uint256",
          "name": "transactionId",
          "type": "uint256"
        }
      ],
      "name": "Revocation",
      "type": "event"
    },
    {
      "anonymous": false,
      "inputs": [
        {
          "indexed": false,
          "internalType": "uint256",
          "name": "gasAmount",
          "type": "uint256"
        }
      ],
      "name": "SellGas",
      "type": "event"
    },
    {
      "anonymous": false,
      "inputs": [
        {
          "indexed": false,
          "internalType": "address",
          "name": "_DaoSponsor",
          "type": "address"
        }
      ],
      "name": "SetDaoSponsor",
      "type": "event"
    },
    {
      "anonymous": false,
      "inputs": [
        {
          "indexed": false,
          "internalType": "address",
          "name": "_DaoVault",
          "type": "address"
        }
      ],
      "name": "SetDaoVault",
      "type": "event"
    },
    {
      "anonymous": false,
      "inputs": [
        {
          "indexed": false,
          "internalType": "uint256",
          "name": "_gasAttrPrice",
          "type": "uint256"
        }
      ],
      "name": "SetGasAttrPrice",
      "type": "event"
    },
    {
      "anonymous": false,
      "inputs": [
        {
          "indexed": false,
          "internalType": "uint256",
          "name": "_gasTax",
          "type": "uint256"
        }
      ],
      "name": "SetGasTax",
      "type": "event"
    },
    {
      "anonymous": false,
      "inputs": [
        {
          "indexed": false,
          "internalType": "uint256",
          "name": "_holdNFTId",
          "type": "uint256"
        }
      ],
      "name": "SetHoldNFTId",
      "type": "event"
    },
    {
      "anonymous": false,
      "inputs": [
        {
          "indexed": false,
          "internalType": "uint256",
          "name": "_maxDebt",
          "type": "uint256"
        }
      ],
      "name": "SetMaxDebt",
      "type": "event"
    },
    {
      "anonymous": false,
      "inputs": [
        {
          "indexed": true,
          "internalType": "uint256",
          "name": "transactionId",
          "type": "uint256"
        }
      ],
      "name": "Submission",
      "type": "event"
    },
    {
      "inputs": [],
      "name": "DaoSponsor",
      "outputs": [
        {
          "internalType": "address",
          "name": "",
          "type": "address"
        }
      ],
      "stateMutability": "view",
      "type": "function"
    },
    {
      "inputs": [],
      "name": "DaoVault",
      "outputs": [
        {
          "internalType": "address",
          "name": "",
          "type": "address"
        }
      ],
      "stateMutability": "view",
      "type": "function"
    },
    {
      "inputs": [],
      "name": "GAS_ATTR_ID",
      "outputs": [
        {
          "internalType": "uint256",
          "name": "",
          "type": "uint256"
        }
      ],
      "stateMutability": "view",
      "type": "function"
    },
    {
      "inputs": [],
      "name": "MAX_COMMITEE_COUNT",
      "outputs": [
        {
          "internalType": "uint256",
          "name": "",
          "type": "uint256"
        }
      ],
      "stateMutability": "view",
      "type": "function"
    },
    {
      "inputs": [],
      "name": "SPONSOR_ATTR_ID",
      "outputs": [
        {
          "internalType": "uint256",
          "name": "",
          "type": "uint256"
        }
      ],
      "stateMutability": "view",
      "type": "function"
    },
    {
      "inputs": [],
      "name": "WEB3DAONFT",
      "outputs": [
        {
          "internalType": "address",
          "name": "",
          "type": "address"
        }
      ],
      "stateMutability": "view",
      "type": "function"
    },
    {
      "inputs": [],
      "name": "WETH",
      "outputs": [
        {
          "internalType": "address",
          "name": "",
          "type": "address"
        }
      ],
      "stateMutability": "view",
      "type": "function"
    },
    {
      "inputs": [
        {
          "internalType": "address",
          "name": "commitee",
          "type": "address"
        }
      ],
      "name": "addCommitee",
      "outputs": [],
      "stateMutability": "nonpayable",
      "type": "function"
    },
    {
      "inputs": [
        {
          "internalType": "uint256",
          "name": "tokenId",
          "type": "uint256"
        },
        {
          "internalType": "uint256",
          "name": "gasAmount",
          "type": "uint256"
        }
      ],
      "name": "borrowGas",
      "outputs": [],
      "stateMutability": "nonpayable",
      "type": "function"
    },
    {
      "inputs": [
        {
          "internalType": "uint256",
          "name": "gasAmount",
          "type": "uint256"
        }
      ],
      "name": "burnGas",
      "outputs": [],
      "stateMutability": "nonpayable",
      "type": "function"
    },
    {
      "inputs": [
        {
          "internalType": "uint256",
          "name": "tokenId",
          "type": "uint256"
        },
        {
          "internalType": "uint256",
          "name": "ethAmount",
          "type": "uint256"
        }
      ],
      "name": "buyGas",
      "outputs": [],
      "stateMutability": "nonpayable",
      "type": "function"
    },
    {
      "inputs": [
        {
          "internalType": "uint256",
          "name": "_required",
          "type": "uint256"
        }
      ],
      "name": "changeRequirement",
      "outputs": [],
      "stateMutability": "nonpayable",
      "type": "function"
    },
    {
      "inputs": [
        {
          "internalType": "uint256",
          "name": "",
          "type": "uint256"
        }
      ],
      "name": "commitees",
      "outputs": [
        {
          "internalType": "address",
          "name": "",
          "type": "address"
        }
      ],
      "stateMutability": "view",
      "type": "function"
    },
    {
      "inputs": [
        {
          "internalType": "uint256",
          "name": "transactionId",
          "type": "uint256"
        }
      ],
      "name": "confirmTransaction",
      "outputs": [],
      "stateMutability": "nonpayable",
      "type": "function"
    },
    {
      "inputs": [
        {
          "internalType": "uint256",
          "name": "",
          "type": "uint256"
        },
        {
          "internalType": "address",
          "name": "",
          "type": "address"
        }
      ],
      "name": "confirmations",
      "outputs": [
        {
          "internalType": "bool",
          "name": "",
          "type": "bool"
        }
      ],
      "stateMutability": "view",
      "type": "function"
    },
    {
      "inputs": [],
      "name": "debt",
      "outputs": [
        {
          "internalType": "uint256",
          "name": "",
          "type": "uint256"
        }
      ],
      "stateMutability": "view",
      "type": "function"
    },
    {
      "inputs": [],
      "name": "gasAttrPrice",
      "outputs": [
        {
          "internalType": "uint256",
          "name": "",
          "type": "uint256"
        }
      ],
      "stateMutability": "view",
      "type": "function"
    },
    {
      "inputs": [],
      "name": "gasTax",
      "outputs": [
        {
          "internalType": "uint256",
          "name": "",
          "type": "uint256"
        }
      ],
      "stateMutability": "view",
      "type": "function"
    },
    {
      "inputs": [],
      "name": "getCommitees",
      "outputs": [
        {
          "internalType": "address[]",
          "name": "",
          "type": "address[]"
        }
      ],
      "stateMutability": "view",
      "type": "function"
    },
    {
      "inputs": [
        {
          "internalType": "uint256",
          "name": "transactionId",
          "type": "uint256"
        }
      ],
      "name": "getConfirmationCount",
      "outputs": [
        {
          "internalType": "uint256",
          "name": "count",
          "type": "uint256"
        }
      ],
      "stateMutability": "view",
      "type": "function"
    },
    {
      "inputs": [
        {
          "internalType": "uint256",
          "name": "transactionId",
          "type": "uint256"
        }
      ],
      "name": "getConfirmations",
      "outputs": [
        {
          "internalType": "address[]",
          "name": "_confirmations",
          "type": "address[]"
        }
      ],
      "stateMutability": "view",
      "type": "function"
    },
    {
      "inputs": [],
      "name": "holdNFTId",
      "outputs": [
        {
          "internalType": "uint256",
          "name": "",
          "type": "uint256"
        }
      ],
      "stateMutability": "view",
      "type": "function"
    },
    {
      "inputs": [
        {
          "internalType": "address",
          "name": "",
          "type": "address"
        }
      ],
      "name": "isCommitee",
      "outputs": [
        {
          "internalType": "bool",
          "name": "",
          "type": "bool"
        }
      ],
      "stateMutability": "view",
      "type": "function"
    },
    {
      "inputs": [
        {
          "internalType": "uint256",
          "name": "transactionId",
          "type": "uint256"
        }
      ],
      "name": "isConfirmed",
      "outputs": [
        {
          "internalType": "bool",
          "name": "ret",
          "type": "bool"
        }
      ],
      "stateMutability": "view",
      "type": "function"
    },
    {
      "inputs": [],
      "name": "max",
      "outputs": [
        {
          "internalType": "uint256",
          "name": "",
          "type": "uint256"
        }
      ],
      "stateMutability": "view",
      "type": "function"
    },
    {
      "inputs": [],
      "name": "maxDebt",
      "outputs": [
        {
          "internalType": "uint256",
          "name": "",
          "type": "uint256"
        }
      ],
      "stateMutability": "view",
      "type": "function"
    },
    {
      "inputs": [
        {
          "internalType": "uint256",
          "name": "gasAmount",
          "type": "uint256"
        }
      ],
      "name": "mintGas",
      "outputs": [],
      "stateMutability": "nonpayable",
      "type": "function"
    },
    {
      "inputs": [
        {
          "internalType": "address",
          "name": "operator",
          "type": "address"
        },
        {
          "internalType": "address",
          "name": "from",
          "type": "address"
        },
        {
          "internalType": "uint256",
          "name": "tokenId",
          "type": "uint256"
        },
        {
          "internalType": "bytes",
          "name": "data",
          "type": "bytes"
        }
      ],
      "name": "onERC721Received",
      "outputs": [
        {
          "internalType": "bytes4",
          "name": "",
          "type": "bytes4"
        }
      ],
      "stateMutability": "pure",
      "type": "function"
    },
    {
      "inputs": [
        {
          "internalType": "uint256",
          "name": "tokenId",
          "type": "uint256"
        },
        {
          "internalType": "uint256",
          "name": "sponsorAmount",
          "type": "uint256"
        }
      ],
      "name": "quit",
      "outputs": [],
      "stateMutability": "nonpayable",
      "type": "function"
    },
    {
      "inputs": [
        {
          "internalType": "address",
          "name": "commitee",
          "type": "address"
        }
      ],
      "name": "removeCommitee",
      "outputs": [],
      "stateMutability": "nonpayable",
      "type": "function"
    },
    {
      "inputs": [],
      "name": "required",
      "outputs": [
        {
          "internalType": "uint256",
          "name": "",
          "type": "uint256"
        }
      ],
      "stateMutability": "view",
      "type": "function"
    },
    {
      "inputs": [
        {
          "internalType": "uint256",
          "name": "tokenId",
          "type": "uint256"
        },
        {
          "internalType": "uint256",
          "name": "gasAmount",
          "type": "uint256"
        }
      ],
      "name": "returnGas",
      "outputs": [],
      "stateMutability": "nonpayable",
      "type": "function"
    },
    {
      "inputs": [
        {
          "internalType": "uint256",
          "name": "transactionId",
          "type": "uint256"
        }
      ],
      "name": "revokeConfirmation",
      "outputs": [],
      "stateMutability": "nonpayable",
      "type": "function"
    },
    {
      "inputs": [
        {
          "internalType": "uint256",
          "name": "tokenId",
          "type": "uint256"
        },
        {
          "internalType": "uint256",
          "name": "gasAmount",
          "type": "uint256"
        }
      ],
      "name": "sellGas",
      "outputs": [],
      "stateMutability": "nonpayable",
      "type": "function"
    },
    {
      "inputs": [
        {
          "internalType": "address",
          "name": "_DaoSponsor",
          "type": "address"
        }
      ],
      "name": "setDaoSponsor",
      "outputs": [],
      "stateMutability": "nonpayable",
      "type": "function"
    },
    {
      "inputs": [
        {
          "internalType": "address",
          "name": "_DaoVault",
          "type": "address"
        }
      ],
      "name": "setDaoVault",
      "outputs": [],
      "stateMutability": "nonpayable",
      "type": "function"
    },
    {
      "inputs": [
        {
          "internalType": "uint256",
          "name": "_gasAttrPrice",
          "type": "uint256"
        }
      ],
      "name": "setGasAttrPrice",
      "outputs": [],
      "stateMutability": "nonpayable",
      "type": "function"
    },
    {
      "inputs": [
        {
          "internalType": "uint256",
          "name": "_gasTax",
          "type": "uint256"
        }
      ],
      "name": "setGasTax",
      "outputs": [],
      "stateMutability": "nonpayable",
      "type": "function"
    },
    {
      "inputs": [
        {
          "internalType": "uint256",
          "name": "_holdNFTId",
          "type": "uint256"
        }
      ],
      "name": "setHoldNFTId",
      "outputs": [],
      "stateMutability": "nonpayable",
      "type": "function"
    },
    {
      "inputs": [
        {
          "internalType": "uint256",
          "name": "_maxDebt",
          "type": "uint256"
        }
      ],
      "name": "setMaxDebt",
      "outputs": [],
      "stateMutability": "nonpayable",
      "type": "function"
    },
    {
      "inputs": [
        {
          "internalType": "uint256",
          "name": "tokenId",
          "type": "uint256"
        },
        {
          "internalType": "uint256",
          "name": "ethAmount",
          "type": "uint256"
        }
      ],
      "name": "sponsor",
      "outputs": [],
      "stateMutability": "nonpayable",
      "type": "function"
    },
    {
      "inputs": [
        {
          "internalType": "address",
          "name": "destination",
          "type": "address"
        },
        {
          "internalType": "bytes",
          "name": "data",
          "type": "bytes"
        }
      ],
      "name": "submitTransaction",
      "outputs": [
        {
          "internalType": "uint256",
          "name": "transactionId",
          "type": "uint256"
        }
      ],
      "stateMutability": "nonpayable",
      "type": "function"
    },
    {
      "inputs": [],
      "name": "transactionCount",
      "outputs": [
        {
          "internalType": "uint256",
          "name": "",
          "type": "uint256"
        }
      ],
      "stateMutability": "view",
      "type": "function"
    },
    {
      "inputs": [
        {
          "internalType": "uint256",
          "name": "",
          "type": "uint256"
        }
      ],
      "name": "transactions",
      "outputs": [
        {
          "internalType": "address",
          "name": "destination",
          "type": "address"
        },
        {
          "internalType": "bytes",
          "name": "data",
          "type": "bytes"
        },
        {
          "internalType": "bool",
          "name": "executed",
          "type": "bool"
        }
      ],
      "stateMutability": "view",
      "type": "function"
    },
    {
      "inputs": [
        {
          "internalType": "address",
          "name": "token",
          "type": "address"
        },
        {
          "internalType": "address",
          "name": "to",
          "type": "address"
        },
        {
          "internalType": "uint256",
          "name": "tokenId",
          "type": "uint256"
        }
      ],
      "name": "transferNFT",
      "outputs": [],
      "stateMutability": "nonpayable",
      "type": "function"
    }
  ],
  "bytecode": "0x6101006040526065600055612710600955611388600b556064600c553480156200002857600080fd5b506040516200326b3803806200326b8339810160408190526200004b91620000f2565b336000818152600360205260408120805460ff1916600190811790915560048054808301825592527f8a35acfbc15ff81a39ae7d344fd709f28e8600b4aa8c65c6b64bfe7fe36bd19b90910180546001600160a01b0319169092179091556005556001600160601b0319606094851b81166080529290931b90911660a05260c05260e05262000139565b80516001600160a01b0381168114620000ed57600080fd5b919050565b6000806000806080858703121562000108578384fd5b6200011385620000d5565b93506200012360208601620000d5565b6040860151606090960151949790965092505050565b60805160601c60a05160601c60c05160e051613074620001f76000396000818161063a015281816109da01528181610bc7015281816112780152818161149a015281816118c80152611a5a0152600061037c01526000818161050101526113e001526000818161056101528181610a0701528181610aeb01528181610bf401528181610e2f015281816110e6015281816112a50152818161146701528181611736015281816118f50152818161194e0152611a2701526130746000f3fe608060405234801561001057600080fd5b506004361061027f5760003560e01c8063901b8cb31161015c578063bbf1b2f1116100ce578063f10f377611610087578063f10f3776146105fd578063f4a37d6914610606578063f5bc5dcb14610619578063f7faafa014610622578063f848231314610635578063ffd06e051461065c57600080fd5b8063bbf1b2f11461059f578063c01a8c84146105b2578063c60abbf4146105c5578063d0064c00146105d8578063d5120724146105e1578063dc8452cd146105f457600080fd5b8063ae3d804011610120578063ae3d804014610523578063b09e7bf114610536578063b5dc40c314610549578063b7627eee1461055c578063b77bf60014610583578063ba51a6df1461058c57600080fd5b8063901b8cb3146104a1578063947fdb8b146104b457806398b8c4e1146104c75780639ace38c2146104da578063ad5c4648146104fc57600080fd5b80636526941b116101f5578063784547a7116101b9578063784547a71461041d5780637897590e14610430578063823349921461044557806384c8a0ec146104685780638b51d13f1461047b5780638b60d7ef1461048e57600080fd5b80636526941b146103b057806369e9cae1146103c35780636ac5db19146103d65780636f6cc704146103df578063772338d11461040a57600080fd5b80634248fe23116102475780634248fe231461033e5780634ad5d16f146103515780634b799db1146103645780634bb81553146103775780634d317f1a1461039e57806363dbc756146103a757600080fd5b806302183adc146102845780630dca59c114610299578063150b7a02146102b557806320ea8d86146102ed5780633411c81c14610300575b600080fd5b610297610292366004612c09565b61066f565b005b6102a2600a5481565b6040519081526020015b60405180910390f35b6102d46102c3366004612a90565b630a85bd0160e11b95945050505050565b6040516001600160e01b031990911681526020016102ac565b6102976102fb366004612c09565b6106d3565b61032e61030e366004612c39565b600260209081526000928352604080842090915290825290205460ff1681565b60405190151581526020016102ac565b61029761034c366004612c09565b610822565b61029761035f366004612c09565b610aa9565b610297610372366004612a18565b610c95565b6102a27f000000000000000000000000000000000000000000000000000000000000000081565b6102a2600d5481565b6102a2600c5481565b6102976103be366004612c09565b610d02565b6102976103d1366004612a50565b610d56565b6102a261271081565b6103f26103ed366004612c09565b610de3565b6040516001600160a01b0390911681526020016102ac565b610297610418366004612c68565b610e0d565b61032e61042b366004612c09565b610fbe565b610438611062565b6040516102ac9190612da2565b61032e610453366004612a18565b60036020526000908152604090205460ff1681565b610297610476366004612c68565b6110c4565b6102a2610489366004612c09565b6112dc565b6008546103f2906001600160a01b031681565b6102976104af366004612c68565b611370565b6102976104c2366004612c68565b61155b565b6007546103f2906001600160a01b031681565b6104ed6104e8366004612c09565b61165b565b6040516102ac93929190612d6c565b6103f27f000000000000000000000000000000000000000000000000000000000000000081565b610297610531366004612c68565b611714565b610297610544366004612c68565b61192c565b610438610557366004612c09565b611b8b565b6103f27f000000000000000000000000000000000000000000000000000000000000000081565b6102a260065481565b61029761059a366004612c09565b611dc4565b6102a26105ad366004612b2a565b611e61565b6102976105c0366004612c09565b611eaf565b6102976105d3366004612a18565b612019565b6102a2600b5481565b6102976105ef366004612a18565b6121e9565b6102a260055481565b6102a260005481565b610297610614366004612c09565b6123fe565b6102a260095481565b610297610630366004612a18565b612452565b6102a27f000000000000000000000000000000000000000000000000000000000000000081565b61029761066a366004612c09565b6124bf565b3330146106975760405162461bcd60e51b815260040161068e90612e8d565b60405180910390fd5b600d8190556040518181527f55a5e1d249e83893696c844d494d73176f25b5c5bd89ba7fe9e959bdc58a5b50906020015b60405180910390a150565b3360008181526003602052604090205460ff166107025760405162461bcd60e51b815260040161068e90612ed7565b60008281526002602090815260408083203380855292529091205483919060ff1661076f5760405162461bcd60e51b815260206004820152601b60248201527f4d756c74695369676e20636f6e6669726d65642829204572726f720000000000604482015260640161068e565b600084815260016020526040902060020154849060ff16156107d35760405162461bcd60e51b815260206004820152601d60248201527f4d756c74695369676e206e6f7445786563757465642829204572726f72000000604482015260640161068e565b6000858152600260209081526040808320338085529252808320805460ff191690555187927ff6a317157440607f36269043eb55f1287a5a19ba2216afeab88cd46cbcfb88e991a35050505050565b3330146108415760405162461bcd60e51b815260040161068e90612e8d565b60095460009061085983670de0b6b3a7640000612f44565b6108639190612f24565b90506000600760009054906101000a90046001600160a01b03166001600160a01b031663cd3293de6040518163ffffffff1660e01b815260040160206040518083038186803b1580156108b557600080fd5b505afa1580156108c9573d6000803e3d6000fd5b505050506040513d601f19601f820116820180604052508101906108ed9190612c21565b9050612710600b54670de0b6b3a76400006109089190612f44565b6109129190612f24565b8183600a54670de0b6b3a764000061092a9190612f44565b6109349190612f0c565b61093e9190612f24565b11156109985760405162461bcd60e51b8152602060048201526024808201527f44616f54726561737572793a2064656274206d6f7265207468616e206d6178206044820152631919589d60e21b606482015260840161068e565b6109aa670de0b6b3a764000083612f24565b600a60008282546109bb9190612f0c565b9091555050600d546040516302acc94b60e01b815260048101919091527f00000000000000000000000000000000000000000000000000000000000000006024820152604481018490527f00000000000000000000000000000000000000000000000000000000000000006001600160a01b0316906302acc94b90606401600060405180830381600087803b158015610a5357600080fd5b505af1158015610a67573d6000803e3d6000fd5b505050507fda87e68ba91e11c70943f7ee6cbf049266c95d1ccb820f7199c17e428036574283604051610a9c91815260200190565b60405180910390a1505050565b333014610ac85760405162461bcd60e51b815260040161068e90612e8d565b600d546040516331a9108f60e11b81526004810182905233906001600160a01b037f00000000000000000000000000000000000000000000000000000000000000001690636352211e9060240160206040518083038186803b158015610b2d57600080fd5b505afa158015610b41573d6000803e3d6000fd5b505050506040513d601f19601f82011682018060405250810190610b659190612a34565b6001600160a01b031614610b8b5760405162461bcd60e51b815260040161068e90612e44565b600954610b989083612f24565b600a6000828254610ba99190612f63565b9091555050600d5460405162b4200560e31b815260048101919091527f00000000000000000000000000000000000000000000000000000000000000006024820152604481018390527f00000000000000000000000000000000000000000000000000000000000000006001600160a01b0316906305a1002890606401600060405180830381600087803b158015610c4057600080fd5b505af1158015610c54573d6000803e3d6000fd5b505050507fa99e7fbb5a98c85d065fb69e692eef0f6fbe85ebdb8e60f3ea7daa2fa6fd95dd82604051610c8991815260200190565b60405180910390a15050565b333014610cb45760405162461bcd60e51b815260040161068e90612e8d565b600780546001600160a01b0319166001600160a01b0383169081179091556040519081527fb329e64befdec2a048fc9bc0ec49385e5f414f5047e9fe44d771240d47e307a5906020016106c8565b333014610d215760405162461bcd60e51b815260040161068e90612e8d565b600b8190556040518181527fa5cc43387a519ed6a0bb29d38730946ca689b0589940b0e48b5ce229a3e6e925906020016106c8565b333014610d755760405162461bcd60e51b815260040161068e90612e8d565b6040516323b872dd60e01b81523060048201526001600160a01b038381166024830152604482018390528416906323b872dd906064015b600060405180830381600087803b158015610dc657600080fd5b505af1158015610dda573d6000803e3d6000fd5b50505050505050565b60048181548110610df357600080fd5b6000918252602090912001546001600160a01b0316905081565b6040516331a9108f60e11b815260048101839052829033906001600160a01b037f00000000000000000000000000000000000000000000000000000000000000001690636352211e9060240160206040518083038186803b158015610e7157600080fd5b505afa158015610e85573d6000803e3d6000fd5b505050506040513d601f19601f82011682018060405250810190610ea99190612a34565b6001600160a01b031614610ecf5760405162461bcd60e51b815260040161068e90612e44565b60085460405163772338d160e01b815260048101859052602481018490526000916001600160a01b03169063772338d190604401602060405180830381600087803b158015610f1d57600080fd5b505af1158015610f31573d6000803e3d6000fd5b505050506040513d601f19601f82011682018060405250810190610f559190612c21565b600754604051627b8a6760e11b8152600481018390523360248201529192506001600160a01b03169062f714ce90604401600060405180830381600087803b158015610fa057600080fd5b505af1158015610fb4573d6000803e3d6000fd5b5050505050505050565b600080805b60045481101561105b576000848152600260205260408120600480549192918490811061100057634e487b7160e01b600052603260045260246000fd5b60009182526020808320909101546001600160a01b0316835282019290925260400190205460ff161561103b578161103781612fdf565b9250505b600554821061104957600192505b8061105381612fdf565b915050610fc3565b5050919050565b606060048054806020026020016040519081016040528092919081815260200182805480156110ba57602002820191906000526020600020905b81546001600160a01b0316815260019091019060200180831161109c575b5050505050905090565b6040516331a9108f60e11b815260048101839052829033906001600160a01b037f00000000000000000000000000000000000000000000000000000000000000001690636352211e9060240160206040518083038186803b15801561112857600080fd5b505afa15801561113c573d6000803e3d6000fd5b505050506040513d601f19601f820116820180604052508101906111609190612a34565b6001600160a01b0316146111865760405162461bcd60e51b815260040161068e90612e44565b600854604051632132283b60e21b815260048101859052602481018490526001600160a01b03909116906384c8a0ec90604401602060405180830381600087803b1580156111d357600080fd5b505af11580156111e7573d6000803e3d6000fd5b505050506040513d601f19601f8201168201806040525081019061120b9190612be9565b6112575760405162461bcd60e51b815260206004820152601c60248201527f44616f54726561737572793a2072657475726e476173206572726f7200000000604482015260640161068e565b600d54604051638856f77960e01b81526004810185905260248101919091527f00000000000000000000000000000000000000000000000000000000000000006044820152606481018390527f00000000000000000000000000000000000000000000000000000000000000006001600160a01b031690638856f77990608401610dac565b6000805b60045481101561136a576000838152600260205260408120600480549192918490811061131d57634e487b7160e01b600052603260045260246000fd5b60009182526020808320909101546001600160a01b0316835282019290925260400190205460ff1615611358578161135481612fdf565b9250505b8061136281612fdf565b9150506112e0565b50919050565b6007546040513360248201526001600160a01b03909116604482015260648101829052611406906323b872dd60e01b906084015b60408051601f198184030181529190526020810180516001600160e01b03166001600160e01b0319909316929092179091526001600160a01b037f00000000000000000000000000000000000000000000000000000000000000001690612513565b5060075460405163b6b55f2560e01b8152600481018390526001600160a01b039091169063b6b55f2590602401600060405180830381600087803b15801561144d57600080fd5b505af1158015611461573d6000803e3d6000fd5b505050507f00000000000000000000000000000000000000000000000000000000000000006001600160a01b0316638856f779600d54847f0000000000000000000000000000000000000000000000000000000000000000600954866114c79190612f44565b6040516001600160e01b031960e087901b1681526004810194909452602484019290925260448301526064820152608401600060405180830381600087803b15801561151257600080fd5b505af1158015611526573d6000803e3d6000fd5b505050507ff9a46179fddc33079e6516266a051a01cf929ed81b74dec875fb1bb5380d222f81604051610c8991815260200190565b6007546040513360248201526001600160a01b03909116604482015260648101829052611593906323b872dd60e01b906084016113a4565b5060075460405163b6b55f2560e01b8152600481018390526001600160a01b039091169063b6b55f2590602401600060405180830381600087803b1580156115da57600080fd5b505af11580156115ee573d6000803e3d6000fd5b505060085460405163947fdb8b60e01b815260048101869052602481018590526001600160a01b03909116925063947fdb8b9150604401600060405180830381600087803b15801561163f57600080fd5b505af1158015611653573d6000803e3d6000fd5b505050505050565b6001602081905260009182526040909120805491810180546001600160a01b039093169261168890612faa565b80601f01602080910402602001604051908101604052809291908181526020018280546116b490612faa565b80156117015780601f106116d657610100808354040283529160200191611701565b820191906000526020600020905b8154815290600101906020018083116116e457829003601f168201915b5050506002909301549192505060ff1683565b6040516331a9108f60e11b815260048101839052829033906001600160a01b037f00000000000000000000000000000000000000000000000000000000000000001690636352211e9060240160206040518083038186803b15801561177857600080fd5b505afa15801561178c573d6000803e3d6000fd5b505050506040513d601f19601f820116820180604052508101906117b09190612a34565b6001600160a01b0316146117d65760405162461bcd60e51b815260040161068e90612e44565b6008546040516302b8f60160e61b815260048101859052602481018490526001600160a01b039091169063ae3d804090604401602060405180830381600087803b15801561182357600080fd5b505af1158015611837573d6000803e3d6000fd5b505050506040513d601f19601f8201168201806040525081019061185b9190612be9565b6118a75760405162461bcd60e51b815260206004820152601c60248201527f44616f54726561737572793a20626f72726f77476173206572726f7200000000604482015260640161068e565b600d54604051638856f77960e01b81526004810191909152602481018490527f00000000000000000000000000000000000000000000000000000000000000006044820152606481018390527f00000000000000000000000000000000000000000000000000000000000000006001600160a01b031690638856f77990608401610dac565b6040516331a9108f60e11b815260048101839052829033906001600160a01b037f00000000000000000000000000000000000000000000000000000000000000001690636352211e9060240160206040518083038186803b15801561199057600080fd5b505afa1580156119a4573d6000803e3d6000fd5b505050506040513d601f19601f820116820180604052508101906119c89190612a34565b6001600160a01b0316146119ee5760405162461bcd60e51b815260040161068e90612e44565b6000600954612710611a009190612f44565b600c54611a0f90612710612f63565b611a199085612f44565b611a239190612f24565b90507f00000000000000000000000000000000000000000000000000000000000000006001600160a01b0316638856f77985600d547f000000000000000000000000000000000000000000000000000000000000000060095486611a879190612f44565b6040516001600160e01b031960e087901b1681526004810194909452602484019290925260448301526064820152608401600060405180830381600087803b158015611ad257600080fd5b505af1158015611ae6573d6000803e3d6000fd5b5050600754604051627b8a6760e11b8152600481018590523360248201526001600160a01b03909116925062f714ce9150604401600060405180830381600087803b158015611b3457600080fd5b505af1158015611b48573d6000803e3d6000fd5b505050507fab65c4c42e9429105c77d9c8e6c1cbcf427a9d90cc3f86c0bcfca0c867716b1c83604051611b7d91815260200190565b60405180910390a150505050565b60045460609060009067ffffffffffffffff811115611bba57634e487b7160e01b600052604160045260246000fd5b604051908082528060200260200182016040528015611be3578160200160208202803683370190505b5090506000805b600454811015611ceb5760008581526002602052604081206004805491929184908110611c2757634e487b7160e01b600052603260045260246000fd5b60009182526020808320909101546001600160a01b0316835282019290925260400190205460ff1615611cd95760048181548110611c7557634e487b7160e01b600052603260045260246000fd5b9060005260206000200160009054906101000a90046001600160a01b0316838381518110611cb357634e487b7160e01b600052603260045260246000fd5b6001600160a01b039092166020928302919091019091015281611cd581612fdf565b9250505b80611ce381612fdf565b915050611bea565b508067ffffffffffffffff811115611d1357634e487b7160e01b600052604160045260246000fd5b604051908082528060200260200182016040528015611d3c578160200160208202803683370190505b50925060005b81811015611dbc57828181518110611d6a57634e487b7160e01b600052603260045260246000fd5b6020026020010151848281518110611d9257634e487b7160e01b600052603260045260246000fd5b6001600160a01b039092166020928302919091019091015280611db481612fdf565b915050611d42565b505050919050565b333014611de35760405162461bcd60e51b815260040161068e90612e8d565b600454818115801590611df857506000548211155b8015611e045750600081115b8015611e105750818111155b611e2c5760405162461bcd60e51b815260040161068e90612e02565b60058390556040518381527fa3f1ee9126a074d9326c682f561767f710e927faa811f7a99829d49dc421797a90602001610a9c565b3360008181526003602052604081205490919060ff16611e935760405162461bcd60e51b815260040161068e90612ed7565b611e9d848461255c565b9150611ea882611eaf565b5092915050565b3360008181526003602052604090205460ff16611ede5760405162461bcd60e51b815260040161068e90612ed7565b60008281526001602052604090205482906001600160a01b0316611f505760405162461bcd60e51b815260206004820152602360248201527f4d756c74695369676e207472616e73616374696f6e45786973747328292045726044820152623937b960e91b606482015260840161068e565b60008381526002602090815260408083203380855292529091205484919060ff1615611fbe5760405162461bcd60e51b815260206004820152601e60248201527f4d756c74695369676e206e6f74436f6e6669726d65642829204572726f720000604482015260640161068e565b6000858152600260209081526040808320338085529252808320805460ff191660011790555187927f4a504a94899432a9846e1aa406dceb1bcfd538bb839071d49d1e5e23f5be30ef91a361201285612679565b5050505050565b6001600160a01b038116600090815260036020526040902054819060ff16156120905760405162461bcd60e51b815260206004820152602360248201527f4d756c74695369676e20636f6d6d697465654e6f7445786973747328292045726044820152623937b960e91b606482015260840161068e565b816001600160a01b0381166120e35760405162461bcd60e51b815260206004820152601960248201527826bab63a34a9b4b3b7103737ba273ab63614149022b93937b960391b604482015260640161068e565b6004546120f1906001612f0c565b60055460008211801561210657506000548211155b80156121125750600081115b801561211e5750818111155b61213a5760405162461bcd60e51b815260040161068e90612e02565b3330146121595760405162461bcd60e51b815260040161068e90612e8d565b6001600160a01b038516600081815260036020526040808220805460ff1916600190811790915560048054918201815583527f8a35acfbc15ff81a39ae7d344fd709f28e8600b4aa8c65c6b64bfe7fe36bd19b0180546001600160a01b03191684179055517f6aace347f016a777fa6258ea1f5a1cf7a83cba16e67ab7d4abedf50dbf4779e29190a25050505050565b3330146122085760405162461bcd60e51b815260040161068e90612e8d565b6001600160a01b038116600090815260036020526040902054819060ff166122425760405162461bcd60e51b815260040161068e90612ed7565b6001600160a01b0382166000908152600360205260408120805460ff191690555b60045461227290600190612f63565b81101561236c57826001600160a01b0316600482815481106122a457634e487b7160e01b600052603260045260246000fd5b6000918252602090912001546001600160a01b0316141561235a57600480546122cf90600190612f63565b815481106122ed57634e487b7160e01b600052603260045260246000fd5b600091825260209091200154600480546001600160a01b03909216918390811061232757634e487b7160e01b600052603260045260246000fd5b9060005260206000200160006101000a8154816001600160a01b0302191690836001600160a01b0316021790555061236c565b8061236481612fdf565b915050612263565b50600480548061238c57634e487b7160e01b600052603160045260246000fd5b600082815260209020810160001990810180546001600160a01b031916905501905560045460055411156123c6576004546123c690611dc4565b6040516001600160a01b038316907fe4c71e97b098958c9a514b681c52608969cc549306e8c95ec3f25c189daee40a90600090a25050565b33301461241d5760405162461bcd60e51b815260040161068e90612e8d565b60098190556040518181527f2cdf928bf44b43ec9abf0303365ba96ca923285832406706c660071b793417a4906020016106c8565b3330146124715760405162461bcd60e51b815260040161068e90612e8d565b600880546001600160a01b0319166001600160a01b0383169081179091556040519081527f4377333e180eb2790ab8a4441055642568c7fffb86f2f0888c57cde35321cbe0906020016106c8565b3330146124de5760405162461bcd60e51b815260040161068e90612e8d565b600c8190556040518181527f0c7945060807e7a3d25debccd2ec8f646c0b1ba7426edf67aa22b335dd5bfdd1906020016106c8565b606061255583836040518060400160405280601e81526020017f416464726573733a206c6f772d6c6576656c2063616c6c206661696c65640000815250612807565b9392505050565b6000826001600160a01b0381166125b15760405162461bcd60e51b815260206004820152601960248201527826bab63a34a9b4b3b7103737ba273ab63614149022b93937b960391b604482015260640161068e565b600654604080516060810182526001600160a01b038781168252602080830188815260008486018190528681526001808452959020845181546001600160a01b031916941693909317835551805195975092949193612616939085019291019061297f565b50604091909101516002909101805460ff19169115159190911790556006805490600061264283612fdf565b909155505060405182907fc0ba8fe4b176c1714197d43b9cc6bcf797a4a7461c5fe8d0ef6e184ae7601e5190600090a25092915050565b600081815260016020526040902060020154819060ff16156126dd5760405162461bcd60e51b815260206004820152601d60248201527f4d756c74695369676e206e6f7445786563757465642829204572726f72000000604482015260640161068e565b6126e682610fbe565b1561280357600082815260016020819052604080832060028101805460ff1916841790558054915190939283926001600160a01b03169161272991860190612cd1565b6000604051808303816000865af19150503d8060008114612766576040519150601f19603f3d011682016040523d82523d6000602084013e61276b565b606091505b50915091508180156127955750805115806127955750808060200190518101906127959190612be9565b156127ca5760405185907ff2788e0d1a8dffbdac057cef8914e5346afd7a09d39d19b60080caf3cc07c4f790600090a2612012565b60405185907f526441bb6c1aba3c9a4a6ca1d6545da9c2333c8c48343ef398eb858d72b7923690600090a25050600201805460ff191690555b5050565b6060612816848460008561281e565b949350505050565b60608247101561287f5760405162461bcd60e51b815260206004820152602660248201527f416464726573733a20696e73756666696369656e742062616c616e636520666f6044820152651c8818d85b1b60d21b606482015260840161068e565b843b6128cd5760405162461bcd60e51b815260206004820152601d60248201527f416464726573733a2063616c6c20746f206e6f6e2d636f6e7472616374000000604482015260640161068e565b600080866001600160a01b031685876040516128e99190612cb5565b60006040518083038185875af1925050503d8060008114612926576040519150601f19603f3d011682016040523d82523d6000602084013e61292b565b606091505b509150915061293b828286612946565b979650505050505050565b60608315612955575081612555565b8251156129655782518084602001fd5b8160405162461bcd60e51b815260040161068e9190612def565b82805461298b90612faa565b90600052602060002090601f0160209004810192826129ad57600085556129f3565b82601f106129c657805160ff19168380011785556129f3565b828001600101855582156129f3579182015b828111156129f35782518255916020019190600101906129d8565b506129ff929150612a03565b5090565b5b808211156129ff5760008155600101612a04565b600060208284031215612a29578081fd5b813561255581613026565b600060208284031215612a45578081fd5b815161255581613026565b600080600060608486031215612a64578182fd5b8335612a6f81613026565b92506020840135612a7f81613026565b929592945050506040919091013590565b600080600080600060808688031215612aa7578081fd5b8535612ab281613026565b94506020860135612ac281613026565b935060408601359250606086013567ffffffffffffffff80821115612ae5578283fd5b818801915088601f830112612af8578283fd5b813581811115612b06578384fd5b896020828501011115612b17578384fd5b9699959850939650602001949392505050565b60008060408385031215612b3c578182fd5b8235612b4781613026565b9150602083013567ffffffffffffffff80821115612b63578283fd5b818501915085601f830112612b76578283fd5b813581811115612b8857612b88613010565b604051601f8201601f19908116603f01168101908382118183101715612bb057612bb0613010565b81604052828152886020848701011115612bc8578586fd5b82602086016020830137856020848301015280955050505050509250929050565b600060208284031215612bfa578081fd5b81518015158114612555578182fd5b600060208284031215612c1a578081fd5b5035919050565b600060208284031215612c32578081fd5b5051919050565b60008060408385031215612c4b578182fd5b823591506020830135612c5d81613026565b809150509250929050565b60008060408385031215612c7a578182fd5b50508035926020909101359150565b60008151808452612ca1816020860160208601612f7a565b601f01601f19169290920160200192915050565b60008251612cc7818460208701612f7a565b9190910192915050565b600080835482600182811c915080831680612ced57607f831692505b6020808410821415612d0d57634e487b7160e01b87526022600452602487fd5b818015612d215760018114612d3257612d5e565b60ff19861689528489019650612d5e565b60008a815260209020885b86811015612d565781548b820152908501908301612d3d565b505084890196505b509498975050505050505050565b6001600160a01b0384168152606060208201819052600090612d9090830185612c89565b90508215156040830152949350505050565b6020808252825182820181905260009190848201906040850190845b81811015612de35783516001600160a01b031683529284019291840191600101612dbe565b50909695505050505050565b6020815260006125556020830184612c89565b60208082526022908201527f4d756c74695369676e2076616c6964526571756972656d656e7428292045727260408201526137b960f11b606082015260800190565b60208082526029908201527f44616f54726561737572793a2063616c6c6572206973206e6f7420746865206e604082015268333a103437b63232b960b91b606082015260800190565b6020808252602a908201527f4d756c74695369676e206f6e6c7920616464726573732874686973292063616e6040820152692063616c6c207468697360b01b606082015260800190565b6020808252818101527f4d756c74695369676e20636f6d6d697465654578697374732829204572726f72604082015260600190565b60008219821115612f1f57612f1f612ffa565b500190565b600082612f3f57634e487b7160e01b81526012600452602481fd5b500490565b6000816000190483118215151615612f5e57612f5e612ffa565b500290565b600082821015612f7557612f75612ffa565b500390565b60005b83811015612f95578181015183820152602001612f7d565b83811115612fa4576000848401525b50505050565b600181811c90821680612fbe57607f821691505b6020821081141561136a57634e487b7160e01b600052602260045260246000fd5b6000600019821415612ff357612ff3612ffa565b5060010190565b634e487b7160e01b600052601160045260246000fd5b634e487b7160e01b600052604160045260246000fd5b6001600160a01b038116811461303b57600080fd5b5056fea2646970667358221220ff605eda9470a9c7e0d85571acd8e52a54c94da16789261cbed8b582806b869f64736f6c63430008040033",
  "linkReferences": {},
  "deployedLinkReferences": {}
}