{
  "_format": "hh-sol-artifact-1",
  "contractName": "DaoTreasury",
  "sourceName": "contracts/DaoTreasury.sol",
  "abi": [
    {
      "inputs": [
        {
          "internalType": "address",
          "name": "_WEB3DAONFT",
          "type": "address"
        },
        {
          "internalType": "address",
          "name": "_WETH",
          "type": "address"
        },
        {
          "internalType": "uint256",
          "name": "_SPONSOR_ATTR_ID",
          "type": "uint256"
        },
        {
          "internalType": "uint256",
          "name": "_GAS_ATTR_ID",
          "type": "uint256"
        }
      ],
      "stateMutability": "nonpayable",
      "type": "constructor"
    },
    {
      "anonymous": false,
      "inputs": [
        {
          "indexed": false,
          "internalType": "uint256",
          "name": "gasAmount",
          "type": "uint256"
        }
      ],
      "name": "BurnGas",
      "type": "event"
    },
    {
      "anonymous": false,
      "inputs": [
        {
          "indexed": false,
          "internalType": "uint256",
          "name": "gasAmount",
          "type": "uint256"
        }
      ],
      "name": "BuyGas",
      "type": "event"
    },
    {
      "anonymous": false,
      "inputs": [
        {
          "indexed": true,
          "internalType": "address",
          "name": "commitee",
          "type": "address"
        }
      ],
      "name": "CommiteeAddition",
      "type": "event"
    },
    {
      "anonymous": false,
      "inputs": [
        {
          "indexed": true,
          "internalType": "address",
          "name": "commitee",
          "type": "address"
        }
      ],
      "name": "CommiteeRemoval",
      "type": "event"
    },
    {
      "anonymous": false,
      "inputs": [
        {
          "indexed": true,
          "internalType": "address",
          "name": "sender",
          "type": "address"
        },
        {
          "indexed": true,
          "internalType": "uint256",
          "name": "transactionId",
          "type": "uint256"
        }
      ],
      "name": "Confirmation",
      "type": "event"
    },
    {
      "anonymous": false,
      "inputs": [
        {
          "indexed": true,
          "internalType": "uint256",
          "name": "transactionId",
          "type": "uint256"
        }
      ],
      "name": "Execution",
      "type": "event"
    },
    {
      "anonymous": false,
      "inputs": [
        {
          "indexed": true,
          "internalType": "uint256",
          "name": "transactionId",
          "type": "uint256"
        }
      ],
      "name": "ExecutionFailure",
      "type": "event"
    },
    {
      "anonymous": false,
      "inputs": [
        {
          "indexed": true,
          "internalType": "uint256",
          "name": "transactionId",
          "type": "uint256"
        }
      ],
      "name": "ExecutionSuccess",
      "type": "event"
    },
    {
      "anonymous": false,
      "inputs": [
        {
          "indexed": false,
          "internalType": "uint256",
          "name": "gasAmount",
          "type": "uint256"
        }
      ],
      "name": "MintGas",
      "type": "event"
    },
    {
      "anonymous": false,
      "inputs": [
        {
          "indexed": false,
          "internalType": "uint256",
          "name": "required",
          "type": "uint256"
        }
      ],
      "name": "RequirementChange",
      "type": "event"
    },
    {
      "anonymous": false,
      "inputs": [
        {
          "indexed": true,
          "internalType": "address",
          "name": "sender",
          "type": "address"
        },
        {
          "indexed": true,
          "internalType": "uint256",
          "name": "transactionId",
          "type": "uint256"
        }
      ],
      "name": "Revocation",
      "type": "event"
    },
    {
      "anonymous": false,
      "inputs": [
        {
          "indexed": false,
          "internalType": "uint256",
          "name": "gasAmount",
          "type": "uint256"
        }
      ],
      "name": "SellGas",
      "type": "event"
    },
    {
      "anonymous": false,
      "inputs": [
        {
          "indexed": false,
          "internalType": "address",
          "name": "_DaoSponsor",
          "type": "address"
        }
      ],
      "name": "SetDaoSponsor",
      "type": "event"
    },
    {
      "anonymous": false,
      "inputs": [
        {
          "indexed": false,
          "internalType": "address",
          "name": "_DaoVault",
          "type": "address"
        }
      ],
      "name": "SetDaoVault",
      "type": "event"
    },
    {
      "anonymous": false,
      "inputs": [
        {
          "indexed": false,
          "internalType": "uint256",
          "name": "_gasAttrPrice",
          "type": "uint256"
        }
      ],
      "name": "SetGasAttrPrice",
      "type": "event"
    },
    {
      "anonymous": false,
      "inputs": [
        {
          "indexed": false,
          "internalType": "uint256",
          "name": "_gasTax",
          "type": "uint256"
        }
      ],
      "name": "SetGasTax",
      "type": "event"
    },
    {
      "anonymous": false,
      "inputs": [
        {
          "indexed": false,
          "internalType": "uint256",
          "name": "_holdNFTId",
          "type": "uint256"
        }
      ],
      "name": "SetHoldNFTId",
      "type": "event"
    },
    {
      "anonymous": false,
      "inputs": [
        {
          "indexed": false,
          "internalType": "uint256",
          "name": "_maxDebt",
          "type": "uint256"
        }
      ],
      "name": "SetMaxDebt",
      "type": "event"
    },
    {
      "anonymous": false,
      "inputs": [
        {
          "indexed": true,
          "internalType": "uint256",
          "name": "transactionId",
          "type": "uint256"
        }
      ],
      "name": "Submission",
      "type": "event"
    },
    {
      "inputs": [],
      "name": "DaoSponsor",
      "outputs": [
        {
          "internalType": "address",
          "name": "",
          "type": "address"
        }
      ],
      "stateMutability": "view",
      "type": "function"
    },
    {
      "inputs": [],
      "name": "DaoVault",
      "outputs": [
        {
          "internalType": "address",
          "name": "",
          "type": "address"
        }
      ],
      "stateMutability": "view",
      "type": "function"
    },
    {
      "inputs": [],
      "name": "GAS_ATTR_ID",
      "outputs": [
        {
          "internalType": "uint256",
          "name": "",
          "type": "uint256"
        }
      ],
      "stateMutability": "view",
      "type": "function"
    },
    {
      "inputs": [],
      "name": "MAX_COMMITEE_COUNT",
      "outputs": [
        {
          "internalType": "uint256",
          "name": "",
          "type": "uint256"
        }
      ],
      "stateMutability": "view",
      "type": "function"
    },
    {
      "inputs": [],
      "name": "SPONSOR_ATTR_ID",
      "outputs": [
        {
          "internalType": "uint256",
          "name": "",
          "type": "uint256"
        }
      ],
      "stateMutability": "view",
      "type": "function"
    },
    {
      "inputs": [],
      "name": "WEB3DAONFT",
      "outputs": [
        {
          "internalType": "address",
          "name": "",
          "type": "address"
        }
      ],
      "stateMutability": "view",
      "type": "function"
    },
    {
      "inputs": [],
      "name": "WETH",
      "outputs": [
        {
          "internalType": "address",
          "name": "",
          "type": "address"
        }
      ],
      "stateMutability": "view",
      "type": "function"
    },
    {
      "inputs": [
        {
          "internalType": "address",
          "name": "commitee",
          "type": "address"
        }
      ],
      "name": "addCommitee",
      "outputs": [],
      "stateMutability": "nonpayable",
      "type": "function"
    },
    {
      "inputs": [
        {
          "internalType": "uint256",
          "name": "tokenId",
          "type": "uint256"
        },
        {
          "internalType": "uint256",
          "name": "gasAmount",
          "type": "uint256"
        }
      ],
      "name": "borrowGas",
      "outputs": [],
      "stateMutability": "nonpayable",
      "type": "function"
    },
    {
      "inputs": [
        {
          "internalType": "uint256",
          "name": "gasAmount",
          "type": "uint256"
        }
      ],
      "name": "burnGas",
      "outputs": [],
      "stateMutability": "nonpayable",
      "type": "function"
    },
    {
      "inputs": [
        {
          "internalType": "uint256",
          "name": "tokenId",
          "type": "uint256"
        },
        {
          "internalType": "uint256",
          "name": "ethAmount",
          "type": "uint256"
        }
      ],
      "name": "buyGas",
      "outputs": [],
      "stateMutability": "nonpayable",
      "type": "function"
    },
    {
      "inputs": [
        {
          "internalType": "uint256",
          "name": "_required",
          "type": "uint256"
        }
      ],
      "name": "changeRequirement",
      "outputs": [],
      "stateMutability": "nonpayable",
      "type": "function"
    },
    {
      "inputs": [
        {
          "internalType": "uint256",
          "name": "",
          "type": "uint256"
        }
      ],
      "name": "commitees",
      "outputs": [
        {
          "internalType": "address",
          "name": "",
          "type": "address"
        }
      ],
      "stateMutability": "view",
      "type": "function"
    },
    {
      "inputs": [
        {
          "internalType": "uint256",
          "name": "transactionId",
          "type": "uint256"
        }
      ],
      "name": "confirmTransaction",
      "outputs": [],
      "stateMutability": "nonpayable",
      "type": "function"
    },
    {
      "inputs": [
        {
          "internalType": "uint256",
          "name": "",
          "type": "uint256"
        },
        {
          "internalType": "address",
          "name": "",
          "type": "address"
        }
      ],
      "name": "confirmations",
      "outputs": [
        {
          "internalType": "bool",
          "name": "",
          "type": "bool"
        }
      ],
      "stateMutability": "view",
      "type": "function"
    },
    {
      "inputs": [],
      "name": "debt",
      "outputs": [
        {
          "internalType": "uint256",
          "name": "",
          "type": "uint256"
        }
      ],
      "stateMutability": "view",
      "type": "function"
    },
    {
      "inputs": [],
      "name": "gasAttrPrice",
      "outputs": [
        {
          "internalType": "uint256",
          "name": "",
          "type": "uint256"
        }
      ],
      "stateMutability": "view",
      "type": "function"
    },
    {
      "inputs": [],
      "name": "gasTax",
      "outputs": [
        {
          "internalType": "uint256",
          "name": "",
          "type": "uint256"
        }
      ],
      "stateMutability": "view",
      "type": "function"
    },
    {
      "inputs": [],
      "name": "getCommitees",
      "outputs": [
        {
          "internalType": "address[]",
          "name": "",
          "type": "address[]"
        }
      ],
      "stateMutability": "view",
      "type": "function"
    },
    {
      "inputs": [
        {
          "internalType": "uint256",
          "name": "transactionId",
          "type": "uint256"
        }
      ],
      "name": "getConfirmationCount",
      "outputs": [
        {
          "internalType": "uint256",
          "name": "count",
          "type": "uint256"
        }
      ],
      "stateMutability": "view",
      "type": "function"
    },
    {
      "inputs": [
        {
          "internalType": "uint256",
          "name": "transactionId",
          "type": "uint256"
        }
      ],
      "name": "getConfirmations",
      "outputs": [
        {
          "internalType": "address[]",
          "name": "_confirmations",
          "type": "address[]"
        }
      ],
      "stateMutability": "view",
      "type": "function"
    },
    {
      "inputs": [],
      "name": "holdNFTId",
      "outputs": [
        {
          "internalType": "uint256",
          "name": "",
          "type": "uint256"
        }
      ],
      "stateMutability": "view",
      "type": "function"
    },
    {
      "inputs": [
        {
          "internalType": "address",
          "name": "",
          "type": "address"
        }
      ],
      "name": "isCommitee",
      "outputs": [
        {
          "internalType": "bool",
          "name": "",
          "type": "bool"
        }
      ],
      "stateMutability": "view",
      "type": "function"
    },
    {
      "inputs": [
        {
          "internalType": "uint256",
          "name": "transactionId",
          "type": "uint256"
        }
      ],
      "name": "isConfirmed",
      "outputs": [
        {
          "internalType": "bool",
          "name": "ret",
          "type": "bool"
        }
      ],
      "stateMutability": "view",
      "type": "function"
    },
    {
      "inputs": [],
      "name": "max",
      "outputs": [
        {
          "internalType": "uint256",
          "name": "",
          "type": "uint256"
        }
      ],
      "stateMutability": "view",
      "type": "function"
    },
    {
      "inputs": [],
      "name": "maxDebt",
      "outputs": [
        {
          "internalType": "uint256",
          "name": "",
          "type": "uint256"
        }
      ],
      "stateMutability": "view",
      "type": "function"
    },
    {
      "inputs": [
        {
          "internalType": "uint256",
          "name": "gasAmount",
          "type": "uint256"
        }
      ],
      "name": "mintGas",
      "outputs": [],
      "stateMutability": "nonpayable",
      "type": "function"
    },
    {
      "inputs": [
        {
          "internalType": "address",
          "name": "operator",
          "type": "address"
        },
        {
          "internalType": "address",
          "name": "from",
          "type": "address"
        },
        {
          "internalType": "uint256",
          "name": "tokenId",
          "type": "uint256"
        },
        {
          "internalType": "bytes",
          "name": "data",
          "type": "bytes"
        }
      ],
      "name": "onERC721Received",
      "outputs": [
        {
          "internalType": "bytes4",
          "name": "",
          "type": "bytes4"
        }
      ],
      "stateMutability": "pure",
      "type": "function"
    },
    {
      "inputs": [
        {
          "internalType": "uint256",
          "name": "tokenId",
          "type": "uint256"
        },
        {
          "internalType": "uint256",
          "name": "sponsorAmount",
          "type": "uint256"
        }
      ],
      "name": "quit",
      "outputs": [],
      "stateMutability": "nonpayable",
      "type": "function"
    },
    {
      "inputs": [
        {
          "internalType": "address",
          "name": "commitee",
          "type": "address"
        }
      ],
      "name": "removeCommitee",
      "outputs": [],
      "stateMutability": "nonpayable",
      "type": "function"
    },
    {
      "inputs": [
        {
          "internalType": "address",
          "name": "commitee",
          "type": "address"
        },
        {
          "internalType": "address",
          "name": "newCommitee",
          "type": "address"
        }
      ],
      "name": "replaceCommitee",
      "outputs": [],
      "stateMutability": "nonpayable",
      "type": "function"
    },
    {
      "inputs": [],
      "name": "required",
      "outputs": [
        {
          "internalType": "uint256",
          "name": "",
          "type": "uint256"
        }
      ],
      "stateMutability": "view",
      "type": "function"
    },
    {
      "inputs": [
        {
          "internalType": "uint256",
          "name": "tokenId",
          "type": "uint256"
        },
        {
          "internalType": "uint256",
          "name": "gasAmount",
          "type": "uint256"
        }
      ],
      "name": "returnGas",
      "outputs": [],
      "stateMutability": "nonpayable",
      "type": "function"
    },
    {
      "inputs": [
        {
          "internalType": "uint256",
          "name": "transactionId",
          "type": "uint256"
        }
      ],
      "name": "revokeConfirmation",
      "outputs": [],
      "stateMutability": "nonpayable",
      "type": "function"
    },
    {
      "inputs": [
        {
          "internalType": "uint256",
          "name": "tokenId",
          "type": "uint256"
        },
        {
          "internalType": "uint256",
          "name": "gasAmount",
          "type": "uint256"
        }
      ],
      "name": "sellGas",
      "outputs": [],
      "stateMutability": "nonpayable",
      "type": "function"
    },
    {
      "inputs": [
        {
          "internalType": "address",
          "name": "_DaoSponsor",
          "type": "address"
        }
      ],
      "name": "setDaoSponsor",
      "outputs": [],
      "stateMutability": "nonpayable",
      "type": "function"
    },
    {
      "inputs": [
        {
          "internalType": "address",
          "name": "_DaoVault",
          "type": "address"
        }
      ],
      "name": "setDaoVault",
      "outputs": [],
      "stateMutability": "nonpayable",
      "type": "function"
    },
    {
      "inputs": [
        {
          "internalType": "uint256",
          "name": "_gasAttrPrice",
          "type": "uint256"
        }
      ],
      "name": "setGasAttrPrice",
      "outputs": [],
      "stateMutability": "nonpayable",
      "type": "function"
    },
    {
      "inputs": [
        {
          "internalType": "uint256",
          "name": "_gasTax",
          "type": "uint256"
        }
      ],
      "name": "setGasTax",
      "outputs": [],
      "stateMutability": "nonpayable",
      "type": "function"
    },
    {
      "inputs": [
        {
          "internalType": "uint256",
          "name": "_holdNFTId",
          "type": "uint256"
        }
      ],
      "name": "setHoldNFTId",
      "outputs": [],
      "stateMutability": "nonpayable",
      "type": "function"
    },
    {
      "inputs": [
        {
          "internalType": "uint256",
          "name": "_maxDebt",
          "type": "uint256"
        }
      ],
      "name": "setMaxDebt",
      "outputs": [],
      "stateMutability": "nonpayable",
      "type": "function"
    },
    {
      "inputs": [
        {
          "internalType": "uint256",
          "name": "tokenId",
          "type": "uint256"
        },
        {
          "internalType": "uint256",
          "name": "ethAmount",
          "type": "uint256"
        }
      ],
      "name": "sponsor",
      "outputs": [],
      "stateMutability": "nonpayable",
      "type": "function"
    },
    {
      "inputs": [
        {
          "internalType": "address",
          "name": "destination",
          "type": "address"
        },
        {
          "internalType": "bytes",
          "name": "data",
          "type": "bytes"
        }
      ],
      "name": "submitTransaction",
      "outputs": [
        {
          "internalType": "uint256",
          "name": "transactionId",
          "type": "uint256"
        }
      ],
      "stateMutability": "nonpayable",
      "type": "function"
    },
    {
      "inputs": [],
      "name": "transactionCount",
      "outputs": [
        {
          "internalType": "uint256",
          "name": "",
          "type": "uint256"
        }
      ],
      "stateMutability": "view",
      "type": "function"
    },
    {
      "inputs": [
        {
          "internalType": "uint256",
          "name": "",
          "type": "uint256"
        }
      ],
      "name": "transactions",
      "outputs": [
        {
          "internalType": "address",
          "name": "destination",
          "type": "address"
        },
        {
          "internalType": "bytes",
          "name": "data",
          "type": "bytes"
        },
        {
          "internalType": "bool",
          "name": "executed",
          "type": "bool"
        }
      ],
      "stateMutability": "view",
      "type": "function"
    },
    {
      "inputs": [
        {
          "internalType": "address",
          "name": "token",
          "type": "address"
        },
        {
          "internalType": "address",
          "name": "to",
          "type": "address"
        },
        {
          "internalType": "uint256",
          "name": "tokenId",
          "type": "uint256"
        }
      ],
      "name": "transferNFT",
      "outputs": [],
      "stateMutability": "nonpayable",
      "type": "function"
    }
  ],
  "bytecode": "0x6101006040526065600055612710600955611388600b556064600c553480156200002857600080fd5b50604051620034a5380380620034a58339810160408190526200004b91620000f2565b336000818152600360205260408120805460ff1916600190811790915560048054808301825592527f8a35acfbc15ff81a39ae7d344fd709f28e8600b4aa8c65c6b64bfe7fe36bd19b90910180546001600160a01b0319169092179091556005556001600160601b0319606094851b81166080529290931b90911660a05260c05260e05262000139565b80516001600160a01b0381168114620000ed57600080fd5b919050565b6000806000806080858703121562000108578384fd5b6200011385620000d5565b93506200012360208601620000d5565b6040860151606090960151949790965092505050565b60805160601c60a05160601c60c05160e0516132ae620001f760003960008181610658015281816109f801528181610be501528181611296015281816114b801528181611ace0152611c600152600061038701526000818161051f01526113fe01526000818161057f01528181610a2501528181610b0901528181610c1201528181610e4d01528181611104015281816112c3015281816114850152818161193c01528181611afb01528181611b540152611c2d01526132ae6000f3fe608060405234801561001057600080fd5b506004361061028a5760003560e01c8063947fdb8b1161015c578063bbf1b2f1116100ce578063f10f377611610087578063f10f37761461061b578063f4a37d6914610624578063f5bc5dcb14610637578063f7faafa014610640578063f848231314610653578063ffd06e051461067a57600080fd5b8063bbf1b2f1146105bd578063c01a8c84146105d0578063c60abbf4146105e3578063d0064c00146105f6578063d5120724146105ff578063dc8452cd1461061257600080fd5b8063ae3d804011610120578063ae3d804014610541578063b09e7bf114610554578063b5dc40c314610567578063b7627eee1461057a578063b77bf600146105a1578063ba51a6df146105aa57600080fd5b8063947fdb8b146104bf57806398b8c4e1146104d25780639ace38c2146104e5578063a123678f14610507578063ad5c46481461051a57600080fd5b80636526941b116102005780637897590e116101b95780637897590e1461043b578063823349921461045057806384c8a0ec146104735780638b51d13f146104865780638b60d7ef14610499578063901b8cb3146104ac57600080fd5b80636526941b146103bb57806369e9cae1146103ce5780636ac5db19146103e15780636f6cc704146103ea578063772338d114610415578063784547a71461042857600080fd5b80634248fe23116102525780634248fe23146103495780634ad5d16f1461035c5780634b799db11461036f5780634bb81553146103825780634d317f1a146103a957806363dbc756146103b257600080fd5b806302183adc1461028f5780630dca59c1146102a4578063150b7a02146102c057806320ea8d86146102f85780633411c81c1461030b575b600080fd5b6102a261029d366004612e0b565b61068d565b005b6102ad600a5481565b6040519081526020015b60405180910390f35b6102df6102ce366004612c92565b630a85bd0160e11b95945050505050565b6040516001600160e01b031990911681526020016102b7565b6102a2610306366004612e0b565b6106f1565b610339610319366004612e3b565b600260209081526000928352604080842090915290825290205460ff1681565b60405190151581526020016102b7565b6102a2610357366004612e0b565b610840565b6102a261036a366004612e0b565b610ac7565b6102a261037d366004612be2565b610cb3565b6102ad7f000000000000000000000000000000000000000000000000000000000000000081565b6102ad600d5481565b6102ad600c5481565b6102a26103c9366004612e0b565b610d20565b6102a26103dc366004612c52565b610d74565b6102ad61271081565b6103fd6103f8366004612e0b565b610e01565b6040516001600160a01b0390911681526020016102b7565b6102a2610423366004612e5f565b610e2b565b610339610436366004612e0b565b610fdc565b610443611080565b6040516102b79190612f99565b61033961045e366004612be2565b60036020526000908152604090205460ff1681565b6102a2610481366004612e5f565b6110e2565b6102ad610494366004612e0b565b6112fa565b6008546103fd906001600160a01b031681565b6102a26104ba366004612e5f565b61138e565b6102a26104cd366004612e5f565b611579565b6007546103fd906001600160a01b031681565b6104f86104f3366004612e0b565b611679565b6040516102b793929190612f63565b6102a2610515366004612c1a565b611732565b6103fd7f000000000000000000000000000000000000000000000000000000000000000081565b6102a261054f366004612e5f565b61191a565b6102a2610562366004612e5f565b611b32565b610443610575366004612e0b565b611d91565b6103fd7f000000000000000000000000000000000000000000000000000000000000000081565b6102ad60065481565b6102a26105b8366004612e0b565b611fca565b6102ad6105cb366004612d2c565b612067565b6102a26105de366004612e0b565b6120b5565b6102a26105f1366004612be2565b61221f565b6102ad600b5481565b6102a261060d366004612be2565b6123b3565b6102ad60055481565b6102ad60005481565b6102a2610632366004612e0b565b6125c8565b6102ad60095481565b6102a261064e366004612be2565b61261c565b6102ad7f000000000000000000000000000000000000000000000000000000000000000081565b6102a2610688366004612e0b565b612689565b3330146106b55760405162461bcd60e51b81526004016106ac906130c7565b60405180910390fd5b600d8190556040518181527f55a5e1d249e83893696c844d494d73176f25b5c5bd89ba7fe9e959bdc58a5b50906020015b60405180910390a150565b3360008181526003602052604090205460ff166107205760405162461bcd60e51b81526004016106ac90613111565b60008281526002602090815260408083203380855292529091205483919060ff1661078d5760405162461bcd60e51b815260206004820152601b60248201527f4d756c74695369676e20636f6e6669726d65642829204572726f72000000000060448201526064016106ac565b600084815260016020526040902060020154849060ff16156107f15760405162461bcd60e51b815260206004820152601d60248201527f4d756c74695369676e206e6f7445786563757465642829204572726f7200000060448201526064016106ac565b6000858152600260209081526040808320338085529252808320805460ff191690555187927ff6a317157440607f36269043eb55f1287a5a19ba2216afeab88cd46cbcfb88e991a35050505050565b33301461085f5760405162461bcd60e51b81526004016106ac906130c7565b60095460009061087783670de0b6b3a764000061317e565b610881919061315e565b90506000600760009054906101000a90046001600160a01b03166001600160a01b031663cd3293de6040518163ffffffff1660e01b815260040160206040518083038186803b1580156108d357600080fd5b505afa1580156108e7573d6000803e3d6000fd5b505050506040513d601f19601f8201168201806040525081019061090b9190612e23565b9050612710600b54670de0b6b3a7640000610926919061317e565b610930919061315e565b8183600a54670de0b6b3a7640000610948919061317e565b6109529190613146565b61095c919061315e565b11156109b65760405162461bcd60e51b8152602060048201526024808201527f44616f54726561737572793a2064656274206d6f7265207468616e206d6178206044820152631919589d60e21b60648201526084016106ac565b6109c8670de0b6b3a76400008361315e565b600a60008282546109d99190613146565b9091555050600d546040516302acc94b60e01b815260048101919091527f00000000000000000000000000000000000000000000000000000000000000006024820152604481018490527f00000000000000000000000000000000000000000000000000000000000000006001600160a01b0316906302acc94b90606401600060405180830381600087803b158015610a7157600080fd5b505af1158015610a85573d6000803e3d6000fd5b505050507fda87e68ba91e11c70943f7ee6cbf049266c95d1ccb820f7199c17e428036574283604051610aba91815260200190565b60405180910390a1505050565b333014610ae65760405162461bcd60e51b81526004016106ac906130c7565b600d546040516331a9108f60e11b81526004810182905233906001600160a01b037f00000000000000000000000000000000000000000000000000000000000000001690636352211e9060240160206040518083038186803b158015610b4b57600080fd5b505afa158015610b5f573d6000803e3d6000fd5b505050506040513d601f19601f82011682018060405250810190610b839190612bfe565b6001600160a01b031614610ba95760405162461bcd60e51b81526004016106ac9061303b565b600954610bb6908361315e565b600a6000828254610bc7919061319d565b9091555050600d5460405162b4200560e31b815260048101919091527f00000000000000000000000000000000000000000000000000000000000000006024820152604481018390527f00000000000000000000000000000000000000000000000000000000000000006001600160a01b0316906305a1002890606401600060405180830381600087803b158015610c5e57600080fd5b505af1158015610c72573d6000803e3d6000fd5b505050507fa99e7fbb5a98c85d065fb69e692eef0f6fbe85ebdb8e60f3ea7daa2fa6fd95dd82604051610ca791815260200190565b60405180910390a15050565b333014610cd25760405162461bcd60e51b81526004016106ac906130c7565b600780546001600160a01b0319166001600160a01b0383169081179091556040519081527fb329e64befdec2a048fc9bc0ec49385e5f414f5047e9fe44d771240d47e307a5906020016106e6565b333014610d3f5760405162461bcd60e51b81526004016106ac906130c7565b600b8190556040518181527fa5cc43387a519ed6a0bb29d38730946ca689b0589940b0e48b5ce229a3e6e925906020016106e6565b333014610d935760405162461bcd60e51b81526004016106ac906130c7565b6040516323b872dd60e01b81523060048201526001600160a01b038381166024830152604482018390528416906323b872dd906064015b600060405180830381600087803b158015610de457600080fd5b505af1158015610df8573d6000803e3d6000fd5b50505050505050565b60048181548110610e1157600080fd5b6000918252602090912001546001600160a01b0316905081565b6040516331a9108f60e11b815260048101839052829033906001600160a01b037f00000000000000000000000000000000000000000000000000000000000000001690636352211e9060240160206040518083038186803b158015610e8f57600080fd5b505afa158015610ea3573d6000803e3d6000fd5b505050506040513d601f19601f82011682018060405250810190610ec79190612bfe565b6001600160a01b031614610eed5760405162461bcd60e51b81526004016106ac9061303b565b60085460405163772338d160e01b815260048101859052602481018490526000916001600160a01b03169063772338d190604401602060405180830381600087803b158015610f3b57600080fd5b505af1158015610f4f573d6000803e3d6000fd5b505050506040513d601f19601f82011682018060405250810190610f739190612e23565b600754604051627b8a6760e11b8152600481018390523360248201529192506001600160a01b03169062f714ce90604401600060405180830381600087803b158015610fbe57600080fd5b505af1158015610fd2573d6000803e3d6000fd5b5050505050505050565b600080805b600454811015611079576000848152600260205260408120600480549192918490811061101e57634e487b7160e01b600052603260045260246000fd5b60009182526020808320909101546001600160a01b0316835282019290925260400190205460ff1615611059578161105581613219565b9250505b600554821061106757600192505b8061107181613219565b915050610fe1565b5050919050565b606060048054806020026020016040519081016040528092919081815260200182805480156110d857602002820191906000526020600020905b81546001600160a01b031681526001909101906020018083116110ba575b5050505050905090565b6040516331a9108f60e11b815260048101839052829033906001600160a01b037f00000000000000000000000000000000000000000000000000000000000000001690636352211e9060240160206040518083038186803b15801561114657600080fd5b505afa15801561115a573d6000803e3d6000fd5b505050506040513d601f19601f8201168201806040525081019061117e9190612bfe565b6001600160a01b0316146111a45760405162461bcd60e51b81526004016106ac9061303b565b600854604051632132283b60e21b815260048101859052602481018490526001600160a01b03909116906384c8a0ec90604401602060405180830381600087803b1580156111f157600080fd5b505af1158015611205573d6000803e3d6000fd5b505050506040513d601f19601f820116820180604052508101906112299190612deb565b6112755760405162461bcd60e51b815260206004820152601c60248201527f44616f54726561737572793a2072657475726e476173206572726f720000000060448201526064016106ac565b600d54604051638856f77960e01b81526004810185905260248101919091527f00000000000000000000000000000000000000000000000000000000000000006044820152606481018390527f00000000000000000000000000000000000000000000000000000000000000006001600160a01b031690638856f77990608401610dca565b6000805b600454811015611388576000838152600260205260408120600480549192918490811061133b57634e487b7160e01b600052603260045260246000fd5b60009182526020808320909101546001600160a01b0316835282019290925260400190205460ff1615611376578161137281613219565b9250505b8061138081613219565b9150506112fe565b50919050565b6007546040513360248201526001600160a01b03909116604482015260648101829052611424906323b872dd60e01b906084015b60408051601f198184030181529190526020810180516001600160e01b03166001600160e01b0319909316929092179091526001600160a01b037f000000000000000000000000000000000000000000000000000000000000000016906126dd565b5060075460405163b6b55f2560e01b8152600481018390526001600160a01b039091169063b6b55f2590602401600060405180830381600087803b15801561146b57600080fd5b505af115801561147f573d6000803e3d6000fd5b505050507f00000000000000000000000000000000000000000000000000000000000000006001600160a01b0316638856f779600d54847f0000000000000000000000000000000000000000000000000000000000000000600954866114e5919061317e565b6040516001600160e01b031960e087901b1681526004810194909452602484019290925260448301526064820152608401600060405180830381600087803b15801561153057600080fd5b505af1158015611544573d6000803e3d6000fd5b505050507ff9a46179fddc33079e6516266a051a01cf929ed81b74dec875fb1bb5380d222f81604051610ca791815260200190565b6007546040513360248201526001600160a01b039091166044820152606481018290526115b1906323b872dd60e01b906084016113c2565b5060075460405163b6b55f2560e01b8152600481018390526001600160a01b039091169063b6b55f2590602401600060405180830381600087803b1580156115f857600080fd5b505af115801561160c573d6000803e3d6000fd5b505060085460405163947fdb8b60e01b815260048101869052602481018590526001600160a01b03909116925063947fdb8b9150604401600060405180830381600087803b15801561165d57600080fd5b505af1158015611671573d6000803e3d6000fd5b505050505050565b6001602081905260009182526040909120805491810180546001600160a01b03909316926116a6906131e4565b80601f01602080910402602001604051908101604052809291908181526020018280546116d2906131e4565b801561171f5780601f106116f45761010080835404028352916020019161171f565b820191906000526020600020905b81548152906001019060200180831161170257829003601f168201915b5050506002909301549192505060ff1683565b3330146117515760405162461bcd60e51b81526004016106ac906130c7565b6001600160a01b038216600090815260036020526040902054829060ff1661178b5760405162461bcd60e51b81526004016106ac90613111565b6001600160a01b038216600090815260036020526040902054829060ff16156117c65760405162461bcd60e51b81526004016106ac90613084565b60005b60045481101561188057846001600160a01b0316600482815481106117fe57634e487b7160e01b600052603260045260246000fd5b6000918252602090912001546001600160a01b0316141561186e57836004828154811061183b57634e487b7160e01b600052603260045260246000fd5b9060005260206000200160006101000a8154816001600160a01b0302191690836001600160a01b03160217905550611880565b8061187881613219565b9150506117c9565b506001600160a01b03808516600081815260036020526040808220805460ff1990811690915593871682528082208054909416600117909355915190917fe4c71e97b098958c9a514b681c52608969cc549306e8c95ec3f25c189daee40a91a26040516001600160a01b038416907f6aace347f016a777fa6258ea1f5a1cf7a83cba16e67ab7d4abedf50dbf4779e290600090a250505050565b6040516331a9108f60e11b815260048101839052829033906001600160a01b037f00000000000000000000000000000000000000000000000000000000000000001690636352211e9060240160206040518083038186803b15801561197e57600080fd5b505afa158015611992573d6000803e3d6000fd5b505050506040513d601f19601f820116820180604052508101906119b69190612bfe565b6001600160a01b0316146119dc5760405162461bcd60e51b81526004016106ac9061303b565b6008546040516302b8f60160e61b815260048101859052602481018490526001600160a01b039091169063ae3d804090604401602060405180830381600087803b158015611a2957600080fd5b505af1158015611a3d573d6000803e3d6000fd5b505050506040513d601f19601f82011682018060405250810190611a619190612deb565b611aad5760405162461bcd60e51b815260206004820152601c60248201527f44616f54726561737572793a20626f72726f77476173206572726f720000000060448201526064016106ac565b600d54604051638856f77960e01b81526004810191909152602481018490527f00000000000000000000000000000000000000000000000000000000000000006044820152606481018390527f00000000000000000000000000000000000000000000000000000000000000006001600160a01b031690638856f77990608401610dca565b6040516331a9108f60e11b815260048101839052829033906001600160a01b037f00000000000000000000000000000000000000000000000000000000000000001690636352211e9060240160206040518083038186803b158015611b9657600080fd5b505afa158015611baa573d6000803e3d6000fd5b505050506040513d601f19601f82011682018060405250810190611bce9190612bfe565b6001600160a01b031614611bf45760405162461bcd60e51b81526004016106ac9061303b565b6000600954612710611c06919061317e565b600c54611c159061271061319d565b611c1f908561317e565b611c29919061315e565b90507f00000000000000000000000000000000000000000000000000000000000000006001600160a01b0316638856f77985600d547f000000000000000000000000000000000000000000000000000000000000000060095486611c8d919061317e565b6040516001600160e01b031960e087901b1681526004810194909452602484019290925260448301526064820152608401600060405180830381600087803b158015611cd857600080fd5b505af1158015611cec573d6000803e3d6000fd5b5050600754604051627b8a6760e11b8152600481018590523360248201526001600160a01b03909116925062f714ce9150604401600060405180830381600087803b158015611d3a57600080fd5b505af1158015611d4e573d6000803e3d6000fd5b505050507fab65c4c42e9429105c77d9c8e6c1cbcf427a9d90cc3f86c0bcfca0c867716b1c83604051611d8391815260200190565b60405180910390a150505050565b60045460609060009067ffffffffffffffff811115611dc057634e487b7160e01b600052604160045260246000fd5b604051908082528060200260200182016040528015611de9578160200160208202803683370190505b5090506000805b600454811015611ef15760008581526002602052604081206004805491929184908110611e2d57634e487b7160e01b600052603260045260246000fd5b60009182526020808320909101546001600160a01b0316835282019290925260400190205460ff1615611edf5760048181548110611e7b57634e487b7160e01b600052603260045260246000fd5b9060005260206000200160009054906101000a90046001600160a01b0316838381518110611eb957634e487b7160e01b600052603260045260246000fd5b6001600160a01b039092166020928302919091019091015281611edb81613219565b9250505b80611ee981613219565b915050611df0565b508067ffffffffffffffff811115611f1957634e487b7160e01b600052604160045260246000fd5b604051908082528060200260200182016040528015611f42578160200160208202803683370190505b50925060005b81811015611fc257828181518110611f7057634e487b7160e01b600052603260045260246000fd5b6020026020010151848281518110611f9857634e487b7160e01b600052603260045260246000fd5b6001600160a01b039092166020928302919091019091015280611fba81613219565b915050611f48565b505050919050565b333014611fe95760405162461bcd60e51b81526004016106ac906130c7565b600454818115801590611ffe57506000548211155b801561200a5750600081115b80156120165750818111155b6120325760405162461bcd60e51b81526004016106ac90612ff9565b60058390556040518381527fa3f1ee9126a074d9326c682f561767f710e927faa811f7a99829d49dc421797a90602001610aba565b3360008181526003602052604081205490919060ff166120995760405162461bcd60e51b81526004016106ac90613111565b6120a38484612726565b91506120ae826120b5565b5092915050565b3360008181526003602052604090205460ff166120e45760405162461bcd60e51b81526004016106ac90613111565b60008281526001602052604090205482906001600160a01b03166121565760405162461bcd60e51b815260206004820152602360248201527f4d756c74695369676e207472616e73616374696f6e45786973747328292045726044820152623937b960e91b60648201526084016106ac565b60008381526002602090815260408083203380855292529091205484919060ff16156121c45760405162461bcd60e51b815260206004820152601e60248201527f4d756c74695369676e206e6f74436f6e6669726d65642829204572726f72000060448201526064016106ac565b6000858152600260209081526040808320338085529252808320805460ff191660011790555187927f4a504a94899432a9846e1aa406dceb1bcfd538bb839071d49d1e5e23f5be30ef91a361221885612843565b5050505050565b6001600160a01b038116600090815260036020526040902054819060ff161561225a5760405162461bcd60e51b81526004016106ac90613084565b816001600160a01b0381166122ad5760405162461bcd60e51b815260206004820152601960248201527826bab63a34a9b4b3b7103737ba273ab63614149022b93937b960391b60448201526064016106ac565b6004546122bb906001613146565b6005546000821180156122d057506000548211155b80156122dc5750600081115b80156122e85750818111155b6123045760405162461bcd60e51b81526004016106ac90612ff9565b3330146123235760405162461bcd60e51b81526004016106ac906130c7565b6001600160a01b038516600081815260036020526040808220805460ff1916600190811790915560048054918201815583527f8a35acfbc15ff81a39ae7d344fd709f28e8600b4aa8c65c6b64bfe7fe36bd19b0180546001600160a01b03191684179055517f6aace347f016a777fa6258ea1f5a1cf7a83cba16e67ab7d4abedf50dbf4779e29190a25050505050565b3330146123d25760405162461bcd60e51b81526004016106ac906130c7565b6001600160a01b038116600090815260036020526040902054819060ff1661240c5760405162461bcd60e51b81526004016106ac90613111565b6001600160a01b0382166000908152600360205260408120805460ff191690555b60045461243c9060019061319d565b81101561253657826001600160a01b03166004828154811061246e57634e487b7160e01b600052603260045260246000fd5b6000918252602090912001546001600160a01b0316141561252457600480546124999060019061319d565b815481106124b757634e487b7160e01b600052603260045260246000fd5b600091825260209091200154600480546001600160a01b0390921691839081106124f157634e487b7160e01b600052603260045260246000fd5b9060005260206000200160006101000a8154816001600160a01b0302191690836001600160a01b03160217905550612536565b8061252e81613219565b91505061242d565b50600480548061255657634e487b7160e01b600052603160045260246000fd5b600082815260209020810160001990810180546001600160a01b031916905501905560045460055411156125905760045461259090611fca565b6040516001600160a01b038316907fe4c71e97b098958c9a514b681c52608969cc549306e8c95ec3f25c189daee40a90600090a25050565b3330146125e75760405162461bcd60e51b81526004016106ac906130c7565b60098190556040518181527f2cdf928bf44b43ec9abf0303365ba96ca923285832406706c660071b793417a4906020016106e6565b33301461263b5760405162461bcd60e51b81526004016106ac906130c7565b600880546001600160a01b0319166001600160a01b0383169081179091556040519081527f4377333e180eb2790ab8a4441055642568c7fffb86f2f0888c57cde35321cbe0906020016106e6565b3330146126a85760405162461bcd60e51b81526004016106ac906130c7565b600c8190556040518181527f0c7945060807e7a3d25debccd2ec8f646c0b1ba7426edf67aa22b335dd5bfdd1906020016106e6565b606061271f83836040518060400160405280601e81526020017f416464726573733a206c6f772d6c6576656c2063616c6c206661696c656400008152506129d1565b9392505050565b6000826001600160a01b03811661277b5760405162461bcd60e51b815260206004820152601960248201527826bab63a34a9b4b3b7103737ba273ab63614149022b93937b960391b60448201526064016106ac565b600654604080516060810182526001600160a01b038781168252602080830188815260008486018190528681526001808452959020845181546001600160a01b0319169416939093178355518051959750929491936127e09390850192910190612b49565b50604091909101516002909101805460ff19169115159190911790556006805490600061280c83613219565b909155505060405182907fc0ba8fe4b176c1714197d43b9cc6bcf797a4a7461c5fe8d0ef6e184ae7601e5190600090a25092915050565b600081815260016020526040902060020154819060ff16156128a75760405162461bcd60e51b815260206004820152601d60248201527f4d756c74695369676e206e6f7445786563757465642829204572726f7200000060448201526064016106ac565b6128b082610fdc565b156129cd57600082815260016020819052604080832060028101805460ff1916841790558054915190939283926001600160a01b0316916128f391860190612ec8565b6000604051808303816000865af19150503d8060008114612930576040519150601f19603f3d011682016040523d82523d6000602084013e612935565b606091505b509150915081801561295f57508051158061295f57508080602001905181019061295f9190612deb565b156129945760405185907ff2788e0d1a8dffbdac057cef8914e5346afd7a09d39d19b60080caf3cc07c4f790600090a2612218565b60405185907f526441bb6c1aba3c9a4a6ca1d6545da9c2333c8c48343ef398eb858d72b7923690600090a25050600201805460ff191690555b5050565b60606129e084846000856129e8565b949350505050565b606082471015612a495760405162461bcd60e51b815260206004820152602660248201527f416464726573733a20696e73756666696369656e742062616c616e636520666f6044820152651c8818d85b1b60d21b60648201526084016106ac565b843b612a975760405162461bcd60e51b815260206004820152601d60248201527f416464726573733a2063616c6c20746f206e6f6e2d636f6e747261637400000060448201526064016106ac565b600080866001600160a01b03168587604051612ab39190612eac565b60006040518083038185875af1925050503d8060008114612af0576040519150601f19603f3d011682016040523d82523d6000602084013e612af5565b606091505b5091509150612b05828286612b10565b979650505050505050565b60608315612b1f57508161271f565b825115612b2f5782518084602001fd5b8160405162461bcd60e51b81526004016106ac9190612fe6565b828054612b55906131e4565b90600052602060002090601f016020900481019282612b775760008555612bbd565b82601f10612b9057805160ff1916838001178555612bbd565b82800160010185558215612bbd579182015b82811115612bbd578251825591602001919060010190612ba2565b50612bc9929150612bcd565b5090565b5b80821115612bc95760008155600101612bce565b600060208284031215612bf3578081fd5b813561271f81613260565b600060208284031215612c0f578081fd5b815161271f81613260565b60008060408385031215612c2c578081fd5b8235612c3781613260565b91506020830135612c4781613260565b809150509250929050565b600080600060608486031215612c66578081fd5b8335612c7181613260565b92506020840135612c8181613260565b929592945050506040919091013590565b600080600080600060808688031215612ca9578081fd5b8535612cb481613260565b94506020860135612cc481613260565b935060408601359250606086013567ffffffffffffffff80821115612ce7578283fd5b818801915088601f830112612cfa578283fd5b813581811115612d08578384fd5b896020828501011115612d19578384fd5b9699959850939650602001949392505050565b60008060408385031215612d3e578182fd5b8235612d4981613260565b9150602083013567ffffffffffffffff80821115612d65578283fd5b818501915085601f830112612d78578283fd5b813581811115612d8a57612d8a61324a565b604051601f8201601f19908116603f01168101908382118183101715612db257612db261324a565b81604052828152886020848701011115612dca578586fd5b82602086016020830137856020848301015280955050505050509250929050565b600060208284031215612dfc578081fd5b8151801515811461271f578182fd5b600060208284031215612e1c578081fd5b5035919050565b600060208284031215612e34578081fd5b5051919050565b60008060408385031215612e4d578182fd5b823591506020830135612c4781613260565b60008060408385031215612e71578182fd5b50508035926020909101359150565b60008151808452612e988160208601602086016131b4565b601f01601f19169290920160200192915050565b60008251612ebe8184602087016131b4565b9190910192915050565b600080835482600182811c915080831680612ee457607f831692505b6020808410821415612f0457634e487b7160e01b87526022600452602487fd5b818015612f185760018114612f2957612f55565b60ff19861689528489019650612f55565b60008a815260209020885b86811015612f4d5781548b820152908501908301612f34565b505084890196505b509498975050505050505050565b6001600160a01b0384168152606060208201819052600090612f8790830185612e80565b90508215156040830152949350505050565b6020808252825182820181905260009190848201906040850190845b81811015612fda5783516001600160a01b031683529284019291840191600101612fb5565b50909695505050505050565b60208152600061271f6020830184612e80565b60208082526022908201527f4d756c74695369676e2076616c6964526571756972656d656e7428292045727260408201526137b960f11b606082015260800190565b60208082526029908201527f44616f54726561737572793a2063616c6c6572206973206e6f7420746865206e604082015268333a103437b63232b960b91b606082015260800190565b60208082526023908201527f4d756c74695369676e20636f6d6d697465654e6f7445786973747328292045726040820152623937b960e91b606082015260800190565b6020808252602a908201527f4d756c74695369676e206f6e6c7920616464726573732874686973292063616e6040820152692063616c6c207468697360b01b606082015260800190565b6020808252818101527f4d756c74695369676e20636f6d6d697465654578697374732829204572726f72604082015260600190565b6000821982111561315957613159613234565b500190565b60008261317957634e487b7160e01b81526012600452602481fd5b500490565b600081600019048311821515161561319857613198613234565b500290565b6000828210156131af576131af613234565b500390565b60005b838110156131cf5781810151838201526020016131b7565b838111156131de576000848401525b50505050565b600181811c908216806131f857607f821691505b6020821081141561138857634e487b7160e01b600052602260045260246000fd5b600060001982141561322d5761322d613234565b5060010190565b634e487b7160e01b600052601160045260246000fd5b634e487b7160e01b600052604160045260246000fd5b6001600160a01b038116811461327557600080fd5b5056fea26469706673582212206fdf28c0166a658bf3091060692906afa4a0a5216f5b966dc5297162e2e36aa464736f6c63430008040033",
  "linkReferences": {},
  "deployedLinkReferences": {}
}