{
  "_format": "hh-sol-artifact-1",
  "contractName": "DaoTreasury",
  "sourceName": "contracts/DaoTreasury.sol",
  "abi": [
    {
      "inputs": [
        {
          "internalType": "address",
          "name": "_WEB3DAONFT",
          "type": "address"
        },
        {
          "internalType": "address",
          "name": "_WETH",
          "type": "address"
        },
        {
          "internalType": "uint256",
          "name": "_GAS_ATTR_ID",
          "type": "uint256"
        }
      ],
      "stateMutability": "nonpayable",
      "type": "constructor"
    },
    {
      "anonymous": false,
      "inputs": [
        {
          "indexed": false,
          "internalType": "uint256",
          "name": "gasAmount",
          "type": "uint256"
        }
      ],
      "name": "BurnGas",
      "type": "event"
    },
    {
      "anonymous": false,
      "inputs": [
        {
          "indexed": false,
          "internalType": "uint256",
          "name": "tokenId",
          "type": "uint256"
        },
        {
          "indexed": false,
          "internalType": "uint256",
          "name": "gasAmount",
          "type": "uint256"
        }
      ],
      "name": "BuyGas",
      "type": "event"
    },
    {
      "anonymous": false,
      "inputs": [
        {
          "indexed": true,
          "internalType": "address",
          "name": "commitee",
          "type": "address"
        }
      ],
      "name": "CommiteeAddition",
      "type": "event"
    },
    {
      "anonymous": false,
      "inputs": [
        {
          "indexed": true,
          "internalType": "address",
          "name": "commitee",
          "type": "address"
        }
      ],
      "name": "CommiteeRemoval",
      "type": "event"
    },
    {
      "anonymous": false,
      "inputs": [
        {
          "indexed": true,
          "internalType": "address",
          "name": "sender",
          "type": "address"
        },
        {
          "indexed": true,
          "internalType": "uint256",
          "name": "transactionId",
          "type": "uint256"
        }
      ],
      "name": "Confirmation",
      "type": "event"
    },
    {
      "anonymous": false,
      "inputs": [
        {
          "indexed": true,
          "internalType": "uint256",
          "name": "transactionId",
          "type": "uint256"
        }
      ],
      "name": "Execution",
      "type": "event"
    },
    {
      "anonymous": false,
      "inputs": [
        {
          "indexed": true,
          "internalType": "uint256",
          "name": "transactionId",
          "type": "uint256"
        }
      ],
      "name": "ExecutionFailure",
      "type": "event"
    },
    {
      "anonymous": false,
      "inputs": [
        {
          "indexed": true,
          "internalType": "uint256",
          "name": "transactionId",
          "type": "uint256"
        }
      ],
      "name": "ExecutionSuccess",
      "type": "event"
    },
    {
      "anonymous": false,
      "inputs": [
        {
          "indexed": false,
          "internalType": "uint256",
          "name": "gasAmount",
          "type": "uint256"
        }
      ],
      "name": "MintGas",
      "type": "event"
    },
    {
      "anonymous": false,
      "inputs": [
        {
          "indexed": false,
          "internalType": "uint256",
          "name": "required",
          "type": "uint256"
        }
      ],
      "name": "RequirementChange",
      "type": "event"
    },
    {
      "anonymous": false,
      "inputs": [
        {
          "indexed": true,
          "internalType": "address",
          "name": "sender",
          "type": "address"
        },
        {
          "indexed": true,
          "internalType": "uint256",
          "name": "transactionId",
          "type": "uint256"
        }
      ],
      "name": "Revocation",
      "type": "event"
    },
    {
      "anonymous": false,
      "inputs": [
        {
          "indexed": false,
          "internalType": "uint256",
          "name": "tokenId",
          "type": "uint256"
        },
        {
          "indexed": false,
          "internalType": "uint256",
          "name": "gasAmount",
          "type": "uint256"
        }
      ],
      "name": "SellGas",
      "type": "event"
    },
    {
      "anonymous": false,
      "inputs": [
        {
          "indexed": false,
          "internalType": "address",
          "name": "_DaoSponsor",
          "type": "address"
        }
      ],
      "name": "SetDaoSponsor",
      "type": "event"
    },
    {
      "anonymous": false,
      "inputs": [
        {
          "indexed": false,
          "internalType": "address",
          "name": "_DaoVault",
          "type": "address"
        }
      ],
      "name": "SetDaoVault",
      "type": "event"
    },
    {
      "anonymous": false,
      "inputs": [
        {
          "indexed": false,
          "internalType": "uint256",
          "name": "_gasAttrPrice",
          "type": "uint256"
        }
      ],
      "name": "SetGasAttrPrice",
      "type": "event"
    },
    {
      "anonymous": false,
      "inputs": [
        {
          "indexed": false,
          "internalType": "uint256",
          "name": "_gasTax",
          "type": "uint256"
        }
      ],
      "name": "SetGasTax",
      "type": "event"
    },
    {
      "anonymous": false,
      "inputs": [
        {
          "indexed": false,
          "internalType": "uint256",
          "name": "_holdNFTId",
          "type": "uint256"
        }
      ],
      "name": "SetHoldNFTId",
      "type": "event"
    },
    {
      "anonymous": false,
      "inputs": [
        {
          "indexed": false,
          "internalType": "uint256",
          "name": "_maxDebt",
          "type": "uint256"
        }
      ],
      "name": "SetMaxDebt",
      "type": "event"
    },
    {
      "anonymous": false,
      "inputs": [
        {
          "indexed": true,
          "internalType": "uint256",
          "name": "transactionId",
          "type": "uint256"
        }
      ],
      "name": "Submission",
      "type": "event"
    },
    {
      "inputs": [],
      "name": "DaoSponsor",
      "outputs": [
        {
          "internalType": "address",
          "name": "",
          "type": "address"
        }
      ],
      "stateMutability": "view",
      "type": "function"
    },
    {
      "inputs": [],
      "name": "DaoVault",
      "outputs": [
        {
          "internalType": "address",
          "name": "",
          "type": "address"
        }
      ],
      "stateMutability": "view",
      "type": "function"
    },
    {
      "inputs": [],
      "name": "GAS_ATTR_ID",
      "outputs": [
        {
          "internalType": "uint256",
          "name": "",
          "type": "uint256"
        }
      ],
      "stateMutability": "view",
      "type": "function"
    },
    {
      "inputs": [],
      "name": "MAX_COMMITEE_COUNT",
      "outputs": [
        {
          "internalType": "uint256",
          "name": "",
          "type": "uint256"
        }
      ],
      "stateMutability": "view",
      "type": "function"
    },
    {
      "inputs": [],
      "name": "WEB3DAONFT",
      "outputs": [
        {
          "internalType": "address",
          "name": "",
          "type": "address"
        }
      ],
      "stateMutability": "view",
      "type": "function"
    },
    {
      "inputs": [],
      "name": "WETH",
      "outputs": [
        {
          "internalType": "address",
          "name": "",
          "type": "address"
        }
      ],
      "stateMutability": "view",
      "type": "function"
    },
    {
      "inputs": [
        {
          "internalType": "address",
          "name": "commitee",
          "type": "address"
        }
      ],
      "name": "addCommitee",
      "outputs": [],
      "stateMutability": "nonpayable",
      "type": "function"
    },
    {
      "inputs": [
        {
          "internalType": "uint256",
          "name": "tokenId",
          "type": "uint256"
        },
        {
          "internalType": "uint256",
          "name": "gasAmount",
          "type": "uint256"
        }
      ],
      "name": "borrowGas",
      "outputs": [],
      "stateMutability": "nonpayable",
      "type": "function"
    },
    {
      "inputs": [
        {
          "internalType": "uint256",
          "name": "gasAmount",
          "type": "uint256"
        }
      ],
      "name": "burnGas",
      "outputs": [],
      "stateMutability": "nonpayable",
      "type": "function"
    },
    {
      "inputs": [
        {
          "internalType": "uint256",
          "name": "tokenId",
          "type": "uint256"
        },
        {
          "internalType": "uint256",
          "name": "ethAmount",
          "type": "uint256"
        }
      ],
      "name": "buyGas",
      "outputs": [],
      "stateMutability": "nonpayable",
      "type": "function"
    },
    {
      "inputs": [
        {
          "internalType": "uint256",
          "name": "_required",
          "type": "uint256"
        }
      ],
      "name": "changeRequirement",
      "outputs": [],
      "stateMutability": "nonpayable",
      "type": "function"
    },
    {
      "inputs": [
        {
          "internalType": "uint256",
          "name": "",
          "type": "uint256"
        }
      ],
      "name": "commitees",
      "outputs": [
        {
          "internalType": "address",
          "name": "",
          "type": "address"
        }
      ],
      "stateMutability": "view",
      "type": "function"
    },
    {
      "inputs": [
        {
          "internalType": "uint256",
          "name": "transactionId",
          "type": "uint256"
        }
      ],
      "name": "confirmTransaction",
      "outputs": [],
      "stateMutability": "nonpayable",
      "type": "function"
    },
    {
      "inputs": [
        {
          "internalType": "uint256",
          "name": "",
          "type": "uint256"
        },
        {
          "internalType": "address",
          "name": "",
          "type": "address"
        }
      ],
      "name": "confirmations",
      "outputs": [
        {
          "internalType": "bool",
          "name": "",
          "type": "bool"
        }
      ],
      "stateMutability": "view",
      "type": "function"
    },
    {
      "inputs": [],
      "name": "debt",
      "outputs": [
        {
          "internalType": "uint256",
          "name": "",
          "type": "uint256"
        }
      ],
      "stateMutability": "view",
      "type": "function"
    },
    {
      "inputs": [],
      "name": "gasAttrPrice",
      "outputs": [
        {
          "internalType": "uint256",
          "name": "",
          "type": "uint256"
        }
      ],
      "stateMutability": "view",
      "type": "function"
    },
    {
      "inputs": [],
      "name": "gasTax",
      "outputs": [
        {
          "internalType": "uint256",
          "name": "",
          "type": "uint256"
        }
      ],
      "stateMutability": "view",
      "type": "function"
    },
    {
      "inputs": [],
      "name": "getCommitees",
      "outputs": [
        {
          "internalType": "address[]",
          "name": "",
          "type": "address[]"
        }
      ],
      "stateMutability": "view",
      "type": "function"
    },
    {
      "inputs": [
        {
          "internalType": "uint256",
          "name": "transactionId",
          "type": "uint256"
        }
      ],
      "name": "getConfirmationCount",
      "outputs": [
        {
          "internalType": "uint256",
          "name": "count",
          "type": "uint256"
        }
      ],
      "stateMutability": "view",
      "type": "function"
    },
    {
      "inputs": [
        {
          "internalType": "uint256",
          "name": "transactionId",
          "type": "uint256"
        }
      ],
      "name": "getConfirmations",
      "outputs": [
        {
          "internalType": "address[]",
          "name": "_confirmations",
          "type": "address[]"
        }
      ],
      "stateMutability": "view",
      "type": "function"
    },
    {
      "inputs": [],
      "name": "holdNFTId",
      "outputs": [
        {
          "internalType": "uint256",
          "name": "",
          "type": "uint256"
        }
      ],
      "stateMutability": "view",
      "type": "function"
    },
    {
      "inputs": [
        {
          "internalType": "address",
          "name": "",
          "type": "address"
        }
      ],
      "name": "isCommitee",
      "outputs": [
        {
          "internalType": "bool",
          "name": "",
          "type": "bool"
        }
      ],
      "stateMutability": "view",
      "type": "function"
    },
    {
      "inputs": [
        {
          "internalType": "uint256",
          "name": "transactionId",
          "type": "uint256"
        }
      ],
      "name": "isConfirmed",
      "outputs": [
        {
          "internalType": "bool",
          "name": "ret",
          "type": "bool"
        }
      ],
      "stateMutability": "view",
      "type": "function"
    },
    {
      "inputs": [],
      "name": "max",
      "outputs": [
        {
          "internalType": "uint256",
          "name": "",
          "type": "uint256"
        }
      ],
      "stateMutability": "view",
      "type": "function"
    },
    {
      "inputs": [],
      "name": "maxDebt",
      "outputs": [
        {
          "internalType": "uint256",
          "name": "",
          "type": "uint256"
        }
      ],
      "stateMutability": "view",
      "type": "function"
    },
    {
      "inputs": [
        {
          "internalType": "uint256",
          "name": "gasAmount",
          "type": "uint256"
        }
      ],
      "name": "mintGas",
      "outputs": [],
      "stateMutability": "nonpayable",
      "type": "function"
    },
    {
      "inputs": [
        {
          "internalType": "address",
          "name": "operator",
          "type": "address"
        },
        {
          "internalType": "address",
          "name": "from",
          "type": "address"
        },
        {
          "internalType": "uint256",
          "name": "tokenId",
          "type": "uint256"
        },
        {
          "internalType": "bytes",
          "name": "data",
          "type": "bytes"
        }
      ],
      "name": "onERC721Received",
      "outputs": [
        {
          "internalType": "bytes4",
          "name": "",
          "type": "bytes4"
        }
      ],
      "stateMutability": "pure",
      "type": "function"
    },
    {
      "inputs": [
        {
          "internalType": "uint256",
          "name": "tokenId",
          "type": "uint256"
        },
        {
          "internalType": "uint256",
          "name": "sponsorAmount",
          "type": "uint256"
        }
      ],
      "name": "quit",
      "outputs": [],
      "stateMutability": "nonpayable",
      "type": "function"
    },
    {
      "inputs": [
        {
          "internalType": "address",
          "name": "commitee",
          "type": "address"
        }
      ],
      "name": "removeCommitee",
      "outputs": [],
      "stateMutability": "nonpayable",
      "type": "function"
    },
    {
      "inputs": [
        {
          "internalType": "address",
          "name": "commitee",
          "type": "address"
        },
        {
          "internalType": "address",
          "name": "newCommitee",
          "type": "address"
        }
      ],
      "name": "replaceCommitee",
      "outputs": [],
      "stateMutability": "nonpayable",
      "type": "function"
    },
    {
      "inputs": [],
      "name": "required",
      "outputs": [
        {
          "internalType": "uint256",
          "name": "",
          "type": "uint256"
        }
      ],
      "stateMutability": "view",
      "type": "function"
    },
    {
      "inputs": [
        {
          "internalType": "uint256",
          "name": "tokenId",
          "type": "uint256"
        },
        {
          "internalType": "uint256",
          "name": "gasAmount",
          "type": "uint256"
        }
      ],
      "name": "returnGas",
      "outputs": [],
      "stateMutability": "nonpayable",
      "type": "function"
    },
    {
      "inputs": [
        {
          "internalType": "uint256",
          "name": "transactionId",
          "type": "uint256"
        }
      ],
      "name": "revokeConfirmation",
      "outputs": [],
      "stateMutability": "nonpayable",
      "type": "function"
    },
    {
      "inputs": [
        {
          "internalType": "uint256",
          "name": "tokenId",
          "type": "uint256"
        },
        {
          "internalType": "uint256",
          "name": "gasAmount",
          "type": "uint256"
        }
      ],
      "name": "sellGas",
      "outputs": [],
      "stateMutability": "nonpayable",
      "type": "function"
    },
    {
      "inputs": [
        {
          "internalType": "address",
          "name": "_DaoSponsor",
          "type": "address"
        }
      ],
      "name": "setDaoSponsor",
      "outputs": [],
      "stateMutability": "nonpayable",
      "type": "function"
    },
    {
      "inputs": [
        {
          "internalType": "address",
          "name": "_DaoVault",
          "type": "address"
        }
      ],
      "name": "setDaoVault",
      "outputs": [],
      "stateMutability": "nonpayable",
      "type": "function"
    },
    {
      "inputs": [
        {
          "internalType": "uint256",
          "name": "_gasAttrPrice",
          "type": "uint256"
        }
      ],
      "name": "setGasAttrPrice",
      "outputs": [],
      "stateMutability": "nonpayable",
      "type": "function"
    },
    {
      "inputs": [
        {
          "internalType": "uint256",
          "name": "_gasTax",
          "type": "uint256"
        }
      ],
      "name": "setGasTax",
      "outputs": [],
      "stateMutability": "nonpayable",
      "type": "function"
    },
    {
      "inputs": [
        {
          "internalType": "uint256",
          "name": "_holdNFTId",
          "type": "uint256"
        }
      ],
      "name": "setHoldNFTId",
      "outputs": [],
      "stateMutability": "nonpayable",
      "type": "function"
    },
    {
      "inputs": [
        {
          "internalType": "uint256",
          "name": "_maxDebt",
          "type": "uint256"
        }
      ],
      "name": "setMaxDebt",
      "outputs": [],
      "stateMutability": "nonpayable",
      "type": "function"
    },
    {
      "inputs": [
        {
          "internalType": "uint256",
          "name": "tokenId",
          "type": "uint256"
        },
        {
          "internalType": "uint256",
          "name": "ethAmount",
          "type": "uint256"
        }
      ],
      "name": "sponsor",
      "outputs": [],
      "stateMutability": "nonpayable",
      "type": "function"
    },
    {
      "inputs": [
        {
          "internalType": "address",
          "name": "destination",
          "type": "address"
        },
        {
          "internalType": "bytes",
          "name": "data",
          "type": "bytes"
        }
      ],
      "name": "submitTransaction",
      "outputs": [
        {
          "internalType": "uint256",
          "name": "transactionId",
          "type": "uint256"
        }
      ],
      "stateMutability": "nonpayable",
      "type": "function"
    },
    {
      "inputs": [],
      "name": "transactionCount",
      "outputs": [
        {
          "internalType": "uint256",
          "name": "",
          "type": "uint256"
        }
      ],
      "stateMutability": "view",
      "type": "function"
    },
    {
      "inputs": [
        {
          "internalType": "uint256",
          "name": "",
          "type": "uint256"
        }
      ],
      "name": "transactions",
      "outputs": [
        {
          "internalType": "address",
          "name": "destination",
          "type": "address"
        },
        {
          "internalType": "bytes",
          "name": "data",
          "type": "bytes"
        },
        {
          "internalType": "bool",
          "name": "executed",
          "type": "bool"
        }
      ],
      "stateMutability": "view",
      "type": "function"
    },
    {
      "inputs": [
        {
          "internalType": "address",
          "name": "token",
          "type": "address"
        },
        {
          "internalType": "address",
          "name": "to",
          "type": "address"
        },
        {
          "internalType": "uint256",
          "name": "tokenId",
          "type": "uint256"
        }
      ],
      "name": "transferNFT",
      "outputs": [],
      "stateMutability": "nonpayable",
      "type": "function"
    }
  ],
  "bytecode": "0x60e06040526065600055612710600955611388600b556064600c553480156200002757600080fd5b5060405162003450380380620034508339810160408190526200004a91620000ec565b336000818152600360205260408120805460ff1916600190811790915560048054808301825592527f8a35acfbc15ff81a39ae7d344fd709f28e8600b4aa8c65c6b64bfe7fe36bd19b90910180546001600160a01b0319169092179091556005556001600160601b0319606093841b81166080529190921b1660a05260c0526200012c565b80516001600160a01b0381168114620000e757600080fd5b919050565b60008060006060848603121562000101578283fd5b6200010c84620000cf565b92506200011c60208501620000cf565b9150604084015190509250925092565b60805160601c60a05160601c60c051613270620001e060003960008181610626015281816109b301528181610ba0015281816112510152818161147301528181611a8f0152611c210152600081816104ed01526113b901526000818161054d015281816109e001528181610ac401528181610bcd01528181610e08015281816110bf0152818161127e01528181611440015281816118fd01528181611abc01528181611b150152611bee01526132706000f3fe608060405234801561001057600080fd5b506004361061027f5760003560e01c8063947fdb8b1161015c578063bbf1b2f1116100ce578063f10f377611610087578063f10f3776146105e9578063f4a37d69146105f2578063f5bc5dcb14610605578063f7faafa01461060e578063f848231314610621578063ffd06e051461064857600080fd5b8063bbf1b2f11461058b578063c01a8c841461059e578063c60abbf4146105b1578063d0064c00146105c4578063d5120724146105cd578063dc8452cd146105e057600080fd5b8063ae3d804011610120578063ae3d80401461050f578063b09e7bf114610522578063b5dc40c314610535578063b7627eee14610548578063b77bf6001461056f578063ba51a6df1461057857600080fd5b8063947fdb8b1461048d57806398b8c4e1146104a05780639ace38c2146104b3578063a123678f146104d5578063ad5c4648146104e857600080fd5b806369e9cae1116101f55780637897590e116101b95780637897590e14610409578063823349921461041e57806384c8a0ec146104415780638b51d13f146104545780638b60d7ef14610467578063901b8cb31461047a57600080fd5b806369e9cae11461039c5780636ac5db19146103af5780636f6cc704146103b8578063772338d1146103e3578063784547a7146103f657600080fd5b80634248fe23116102475780634248fe231461033e5780634ad5d16f146103515780634b799db1146103645780634d317f1a1461037757806363dbc756146103805780636526941b1461038957600080fd5b806302183adc146102845780630dca59c114610299578063150b7a02146102b557806320ea8d86146102ed5780633411c81c14610300575b600080fd5b610297610292366004612dcd565b61065b565b005b6102a2600a5481565b6040519081526020015b60405180910390f35b6102d46102c3366004612c54565b630a85bd0160e11b95945050505050565b6040516001600160e01b031990911681526020016102ac565b6102976102fb366004612dcd565b6106bf565b61032e61030e366004612dfd565b600260209081526000928352604080842090915290825290205460ff1681565b60405190151581526020016102ac565b61029761034c366004612dcd565b61080e565b61029761035f366004612dcd565b610a82565b610297610372366004612ba4565b610c6e565b6102a2600d5481565b6102a2600c5481565b610297610397366004612dcd565b610cdb565b6102976103aa366004612c14565b610d2f565b6102a261271081565b6103cb6103c6366004612dcd565b610dbc565b6040516001600160a01b0390911681526020016102ac565b6102976103f1366004612e21565b610de6565b61032e610404366004612dcd565b610f97565b61041161103b565b6040516102ac9190612f5b565b61032e61042c366004612ba4565b60036020526000908152604090205460ff1681565b61029761044f366004612e21565b61109d565b6102a2610462366004612dcd565b6112b5565b6008546103cb906001600160a01b031681565b610297610488366004612e21565b611349565b61029761049b366004612e21565b61153a565b6007546103cb906001600160a01b031681565b6104c66104c1366004612dcd565b61163a565b6040516102ac93929190612f25565b6102976104e3366004612bdc565b6116f3565b6103cb7f000000000000000000000000000000000000000000000000000000000000000081565b61029761051d366004612e21565b6118db565b610297610530366004612e21565b611af3565b610411610543366004612dcd565b611d53565b6103cb7f000000000000000000000000000000000000000000000000000000000000000081565b6102a260065481565b610297610586366004612dcd565b611f8c565b6102a2610599366004612cee565b612029565b6102976105ac366004612dcd565b612077565b6102976105bf366004612ba4565b6121e1565b6102a2600b5481565b6102976105db366004612ba4565b612375565b6102a260055481565b6102a260005481565b610297610600366004612dcd565b61258a565b6102a260095481565b61029761061c366004612ba4565b6125de565b6102a27f000000000000000000000000000000000000000000000000000000000000000081565b610297610656366004612dcd565b61264b565b3330146106835760405162461bcd60e51b815260040161067a90613089565b60405180910390fd5b600d8190556040518181527f55a5e1d249e83893696c844d494d73176f25b5c5bd89ba7fe9e959bdc58a5b50906020015b60405180910390a150565b3360008181526003602052604090205460ff166106ee5760405162461bcd60e51b815260040161067a906130d3565b60008281526002602090815260408083203380855292529091205483919060ff1661075b5760405162461bcd60e51b815260206004820152601b60248201527f4d756c74695369676e20636f6e6669726d65642829204572726f720000000000604482015260640161067a565b600084815260016020526040902060020154849060ff16156107bf5760405162461bcd60e51b815260206004820152601d60248201527f4d756c74695369676e206e6f7445786563757465642829204572726f72000000604482015260640161067a565b6000858152600260209081526040808320338085529252808320805460ff191690555187927ff6a317157440607f36269043eb55f1287a5a19ba2216afeab88cd46cbcfb88e991a35050505050565b60095460009061082683670de0b6b3a7640000613140565b6108309190613120565b90506000600760009054906101000a90046001600160a01b03166001600160a01b031663cd3293de6040518163ffffffff1660e01b815260040160206040518083038186803b15801561088257600080fd5b505afa158015610896573d6000803e3d6000fd5b505050506040513d601f19601f820116820180604052508101906108ba9190612de5565b90506000811180156109195750612710600b54670de0b6b3a76400006108e09190613140565b6108ea9190613120565b8183600a54670de0b6b3a76400006109029190613140565b61090c9190613108565b6109169190613120565b11155b6109715760405162461bcd60e51b8152602060048201526024808201527f44616f54726561737572793a2064656274206d6f7265207468616e206d6178206044820152631919589d60e21b606482015260840161067a565b610983670de0b6b3a764000083613120565b600a60008282546109949190613108565b9091555050600d546040516302acc94b60e01b815260048101919091527f00000000000000000000000000000000000000000000000000000000000000006024820152604481018490527f00000000000000000000000000000000000000000000000000000000000000006001600160a01b0316906302acc94b90606401600060405180830381600087803b158015610a2c57600080fd5b505af1158015610a40573d6000803e3d6000fd5b505050507fda87e68ba91e11c70943f7ee6cbf049266c95d1ccb820f7199c17e428036574283604051610a7591815260200190565b60405180910390a1505050565b333014610aa15760405162461bcd60e51b815260040161067a90613089565b600d546040516331a9108f60e11b81526004810182905233906001600160a01b037f00000000000000000000000000000000000000000000000000000000000000001690636352211e9060240160206040518083038186803b158015610b0657600080fd5b505afa158015610b1a573d6000803e3d6000fd5b505050506040513d601f19601f82011682018060405250810190610b3e9190612bc0565b6001600160a01b031614610b645760405162461bcd60e51b815260040161067a90612ffd565b600954610b719083613120565b600a6000828254610b82919061315f565b9091555050600d5460405162b4200560e31b815260048101919091527f00000000000000000000000000000000000000000000000000000000000000006024820152604481018390527f00000000000000000000000000000000000000000000000000000000000000006001600160a01b0316906305a1002890606401600060405180830381600087803b158015610c1957600080fd5b505af1158015610c2d573d6000803e3d6000fd5b505050507fa99e7fbb5a98c85d065fb69e692eef0f6fbe85ebdb8e60f3ea7daa2fa6fd95dd82604051610c6291815260200190565b60405180910390a15050565b333014610c8d5760405162461bcd60e51b815260040161067a90613089565b600780546001600160a01b0319166001600160a01b0383169081179091556040519081527fb329e64befdec2a048fc9bc0ec49385e5f414f5047e9fe44d771240d47e307a5906020016106b4565b333014610cfa5760405162461bcd60e51b815260040161067a90613089565b600b8190556040518181527fa5cc43387a519ed6a0bb29d38730946ca689b0589940b0e48b5ce229a3e6e925906020016106b4565b333014610d4e5760405162461bcd60e51b815260040161067a90613089565b6040516323b872dd60e01b81523060048201526001600160a01b038381166024830152604482018390528416906323b872dd906064015b600060405180830381600087803b158015610d9f57600080fd5b505af1158015610db3573d6000803e3d6000fd5b50505050505050565b60048181548110610dcc57600080fd5b6000918252602090912001546001600160a01b0316905081565b6040516331a9108f60e11b815260048101839052829033906001600160a01b037f00000000000000000000000000000000000000000000000000000000000000001690636352211e9060240160206040518083038186803b158015610e4a57600080fd5b505afa158015610e5e573d6000803e3d6000fd5b505050506040513d601f19601f82011682018060405250810190610e829190612bc0565b6001600160a01b031614610ea85760405162461bcd60e51b815260040161067a90612ffd565b60085460405163772338d160e01b815260048101859052602481018490526000916001600160a01b03169063772338d190604401602060405180830381600087803b158015610ef657600080fd5b505af1158015610f0a573d6000803e3d6000fd5b505050506040513d601f19601f82011682018060405250810190610f2e9190612de5565b600754604051627b8a6760e11b8152600481018390523360248201529192506001600160a01b03169062f714ce90604401600060405180830381600087803b158015610f7957600080fd5b505af1158015610f8d573d6000803e3d6000fd5b5050505050505050565b600080805b6004548110156110345760008481526002602052604081206004805491929184908110610fd957634e487b7160e01b600052603260045260246000fd5b60009182526020808320909101546001600160a01b0316835282019290925260400190205460ff16156110145781611010816131db565b9250505b600554821061102257600192505b8061102c816131db565b915050610f9c565b5050919050565b6060600480548060200260200160405190810160405280929190818152602001828054801561109357602002820191906000526020600020905b81546001600160a01b03168152600190910190602001808311611075575b5050505050905090565b6040516331a9108f60e11b815260048101839052829033906001600160a01b037f00000000000000000000000000000000000000000000000000000000000000001690636352211e9060240160206040518083038186803b15801561110157600080fd5b505afa158015611115573d6000803e3d6000fd5b505050506040513d601f19601f820116820180604052508101906111399190612bc0565b6001600160a01b03161461115f5760405162461bcd60e51b815260040161067a90612ffd565b600854604051632132283b60e21b815260048101859052602481018490526001600160a01b03909116906384c8a0ec90604401602060405180830381600087803b1580156111ac57600080fd5b505af11580156111c0573d6000803e3d6000fd5b505050506040513d601f19601f820116820180604052508101906111e49190612dad565b6112305760405162461bcd60e51b815260206004820152601c60248201527f44616f54726561737572793a2072657475726e476173206572726f7200000000604482015260640161067a565b600d54604051638856f77960e01b81526004810185905260248101919091527f00000000000000000000000000000000000000000000000000000000000000006044820152606481018390527f00000000000000000000000000000000000000000000000000000000000000006001600160a01b031690638856f77990608401610d85565b6000805b60045481101561134357600083815260026020526040812060048054919291849081106112f657634e487b7160e01b600052603260045260246000fd5b60009182526020808320909101546001600160a01b0316835282019290925260400190205460ff1615611331578161132d816131db565b9250505b8061133b816131db565b9150506112b9565b50919050565b6007546040513360248201526001600160a01b039091166044820152606481018290526113df906323b872dd60e01b906084015b60408051601f198184030181529190526020810180516001600160e01b03166001600160e01b0319909316929092179091526001600160a01b037f0000000000000000000000000000000000000000000000000000000000000000169061269f565b5060075460405163b6b55f2560e01b8152600481018390526001600160a01b039091169063b6b55f2590602401600060405180830381600087803b15801561142657600080fd5b505af115801561143a573d6000803e3d6000fd5b505050507f00000000000000000000000000000000000000000000000000000000000000006001600160a01b0316637cba8598600d54847f0000000000000000000000000000000000000000000000000000000000000000600954866114a09190613140565b6040516001600160e01b031960e087901b1681526004810194909452602484019290925260448301526064820152608401600060405180830381600087803b1580156114eb57600080fd5b505af11580156114ff573d6000803e3d6000fd5b505060408051858152602081018590527ff4f7cd2e463721a18f7aba3aab598660a9cedb785c7935105f2bd5406197dffd9350019050610c62565b60085460405163947fdb8b60e01b815260048101849052602481018390526001600160a01b039091169063947fdb8b90604401600060405180830381600087803b15801561158757600080fd5b505af115801561159b573d6000803e3d6000fd5b50506007546040513360248201526001600160a01b039091166044820152606481018490526115d792506323b872dd60e01b915060840161137d565b5060075460405163b6b55f2560e01b8152600481018390526001600160a01b039091169063b6b55f2590602401600060405180830381600087803b15801561161e57600080fd5b505af1158015611632573d6000803e3d6000fd5b505050505050565b6001602081905260009182526040909120805491810180546001600160a01b0390931692611667906131a6565b80601f0160208091040260200160405190810160405280929190818152602001828054611693906131a6565b80156116e05780601f106116b5576101008083540402835291602001916116e0565b820191906000526020600020905b8154815290600101906020018083116116c357829003601f168201915b5050506002909301549192505060ff1683565b3330146117125760405162461bcd60e51b815260040161067a90613089565b6001600160a01b038216600090815260036020526040902054829060ff1661174c5760405162461bcd60e51b815260040161067a906130d3565b6001600160a01b038216600090815260036020526040902054829060ff16156117875760405162461bcd60e51b815260040161067a90613046565b60005b60045481101561184157846001600160a01b0316600482815481106117bf57634e487b7160e01b600052603260045260246000fd5b6000918252602090912001546001600160a01b0316141561182f5783600482815481106117fc57634e487b7160e01b600052603260045260246000fd5b9060005260206000200160006101000a8154816001600160a01b0302191690836001600160a01b03160217905550611841565b80611839816131db565b91505061178a565b506001600160a01b03808516600081815260036020526040808220805460ff1990811690915593871682528082208054909416600117909355915190917fe4c71e97b098958c9a514b681c52608969cc549306e8c95ec3f25c189daee40a91a26040516001600160a01b038416907f6aace347f016a777fa6258ea1f5a1cf7a83cba16e67ab7d4abedf50dbf4779e290600090a250505050565b6040516331a9108f60e11b815260048101839052829033906001600160a01b037f00000000000000000000000000000000000000000000000000000000000000001690636352211e9060240160206040518083038186803b15801561193f57600080fd5b505afa158015611953573d6000803e3d6000fd5b505050506040513d601f19601f820116820180604052508101906119779190612bc0565b6001600160a01b03161461199d5760405162461bcd60e51b815260040161067a90612ffd565b6008546040516302b8f60160e61b815260048101859052602481018490526001600160a01b039091169063ae3d804090604401602060405180830381600087803b1580156119ea57600080fd5b505af11580156119fe573d6000803e3d6000fd5b505050506040513d601f19601f82011682018060405250810190611a229190612dad565b611a6e5760405162461bcd60e51b815260206004820152601c60248201527f44616f54726561737572793a20626f72726f77476173206572726f7200000000604482015260640161067a565b600d54604051630f9750b360e31b81526004810191909152602481018490527f00000000000000000000000000000000000000000000000000000000000000006044820152606481018390527f00000000000000000000000000000000000000000000000000000000000000006001600160a01b031690637cba859890608401610d85565b6040516331a9108f60e11b815260048101839052829033906001600160a01b037f00000000000000000000000000000000000000000000000000000000000000001690636352211e9060240160206040518083038186803b158015611b5757600080fd5b505afa158015611b6b573d6000803e3d6000fd5b505050506040513d601f19601f82011682018060405250810190611b8f9190612bc0565b6001600160a01b031614611bb55760405162461bcd60e51b815260040161067a90612ffd565b6000600954612710611bc79190613140565b600c54611bd69061271061315f565b611be09085613140565b611bea9190613120565b90507f00000000000000000000000000000000000000000000000000000000000000006001600160a01b0316638856f77985600d547f000000000000000000000000000000000000000000000000000000000000000060095486611c4e9190613140565b6040516001600160e01b031960e087901b1681526004810194909452602484019290925260448301526064820152608401600060405180830381600087803b158015611c9957600080fd5b505af1158015611cad573d6000803e3d6000fd5b5050600754604051627b8a6760e11b8152600481018590523360248201526001600160a01b03909116925062f714ce9150604401600060405180830381600087803b158015611cfb57600080fd5b505af1158015611d0f573d6000803e3d6000fd5b505060408051878152602081018790527f3844cfe85b5c9addd06949485645787cfa9be1c4fd431cc56e4212fdfb7ca2c7935001905060405180910390a150505050565b60045460609060009067ffffffffffffffff811115611d8257634e487b7160e01b600052604160045260246000fd5b604051908082528060200260200182016040528015611dab578160200160208202803683370190505b5090506000805b600454811015611eb35760008581526002602052604081206004805491929184908110611def57634e487b7160e01b600052603260045260246000fd5b60009182526020808320909101546001600160a01b0316835282019290925260400190205460ff1615611ea15760048181548110611e3d57634e487b7160e01b600052603260045260246000fd5b9060005260206000200160009054906101000a90046001600160a01b0316838381518110611e7b57634e487b7160e01b600052603260045260246000fd5b6001600160a01b039092166020928302919091019091015281611e9d816131db565b9250505b80611eab816131db565b915050611db2565b508067ffffffffffffffff811115611edb57634e487b7160e01b600052604160045260246000fd5b604051908082528060200260200182016040528015611f04578160200160208202803683370190505b50925060005b81811015611f8457828181518110611f3257634e487b7160e01b600052603260045260246000fd5b6020026020010151848281518110611f5a57634e487b7160e01b600052603260045260246000fd5b6001600160a01b039092166020928302919091019091015280611f7c816131db565b915050611f0a565b505050919050565b333014611fab5760405162461bcd60e51b815260040161067a90613089565b600454818115801590611fc057506000548211155b8015611fcc5750600081115b8015611fd85750818111155b611ff45760405162461bcd60e51b815260040161067a90612fbb565b60058390556040518381527fa3f1ee9126a074d9326c682f561767f710e927faa811f7a99829d49dc421797a90602001610a75565b3360008181526003602052604081205490919060ff1661205b5760405162461bcd60e51b815260040161067a906130d3565b61206584846126e8565b915061207082612077565b5092915050565b3360008181526003602052604090205460ff166120a65760405162461bcd60e51b815260040161067a906130d3565b60008281526001602052604090205482906001600160a01b03166121185760405162461bcd60e51b815260206004820152602360248201527f4d756c74695369676e207472616e73616374696f6e45786973747328292045726044820152623937b960e91b606482015260840161067a565b60008381526002602090815260408083203380855292529091205484919060ff16156121865760405162461bcd60e51b815260206004820152601e60248201527f4d756c74695369676e206e6f74436f6e6669726d65642829204572726f720000604482015260640161067a565b6000858152600260209081526040808320338085529252808320805460ff191660011790555187927f4a504a94899432a9846e1aa406dceb1bcfd538bb839071d49d1e5e23f5be30ef91a36121da85612805565b5050505050565b6001600160a01b038116600090815260036020526040902054819060ff161561221c5760405162461bcd60e51b815260040161067a90613046565b816001600160a01b03811661226f5760405162461bcd60e51b815260206004820152601960248201527826bab63a34a9b4b3b7103737ba273ab63614149022b93937b960391b604482015260640161067a565b60045461227d906001613108565b60055460008211801561229257506000548211155b801561229e5750600081115b80156122aa5750818111155b6122c65760405162461bcd60e51b815260040161067a90612fbb565b3330146122e55760405162461bcd60e51b815260040161067a90613089565b6001600160a01b038516600081815260036020526040808220805460ff1916600190811790915560048054918201815583527f8a35acfbc15ff81a39ae7d344fd709f28e8600b4aa8c65c6b64bfe7fe36bd19b0180546001600160a01b03191684179055517f6aace347f016a777fa6258ea1f5a1cf7a83cba16e67ab7d4abedf50dbf4779e29190a25050505050565b3330146123945760405162461bcd60e51b815260040161067a90613089565b6001600160a01b038116600090815260036020526040902054819060ff166123ce5760405162461bcd60e51b815260040161067a906130d3565b6001600160a01b0382166000908152600360205260408120805460ff191690555b6004546123fe9060019061315f565b8110156124f857826001600160a01b03166004828154811061243057634e487b7160e01b600052603260045260246000fd5b6000918252602090912001546001600160a01b031614156124e6576004805461245b9060019061315f565b8154811061247957634e487b7160e01b600052603260045260246000fd5b600091825260209091200154600480546001600160a01b0390921691839081106124b357634e487b7160e01b600052603260045260246000fd5b9060005260206000200160006101000a8154816001600160a01b0302191690836001600160a01b031602179055506124f8565b806124f0816131db565b9150506123ef565b50600480548061251857634e487b7160e01b600052603160045260246000fd5b600082815260209020810160001990810180546001600160a01b031916905501905560045460055411156125525760045461255290611f8c565b6040516001600160a01b038316907fe4c71e97b098958c9a514b681c52608969cc549306e8c95ec3f25c189daee40a90600090a25050565b3330146125a95760405162461bcd60e51b815260040161067a90613089565b60098190556040518181527f2cdf928bf44b43ec9abf0303365ba96ca923285832406706c660071b793417a4906020016106b4565b3330146125fd5760405162461bcd60e51b815260040161067a90613089565b600880546001600160a01b0319166001600160a01b0383169081179091556040519081527f4377333e180eb2790ab8a4441055642568c7fffb86f2f0888c57cde35321cbe0906020016106b4565b33301461266a5760405162461bcd60e51b815260040161067a90613089565b600c8190556040518181527f0c7945060807e7a3d25debccd2ec8f646c0b1ba7426edf67aa22b335dd5bfdd1906020016106b4565b60606126e183836040518060400160405280601e81526020017f416464726573733a206c6f772d6c6576656c2063616c6c206661696c65640000815250612993565b9392505050565b6000826001600160a01b03811661273d5760405162461bcd60e51b815260206004820152601960248201527826bab63a34a9b4b3b7103737ba273ab63614149022b93937b960391b604482015260640161067a565b600654604080516060810182526001600160a01b038781168252602080830188815260008486018190528681526001808452959020845181546001600160a01b0319169416939093178355518051959750929491936127a29390850192910190612b0b565b50604091909101516002909101805460ff1916911515919091179055600680549060006127ce836131db565b909155505060405182907fc0ba8fe4b176c1714197d43b9cc6bcf797a4a7461c5fe8d0ef6e184ae7601e5190600090a25092915050565b600081815260016020526040902060020154819060ff16156128695760405162461bcd60e51b815260206004820152601d60248201527f4d756c74695369676e206e6f7445786563757465642829204572726f72000000604482015260640161067a565b61287282610f97565b1561298f57600082815260016020819052604080832060028101805460ff1916841790558054915190939283926001600160a01b0316916128b591860190612e8a565b6000604051808303816000865af19150503d80600081146128f2576040519150601f19603f3d011682016040523d82523d6000602084013e6128f7565b606091505b50915091508180156129215750805115806129215750808060200190518101906129219190612dad565b156129565760405185907ff2788e0d1a8dffbdac057cef8914e5346afd7a09d39d19b60080caf3cc07c4f790600090a26121da565b60405185907f526441bb6c1aba3c9a4a6ca1d6545da9c2333c8c48343ef398eb858d72b7923690600090a25050600201805460ff191690555b5050565b60606129a284846000856129aa565b949350505050565b606082471015612a0b5760405162461bcd60e51b815260206004820152602660248201527f416464726573733a20696e73756666696369656e742062616c616e636520666f6044820152651c8818d85b1b60d21b606482015260840161067a565b843b612a595760405162461bcd60e51b815260206004820152601d60248201527f416464726573733a2063616c6c20746f206e6f6e2d636f6e7472616374000000604482015260640161067a565b600080866001600160a01b03168587604051612a759190612e6e565b60006040518083038185875af1925050503d8060008114612ab2576040519150601f19603f3d011682016040523d82523d6000602084013e612ab7565b606091505b5091509150612ac7828286612ad2565b979650505050505050565b60608315612ae15750816126e1565b825115612af15782518084602001fd5b8160405162461bcd60e51b815260040161067a9190612fa8565b828054612b17906131a6565b90600052602060002090601f016020900481019282612b395760008555612b7f565b82601f10612b5257805160ff1916838001178555612b7f565b82800160010185558215612b7f579182015b82811115612b7f578251825591602001919060010190612b64565b50612b8b929150612b8f565b5090565b5b80821115612b8b5760008155600101612b90565b600060208284031215612bb5578081fd5b81356126e181613222565b600060208284031215612bd1578081fd5b81516126e181613222565b60008060408385031215612bee578081fd5b8235612bf981613222565b91506020830135612c0981613222565b809150509250929050565b600080600060608486031215612c28578081fd5b8335612c3381613222565b92506020840135612c4381613222565b929592945050506040919091013590565b600080600080600060808688031215612c6b578081fd5b8535612c7681613222565b94506020860135612c8681613222565b935060408601359250606086013567ffffffffffffffff80821115612ca9578283fd5b818801915088601f830112612cbc578283fd5b813581811115612cca578384fd5b896020828501011115612cdb578384fd5b9699959850939650602001949392505050565b60008060408385031215612d00578182fd5b8235612d0b81613222565b9150602083013567ffffffffffffffff80821115612d27578283fd5b818501915085601f830112612d3a578283fd5b813581811115612d4c57612d4c61320c565b604051601f8201601f19908116603f01168101908382118183101715612d7457612d7461320c565b81604052828152886020848701011115612d8c578586fd5b82602086016020830137856020848301015280955050505050509250929050565b600060208284031215612dbe578081fd5b815180151581146126e1578182fd5b600060208284031215612dde578081fd5b5035919050565b600060208284031215612df6578081fd5b5051919050565b60008060408385031215612e0f578182fd5b823591506020830135612c0981613222565b60008060408385031215612e33578182fd5b50508035926020909101359150565b60008151808452612e5a816020860160208601613176565b601f01601f19169290920160200192915050565b60008251612e80818460208701613176565b9190910192915050565b600080835482600182811c915080831680612ea657607f831692505b6020808410821415612ec657634e487b7160e01b87526022600452602487fd5b818015612eda5760018114612eeb57612f17565b60ff19861689528489019650612f17565b60008a815260209020885b86811015612f0f5781548b820152908501908301612ef6565b505084890196505b509498975050505050505050565b6001600160a01b0384168152606060208201819052600090612f4990830185612e42565b90508215156040830152949350505050565b6020808252825182820181905260009190848201906040850190845b81811015612f9c5783516001600160a01b031683529284019291840191600101612f77565b50909695505050505050565b6020815260006126e16020830184612e42565b60208082526022908201527f4d756c74695369676e2076616c6964526571756972656d656e7428292045727260408201526137b960f11b606082015260800190565b60208082526029908201527f44616f54726561737572793a2063616c6c6572206973206e6f7420746865206e604082015268333a103437b63232b960b91b606082015260800190565b60208082526023908201527f4d756c74695369676e20636f6d6d697465654e6f7445786973747328292045726040820152623937b960e91b606082015260800190565b6020808252602a908201527f4d756c74695369676e206f6e6c7920616464726573732874686973292063616e6040820152692063616c6c207468697360b01b606082015260800190565b6020808252818101527f4d756c74695369676e20636f6d6d697465654578697374732829204572726f72604082015260600190565b6000821982111561311b5761311b6131f6565b500190565b60008261313b57634e487b7160e01b81526012600452602481fd5b500490565b600081600019048311821515161561315a5761315a6131f6565b500290565b600082821015613171576131716131f6565b500390565b60005b83811015613191578181015183820152602001613179565b838111156131a0576000848401525b50505050565b600181811c908216806131ba57607f821691505b6020821081141561134357634e487b7160e01b600052602260045260246000fd5b60006000198214156131ef576131ef6131f6565b5060010190565b634e487b7160e01b600052601160045260246000fd5b634e487b7160e01b600052604160045260246000fd5b6001600160a01b038116811461323757600080fd5b5056fea264697066735822122054f60fc916b79704f26a683d371cb250775903b475e20d38338ddd367ea049b564736f6c63430008040033",
  "linkReferences": {},
  "deployedLinkReferences": {}
}