{
  "_format": "hh-sol-artifact-1",
  "contractName": "ERC3664",
  "sourceName": "contracts/EIP3664/ERC3664.sol",
  "abi": [
    {
      "inputs": [
        {
          "internalType": "string",
          "name": "uri_",
          "type": "string"
        }
      ],
      "stateMutability": "nonpayable",
      "type": "constructor"
    },
    {
      "anonymous": false,
      "inputs": [
        {
          "indexed": true,
          "internalType": "address",
          "name": "operator",
          "type": "address"
        },
        {
          "indexed": false,
          "internalType": "uint256",
          "name": "from",
          "type": "uint256"
        },
        {
          "indexed": false,
          "internalType": "uint256",
          "name": "to",
          "type": "uint256"
        },
        {
          "indexed": false,
          "internalType": "uint256",
          "name": "attrId",
          "type": "uint256"
        },
        {
          "indexed": false,
          "internalType": "uint256",
          "name": "amount",
          "type": "uint256"
        }
      ],
      "name": "AttributeApproval",
      "type": "event"
    },
    {
      "anonymous": false,
      "inputs": [
        {
          "indexed": true,
          "internalType": "uint256",
          "name": "attrId",
          "type": "uint256"
        },
        {
          "indexed": false,
          "internalType": "string",
          "name": "name",
          "type": "string"
        },
        {
          "indexed": false,
          "internalType": "string",
          "name": "symbol",
          "type": "string"
        },
        {
          "indexed": false,
          "internalType": "uint8",
          "name": "_decimal",
          "type": "uint8"
        },
        {
          "indexed": false,
          "internalType": "string",
          "name": "uri",
          "type": "string"
        }
      ],
      "name": "AttributeCreated",
      "type": "event"
    },
    {
      "anonymous": false,
      "inputs": [
        {
          "indexed": true,
          "internalType": "address",
          "name": "operator",
          "type": "address"
        },
        {
          "indexed": true,
          "internalType": "uint256",
          "name": "from",
          "type": "uint256"
        },
        {
          "indexed": true,
          "internalType": "uint256",
          "name": "to",
          "type": "uint256"
        },
        {
          "indexed": false,
          "internalType": "uint256[]",
          "name": "attrIds",
          "type": "uint256[]"
        },
        {
          "indexed": false,
          "internalType": "uint256[]",
          "name": "values",
          "type": "uint256[]"
        }
      ],
      "name": "TransferBatch",
      "type": "event"
    },
    {
      "anonymous": false,
      "inputs": [
        {
          "indexed": true,
          "internalType": "address",
          "name": "operator",
          "type": "address"
        },
        {
          "indexed": true,
          "internalType": "uint256",
          "name": "from",
          "type": "uint256"
        },
        {
          "indexed": true,
          "internalType": "uint256",
          "name": "to",
          "type": "uint256"
        },
        {
          "indexed": false,
          "internalType": "uint256",
          "name": "attrId",
          "type": "uint256"
        },
        {
          "indexed": false,
          "internalType": "uint256",
          "name": "value",
          "type": "uint256"
        }
      ],
      "name": "TransferSingle",
      "type": "event"
    },
    {
      "inputs": [
        {
          "internalType": "address",
          "name": "operator",
          "type": "address"
        },
        {
          "internalType": "uint256",
          "name": "from",
          "type": "uint256"
        },
        {
          "internalType": "uint256",
          "name": "to",
          "type": "uint256"
        },
        {
          "internalType": "uint256",
          "name": "attrId",
          "type": "uint256"
        },
        {
          "internalType": "uint256",
          "name": "amount",
          "type": "uint256"
        }
      ],
      "name": "_transfer",
      "outputs": [],
      "stateMutability": "nonpayable",
      "type": "function"
    },
    {
      "inputs": [
        {
          "internalType": "uint256",
          "name": "from",
          "type": "uint256"
        },
        {
          "internalType": "uint256",
          "name": "to",
          "type": "uint256"
        },
        {
          "internalType": "uint256",
          "name": "attrId",
          "type": "uint256"
        }
      ],
      "name": "allowance",
      "outputs": [
        {
          "internalType": "uint256",
          "name": "",
          "type": "uint256"
        }
      ],
      "stateMutability": "view",
      "type": "function"
    },
    {
      "inputs": [
        {
          "internalType": "uint256",
          "name": "from",
          "type": "uint256"
        },
        {
          "internalType": "uint256",
          "name": "to",
          "type": "uint256"
        },
        {
          "internalType": "uint256",
          "name": "attrId",
          "type": "uint256"
        },
        {
          "internalType": "uint256",
          "name": "amount",
          "type": "uint256"
        }
      ],
      "name": "approve",
      "outputs": [],
      "stateMutability": "nonpayable",
      "type": "function"
    },
    {
      "inputs": [
        {
          "internalType": "uint256",
          "name": "",
          "type": "uint256"
        },
        {
          "internalType": "uint256",
          "name": "",
          "type": "uint256"
        }
      ],
      "name": "attrBalances",
      "outputs": [
        {
          "internalType": "uint256",
          "name": "",
          "type": "uint256"
        }
      ],
      "stateMutability": "view",
      "type": "function"
    },
    {
      "inputs": [
        {
          "internalType": "uint256",
          "name": "attrId",
          "type": "uint256"
        }
      ],
      "name": "attrURI",
      "outputs": [
        {
          "internalType": "string",
          "name": "",
          "type": "string"
        }
      ],
      "stateMutability": "view",
      "type": "function"
    },
    {
      "inputs": [
        {
          "internalType": "uint256",
          "name": "tokenId",
          "type": "uint256"
        },
        {
          "internalType": "uint256",
          "name": "attrId",
          "type": "uint256"
        }
      ],
      "name": "balanceOf",
      "outputs": [
        {
          "internalType": "uint256",
          "name": "",
          "type": "uint256"
        }
      ],
      "stateMutability": "view",
      "type": "function"
    },
    {
      "inputs": [
        {
          "internalType": "uint256",
          "name": "tokenId",
          "type": "uint256"
        },
        {
          "internalType": "uint256[]",
          "name": "attrIds",
          "type": "uint256[]"
        }
      ],
      "name": "balanceOfBatch",
      "outputs": [
        {
          "internalType": "uint256[]",
          "name": "",
          "type": "uint256[]"
        }
      ],
      "stateMutability": "view",
      "type": "function"
    },
    {
      "inputs": [
        {
          "internalType": "uint256",
          "name": "attrId",
          "type": "uint256"
        }
      ],
      "name": "decimal",
      "outputs": [
        {
          "internalType": "uint8",
          "name": "",
          "type": "uint8"
        }
      ],
      "stateMutability": "view",
      "type": "function"
    },
    {
      "inputs": [
        {
          "internalType": "uint256",
          "name": "attrId",
          "type": "uint256"
        }
      ],
      "name": "name",
      "outputs": [
        {
          "internalType": "string",
          "name": "",
          "type": "string"
        }
      ],
      "stateMutability": "view",
      "type": "function"
    },
    {
      "inputs": [
        {
          "internalType": "bytes4",
          "name": "interfaceId",
          "type": "bytes4"
        }
      ],
      "name": "supportsInterface",
      "outputs": [
        {
          "internalType": "bool",
          "name": "",
          "type": "bool"
        }
      ],
      "stateMutability": "view",
      "type": "function"
    },
    {
      "inputs": [
        {
          "internalType": "uint256",
          "name": "attrId",
          "type": "uint256"
        }
      ],
      "name": "symbol",
      "outputs": [
        {
          "internalType": "string",
          "name": "",
          "type": "string"
        }
      ],
      "stateMutability": "view",
      "type": "function"
    },
    {
      "inputs": [
        {
          "internalType": "uint256",
          "name": "attrId",
          "type": "uint256"
        }
      ],
      "name": "totalSupply",
      "outputs": [
        {
          "internalType": "uint256",
          "name": "",
          "type": "uint256"
        }
      ],
      "stateMutability": "view",
      "type": "function"
    },
    {
      "inputs": [
        {
          "internalType": "uint256",
          "name": "from",
          "type": "uint256"
        },
        {
          "internalType": "uint256",
          "name": "to",
          "type": "uint256"
        },
        {
          "internalType": "uint256",
          "name": "attrId",
          "type": "uint256"
        },
        {
          "internalType": "uint256",
          "name": "amount",
          "type": "uint256"
        }
      ],
      "name": "transfer",
      "outputs": [],
      "stateMutability": "nonpayable",
      "type": "function"
    },
    {
      "inputs": [
        {
          "internalType": "uint256",
          "name": "from",
          "type": "uint256"
        },
        {
          "internalType": "uint256",
          "name": "to",
          "type": "uint256"
        },
        {
          "internalType": "uint256",
          "name": "attrId",
          "type": "uint256"
        },
        {
          "internalType": "uint256",
          "name": "amount",
          "type": "uint256"
        }
      ],
      "name": "transferFrom",
      "outputs": [],
      "stateMutability": "nonpayable",
      "type": "function"
    }
  ],
  "bytecode": "0x60806040523480156200001157600080fd5b50604051620013d0380380620013d0833981016040819052620000349162000105565b6200003f8162000046565b506200022e565b80516200005b9060009060208401906200005f565b5050565b8280546200006d90620001db565b90600052602060002090601f016020900481019282620000915760008555620000dc565b82601f10620000ac57805160ff1916838001178555620000dc565b82800160010185558215620000dc579182015b82811115620000dc578251825591602001919060010190620000bf565b50620000ea929150620000ee565b5090565b5b80821115620000ea5760008155600101620000ef565b6000602080838503121562000118578182fd5b82516001600160401b03808211156200012f578384fd5b818501915085601f83011262000143578384fd5b81518181111562000158576200015862000218565b604051601f8201601f19908116603f0116810190838211818310171562000183576200018362000218565b8160405282815288868487010111156200019b578687fd5b8693505b82841015620001be57848401860151818501870152928501926200019f565b82841115620001cf57868684830101525b98975050505050505050565b600181811c90821680620001f057607f821691505b602082108114156200021257634e487b7160e01b600052602260045260246000fd5b50919050565b634e487b7160e01b600052604160045260246000fd5b611192806200023e6000396000f3fe608060405234801561001057600080fd5b50600436106100e95760003560e01c80638856f7791161008c578063e15fe34f11610066578063e15fe34f146101fc578063e829ffa11461020f578063ea6996331461023a578063f371efa41461026457600080fd5b80638856f779146101a85780639bc5ae54146101bb578063bd85b039146101ce57600080fd5b80634e41a1fb116100c85780634e41a1fb1461014f5780635d126110146101625780636c06296c146101825780637cba85981461019557600080fd5b8062ad800c146100ee57806301ffc9a7146101175780632f94e4aa1461013a575b600080fd5b6101016100fc366004610de6565b610289565b60405161010e919061102a565b60405180910390f35b61012a610125366004610dbe565b6103a6565b604051901515815260200161010e565b61014d610148366004610d70565b6103f8565b005b61010161015d366004610de6565b61059e565b610175610170366004610dfe565b610637565b60405161010e9190610fe6565b61014d610190366004610ec4565b610724565b61014d6101a3366004610ec4565b610736565b61014d6101b6366004610ec4565b61074b565b6101016101c9366004610de6565b61087a565b6101ee6101dc366004610de6565b60009081526004602052604090205490565b60405190815260200161010e565b6101ee61020a366004610e99565b610a1e565b6101ee61021d366004610e78565b600260209081526000928352604080842090915290825290205481565b6101ee610248366004610e78565b6000908152600260209081526040808320938352929052205490565b610277610272366004610de6565b610a7f565b60405160ff909116815260200161010e565b60008181526001602052604090206004015460609060ff166103085760405162461bcd60e51b815260206004820152602d60248201527f455243333636343a206e616d6520717565727920666f72206e6f6e657869737460448201526c656e742061747472696275746560981b60648201526084015b60405180910390fd5b60008281526001602052604090208054610321906110cc565b80601f016020809104026020016040519081016040528092919081815260200182805461034d906110cc565b801561039a5780601f1061036f5761010080835404028352916020019161039a565b820191906000526020600020905b81548152906001019060200180831161037d57829003601f168201915b50505050509050919050565b60006001600160e01b03198216630e697ffb60e31b14806103d757506001600160e01b03198216632658600760e01b145b806103f257506301ffc9a760e01b6001600160e01b03198316145b92915050565b836104455760405162461bcd60e51b815260206004820181905260248201527f455243333636343a207472616e736665722066726f6d20746865207a65726f2060448201526064016102ff565b826104925760405162461bcd60e51b815260206004820152601e60248201527f455243333636343a207472616e7366657220746f20746865207a65726f20000060448201526064016102ff565b60408051602080820183526000918290528482526002815282822087835290522054818110156105155760405162461bcd60e51b815260206004820152602860248201527f455243333636343a207472616e7366657220616d6f756e7420657863656564736044820152672062616c616e636560c01b60648201526084016102ff565b600083815260026020908152604080832088845290915280822084840390558582528120805484929061054990849061105d565b90915550506040805184815260208101849052859187916001600160a01b038a16917f73b5fbfbf0177b0de2ffe9fd0ae9887dd73d0d865db7ab5ff3c4a6b9bb8db1e3910160405180910390a4505050505050565b60008181526001602052604090206004015460609060ff1661061a5760405162461bcd60e51b815260206004820152602f60248201527f455243333636343a2073796d626f6c20717565727920666f72206e6f6e65786960448201526e7374656e742061747472696275746560881b60648201526084016102ff565b6000828152600160208190526040909120018054610321906110cc565b606060008267ffffffffffffffff81111561066257634e487b7160e01b600052604160045260246000fd5b60405190808252806020026020018201604052801561068b578160200160208202803683370190505b50905060005b8381101561071b576106e0868686848181106106bd57634e487b7160e01b600052603260045260246000fd5b905060200201356000908152600260209081526040808320938352929052205490565b82828151811061070057634e487b7160e01b600052603260045260246000fd5b602090810291909101015261071481611101565b9050610691565b50949350505050565b61073084848484610b12565b50505050565b3361074481868686866103f8565b5050505050565b3361075981868686866103f8565b600060036000858860405160200161077b929190918252602082015260400190565b6040516020818303038152906040528051906020012081526020019081526020016000206000868152602001908152602001600020549050828110156108165760405162461bcd60e51b815260206004820152602a60248201527f455243333636343a207472616e7366657220616d6f756e74206578636565647360448201526920616c6c6f77616e636560b01b60648201526084016102ff565b828103600360008689604051602001610839929190918252602082015260400190565b604051602081830303815290604052805190602001208152602001908152602001600020600087815260200190815260200160002081905550505050505050565b60008181526001602052604090206004015460609060ff166108f35760405162461bcd60e51b815260206004820152602c60248201527f455243333636343a2055524920717565727920666f72206e6f6e65786973746560448201526b6e742061747472696275746560a01b60648201526084016102ff565b6000828152600160205260408120600301805461090f906110cc565b80601f016020809104026020016040519081016040528092919081815260200182805461093b906110cc565b80156109885780601f1061095d57610100808354040283529160200191610988565b820191906000526020600020905b81548152906001019060200180831161096b57829003601f168201915b505050505090506000815111156109cb57806109a384610c4e565b6040516020016109b4929190610f11565b604051602081830303815290604052915050919050565b60008080546109d9906110cc565b9050116109f55760405180602001604052806000815250610a11565b6000610a0084610c4e565b6040516020016109b4929190610f40565b9392505050565b50919050565b6000600360008386604051602001610a40929190918252602082015260400190565b60405160208183030381529060405280519060200120815260200190815260200160002060008481526020019081526020016000205490509392505050565b60008181526001602052604081206004015460ff16610af95760405162461bcd60e51b815260206004820152603060248201527f455243333636343a20646563696d616c20717565727920666f72206e6f6e657860448201526f697374656e742061747472696275746560801b60648201526084016102ff565b5060009081526001602052604090206002015460ff1690565b83610b5f5760405162461bcd60e51b815260206004820152601f60248201527f455243333636343a20617070726f76652066726f6d20746865207a65726f200060448201526064016102ff565b82610bac5760405162461bcd60e51b815260206004820152601d60248201527f455243333636343a20617070726f766520746f20746865207a65726f2000000060448201526064016102ff565b80600360008487604051602001610bcd929190918252602082015260400190565b60408051601f19818403018152918152815160209283012083528282019390935290820160009081208782528252829020929092558051868152918201859052818101849052606082018390525133917f4f3267cf1b4f4eda70a80ac65e00830cf370b07c616b8e687c172b69bb15a190919081900360800190a250505050565b606081610c725750506040805180820190915260018152600360fc1b602082015290565b8160005b8115610c9c5780610c8681611101565b9150610c959050600a83611075565b9150610c76565b60008167ffffffffffffffff811115610cc557634e487b7160e01b600052604160045260246000fd5b6040519080825280601f01601f191660200182016040528015610cef576020820181803683370190505b5090505b8415610d6857610d04600183611089565b9150610d11600a8661111c565b610d1c90603061105d565b60f81b818381518110610d3f57634e487b7160e01b600052603260045260246000fd5b60200101906001600160f81b031916908160001a905350610d61600a86611075565b9450610cf3565b949350505050565b600080600080600060a08688031215610d87578081fd5b85356001600160a01b0381168114610d9d578182fd5b97602087013597506040870135966060810135965060800135945092505050565b600060208284031215610dcf578081fd5b81356001600160e01b031981168114610a11578182fd5b600060208284031215610df7578081fd5b5035919050565b600080600060408486031215610e12578283fd5b83359250602084013567ffffffffffffffff80821115610e30578384fd5b818601915086601f830112610e43578384fd5b813581811115610e51578485fd5b8760208260051b8501011115610e65578485fd5b6020830194508093505050509250925092565b60008060408385031215610e8a578182fd5b50508035926020909101359150565b600080600060608486031215610ead578283fd5b505081359360208301359350604090920135919050565b60008060008060808587031215610ed9578384fd5b5050823594602084013594506040840135936060013592509050565b60008151610f078185602086016110a0565b9290920192915050565b60008351610f238184602088016110a0565b835190830190610f378183602088016110a0565b01949350505050565b600080845482600182811c915080831680610f5c57607f831692505b6020808410821415610f7c57634e487b7160e01b87526022600452602487fd5b818015610f905760018114610fa157610fcd565b60ff19861689528489019650610fcd565b60008b815260209020885b86811015610fc55781548b820152908501908301610fac565b505084890196505b505050505050610fdd8185610ef5565b95945050505050565b6020808252825182820181905260009190848201906040850190845b8181101561101e57835183529284019291840191600101611002565b50909695505050505050565b60208152600082518060208401526110498160408501602087016110a0565b601f01601f19169190910160400192915050565b6000821982111561107057611070611130565b500190565b60008261108457611084611146565b500490565b60008282101561109b5761109b611130565b500390565b60005b838110156110bb5781810151838201526020016110a3565b838111156107305750506000910152565b600181811c908216806110e057607f821691505b60208210811415610a1857634e487b7160e01b600052602260045260246000fd5b600060001982141561111557611115611130565b5060010190565b60008261112b5761112b611146565b500690565b634e487b7160e01b600052601160045260246000fd5b634e487b7160e01b600052601260045260246000fdfea26469706673582212204c0806823cfdc7076693df769e2166059609d88d7dd70656ce10346ced9ebf0064736f6c63430008040033",
  "linkReferences": {},
  "deployedLinkReferences": {}
}