{
  "_format": "hh-sol-artifact-1",
  "contractName": "ERC3664",
  "sourceName": "contracts/EIP3664/ERC3664.sol",
  "abi": [
    {
      "inputs": [
        {
          "internalType": "string",
          "name": "uri_",
          "type": "string"
        }
      ],
      "stateMutability": "nonpayable",
      "type": "constructor"
    },
    {
      "anonymous": false,
      "inputs": [
        {
          "indexed": true,
          "internalType": "address",
          "name": "operator",
          "type": "address"
        },
        {
          "indexed": false,
          "internalType": "uint256",
          "name": "from",
          "type": "uint256"
        },
        {
          "indexed": false,
          "internalType": "uint256",
          "name": "to",
          "type": "uint256"
        },
        {
          "indexed": false,
          "internalType": "uint256",
          "name": "attrId",
          "type": "uint256"
        },
        {
          "indexed": false,
          "internalType": "uint256",
          "name": "amount",
          "type": "uint256"
        }
      ],
      "name": "AttributeApproval",
      "type": "event"
    },
    {
      "anonymous": false,
      "inputs": [
        {
          "indexed": true,
          "internalType": "uint256",
          "name": "attrId",
          "type": "uint256"
        },
        {
          "indexed": false,
          "internalType": "string",
          "name": "name",
          "type": "string"
        },
        {
          "indexed": false,
          "internalType": "string",
          "name": "symbol",
          "type": "string"
        },
        {
          "indexed": false,
          "internalType": "string",
          "name": "uri",
          "type": "string"
        }
      ],
      "name": "AttributeCreated",
      "type": "event"
    },
    {
      "anonymous": false,
      "inputs": [
        {
          "indexed": true,
          "internalType": "address",
          "name": "operator",
          "type": "address"
        },
        {
          "indexed": false,
          "internalType": "uint256",
          "name": "from",
          "type": "uint256"
        },
        {
          "indexed": false,
          "internalType": "uint256",
          "name": "to",
          "type": "uint256"
        },
        {
          "indexed": true,
          "internalType": "uint256[]",
          "name": "attrIds",
          "type": "uint256[]"
        },
        {
          "indexed": false,
          "internalType": "uint256[]",
          "name": "values",
          "type": "uint256[]"
        }
      ],
      "name": "TransferBatch",
      "type": "event"
    },
    {
      "anonymous": false,
      "inputs": [
        {
          "indexed": true,
          "internalType": "address",
          "name": "operator",
          "type": "address"
        },
        {
          "indexed": false,
          "internalType": "uint256",
          "name": "from",
          "type": "uint256"
        },
        {
          "indexed": false,
          "internalType": "uint256",
          "name": "to",
          "type": "uint256"
        },
        {
          "indexed": true,
          "internalType": "uint256",
          "name": "attrId",
          "type": "uint256"
        },
        {
          "indexed": false,
          "internalType": "uint256",
          "name": "value",
          "type": "uint256"
        }
      ],
      "name": "TransferSingle",
      "type": "event"
    },
    {
      "inputs": [
        {
          "internalType": "uint256",
          "name": "",
          "type": "uint256"
        }
      ],
      "name": "_totalSupply",
      "outputs": [
        {
          "internalType": "uint256",
          "name": "",
          "type": "uint256"
        }
      ],
      "stateMutability": "view",
      "type": "function"
    },
    {
      "inputs": [
        {
          "internalType": "address",
          "name": "operator",
          "type": "address"
        },
        {
          "internalType": "uint256",
          "name": "from",
          "type": "uint256"
        },
        {
          "internalType": "uint256",
          "name": "to",
          "type": "uint256"
        },
        {
          "internalType": "uint256",
          "name": "attrId",
          "type": "uint256"
        },
        {
          "internalType": "uint256",
          "name": "amount",
          "type": "uint256"
        }
      ],
      "name": "_transfer",
      "outputs": [],
      "stateMutability": "nonpayable",
      "type": "function"
    },
    {
      "inputs": [
        {
          "internalType": "uint256",
          "name": "from",
          "type": "uint256"
        },
        {
          "internalType": "uint256",
          "name": "to",
          "type": "uint256"
        },
        {
          "internalType": "uint256",
          "name": "attrId",
          "type": "uint256"
        }
      ],
      "name": "allowance",
      "outputs": [
        {
          "internalType": "uint256",
          "name": "",
          "type": "uint256"
        }
      ],
      "stateMutability": "view",
      "type": "function"
    },
    {
      "inputs": [
        {
          "internalType": "uint256",
          "name": "from",
          "type": "uint256"
        },
        {
          "internalType": "uint256",
          "name": "to",
          "type": "uint256"
        },
        {
          "internalType": "uint256",
          "name": "attrId",
          "type": "uint256"
        },
        {
          "internalType": "uint256",
          "name": "amount",
          "type": "uint256"
        }
      ],
      "name": "approve",
      "outputs": [],
      "stateMutability": "nonpayable",
      "type": "function"
    },
    {
      "inputs": [
        {
          "internalType": "uint256",
          "name": "",
          "type": "uint256"
        },
        {
          "internalType": "uint256",
          "name": "",
          "type": "uint256"
        }
      ],
      "name": "attrBalances",
      "outputs": [
        {
          "internalType": "uint256",
          "name": "",
          "type": "uint256"
        }
      ],
      "stateMutability": "view",
      "type": "function"
    },
    {
      "inputs": [
        {
          "internalType": "uint256",
          "name": "attrId",
          "type": "uint256"
        }
      ],
      "name": "attrURI",
      "outputs": [
        {
          "internalType": "string",
          "name": "",
          "type": "string"
        }
      ],
      "stateMutability": "view",
      "type": "function"
    },
    {
      "inputs": [
        {
          "internalType": "uint256",
          "name": "tokenId",
          "type": "uint256"
        },
        {
          "internalType": "uint256",
          "name": "attrId",
          "type": "uint256"
        }
      ],
      "name": "balanceOf",
      "outputs": [
        {
          "internalType": "uint256",
          "name": "",
          "type": "uint256"
        }
      ],
      "stateMutability": "view",
      "type": "function"
    },
    {
      "inputs": [
        {
          "internalType": "uint256",
          "name": "tokenId",
          "type": "uint256"
        },
        {
          "internalType": "uint256[]",
          "name": "attrIds",
          "type": "uint256[]"
        }
      ],
      "name": "balanceOfBatch",
      "outputs": [
        {
          "internalType": "uint256[]",
          "name": "",
          "type": "uint256[]"
        }
      ],
      "stateMutability": "view",
      "type": "function"
    },
    {
      "inputs": [
        {
          "internalType": "uint256",
          "name": "attrId",
          "type": "uint256"
        }
      ],
      "name": "decimal",
      "outputs": [
        {
          "internalType": "uint8",
          "name": "",
          "type": "uint8"
        }
      ],
      "stateMutability": "view",
      "type": "function"
    },
    {
      "inputs": [
        {
          "internalType": "uint256",
          "name": "attrId",
          "type": "uint256"
        }
      ],
      "name": "name",
      "outputs": [
        {
          "internalType": "string",
          "name": "",
          "type": "string"
        }
      ],
      "stateMutability": "view",
      "type": "function"
    },
    {
      "inputs": [
        {
          "internalType": "uint256",
          "name": "tokenId",
          "type": "uint256"
        }
      ],
      "name": "primaryAttributeOf",
      "outputs": [
        {
          "internalType": "uint256",
          "name": "",
          "type": "uint256"
        }
      ],
      "stateMutability": "view",
      "type": "function"
    },
    {
      "inputs": [
        {
          "internalType": "uint256",
          "name": "tokenId",
          "type": "uint256"
        },
        {
          "internalType": "uint256",
          "name": "attrId",
          "type": "uint256"
        }
      ],
      "name": "setPrimaryAttribute",
      "outputs": [],
      "stateMutability": "nonpayable",
      "type": "function"
    },
    {
      "inputs": [
        {
          "internalType": "bytes4",
          "name": "interfaceId",
          "type": "bytes4"
        }
      ],
      "name": "supportsInterface",
      "outputs": [
        {
          "internalType": "bool",
          "name": "",
          "type": "bool"
        }
      ],
      "stateMutability": "view",
      "type": "function"
    },
    {
      "inputs": [
        {
          "internalType": "uint256",
          "name": "attrId",
          "type": "uint256"
        }
      ],
      "name": "symbol",
      "outputs": [
        {
          "internalType": "string",
          "name": "",
          "type": "string"
        }
      ],
      "stateMutability": "view",
      "type": "function"
    },
    {
      "inputs": [
        {
          "internalType": "uint256",
          "name": "attrId",
          "type": "uint256"
        }
      ],
      "name": "totalSupply",
      "outputs": [
        {
          "internalType": "uint256",
          "name": "",
          "type": "uint256"
        }
      ],
      "stateMutability": "view",
      "type": "function"
    },
    {
      "inputs": [
        {
          "internalType": "uint256",
          "name": "from",
          "type": "uint256"
        },
        {
          "internalType": "uint256",
          "name": "to",
          "type": "uint256"
        },
        {
          "internalType": "uint256",
          "name": "attrId",
          "type": "uint256"
        },
        {
          "internalType": "uint256",
          "name": "amount",
          "type": "uint256"
        }
      ],
      "name": "transfer",
      "outputs": [],
      "stateMutability": "nonpayable",
      "type": "function"
    },
    {
      "inputs": [
        {
          "internalType": "uint256",
          "name": "from",
          "type": "uint256"
        },
        {
          "internalType": "uint256",
          "name": "to",
          "type": "uint256"
        },
        {
          "internalType": "uint256",
          "name": "attrId",
          "type": "uint256"
        },
        {
          "internalType": "uint256",
          "name": "amount",
          "type": "uint256"
        }
      ],
      "name": "transferFrom",
      "outputs": [],
      "stateMutability": "nonpayable",
      "type": "function"
    }
  ],
  "bytecode": "0x60806040523480156200001157600080fd5b50604051620014ca380380620014ca833981016040819052620000349162000105565b6200003f8162000046565b506200022e565b80516200005b9060009060208401906200005f565b5050565b8280546200006d90620001db565b90600052602060002090601f016020900481019282620000915760008555620000dc565b82601f10620000ac57805160ff1916838001178555620000dc565b82800160010185558215620000dc579182015b82811115620000dc578251825591602001919060010190620000bf565b50620000ea929150620000ee565b5090565b5b80821115620000ea5760008155600101620000ef565b6000602080838503121562000118578182fd5b82516001600160401b03808211156200012f578384fd5b818501915085601f83011262000143578384fd5b81518181111562000158576200015862000218565b604051601f8201601f19908116603f0116810190838211818310171562000183576200018362000218565b8160405282815288868487010111156200019b578687fd5b8693505b82841015620001be57848401860151818501870152928501926200019f565b82841115620001cf57868684830101525b98975050505050505050565b600181811c90821680620001f057607f821691505b602082108114156200021257634e487b7160e01b600052602260045260246000fd5b50919050565b634e487b7160e01b600052604160045260246000fd5b61128c806200023e6000396000f3fe608060405234801561001057600080fd5b506004361061010a5760003560e01c80637cba8598116100a2578063bd85b03911610071578063bd85b03914610250578063e15fe34f14610270578063e829ffa114610283578063ea699633146102ae578063f371efa4146102d857600080fd5b80637cba8598146101f757806387e21d421461020a5780638856f7791461022a5780639bc5ae541461023d57600080fd5b80634e41a1fb116100de5780634e41a1fb146101835780635977e82a146101965780635d126110146101c45780636c06296c146101e457600080fd5b8062ad800c1461010f57806301ffc9a7146101385780631070717b1461015b5780632f94e4aa14610170575b600080fd5b61012261011d366004610edc565b6102fd565b60405161012f9190611120565b60405180910390f35b61014b610146366004610eb4565b61041a565b604051901515815260200161012f565b61016e610169366004610f6e565b61046c565b005b61016e61017e366004610e66565b6104fa565b610122610191366004610edc565b6106a6565b6101b66101a4366004610edc565b60056020526000908152604090205481565b60405190815260200161012f565b6101d76101d2366004610ef4565b61073f565b60405161012f91906110dc565b61016e6101f2366004610fba565b61082c565b61016e610205366004610fba565b610968565b6101b6610218366004610edc565b60009081526003602052604090205490565b61016e610238366004610fba565b61097d565b61012261024b366004610edc565b610aac565b6101b661025e366004610edc565b60009081526005602052604090205490565b6101b661027e366004610f8f565b610c50565b6101b6610291366004610f6e565b600260209081526000928352604080842090915290825290205481565b6101b66102bc366004610f6e565b6000908152600260209081526040808320938352929052205490565b6102eb6102e6366004610edc565b610cb1565b60405160ff909116815260200161012f565b60008181526001602052604090206004015460609060ff1661037c5760405162461bcd60e51b815260206004820152602d60248201527f455243333636343a206e616d6520717565727920666f72206e6f6e657869737460448201526c656e742061747472696275746560981b60648201526084015b60405180910390fd5b60008281526001602052604090208054610395906111c6565b80601f01602080910402602001604051908101604052809291908181526020018280546103c1906111c6565b801561040e5780601f106103e35761010080835404028352916020019161040e565b820191906000526020600020905b8154815290600101906020018083116103f157829003601f168201915b50505050509050919050565b60006001600160e01b0319821663e4d993e160e01b148061044b57506001600160e01b03198216632658600760e01b145b8061046657506301ffc9a760e01b6001600160e01b03198316145b92915050565b60008181526002602090815260408083208584529091529020546104e85760405162461bcd60e51b815260206004820152602d60248201527f455243333636343a20746f6b656e20686173206e6f742061747461636865642060448201526c7468652061747472696275746560981b6064820152608401610373565b60009182526003602052604090912055565b836105475760405162461bcd60e51b815260206004820181905260248201527f455243333636343a207472616e736665722066726f6d20746865207a65726f206044820152606401610373565b826105945760405162461bcd60e51b815260206004820152601e60248201527f455243333636343a207472616e7366657220746f20746865207a65726f2000006044820152606401610373565b60408051602080820183526000918290528482526002815282822087835290522054818110156106175760405162461bcd60e51b815260206004820152602860248201527f455243333636343a207472616e7366657220616d6f756e7420657863656564736044820152672062616c616e636560c01b6064820152608401610373565b600083815260026020908152604080832088845290915280822084840390558582528120805484929061064b908490611153565b9091555050604080518681526020810186905290810183905283906001600160a01b038816907f73b5fbfbf0177b0de2ffe9fd0ae9887dd73d0d865db7ab5ff3c4a6b9bb8db1e39060600160405180910390a3505050505050565b60008181526001602052604090206004015460609060ff166107225760405162461bcd60e51b815260206004820152602f60248201527f455243333636343a2073796d626f6c20717565727920666f72206e6f6e65786960448201526e7374656e742061747472696275746560881b6064820152608401610373565b6000828152600160208190526040909120018054610395906111c6565b606060008267ffffffffffffffff81111561076a57634e487b7160e01b600052604160045260246000fd5b604051908082528060200260200182016040528015610793578160200160208202803683370190505b50905060005b83811015610823576107e8868686848181106107c557634e487b7160e01b600052603260045260246000fd5b905060200201356000908152600260209081526040808320938352929052205490565b82828151811061080857634e487b7160e01b600052603260045260246000fd5b602090810291909101015261081c816111fb565b9050610799565b50949350505050565b836108795760405162461bcd60e51b815260206004820152601f60248201527f455243333636343a20617070726f76652066726f6d20746865207a65726f20006044820152606401610373565b826108c65760405162461bcd60e51b815260206004820152601d60248201527f455243333636343a20617070726f766520746f20746865207a65726f200000006044820152606401610373565b806004600084876040516020016108e7929190918252602082015260400190565b60408051601f19818403018152918152815160209283012083528282019390935290820160009081208782528252829020929092558051868152918201859052818101849052606082018390525133917f4f3267cf1b4f4eda70a80ac65e00830cf370b07c616b8e687c172b69bb15a190919081900360800190a250505050565b3361097681868686866104fa565b5050505050565b3361098b81868686866104fa565b60006004600085886040516020016109ad929190918252602082015260400190565b604051602081830303815290604052805190602001208152602001908152602001600020600086815260200190815260200160002054905082811015610a485760405162461bcd60e51b815260206004820152602a60248201527f455243333636343a207472616e7366657220616d6f756e74206578636565647360448201526920616c6c6f77616e636560b01b6064820152608401610373565b828103600460008689604051602001610a6b929190918252602082015260400190565b604051602081830303815290604052805190602001208152602001908152602001600020600087815260200190815260200160002081905550505050505050565b60008181526001602052604090206004015460609060ff16610b255760405162461bcd60e51b815260206004820152602c60248201527f455243333636343a2055524920717565727920666f72206e6f6e65786973746560448201526b6e742061747472696275746560a01b6064820152608401610373565b60008281526001602052604081206003018054610b41906111c6565b80601f0160208091040260200160405190810160405280929190818152602001828054610b6d906111c6565b8015610bba5780601f10610b8f57610100808354040283529160200191610bba565b820191906000526020600020905b815481529060010190602001808311610b9d57829003601f168201915b50505050509050600081511115610bfd5780610bd584610d44565b604051602001610be6929190611007565b604051602081830303815290604052915050919050565b6000808054610c0b906111c6565b905011610c275760405180602001604052806000815250610c43565b6000610c3284610d44565b604051602001610be6929190611036565b9392505050565b50919050565b6000600460008386604051602001610c72929190918252602082015260400190565b60405160208183030381529060405280519060200120815260200190815260200160002060008481526020019081526020016000205490509392505050565b60008181526001602052604081206004015460ff16610d2b5760405162461bcd60e51b815260206004820152603060248201527f455243333636343a20646563696d616c20717565727920666f72206e6f6e657860448201526f697374656e742061747472696275746560801b6064820152608401610373565b5060009081526001602052604090206002015460ff1690565b606081610d685750506040805180820190915260018152600360fc1b602082015290565b8160005b8115610d925780610d7c816111fb565b9150610d8b9050600a8361116b565b9150610d6c565b60008167ffffffffffffffff811115610dbb57634e487b7160e01b600052604160045260246000fd5b6040519080825280601f01601f191660200182016040528015610de5576020820181803683370190505b5090505b8415610e5e57610dfa60018361117f565b9150610e07600a86611216565b610e12906030611153565b60f81b818381518110610e3557634e487b7160e01b600052603260045260246000fd5b60200101906001600160f81b031916908160001a905350610e57600a8661116b565b9450610de9565b949350505050565b600080600080600060a08688031215610e7d578081fd5b85356001600160a01b0381168114610e93578182fd5b97602087013597506040870135966060810135965060800135945092505050565b600060208284031215610ec5578081fd5b81356001600160e01b031981168114610c43578182fd5b600060208284031215610eed578081fd5b5035919050565b600080600060408486031215610f08578283fd5b83359250602084013567ffffffffffffffff80821115610f26578384fd5b818601915086601f830112610f39578384fd5b813581811115610f47578485fd5b8760208260051b8501011115610f5b578485fd5b6020830194508093505050509250925092565b60008060408385031215610f80578182fd5b50508035926020909101359150565b600080600060608486031215610fa3578283fd5b505081359360208301359350604090920135919050565b60008060008060808587031215610fcf578384fd5b5050823594602084013594506040840135936060013592509050565b60008151610ffd818560208601611196565b9290920192915050565b60008351611019818460208801611196565b83519083019061102d818360208801611196565b01949350505050565b600080845482600182811c91508083168061105257607f831692505b602080841082141561107257634e487b7160e01b87526022600452602487fd5b8180156110865760018114611097576110c3565b60ff198616895284890196506110c3565b60008b815260209020885b868110156110bb5781548b8201529085019083016110a2565b505084890196505b5050505050506110d38185610feb565b95945050505050565b6020808252825182820181905260009190848201906040850190845b81811015611114578351835292840192918401916001016110f8565b50909695505050505050565b602081526000825180602084015261113f816040850160208701611196565b601f01601f19169190910160400192915050565b600082198211156111665761116661122a565b500190565b60008261117a5761117a611240565b500490565b6000828210156111915761119161122a565b500390565b60005b838110156111b1578181015183820152602001611199565b838111156111c0576000848401525b50505050565b600181811c908216806111da57607f821691505b60208210811415610c4a57634e487b7160e01b600052602260045260246000fd5b600060001982141561120f5761120f61122a565b5060010190565b60008261122557611225611240565b500690565b634e487b7160e01b600052601160045260246000fd5b634e487b7160e01b600052601260045260246000fdfea264697066735822122089ad1804778eaea2fbc8f27fe85aaf1120949e4a8bf517a72f951880d9e995c264736f6c63430008040033",
  "linkReferences": {},
  "deployedLinkReferences": {}
}