{
  "_format": "hh-sol-artifact-1",
  "contractName": "ERC3664",
  "sourceName": "contracts/EIP3664/ERC3664.sol",
  "abi": [
    {
      "inputs": [
        {
          "internalType": "string",
          "name": "uri_",
          "type": "string"
        }
      ],
      "stateMutability": "nonpayable",
      "type": "constructor"
    },
    {
      "anonymous": false,
      "inputs": [
        {
          "indexed": true,
          "internalType": "address",
          "name": "operator",
          "type": "address"
        },
        {
          "indexed": false,
          "internalType": "uint256",
          "name": "from",
          "type": "uint256"
        },
        {
          "indexed": false,
          "internalType": "uint256",
          "name": "to",
          "type": "uint256"
        },
        {
          "indexed": false,
          "internalType": "uint256",
          "name": "attrId",
          "type": "uint256"
        }
      ],
      "name": "AttributeApproval",
      "type": "event"
    },
    {
      "anonymous": false,
      "inputs": [
        {
          "indexed": true,
          "internalType": "uint256",
          "name": "attrId",
          "type": "uint256"
        },
        {
          "indexed": false,
          "internalType": "string",
          "name": "name",
          "type": "string"
        },
        {
          "indexed": false,
          "internalType": "string",
          "name": "symbol",
          "type": "string"
        },
        {
          "indexed": false,
          "internalType": "string",
          "name": "uri",
          "type": "string"
        }
      ],
      "name": "AttributeCreated",
      "type": "event"
    },
    {
      "anonymous": false,
      "inputs": [
        {
          "indexed": true,
          "internalType": "address",
          "name": "operator",
          "type": "address"
        },
        {
          "indexed": false,
          "internalType": "uint256",
          "name": "from",
          "type": "uint256"
        },
        {
          "indexed": false,
          "internalType": "uint256",
          "name": "to",
          "type": "uint256"
        },
        {
          "indexed": true,
          "internalType": "uint256[]",
          "name": "attrIds",
          "type": "uint256[]"
        },
        {
          "indexed": false,
          "internalType": "uint256[]",
          "name": "values",
          "type": "uint256[]"
        }
      ],
      "name": "TransferBatch",
      "type": "event"
    },
    {
      "anonymous": false,
      "inputs": [
        {
          "indexed": true,
          "internalType": "address",
          "name": "operator",
          "type": "address"
        },
        {
          "indexed": false,
          "internalType": "uint256",
          "name": "from",
          "type": "uint256"
        },
        {
          "indexed": false,
          "internalType": "uint256",
          "name": "to",
          "type": "uint256"
        },
        {
          "indexed": true,
          "internalType": "uint256",
          "name": "attrId",
          "type": "uint256"
        },
        {
          "indexed": false,
          "internalType": "uint256",
          "name": "value",
          "type": "uint256"
        }
      ],
      "name": "TransferSingle",
      "type": "event"
    },
    {
      "inputs": [
        {
          "internalType": "uint256",
          "name": "from",
          "type": "uint256"
        },
        {
          "internalType": "uint256",
          "name": "to",
          "type": "uint256"
        },
        {
          "internalType": "uint256",
          "name": "attrId",
          "type": "uint256"
        }
      ],
      "name": "approve",
      "outputs": [],
      "stateMutability": "nonpayable",
      "type": "function"
    },
    {
      "inputs": [
        {
          "internalType": "uint256",
          "name": "",
          "type": "uint256"
        },
        {
          "internalType": "uint256",
          "name": "",
          "type": "uint256"
        }
      ],
      "name": "attrBalances",
      "outputs": [
        {
          "internalType": "uint256",
          "name": "",
          "type": "uint256"
        }
      ],
      "stateMutability": "view",
      "type": "function"
    },
    {
      "inputs": [
        {
          "internalType": "uint256",
          "name": "attrId",
          "type": "uint256"
        }
      ],
      "name": "attrURI",
      "outputs": [
        {
          "internalType": "string",
          "name": "",
          "type": "string"
        }
      ],
      "stateMutability": "view",
      "type": "function"
    },
    {
      "inputs": [
        {
          "internalType": "uint256",
          "name": "tokenId",
          "type": "uint256"
        },
        {
          "internalType": "uint256",
          "name": "attrId",
          "type": "uint256"
        }
      ],
      "name": "balanceOf",
      "outputs": [
        {
          "internalType": "uint256",
          "name": "",
          "type": "uint256"
        }
      ],
      "stateMutability": "view",
      "type": "function"
    },
    {
      "inputs": [
        {
          "internalType": "uint256",
          "name": "tokenId",
          "type": "uint256"
        },
        {
          "internalType": "uint256[]",
          "name": "attrIds",
          "type": "uint256[]"
        }
      ],
      "name": "balanceOfBatch",
      "outputs": [
        {
          "internalType": "uint256[]",
          "name": "",
          "type": "uint256[]"
        }
      ],
      "stateMutability": "view",
      "type": "function"
    },
    {
      "inputs": [
        {
          "internalType": "uint256",
          "name": "attrId",
          "type": "uint256"
        }
      ],
      "name": "decimal",
      "outputs": [
        {
          "internalType": "uint8",
          "name": "",
          "type": "uint8"
        }
      ],
      "stateMutability": "view",
      "type": "function"
    },
    {
      "inputs": [
        {
          "internalType": "uint256",
          "name": "from",
          "type": "uint256"
        },
        {
          "internalType": "uint256",
          "name": "to",
          "type": "uint256"
        },
        {
          "internalType": "uint256",
          "name": "attrId",
          "type": "uint256"
        }
      ],
      "name": "isApproved",
      "outputs": [
        {
          "internalType": "bool",
          "name": "",
          "type": "bool"
        }
      ],
      "stateMutability": "view",
      "type": "function"
    },
    {
      "inputs": [
        {
          "internalType": "uint256",
          "name": "attrId",
          "type": "uint256"
        }
      ],
      "name": "name",
      "outputs": [
        {
          "internalType": "string",
          "name": "",
          "type": "string"
        }
      ],
      "stateMutability": "view",
      "type": "function"
    },
    {
      "inputs": [
        {
          "internalType": "uint256",
          "name": "tokenId",
          "type": "uint256"
        }
      ],
      "name": "primaryAttributeOf",
      "outputs": [
        {
          "internalType": "uint256",
          "name": "",
          "type": "uint256"
        }
      ],
      "stateMutability": "view",
      "type": "function"
    },
    {
      "inputs": [
        {
          "internalType": "uint256",
          "name": "tokenId",
          "type": "uint256"
        },
        {
          "internalType": "uint256",
          "name": "attrId",
          "type": "uint256"
        }
      ],
      "name": "setPrimaryAttribute",
      "outputs": [],
      "stateMutability": "nonpayable",
      "type": "function"
    },
    {
      "inputs": [
        {
          "internalType": "bytes4",
          "name": "interfaceId",
          "type": "bytes4"
        }
      ],
      "name": "supportsInterface",
      "outputs": [
        {
          "internalType": "bool",
          "name": "",
          "type": "bool"
        }
      ],
      "stateMutability": "view",
      "type": "function"
    },
    {
      "inputs": [
        {
          "internalType": "uint256",
          "name": "attrId",
          "type": "uint256"
        }
      ],
      "name": "symbol",
      "outputs": [
        {
          "internalType": "string",
          "name": "",
          "type": "string"
        }
      ],
      "stateMutability": "view",
      "type": "function"
    },
    {
      "inputs": [
        {
          "internalType": "uint256",
          "name": "from",
          "type": "uint256"
        },
        {
          "internalType": "uint256",
          "name": "to",
          "type": "uint256"
        },
        {
          "internalType": "uint256",
          "name": "attrId",
          "type": "uint256"
        }
      ],
      "name": "transferFrom",
      "outputs": [],
      "stateMutability": "nonpayable",
      "type": "function"
    }
  ],
  "bytecode": "0x60806040523480156200001157600080fd5b506040516200127c3803806200127c833981016040819052620000349162000105565b6200003f8162000046565b506200022e565b80516200005b9060009060208401906200005f565b5050565b8280546200006d90620001db565b90600052602060002090601f016020900481019282620000915760008555620000dc565b82601f10620000ac57805160ff1916838001178555620000dc565b82800160010185558215620000dc579182015b82811115620000dc578251825591602001919060010190620000bf565b50620000ea929150620000ee565b5090565b5b80821115620000ea5760008155600101620000ef565b6000602080838503121562000118578182fd5b82516001600160401b03808211156200012f578384fd5b818501915085601f83011262000143578384fd5b81518181111562000158576200015862000218565b604051601f8201601f19908116603f0116810190838211818310171562000183576200018362000218565b8160405282815288868487010111156200019b578687fd5b8693505b82841015620001be57848401860151818501870152928501926200019f565b82841115620001cf57868684830101525b98975050505050505050565b600181811c90821680620001f057607f821691505b602082108114156200021257634e487b7160e01b600052602260045260246000fd5b50919050565b634e487b7160e01b600052604160045260246000fd5b61103e806200023e6000396000f3fe608060405234801561001057600080fd5b50600436106100ce5760003560e01c80635d1261101161008c578063b866c8a411610066578063b866c8a4146101e9578063e829ffa1146101fc578063ea69963314610227578063f371efa41461025157600080fd5b80635d1261101461018857806387e21d42146101a85780639bc5ae54146101d657600080fd5b8062ad800c146100d357806301ffc9a7146100fc5780631070717b1461011f578063237306e814610134578063310ed7f0146101625780634e41a1fb14610175575b600080fd5b6100e66100e1366004610cbf565b610276565b6040516100f39190610ed2565b60405180910390f35b61010f61010a366004610c97565b610393565b60405190151581526020016100f3565b61013261012d366004610d51565b6103e5565b005b61010f610142366004610d72565b600090815260046020908152604080832094835293905291909120541490565b610132610170366004610d72565b610473565b6100e6610183366004610cbf565b610614565b61019b610196366004610cd7565b6106ad565b6040516100f39190610e8e565b6101c86101b6366004610cbf565b60009081526003602052604090205490565b6040519081526020016100f3565b6100e66101e4366004610cbf565b61079a565b6101326101f7366004610d72565b61093e565b6101c861020a366004610d51565b600260209081526000928352604080842090915290825290205481565b6101c8610235366004610d51565b6000908152600260209081526040808320938352929052205490565b61026461025f366004610cbf565b610ae2565b60405160ff90911681526020016100f3565b60008181526001602052604090206004015460609060ff166102f55760405162461bcd60e51b815260206004820152602d60248201527f455243333636343a206e616d6520717565727920666f72206e6f6e657869737460448201526c656e742061747472696275746560981b60648201526084015b60405180910390fd5b6000828152600160205260409020805461030e90610f78565b80601f016020809104026020016040519081016040528092919081815260200182805461033a90610f78565b80156103875780601f1061035c57610100808354040283529160200191610387565b820191906000526020600020905b81548152906001019060200180831161036a57829003601f168201915b50505050509050919050565b60006001600160e01b03198216634579415360e11b14806103c457506001600160e01b03198216632658600760e01b145b806103df57506301ffc9a760e01b6001600160e01b03198316145b92915050565b60008181526002602090815260408083208584529091529020546104615760405162461bcd60e51b815260206004820152602d60248201527f455243333636343a20746f6b656e20686173206e6f742061747461636865642060448201526c7468652061747472696275746560981b60648201526084016102ec565b60009182526003602052604090912055565b600081815260046020908152604080832086845290915290205482146105015760405162461bcd60e51b815260206004820152603a60248201527f455243333636343a206e667420686f6c646572206e6f7420617070726f76652060448201527f7468652061747472696275746520746f20726563697069656e7400000000000060648201526084016102ec565b60008181526002602090815260408083208584529091529020541561057e5760405162461bcd60e51b815260206004820152602d60248201527f455243333636343a20726563697069656e74206861732061747461636865642060448201526c7468652061747472696275746560981b60648201526084016102ec565b600081815260026020908152604080832086845280835281842080548351808601855286905287865291845282852082905584905584845260048352818420878552835281842093909355805186815291820185905281810183905251339291849184917f73b5fbfbf0177b0de2ffe9fd0ae9887dd73d0d865db7ab5ff3c4a6b9bb8db1e3919081900360600190a35050505050565b60008181526001602052604090206004015460609060ff166106905760405162461bcd60e51b815260206004820152602f60248201527f455243333636343a2073796d626f6c20717565727920666f72206e6f6e65786960448201526e7374656e742061747472696275746560881b60648201526084016102ec565b600082815260016020819052604090912001805461030e90610f78565b606060008267ffffffffffffffff8111156106d857634e487b7160e01b600052604160045260246000fd5b604051908082528060200260200182016040528015610701578160200160208202803683370190505b50905060005b83811015610791576107568686868481811061073357634e487b7160e01b600052603260045260246000fd5b905060200201356000908152600260209081526040808320938352929052205490565b82828151811061077657634e487b7160e01b600052603260045260246000fd5b602090810291909101015261078a81610fad565b9050610707565b50949350505050565b60008181526001602052604090206004015460609060ff166108135760405162461bcd60e51b815260206004820152602c60248201527f455243333636343a2055524920717565727920666f72206e6f6e65786973746560448201526b6e742061747472696275746560a01b60648201526084016102ec565b6000828152600160205260408120600301805461082f90610f78565b80601f016020809104026020016040519081016040528092919081815260200182805461085b90610f78565b80156108a85780601f1061087d576101008083540402835291602001916108a8565b820191906000526020600020905b81548152906001019060200180831161088b57829003601f168201915b505050505090506000815111156108eb57806108c384610b75565b6040516020016108d4929190610db9565b604051602081830303815290604052915050919050565b60008080546108f990610f78565b9050116109155760405180602001604052806000815250610931565b600061092084610b75565b6040516020016108d4929190610de8565b9392505050565b50919050565b8261099a5760405162461bcd60e51b815260206004820152602660248201527f455243333636343a20617070726f76652066726f6d20746865207a65726f206160448201526564647265737360d01b60648201526084016102ec565b816109f35760405162461bcd60e51b8152602060048201526024808201527f455243333636343a20617070726f766520746f20746865207a65726f206164646044820152637265737360e01b60648201526084016102ec565b600081815260026020908152604080832085845290915290205415610a805760405162461bcd60e51b815260206004820152603b60248201527f455243333636343a20726563697069656e7420746f6b656e2068617320616c7260448201527f656164792061747461636865642074686520617474726962757465000000000060648201526084016102ec565b60008181526004602090815260408083208684528252918290208490558151858152908101849052808201839052905133917f6565b688f546de180373d4414390a2d7d1ff98f4a22d6a48534e178d3b2d072e919081900360600190a2505050565b60008181526001602052604081206004015460ff16610b5c5760405162461bcd60e51b815260206004820152603060248201527f455243333636343a20646563696d616c20717565727920666f72206e6f6e657860448201526f697374656e742061747472696275746560801b60648201526084016102ec565b5060009081526001602052604090206002015460ff1690565b606081610b995750506040805180820190915260018152600360fc1b602082015290565b8160005b8115610bc35780610bad81610fad565b9150610bbc9050600a83610f1d565b9150610b9d565b60008167ffffffffffffffff811115610bec57634e487b7160e01b600052604160045260246000fd5b6040519080825280601f01601f191660200182016040528015610c16576020820181803683370190505b5090505b8415610c8f57610c2b600183610f31565b9150610c38600a86610fc8565b610c43906030610f05565b60f81b818381518110610c6657634e487b7160e01b600052603260045260246000fd5b60200101906001600160f81b031916908160001a905350610c88600a86610f1d565b9450610c1a565b949350505050565b600060208284031215610ca8578081fd5b81356001600160e01b031981168114610931578182fd5b600060208284031215610cd0578081fd5b5035919050565b600080600060408486031215610ceb578182fd5b83359250602084013567ffffffffffffffff80821115610d09578384fd5b818601915086601f830112610d1c578384fd5b813581811115610d2a578485fd5b8760208260051b8501011115610d3e578485fd5b6020830194508093505050509250925092565b60008060408385031215610d63578182fd5b50508035926020909101359150565b600080600060608486031215610d86578283fd5b505081359360208301359350604090920135919050565b60008151610daf818560208601610f48565b9290920192915050565b60008351610dcb818460208801610f48565b835190830190610ddf818360208801610f48565b01949350505050565b600080845482600182811c915080831680610e0457607f831692505b6020808410821415610e2457634e487b7160e01b87526022600452602487fd5b818015610e385760018114610e4957610e75565b60ff19861689528489019650610e75565b60008b815260209020885b86811015610e6d5781548b820152908501908301610e54565b505084890196505b505050505050610e858185610d9d565b95945050505050565b6020808252825182820181905260009190848201906040850190845b81811015610ec657835183529284019291840191600101610eaa565b50909695505050505050565b6020815260008251806020840152610ef1816040850160208701610f48565b601f01601f19169190910160400192915050565b60008219821115610f1857610f18610fdc565b500190565b600082610f2c57610f2c610ff2565b500490565b600082821015610f4357610f43610fdc565b500390565b60005b83811015610f63578181015183820152602001610f4b565b83811115610f72576000848401525b50505050565b600181811c90821680610f8c57607f821691505b6020821081141561093857634e487b7160e01b600052602260045260246000fd5b6000600019821415610fc157610fc1610fdc565b5060010190565b600082610fd757610fd7610ff2565b500690565b634e487b7160e01b600052601160045260246000fd5b634e487b7160e01b600052601260045260246000fdfea264697066735822122002aefde9707ce68c4097573cddaa390be9deb9cce69709b9924e9808be93784364736f6c63430008040033",
  "linkReferences": {},
  "deployedLinkReferences": {}
}