{
  "_format": "hh-sol-artifact-1",
  "contractName": "ERC3664",
  "sourceName": "contracts/EIP3664/ERC3664.sol",
  "abi": [
    {
      "inputs": [
        {
          "internalType": "string",
          "name": "uri_",
          "type": "string"
        }
      ],
      "stateMutability": "nonpayable",
      "type": "constructor"
    },
    {
      "anonymous": false,
      "inputs": [
        {
          "indexed": true,
          "internalType": "address",
          "name": "operator",
          "type": "address"
        },
        {
          "indexed": false,
          "internalType": "uint256",
          "name": "from",
          "type": "uint256"
        },
        {
          "indexed": false,
          "internalType": "uint256",
          "name": "to",
          "type": "uint256"
        },
        {
          "indexed": false,
          "internalType": "uint256",
          "name": "attrId",
          "type": "uint256"
        },
        {
          "indexed": false,
          "internalType": "uint256",
          "name": "amount",
          "type": "uint256"
        }
      ],
      "name": "AttributeApproval",
      "type": "event"
    },
    {
      "anonymous": false,
      "inputs": [
        {
          "indexed": true,
          "internalType": "uint256",
          "name": "attrId",
          "type": "uint256"
        },
        {
          "indexed": false,
          "internalType": "string",
          "name": "name",
          "type": "string"
        },
        {
          "indexed": false,
          "internalType": "string",
          "name": "symbol",
          "type": "string"
        },
        {
          "indexed": false,
          "internalType": "uint8",
          "name": "_decimal",
          "type": "uint8"
        },
        {
          "indexed": false,
          "internalType": "string",
          "name": "uri",
          "type": "string"
        }
      ],
      "name": "AttributeCreated",
      "type": "event"
    },
    {
      "anonymous": false,
      "inputs": [
        {
          "indexed": true,
          "internalType": "address",
          "name": "operator",
          "type": "address"
        },
        {
          "indexed": true,
          "internalType": "uint256",
          "name": "from",
          "type": "uint256"
        },
        {
          "indexed": true,
          "internalType": "uint256",
          "name": "to",
          "type": "uint256"
        },
        {
          "indexed": false,
          "internalType": "uint256[]",
          "name": "attrIds",
          "type": "uint256[]"
        },
        {
          "indexed": false,
          "internalType": "uint256[]",
          "name": "values",
          "type": "uint256[]"
        }
      ],
      "name": "TransferBatch",
      "type": "event"
    },
    {
      "anonymous": false,
      "inputs": [
        {
          "indexed": true,
          "internalType": "address",
          "name": "operator",
          "type": "address"
        },
        {
          "indexed": true,
          "internalType": "uint256",
          "name": "from",
          "type": "uint256"
        },
        {
          "indexed": true,
          "internalType": "uint256",
          "name": "to",
          "type": "uint256"
        },
        {
          "indexed": false,
          "internalType": "uint256",
          "name": "attrId",
          "type": "uint256"
        },
        {
          "indexed": false,
          "internalType": "uint256",
          "name": "value",
          "type": "uint256"
        }
      ],
      "name": "TransferSingle",
      "type": "event"
    },
    {
      "inputs": [
        {
          "internalType": "uint256",
          "name": "",
          "type": "uint256"
        }
      ],
      "name": "_totalSupply",
      "outputs": [
        {
          "internalType": "uint256",
          "name": "",
          "type": "uint256"
        }
      ],
      "stateMutability": "view",
      "type": "function"
    },
    {
      "inputs": [
        {
          "internalType": "address",
          "name": "operator",
          "type": "address"
        },
        {
          "internalType": "uint256",
          "name": "from",
          "type": "uint256"
        },
        {
          "internalType": "uint256",
          "name": "to",
          "type": "uint256"
        },
        {
          "internalType": "uint256",
          "name": "attrId",
          "type": "uint256"
        },
        {
          "internalType": "uint256",
          "name": "amount",
          "type": "uint256"
        }
      ],
      "name": "_transfer",
      "outputs": [],
      "stateMutability": "nonpayable",
      "type": "function"
    },
    {
      "inputs": [
        {
          "internalType": "uint256",
          "name": "from",
          "type": "uint256"
        },
        {
          "internalType": "uint256",
          "name": "to",
          "type": "uint256"
        },
        {
          "internalType": "uint256",
          "name": "attrId",
          "type": "uint256"
        }
      ],
      "name": "allowance",
      "outputs": [
        {
          "internalType": "uint256",
          "name": "",
          "type": "uint256"
        }
      ],
      "stateMutability": "view",
      "type": "function"
    },
    {
      "inputs": [
        {
          "internalType": "uint256",
          "name": "from",
          "type": "uint256"
        },
        {
          "internalType": "uint256",
          "name": "to",
          "type": "uint256"
        },
        {
          "internalType": "uint256",
          "name": "attrId",
          "type": "uint256"
        },
        {
          "internalType": "uint256",
          "name": "amount",
          "type": "uint256"
        }
      ],
      "name": "approve",
      "outputs": [],
      "stateMutability": "nonpayable",
      "type": "function"
    },
    {
      "inputs": [
        {
          "internalType": "uint256",
          "name": "",
          "type": "uint256"
        },
        {
          "internalType": "uint256",
          "name": "",
          "type": "uint256"
        }
      ],
      "name": "attrBalances",
      "outputs": [
        {
          "internalType": "uint256",
          "name": "",
          "type": "uint256"
        }
      ],
      "stateMutability": "view",
      "type": "function"
    },
    {
      "inputs": [
        {
          "internalType": "uint256",
          "name": "attrId",
          "type": "uint256"
        }
      ],
      "name": "attrURI",
      "outputs": [
        {
          "internalType": "string",
          "name": "",
          "type": "string"
        }
      ],
      "stateMutability": "view",
      "type": "function"
    },
    {
      "inputs": [
        {
          "internalType": "uint256",
          "name": "tokenId",
          "type": "uint256"
        },
        {
          "internalType": "uint256",
          "name": "attrId",
          "type": "uint256"
        }
      ],
      "name": "balanceOf",
      "outputs": [
        {
          "internalType": "uint256",
          "name": "",
          "type": "uint256"
        }
      ],
      "stateMutability": "view",
      "type": "function"
    },
    {
      "inputs": [
        {
          "internalType": "uint256",
          "name": "tokenId",
          "type": "uint256"
        },
        {
          "internalType": "uint256[]",
          "name": "attrIds",
          "type": "uint256[]"
        }
      ],
      "name": "balanceOfBatch",
      "outputs": [
        {
          "internalType": "uint256[]",
          "name": "",
          "type": "uint256[]"
        }
      ],
      "stateMutability": "view",
      "type": "function"
    },
    {
      "inputs": [
        {
          "internalType": "uint256",
          "name": "attrId",
          "type": "uint256"
        }
      ],
      "name": "decimal",
      "outputs": [
        {
          "internalType": "uint8",
          "name": "",
          "type": "uint8"
        }
      ],
      "stateMutability": "view",
      "type": "function"
    },
    {
      "inputs": [
        {
          "internalType": "uint256",
          "name": "attrId",
          "type": "uint256"
        }
      ],
      "name": "name",
      "outputs": [
        {
          "internalType": "string",
          "name": "",
          "type": "string"
        }
      ],
      "stateMutability": "view",
      "type": "function"
    },
    {
      "inputs": [
        {
          "internalType": "bytes4",
          "name": "interfaceId",
          "type": "bytes4"
        }
      ],
      "name": "supportsInterface",
      "outputs": [
        {
          "internalType": "bool",
          "name": "",
          "type": "bool"
        }
      ],
      "stateMutability": "view",
      "type": "function"
    },
    {
      "inputs": [
        {
          "internalType": "uint256",
          "name": "attrId",
          "type": "uint256"
        }
      ],
      "name": "symbol",
      "outputs": [
        {
          "internalType": "string",
          "name": "",
          "type": "string"
        }
      ],
      "stateMutability": "view",
      "type": "function"
    },
    {
      "inputs": [
        {
          "internalType": "uint256",
          "name": "attrId",
          "type": "uint256"
        }
      ],
      "name": "totalSupply",
      "outputs": [
        {
          "internalType": "uint256",
          "name": "",
          "type": "uint256"
        }
      ],
      "stateMutability": "view",
      "type": "function"
    },
    {
      "inputs": [
        {
          "internalType": "uint256",
          "name": "from",
          "type": "uint256"
        },
        {
          "internalType": "uint256",
          "name": "to",
          "type": "uint256"
        },
        {
          "internalType": "uint256",
          "name": "attrId",
          "type": "uint256"
        },
        {
          "internalType": "uint256",
          "name": "amount",
          "type": "uint256"
        }
      ],
      "name": "transfer",
      "outputs": [],
      "stateMutability": "nonpayable",
      "type": "function"
    },
    {
      "inputs": [
        {
          "internalType": "uint256",
          "name": "from",
          "type": "uint256"
        },
        {
          "internalType": "uint256",
          "name": "to",
          "type": "uint256"
        },
        {
          "internalType": "uint256",
          "name": "attrId",
          "type": "uint256"
        },
        {
          "internalType": "uint256",
          "name": "amount",
          "type": "uint256"
        }
      ],
      "name": "transferFrom",
      "outputs": [],
      "stateMutability": "nonpayable",
      "type": "function"
    }
  ],
  "bytecode": "0x60806040523480156200001157600080fd5b50604051620013fb380380620013fb833981016040819052620000349162000105565b6200003f8162000046565b506200022e565b80516200005b9060009060208401906200005f565b5050565b8280546200006d90620001db565b90600052602060002090601f016020900481019282620000915760008555620000dc565b82601f10620000ac57805160ff1916838001178555620000dc565b82800160010185558215620000dc579182015b82811115620000dc578251825591602001919060010190620000bf565b50620000ea929150620000ee565b5090565b5b80821115620000ea5760008155600101620000ef565b6000602080838503121562000118578182fd5b82516001600160401b03808211156200012f578384fd5b818501915085601f83011262000143578384fd5b81518181111562000158576200015862000218565b604051601f8201601f19908116603f0116810190838211818310171562000183576200018362000218565b8160405282815288868487010111156200019b578687fd5b8693505b82841015620001be57848401860151818501870152928501926200019f565b82841115620001cf57868684830101525b98975050505050505050565b600181811c90821680620001f057607f821691505b602082108114156200021257634e487b7160e01b600052602260045260246000fd5b50919050565b634e487b7160e01b600052604160045260246000fd5b6111bd806200023e6000396000f3fe608060405234801561001057600080fd5b50600436106100f45760003560e01c80637cba859811610097578063e15fe34f11610066578063e15fe34f14610227578063e829ffa11461023a578063ea69963314610265578063f371efa41461028f57600080fd5b80637cba8598146101ce5780638856f779146101e15780639bc5ae54146101f4578063bd85b0391461020757600080fd5b80634e41a1fb116100d35780634e41a1fb1461015a5780635977e82a1461016d5780635d1261101461019b5780636c06296c146101bb57600080fd5b8062ad800c146100f957806301ffc9a7146101225780632f94e4aa14610145575b600080fd5b61010c610107366004610e11565b6102b4565b6040516101199190611055565b60405180910390f35b610135610130366004610de9565b6103d1565b6040519015158152602001610119565b610158610153366004610d9b565b610423565b005b61010c610168366004610e11565b6105c9565b61018d61017b366004610e11565b60046020526000908152604090205481565b604051908152602001610119565b6101ae6101a9366004610e29565b610662565b6040516101199190611011565b6101586101c9366004610eef565b61074f565b6101586101dc366004610eef565b610761565b6101586101ef366004610eef565b610776565b61010c610202366004610e11565b6108a5565b61018d610215366004610e11565b60009081526004602052604090205490565b61018d610235366004610ec4565b610a49565b61018d610248366004610ea3565b600260209081526000928352604080842090915290825290205481565b61018d610273366004610ea3565b6000908152600260209081526040808320938352929052205490565b6102a261029d366004610e11565b610aaa565b60405160ff9091168152602001610119565b60008181526001602052604090206004015460609060ff166103335760405162461bcd60e51b815260206004820152602d60248201527f455243333636343a206e616d6520717565727920666f72206e6f6e657869737460448201526c656e742061747472696275746560981b60648201526084015b60405180910390fd5b6000828152600160205260409020805461034c906110f7565b80601f0160208091040260200160405190810160405280929190818152602001828054610378906110f7565b80156103c55780601f1061039a576101008083540402835291602001916103c5565b820191906000526020600020905b8154815290600101906020018083116103a857829003601f168201915b50505050509050919050565b60006001600160e01b03198216630e697ffb60e31b148061040257506001600160e01b03198216632658600760e01b145b8061041d57506301ffc9a760e01b6001600160e01b03198316145b92915050565b836104705760405162461bcd60e51b815260206004820181905260248201527f455243333636343a207472616e736665722066726f6d20746865207a65726f20604482015260640161032a565b826104bd5760405162461bcd60e51b815260206004820152601e60248201527f455243333636343a207472616e7366657220746f20746865207a65726f200000604482015260640161032a565b60408051602080820183526000918290528482526002815282822087835290522054818110156105405760405162461bcd60e51b815260206004820152602860248201527f455243333636343a207472616e7366657220616d6f756e7420657863656564736044820152672062616c616e636560c01b606482015260840161032a565b6000838152600260209081526040808320888452909152808220848403905585825281208054849290610574908490611088565b90915550506040805184815260208101849052859187916001600160a01b038a16917f73b5fbfbf0177b0de2ffe9fd0ae9887dd73d0d865db7ab5ff3c4a6b9bb8db1e3910160405180910390a4505050505050565b60008181526001602052604090206004015460609060ff166106455760405162461bcd60e51b815260206004820152602f60248201527f455243333636343a2073796d626f6c20717565727920666f72206e6f6e65786960448201526e7374656e742061747472696275746560881b606482015260840161032a565b600082815260016020819052604090912001805461034c906110f7565b606060008267ffffffffffffffff81111561068d57634e487b7160e01b600052604160045260246000fd5b6040519080825280602002602001820160405280156106b6578160200160208202803683370190505b50905060005b838110156107465761070b868686848181106106e857634e487b7160e01b600052603260045260246000fd5b905060200201356000908152600260209081526040808320938352929052205490565b82828151811061072b57634e487b7160e01b600052603260045260246000fd5b602090810291909101015261073f8161112c565b90506106bc565b50949350505050565b61075b84848484610b3d565b50505050565b3361076f8186868686610423565b5050505050565b336107848186868686610423565b60006003600085886040516020016107a6929190918252602082015260400190565b6040516020818303038152906040528051906020012081526020019081526020016000206000868152602001908152602001600020549050828110156108415760405162461bcd60e51b815260206004820152602a60248201527f455243333636343a207472616e7366657220616d6f756e74206578636565647360448201526920616c6c6f77616e636560b01b606482015260840161032a565b828103600360008689604051602001610864929190918252602082015260400190565b604051602081830303815290604052805190602001208152602001908152602001600020600087815260200190815260200160002081905550505050505050565b60008181526001602052604090206004015460609060ff1661091e5760405162461bcd60e51b815260206004820152602c60248201527f455243333636343a2055524920717565727920666f72206e6f6e65786973746560448201526b6e742061747472696275746560a01b606482015260840161032a565b6000828152600160205260408120600301805461093a906110f7565b80601f0160208091040260200160405190810160405280929190818152602001828054610966906110f7565b80156109b35780601f10610988576101008083540402835291602001916109b3565b820191906000526020600020905b81548152906001019060200180831161099657829003601f168201915b505050505090506000815111156109f657806109ce84610c79565b6040516020016109df929190610f3c565b604051602081830303815290604052915050919050565b6000808054610a04906110f7565b905011610a205760405180602001604052806000815250610a3c565b6000610a2b84610c79565b6040516020016109df929190610f6b565b9392505050565b50919050565b6000600360008386604051602001610a6b929190918252602082015260400190565b60405160208183030381529060405280519060200120815260200190815260200160002060008481526020019081526020016000205490509392505050565b60008181526001602052604081206004015460ff16610b245760405162461bcd60e51b815260206004820152603060248201527f455243333636343a20646563696d616c20717565727920666f72206e6f6e657860448201526f697374656e742061747472696275746560801b606482015260840161032a565b5060009081526001602052604090206002015460ff1690565b83610b8a5760405162461bcd60e51b815260206004820152601f60248201527f455243333636343a20617070726f76652066726f6d20746865207a65726f2000604482015260640161032a565b82610bd75760405162461bcd60e51b815260206004820152601d60248201527f455243333636343a20617070726f766520746f20746865207a65726f20000000604482015260640161032a565b80600360008487604051602001610bf8929190918252602082015260400190565b60408051601f19818403018152918152815160209283012083528282019390935290820160009081208782528252829020929092558051868152918201859052818101849052606082018390525133917f4f3267cf1b4f4eda70a80ac65e00830cf370b07c616b8e687c172b69bb15a190919081900360800190a250505050565b606081610c9d5750506040805180820190915260018152600360fc1b602082015290565b8160005b8115610cc75780610cb18161112c565b9150610cc09050600a836110a0565b9150610ca1565b60008167ffffffffffffffff811115610cf057634e487b7160e01b600052604160045260246000fd5b6040519080825280601f01601f191660200182016040528015610d1a576020820181803683370190505b5090505b8415610d9357610d2f6001836110b4565b9150610d3c600a86611147565b610d47906030611088565b60f81b818381518110610d6a57634e487b7160e01b600052603260045260246000fd5b60200101906001600160f81b031916908160001a905350610d8c600a866110a0565b9450610d1e565b949350505050565b600080600080600060a08688031215610db2578081fd5b85356001600160a01b0381168114610dc8578182fd5b97602087013597506040870135966060810135965060800135945092505050565b600060208284031215610dfa578081fd5b81356001600160e01b031981168114610a3c578182fd5b600060208284031215610e22578081fd5b5035919050565b600080600060408486031215610e3d578283fd5b83359250602084013567ffffffffffffffff80821115610e5b578384fd5b818601915086601f830112610e6e578384fd5b813581811115610e7c578485fd5b8760208260051b8501011115610e90578485fd5b6020830194508093505050509250925092565b60008060408385031215610eb5578182fd5b50508035926020909101359150565b600080600060608486031215610ed8578283fd5b505081359360208301359350604090920135919050565b60008060008060808587031215610f04578384fd5b5050823594602084013594506040840135936060013592509050565b60008151610f328185602086016110cb565b9290920192915050565b60008351610f4e8184602088016110cb565b835190830190610f628183602088016110cb565b01949350505050565b600080845482600182811c915080831680610f8757607f831692505b6020808410821415610fa757634e487b7160e01b87526022600452602487fd5b818015610fbb5760018114610fcc57610ff8565b60ff19861689528489019650610ff8565b60008b815260209020885b86811015610ff05781548b820152908501908301610fd7565b505084890196505b5050505050506110088185610f20565b95945050505050565b6020808252825182820181905260009190848201906040850190845b818110156110495783518352928401929184019160010161102d565b50909695505050505050565b60208152600082518060208401526110748160408501602087016110cb565b601f01601f19169190910160400192915050565b6000821982111561109b5761109b61115b565b500190565b6000826110af576110af611171565b500490565b6000828210156110c6576110c661115b565b500390565b60005b838110156110e65781810151838201526020016110ce565b8381111561075b5750506000910152565b600181811c9082168061110b57607f821691505b60208210811415610a4357634e487b7160e01b600052602260045260246000fd5b60006000198214156111405761114061115b565b5060010190565b60008261115657611156611171565b500690565b634e487b7160e01b600052601160045260246000fd5b634e487b7160e01b600052601260045260246000fdfea26469706673582212205b584c8e487c73b8604852349e780bf0232ef9e88227ee9516f543103af9221964736f6c63430008040033",
  "linkReferences": {},
  "deployedLinkReferences": {}
}