{
  "_format": "hh-sol-artifact-1",
  "contractName": "ERC3664",
  "sourceName": "contracts/EIP3664/ERC3664.sol",
  "abi": [
    {
      "inputs": [
        {
          "internalType": "string",
          "name": "uri_",
          "type": "string"
        }
      ],
      "stateMutability": "nonpayable",
      "type": "constructor"
    },
    {
      "anonymous": false,
      "inputs": [
        {
          "indexed": true,
          "internalType": "uint256",
          "name": "attrId",
          "type": "uint256"
        },
        {
          "indexed": false,
          "internalType": "string",
          "name": "name",
          "type": "string"
        },
        {
          "indexed": false,
          "internalType": "string",
          "name": "symbol",
          "type": "string"
        },
        {
          "indexed": false,
          "internalType": "string",
          "name": "uri",
          "type": "string"
        }
      ],
      "name": "AttributeCreated",
      "type": "event"
    },
    {
      "anonymous": false,
      "inputs": [
        {
          "indexed": true,
          "internalType": "address",
          "name": "operator",
          "type": "address"
        },
        {
          "indexed": false,
          "internalType": "uint256",
          "name": "from",
          "type": "uint256"
        },
        {
          "indexed": false,
          "internalType": "uint256",
          "name": "to",
          "type": "uint256"
        },
        {
          "indexed": true,
          "internalType": "uint256[]",
          "name": "attrIds",
          "type": "uint256[]"
        },
        {
          "indexed": false,
          "internalType": "uint256[]",
          "name": "values",
          "type": "uint256[]"
        }
      ],
      "name": "TransferBatch",
      "type": "event"
    },
    {
      "anonymous": false,
      "inputs": [
        {
          "indexed": true,
          "internalType": "address",
          "name": "operator",
          "type": "address"
        },
        {
          "indexed": false,
          "internalType": "uint256",
          "name": "from",
          "type": "uint256"
        },
        {
          "indexed": false,
          "internalType": "uint256",
          "name": "to",
          "type": "uint256"
        },
        {
          "indexed": true,
          "internalType": "uint256",
          "name": "attrId",
          "type": "uint256"
        },
        {
          "indexed": false,
          "internalType": "uint256",
          "name": "value",
          "type": "uint256"
        }
      ],
      "name": "TransferSingle",
      "type": "event"
    },
    {
      "inputs": [
        {
          "internalType": "uint256",
          "name": "",
          "type": "uint256"
        },
        {
          "internalType": "uint256",
          "name": "",
          "type": "uint256"
        }
      ],
      "name": "attrBalances",
      "outputs": [
        {
          "internalType": "uint256",
          "name": "",
          "type": "uint256"
        }
      ],
      "stateMutability": "view",
      "type": "function"
    },
    {
      "inputs": [
        {
          "internalType": "uint256",
          "name": "attrId",
          "type": "uint256"
        }
      ],
      "name": "attrURI",
      "outputs": [
        {
          "internalType": "string",
          "name": "",
          "type": "string"
        }
      ],
      "stateMutability": "view",
      "type": "function"
    },
    {
      "inputs": [
        {
          "internalType": "uint256",
          "name": "tokenId",
          "type": "uint256"
        },
        {
          "internalType": "uint256",
          "name": "attrId",
          "type": "uint256"
        }
      ],
      "name": "balanceOf",
      "outputs": [
        {
          "internalType": "uint256",
          "name": "",
          "type": "uint256"
        }
      ],
      "stateMutability": "view",
      "type": "function"
    },
    {
      "inputs": [
        {
          "internalType": "uint256",
          "name": "tokenId",
          "type": "uint256"
        },
        {
          "internalType": "uint256[]",
          "name": "attrIds",
          "type": "uint256[]"
        }
      ],
      "name": "balanceOfBatch",
      "outputs": [
        {
          "internalType": "uint256[]",
          "name": "",
          "type": "uint256[]"
        }
      ],
      "stateMutability": "view",
      "type": "function"
    },
    {
      "inputs": [
        {
          "internalType": "uint256",
          "name": "attrId",
          "type": "uint256"
        }
      ],
      "name": "decimal",
      "outputs": [
        {
          "internalType": "uint8",
          "name": "",
          "type": "uint8"
        }
      ],
      "stateMutability": "view",
      "type": "function"
    },
    {
      "inputs": [
        {
          "internalType": "uint256",
          "name": "attrId",
          "type": "uint256"
        }
      ],
      "name": "name",
      "outputs": [
        {
          "internalType": "string",
          "name": "",
          "type": "string"
        }
      ],
      "stateMutability": "view",
      "type": "function"
    },
    {
      "inputs": [
        {
          "internalType": "uint256",
          "name": "tokenId",
          "type": "uint256"
        }
      ],
      "name": "primaryAttributeOf",
      "outputs": [
        {
          "internalType": "uint256",
          "name": "",
          "type": "uint256"
        }
      ],
      "stateMutability": "view",
      "type": "function"
    },
    {
      "inputs": [
        {
          "internalType": "uint256",
          "name": "tokenId",
          "type": "uint256"
        },
        {
          "internalType": "uint256",
          "name": "attrId",
          "type": "uint256"
        }
      ],
      "name": "setPrimaryAttribute",
      "outputs": [],
      "stateMutability": "nonpayable",
      "type": "function"
    },
    {
      "inputs": [
        {
          "internalType": "bytes4",
          "name": "interfaceId",
          "type": "bytes4"
        }
      ],
      "name": "supportsInterface",
      "outputs": [
        {
          "internalType": "bool",
          "name": "",
          "type": "bool"
        }
      ],
      "stateMutability": "view",
      "type": "function"
    },
    {
      "inputs": [
        {
          "internalType": "uint256",
          "name": "attrId",
          "type": "uint256"
        }
      ],
      "name": "symbol",
      "outputs": [
        {
          "internalType": "string",
          "name": "",
          "type": "string"
        }
      ],
      "stateMutability": "view",
      "type": "function"
    }
  ],
  "bytecode": "0x60806040523480156200001157600080fd5b5060405162000e8738038062000e87833981016040819052620000349162000105565b6200003f8162000046565b506200022e565b80516200005b9060009060208401906200005f565b5050565b8280546200006d90620001db565b90600052602060002090601f016020900481019282620000915760008555620000dc565b82601f10620000ac57805160ff1916838001178555620000dc565b82800160010185558215620000dc579182015b82811115620000dc578251825591602001919060010190620000bf565b50620000ea929150620000ee565b5090565b5b80821115620000ea5760008155600101620000ef565b6000602080838503121562000118578182fd5b82516001600160401b03808211156200012f578384fd5b818501915085601f83011262000143578384fd5b81518181111562000158576200015862000218565b604051601f8201601f19908116603f0116810190838211818310171562000183576200018362000218565b8160405282815288868487010111156200019b578687fd5b8693505b82841015620001be57848401860151818501870152928501926200019f565b82841115620001cf57868684830101525b98975050505050505050565b600181811c90821680620001f057607f821691505b602082108114156200021257634e487b7160e01b600052602260045260246000fd5b50919050565b634e487b7160e01b600052604160045260246000fd5b610c49806200023e6000396000f3fe608060405234801561001057600080fd5b506004361061009d5760003560e01c806387e21d421161006657806387e21d42146101365780639bc5ae5414610164578063e829ffa114610177578063ea699633146101a2578063f371efa4146101cc57600080fd5b8062ad800c146100a257806301ffc9a7146100cb5780631070717b146100ee5780634e41a1fb146101035780635d12611014610116575b600080fd5b6100b56100b03660046108f5565b6101f1565b6040516100c29190610add565b60405180910390f35b6100de6100d93660046108cd565b61030e565b60405190151581526020016100c2565b6101016100fc366004610987565b610360565b005b6100b56101113660046108f5565b6103ee565b61012961012436600461090d565b610487565b6040516100c29190610a99565b6101566101443660046108f5565b60009081526003602052604090205490565b6040519081526020016100c2565b6100b56101723660046108f5565b610574565b610156610185366004610987565b600260209081526000928352604080842090915290825290205481565b6101566101b0366004610987565b6000908152600260209081526040808320938352929052205490565b6101df6101da3660046108f5565b610718565b60405160ff90911681526020016100c2565b60008181526001602052604090206004015460609060ff166102705760405162461bcd60e51b815260206004820152602d60248201527f455243333636343a206e616d6520717565727920666f72206e6f6e657869737460448201526c656e742061747472696275746560981b60648201526084015b60405180910390fd5b6000828152600160205260409020805461028990610b83565b80601f01602080910402602001604051908101604052809291908181526020018280546102b590610b83565b80156103025780601f106102d757610100808354040283529160200191610302565b820191906000526020600020905b8154815290600101906020018083116102e557829003601f168201915b50505050509050919050565b60006001600160e01b03198216631074cd8d60e11b148061033f57506001600160e01b03198216632658600760e01b145b8061035a57506301ffc9a760e01b6001600160e01b03198316145b92915050565b60008181526002602090815260408083208584529091529020546103dc5760405162461bcd60e51b815260206004820152602d60248201527f455243333636343a20746f6b656e20686173206e6f742061747461636865642060448201526c7468652061747472696275746560981b6064820152608401610267565b60009182526003602052604090912055565b60008181526001602052604090206004015460609060ff1661046a5760405162461bcd60e51b815260206004820152602f60248201527f455243333636343a2073796d626f6c20717565727920666f72206e6f6e65786960448201526e7374656e742061747472696275746560881b6064820152608401610267565b600082815260016020819052604090912001805461028990610b83565b606060008267ffffffffffffffff8111156104b257634e487b7160e01b600052604160045260246000fd5b6040519080825280602002602001820160405280156104db578160200160208202803683370190505b50905060005b8381101561056b576105308686868481811061050d57634e487b7160e01b600052603260045260246000fd5b905060200201356000908152600260209081526040808320938352929052205490565b82828151811061055057634e487b7160e01b600052603260045260246000fd5b602090810291909101015261056481610bb8565b90506104e1565b50949350505050565b60008181526001602052604090206004015460609060ff166105ed5760405162461bcd60e51b815260206004820152602c60248201527f455243333636343a2055524920717565727920666f72206e6f6e65786973746560448201526b6e742061747472696275746560a01b6064820152608401610267565b6000828152600160205260408120600301805461060990610b83565b80601f016020809104026020016040519081016040528092919081815260200182805461063590610b83565b80156106825780601f1061065757610100808354040283529160200191610682565b820191906000526020600020905b81548152906001019060200180831161066557829003601f168201915b505050505090506000815111156106c5578061069d846107ab565b6040516020016106ae9291906109c4565b604051602081830303815290604052915050919050565b60008080546106d390610b83565b9050116106ef576040518060200160405280600081525061070b565b60006106fa846107ab565b6040516020016106ae9291906109f3565b9392505050565b50919050565b60008181526001602052604081206004015460ff166107925760405162461bcd60e51b815260206004820152603060248201527f455243333636343a20646563696d616c20717565727920666f72206e6f6e657860448201526f697374656e742061747472696275746560801b6064820152608401610267565b5060009081526001602052604090206002015460ff1690565b6060816107cf5750506040805180820190915260018152600360fc1b602082015290565b8160005b81156107f957806107e381610bb8565b91506107f29050600a83610b28565b91506107d3565b60008167ffffffffffffffff81111561082257634e487b7160e01b600052604160045260246000fd5b6040519080825280601f01601f19166020018201604052801561084c576020820181803683370190505b5090505b84156108c557610861600183610b3c565b915061086e600a86610bd3565b610879906030610b10565b60f81b81838151811061089c57634e487b7160e01b600052603260045260246000fd5b60200101906001600160f81b031916908160001a9053506108be600a86610b28565b9450610850565b949350505050565b6000602082840312156108de578081fd5b81356001600160e01b03198116811461070b578182fd5b600060208284031215610906578081fd5b5035919050565b600080600060408486031215610921578182fd5b83359250602084013567ffffffffffffffff8082111561093f578384fd5b818601915086601f830112610952578384fd5b813581811115610960578485fd5b8760208260051b8501011115610974578485fd5b6020830194508093505050509250925092565b60008060408385031215610999578182fd5b50508035926020909101359150565b600081516109ba818560208601610b53565b9290920192915050565b600083516109d6818460208801610b53565b8351908301906109ea818360208801610b53565b01949350505050565b600080845482600182811c915080831680610a0f57607f831692505b6020808410821415610a2f57634e487b7160e01b87526022600452602487fd5b818015610a435760018114610a5457610a80565b60ff19861689528489019650610a80565b60008b815260209020885b86811015610a785781548b820152908501908301610a5f565b505084890196505b505050505050610a9081856109a8565b95945050505050565b6020808252825182820181905260009190848201906040850190845b81811015610ad157835183529284019291840191600101610ab5565b50909695505050505050565b6020815260008251806020840152610afc816040850160208701610b53565b601f01601f19169190910160400192915050565b60008219821115610b2357610b23610be7565b500190565b600082610b3757610b37610bfd565b500490565b600082821015610b4e57610b4e610be7565b500390565b60005b83811015610b6e578181015183820152602001610b56565b83811115610b7d576000848401525b50505050565b600181811c90821680610b9757607f821691505b6020821081141561071257634e487b7160e01b600052602260045260246000fd5b6000600019821415610bcc57610bcc610be7565b5060010190565b600082610be257610be2610bfd565b500690565b634e487b7160e01b600052601160045260246000fd5b634e487b7160e01b600052601260045260246000fdfea2646970667358221220d8a44b813df33fe533942d01a4321d7024358007bbede87ed53e1ba51998ff9964736f6c63430008040033",
  "linkReferences": {},
  "deployedLinkReferences": {}
}